{"contracts/SupeRare.sol":{"SupeRare":{"abi":[{"anonymous":false,"inputs":[{"indexed":true,"internalType":"address","name":"_bidder","type":"address"},{"indexed":true,"internalType":"address","name":"_seller","type":"address"},{"indexed":false,"internalType":"uint256","name":"_amount","type":"uint256"},{"indexed":true,"internalType":"uint256","name":"_tokenId","type":"uint256"}],"name":"AcceptBid","type":"event"},{"anonymous":false,"inputs":[{"indexed":true,"internalType":"address","name":"_owner","type":"address"},{"indexed":true,"internalType":"address","name":"_approved","type":"address"},{"indexed":false,"internalType":"uint256","name":"_tokenId","type":"uint256"}],"name":"Approval","type":"event"},{"anonymous":false,"inputs":[{"indexed":true,"internalType":"address","name":"_bidder","type":"address"},{"indexed":true,"internalType":"uint256","name":"_amount","type":"uint256"},{"indexed":true,"internalType":"uint256","name":"_tokenId","type":"uint256"}],"name":"Bid","type":"event"},{"anonymous":false,"inputs":[{"indexed":true,"internalType":"address","name":"_bidder","type":"address"},{"indexed":true,"internalType":"uint256","name":"_amount","type":"uint256"},{"indexed":true,"internalType":"uint256","name":"_tokenId","type":"uint256"}],"name":"CancelBid","type":"event"},{"anonymous":false,"inputs":[{"indexed":true,"internalType":"address","name":"previousOwner","type":"address"},{"indexed":true,"internalType":"address","name":"newOwner","type":"address"}],"name":"OwnershipTransferred","type":"event"},{"anonymous":false,"inputs":[{"indexed":true,"internalType":"uint256","name":"_tokenId","type":"uint256"},{"indexed":true,"internalType":"uint256","name":"_price","type":"uint256"}],"name":"SalePriceSet","type":"event"},{"anonymous":false,"inputs":[{"indexed":true,"internalType":"address","name":"_buyer","type":"address"},{"indexed":true,"internalType":"address","name":"_seller","type":"address"},{"indexed":false,"internalType":"uint256","name":"_amount","type":"uint256"},{"indexed":true,"internalType":"uint256","name":"_tokenId","type":"uint256"}],"name":"Sold","type":"event"},{"anonymous":false,"inputs":[{"indexed":true,"internalType":"address","name":"_from","type":"address"},{"indexed":true,"internalType":"address","name":"_to","type":"address"},{"indexed":false,"internalType":"uint256","name":"_tokenId","type":"uint256"}],"name":"Transfer","type":"event"},{"anonymous":false,"inputs":[{"indexed":true,"internalType":"address","name":"_creator","type":"address"}],"name":"WhitelistCreator","type":"event"},{"inputs":[{"internalType":"uint256","name":"_tokenId","type":"uint256"}],"name":"acceptBid","outputs":[],"stateMutability":"nonpayable","type":"function"},{"inputs":[{"internalType":"string","name":"_uri","type":"string"}],"name":"addNewToken","outputs":[],"stateMutability":"nonpayable","type":"function"},{"inputs":[{"internalType":"string","name":"_uri","type":"string"},{"internalType":"uint256","name":"_editions","type":"uint256"},{"internalType":"uint256","name":"_salePrice","type":"uint256"}],"name":"addNewTokenWithEditions","outputs":[],"stateMutability":"nonpayable","type":"function"},{"inputs":[{"internalType":"address","name":"_to","type":"address"},{"internalType":"uint256","name":"_tokenId","type":"uint256"}],"name":"approve","outputs":[],"stateMutability":"nonpayable","type":"function"},{"inputs":[{"internalType":"uint256","name":"_tokenId","type":"uint256"}],"name":"approvedFor","outputs":[{"internalType":"address","name":"","type":"address"}],"stateMutability":"view","type":"function"},{"inputs":[{"internalType":"address","name":"_owner","type":"address"}],"name":"balanceOf","outputs":[{"internalType":"uint256","name":"","type":"uint256"}],"stateMutability":"view","type":"function"},{"inputs":[{"internalType":"uint256","name":"_tokenId","type":"uint256"}],"name":"bid","outputs":[],"stateMutability":"payable","type":"function"},{"inputs":[{"internalType":"uint256","name":"_tokenId","type":"uint256"}],"name":"buy","outputs":[],"stateMutability":"payable","type":"function"},{"inputs":[{"internalType":"uint256","name":"_tokenId","type":"uint256"}],"name":"cancelBid","outputs":[],"stateMutability":"nonpayable","type":"function"},{"inputs":[{"internalType":"uint256","name":"_tokenId","type":"uint256"}],"name":"creatorOfToken","outputs":[{"internalType":"address","name":"","type":"address"}],"stateMutability":"view","type":"function"},{"inputs":[],"name":"creatorPercentage","outputs":[{"internalType":"uint256","name":"","type":"uint256"}],"stateMutability":"view","type":"function"},{"inputs":[{"internalType":"uint256","name":"_tokenId","type":"uint256"}],"name":"currentBidDetailsOfToken","outputs":[{"internalType":"uint256","name":"","type":"uint256"},{"internalType":"address","name":"","type":"address"}],"stateMutability":"view","type":"function"},{"inputs":[{"internalType":"address","name":"_creator","type":"address"}],"name":"isWhitelisted","outputs":[{"internalType":"bool","name":"","type":"bool"}],"stateMutability":"view","type":"function"},{"inputs":[],"name":"maintainerPercentage","outputs":[{"internalType":"uint256","name":"","type":"uint256"}],"stateMutability":"view","type":"function"},{"inputs":[],"name":"name","outputs":[{"internalType":"string","name":"_name","type":"string"}],"stateMutability":"pure","type":"function"},{"inputs":[{"internalType":"string","name":"_uri","type":"string"}],"name":"originalTokenOfUri","outputs":[{"internalType":"uint256","name":"","type":"uint256"}],"stateMutability":"view","type":"function"},{"inputs":[],"name":"owner","outputs":[{"internalType":"address","name":"","type":"address"}],"stateMutability":"view","type":"function"},{"inputs":[{"internalType":"uint256","name":"_tokenId","type":"uint256"}],"name":"ownerOf","outputs":[{"internalType":"address","name":"","type":"address"}],"stateMutability":"view","type":"function"},{"inputs":[{"internalType":"uint256","name":"_tokenId","type":"uint256"}],"name":"salePriceOfToken","outputs":[{"internalType":"uint256","name":"","type":"uint256"}],"stateMutability":"view","type":"function"},{"inputs":[{"internalType":"uint256","name":"_percentage","type":"uint256"}],"name":"setCreatorPercentage","outputs":[],"stateMutability":"nonpayable","type":"function"},{"inputs":[{"internalType":"uint256","name":"_percentage","type":"uint256"}],"name":"setMaintainerPercentage","outputs":[],"stateMutability":"nonpayable","type":"function"},{"inputs":[{"internalType":"uint256","name":"_tokenId","type":"uint256"},{"internalType":"uint256","name":"_salePrice","type":"uint256"}],"name":"setSalePrice","outputs":[],"stateMutability":"nonpayable","type":"function"},{"inputs":[],"name":"symbol","outputs":[{"internalType":"string","name":"_symbol","type":"string"}],"stateMutability":"pure","type":"function"},{"inputs":[{"internalType":"uint256","name":"_tokenId","type":"uint256"}],"name":"takeOwnership","outputs":[],"stateMutability":"nonpayable","type":"function"},{"inputs":[{"internalType":"uint256","name":"_tokenId","type":"uint256"}],"name":"tokenURI","outputs":[{"internalType":"string","name":"","type":"string"}],"stateMutability":"view","type":"function"},{"inputs":[{"internalType":"address","name":"_owner","type":"address"}],"name":"tokensOf","outputs":[{"internalType":"uint256[]","name":"","type":"uint256[]"}],"stateMutability":"view","type":"function"},{"inputs":[],"name":"totalSupply","outputs":[{"internalType":"uint256","name":"","type":"uint256"}],"stateMutability":"view","type":"function"},{"inputs":[{"internalType":"address","name":"_to","type":"address"},{"internalType":"uint256","name":"_tokenId","type":"uint256"}],"name":"transfer","outputs":[],"stateMutability":"nonpayable","type":"function"},{"inputs":[{"internalType":"address","name":"newOwner","type":"address"}],"name":"transferOwnership","outputs":[],"stateMutability":"nonpayable","type":"function"},{"inputs":[{"internalType":"address","name":"_creator","type":"address"}],"name":"whitelistCreator","outputs":[],"stateMutability":"nonpayable","type":"function"}],"evm":{"bytecode":{"linkReferences":{},"object":"6080604052601e60065560646007553480156200001b57600080fd5b506200003867573564f2dd57811160c01b6200009b60201b60201c565b6200005467530174984785772460c01b6200009b60201b60201c565b33600560006101000a81548173ffffffffffffffffffffffffffffffffffffffff021916908373ffffffffffffffffffffffffffffffffffffffff1602179055506200009e565b50565b614d0280620000ae6000396000f3fe6080604052600436106101cd5760003560e01c806370a08231116100f7578063c0ec93e711610095578063d9856c2111610064578063d9856c2114610bf5578063f071bf4f14610cbd578063f2bf6b8c14610ce8578063f2fde38b14610d13576101cd565b8063c0ec93e714610a73578063c87b56dd14610aae578063d5da8d4414610b62578063d96a094a14610bc7576101cd565b80639703ef35116100d15780639703ef35146109535780639f2a3c321461098e578063a9059cbb146109dd578063b2e6ceeb14610a38576101cd565b806370a082311461081d5780638da5cb5b1461088257806395d89b41146108c3576101cd565b80632b1fd58a1161016f5780635c68a5571161013e5780635c68a5571461065057806362f11dd21461068b5780636352211e146106dc578063653436fd14610741576101cd565b80632b1fd58a146104da5780633af32abf14610515578063454a2ab31461057c5780635a3f2672146105aa576101cd565b8063095ea7b3116101ab578063095ea7b31461038357806318160ddd146103de5780631a289aea146104095780632a6dd48f14610475576101cd565b8063019871e9146101d2578063053992c5146102ae57806306fdde03146102f3575b600080fd5b3480156101de57600080fd5b506102ac600480360360608110156101f557600080fd5b810190808035906020019064010000000081111561021257600080fd5b82018360208201111561022457600080fd5b8035906020019184600183028401116401000000008311171561024657600080fd5b91908080601f016020809104026020016040519081016040528093929190818152602001838380828437600081840152601f19601f8201169050808301925050505050505091929192908035906020019092919080359060200190929190505050610d64565b005b3480156102ba57600080fd5b506102f1600480360360408110156102d157600080fd5b810190808035906020019092919080359060200190929190505050611145565b005b3480156102ff57600080fd5b5061030861135e565b6040518080602001828103825283818151815260200191508051906020019080838360005b8381101561034857808201518184015260208101905061032d565b50505050905090810190601f1680156103755780820380516001836020036101000a031916815260200191505b509250505060405180910390f35b34801561038f57600080fd5b506103dc600480360360408110156103a657600080fd5b81019080803573ffffffffffffffffffffffffffffffffffffffff169060200190929190803590602001909291905050506113d7565b005b3480156103ea57600080fd5b506103f3611418565b6040518082815260200191505060405180910390f35b34801561041557600080fd5b506104426004803603602081101561042c57600080fd5b810190808035906020019092919050505061145e565b604051808381526020018273ffffffffffffffffffffffffffffffffffffffff1681526020019250505060405180910390f35b34801561048157600080fd5b506104ae6004803603602081101561049857600080fd5b81019080803590602001909291905050506114ee565b604051808273ffffffffffffffffffffffffffffffffffffffff16815260200191505060405180910390f35b3480156104e657600080fd5b50610513600480360360208110156104fd57600080fd5b8101908080359060200190929190505050611567565b005b34801561052157600080fd5b506105646004803603602081101561053857600080fd5b81019080803573ffffffffffffffffffffffffffffffffffffffff16906020019092919050505061190f565b60405180821515815260200191505060405180910390f35b6105a86004803603602081101561059257600080fd5b81019080803590602001909291905050506119a1565b005b3480156105b657600080fd5b506105f9600480360360208110156105cd57600080fd5b81019080803573ffffffffffffffffffffffffffffffffffffffff169060200190929190505050611c2d565b6040518080602001828103825283818151815260200191508051906020019060200280838360005b8381101561063c578082015181840152602081019050610621565b505050509050019250505060405180910390f35b34801561065c57600080fd5b506106896004803603602081101561067357600080fd5b8101908080359060200190929190505050611d00565b005b34801561069757600080fd5b506106da600480360360208110156106ae57600080fd5b81019080803573ffffffffffffffffffffffffffffffffffffffff169060200190929190505050611e2c565b005b3480156106e857600080fd5b50610715600480360360208110156106ff57600080fd5b8101908080359060200190929190505050612014565b604051808273ffffffffffffffffffffffffffffffffffffffff16815260200191505060405180910390f35b34801561074d57600080fd5b506108076004803603602081101561076457600080fd5b810190808035906020019064010000000081111561078157600080fd5b82018360208201111561079357600080fd5b803590602001918460018302840111640100000000831117156107b557600080fd5b91908080601f016020809104026020016040519081016040528093929190818152602001838380828437600081840152601f19601f820116905080830192505050505050509192919290505050612145565b6040518082815260200191505060405180910390f35b34801561082957600080fd5b5061086c6004803603602081101561084057600080fd5b81019080803573ffffffffffffffffffffffffffffffffffffffff169060200190929190505050612254565b6040518082815260200191505060405180910390f35b34801561088e57600080fd5b506108976122dc565b604051808273ffffffffffffffffffffffffffffffffffffffff16815260200191505060405180910390f35b3480156108cf57600080fd5b506108d8612302565b6040518080602001828103825283818151815260200191508051906020019080838360005b838110156109185780820151818401526020810190506108fd565b50505050905090810190601f1680156109455780820380516001836020036101000a031916815260200191505b509250505060405180910390f35b34801561095f57600080fd5b5061098c6004803603602081101561097657600080fd5b810190808035906020019092919050505061237b565b005b34801561099a57600080fd5b506109c7600480360360208110156109b157600080fd5b81019080803590602001909291905050506125c9565b6040518082815260200191505060405180910390f35b3480156109e957600080fd5b50610a3660048036036040811015610a0057600080fd5b81019080803573ffffffffffffffffffffffffffffffffffffffff16906020019092919080359060200190929190505050612622565b005b348015610a4457600080fd5b50610a7160048036036020811015610a5b57600080fd5b81019080803590602001909291905050506127bc565b005b348015610a7f57600080fd5b50610aac60048036036020811015610a9657600080fd5b8101908080359060200190929190505050612871565b005b348015610aba57600080fd5b50610ae760048036036020811015610ad157600080fd5b810190808035906020019092919050505061299d565b6040518080602001828103825283818151815260200191508051906020019080838360005b83811015610b27578082015181840152602081019050610b0c565b50505050905090810190601f168015610b545780820380516001836020036101000a031916815260200191505b509250505060405180910390f35b348015610b6e57600080fd5b50610b9b60048036036020811015610b8557600080fd5b8101908080359060200190929190505050612abf565b604051808273ffffffffffffffffffffffffffffffffffffffff16815260200191505060405180910390f35b610bf360048036036020811015610bdd57600080fd5b8101908080359060200190929190505050612b38565b005b348015610c0157600080fd5b50610cbb60048036036020811015610c1857600080fd5b8101908080359060200190640100000000811115610c3557600080fd5b820183602082011115610c4757600080fd5b80359060200191846001830284011164010000000083111715610c6957600080fd5b91908080601f016020809104026020016040519081016040528093929190818152602001838380828437600081840152601f19601f820116905080830192505050505050509192919290505050612fc7565b005b348015610cc957600080fd5b50610cd26132ac565b6040518082815260200191505060405180910390f35b348015610cf457600080fd5b50610cfd6132b2565b6040518082815260200191505060405180910390f35b348015610d1f57600080fd5b50610d6260048036036020811015610d3657600080fd5b81019080803573ffffffffffffffffffffffffffffffffffffffff1690602001909291905050506132b8565b005b610d78679b42d00d0ae580e260c01b61354c565b82610d8d67ac7bec09e3f7765f60c01b61354c565b610da167ce5d45a5f125bad360c01b61354c565b610db5676500a21a9e17332b60c01b61354c565b610dc9674678f8e0bccec0e760c01b61354c565b6000600d826040518082805190602001908083835b60208310610e015780518252602082019150602081019050602083039250610dde565b6001836020036101000a03801982511681845116808217855250505050505090500191505090815260200160405180910390205414610e3f57600080fd5b610e53676aaf034654a9b21460c01b61354c565b610e67673442d4862b980ffa60c01b61354c565b610e7b67b48a305739d326a760c01b61354c565b610e8f67cd8ab3da14c2c72660c01b61354c565b610ea36790341a4515026f6f60c01b61354c565b610eb7678eb4b24abf9cc3c760c01b61354c565b610ecb678af06f1b8e2213a560c01b61354c565b610edf677b0ba68bcdba400360c01b61354c565b60011515600f60003373ffffffffffffffffffffffffffffffffffffffff1673ffffffffffffffffffffffffffffffffffffffff16815260200190815260200160002060009054906101000a900460ff16151514610f3c57600080fd5b610f506764df1b59bc84370160c01b61354c565b610f64679df15489ad6cb3f060c01b61354c565b610f786728a0b69815a77cfc60c01b61354c565b610f8c67bd3e448a0f9f607e60c01b61354c565b610fa0678afb9e622ac4071360c01b61354c565b610fb4679e63e6ef98e82d7360c01b61354c565b6000610fc0853361354f565b9050610fd667e8018000132dd01b60c01b61354c565b80600d866040518082805190602001908083835b6020831061100d5780518252602082019150602081019050602083039250610fea565b6001836020036101000a0380198251168184511680821785525050505050509050019150509081526020016040518091039020819055506110586719890efae8be618c60c01b61354c565b61106c677a7bc9dbf507d85860c01b61354c565b60005b8481101561113d5761108b67636298e512a70a9a60c01b61354c565b61109f6719ad43a692e57bca60c01b61354c565b60006110ab873361354f565b90506110c1671d88a25744113efe60c01b61354c565b84600a6000838152602001908152602001600020819055506110ed678a6b3f21347cc23a60c01b61354c565b6111016741996b73e13f17e060c01b61354c565b84817fe23ea816dce6d7f5c0b85cbd597e7c3b97b2453791152c0b94e5e5c5f314d2f060405160405180910390a350808060010191505061106f565b505050505050565b61115967e12f7e0b883e131860c01b61354c565b8161116e676c884815578d2d7560c01b6136a2565b6111826767262f146b02bb6d60c01b6136a2565b611196671ad731cee4cd0b3860c01b6136a2565b6111aa672958298fa5bcfd2f60c01b6136a2565b3373ffffffffffffffffffffffffffffffffffffffff166111ca82612014565b73ffffffffffffffffffffffffffffffffffffffff16146111ea57600080fd5b6111fe6765593b5e4d84e5fd60c01b6136a2565b61121267e79247bca88e960960c01b6136a2565b61122667ed81bfe8a39d65fa60c01b61354c565b61123a67ff24d97e336fd0b460c01b61354c565b61124e67438074eb7c3f724460c01b61354c565b6112626770dd55389a53b54760c01b61354c565b60006009600085815260200190815260200160002054905061128e674cd425d422e775a560c01b61354c565b6112a2677e8663f2c233884d60c01b61354c565b6112b6670cb6f46b5bf50e3d60c01b61354c565b8083116112c257600080fd5b6112d66774afacd2bc6e4a1b60c01b61354c565b6112ea6702b0f90f23ec938460c01b61354c565b82600a6000868152602001908152602001600020819055506113166777a8093efaf2b0a860c01b61354c565b61132a6719cd61dabb9f022260c01b61354c565b82847fe23ea816dce6d7f5c0b85cbd597e7c3b97b2453791152c0b94e5e5c5f314d2f060405160405180910390a350505050565b606061137467ae0235cc265a156660c01b61354c565b61138867e701a9c3f57a84b560c01b61354c565b61139c67e29b5c4d8b44a1b660c01b61354c565b6040518060400160405280600881526020017f5375706552617265000000000000000000000000000000000000000000000000815250905090565b6113eb67d7e6ac095c29cdfe60c01b61354c565b6113ff67fbba02eb85d031be60c01b61354c565b61141367510affae6949069060c01b61354c565b600080fd5b600061142e67ca16a487ff7552fe60c01b6136a2565b611442670a9708679295827260c01b6136a2565b611456670302f2422b9ef8ca60c01b6136a2565b600054905090565b6000806114756717d1c2e2977662cc60c01b61354c565b6114896725803097a5291ff660c01b61354c565b61149d67e2f05778a8f4e6ad60c01b61354c565b60096000848152602001908152602001600020546008600085815260200190815260200160002060009054906101000a900473ffffffffffffffffffffffffffffffffffffffff1691509150915091565b6000611504676a5df69b0d90572560c01b6136a2565b611518671cf6eb4de5e8e94d60c01b6136a2565b61152c6765ac68fef9acd37760c01b6136a2565b6002600083815260200190815260200160002060009054906101000a900473ffffffffffffffffffffffffffffffffffffffff169050919050565b61157b677cd277af0393e2d960c01b61354c565b80611590676c884815578d2d7560c01b6136a2565b6115a46767262f146b02bb6d60c01b6136a2565b6115b8671ad731cee4cd0b3860c01b6136a2565b6115cc672958298fa5bcfd2f60c01b6136a2565b3373ffffffffffffffffffffffffffffffffffffffff166115ec82612014565b73ffffffffffffffffffffffffffffffffffffffff161461160c57600080fd5b6116206765593b5e4d84e5fd60c01b6136a2565b61163467e79247bca88e960960c01b6136a2565b61164867d49d346244a29c0460c01b61354c565b61165c67c428823a5ef6dd7860c01b61354c565b61167067d6e1b0b2b409650860c01b61354c565b61168467882ba32b269d015360c01b61354c565b6000600960008481526020019081526020016000205490506116b067080adeea74a2745060c01b61354c565b6116c467c7ee8862915c94e560c01b61354c565b60006008600085815260200190815260200160002060009054906101000a900473ffffffffffffffffffffffffffffffffffffffff169050611710670e74f6b4babb5cbb60c01b61354c565b61172467f8394d566097fdd060c01b61354c565b600061172f85612014565b905061174567df8c1d80cf053ced60c01b61354c565b611759678c7b781b17e0ee4160c01b61354c565b6000600b600087815260200190815260200160002060009054906101000a900473ffffffffffffffffffffffffffffffffffffffff1690506117a567ea49e993c1adceae60c01b61354c565b6117b9676ab31217566c259860c01b61354c565b6117c43384886136a5565b6117d867c853b268b661b60160c01b61354c565b6117ec6764622e7a7847937060c01b61354c565b61181b84600560009054906101000a900473ffffffffffffffffffffffffffffffffffffffff1683858a61398c565b61182f678c87e2db1349d23e60c01b61354c565b6118436788c7962a3467404060c01b61354c565b61184c86613d31565b61186067200fbc734789407b60c01b61354c565b61187467742561fdf6f3725160c01b61354c565b858273ffffffffffffffffffffffffffffffffffffffff168473ffffffffffffffffffffffffffffffffffffffff167fd6deddb2e105b46d4644d24aac8c58493a0f107e7973b2fe8d8fa7931a2912be876040518082815260200191505060405180910390a46118ee679ca50bd7e1e7a45360c01b61354c565b6000600a600088815260200190815260200160002081905550505050505050565b60006119256746da01030a2d877960c01b61354c565b61193967c942659ae7b56ab760c01b61354c565b61194d67d6ddecf12358ee8160c01b61354c565b600f60008373ffffffffffffffffffffffffffffffffffffffff1673ffffffffffffffffffffffffffffffffffffffff16815260200190815260200160002060009054906101000a900460ff169050919050565b6119b567ed4bd922328d249a60c01b61354c565b806119ca674ed5678a9b773c4d60c01b61354c565b6119de676c483246d1179b2560c01b61354c565b6119f267871b1c71cfc7057160c01b61354c565b611a0667fcc864498e0e3f6b60c01b61354c565b3373ffffffffffffffffffffffffffffffffffffffff16611a2682612014565b73ffffffffffffffffffffffffffffffffffffffff161415611a4757600080fd5b611a5b67cecaaee574e2a45c60c01b61354c565b611a6f678d2d8ac0753f4c2160c01b61354c565b611a8367a010a7b3a49d715b60c01b61354c565b611a9767b2f704ea6977c3dc60c01b61354c565b611aab67697e764b4dd2f4e360c01b61354c565b611abf673a4e5a53a0d6858060c01b61354c565b611ad367e8e39ca07f5a2b1360c01b61354c565b611adc82613ddc565b611ae557600080fd5b611af9670bcc2a9613a206bb60c01b61354c565b611b0d676c99c5fe18131f1f60c01b61354c565b611b2167270bbc4116ac988c60c01b61354c565b611b2a82613e37565b611b3e67bd2e58955e15370560c01b61354c565b336008600084815260200190815260200160002060006101000a81548173ffffffffffffffffffffffffffffffffffffffff021916908373ffffffffffffffffffffffffffffffffffffffff160217905550611ba467ca0477d0e4ab564c60c01b61354c565b346009600084815260200190815260200160002081905550611bd0678836a2278191496260c01b61354c565b611be467908839f575af8e9160c01b61354c565b81343373ffffffffffffffffffffffffffffffffffffffff167f19421268847f42dd61705778018ddfc43bcdce8517e7a630acb12f122c70948160405160405180910390a45050565b6060611c436740505e57adb0430560c01b6136a2565b611c576783feeeec5df768ab60c01b6136a2565b611c6b674900ffc8a7ac0b8760c01b6136a2565b600360008373ffffffffffffffffffffffffffffffffffffffff1673ffffffffffffffffffffffffffffffffffffffff168152602001908152602001600020805480602002602001604051908101604052809291908181526020018280548015611cf457602002820191906000526020600020905b815481526020019060010190808311611ce0575b50505050509050919050565b611d14673870cb46bbd53eb260c01b61354c565b611d286781858479fb9e847b60c01b613fe9565b611d3c67de0916d05884019060c01b613fe9565b611d506736055de3f7b7200c60c01b613fe9565b611d64672b1a2d677d47164460c01b613fe9565b600560009054906101000a900473ffffffffffffffffffffffffffffffffffffffff1673ffffffffffffffffffffffffffffffffffffffff163373ffffffffffffffffffffffffffffffffffffffff1614611dbe57600080fd5b611dd2676c74ee3d862a01a560c01b613fe9565b611de6672163f90381eea1b560c01b613fe9565b611dfa677ec32d4199c454c360c01b61354c565b611e0e672b92e4e08aa37fdf60c01b61354c565b611e226758c2ef13fe5481a760c01b61354c565b8060068190555050565b611e40673c4fb990e2e6237160c01b61354c565b611e546781858479fb9e847b60c01b613fe9565b611e6867de0916d05884019060c01b613fe9565b611e7c6736055de3f7b7200c60c01b613fe9565b611e90672b1a2d677d47164460c01b613fe9565b600560009054906101000a900473ffffffffffffffffffffffffffffffffffffffff1673ffffffffffffffffffffffffffffffffffffffff163373ffffffffffffffffffffffffffffffffffffffff1614611eea57600080fd5b611efe676c74ee3d862a01a560c01b613fe9565b611f12672163f90381eea1b560c01b613fe9565b611f2667f0e3ea2479385fe460c01b61354c565b611f3a678cc3b6d2d466fa7960c01b61354c565b611f4e67157442e48b39381860c01b61354c565b6001600f60008373ffffffffffffffffffffffffffffffffffffffff1673ffffffffffffffffffffffffffffffffffffffff16815260200190815260200160002060006101000a81548160ff021916908315150217905550611fba67f985884dbce4d17f60c01b61354c565b611fce675371440794ec789d60c01b61354c565b8073ffffffffffffffffffffffffffffffffffffffff167f55eed0aed3ec6e015b9ad5e984675fe36c0ce3aebdcb70f467670773f19f7f8d60405160405180910390a250565b600061202a670a26e3bcd7251dd860c01b6136a2565b61203e677e93a9ea2d1a635060c01b6136a2565b612052676dec9514286051fc60c01b6136a2565b60006001600084815260200190815260200160002060009054906101000a900473ffffffffffffffffffffffffffffffffffffffff16905061209e678bb907b99d886cba60c01b6136a2565b6120b267471356fc1c5f3dda60c01b6136a2565b6120c6673baeff1ad06a43d260c01b6136a2565b600073ffffffffffffffffffffffffffffffffffffffff168173ffffffffffffffffffffffffffffffffffffffff16141561210057600080fd5b61211467300d8c537eeb477660c01b6136a2565b6121286795d32e2b1ea1861960c01b6136a2565b61213c6773e45876734d54c660c01b6136a2565b80915050919050565b600061215b67f46108445d27022f60c01b61354c565b61216f674ee9c8bf44ccc52c60c01b61354c565b612183679b429ada603ff66660c01b61354c565b6000600d836040518082805190602001908083835b602083106121bb5780518252602082019150602081019050602083039250612198565b6001836020036101000a038019825116818451168082178552505050505050905001915050908152602001604051809103902054905061220567c8701d9d5d39f54f60c01b61354c565b6122196716248239675bb03460c01b61354c565b61222281612014565b50612237677985bcff598e26fd60c01b61354c565b61224b67e60a18a9cd89699d60c01b61354c565b80915050919050565b600061226a6739a06635f92a196860c01b6136a2565b61227e678407d21d3b46f14160c01b6136a2565b61229267328dc057ec0ec48360c01b6136a2565b600360008373ffffffffffffffffffffffffffffffffffffffff1673ffffffffffffffffffffffffffffffffffffffff168152602001908152602001600020805490509050919050565b600560009054906101000a900473ffffffffffffffffffffffffffffffffffffffff1681565b6060612318677d53eb19f9950f3f60c01b61354c565b61232c67062446a657618c9460c01b61354c565b6123406702d06f945d83b1c660c01b61354c565b6040518060400160405280600481526020017f5355505200000000000000000000000000000000000000000000000000000000815250905090565b61238f672ef7fcdd7530b57a60c01b61354c565b6123a367044ec013cc2e579f60c01b61354c565b6123b7673a39b1d6e36bdcbb60c01b61354c565b60006008600083815260200190815260200160002060009054906101000a900473ffffffffffffffffffffffffffffffffffffffff16905061240367b37d8e925fd8b89360c01b61354c565b61241767918f92647e8c444960c01b61354c565b61242b67159db703162fc0a560c01b61354c565b8073ffffffffffffffffffffffffffffffffffffffff163373ffffffffffffffffffffffffffffffffffffffff161461246357600080fd5b612477670c772377b0b7fb1060c01b61354c565b61248b670f201e0e1e8e2df060c01b61354c565b61249f670fa931efb8362f6f60c01b61354c565b6000600960008481526020019081526020016000205490506124cb67ae769608a429249160c01b61354c565b6124df67f5a9756054e5599c60c01b61354c565b3373ffffffffffffffffffffffffffffffffffffffff166108fc829081150290604051600060405180830381858888f19350505050158015612525573d6000803e3d6000fd5b5061253a674367b12f42fb09f060c01b61354c565b61254e67cbc8645bf0f18a7060c01b61354c565b61255783613d31565b61256b67bc85f5afebe610a360c01b61354c565b61257f67515b07f705bdb23c60c01b61354c565b82818373ffffffffffffffffffffffffffffffffffffffff167f09dcebe16a733e22cc47e4959c50d4f21624d9f1815db32c2e439fbbd7b3eda060405160405180910390a4505050565b60006125df67ffdb0188c585784b60c01b61354c565b6125f3670693eb289c1f53f860c01b61354c565b6126076762163426246f2eb160c01b61354c565b600a6000838152602001908152602001600020549050919050565b612636670fce4ccd34ead9b660c01b61354c565b8061264b676c884815578d2d7560c01b6136a2565b61265f6767262f146b02bb6d60c01b6136a2565b612673671ad731cee4cd0b3860c01b6136a2565b612687672958298fa5bcfd2f60c01b6136a2565b3373ffffffffffffffffffffffffffffffffffffffff166126a782612014565b73ffffffffffffffffffffffffffffffffffffffff16146126c757600080fd5b6126db6765593b5e4d84e5fd60c01b6136a2565b6126ef67e79247bca88e960960c01b6136a2565b612703674317ec2d8f387a2a60c01b61354c565b61271767dceed99a21d7bd8860c01b61354c565b61272b678bb60ece0ac9fddc60c01b61354c565b6001600e600084815260200190815260200160002060006101000a81548160ff02191690831515021790555061276b676be01a2f7218712f60c01b61354c565b6000600a600084815260200190815260200160002081905550612798677633909679b5f3e460c01b61354c565b6127ac67a3860566e9e1a17660c01b61354c565b6127b73384846136a5565b505050565b6127d067673e4eb0dd88b30060c01b6136a2565b6127e4671cf35f794fa86a3860c01b6136a2565b6127f867659f801426c72e1e60c01b6136a2565b61280c673d1bd0fe92d9de5a60c01b6136a2565b6128163382613fec565b61281f57600080fd5b612833674c3132690dfe9e2660c01b6136a2565b6128476763dc9f4f6ccfe10560c01b6136a2565b61285b67b6deabad23dad80960c01b6136a2565b61286e61286782612014565b33836136a5565b50565b61288567602214a9ed6d5f8260c01b61354c565b6128996781858479fb9e847b60c01b613fe9565b6128ad67de0916d05884019060c01b613fe9565b6128c16736055de3f7b7200c60c01b613fe9565b6128d5672b1a2d677d47164460c01b613fe9565b600560009054906101000a900473ffffffffffffffffffffffffffffffffffffffff1673ffffffffffffffffffffffffffffffffffffffff163373ffffffffffffffffffffffffffffffffffffffff161461292f57600080fd5b612943676c74ee3d862a01a560c01b613fe9565b612957672163f90381eea1b560c01b613fe9565b61296b67808de0326d2b64cc60c01b61354c565b61297f6754949ade959f9e1960c01b61354c565b6129936732ed5f54c31e500060c01b61354c565b8060078190555050565b60606129b367dda03a02fe89800c60c01b61354c565b6129c666374d0b1e1aa6e960c01b61354c565b6129da67c956cf95d3b3038f60c01b61354c565b6129e382612014565b506129f867118a66770ba6514860c01b61354c565b612a0c6747f4b8e78ac1c11660c01b61354c565b600c60008381526020019081526020016000208054600181600116156101000203166002900480601f016020809104026020016040519081016040528092919081815260200182805460018160011615610100020316600290048015612ab35780601f10612a8857610100808354040283529160200191612ab3565b820191906000526020600020905b815481529060010190602001808311612a9657829003601f168201915b50505050509050919050565b6000612ad567e9c31f12f27b82f760c01b61354c565b612ae9673fdc82d7e3d6276960c01b61354c565b612afd67908d5f8a33d5427060c01b61354c565b600b600083815260200190815260200160002060009054906101000a900473ffffffffffffffffffffffffffffffffffffffff169050919050565b612b4c6741858ff130f7b46560c01b61354c565b80612b61674ed5678a9b773c4d60c01b61354c565b612b75676c483246d1179b2560c01b61354c565b612b8967871b1c71cfc7057160c01b61354c565b612b9d67fcc864498e0e3f6b60c01b61354c565b3373ffffffffffffffffffffffffffffffffffffffff16612bbd82612014565b73ffffffffffffffffffffffffffffffffffffffff161415612bde57600080fd5b612bf267cecaaee574e2a45c60c01b61354c565b612c06678d2d8ac0753f4c2160c01b61354c565b612c1a67f46f9ece72b2e45c60c01b61354c565b612c2e670882a52234e3117060c01b61354c565b612c426711c4f01840f837c460c01b61354c565b612c566749f753113c91c65060c01b61354c565b6000600a6000848152602001908152602001600020549050612c8267994ddf7f7e19171460c01b61354c565b612c9667f196dce4018311f060c01b61354c565b6000349050612caf67ebf1999dbb3a1fe760c01b61354c565b612cc3679c13c615953249e760c01b61354c565b6000339050612cdc672273486036caef0460c01b61354c565b612cf067ff0b6ff1c278884760c01b61354c565b6000612cfb86612014565b9050612d1167efc18be496697e9260c01b61354c565b612d2567698fc92c4ac13ba060c01b61354c565b6000600b600088815260200190815260200160002060009054906101000a900473ffffffffffffffffffffffffffffffffffffffff169050612d7167caacfbda7b2e2c8160c01b61354c565b612d8567ab397125cfad04bb60c01b61354c565b612d9967e3ad307693122a0560c01b61354c565b60008511612da657600080fd5b612dba6757c4f682f282cc3960c01b61354c565b612dce673ec8ce5fe41d28b860c01b61354c565b612de2676f0e29adcad4f3d160c01b61354c565b612df6673b7d5ae90f3dea1f60c01b61354c565b84841015612e0357600080fd5b612e17673e5388c1a3f18fa860c01b61354c565b612e2b678664ae9e895f9adc60c01b61354c565b612e3f673e5f7abda3f78f6360c01b61354c565b612e4887613e37565b612e5c67b536ac3f75bc81fb60c01b61354c565b612e7067c3c285d3fbc3247260c01b61354c565b612e7987613d31565b612e8d676ed2cd3279a9f11860c01b61354c565b612ea1671fd4f543d62249a360c01b61354c565b612eac8284896136a5565b612ec0676f35050340beb87d60c01b61354c565b612ed467953cf8ece7749c2160c01b61354c565b612f0384600560009054906101000a900473ffffffffffffffffffffffffffffffffffffffff1683858b61398c565b612f176761788c4dc3b2b07760c01b61354c565b6000600a600089815260200190815260200160002081905550612f4467dfdbc94369e745bb60c01b61354c565b612f5867f694800f78cfc46260c01b61354c565b868273ffffffffffffffffffffffffffffffffffffffff168473ffffffffffffffffffffffffffffffffffffffff167f16dd16959a056953a63cf14bf427881e762e54f03d86b864efea8238dd3b822f876040518082815260200191505060405180910390a450505050505050565b612fdb67cb76e1df560f1db060c01b61354c565b80612ff067ac7bec09e3f7765f60c01b61354c565b61300467ce5d45a5f125bad360c01b61354c565b613018676500a21a9e17332b60c01b61354c565b61302c674678f8e0bccec0e760c01b61354c565b6000600d826040518082805190602001908083835b602083106130645780518252602082019150602081019050602083039250613041565b6001836020036101000a038019825116818451168082178552505050505050905001915050908152602001604051809103902054146130a257600080fd5b6130b6676aaf034654a9b21460c01b61354c565b6130ca673442d4862b980ffa60c01b61354c565b6130de67a1ac6cde4fed63cd60c01b61354c565b6130f2671ff7dd85b279fded60c01b61354c565b6131066790341a4515026f6f60c01b61354c565b61311a678eb4b24abf9cc3c760c01b61354c565b61312e678af06f1b8e2213a560c01b61354c565b613142677b0ba68bcdba400360c01b61354c565b60011515600f60003373ffffffffffffffffffffffffffffffffffffffff1673ffffffffffffffffffffffffffffffffffffffff16815260200190815260200160002060009054906101000a900460ff1615151461319f57600080fd5b6131b36764df1b59bc84370160c01b61354c565b6131c7679df15489ad6cb3f060c01b61354c565b6131db675e46fcc66d4083c960c01b61354c565b6131ef67837e9c5097e3a60a60c01b61354c565b61320367bb495f7a7a0a9b3860c01b61354c565b6132176775a13a4848408e6360c01b61354c565b6000613223833361354f565b9050613239670103b4efe5294a7160c01b61354c565b80600d846040518082805190602001908083835b60208310613270578051825260208201915060208101905060208303925061324d565b6001836020036101000a038019825116818451168082178552505050505050905001915050908152602001604051809103902081905550505050565b60075481565b60065481565b6132cc67941afc0e80fe1b5c60c01b613fe9565b6132e06781858479fb9e847b60c01b613fe9565b6132f467de0916d05884019060c01b613fe9565b6133086736055de3f7b7200c60c01b613fe9565b61331c672b1a2d677d47164460c01b613fe9565b600560009054906101000a900473ffffffffffffffffffffffffffffffffffffffff1673ffffffffffffffffffffffffffffffffffffffff163373ffffffffffffffffffffffffffffffffffffffff161461337657600080fd5b61338a676c74ee3d862a01a560c01b613fe9565b61339e672163f90381eea1b560c01b613fe9565b6133b267a7e720436f4c1f2160c01b613fe9565b6133c66707c0b4dc0dfd619260c01b613fe9565b6133da675582dc2bcfd34eb260c01b613fe9565b6133ee67c4d756e64f18585260c01b613fe9565b61340267fb3cf0b0fdee640860c01b613fe9565b600073ffffffffffffffffffffffffffffffffffffffff168173ffffffffffffffffffffffffffffffffffffffff16141561343c57600080fd5b61345067ca7ec9c87e35652e60c01b613fe9565b61346467b077f159b90a04b760c01b613fe9565b61347867962b92dfbc47e80160c01b613fe9565b8073ffffffffffffffffffffffffffffffffffffffff16600560009054906101000a900473ffffffffffffffffffffffffffffffffffffffff1673ffffffffffffffffffffffffffffffffffffffff167f8be0079c531659141344cd1fd0a4f28419497f9722a3daafe3b4186f6b6457e060405160405180910390a361350867ddbef81b05ebd5cf60c01b613fe9565b80600560006101000a81548173ffffffffffffffffffffffffffffffffffffffff021916908373ffffffffffffffffffffffffffffffffffffffff16021790555050565b50565b60006135656729f6c1281ab8353f60c01b61354c565b613579672f03e9a7c2018b1560c01b61354c565b61358d67bae80a7cb00bf49760c01b61354c565b60006001613599611418565b0190506135b067f6a8f27e3b35aeb360c01b61354c565b6135c4673fe3e37a5798f46060c01b61354c565b6135ce8382614069565b6135e267619eb9df55046ca560c01b61354c565b82600b600083815260200190815260200160002060006101000a81548173ffffffffffffffffffffffffffffffffffffffff021916908373ffffffffffffffffffffffffffffffffffffffff16021790555061364867908cbfa27f2d797560c01b61354c565b83600c6000838152602001908152602001600020908051906020019061366f929190614c21565b5061368467d8da9d92a4294ca660c01b61354c565b6136986765fb6cdcafc8412b60c01b61354c565b8091505092915050565b50565b6136b9673095824660e9c24460c01b6136a2565b6136cd675ad24a1ca7cd093260c01b6136a2565b6136e167c88c2e26f5d9ca7d60c01b6136a2565b6136f567b7ea7cd5185bb1f560c01b6136a2565b600073ffffffffffffffffffffffffffffffffffffffff168273ffffffffffffffffffffffffffffffffffffffff16141561372f57600080fd5b6137436748249c0cf9f7689060c01b6136a2565b61375767379b8f1ef577e01760c01b6136a2565b61376b67baddf2709847e53760c01b6136a2565b61377f6744d78d7a1aba149e60c01b6136a2565b61378881612014565b73ffffffffffffffffffffffffffffffffffffffff168273ffffffffffffffffffffffffffffffffffffffff1614156137c057600080fd5b6137d467aa63ac6c78f7591160c01b6136a2565b6137e867254e0cd98957dfcb60c01b6136a2565b6137fc673075038367b024be60c01b6136a2565b61381067c910fcb05265b6df60c01b6136a2565b8273ffffffffffffffffffffffffffffffffffffffff1661383082612014565b73ffffffffffffffffffffffffffffffffffffffff161461385057600080fd5b613864672c872d32672edeba60c01b6136a2565b6138786717e0e4f57f0d33db60c01b6136a2565b61388c67cd8892f78c188e4760c01b6136a2565b61389683826141cb565b6138aa67304a556d44f8fc9760c01b6136a2565b6138be67131c6f7be7d30f9860c01b6136a2565b6138c88382614368565b6138dc672d9e8c8949992a1160c01b6136a2565b6138f0679e6b0d19b24ceb1d60c01b6136a2565b6138fa82826146e6565b61390e6721d96e6abd8b794e60c01b6136a2565b61392267fdf67986c0a5cf5360c01b6136a2565b8173ffffffffffffffffffffffffffffffffffffffff168373ffffffffffffffffffffffffffffffffffffffff167fddf252ad1be2c89b69c2b068fc378daa952ba7f163c4a11628f55a4df523b3ef836040518082815260200191505060405180910390a3505050565b6139a0674cad7012555a56c960c01b61354c565b6139b46715f1f3872c31c9ed60c01b61354c565b6139c867c95960e59eb7cd4160c01b61354c565b60006139de675e2fc0979ce624bf60c01b61354c565b6139f267938941b4feabe81a60c01b61354c565b6000613a08677842c95baffc2e4b60c01b61354c565b613a1c67b8e17e7f14759ed660c01b61354c565b6000613a3267b46c652551913b1c60c01b61354c565b613a4667674e281ddc28939a60c01b61354c565b600e600085815260200190815260200160002060009054906101000a900460ff1615613b3e57613a80671969c88e65e685db60c01b61354c565b613a9467b63c1bbda5a892f760c01b61354c565b613abd6103e8613aaf6006548b61494090919063ffffffff16565b614a7c90919063ffffffff16565b9250613ad36739b2ca19e3005daa60c01b61354c565b613afc6103e8613aee6007548b61494090919063ffffffff16565b614a7c90919063ffffffff16565b9150613b1267b770a1994b7b65f860c01b61354c565b613b3783613b29848b614afa90919063ffffffff16565b614afa90919063ffffffff16565b9050613bda565b613b5267cf91bcb15ae63dcc60c01b61354c565b613b6667bed3ab45697591a460c01b61354c565b60009250613b7e67fa21524b656923cd60c01b61354c565b879150613b956733ea9a53f43d279960c01b61354c565b60009050613bad67062d8e0645620df460c01b61354c565b6001600e600086815260200190815260200160002060006101000a81548160ff0219169083151502179055505b613bee67728ef2925fb4d9e260c01b61354c565b613c0267af14c5d163c97a1c60c01b61354c565b8673ffffffffffffffffffffffffffffffffffffffff166108fc849081150290604051600060405180830381858888f19350505050158015613c48573d6000803e3d6000fd5b50613c5d671d1fb53a1d28dc3660c01b61354c565b613c716775cecda1b633df9c60c01b61354c565b8573ffffffffffffffffffffffffffffffffffffffff166108fc839081150290604051600060405180830381858888f19350505050158015613cb7573d6000803e3d6000fd5b50613ccc67c1fe9db29418827260c01b61354c565b613ce0676d8a0262e27e8a2b60c01b61354c565b8473ffffffffffffffffffffffffffffffffffffffff166108fc829081150290604051600060405180830381858888f19350505050158015613d26573d6000803e3d6000fd5b505050505050505050565b613d4567447f71ae4395d51760c01b61354c565b613d596775d8da1673627e7e60c01b61354c565b60006008600083815260200190815260200160002060006101000a81548173ffffffffffffffffffffffffffffffffffffffff021916908373ffffffffffffffffffffffffffffffffffffffff160217905550613dc0679c077cb67108bc6f60c01b61354c565b6000600960008381526020019081526020016000208190555050565b6000613df267085142f6c8a6ef3360c01b61354c565b613e0667e8b12aa6ac0de9fc60c01b61354c565b613e1a67792ea70ba9a323e860c01b61354c565b600960008381526020019081526020016000205434119050919050565b613e4b673273871bedf860ba60c01b61354c565b613e5f670feb18de0135945f60c01b61354c565b613e736732495c1badb4e65e60c01b61354c565b600060096000838152602001908152602001600020549050613e9f672f9cad454ad080f760c01b61354c565b613eb3675f092fec7aa5d51060c01b61354c565b60006008600084815260200190815260200160002060009054906101000a900473ffffffffffffffffffffffffffffffffffffffff169050613eff67f4428a29efc3b3ed60c01b61354c565b613f1367a648a38e75f2c94360c01b61354c565b600073ffffffffffffffffffffffffffffffffffffffff168173ffffffffffffffffffffffffffffffffffffffff1614613fcf57613f5b67afed8706cd403c5460c01b61354c565b613f6f67dd345e0113e2afb360c01b61354c565b613f83675cb96abcd7f0f25460c01b61354c565b8073ffffffffffffffffffffffffffffffffffffffff166108fc839081150290604051600060405180830381858888f19350505050158015613fc9573d6000803e3d6000fd5b50613fe4565b613fe3675758108e738d4bff60c01b61354c565b5b505050565b50565b600061400267a1c6a9235d43c12a60c01b6136a2565b61401667c9673f36c74c113c60c01b6136a2565b61402a67f9784286cab3db1e60c01b6136a2565b8273ffffffffffffffffffffffffffffffffffffffff1661404a836114ee565b73ffffffffffffffffffffffffffffffffffffffff1614905092915050565b61407d67272b9b8519da997360c01b6136a2565b61409167f34152f18b38c40e60c01b6136a2565b6140a5674b1fda3d370f985f60c01b6136a2565b6140b9671821d5955da62ee260c01b6136a2565b600073ffffffffffffffffffffffffffffffffffffffff168273ffffffffffffffffffffffffffffffffffffffff1614156140f357600080fd5b614107676d2121fb8ab0fc9a60c01b6136a2565b61411b678fbdcdb969fa005660c01b6136a2565b61412f67ebaceaae0c743aa560c01b6136a2565b61413982826146e6565b61414d6767fc43dd1156ec6f60c01b6136a2565b6141616774ea768a0577ab9f60c01b6136a2565b8173ffffffffffffffffffffffffffffffffffffffff16600073ffffffffffffffffffffffffffffffffffffffff167fddf252ad1be2c89b69c2b068fc378daa952ba7f163c4a11628f55a4df523b3ef836040518082815260200191505060405180910390a35050565b6141df678619e0451b2bdf5c60c01b6136a2565b6141f3672ab480f3768af6b460c01b6136a2565b61420767dc9c73925aab5d0d60c01b6136a2565b61421b6706857252506e5ef860c01b6136a2565b8173ffffffffffffffffffffffffffffffffffffffff1661423b82612014565b73ffffffffffffffffffffffffffffffffffffffff161461425b57600080fd5b61426f67b275d533181fd53860c01b6136a2565b61428367a0d2308921e6fbde60c01b6136a2565b60006002600083815260200190815260200160002060006101000a81548173ffffffffffffffffffffffffffffffffffffffff021916908373ffffffffffffffffffffffffffffffffffffffff1602179055506142ea673b188e01afc3126a60c01b6136a2565b6142fe67dea23bf567a4aa3b60c01b6136a2565b600073ffffffffffffffffffffffffffffffffffffffff168273ffffffffffffffffffffffffffffffffffffffff167f8c5be1e5ebec7d5bd14f71427d1e84f3dd0314c0f7b2291e5b200ac8c7c3b925836040518082815260200191505060405180910390a35050565b61437c67612edbadd0745b6660c01b6136a2565b614390677948adb06d136c5260c01b6136a2565b6143a467ac64a8af84f2cb1660c01b6136a2565b6143b867367c33817c772d3260c01b6136a2565b8173ffffffffffffffffffffffffffffffffffffffff166143d882612014565b73ffffffffffffffffffffffffffffffffffffffff16146143f857600080fd5b61440c67fdf9457bde2825cb60c01b6136a2565b61442067892dece102a0791d60c01b6136a2565b61443467d32ca34a1fde602860c01b6136a2565b600060046000838152602001908152602001600020549050614460673001b6b1da15835160c01b6136a2565b61447467d9b130ed6d1ff14260c01b6136a2565b6000614492600161448486612254565b614afa90919063ffffffff16565b90506144a766cb88ad738b41dd60c01b6136a2565b6144bb6751e8add8f3de4e9b60c01b6136a2565b6000600360008673ffffffffffffffffffffffffffffffffffffffff1673ffffffffffffffffffffffffffffffffffffffff168152602001908152602001600020828154811061450757fe5b90600052602060002001549050614528672085c9a28a3932ab60c01b6136a2565b60006001600086815260200190815260200160002060006101000a81548173ffffffffffffffffffffffffffffffffffffffff021916908373ffffffffffffffffffffffffffffffffffffffff16021790555061458f679d7ada884a302e8f60c01b6136a2565b80600360008773ffffffffffffffffffffffffffffffffffffffff1673ffffffffffffffffffffffffffffffffffffffff16815260200190815260200160002084815481106145da57fe5b90600052602060002001819055506145fc677c2fa9c27b6c476b60c01b6136a2565b6000600360008773ffffffffffffffffffffffffffffffffffffffff1673ffffffffffffffffffffffffffffffffffffffff168152602001908152602001600020838154811061464857fe5b906000526020600020018190555061466a67ed1cd43322829c8b60c01b6136a2565b600060046000868152602001908152602001600020819055506146976788396cd3f60079ff60c01b6136a2565b8260046000838152602001908152602001600020819055506146c367980dfa6ada94260660c01b6136a2565b6146d96001600054614afa90919063ffffffff16565b6000819055505050505050565b6146fa67c652d0888a30ae0b60c01b6136a2565b61470e672546d0066b1350b660c01b6136a2565b61472267859eb002d0f98e0a60c01b6136a2565b61473667a879a4a489aa221660c01b6136a2565b600073ffffffffffffffffffffffffffffffffffffffff166001600083815260200190815260200160002060009054906101000a900473ffffffffffffffffffffffffffffffffffffffff1673ffffffffffffffffffffffffffffffffffffffff16146147a257600080fd5b6147b667eea52eb7a1e8af8460c01b6136a2565b6147ca677f8eb06fbbef281a60c01b6136a2565b816001600083815260200190815260200160002060006101000a81548173ffffffffffffffffffffffffffffffffffffffff021916908373ffffffffffffffffffffffffffffffffffffffff160217905550614830677a569ffd1e506db260c01b6136a2565b61484467249f4028dca3d06860c01b6136a2565b600061484f83612254565b90506148656777da2fcaba40c33a60c01b6136a2565b61487967daa6beed913386e960c01b6136a2565b600360008473ffffffffffffffffffffffffffffffffffffffff1673ffffffffffffffffffffffffffffffffffffffff1681526020019081526020016000208290806001815401808255809150506001900390600052602060002001600090919091909150556148f36744637881013c5a2f60c01b6136a2565b80600460008481526020019081526020016000208190555061491f672a0c15233a423bb460c01b6136a2565b6149356001600054614b7590919063ffffffff16565b600081905550505050565b6000614956677582961eee8980c160c01b614c1e565b61496a67481ef69bf7deb42960c01b614c1e565b61497e67ba46e7e5634d960a60c01b614c1e565b60008314156149cc5761499b67041374f35618847160c01b614c1e565b6149af674ca41a311c90a86160c01b614c1e565b6149c367c1c770670696bedb60c01b614c1e565b60009050614a76565b6149e06766b5d5615c4b661460c01b614c1e565b6149f467c698a4dd07b167a660c01b614c1e565b614a0867c7fd50707991a34f60c01b614c1e565b60008284029050614a23676ff086c0e38e48fe60c01b614c1e565b614a37675cdea772a870bbe560c01b614c1e565b82848281614a4157fe5b0414614a4957fe5b614a5d67623ba50d60d959fe60c01b614c1e565b614a7167558e54e11f92d70960c01b614c1e565b809150505b92915050565b6000614a92677b1689d7c4c39d7f60c01b614c1e565b614aa66758f7db4dcd5f5c5360c01b614c1e565b614aba67fac8001ecd35f79260c01b614c1e565b6000828481614ac557fe5b049050614adc67ffcdb660c9fe5a0f60c01b614c1e565b614af0677655af5ea1f379ee60c01b614c1e565b8091505092915050565b6000614b1067ad439b8a78e14d4760c01b614c1e565b614b2467da02640415893d3360c01b614c1e565b614b3867632cd40e4cb4bee160c01b614c1e565b82821115614b4257fe5b614b5667a0c4075f9e733d7260c01b614c1e565b614b6a676c12ad1c5cd42efc60c01b614c1e565b818303905092915050565b6000614b8b67bce7194644d0ca3060c01b614c1e565b614b9f672a2bbdd6152bc7e460c01b614c1e565b614bb3670416fffb0a9174ac60c01b614c1e565b60008284019050614bce671dfd41c0d3247fbb60c01b614c1e565b614be267855235157c6aa44560c01b614c1e565b83811015614bec57fe5b614c0067032bdd39224acc6d60c01b614c1e565b614c14672aaa448dd8c7971e60c01b614c1e565b8091505092915050565b50565b828054600181600116156101000203166002900490600052602060002090601f016020900481019282614c575760008555614c9e565b82601f10614c7057805160ff1916838001178555614c9e565b82800160010185558215614c9e579182015b82811115614c9d578251825591602001919060010190614c82565b5b509050614cab9190614caf565b5090565b5b80821115614cc8576000816000905550600101614cb0565b509056fea2646970667358221220fa69e9e458456170c001e8451295a63e6742628b5c5f7314ec9cb093d3f147df64736f6c63430007060033","opcodes":"PUSH1 0x80 PUSH1 0x40 MSTORE PUSH1 0x1E PUSH1 0x6 SSTORE PUSH1 0x64 PUSH1 0x7 SSTORE CALLVALUE DUP1 ISZERO PUSH3 0x1B JUMPI PUSH1 0x0 DUP1 REVERT JUMPDEST POP PUSH3 0x38 PUSH8 0x573564F2DD578111 PUSH1 0xC0 SHL PUSH3 0x9B PUSH1 0x20 SHL PUSH1 0x20 SHR JUMP JUMPDEST PUSH3 0x54 PUSH8 0x5301749847857724 PUSH1 0xC0 SHL PUSH3 0x9B PUSH1 0x20 SHL PUSH1 0x20 SHR JUMP JUMPDEST CALLER PUSH1 0x5 PUSH1 0x0 PUSH2 0x100 EXP DUP2 SLOAD DUP2 PUSH20 0xFFFFFFFFFFFFFFFFFFFFFFFFFFFFFFFFFFFFFFFF MUL NOT AND SWAP1 DUP4 PUSH20 0xFFFFFFFFFFFFFFFFFFFFFFFFFFFFFFFFFFFFFFFF AND MUL OR SWAP1 SSTORE POP PUSH3 0x9E JUMP JUMPDEST POP JUMP JUMPDEST PUSH2 0x4D02 DUP1 PUSH3 0xAE PUSH1 0x0 CODECOPY PUSH1 0x0 RETURN INVALID PUSH1 0x80 PUSH1 0x40 MSTORE PUSH1 0x4 CALLDATASIZE LT PUSH2 0x1CD JUMPI PUSH1 0x0 CALLDATALOAD PUSH1 0xE0 SHR DUP1 PUSH4 0x70A08231 GT PUSH2 0xF7 JUMPI DUP1 PUSH4 0xC0EC93E7 GT PUSH2 0x95 JUMPI DUP1 PUSH4 0xD9856C21 GT PUSH2 0x64 JUMPI DUP1 PUSH4 0xD9856C21 EQ PUSH2 0xBF5 JUMPI DUP1 PUSH4 0xF071BF4F EQ PUSH2 0xCBD JUMPI DUP1 PUSH4 0xF2BF6B8C EQ PUSH2 0xCE8 JUMPI DUP1 PUSH4 0xF2FDE38B EQ PUSH2 0xD13 JUMPI PUSH2 0x1CD JUMP JUMPDEST DUP1 PUSH4 0xC0EC93E7 EQ PUSH2 0xA73 JUMPI DUP1 PUSH4 0xC87B56DD EQ PUSH2 0xAAE JUMPI DUP1 PUSH4 0xD5DA8D44 EQ PUSH2 0xB62 JUMPI DUP1 PUSH4 0xD96A094A EQ PUSH2 0xBC7 JUMPI PUSH2 0x1CD JUMP JUMPDEST DUP1 PUSH4 0x9703EF35 GT PUSH2 0xD1 JUMPI DUP1 PUSH4 0x9703EF35 EQ PUSH2 0x953 JUMPI DUP1 PUSH4 0x9F2A3C32 EQ PUSH2 0x98E JUMPI DUP1 PUSH4 0xA9059CBB EQ PUSH2 0x9DD JUMPI DUP1 PUSH4 0xB2E6CEEB EQ PUSH2 0xA38 JUMPI PUSH2 0x1CD JUMP JUMPDEST DUP1 PUSH4 0x70A08231 EQ PUSH2 0x81D JUMPI DUP1 PUSH4 0x8DA5CB5B EQ PUSH2 0x882 JUMPI DUP1 PUSH4 0x95D89B41 EQ PUSH2 0x8C3 JUMPI PUSH2 0x1CD JUMP JUMPDEST DUP1 PUSH4 0x2B1FD58A GT PUSH2 0x16F JUMPI DUP1 PUSH4 0x5C68A557 GT PUSH2 0x13E JUMPI DUP1 PUSH4 0x5C68A557 EQ PUSH2 0x650 JUMPI DUP1 PUSH4 0x62F11DD2 EQ PUSH2 0x68B JUMPI DUP1 PUSH4 0x6352211E EQ PUSH2 0x6DC JUMPI DUP1 PUSH4 0x653436FD EQ PUSH2 0x741 JUMPI PUSH2 0x1CD JUMP JUMPDEST DUP1 PUSH4 0x2B1FD58A EQ PUSH2 0x4DA JUMPI DUP1 PUSH4 0x3AF32ABF EQ PUSH2 0x515 JUMPI DUP1 PUSH4 0x454A2AB3 EQ PUSH2 0x57C JUMPI DUP1 PUSH4 0x5A3F2672 EQ PUSH2 0x5AA JUMPI PUSH2 0x1CD JUMP JUMPDEST DUP1 PUSH4 0x95EA7B3 GT PUSH2 0x1AB JUMPI DUP1 PUSH4 0x95EA7B3 EQ PUSH2 0x383 JUMPI DUP1 PUSH4 0x18160DDD EQ PUSH2 0x3DE JUMPI DUP1 PUSH4 0x1A289AEA EQ PUSH2 0x409 JUMPI DUP1 PUSH4 0x2A6DD48F EQ PUSH2 0x475 JUMPI PUSH2 0x1CD JUMP JUMPDEST DUP1 PUSH4 0x19871E9 EQ PUSH2 0x1D2 JUMPI DUP1 PUSH4 0x53992C5 EQ PUSH2 0x2AE JUMPI DUP1 PUSH4 0x6FDDE03 EQ PUSH2 0x2F3 JUMPI JUMPDEST PUSH1 0x0 DUP1 REVERT JUMPDEST CALLVALUE DUP1 ISZERO PUSH2 0x1DE JUMPI PUSH1 0x0 DUP1 REVERT JUMPDEST POP PUSH2 0x2AC PUSH1 0x4 DUP1 CALLDATASIZE SUB PUSH1 0x60 DUP2 LT ISZERO PUSH2 0x1F5 JUMPI PUSH1 0x0 DUP1 REVERT JUMPDEST DUP2 ADD SWAP1 DUP1 DUP1 CALLDATALOAD SWAP1 PUSH1 0x20 ADD SWAP1 PUSH5 0x100000000 DUP2 GT ISZERO PUSH2 0x212 JUMPI PUSH1 0x0 DUP1 REVERT JUMPDEST DUP3 ADD DUP4 PUSH1 0x20 DUP3 ADD GT ISZERO PUSH2 0x224 JUMPI PUSH1 0x0 DUP1 REVERT JUMPDEST DUP1 CALLDATALOAD SWAP1 PUSH1 0x20 ADD SWAP2 DUP5 PUSH1 0x1 DUP4 MUL DUP5 ADD GT PUSH5 0x100000000 DUP4 GT OR ISZERO PUSH2 0x246 JUMPI PUSH1 0x0 DUP1 REVERT JUMPDEST SWAP2 SWAP1 DUP1 DUP1 PUSH1 0x1F ADD PUSH1 0x20 DUP1 SWAP2 DIV MUL PUSH1 0x20 ADD PUSH1 0x40 MLOAD SWAP1 DUP2 ADD PUSH1 0x40 MSTORE DUP1 SWAP4 SWAP3 SWAP2 SWAP1 DUP2 DUP2 MSTORE PUSH1 0x20 ADD DUP4 DUP4 DUP1 DUP3 DUP5 CALLDATACOPY PUSH1 0x0 DUP2 DUP5 ADD MSTORE PUSH1 0x1F NOT PUSH1 0x1F DUP3 ADD AND SWAP1 POP DUP1 DUP4 ADD SWAP3 POP POP POP POP POP POP POP SWAP2 SWAP3 SWAP2 SWAP3 SWAP1 DUP1 CALLDATALOAD SWAP1 PUSH1 0x20 ADD SWAP1 SWAP3 SWAP2 SWAP1 DUP1 CALLDATALOAD SWAP1 PUSH1 0x20 ADD SWAP1 SWAP3 SWAP2 SWAP1 POP POP POP PUSH2 0xD64 JUMP JUMPDEST STOP JUMPDEST CALLVALUE DUP1 ISZERO PUSH2 0x2BA JUMPI PUSH1 0x0 DUP1 REVERT JUMPDEST POP PUSH2 0x2F1 PUSH1 0x4 DUP1 CALLDATASIZE SUB PUSH1 0x40 DUP2 LT ISZERO PUSH2 0x2D1 JUMPI PUSH1 0x0 DUP1 REVERT JUMPDEST DUP2 ADD SWAP1 DUP1 DUP1 CALLDATALOAD SWAP1 PUSH1 0x20 ADD SWAP1 SWAP3 SWAP2 SWAP1 DUP1 CALLDATALOAD SWAP1 PUSH1 0x20 ADD SWAP1 SWAP3 SWAP2 SWAP1 POP POP POP PUSH2 0x1145 JUMP JUMPDEST STOP JUMPDEST CALLVALUE DUP1 ISZERO PUSH2 0x2FF JUMPI PUSH1 0x0 DUP1 REVERT JUMPDEST POP PUSH2 0x308 PUSH2 0x135E JUMP JUMPDEST PUSH1 0x40 MLOAD DUP1 DUP1 PUSH1 0x20 ADD DUP3 DUP2 SUB DUP3 MSTORE DUP4 DUP2 DUP2 MLOAD DUP2 MSTORE PUSH1 0x20 ADD SWAP2 POP DUP1 MLOAD SWAP1 PUSH1 0x20 ADD SWAP1 DUP1 DUP4 DUP4 PUSH1 0x0 JUMPDEST DUP4 DUP2 LT ISZERO PUSH2 0x348 JUMPI DUP1 DUP3 ADD MLOAD DUP2 DUP5 ADD MSTORE PUSH1 0x20 DUP2 ADD SWAP1 POP PUSH2 0x32D JUMP JUMPDEST POP POP POP POP SWAP1 POP SWAP1 DUP2 ADD SWAP1 PUSH1 0x1F AND DUP1 ISZERO PUSH2 0x375 JUMPI DUP1 DUP3 SUB DUP1 MLOAD PUSH1 0x1 DUP4 PUSH1 0x20 SUB PUSH2 0x100 EXP SUB NOT AND DUP2 MSTORE PUSH1 0x20 ADD SWAP2 POP JUMPDEST POP SWAP3 POP POP POP PUSH1 0x40 MLOAD DUP1 SWAP2 SUB SWAP1 RETURN JUMPDEST CALLVALUE DUP1 ISZERO PUSH2 0x38F JUMPI PUSH1 0x0 DUP1 REVERT JUMPDEST POP PUSH2 0x3DC PUSH1 0x4 DUP1 CALLDATASIZE SUB PUSH1 0x40 DUP2 LT ISZERO PUSH2 0x3A6 JUMPI PUSH1 0x0 DUP1 REVERT JUMPDEST DUP2 ADD SWAP1 DUP1 DUP1 CALLDATALOAD PUSH20 0xFFFFFFFFFFFFFFFFFFFFFFFFFFFFFFFFFFFFFFFF AND SWAP1 PUSH1 0x20 ADD SWAP1 SWAP3 SWAP2 SWAP1 DUP1 CALLDATALOAD SWAP1 PUSH1 0x20 ADD SWAP1 SWAP3 SWAP2 SWAP1 POP POP POP PUSH2 0x13D7 JUMP JUMPDEST STOP JUMPDEST CALLVALUE DUP1 ISZERO PUSH2 0x3EA JUMPI PUSH1 0x0 DUP1 REVERT JUMPDEST POP PUSH2 0x3F3 PUSH2 0x1418 JUMP JUMPDEST PUSH1 0x40 MLOAD DUP1 DUP3 DUP2 MSTORE PUSH1 0x20 ADD SWAP2 POP POP PUSH1 0x40 MLOAD DUP1 SWAP2 SUB SWAP1 RETURN JUMPDEST CALLVALUE DUP1 ISZERO PUSH2 0x415 JUMPI PUSH1 0x0 DUP1 REVERT JUMPDEST POP PUSH2 0x442 PUSH1 0x4 DUP1 CALLDATASIZE SUB PUSH1 0x20 DUP2 LT ISZERO PUSH2 0x42C JUMPI PUSH1 0x0 DUP1 REVERT JUMPDEST DUP2 ADD SWAP1 DUP1 DUP1 CALLDATALOAD SWAP1 PUSH1 0x20 ADD SWAP1 SWAP3 SWAP2 SWAP1 POP POP POP PUSH2 0x145E JUMP JUMPDEST PUSH1 0x40 MLOAD DUP1 DUP4 DUP2 MSTORE PUSH1 0x20 ADD DUP3 PUSH20 0xFFFFFFFFFFFFFFFFFFFFFFFFFFFFFFFFFFFFFFFF AND DUP2 MSTORE PUSH1 0x20 ADD SWAP3 POP POP POP PUSH1 0x40 MLOAD DUP1 SWAP2 SUB SWAP1 RETURN JUMPDEST CALLVALUE DUP1 ISZERO PUSH2 0x481 JUMPI PUSH1 0x0 DUP1 REVERT JUMPDEST POP PUSH2 0x4AE PUSH1 0x4 DUP1 CALLDATASIZE SUB PUSH1 0x20 DUP2 LT ISZERO PUSH2 0x498 JUMPI PUSH1 0x0 DUP1 REVERT JUMPDEST DUP2 ADD SWAP1 DUP1 DUP1 CALLDATALOAD SWAP1 PUSH1 0x20 ADD SWAP1 SWAP3 SWAP2 SWAP1 POP POP POP PUSH2 0x14EE JUMP JUMPDEST PUSH1 0x40 MLOAD DUP1 DUP3 PUSH20 0xFFFFFFFFFFFFFFFFFFFFFFFFFFFFFFFFFFFFFFFF AND DUP2 MSTORE PUSH1 0x20 ADD SWAP2 POP POP PUSH1 0x40 MLOAD DUP1 SWAP2 SUB SWAP1 RETURN JUMPDEST CALLVALUE DUP1 ISZERO PUSH2 0x4E6 JUMPI PUSH1 0x0 DUP1 REVERT JUMPDEST POP PUSH2 0x513 PUSH1 0x4 DUP1 CALLDATASIZE SUB PUSH1 0x20 DUP2 LT ISZERO PUSH2 0x4FD JUMPI PUSH1 0x0 DUP1 REVERT JUMPDEST DUP2 ADD SWAP1 DUP1 DUP1 CALLDATALOAD SWAP1 PUSH1 0x20 ADD SWAP1 SWAP3 SWAP2 SWAP1 POP POP POP PUSH2 0x1567 JUMP JUMPDEST STOP JUMPDEST CALLVALUE DUP1 ISZERO PUSH2 0x521 JUMPI PUSH1 0x0 DUP1 REVERT JUMPDEST POP PUSH2 0x564 PUSH1 0x4 DUP1 CALLDATASIZE SUB PUSH1 0x20 DUP2 LT ISZERO PUSH2 0x538 JUMPI PUSH1 0x0 DUP1 REVERT JUMPDEST DUP2 ADD SWAP1 DUP1 DUP1 CALLDATALOAD PUSH20 0xFFFFFFFFFFFFFFFFFFFFFFFFFFFFFFFFFFFFFFFF AND SWAP1 PUSH1 0x20 ADD SWAP1 SWAP3 SWAP2 SWAP1 POP POP POP PUSH2 0x190F JUMP JUMPDEST PUSH1 0x40 MLOAD DUP1 DUP3 ISZERO ISZERO DUP2 MSTORE PUSH1 0x20 ADD SWAP2 POP POP PUSH1 0x40 MLOAD DUP1 SWAP2 SUB SWAP1 RETURN JUMPDEST PUSH2 0x5A8 PUSH1 0x4 DUP1 CALLDATASIZE SUB PUSH1 0x20 DUP2 LT ISZERO PUSH2 0x592 JUMPI PUSH1 0x0 DUP1 REVERT JUMPDEST DUP2 ADD SWAP1 DUP1 DUP1 CALLDATALOAD SWAP1 PUSH1 0x20 ADD SWAP1 SWAP3 SWAP2 SWAP1 POP POP POP PUSH2 0x19A1 JUMP JUMPDEST STOP JUMPDEST CALLVALUE DUP1 ISZERO PUSH2 0x5B6 JUMPI PUSH1 0x0 DUP1 REVERT JUMPDEST POP PUSH2 0x5F9 PUSH1 0x4 DUP1 CALLDATASIZE SUB PUSH1 0x20 DUP2 LT ISZERO PUSH2 0x5CD JUMPI PUSH1 0x0 DUP1 REVERT JUMPDEST DUP2 ADD SWAP1 DUP1 DUP1 CALLDATALOAD PUSH20 0xFFFFFFFFFFFFFFFFFFFFFFFFFFFFFFFFFFFFFFFF AND SWAP1 PUSH1 0x20 ADD SWAP1 SWAP3 SWAP2 SWAP1 POP POP POP PUSH2 0x1C2D JUMP JUMPDEST PUSH1 0x40 MLOAD DUP1 DUP1 PUSH1 0x20 ADD DUP3 DUP2 SUB DUP3 MSTORE DUP4 DUP2 DUP2 MLOAD DUP2 MSTORE PUSH1 0x20 ADD SWAP2 POP DUP1 MLOAD SWAP1 PUSH1 0x20 ADD SWAP1 PUSH1 0x20 MUL DUP1 DUP4 DUP4 PUSH1 0x0 JUMPDEST DUP4 DUP2 LT ISZERO PUSH2 0x63C JUMPI DUP1 DUP3 ADD MLOAD DUP2 DUP5 ADD MSTORE PUSH1 0x20 DUP2 ADD SWAP1 POP PUSH2 0x621 JUMP JUMPDEST POP POP POP POP SWAP1 POP ADD SWAP3 POP POP POP PUSH1 0x40 MLOAD DUP1 SWAP2 SUB SWAP1 RETURN JUMPDEST CALLVALUE DUP1 ISZERO PUSH2 0x65C JUMPI PUSH1 0x0 DUP1 REVERT JUMPDEST POP PUSH2 0x689 PUSH1 0x4 DUP1 CALLDATASIZE SUB PUSH1 0x20 DUP2 LT ISZERO PUSH2 0x673 JUMPI PUSH1 0x0 DUP1 REVERT JUMPDEST DUP2 ADD SWAP1 DUP1 DUP1 CALLDATALOAD SWAP1 PUSH1 0x20 ADD SWAP1 SWAP3 SWAP2 SWAP1 POP POP POP PUSH2 0x1D00 JUMP JUMPDEST STOP JUMPDEST CALLVALUE DUP1 ISZERO PUSH2 0x697 JUMPI PUSH1 0x0 DUP1 REVERT JUMPDEST POP PUSH2 0x6DA PUSH1 0x4 DUP1 CALLDATASIZE SUB PUSH1 0x20 DUP2 LT ISZERO PUSH2 0x6AE JUMPI PUSH1 0x0 DUP1 REVERT JUMPDEST DUP2 ADD SWAP1 DUP1 DUP1 CALLDATALOAD PUSH20 0xFFFFFFFFFFFFFFFFFFFFFFFFFFFFFFFFFFFFFFFF AND SWAP1 PUSH1 0x20 ADD SWAP1 SWAP3 SWAP2 SWAP1 POP POP POP PUSH2 0x1E2C JUMP JUMPDEST STOP JUMPDEST CALLVALUE DUP1 ISZERO PUSH2 0x6E8 JUMPI PUSH1 0x0 DUP1 REVERT JUMPDEST POP PUSH2 0x715 PUSH1 0x4 DUP1 CALLDATASIZE SUB PUSH1 0x20 DUP2 LT ISZERO PUSH2 0x6FF JUMPI PUSH1 0x0 DUP1 REVERT JUMPDEST DUP2 ADD SWAP1 DUP1 DUP1 CALLDATALOAD SWAP1 PUSH1 0x20 ADD SWAP1 SWAP3 SWAP2 SWAP1 POP POP POP PUSH2 0x2014 JUMP JUMPDEST PUSH1 0x40 MLOAD DUP1 DUP3 PUSH20 0xFFFFFFFFFFFFFFFFFFFFFFFFFFFFFFFFFFFFFFFF AND DUP2 MSTORE PUSH1 0x20 ADD SWAP2 POP POP PUSH1 0x40 MLOAD DUP1 SWAP2 SUB SWAP1 RETURN JUMPDEST CALLVALUE DUP1 ISZERO PUSH2 0x74D JUMPI PUSH1 0x0 DUP1 REVERT JUMPDEST POP PUSH2 0x807 PUSH1 0x4 DUP1 CALLDATASIZE SUB PUSH1 0x20 DUP2 LT ISZERO PUSH2 0x764 JUMPI PUSH1 0x0 DUP1 REVERT JUMPDEST DUP2 ADD SWAP1 DUP1 DUP1 CALLDATALOAD SWAP1 PUSH1 0x20 ADD SWAP1 PUSH5 0x100000000 DUP2 GT ISZERO PUSH2 0x781 JUMPI PUSH1 0x0 DUP1 REVERT JUMPDEST DUP3 ADD DUP4 PUSH1 0x20 DUP3 ADD GT ISZERO PUSH2 0x793 JUMPI PUSH1 0x0 DUP1 REVERT JUMPDEST DUP1 CALLDATALOAD SWAP1 PUSH1 0x20 ADD SWAP2 DUP5 PUSH1 0x1 DUP4 MUL DUP5 ADD GT PUSH5 0x100000000 DUP4 GT OR ISZERO PUSH2 0x7B5 JUMPI PUSH1 0x0 DUP1 REVERT JUMPDEST SWAP2 SWAP1 DUP1 DUP1 PUSH1 0x1F ADD PUSH1 0x20 DUP1 SWAP2 DIV MUL PUSH1 0x20 ADD PUSH1 0x40 MLOAD SWAP1 DUP2 ADD PUSH1 0x40 MSTORE DUP1 SWAP4 SWAP3 SWAP2 SWAP1 DUP2 DUP2 MSTORE PUSH1 0x20 ADD DUP4 DUP4 DUP1 DUP3 DUP5 CALLDATACOPY PUSH1 0x0 DUP2 DUP5 ADD MSTORE PUSH1 0x1F NOT PUSH1 0x1F DUP3 ADD AND SWAP1 POP DUP1 DUP4 ADD SWAP3 POP POP POP POP POP POP POP SWAP2 SWAP3 SWAP2 SWAP3 SWAP1 POP POP POP PUSH2 0x2145 JUMP JUMPDEST PUSH1 0x40 MLOAD DUP1 DUP3 DUP2 MSTORE PUSH1 0x20 ADD SWAP2 POP POP PUSH1 0x40 MLOAD DUP1 SWAP2 SUB SWAP1 RETURN JUMPDEST CALLVALUE DUP1 ISZERO PUSH2 0x829 JUMPI PUSH1 0x0 DUP1 REVERT JUMPDEST POP PUSH2 0x86C PUSH1 0x4 DUP1 CALLDATASIZE SUB PUSH1 0x20 DUP2 LT ISZERO PUSH2 0x840 JUMPI PUSH1 0x0 DUP1 REVERT JUMPDEST DUP2 ADD SWAP1 DUP1 DUP1 CALLDATALOAD PUSH20 0xFFFFFFFFFFFFFFFFFFFFFFFFFFFFFFFFFFFFFFFF AND SWAP1 PUSH1 0x20 ADD SWAP1 SWAP3 SWAP2 SWAP1 POP POP POP PUSH2 0x2254 JUMP JUMPDEST PUSH1 0x40 MLOAD DUP1 DUP3 DUP2 MSTORE PUSH1 0x20 ADD SWAP2 POP POP PUSH1 0x40 MLOAD DUP1 SWAP2 SUB SWAP1 RETURN JUMPDEST CALLVALUE DUP1 ISZERO PUSH2 0x88E JUMPI PUSH1 0x0 DUP1 REVERT JUMPDEST POP PUSH2 0x897 PUSH2 0x22DC JUMP JUMPDEST PUSH1 0x40 MLOAD DUP1 DUP3 PUSH20 0xFFFFFFFFFFFFFFFFFFFFFFFFFFFFFFFFFFFFFFFF AND DUP2 MSTORE PUSH1 0x20 ADD SWAP2 POP POP PUSH1 0x40 MLOAD DUP1 SWAP2 SUB SWAP1 RETURN JUMPDEST CALLVALUE DUP1 ISZERO PUSH2 0x8CF JUMPI PUSH1 0x0 DUP1 REVERT JUMPDEST POP PUSH2 0x8D8 PUSH2 0x2302 JUMP JUMPDEST PUSH1 0x40 MLOAD DUP1 DUP1 PUSH1 0x20 ADD DUP3 DUP2 SUB DUP3 MSTORE DUP4 DUP2 DUP2 MLOAD DUP2 MSTORE PUSH1 0x20 ADD SWAP2 POP DUP1 MLOAD SWAP1 PUSH1 0x20 ADD SWAP1 DUP1 DUP4 DUP4 PUSH1 0x0 JUMPDEST DUP4 DUP2 LT ISZERO PUSH2 0x918 JUMPI DUP1 DUP3 ADD MLOAD DUP2 DUP5 ADD MSTORE PUSH1 0x20 DUP2 ADD SWAP1 POP PUSH2 0x8FD JUMP JUMPDEST POP POP POP POP SWAP1 POP SWAP1 DUP2 ADD SWAP1 PUSH1 0x1F AND DUP1 ISZERO PUSH2 0x945 JUMPI DUP1 DUP3 SUB DUP1 MLOAD PUSH1 0x1 DUP4 PUSH1 0x20 SUB PUSH2 0x100 EXP SUB NOT AND DUP2 MSTORE PUSH1 0x20 ADD SWAP2 POP JUMPDEST POP SWAP3 POP POP POP PUSH1 0x40 MLOAD DUP1 SWAP2 SUB SWAP1 RETURN JUMPDEST CALLVALUE DUP1 ISZERO PUSH2 0x95F JUMPI PUSH1 0x0 DUP1 REVERT JUMPDEST POP PUSH2 0x98C PUSH1 0x4 DUP1 CALLDATASIZE SUB PUSH1 0x20 DUP2 LT ISZERO PUSH2 0x976 JUMPI PUSH1 0x0 DUP1 REVERT JUMPDEST DUP2 ADD SWAP1 DUP1 DUP1 CALLDATALOAD SWAP1 PUSH1 0x20 ADD SWAP1 SWAP3 SWAP2 SWAP1 POP POP POP PUSH2 0x237B JUMP JUMPDEST STOP JUMPDEST CALLVALUE DUP1 ISZERO PUSH2 0x99A JUMPI PUSH1 0x0 DUP1 REVERT JUMPDEST POP PUSH2 0x9C7 PUSH1 0x4 DUP1 CALLDATASIZE SUB PUSH1 0x20 DUP2 LT ISZERO PUSH2 0x9B1 JUMPI PUSH1 0x0 DUP1 REVERT JUMPDEST DUP2 ADD SWAP1 DUP1 DUP1 CALLDATALOAD SWAP1 PUSH1 0x20 ADD SWAP1 SWAP3 SWAP2 SWAP1 POP POP POP PUSH2 0x25C9 JUMP JUMPDEST PUSH1 0x40 MLOAD DUP1 DUP3 DUP2 MSTORE PUSH1 0x20 ADD SWAP2 POP POP PUSH1 0x40 MLOAD DUP1 SWAP2 SUB SWAP1 RETURN JUMPDEST CALLVALUE DUP1 ISZERO PUSH2 0x9E9 JUMPI PUSH1 0x0 DUP1 REVERT JUMPDEST POP PUSH2 0xA36 PUSH1 0x4 DUP1 CALLDATASIZE SUB PUSH1 0x40 DUP2 LT ISZERO PUSH2 0xA00 JUMPI PUSH1 0x0 DUP1 REVERT JUMPDEST DUP2 ADD SWAP1 DUP1 DUP1 CALLDATALOAD PUSH20 0xFFFFFFFFFFFFFFFFFFFFFFFFFFFFFFFFFFFFFFFF AND SWAP1 PUSH1 0x20 ADD SWAP1 SWAP3 SWAP2 SWAP1 DUP1 CALLDATALOAD SWAP1 PUSH1 0x20 ADD SWAP1 SWAP3 SWAP2 SWAP1 POP POP POP PUSH2 0x2622 JUMP JUMPDEST STOP JUMPDEST CALLVALUE DUP1 ISZERO PUSH2 0xA44 JUMPI PUSH1 0x0 DUP1 REVERT JUMPDEST POP PUSH2 0xA71 PUSH1 0x4 DUP1 CALLDATASIZE SUB PUSH1 0x20 DUP2 LT ISZERO PUSH2 0xA5B JUMPI PUSH1 0x0 DUP1 REVERT JUMPDEST DUP2 ADD SWAP1 DUP1 DUP1 CALLDATALOAD SWAP1 PUSH1 0x20 ADD SWAP1 SWAP3 SWAP2 SWAP1 POP POP POP PUSH2 0x27BC JUMP JUMPDEST STOP JUMPDEST CALLVALUE DUP1 ISZERO PUSH2 0xA7F JUMPI PUSH1 0x0 DUP1 REVERT JUMPDEST POP PUSH2 0xAAC PUSH1 0x4 DUP1 CALLDATASIZE SUB PUSH1 0x20 DUP2 LT ISZERO PUSH2 0xA96 JUMPI PUSH1 0x0 DUP1 REVERT JUMPDEST DUP2 ADD SWAP1 DUP1 DUP1 CALLDATALOAD SWAP1 PUSH1 0x20 ADD SWAP1 SWAP3 SWAP2 SWAP1 POP POP POP PUSH2 0x2871 JUMP JUMPDEST STOP JUMPDEST CALLVALUE DUP1 ISZERO PUSH2 0xABA JUMPI PUSH1 0x0 DUP1 REVERT JUMPDEST POP PUSH2 0xAE7 PUSH1 0x4 DUP1 CALLDATASIZE SUB PUSH1 0x20 DUP2 LT ISZERO PUSH2 0xAD1 JUMPI PUSH1 0x0 DUP1 REVERT JUMPDEST DUP2 ADD SWAP1 DUP1 DUP1 CALLDATALOAD SWAP1 PUSH1 0x20 ADD SWAP1 SWAP3 SWAP2 SWAP1 POP POP POP PUSH2 0x299D JUMP JUMPDEST PUSH1 0x40 MLOAD DUP1 DUP1 PUSH1 0x20 ADD DUP3 DUP2 SUB DUP3 MSTORE DUP4 DUP2 DUP2 MLOAD DUP2 MSTORE PUSH1 0x20 ADD SWAP2 POP DUP1 MLOAD SWAP1 PUSH1 0x20 ADD SWAP1 DUP1 DUP4 DUP4 PUSH1 0x0 JUMPDEST DUP4 DUP2 LT ISZERO PUSH2 0xB27 JUMPI DUP1 DUP3 ADD MLOAD DUP2 DUP5 ADD MSTORE PUSH1 0x20 DUP2 ADD SWAP1 POP PUSH2 0xB0C JUMP JUMPDEST POP POP POP POP SWAP1 POP SWAP1 DUP2 ADD SWAP1 PUSH1 0x1F AND DUP1 ISZERO PUSH2 0xB54 JUMPI DUP1 DUP3 SUB DUP1 MLOAD PUSH1 0x1 DUP4 PUSH1 0x20 SUB PUSH2 0x100 EXP SUB NOT AND DUP2 MSTORE PUSH1 0x20 ADD SWAP2 POP JUMPDEST POP SWAP3 POP POP POP PUSH1 0x40 MLOAD DUP1 SWAP2 SUB SWAP1 RETURN JUMPDEST CALLVALUE DUP1 ISZERO PUSH2 0xB6E JUMPI PUSH1 0x0 DUP1 REVERT JUMPDEST POP PUSH2 0xB9B PUSH1 0x4 DUP1 CALLDATASIZE SUB PUSH1 0x20 DUP2 LT ISZERO PUSH2 0xB85 JUMPI PUSH1 0x0 DUP1 REVERT JUMPDEST DUP2 ADD SWAP1 DUP1 DUP1 CALLDATALOAD SWAP1 PUSH1 0x20 ADD SWAP1 SWAP3 SWAP2 SWAP1 POP POP POP PUSH2 0x2ABF JUMP JUMPDEST PUSH1 0x40 MLOAD DUP1 DUP3 PUSH20 0xFFFFFFFFFFFFFFFFFFFFFFFFFFFFFFFFFFFFFFFF AND DUP2 MSTORE PUSH1 0x20 ADD SWAP2 POP POP PUSH1 0x40 MLOAD DUP1 SWAP2 SUB SWAP1 RETURN JUMPDEST PUSH2 0xBF3 PUSH1 0x4 DUP1 CALLDATASIZE SUB PUSH1 0x20 DUP2 LT ISZERO PUSH2 0xBDD JUMPI PUSH1 0x0 DUP1 REVERT JUMPDEST DUP2 ADD SWAP1 DUP1 DUP1 CALLDATALOAD SWAP1 PUSH1 0x20 ADD SWAP1 SWAP3 SWAP2 SWAP1 POP POP POP PUSH2 0x2B38 JUMP JUMPDEST STOP JUMPDEST CALLVALUE DUP1 ISZERO PUSH2 0xC01 JUMPI PUSH1 0x0 DUP1 REVERT JUMPDEST POP PUSH2 0xCBB PUSH1 0x4 DUP1 CALLDATASIZE SUB PUSH1 0x20 DUP2 LT ISZERO PUSH2 0xC18 JUMPI PUSH1 0x0 DUP1 REVERT JUMPDEST DUP2 ADD SWAP1 DUP1 DUP1 CALLDATALOAD SWAP1 PUSH1 0x20 ADD SWAP1 PUSH5 0x100000000 DUP2 GT ISZERO PUSH2 0xC35 JUMPI PUSH1 0x0 DUP1 REVERT JUMPDEST DUP3 ADD DUP4 PUSH1 0x20 DUP3 ADD GT ISZERO PUSH2 0xC47 JUMPI PUSH1 0x0 DUP1 REVERT JUMPDEST DUP1 CALLDATALOAD SWAP1 PUSH1 0x20 ADD SWAP2 DUP5 PUSH1 0x1 DUP4 MUL DUP5 ADD GT PUSH5 0x100000000 DUP4 GT OR ISZERO PUSH2 0xC69 JUMPI PUSH1 0x0 DUP1 REVERT JUMPDEST SWAP2 SWAP1 DUP1 DUP1 PUSH1 0x1F ADD PUSH1 0x20 DUP1 SWAP2 DIV MUL PUSH1 0x20 ADD PUSH1 0x40 MLOAD SWAP1 DUP2 ADD PUSH1 0x40 MSTORE DUP1 SWAP4 SWAP3 SWAP2 SWAP1 DUP2 DUP2 MSTORE PUSH1 0x20 ADD DUP4 DUP4 DUP1 DUP3 DUP5 CALLDATACOPY PUSH1 0x0 DUP2 DUP5 ADD MSTORE PUSH1 0x1F NOT PUSH1 0x1F DUP3 ADD AND SWAP1 POP DUP1 DUP4 ADD SWAP3 POP POP POP POP POP POP POP SWAP2 SWAP3 SWAP2 SWAP3 SWAP1 POP POP POP PUSH2 0x2FC7 JUMP JUMPDEST STOP JUMPDEST CALLVALUE DUP1 ISZERO PUSH2 0xCC9 JUMPI PUSH1 0x0 DUP1 REVERT JUMPDEST POP PUSH2 0xCD2 PUSH2 0x32AC JUMP JUMPDEST PUSH1 0x40 MLOAD DUP1 DUP3 DUP2 MSTORE PUSH1 0x20 ADD SWAP2 POP POP PUSH1 0x40 MLOAD DUP1 SWAP2 SUB SWAP1 RETURN JUMPDEST CALLVALUE DUP1 ISZERO PUSH2 0xCF4 JUMPI PUSH1 0x0 DUP1 REVERT JUMPDEST POP PUSH2 0xCFD PUSH2 0x32B2 JUMP JUMPDEST PUSH1 0x40 MLOAD DUP1 DUP3 DUP2 MSTORE PUSH1 0x20 ADD SWAP2 POP POP PUSH1 0x40 MLOAD DUP1 SWAP2 SUB SWAP1 RETURN JUMPDEST CALLVALUE DUP1 ISZERO PUSH2 0xD1F JUMPI PUSH1 0x0 DUP1 REVERT JUMPDEST POP PUSH2 0xD62 PUSH1 0x4 DUP1 CALLDATASIZE SUB PUSH1 0x20 DUP2 LT ISZERO PUSH2 0xD36 JUMPI PUSH1 0x0 DUP1 REVERT JUMPDEST DUP2 ADD SWAP1 DUP1 DUP1 CALLDATALOAD PUSH20 0xFFFFFFFFFFFFFFFFFFFFFFFFFFFFFFFFFFFFFFFF AND SWAP1 PUSH1 0x20 ADD SWAP1 SWAP3 SWAP2 SWAP1 POP POP POP PUSH2 0x32B8 JUMP JUMPDEST STOP JUMPDEST PUSH2 0xD78 PUSH8 0x9B42D00D0AE580E2 PUSH1 0xC0 SHL PUSH2 0x354C JUMP JUMPDEST DUP3 PUSH2 0xD8D PUSH8 0xAC7BEC09E3F7765F PUSH1 0xC0 SHL PUSH2 0x354C JUMP JUMPDEST PUSH2 0xDA1 PUSH8 0xCE5D45A5F125BAD3 PUSH1 0xC0 SHL PUSH2 0x354C JUMP JUMPDEST PUSH2 0xDB5 PUSH8 0x6500A21A9E17332B PUSH1 0xC0 SHL PUSH2 0x354C JUMP JUMPDEST PUSH2 0xDC9 PUSH8 0x4678F8E0BCCEC0E7 PUSH1 0xC0 SHL PUSH2 0x354C JUMP JUMPDEST PUSH1 0x0 PUSH1 0xD DUP3 PUSH1 0x40 MLOAD DUP1 DUP3 DUP1 MLOAD SWAP1 PUSH1 0x20 ADD SWAP1 DUP1 DUP4 DUP4 JUMPDEST PUSH1 0x20 DUP4 LT PUSH2 0xE01 JUMPI DUP1 MLOAD DUP3 MSTORE PUSH1 0x20 DUP3 ADD SWAP2 POP PUSH1 0x20 DUP2 ADD SWAP1 POP PUSH1 0x20 DUP4 SUB SWAP3 POP PUSH2 0xDDE JUMP JUMPDEST PUSH1 0x1 DUP4 PUSH1 0x20 SUB PUSH2 0x100 EXP SUB DUP1 NOT DUP3 MLOAD AND DUP2 DUP5 MLOAD AND DUP1 DUP3 OR DUP6 MSTORE POP POP POP POP POP POP SWAP1 POP ADD SWAP2 POP POP SWAP1 DUP2 MSTORE PUSH1 0x20 ADD PUSH1 0x40 MLOAD DUP1 SWAP2 SUB SWAP1 KECCAK256 SLOAD EQ PUSH2 0xE3F JUMPI PUSH1 0x0 DUP1 REVERT JUMPDEST PUSH2 0xE53 PUSH8 0x6AAF034654A9B214 PUSH1 0xC0 SHL PUSH2 0x354C JUMP JUMPDEST PUSH2 0xE67 PUSH8 0x3442D4862B980FFA PUSH1 0xC0 SHL PUSH2 0x354C JUMP JUMPDEST PUSH2 0xE7B PUSH8 0xB48A305739D326A7 PUSH1 0xC0 SHL PUSH2 0x354C JUMP JUMPDEST PUSH2 0xE8F PUSH8 0xCD8AB3DA14C2C726 PUSH1 0xC0 SHL PUSH2 0x354C JUMP JUMPDEST PUSH2 0xEA3 PUSH8 0x90341A4515026F6F PUSH1 0xC0 SHL PUSH2 0x354C JUMP JUMPDEST PUSH2 0xEB7 PUSH8 0x8EB4B24ABF9CC3C7 PUSH1 0xC0 SHL PUSH2 0x354C JUMP JUMPDEST PUSH2 0xECB PUSH8 0x8AF06F1B8E2213A5 PUSH1 0xC0 SHL PUSH2 0x354C JUMP JUMPDEST PUSH2 0xEDF PUSH8 0x7B0BA68BCDBA4003 PUSH1 0xC0 SHL PUSH2 0x354C JUMP JUMPDEST PUSH1 0x1 ISZERO ISZERO PUSH1 0xF PUSH1 0x0 CALLER PUSH20 0xFFFFFFFFFFFFFFFFFFFFFFFFFFFFFFFFFFFFFFFF AND PUSH20 0xFFFFFFFFFFFFFFFFFFFFFFFFFFFFFFFFFFFFFFFF AND DUP2 MSTORE PUSH1 0x20 ADD SWAP1 DUP2 MSTORE PUSH1 0x20 ADD PUSH1 0x0 KECCAK256 PUSH1 0x0 SWAP1 SLOAD SWAP1 PUSH2 0x100 EXP SWAP1 DIV PUSH1 0xFF AND ISZERO ISZERO EQ PUSH2 0xF3C JUMPI PUSH1 0x0 DUP1 REVERT JUMPDEST PUSH2 0xF50 PUSH8 0x64DF1B59BC843701 PUSH1 0xC0 SHL PUSH2 0x354C JUMP JUMPDEST PUSH2 0xF64 PUSH8 0x9DF15489AD6CB3F0 PUSH1 0xC0 SHL PUSH2 0x354C JUMP JUMPDEST PUSH2 0xF78 PUSH8 0x28A0B69815A77CFC PUSH1 0xC0 SHL PUSH2 0x354C JUMP JUMPDEST PUSH2 0xF8C PUSH8 0xBD3E448A0F9F607E PUSH1 0xC0 SHL PUSH2 0x354C JUMP JUMPDEST PUSH2 0xFA0 PUSH8 0x8AFB9E622AC40713 PUSH1 0xC0 SHL PUSH2 0x354C JUMP JUMPDEST PUSH2 0xFB4 PUSH8 0x9E63E6EF98E82D73 PUSH1 0xC0 SHL PUSH2 0x354C JUMP JUMPDEST PUSH1 0x0 PUSH2 0xFC0 DUP6 CALLER PUSH2 0x354F JUMP JUMPDEST SWAP1 POP PUSH2 0xFD6 PUSH8 0xE8018000132DD01B PUSH1 0xC0 SHL PUSH2 0x354C JUMP JUMPDEST DUP1 PUSH1 0xD DUP7 PUSH1 0x40 MLOAD DUP1 DUP3 DUP1 MLOAD SWAP1 PUSH1 0x20 ADD SWAP1 DUP1 DUP4 DUP4 JUMPDEST PUSH1 0x20 DUP4 LT PUSH2 0x100D JUMPI DUP1 MLOAD DUP3 MSTORE PUSH1 0x20 DUP3 ADD SWAP2 POP PUSH1 0x20 DUP2 ADD SWAP1 POP PUSH1 0x20 DUP4 SUB SWAP3 POP PUSH2 0xFEA JUMP JUMPDEST PUSH1 0x1 DUP4 PUSH1 0x20 SUB PUSH2 0x100 EXP SUB DUP1 NOT DUP3 MLOAD AND DUP2 DUP5 MLOAD AND DUP1 DUP3 OR DUP6 MSTORE POP POP POP POP POP POP SWAP1 POP ADD SWAP2 POP POP SWAP1 DUP2 MSTORE PUSH1 0x20 ADD PUSH1 0x40 MLOAD DUP1 SWAP2 SUB SWAP1 KECCAK256 DUP2 SWAP1 SSTORE POP PUSH2 0x1058 PUSH8 0x19890EFAE8BE618C PUSH1 0xC0 SHL PUSH2 0x354C JUMP JUMPDEST PUSH2 0x106C PUSH8 0x7A7BC9DBF507D858 PUSH1 0xC0 SHL PUSH2 0x354C JUMP JUMPDEST PUSH1 0x0 JUMPDEST DUP5 DUP2 LT ISZERO PUSH2 0x113D JUMPI PUSH2 0x108B PUSH8 0x636298E512A70A9A PUSH1 0xC0 SHL PUSH2 0x354C JUMP JUMPDEST PUSH2 0x109F PUSH8 0x19AD43A692E57BCA PUSH1 0xC0 SHL PUSH2 0x354C JUMP JUMPDEST PUSH1 0x0 PUSH2 0x10AB DUP8 CALLER PUSH2 0x354F JUMP JUMPDEST SWAP1 POP PUSH2 0x10C1 PUSH8 0x1D88A25744113EFE PUSH1 0xC0 SHL PUSH2 0x354C JUMP JUMPDEST DUP5 PUSH1 0xA PUSH1 0x0 DUP4 DUP2 MSTORE PUSH1 0x20 ADD SWAP1 DUP2 MSTORE PUSH1 0x20 ADD PUSH1 0x0 KECCAK256 DUP2 SWAP1 SSTORE POP PUSH2 0x10ED PUSH8 0x8A6B3F21347CC23A PUSH1 0xC0 SHL PUSH2 0x354C JUMP JUMPDEST PUSH2 0x1101 PUSH8 0x41996B73E13F17E0 PUSH1 0xC0 SHL PUSH2 0x354C JUMP JUMPDEST DUP5 DUP2 PUSH32 0xE23EA816DCE6D7F5C0B85CBD597E7C3B97B2453791152C0B94E5E5C5F314D2F0 PUSH1 0x40 MLOAD PUSH1 0x40 MLOAD DUP1 SWAP2 SUB SWAP1 LOG3 POP DUP1 DUP1 PUSH1 0x1 ADD SWAP2 POP POP PUSH2 0x106F JUMP JUMPDEST POP POP POP POP POP POP JUMP JUMPDEST PUSH2 0x1159 PUSH8 0xE12F7E0B883E1318 PUSH1 0xC0 SHL PUSH2 0x354C JUMP JUMPDEST DUP2 PUSH2 0x116E PUSH8 0x6C884815578D2D75 PUSH1 0xC0 SHL PUSH2 0x36A2 JUMP JUMPDEST PUSH2 0x1182 PUSH8 0x67262F146B02BB6D PUSH1 0xC0 SHL PUSH2 0x36A2 JUMP JUMPDEST PUSH2 0x1196 PUSH8 0x1AD731CEE4CD0B38 PUSH1 0xC0 SHL PUSH2 0x36A2 JUMP JUMPDEST PUSH2 0x11AA PUSH8 0x2958298FA5BCFD2F PUSH1 0xC0 SHL PUSH2 0x36A2 JUMP JUMPDEST CALLER PUSH20 0xFFFFFFFFFFFFFFFFFFFFFFFFFFFFFFFFFFFFFFFF AND PUSH2 0x11CA DUP3 PUSH2 0x2014 JUMP JUMPDEST PUSH20 0xFFFFFFFFFFFFFFFFFFFFFFFFFFFFFFFFFFFFFFFF AND EQ PUSH2 0x11EA JUMPI PUSH1 0x0 DUP1 REVERT JUMPDEST PUSH2 0x11FE PUSH8 0x65593B5E4D84E5FD PUSH1 0xC0 SHL PUSH2 0x36A2 JUMP JUMPDEST PUSH2 0x1212 PUSH8 0xE79247BCA88E9609 PUSH1 0xC0 SHL PUSH2 0x36A2 JUMP JUMPDEST PUSH2 0x1226 PUSH8 0xED81BFE8A39D65FA PUSH1 0xC0 SHL PUSH2 0x354C JUMP JUMPDEST PUSH2 0x123A PUSH8 0xFF24D97E336FD0B4 PUSH1 0xC0 SHL PUSH2 0x354C JUMP JUMPDEST PUSH2 0x124E PUSH8 0x438074EB7C3F7244 PUSH1 0xC0 SHL PUSH2 0x354C JUMP JUMPDEST PUSH2 0x1262 PUSH8 0x70DD55389A53B547 PUSH1 0xC0 SHL PUSH2 0x354C JUMP JUMPDEST PUSH1 0x0 PUSH1 0x9 PUSH1 0x0 DUP6 DUP2 MSTORE PUSH1 0x20 ADD SWAP1 DUP2 MSTORE PUSH1 0x20 ADD PUSH1 0x0 KECCAK256 SLOAD SWAP1 POP PUSH2 0x128E PUSH8 0x4CD425D422E775A5 PUSH1 0xC0 SHL PUSH2 0x354C JUMP JUMPDEST PUSH2 0x12A2 PUSH8 0x7E8663F2C233884D PUSH1 0xC0 SHL PUSH2 0x354C JUMP JUMPDEST PUSH2 0x12B6 PUSH8 0xCB6F46B5BF50E3D PUSH1 0xC0 SHL PUSH2 0x354C JUMP JUMPDEST DUP1 DUP4 GT PUSH2 0x12C2 JUMPI PUSH1 0x0 DUP1 REVERT JUMPDEST PUSH2 0x12D6 PUSH8 0x74AFACD2BC6E4A1B PUSH1 0xC0 SHL PUSH2 0x354C JUMP JUMPDEST PUSH2 0x12EA PUSH8 0x2B0F90F23EC9384 PUSH1 0xC0 SHL PUSH2 0x354C JUMP JUMPDEST DUP3 PUSH1 0xA PUSH1 0x0 DUP7 DUP2 MSTORE PUSH1 0x20 ADD SWAP1 DUP2 MSTORE PUSH1 0x20 ADD PUSH1 0x0 KECCAK256 DUP2 SWAP1 SSTORE POP PUSH2 0x1316 PUSH8 0x77A8093EFAF2B0A8 PUSH1 0xC0 SHL PUSH2 0x354C JUMP JUMPDEST PUSH2 0x132A PUSH8 0x19CD61DABB9F0222 PUSH1 0xC0 SHL PUSH2 0x354C JUMP JUMPDEST DUP3 DUP5 PUSH32 0xE23EA816DCE6D7F5C0B85CBD597E7C3B97B2453791152C0B94E5E5C5F314D2F0 PUSH1 0x40 MLOAD PUSH1 0x40 MLOAD DUP1 SWAP2 SUB SWAP1 LOG3 POP POP POP POP JUMP JUMPDEST PUSH1 0x60 PUSH2 0x1374 PUSH8 0xAE0235CC265A1566 PUSH1 0xC0 SHL PUSH2 0x354C JUMP JUMPDEST PUSH2 0x1388 PUSH8 0xE701A9C3F57A84B5 PUSH1 0xC0 SHL PUSH2 0x354C JUMP JUMPDEST PUSH2 0x139C PUSH8 0xE29B5C4D8B44A1B6 PUSH1 0xC0 SHL PUSH2 0x354C JUMP JUMPDEST PUSH1 0x40 MLOAD DUP1 PUSH1 0x40 ADD PUSH1 0x40 MSTORE DUP1 PUSH1 0x8 DUP2 MSTORE PUSH1 0x20 ADD PUSH32 0x5375706552617265000000000000000000000000000000000000000000000000 DUP2 MSTORE POP SWAP1 POP SWAP1 JUMP JUMPDEST PUSH2 0x13EB PUSH8 0xD7E6AC095C29CDFE PUSH1 0xC0 SHL PUSH2 0x354C JUMP JUMPDEST PUSH2 0x13FF PUSH8 0xFBBA02EB85D031BE PUSH1 0xC0 SHL PUSH2 0x354C JUMP JUMPDEST PUSH2 0x1413 PUSH8 0x510AFFAE69490690 PUSH1 0xC0 SHL PUSH2 0x354C JUMP JUMPDEST PUSH1 0x0 DUP1 REVERT JUMPDEST PUSH1 0x0 PUSH2 0x142E PUSH8 0xCA16A487FF7552FE PUSH1 0xC0 SHL PUSH2 0x36A2 JUMP JUMPDEST PUSH2 0x1442 PUSH8 0xA97086792958272 PUSH1 0xC0 SHL PUSH2 0x36A2 JUMP JUMPDEST PUSH2 0x1456 PUSH8 0x302F2422B9EF8CA PUSH1 0xC0 SHL PUSH2 0x36A2 JUMP JUMPDEST PUSH1 0x0 SLOAD SWAP1 POP SWAP1 JUMP JUMPDEST PUSH1 0x0 DUP1 PUSH2 0x1475 PUSH8 0x17D1C2E2977662CC PUSH1 0xC0 SHL PUSH2 0x354C JUMP JUMPDEST PUSH2 0x1489 PUSH8 0x25803097A5291FF6 PUSH1 0xC0 SHL PUSH2 0x354C JUMP JUMPDEST PUSH2 0x149D PUSH8 0xE2F05778A8F4E6AD PUSH1 0xC0 SHL PUSH2 0x354C JUMP JUMPDEST PUSH1 0x9 PUSH1 0x0 DUP5 DUP2 MSTORE PUSH1 0x20 ADD SWAP1 DUP2 MSTORE PUSH1 0x20 ADD PUSH1 0x0 KECCAK256 SLOAD PUSH1 0x8 PUSH1 0x0 DUP6 DUP2 MSTORE PUSH1 0x20 ADD SWAP1 DUP2 MSTORE PUSH1 0x20 ADD PUSH1 0x0 KECCAK256 PUSH1 0x0 SWAP1 SLOAD SWAP1 PUSH2 0x100 EXP SWAP1 DIV PUSH20 0xFFFFFFFFFFFFFFFFFFFFFFFFFFFFFFFFFFFFFFFF AND SWAP2 POP SWAP2 POP SWAP2 POP SWAP2 JUMP JUMPDEST PUSH1 0x0 PUSH2 0x1504 PUSH8 0x6A5DF69B0D905725 PUSH1 0xC0 SHL PUSH2 0x36A2 JUMP JUMPDEST PUSH2 0x1518 PUSH8 0x1CF6EB4DE5E8E94D PUSH1 0xC0 SHL PUSH2 0x36A2 JUMP JUMPDEST PUSH2 0x152C PUSH8 0x65AC68FEF9ACD377 PUSH1 0xC0 SHL PUSH2 0x36A2 JUMP JUMPDEST PUSH1 0x2 PUSH1 0x0 DUP4 DUP2 MSTORE PUSH1 0x20 ADD SWAP1 DUP2 MSTORE PUSH1 0x20 ADD PUSH1 0x0 KECCAK256 PUSH1 0x0 SWAP1 SLOAD SWAP1 PUSH2 0x100 EXP SWAP1 DIV PUSH20 0xFFFFFFFFFFFFFFFFFFFFFFFFFFFFFFFFFFFFFFFF AND SWAP1 POP SWAP2 SWAP1 POP JUMP JUMPDEST PUSH2 0x157B PUSH8 0x7CD277AF0393E2D9 PUSH1 0xC0 SHL PUSH2 0x354C JUMP JUMPDEST DUP1 PUSH2 0x1590 PUSH8 0x6C884815578D2D75 PUSH1 0xC0 SHL PUSH2 0x36A2 JUMP JUMPDEST PUSH2 0x15A4 PUSH8 0x67262F146B02BB6D PUSH1 0xC0 SHL PUSH2 0x36A2 JUMP JUMPDEST PUSH2 0x15B8 PUSH8 0x1AD731CEE4CD0B38 PUSH1 0xC0 SHL PUSH2 0x36A2 JUMP JUMPDEST PUSH2 0x15CC PUSH8 0x2958298FA5BCFD2F PUSH1 0xC0 SHL PUSH2 0x36A2 JUMP JUMPDEST CALLER PUSH20 0xFFFFFFFFFFFFFFFFFFFFFFFFFFFFFFFFFFFFFFFF AND PUSH2 0x15EC DUP3 PUSH2 0x2014 JUMP JUMPDEST PUSH20 0xFFFFFFFFFFFFFFFFFFFFFFFFFFFFFFFFFFFFFFFF AND EQ PUSH2 0x160C JUMPI PUSH1 0x0 DUP1 REVERT JUMPDEST PUSH2 0x1620 PUSH8 0x65593B5E4D84E5FD PUSH1 0xC0 SHL PUSH2 0x36A2 JUMP JUMPDEST PUSH2 0x1634 PUSH8 0xE79247BCA88E9609 PUSH1 0xC0 SHL PUSH2 0x36A2 JUMP JUMPDEST PUSH2 0x1648 PUSH8 0xD49D346244A29C04 PUSH1 0xC0 SHL PUSH2 0x354C JUMP JUMPDEST PUSH2 0x165C PUSH8 0xC428823A5EF6DD78 PUSH1 0xC0 SHL PUSH2 0x354C JUMP JUMPDEST PUSH2 0x1670 PUSH8 0xD6E1B0B2B4096508 PUSH1 0xC0 SHL PUSH2 0x354C JUMP JUMPDEST PUSH2 0x1684 PUSH8 0x882BA32B269D0153 PUSH1 0xC0 SHL PUSH2 0x354C JUMP JUMPDEST PUSH1 0x0 PUSH1 0x9 PUSH1 0x0 DUP5 DUP2 MSTORE PUSH1 0x20 ADD SWAP1 DUP2 MSTORE PUSH1 0x20 ADD PUSH1 0x0 KECCAK256 SLOAD SWAP1 POP PUSH2 0x16B0 PUSH8 0x80ADEEA74A27450 PUSH1 0xC0 SHL PUSH2 0x354C JUMP JUMPDEST PUSH2 0x16C4 PUSH8 0xC7EE8862915C94E5 PUSH1 0xC0 SHL PUSH2 0x354C JUMP JUMPDEST PUSH1 0x0 PUSH1 0x8 PUSH1 0x0 DUP6 DUP2 MSTORE PUSH1 0x20 ADD SWAP1 DUP2 MSTORE PUSH1 0x20 ADD PUSH1 0x0 KECCAK256 PUSH1 0x0 SWAP1 SLOAD SWAP1 PUSH2 0x100 EXP SWAP1 DIV PUSH20 0xFFFFFFFFFFFFFFFFFFFFFFFFFFFFFFFFFFFFFFFF AND SWAP1 POP PUSH2 0x1710 PUSH8 0xE74F6B4BABB5CBB PUSH1 0xC0 SHL PUSH2 0x354C JUMP JUMPDEST PUSH2 0x1724 PUSH8 0xF8394D566097FDD0 PUSH1 0xC0 SHL PUSH2 0x354C JUMP JUMPDEST PUSH1 0x0 PUSH2 0x172F DUP6 PUSH2 0x2014 JUMP JUMPDEST SWAP1 POP PUSH2 0x1745 PUSH8 0xDF8C1D80CF053CED PUSH1 0xC0 SHL PUSH2 0x354C JUMP JUMPDEST PUSH2 0x1759 PUSH8 0x8C7B781B17E0EE41 PUSH1 0xC0 SHL PUSH2 0x354C JUMP JUMPDEST PUSH1 0x0 PUSH1 0xB PUSH1 0x0 DUP8 DUP2 MSTORE PUSH1 0x20 ADD SWAP1 DUP2 MSTORE PUSH1 0x20 ADD PUSH1 0x0 KECCAK256 PUSH1 0x0 SWAP1 SLOAD SWAP1 PUSH2 0x100 EXP SWAP1 DIV PUSH20 0xFFFFFFFFFFFFFFFFFFFFFFFFFFFFFFFFFFFFFFFF AND SWAP1 POP PUSH2 0x17A5 PUSH8 0xEA49E993C1ADCEAE PUSH1 0xC0 SHL PUSH2 0x354C JUMP JUMPDEST PUSH2 0x17B9 PUSH8 0x6AB31217566C2598 PUSH1 0xC0 SHL PUSH2 0x354C JUMP JUMPDEST PUSH2 0x17C4 CALLER DUP5 DUP9 PUSH2 0x36A5 JUMP JUMPDEST PUSH2 0x17D8 PUSH8 0xC853B268B661B601 PUSH1 0xC0 SHL PUSH2 0x354C JUMP JUMPDEST PUSH2 0x17EC PUSH8 0x64622E7A78479370 PUSH1 0xC0 SHL PUSH2 0x354C JUMP JUMPDEST PUSH2 0x181B DUP5 PUSH1 0x5 PUSH1 0x0 SWAP1 SLOAD SWAP1 PUSH2 0x100 EXP SWAP1 DIV PUSH20 0xFFFFFFFFFFFFFFFFFFFFFFFFFFFFFFFFFFFFFFFF AND DUP4 DUP6 DUP11 PUSH2 0x398C JUMP JUMPDEST PUSH2 0x182F PUSH8 0x8C87E2DB1349D23E PUSH1 0xC0 SHL PUSH2 0x354C JUMP JUMPDEST PUSH2 0x1843 PUSH8 0x88C7962A34674040 PUSH1 0xC0 SHL PUSH2 0x354C JUMP JUMPDEST PUSH2 0x184C DUP7 PUSH2 0x3D31 JUMP JUMPDEST PUSH2 0x1860 PUSH8 0x200FBC734789407B PUSH1 0xC0 SHL PUSH2 0x354C JUMP JUMPDEST PUSH2 0x1874 PUSH8 0x742561FDF6F37251 PUSH1 0xC0 SHL PUSH2 0x354C JUMP JUMPDEST DUP6 DUP3 PUSH20 0xFFFFFFFFFFFFFFFFFFFFFFFFFFFFFFFFFFFFFFFF AND DUP5 PUSH20 0xFFFFFFFFFFFFFFFFFFFFFFFFFFFFFFFFFFFFFFFF AND PUSH32 0xD6DEDDB2E105B46D4644D24AAC8C58493A0F107E7973B2FE8D8FA7931A2912BE DUP8 PUSH1 0x40 MLOAD DUP1 DUP3 DUP2 MSTORE PUSH1 0x20 ADD SWAP2 POP POP PUSH1 0x40 MLOAD DUP1 SWAP2 SUB SWAP1 LOG4 PUSH2 0x18EE PUSH8 0x9CA50BD7E1E7A453 PUSH1 0xC0 SHL PUSH2 0x354C JUMP JUMPDEST PUSH1 0x0 PUSH1 0xA PUSH1 0x0 DUP9 DUP2 MSTORE PUSH1 0x20 ADD SWAP1 DUP2 MSTORE PUSH1 0x20 ADD PUSH1 0x0 KECCAK256 DUP2 SWAP1 SSTORE POP POP POP POP POP POP POP JUMP JUMPDEST PUSH1 0x0 PUSH2 0x1925 PUSH8 0x46DA01030A2D8779 PUSH1 0xC0 SHL PUSH2 0x354C JUMP JUMPDEST PUSH2 0x1939 PUSH8 0xC942659AE7B56AB7 PUSH1 0xC0 SHL PUSH2 0x354C JUMP JUMPDEST PUSH2 0x194D PUSH8 0xD6DDECF12358EE81 PUSH1 0xC0 SHL PUSH2 0x354C JUMP JUMPDEST PUSH1 0xF PUSH1 0x0 DUP4 PUSH20 0xFFFFFFFFFFFFFFFFFFFFFFFFFFFFFFFFFFFFFFFF AND PUSH20 0xFFFFFFFFFFFFFFFFFFFFFFFFFFFFFFFFFFFFFFFF AND DUP2 MSTORE PUSH1 0x20 ADD SWAP1 DUP2 MSTORE PUSH1 0x20 ADD PUSH1 0x0 KECCAK256 PUSH1 0x0 SWAP1 SLOAD SWAP1 PUSH2 0x100 EXP SWAP1 DIV PUSH1 0xFF AND SWAP1 POP SWAP2 SWAP1 POP JUMP JUMPDEST PUSH2 0x19B5 PUSH8 0xED4BD922328D249A PUSH1 0xC0 SHL PUSH2 0x354C JUMP JUMPDEST DUP1 PUSH2 0x19CA PUSH8 0x4ED5678A9B773C4D PUSH1 0xC0 SHL PUSH2 0x354C JUMP JUMPDEST PUSH2 0x19DE PUSH8 0x6C483246D1179B25 PUSH1 0xC0 SHL PUSH2 0x354C JUMP JUMPDEST PUSH2 0x19F2 PUSH8 0x871B1C71CFC70571 PUSH1 0xC0 SHL PUSH2 0x354C JUMP JUMPDEST PUSH2 0x1A06 PUSH8 0xFCC864498E0E3F6B PUSH1 0xC0 SHL PUSH2 0x354C JUMP JUMPDEST CALLER PUSH20 0xFFFFFFFFFFFFFFFFFFFFFFFFFFFFFFFFFFFFFFFF AND PUSH2 0x1A26 DUP3 PUSH2 0x2014 JUMP JUMPDEST PUSH20 0xFFFFFFFFFFFFFFFFFFFFFFFFFFFFFFFFFFFFFFFF AND EQ ISZERO PUSH2 0x1A47 JUMPI PUSH1 0x0 DUP1 REVERT JUMPDEST PUSH2 0x1A5B PUSH8 0xCECAAEE574E2A45C PUSH1 0xC0 SHL PUSH2 0x354C JUMP JUMPDEST PUSH2 0x1A6F PUSH8 0x8D2D8AC0753F4C21 PUSH1 0xC0 SHL PUSH2 0x354C JUMP JUMPDEST PUSH2 0x1A83 PUSH8 0xA010A7B3A49D715B PUSH1 0xC0 SHL PUSH2 0x354C JUMP JUMPDEST PUSH2 0x1A97 PUSH8 0xB2F704EA6977C3DC PUSH1 0xC0 SHL PUSH2 0x354C JUMP JUMPDEST PUSH2 0x1AAB PUSH8 0x697E764B4DD2F4E3 PUSH1 0xC0 SHL PUSH2 0x354C JUMP JUMPDEST PUSH2 0x1ABF PUSH8 0x3A4E5A53A0D68580 PUSH1 0xC0 SHL PUSH2 0x354C JUMP JUMPDEST PUSH2 0x1AD3 PUSH8 0xE8E39CA07F5A2B13 PUSH1 0xC0 SHL PUSH2 0x354C JUMP JUMPDEST PUSH2 0x1ADC DUP3 PUSH2 0x3DDC JUMP JUMPDEST PUSH2 0x1AE5 JUMPI PUSH1 0x0 DUP1 REVERT JUMPDEST PUSH2 0x1AF9 PUSH8 0xBCC2A9613A206BB PUSH1 0xC0 SHL PUSH2 0x354C JUMP JUMPDEST PUSH2 0x1B0D PUSH8 0x6C99C5FE18131F1F PUSH1 0xC0 SHL PUSH2 0x354C JUMP JUMPDEST PUSH2 0x1B21 PUSH8 0x270BBC4116AC988C PUSH1 0xC0 SHL PUSH2 0x354C JUMP JUMPDEST PUSH2 0x1B2A DUP3 PUSH2 0x3E37 JUMP JUMPDEST PUSH2 0x1B3E PUSH8 0xBD2E58955E153705 PUSH1 0xC0 SHL PUSH2 0x354C JUMP JUMPDEST CALLER PUSH1 0x8 PUSH1 0x0 DUP5 DUP2 MSTORE PUSH1 0x20 ADD SWAP1 DUP2 MSTORE PUSH1 0x20 ADD PUSH1 0x0 KECCAK256 PUSH1 0x0 PUSH2 0x100 EXP DUP2 SLOAD DUP2 PUSH20 0xFFFFFFFFFFFFFFFFFFFFFFFFFFFFFFFFFFFFFFFF MUL NOT AND SWAP1 DUP4 PUSH20 0xFFFFFFFFFFFFFFFFFFFFFFFFFFFFFFFFFFFFFFFF AND MUL OR SWAP1 SSTORE POP PUSH2 0x1BA4 PUSH8 0xCA0477D0E4AB564C PUSH1 0xC0 SHL PUSH2 0x354C JUMP JUMPDEST CALLVALUE PUSH1 0x9 PUSH1 0x0 DUP5 DUP2 MSTORE PUSH1 0x20 ADD SWAP1 DUP2 MSTORE PUSH1 0x20 ADD PUSH1 0x0 KECCAK256 DUP2 SWAP1 SSTORE POP PUSH2 0x1BD0 PUSH8 0x8836A22781914962 PUSH1 0xC0 SHL PUSH2 0x354C JUMP JUMPDEST PUSH2 0x1BE4 PUSH8 0x908839F575AF8E91 PUSH1 0xC0 SHL PUSH2 0x354C JUMP JUMPDEST DUP2 CALLVALUE CALLER PUSH20 0xFFFFFFFFFFFFFFFFFFFFFFFFFFFFFFFFFFFFFFFF AND PUSH32 0x19421268847F42DD61705778018DDFC43BCDCE8517E7A630ACB12F122C709481 PUSH1 0x40 MLOAD PUSH1 0x40 MLOAD DUP1 SWAP2 SUB SWAP1 LOG4 POP POP JUMP JUMPDEST PUSH1 0x60 PUSH2 0x1C43 PUSH8 0x40505E57ADB04305 PUSH1 0xC0 SHL PUSH2 0x36A2 JUMP JUMPDEST PUSH2 0x1C57 PUSH8 0x83FEEEEC5DF768AB PUSH1 0xC0 SHL PUSH2 0x36A2 JUMP JUMPDEST PUSH2 0x1C6B PUSH8 0x4900FFC8A7AC0B87 PUSH1 0xC0 SHL PUSH2 0x36A2 JUMP JUMPDEST PUSH1 0x3 PUSH1 0x0 DUP4 PUSH20 0xFFFFFFFFFFFFFFFFFFFFFFFFFFFFFFFFFFFFFFFF AND PUSH20 0xFFFFFFFFFFFFFFFFFFFFFFFFFFFFFFFFFFFFFFFF AND DUP2 MSTORE PUSH1 0x20 ADD SWAP1 DUP2 MSTORE PUSH1 0x20 ADD PUSH1 0x0 KECCAK256 DUP1 SLOAD DUP1 PUSH1 0x20 MUL PUSH1 0x20 ADD PUSH1 0x40 MLOAD SWAP1 DUP2 ADD PUSH1 0x40 MSTORE DUP1 SWAP3 SWAP2 SWAP1 DUP2 DUP2 MSTORE PUSH1 0x20 ADD DUP3 DUP1 SLOAD DUP1 ISZERO PUSH2 0x1CF4 JUMPI PUSH1 0x20 MUL DUP3 ADD SWAP2 SWAP1 PUSH1 0x0 MSTORE PUSH1 0x20 PUSH1 0x0 KECCAK256 SWAP1 JUMPDEST DUP2 SLOAD DUP2 MSTORE PUSH1 0x20 ADD SWAP1 PUSH1 0x1 ADD SWAP1 DUP1 DUP4 GT PUSH2 0x1CE0 JUMPI JUMPDEST POP POP POP POP POP SWAP1 POP SWAP2 SWAP1 POP JUMP JUMPDEST PUSH2 0x1D14 PUSH8 0x3870CB46BBD53EB2 PUSH1 0xC0 SHL PUSH2 0x354C JUMP JUMPDEST PUSH2 0x1D28 PUSH8 0x81858479FB9E847B PUSH1 0xC0 SHL PUSH2 0x3FE9 JUMP JUMPDEST PUSH2 0x1D3C PUSH8 0xDE0916D058840190 PUSH1 0xC0 SHL PUSH2 0x3FE9 JUMP JUMPDEST PUSH2 0x1D50 PUSH8 0x36055DE3F7B7200C PUSH1 0xC0 SHL PUSH2 0x3FE9 JUMP JUMPDEST PUSH2 0x1D64 PUSH8 0x2B1A2D677D471644 PUSH1 0xC0 SHL PUSH2 0x3FE9 JUMP JUMPDEST PUSH1 0x5 PUSH1 0x0 SWAP1 SLOAD SWAP1 PUSH2 0x100 EXP SWAP1 DIV PUSH20 0xFFFFFFFFFFFFFFFFFFFFFFFFFFFFFFFFFFFFFFFF AND PUSH20 0xFFFFFFFFFFFFFFFFFFFFFFFFFFFFFFFFFFFFFFFF AND CALLER PUSH20 0xFFFFFFFFFFFFFFFFFFFFFFFFFFFFFFFFFFFFFFFF AND EQ PUSH2 0x1DBE JUMPI PUSH1 0x0 DUP1 REVERT JUMPDEST PUSH2 0x1DD2 PUSH8 0x6C74EE3D862A01A5 PUSH1 0xC0 SHL PUSH2 0x3FE9 JUMP JUMPDEST PUSH2 0x1DE6 PUSH8 0x2163F90381EEA1B5 PUSH1 0xC0 SHL PUSH2 0x3FE9 JUMP JUMPDEST PUSH2 0x1DFA PUSH8 0x7EC32D4199C454C3 PUSH1 0xC0 SHL PUSH2 0x354C JUMP JUMPDEST PUSH2 0x1E0E PUSH8 0x2B92E4E08AA37FDF PUSH1 0xC0 SHL PUSH2 0x354C JUMP JUMPDEST PUSH2 0x1E22 PUSH8 0x58C2EF13FE5481A7 PUSH1 0xC0 SHL PUSH2 0x354C JUMP JUMPDEST DUP1 PUSH1 0x6 DUP2 SWAP1 SSTORE POP POP JUMP JUMPDEST PUSH2 0x1E40 PUSH8 0x3C4FB990E2E62371 PUSH1 0xC0 SHL PUSH2 0x354C JUMP JUMPDEST PUSH2 0x1E54 PUSH8 0x81858479FB9E847B PUSH1 0xC0 SHL PUSH2 0x3FE9 JUMP JUMPDEST PUSH2 0x1E68 PUSH8 0xDE0916D058840190 PUSH1 0xC0 SHL PUSH2 0x3FE9 JUMP JUMPDEST PUSH2 0x1E7C PUSH8 0x36055DE3F7B7200C PUSH1 0xC0 SHL PUSH2 0x3FE9 JUMP JUMPDEST PUSH2 0x1E90 PUSH8 0x2B1A2D677D471644 PUSH1 0xC0 SHL PUSH2 0x3FE9 JUMP JUMPDEST PUSH1 0x5 PUSH1 0x0 SWAP1 SLOAD SWAP1 PUSH2 0x100 EXP SWAP1 DIV PUSH20 0xFFFFFFFFFFFFFFFFFFFFFFFFFFFFFFFFFFFFFFFF AND PUSH20 0xFFFFFFFFFFFFFFFFFFFFFFFFFFFFFFFFFFFFFFFF AND CALLER PUSH20 0xFFFFFFFFFFFFFFFFFFFFFFFFFFFFFFFFFFFFFFFF AND EQ PUSH2 0x1EEA JUMPI PUSH1 0x0 DUP1 REVERT JUMPDEST PUSH2 0x1EFE PUSH8 0x6C74EE3D862A01A5 PUSH1 0xC0 SHL PUSH2 0x3FE9 JUMP JUMPDEST PUSH2 0x1F12 PUSH8 0x2163F90381EEA1B5 PUSH1 0xC0 SHL PUSH2 0x3FE9 JUMP JUMPDEST PUSH2 0x1F26 PUSH8 0xF0E3EA2479385FE4 PUSH1 0xC0 SHL PUSH2 0x354C JUMP JUMPDEST PUSH2 0x1F3A PUSH8 0x8CC3B6D2D466FA79 PUSH1 0xC0 SHL PUSH2 0x354C JUMP JUMPDEST PUSH2 0x1F4E PUSH8 0x157442E48B393818 PUSH1 0xC0 SHL PUSH2 0x354C JUMP JUMPDEST PUSH1 0x1 PUSH1 0xF PUSH1 0x0 DUP4 PUSH20 0xFFFFFFFFFFFFFFFFFFFFFFFFFFFFFFFFFFFFFFFF AND PUSH20 0xFFFFFFFFFFFFFFFFFFFFFFFFFFFFFFFFFFFFFFFF AND DUP2 MSTORE PUSH1 0x20 ADD SWAP1 DUP2 MSTORE PUSH1 0x20 ADD PUSH1 0x0 KECCAK256 PUSH1 0x0 PUSH2 0x100 EXP DUP2 SLOAD DUP2 PUSH1 0xFF MUL NOT AND SWAP1 DUP4 ISZERO ISZERO MUL OR SWAP1 SSTORE POP PUSH2 0x1FBA PUSH8 0xF985884DBCE4D17F PUSH1 0xC0 SHL PUSH2 0x354C JUMP JUMPDEST PUSH2 0x1FCE PUSH8 0x5371440794EC789D PUSH1 0xC0 SHL PUSH2 0x354C JUMP JUMPDEST DUP1 PUSH20 0xFFFFFFFFFFFFFFFFFFFFFFFFFFFFFFFFFFFFFFFF AND PUSH32 0x55EED0AED3EC6E015B9AD5E984675FE36C0CE3AEBDCB70F467670773F19F7F8D PUSH1 0x40 MLOAD PUSH1 0x40 MLOAD DUP1 SWAP2 SUB SWAP1 LOG2 POP JUMP JUMPDEST PUSH1 0x0 PUSH2 0x202A PUSH8 0xA26E3BCD7251DD8 PUSH1 0xC0 SHL PUSH2 0x36A2 JUMP JUMPDEST PUSH2 0x203E PUSH8 0x7E93A9EA2D1A6350 PUSH1 0xC0 SHL PUSH2 0x36A2 JUMP JUMPDEST PUSH2 0x2052 PUSH8 0x6DEC9514286051FC PUSH1 0xC0 SHL PUSH2 0x36A2 JUMP JUMPDEST PUSH1 0x0 PUSH1 0x1 PUSH1 0x0 DUP5 DUP2 MSTORE PUSH1 0x20 ADD SWAP1 DUP2 MSTORE PUSH1 0x20 ADD PUSH1 0x0 KECCAK256 PUSH1 0x0 SWAP1 SLOAD SWAP1 PUSH2 0x100 EXP SWAP1 DIV PUSH20 0xFFFFFFFFFFFFFFFFFFFFFFFFFFFFFFFFFFFFFFFF AND SWAP1 POP PUSH2 0x209E PUSH8 0x8BB907B99D886CBA PUSH1 0xC0 SHL PUSH2 0x36A2 JUMP JUMPDEST PUSH2 0x20B2 PUSH8 0x471356FC1C5F3DDA PUSH1 0xC0 SHL PUSH2 0x36A2 JUMP JUMPDEST PUSH2 0x20C6 PUSH8 0x3BAEFF1AD06A43D2 PUSH1 0xC0 SHL PUSH2 0x36A2 JUMP JUMPDEST PUSH1 0x0 PUSH20 0xFFFFFFFFFFFFFFFFFFFFFFFFFFFFFFFFFFFFFFFF AND DUP2 PUSH20 0xFFFFFFFFFFFFFFFFFFFFFFFFFFFFFFFFFFFFFFFF AND EQ ISZERO PUSH2 0x2100 JUMPI PUSH1 0x0 DUP1 REVERT JUMPDEST PUSH2 0x2114 PUSH8 0x300D8C537EEB4776 PUSH1 0xC0 SHL PUSH2 0x36A2 JUMP JUMPDEST PUSH2 0x2128 PUSH8 0x95D32E2B1EA18619 PUSH1 0xC0 SHL PUSH2 0x36A2 JUMP JUMPDEST PUSH2 0x213C PUSH8 0x73E45876734D54C6 PUSH1 0xC0 SHL PUSH2 0x36A2 JUMP JUMPDEST DUP1 SWAP2 POP POP SWAP2 SWAP1 POP JUMP JUMPDEST PUSH1 0x0 PUSH2 0x215B PUSH8 0xF46108445D27022F PUSH1 0xC0 SHL PUSH2 0x354C JUMP JUMPDEST PUSH2 0x216F PUSH8 0x4EE9C8BF44CCC52C PUSH1 0xC0 SHL PUSH2 0x354C JUMP JUMPDEST PUSH2 0x2183 PUSH8 0x9B429ADA603FF666 PUSH1 0xC0 SHL PUSH2 0x354C JUMP JUMPDEST PUSH1 0x0 PUSH1 0xD DUP4 PUSH1 0x40 MLOAD DUP1 DUP3 DUP1 MLOAD SWAP1 PUSH1 0x20 ADD SWAP1 DUP1 DUP4 DUP4 JUMPDEST PUSH1 0x20 DUP4 LT PUSH2 0x21BB JUMPI DUP1 MLOAD DUP3 MSTORE PUSH1 0x20 DUP3 ADD SWAP2 POP PUSH1 0x20 DUP2 ADD SWAP1 POP PUSH1 0x20 DUP4 SUB SWAP3 POP PUSH2 0x2198 JUMP JUMPDEST PUSH1 0x1 DUP4 PUSH1 0x20 SUB PUSH2 0x100 EXP SUB DUP1 NOT DUP3 MLOAD AND DUP2 DUP5 MLOAD AND DUP1 DUP3 OR DUP6 MSTORE POP POP POP POP POP POP SWAP1 POP ADD SWAP2 POP POP SWAP1 DUP2 MSTORE PUSH1 0x20 ADD PUSH1 0x40 MLOAD DUP1 SWAP2 SUB SWAP1 KECCAK256 SLOAD SWAP1 POP PUSH2 0x2205 PUSH8 0xC8701D9D5D39F54F PUSH1 0xC0 SHL PUSH2 0x354C JUMP JUMPDEST PUSH2 0x2219 PUSH8 0x16248239675BB034 PUSH1 0xC0 SHL PUSH2 0x354C JUMP JUMPDEST PUSH2 0x2222 DUP2 PUSH2 0x2014 JUMP JUMPDEST POP PUSH2 0x2237 PUSH8 0x7985BCFF598E26FD PUSH1 0xC0 SHL PUSH2 0x354C JUMP JUMPDEST PUSH2 0x224B PUSH8 0xE60A18A9CD89699D PUSH1 0xC0 SHL PUSH2 0x354C JUMP JUMPDEST DUP1 SWAP2 POP POP SWAP2 SWAP1 POP JUMP JUMPDEST PUSH1 0x0 PUSH2 0x226A PUSH8 0x39A06635F92A1968 PUSH1 0xC0 SHL PUSH2 0x36A2 JUMP JUMPDEST PUSH2 0x227E PUSH8 0x8407D21D3B46F141 PUSH1 0xC0 SHL PUSH2 0x36A2 JUMP JUMPDEST PUSH2 0x2292 PUSH8 0x328DC057EC0EC483 PUSH1 0xC0 SHL PUSH2 0x36A2 JUMP JUMPDEST PUSH1 0x3 PUSH1 0x0 DUP4 PUSH20 0xFFFFFFFFFFFFFFFFFFFFFFFFFFFFFFFFFFFFFFFF AND PUSH20 0xFFFFFFFFFFFFFFFFFFFFFFFFFFFFFFFFFFFFFFFF AND DUP2 MSTORE PUSH1 0x20 ADD SWAP1 DUP2 MSTORE PUSH1 0x20 ADD PUSH1 0x0 KECCAK256 DUP1 SLOAD SWAP1 POP SWAP1 POP SWAP2 SWAP1 POP JUMP JUMPDEST PUSH1 0x5 PUSH1 0x0 SWAP1 SLOAD SWAP1 PUSH2 0x100 EXP SWAP1 DIV PUSH20 0xFFFFFFFFFFFFFFFFFFFFFFFFFFFFFFFFFFFFFFFF AND DUP2 JUMP JUMPDEST PUSH1 0x60 PUSH2 0x2318 PUSH8 0x7D53EB19F9950F3F PUSH1 0xC0 SHL PUSH2 0x354C JUMP JUMPDEST PUSH2 0x232C PUSH8 0x62446A657618C94 PUSH1 0xC0 SHL PUSH2 0x354C JUMP JUMPDEST PUSH2 0x2340 PUSH8 0x2D06F945D83B1C6 PUSH1 0xC0 SHL PUSH2 0x354C JUMP JUMPDEST PUSH1 0x40 MLOAD DUP1 PUSH1 0x40 ADD PUSH1 0x40 MSTORE DUP1 PUSH1 0x4 DUP2 MSTORE PUSH1 0x20 ADD PUSH32 0x5355505200000000000000000000000000000000000000000000000000000000 DUP2 MSTORE POP SWAP1 POP SWAP1 JUMP JUMPDEST PUSH2 0x238F PUSH8 0x2EF7FCDD7530B57A PUSH1 0xC0 SHL PUSH2 0x354C JUMP JUMPDEST PUSH2 0x23A3 PUSH8 0x44EC013CC2E579F PUSH1 0xC0 SHL PUSH2 0x354C JUMP JUMPDEST PUSH2 0x23B7 PUSH8 0x3A39B1D6E36BDCBB PUSH1 0xC0 SHL PUSH2 0x354C JUMP JUMPDEST PUSH1 0x0 PUSH1 0x8 PUSH1 0x0 DUP4 DUP2 MSTORE PUSH1 0x20 ADD SWAP1 DUP2 MSTORE PUSH1 0x20 ADD PUSH1 0x0 KECCAK256 PUSH1 0x0 SWAP1 SLOAD SWAP1 PUSH2 0x100 EXP SWAP1 DIV PUSH20 0xFFFFFFFFFFFFFFFFFFFFFFFFFFFFFFFFFFFFFFFF AND SWAP1 POP PUSH2 0x2403 PUSH8 0xB37D8E925FD8B893 PUSH1 0xC0 SHL PUSH2 0x354C JUMP JUMPDEST PUSH2 0x2417 PUSH8 0x918F92647E8C4449 PUSH1 0xC0 SHL PUSH2 0x354C JUMP JUMPDEST PUSH2 0x242B PUSH8 0x159DB703162FC0A5 PUSH1 0xC0 SHL PUSH2 0x354C JUMP JUMPDEST DUP1 PUSH20 0xFFFFFFFFFFFFFFFFFFFFFFFFFFFFFFFFFFFFFFFF AND CALLER PUSH20 0xFFFFFFFFFFFFFFFFFFFFFFFFFFFFFFFFFFFFFFFF AND EQ PUSH2 0x2463 JUMPI PUSH1 0x0 DUP1 REVERT JUMPDEST PUSH2 0x2477 PUSH8 0xC772377B0B7FB10 PUSH1 0xC0 SHL PUSH2 0x354C JUMP JUMPDEST PUSH2 0x248B PUSH8 0xF201E0E1E8E2DF0 PUSH1 0xC0 SHL PUSH2 0x354C JUMP JUMPDEST PUSH2 0x249F PUSH8 0xFA931EFB8362F6F PUSH1 0xC0 SHL PUSH2 0x354C JUMP JUMPDEST PUSH1 0x0 PUSH1 0x9 PUSH1 0x0 DUP5 DUP2 MSTORE PUSH1 0x20 ADD SWAP1 DUP2 MSTORE PUSH1 0x20 ADD PUSH1 0x0 KECCAK256 SLOAD SWAP1 POP PUSH2 0x24CB PUSH8 0xAE769608A4292491 PUSH1 0xC0 SHL PUSH2 0x354C JUMP JUMPDEST PUSH2 0x24DF PUSH8 0xF5A9756054E5599C PUSH1 0xC0 SHL PUSH2 0x354C JUMP JUMPDEST CALLER PUSH20 0xFFFFFFFFFFFFFFFFFFFFFFFFFFFFFFFFFFFFFFFF AND PUSH2 0x8FC DUP3 SWAP1 DUP2 ISZERO MUL SWAP1 PUSH1 0x40 MLOAD PUSH1 0x0 PUSH1 0x40 MLOAD DUP1 DUP4 SUB DUP2 DUP6 DUP9 DUP9 CALL SWAP4 POP POP POP POP ISZERO DUP1 ISZERO PUSH2 0x2525 JUMPI RETURNDATASIZE PUSH1 0x0 DUP1 RETURNDATACOPY RETURNDATASIZE PUSH1 0x0 REVERT JUMPDEST POP PUSH2 0x253A PUSH8 0x4367B12F42FB09F0 PUSH1 0xC0 SHL PUSH2 0x354C JUMP JUMPDEST PUSH2 0x254E PUSH8 0xCBC8645BF0F18A70 PUSH1 0xC0 SHL PUSH2 0x354C JUMP JUMPDEST PUSH2 0x2557 DUP4 PUSH2 0x3D31 JUMP JUMPDEST PUSH2 0x256B PUSH8 0xBC85F5AFEBE610A3 PUSH1 0xC0 SHL PUSH2 0x354C JUMP JUMPDEST PUSH2 0x257F PUSH8 0x515B07F705BDB23C PUSH1 0xC0 SHL PUSH2 0x354C JUMP JUMPDEST DUP3 DUP2 DUP4 PUSH20 0xFFFFFFFFFFFFFFFFFFFFFFFFFFFFFFFFFFFFFFFF AND PUSH32 0x9DCEBE16A733E22CC47E4959C50D4F21624D9F1815DB32C2E439FBBD7B3EDA0 PUSH1 0x40 MLOAD PUSH1 0x40 MLOAD DUP1 SWAP2 SUB SWAP1 LOG4 POP POP POP JUMP JUMPDEST PUSH1 0x0 PUSH2 0x25DF PUSH8 0xFFDB0188C585784B PUSH1 0xC0 SHL PUSH2 0x354C JUMP JUMPDEST PUSH2 0x25F3 PUSH8 0x693EB289C1F53F8 PUSH1 0xC0 SHL PUSH2 0x354C JUMP JUMPDEST PUSH2 0x2607 PUSH8 0x62163426246F2EB1 PUSH1 0xC0 SHL PUSH2 0x354C JUMP JUMPDEST PUSH1 0xA PUSH1 0x0 DUP4 DUP2 MSTORE PUSH1 0x20 ADD SWAP1 DUP2 MSTORE PUSH1 0x20 ADD PUSH1 0x0 KECCAK256 SLOAD SWAP1 POP SWAP2 SWAP1 POP JUMP JUMPDEST PUSH2 0x2636 PUSH8 0xFCE4CCD34EAD9B6 PUSH1 0xC0 SHL PUSH2 0x354C JUMP JUMPDEST DUP1 PUSH2 0x264B PUSH8 0x6C884815578D2D75 PUSH1 0xC0 SHL PUSH2 0x36A2 JUMP JUMPDEST PUSH2 0x265F PUSH8 0x67262F146B02BB6D PUSH1 0xC0 SHL PUSH2 0x36A2 JUMP JUMPDEST PUSH2 0x2673 PUSH8 0x1AD731CEE4CD0B38 PUSH1 0xC0 SHL PUSH2 0x36A2 JUMP JUMPDEST PUSH2 0x2687 PUSH8 0x2958298FA5BCFD2F PUSH1 0xC0 SHL PUSH2 0x36A2 JUMP JUMPDEST CALLER PUSH20 0xFFFFFFFFFFFFFFFFFFFFFFFFFFFFFFFFFFFFFFFF AND PUSH2 0x26A7 DUP3 PUSH2 0x2014 JUMP JUMPDEST PUSH20 0xFFFFFFFFFFFFFFFFFFFFFFFFFFFFFFFFFFFFFFFF AND EQ PUSH2 0x26C7 JUMPI PUSH1 0x0 DUP1 REVERT JUMPDEST PUSH2 0x26DB PUSH8 0x65593B5E4D84E5FD PUSH1 0xC0 SHL PUSH2 0x36A2 JUMP JUMPDEST PUSH2 0x26EF PUSH8 0xE79247BCA88E9609 PUSH1 0xC0 SHL PUSH2 0x36A2 JUMP JUMPDEST PUSH2 0x2703 PUSH8 0x4317EC2D8F387A2A PUSH1 0xC0 SHL PUSH2 0x354C JUMP JUMPDEST PUSH2 0x2717 PUSH8 0xDCEED99A21D7BD88 PUSH1 0xC0 SHL PUSH2 0x354C JUMP JUMPDEST PUSH2 0x272B PUSH8 0x8BB60ECE0AC9FDDC PUSH1 0xC0 SHL PUSH2 0x354C JUMP JUMPDEST PUSH1 0x1 PUSH1 0xE PUSH1 0x0 DUP5 DUP2 MSTORE PUSH1 0x20 ADD SWAP1 DUP2 MSTORE PUSH1 0x20 ADD PUSH1 0x0 KECCAK256 PUSH1 0x0 PUSH2 0x100 EXP DUP2 SLOAD DUP2 PUSH1 0xFF MUL NOT AND SWAP1 DUP4 ISZERO ISZERO MUL OR SWAP1 SSTORE POP PUSH2 0x276B PUSH8 0x6BE01A2F7218712F PUSH1 0xC0 SHL PUSH2 0x354C JUMP JUMPDEST PUSH1 0x0 PUSH1 0xA PUSH1 0x0 DUP5 DUP2 MSTORE PUSH1 0x20 ADD SWAP1 DUP2 MSTORE PUSH1 0x20 ADD PUSH1 0x0 KECCAK256 DUP2 SWAP1 SSTORE POP PUSH2 0x2798 PUSH8 0x7633909679B5F3E4 PUSH1 0xC0 SHL PUSH2 0x354C JUMP JUMPDEST PUSH2 0x27AC PUSH8 0xA3860566E9E1A176 PUSH1 0xC0 SHL PUSH2 0x354C JUMP JUMPDEST PUSH2 0x27B7 CALLER DUP5 DUP5 PUSH2 0x36A5 JUMP JUMPDEST POP POP POP JUMP JUMPDEST PUSH2 0x27D0 PUSH8 0x673E4EB0DD88B300 PUSH1 0xC0 SHL PUSH2 0x36A2 JUMP JUMPDEST PUSH2 0x27E4 PUSH8 0x1CF35F794FA86A38 PUSH1 0xC0 SHL PUSH2 0x36A2 JUMP JUMPDEST PUSH2 0x27F8 PUSH8 0x659F801426C72E1E PUSH1 0xC0 SHL PUSH2 0x36A2 JUMP JUMPDEST PUSH2 0x280C PUSH8 0x3D1BD0FE92D9DE5A PUSH1 0xC0 SHL PUSH2 0x36A2 JUMP JUMPDEST PUSH2 0x2816 CALLER DUP3 PUSH2 0x3FEC JUMP JUMPDEST PUSH2 0x281F JUMPI PUSH1 0x0 DUP1 REVERT JUMPDEST PUSH2 0x2833 PUSH8 0x4C3132690DFE9E26 PUSH1 0xC0 SHL PUSH2 0x36A2 JUMP JUMPDEST PUSH2 0x2847 PUSH8 0x63DC9F4F6CCFE105 PUSH1 0xC0 SHL PUSH2 0x36A2 JUMP JUMPDEST PUSH2 0x285B PUSH8 0xB6DEABAD23DAD809 PUSH1 0xC0 SHL PUSH2 0x36A2 JUMP JUMPDEST PUSH2 0x286E PUSH2 0x2867 DUP3 PUSH2 0x2014 JUMP JUMPDEST CALLER DUP4 PUSH2 0x36A5 JUMP JUMPDEST POP JUMP JUMPDEST PUSH2 0x2885 PUSH8 0x602214A9ED6D5F82 PUSH1 0xC0 SHL PUSH2 0x354C JUMP JUMPDEST PUSH2 0x2899 PUSH8 0x81858479FB9E847B PUSH1 0xC0 SHL PUSH2 0x3FE9 JUMP JUMPDEST PUSH2 0x28AD PUSH8 0xDE0916D058840190 PUSH1 0xC0 SHL PUSH2 0x3FE9 JUMP JUMPDEST PUSH2 0x28C1 PUSH8 0x36055DE3F7B7200C PUSH1 0xC0 SHL PUSH2 0x3FE9 JUMP JUMPDEST PUSH2 0x28D5 PUSH8 0x2B1A2D677D471644 PUSH1 0xC0 SHL PUSH2 0x3FE9 JUMP JUMPDEST PUSH1 0x5 PUSH1 0x0 SWAP1 SLOAD SWAP1 PUSH2 0x100 EXP SWAP1 DIV PUSH20 0xFFFFFFFFFFFFFFFFFFFFFFFFFFFFFFFFFFFFFFFF AND PUSH20 0xFFFFFFFFFFFFFFFFFFFFFFFFFFFFFFFFFFFFFFFF AND CALLER PUSH20 0xFFFFFFFFFFFFFFFFFFFFFFFFFFFFFFFFFFFFFFFF AND EQ PUSH2 0x292F JUMPI PUSH1 0x0 DUP1 REVERT JUMPDEST PUSH2 0x2943 PUSH8 0x6C74EE3D862A01A5 PUSH1 0xC0 SHL PUSH2 0x3FE9 JUMP JUMPDEST PUSH2 0x2957 PUSH8 0x2163F90381EEA1B5 PUSH1 0xC0 SHL PUSH2 0x3FE9 JUMP JUMPDEST PUSH2 0x296B PUSH8 0x808DE0326D2B64CC PUSH1 0xC0 SHL PUSH2 0x354C JUMP JUMPDEST PUSH2 0x297F PUSH8 0x54949ADE959F9E19 PUSH1 0xC0 SHL PUSH2 0x354C JUMP JUMPDEST PUSH2 0x2993 PUSH8 0x32ED5F54C31E5000 PUSH1 0xC0 SHL PUSH2 0x354C JUMP JUMPDEST DUP1 PUSH1 0x7 DUP2 SWAP1 SSTORE POP POP JUMP JUMPDEST PUSH1 0x60 PUSH2 0x29B3 PUSH8 0xDDA03A02FE89800C PUSH1 0xC0 SHL PUSH2 0x354C JUMP JUMPDEST PUSH2 0x29C6 PUSH7 0x374D0B1E1AA6E9 PUSH1 0xC0 SHL PUSH2 0x354C JUMP JUMPDEST PUSH2 0x29DA PUSH8 0xC956CF95D3B3038F PUSH1 0xC0 SHL PUSH2 0x354C JUMP JUMPDEST PUSH2 0x29E3 DUP3 PUSH2 0x2014 JUMP JUMPDEST POP PUSH2 0x29F8 PUSH8 0x118A66770BA65148 PUSH1 0xC0 SHL PUSH2 0x354C JUMP JUMPDEST PUSH2 0x2A0C PUSH8 0x47F4B8E78AC1C116 PUSH1 0xC0 SHL PUSH2 0x354C JUMP JUMPDEST PUSH1 0xC PUSH1 0x0 DUP4 DUP2 MSTORE PUSH1 0x20 ADD SWAP1 DUP2 MSTORE PUSH1 0x20 ADD PUSH1 0x0 KECCAK256 DUP1 SLOAD PUSH1 0x1 DUP2 PUSH1 0x1 AND ISZERO PUSH2 0x100 MUL SUB AND PUSH1 0x2 SWAP1 DIV DUP1 PUSH1 0x1F ADD PUSH1 0x20 DUP1 SWAP2 DIV MUL PUSH1 0x20 ADD PUSH1 0x40 MLOAD SWAP1 DUP2 ADD PUSH1 0x40 MSTORE DUP1 SWAP3 SWAP2 SWAP1 DUP2 DUP2 MSTORE PUSH1 0x20 ADD DUP3 DUP1 SLOAD PUSH1 0x1 DUP2 PUSH1 0x1 AND ISZERO PUSH2 0x100 MUL SUB AND PUSH1 0x2 SWAP1 DIV DUP1 ISZERO PUSH2 0x2AB3 JUMPI DUP1 PUSH1 0x1F LT PUSH2 0x2A88 JUMPI PUSH2 0x100 DUP1 DUP4 SLOAD DIV MUL DUP4 MSTORE SWAP2 PUSH1 0x20 ADD SWAP2 PUSH2 0x2AB3 JUMP JUMPDEST DUP3 ADD SWAP2 SWAP1 PUSH1 0x0 MSTORE PUSH1 0x20 PUSH1 0x0 KECCAK256 SWAP1 JUMPDEST DUP2 SLOAD DUP2 MSTORE SWAP1 PUSH1 0x1 ADD SWAP1 PUSH1 0x20 ADD DUP1 DUP4 GT PUSH2 0x2A96 JUMPI DUP3 SWAP1 SUB PUSH1 0x1F AND DUP3 ADD SWAP2 JUMPDEST POP POP POP POP POP SWAP1 POP SWAP2 SWAP1 POP JUMP JUMPDEST PUSH1 0x0 PUSH2 0x2AD5 PUSH8 0xE9C31F12F27B82F7 PUSH1 0xC0 SHL PUSH2 0x354C JUMP JUMPDEST PUSH2 0x2AE9 PUSH8 0x3FDC82D7E3D62769 PUSH1 0xC0 SHL PUSH2 0x354C JUMP JUMPDEST PUSH2 0x2AFD PUSH8 0x908D5F8A33D54270 PUSH1 0xC0 SHL PUSH2 0x354C JUMP JUMPDEST PUSH1 0xB PUSH1 0x0 DUP4 DUP2 MSTORE PUSH1 0x20 ADD SWAP1 DUP2 MSTORE PUSH1 0x20 ADD PUSH1 0x0 KECCAK256 PUSH1 0x0 SWAP1 SLOAD SWAP1 PUSH2 0x100 EXP SWAP1 DIV PUSH20 0xFFFFFFFFFFFFFFFFFFFFFFFFFFFFFFFFFFFFFFFF AND SWAP1 POP SWAP2 SWAP1 POP JUMP JUMPDEST PUSH2 0x2B4C PUSH8 0x41858FF130F7B465 PUSH1 0xC0 SHL PUSH2 0x354C JUMP JUMPDEST DUP1 PUSH2 0x2B61 PUSH8 0x4ED5678A9B773C4D PUSH1 0xC0 SHL PUSH2 0x354C JUMP JUMPDEST PUSH2 0x2B75 PUSH8 0x6C483246D1179B25 PUSH1 0xC0 SHL PUSH2 0x354C JUMP JUMPDEST PUSH2 0x2B89 PUSH8 0x871B1C71CFC70571 PUSH1 0xC0 SHL PUSH2 0x354C JUMP JUMPDEST PUSH2 0x2B9D PUSH8 0xFCC864498E0E3F6B PUSH1 0xC0 SHL PUSH2 0x354C JUMP JUMPDEST CALLER PUSH20 0xFFFFFFFFFFFFFFFFFFFFFFFFFFFFFFFFFFFFFFFF AND PUSH2 0x2BBD DUP3 PUSH2 0x2014 JUMP JUMPDEST PUSH20 0xFFFFFFFFFFFFFFFFFFFFFFFFFFFFFFFFFFFFFFFF AND EQ ISZERO PUSH2 0x2BDE JUMPI PUSH1 0x0 DUP1 REVERT JUMPDEST PUSH2 0x2BF2 PUSH8 0xCECAAEE574E2A45C PUSH1 0xC0 SHL PUSH2 0x354C JUMP JUMPDEST PUSH2 0x2C06 PUSH8 0x8D2D8AC0753F4C21 PUSH1 0xC0 SHL PUSH2 0x354C JUMP JUMPDEST PUSH2 0x2C1A PUSH8 0xF46F9ECE72B2E45C PUSH1 0xC0 SHL PUSH2 0x354C JUMP JUMPDEST PUSH2 0x2C2E PUSH8 0x882A52234E31170 PUSH1 0xC0 SHL PUSH2 0x354C JUMP JUMPDEST PUSH2 0x2C42 PUSH8 0x11C4F01840F837C4 PUSH1 0xC0 SHL PUSH2 0x354C JUMP JUMPDEST PUSH2 0x2C56 PUSH8 0x49F753113C91C650 PUSH1 0xC0 SHL PUSH2 0x354C JUMP JUMPDEST PUSH1 0x0 PUSH1 0xA PUSH1 0x0 DUP5 DUP2 MSTORE PUSH1 0x20 ADD SWAP1 DUP2 MSTORE PUSH1 0x20 ADD PUSH1 0x0 KECCAK256 SLOAD SWAP1 POP PUSH2 0x2C82 PUSH8 0x994DDF7F7E191714 PUSH1 0xC0 SHL PUSH2 0x354C JUMP JUMPDEST PUSH2 0x2C96 PUSH8 0xF196DCE4018311F0 PUSH1 0xC0 SHL PUSH2 0x354C JUMP JUMPDEST PUSH1 0x0 CALLVALUE SWAP1 POP PUSH2 0x2CAF PUSH8 0xEBF1999DBB3A1FE7 PUSH1 0xC0 SHL PUSH2 0x354C JUMP JUMPDEST PUSH2 0x2CC3 PUSH8 0x9C13C615953249E7 PUSH1 0xC0 SHL PUSH2 0x354C JUMP JUMPDEST PUSH1 0x0 CALLER SWAP1 POP PUSH2 0x2CDC PUSH8 0x2273486036CAEF04 PUSH1 0xC0 SHL PUSH2 0x354C JUMP JUMPDEST PUSH2 0x2CF0 PUSH8 0xFF0B6FF1C2788847 PUSH1 0xC0 SHL PUSH2 0x354C JUMP JUMPDEST PUSH1 0x0 PUSH2 0x2CFB DUP7 PUSH2 0x2014 JUMP JUMPDEST SWAP1 POP PUSH2 0x2D11 PUSH8 0xEFC18BE496697E92 PUSH1 0xC0 SHL PUSH2 0x354C JUMP JUMPDEST PUSH2 0x2D25 PUSH8 0x698FC92C4AC13BA0 PUSH1 0xC0 SHL PUSH2 0x354C JUMP JUMPDEST PUSH1 0x0 PUSH1 0xB PUSH1 0x0 DUP9 DUP2 MSTORE PUSH1 0x20 ADD SWAP1 DUP2 MSTORE PUSH1 0x20 ADD PUSH1 0x0 KECCAK256 PUSH1 0x0 SWAP1 SLOAD SWAP1 PUSH2 0x100 EXP SWAP1 DIV PUSH20 0xFFFFFFFFFFFFFFFFFFFFFFFFFFFFFFFFFFFFFFFF AND SWAP1 POP PUSH2 0x2D71 PUSH8 0xCAACFBDA7B2E2C81 PUSH1 0xC0 SHL PUSH2 0x354C JUMP JUMPDEST PUSH2 0x2D85 PUSH8 0xAB397125CFAD04BB PUSH1 0xC0 SHL PUSH2 0x354C JUMP JUMPDEST PUSH2 0x2D99 PUSH8 0xE3AD307693122A05 PUSH1 0xC0 SHL PUSH2 0x354C JUMP JUMPDEST PUSH1 0x0 DUP6 GT PUSH2 0x2DA6 JUMPI PUSH1 0x0 DUP1 REVERT JUMPDEST PUSH2 0x2DBA PUSH8 0x57C4F682F282CC39 PUSH1 0xC0 SHL PUSH2 0x354C JUMP JUMPDEST PUSH2 0x2DCE PUSH8 0x3EC8CE5FE41D28B8 PUSH1 0xC0 SHL PUSH2 0x354C JUMP JUMPDEST PUSH2 0x2DE2 PUSH8 0x6F0E29ADCAD4F3D1 PUSH1 0xC0 SHL PUSH2 0x354C JUMP JUMPDEST PUSH2 0x2DF6 PUSH8 0x3B7D5AE90F3DEA1F PUSH1 0xC0 SHL PUSH2 0x354C JUMP JUMPDEST DUP5 DUP5 LT ISZERO PUSH2 0x2E03 JUMPI PUSH1 0x0 DUP1 REVERT JUMPDEST PUSH2 0x2E17 PUSH8 0x3E5388C1A3F18FA8 PUSH1 0xC0 SHL PUSH2 0x354C JUMP JUMPDEST PUSH2 0x2E2B PUSH8 0x8664AE9E895F9ADC PUSH1 0xC0 SHL PUSH2 0x354C JUMP JUMPDEST PUSH2 0x2E3F PUSH8 0x3E5F7ABDA3F78F63 PUSH1 0xC0 SHL PUSH2 0x354C JUMP JUMPDEST PUSH2 0x2E48 DUP8 PUSH2 0x3E37 JUMP JUMPDEST PUSH2 0x2E5C PUSH8 0xB536AC3F75BC81FB PUSH1 0xC0 SHL PUSH2 0x354C JUMP JUMPDEST PUSH2 0x2E70 PUSH8 0xC3C285D3FBC32472 PUSH1 0xC0 SHL PUSH2 0x354C JUMP JUMPDEST PUSH2 0x2E79 DUP8 PUSH2 0x3D31 JUMP JUMPDEST PUSH2 0x2E8D PUSH8 0x6ED2CD3279A9F118 PUSH1 0xC0 SHL PUSH2 0x354C JUMP JUMPDEST PUSH2 0x2EA1 PUSH8 0x1FD4F543D62249A3 PUSH1 0xC0 SHL PUSH2 0x354C JUMP JUMPDEST PUSH2 0x2EAC DUP3 DUP5 DUP10 PUSH2 0x36A5 JUMP JUMPDEST PUSH2 0x2EC0 PUSH8 0x6F35050340BEB87D PUSH1 0xC0 SHL PUSH2 0x354C JUMP JUMPDEST PUSH2 0x2ED4 PUSH8 0x953CF8ECE7749C21 PUSH1 0xC0 SHL PUSH2 0x354C JUMP JUMPDEST PUSH2 0x2F03 DUP5 PUSH1 0x5 PUSH1 0x0 SWAP1 SLOAD SWAP1 PUSH2 0x100 EXP SWAP1 DIV PUSH20 0xFFFFFFFFFFFFFFFFFFFFFFFFFFFFFFFFFFFFFFFF AND DUP4 DUP6 DUP12 PUSH2 0x398C JUMP JUMPDEST PUSH2 0x2F17 PUSH8 0x61788C4DC3B2B077 PUSH1 0xC0 SHL PUSH2 0x354C JUMP JUMPDEST PUSH1 0x0 PUSH1 0xA PUSH1 0x0 DUP10 DUP2 MSTORE PUSH1 0x20 ADD SWAP1 DUP2 MSTORE PUSH1 0x20 ADD PUSH1 0x0 KECCAK256 DUP2 SWAP1 SSTORE POP PUSH2 0x2F44 PUSH8 0xDFDBC94369E745BB PUSH1 0xC0 SHL PUSH2 0x354C JUMP JUMPDEST PUSH2 0x2F58 PUSH8 0xF694800F78CFC462 PUSH1 0xC0 SHL PUSH2 0x354C JUMP JUMPDEST DUP7 DUP3 PUSH20 0xFFFFFFFFFFFFFFFFFFFFFFFFFFFFFFFFFFFFFFFF AND DUP5 PUSH20 0xFFFFFFFFFFFFFFFFFFFFFFFFFFFFFFFFFFFFFFFF AND PUSH32 0x16DD16959A056953A63CF14BF427881E762E54F03D86B864EFEA8238DD3B822F DUP8 PUSH1 0x40 MLOAD DUP1 DUP3 DUP2 MSTORE PUSH1 0x20 ADD SWAP2 POP POP PUSH1 0x40 MLOAD DUP1 SWAP2 SUB SWAP1 LOG4 POP POP POP POP POP POP POP JUMP JUMPDEST PUSH2 0x2FDB PUSH8 0xCB76E1DF560F1DB0 PUSH1 0xC0 SHL PUSH2 0x354C JUMP JUMPDEST DUP1 PUSH2 0x2FF0 PUSH8 0xAC7BEC09E3F7765F PUSH1 0xC0 SHL PUSH2 0x354C JUMP JUMPDEST PUSH2 0x3004 PUSH8 0xCE5D45A5F125BAD3 PUSH1 0xC0 SHL PUSH2 0x354C JUMP JUMPDEST PUSH2 0x3018 PUSH8 0x6500A21A9E17332B PUSH1 0xC0 SHL PUSH2 0x354C JUMP JUMPDEST PUSH2 0x302C PUSH8 0x4678F8E0BCCEC0E7 PUSH1 0xC0 SHL PUSH2 0x354C JUMP JUMPDEST PUSH1 0x0 PUSH1 0xD DUP3 PUSH1 0x40 MLOAD DUP1 DUP3 DUP1 MLOAD SWAP1 PUSH1 0x20 ADD SWAP1 DUP1 DUP4 DUP4 JUMPDEST PUSH1 0x20 DUP4 LT PUSH2 0x3064 JUMPI DUP1 MLOAD DUP3 MSTORE PUSH1 0x20 DUP3 ADD SWAP2 POP PUSH1 0x20 DUP2 ADD SWAP1 POP PUSH1 0x20 DUP4 SUB SWAP3 POP PUSH2 0x3041 JUMP JUMPDEST PUSH1 0x1 DUP4 PUSH1 0x20 SUB PUSH2 0x100 EXP SUB DUP1 NOT DUP3 MLOAD AND DUP2 DUP5 MLOAD AND DUP1 DUP3 OR DUP6 MSTORE POP POP POP POP POP POP SWAP1 POP ADD SWAP2 POP POP SWAP1 DUP2 MSTORE PUSH1 0x20 ADD PUSH1 0x40 MLOAD DUP1 SWAP2 SUB SWAP1 KECCAK256 SLOAD EQ PUSH2 0x30A2 JUMPI PUSH1 0x0 DUP1 REVERT JUMPDEST PUSH2 0x30B6 PUSH8 0x6AAF034654A9B214 PUSH1 0xC0 SHL PUSH2 0x354C JUMP JUMPDEST PUSH2 0x30CA PUSH8 0x3442D4862B980FFA PUSH1 0xC0 SHL PUSH2 0x354C JUMP JUMPDEST PUSH2 0x30DE PUSH8 0xA1AC6CDE4FED63CD PUSH1 0xC0 SHL PUSH2 0x354C JUMP JUMPDEST PUSH2 0x30F2 PUSH8 0x1FF7DD85B279FDED PUSH1 0xC0 SHL PUSH2 0x354C JUMP JUMPDEST PUSH2 0x3106 PUSH8 0x90341A4515026F6F PUSH1 0xC0 SHL PUSH2 0x354C JUMP JUMPDEST PUSH2 0x311A PUSH8 0x8EB4B24ABF9CC3C7 PUSH1 0xC0 SHL PUSH2 0x354C JUMP JUMPDEST PUSH2 0x312E PUSH8 0x8AF06F1B8E2213A5 PUSH1 0xC0 SHL PUSH2 0x354C JUMP JUMPDEST PUSH2 0x3142 PUSH8 0x7B0BA68BCDBA4003 PUSH1 0xC0 SHL PUSH2 0x354C JUMP JUMPDEST PUSH1 0x1 ISZERO ISZERO PUSH1 0xF PUSH1 0x0 CALLER PUSH20 0xFFFFFFFFFFFFFFFFFFFFFFFFFFFFFFFFFFFFFFFF AND PUSH20 0xFFFFFFFFFFFFFFFFFFFFFFFFFFFFFFFFFFFFFFFF AND DUP2 MSTORE PUSH1 0x20 ADD SWAP1 DUP2 MSTORE PUSH1 0x20 ADD PUSH1 0x0 KECCAK256 PUSH1 0x0 SWAP1 SLOAD SWAP1 PUSH2 0x100 EXP SWAP1 DIV PUSH1 0xFF AND ISZERO ISZERO EQ PUSH2 0x319F JUMPI PUSH1 0x0 DUP1 REVERT JUMPDEST PUSH2 0x31B3 PUSH8 0x64DF1B59BC843701 PUSH1 0xC0 SHL PUSH2 0x354C JUMP JUMPDEST PUSH2 0x31C7 PUSH8 0x9DF15489AD6CB3F0 PUSH1 0xC0 SHL PUSH2 0x354C JUMP JUMPDEST PUSH2 0x31DB PUSH8 0x5E46FCC66D4083C9 PUSH1 0xC0 SHL PUSH2 0x354C JUMP JUMPDEST PUSH2 0x31EF PUSH8 0x837E9C5097E3A60A PUSH1 0xC0 SHL PUSH2 0x354C JUMP JUMPDEST PUSH2 0x3203 PUSH8 0xBB495F7A7A0A9B38 PUSH1 0xC0 SHL PUSH2 0x354C JUMP JUMPDEST PUSH2 0x3217 PUSH8 0x75A13A4848408E63 PUSH1 0xC0 SHL PUSH2 0x354C JUMP JUMPDEST PUSH1 0x0 PUSH2 0x3223 DUP4 CALLER PUSH2 0x354F JUMP JUMPDEST SWAP1 POP PUSH2 0x3239 PUSH8 0x103B4EFE5294A71 PUSH1 0xC0 SHL PUSH2 0x354C JUMP JUMPDEST DUP1 PUSH1 0xD DUP5 PUSH1 0x40 MLOAD DUP1 DUP3 DUP1 MLOAD SWAP1 PUSH1 0x20 ADD SWAP1 DUP1 DUP4 DUP4 JUMPDEST PUSH1 0x20 DUP4 LT PUSH2 0x3270 JUMPI DUP1 MLOAD DUP3 MSTORE PUSH1 0x20 DUP3 ADD SWAP2 POP PUSH1 0x20 DUP2 ADD SWAP1 POP PUSH1 0x20 DUP4 SUB SWAP3 POP PUSH2 0x324D JUMP JUMPDEST PUSH1 0x1 DUP4 PUSH1 0x20 SUB PUSH2 0x100 EXP SUB DUP1 NOT DUP3 MLOAD AND DUP2 DUP5 MLOAD AND DUP1 DUP3 OR DUP6 MSTORE POP POP POP POP POP POP SWAP1 POP ADD SWAP2 POP POP SWAP1 DUP2 MSTORE PUSH1 0x20 ADD PUSH1 0x40 MLOAD DUP1 SWAP2 SUB SWAP1 KECCAK256 DUP2 SWAP1 SSTORE POP POP POP POP JUMP JUMPDEST PUSH1 0x7 SLOAD DUP2 JUMP JUMPDEST PUSH1 0x6 SLOAD DUP2 JUMP JUMPDEST PUSH2 0x32CC PUSH8 0x941AFC0E80FE1B5C PUSH1 0xC0 SHL PUSH2 0x3FE9 JUMP JUMPDEST PUSH2 0x32E0 PUSH8 0x81858479FB9E847B PUSH1 0xC0 SHL PUSH2 0x3FE9 JUMP JUMPDEST PUSH2 0x32F4 PUSH8 0xDE0916D058840190 PUSH1 0xC0 SHL PUSH2 0x3FE9 JUMP JUMPDEST PUSH2 0x3308 PUSH8 0x36055DE3F7B7200C PUSH1 0xC0 SHL PUSH2 0x3FE9 JUMP JUMPDEST PUSH2 0x331C PUSH8 0x2B1A2D677D471644 PUSH1 0xC0 SHL PUSH2 0x3FE9 JUMP JUMPDEST PUSH1 0x5 PUSH1 0x0 SWAP1 SLOAD SWAP1 PUSH2 0x100 EXP SWAP1 DIV PUSH20 0xFFFFFFFFFFFFFFFFFFFFFFFFFFFFFFFFFFFFFFFF AND PUSH20 0xFFFFFFFFFFFFFFFFFFFFFFFFFFFFFFFFFFFFFFFF AND CALLER PUSH20 0xFFFFFFFFFFFFFFFFFFFFFFFFFFFFFFFFFFFFFFFF AND EQ PUSH2 0x3376 JUMPI PUSH1 0x0 DUP1 REVERT JUMPDEST PUSH2 0x338A PUSH8 0x6C74EE3D862A01A5 PUSH1 0xC0 SHL PUSH2 0x3FE9 JUMP JUMPDEST PUSH2 0x339E PUSH8 0x2163F90381EEA1B5 PUSH1 0xC0 SHL PUSH2 0x3FE9 JUMP JUMPDEST PUSH2 0x33B2 PUSH8 0xA7E720436F4C1F21 PUSH1 0xC0 SHL PUSH2 0x3FE9 JUMP JUMPDEST PUSH2 0x33C6 PUSH8 0x7C0B4DC0DFD6192 PUSH1 0xC0 SHL PUSH2 0x3FE9 JUMP JUMPDEST PUSH2 0x33DA PUSH8 0x5582DC2BCFD34EB2 PUSH1 0xC0 SHL PUSH2 0x3FE9 JUMP JUMPDEST PUSH2 0x33EE PUSH8 0xC4D756E64F185852 PUSH1 0xC0 SHL PUSH2 0x3FE9 JUMP JUMPDEST PUSH2 0x3402 PUSH8 0xFB3CF0B0FDEE6408 PUSH1 0xC0 SHL PUSH2 0x3FE9 JUMP JUMPDEST PUSH1 0x0 PUSH20 0xFFFFFFFFFFFFFFFFFFFFFFFFFFFFFFFFFFFFFFFF AND DUP2 PUSH20 0xFFFFFFFFFFFFFFFFFFFFFFFFFFFFFFFFFFFFFFFF AND EQ ISZERO PUSH2 0x343C JUMPI PUSH1 0x0 DUP1 REVERT JUMPDEST PUSH2 0x3450 PUSH8 0xCA7EC9C87E35652E PUSH1 0xC0 SHL PUSH2 0x3FE9 JUMP JUMPDEST PUSH2 0x3464 PUSH8 0xB077F159B90A04B7 PUSH1 0xC0 SHL PUSH2 0x3FE9 JUMP JUMPDEST PUSH2 0x3478 PUSH8 0x962B92DFBC47E801 PUSH1 0xC0 SHL PUSH2 0x3FE9 JUMP JUMPDEST DUP1 PUSH20 0xFFFFFFFFFFFFFFFFFFFFFFFFFFFFFFFFFFFFFFFF AND PUSH1 0x5 PUSH1 0x0 SWAP1 SLOAD SWAP1 PUSH2 0x100 EXP SWAP1 DIV PUSH20 0xFFFFFFFFFFFFFFFFFFFFFFFFFFFFFFFFFFFFFFFF AND PUSH20 0xFFFFFFFFFFFFFFFFFFFFFFFFFFFFFFFFFFFFFFFF AND PUSH32 0x8BE0079C531659141344CD1FD0A4F28419497F9722A3DAAFE3B4186F6B6457E0 PUSH1 0x40 MLOAD PUSH1 0x40 MLOAD DUP1 SWAP2 SUB SWAP1 LOG3 PUSH2 0x3508 PUSH8 0xDDBEF81B05EBD5CF PUSH1 0xC0 SHL PUSH2 0x3FE9 JUMP JUMPDEST DUP1 PUSH1 0x5 PUSH1 0x0 PUSH2 0x100 EXP DUP2 SLOAD DUP2 PUSH20 0xFFFFFFFFFFFFFFFFFFFFFFFFFFFFFFFFFFFFFFFF MUL NOT AND SWAP1 DUP4 PUSH20 0xFFFFFFFFFFFFFFFFFFFFFFFFFFFFFFFFFFFFFFFF AND MUL OR SWAP1 SSTORE POP POP JUMP JUMPDEST POP JUMP JUMPDEST PUSH1 0x0 PUSH2 0x3565 PUSH8 0x29F6C1281AB8353F PUSH1 0xC0 SHL PUSH2 0x354C JUMP JUMPDEST PUSH2 0x3579 PUSH8 0x2F03E9A7C2018B15 PUSH1 0xC0 SHL PUSH2 0x354C JUMP JUMPDEST PUSH2 0x358D PUSH8 0xBAE80A7CB00BF497 PUSH1 0xC0 SHL PUSH2 0x354C JUMP JUMPDEST PUSH1 0x0 PUSH1 0x1 PUSH2 0x3599 PUSH2 0x1418 JUMP JUMPDEST ADD SWAP1 POP PUSH2 0x35B0 PUSH8 0xF6A8F27E3B35AEB3 PUSH1 0xC0 SHL PUSH2 0x354C JUMP JUMPDEST PUSH2 0x35C4 PUSH8 0x3FE3E37A5798F460 PUSH1 0xC0 SHL PUSH2 0x354C JUMP JUMPDEST PUSH2 0x35CE DUP4 DUP3 PUSH2 0x4069 JUMP JUMPDEST PUSH2 0x35E2 PUSH8 0x619EB9DF55046CA5 PUSH1 0xC0 SHL PUSH2 0x354C JUMP JUMPDEST DUP3 PUSH1 0xB PUSH1 0x0 DUP4 DUP2 MSTORE PUSH1 0x20 ADD SWAP1 DUP2 MSTORE PUSH1 0x20 ADD PUSH1 0x0 KECCAK256 PUSH1 0x0 PUSH2 0x100 EXP DUP2 SLOAD DUP2 PUSH20 0xFFFFFFFFFFFFFFFFFFFFFFFFFFFFFFFFFFFFFFFF MUL NOT AND SWAP1 DUP4 PUSH20 0xFFFFFFFFFFFFFFFFFFFFFFFFFFFFFFFFFFFFFFFF AND MUL OR SWAP1 SSTORE POP PUSH2 0x3648 PUSH8 0x908CBFA27F2D7975 PUSH1 0xC0 SHL PUSH2 0x354C JUMP JUMPDEST DUP4 PUSH1 0xC PUSH1 0x0 DUP4 DUP2 MSTORE PUSH1 0x20 ADD SWAP1 DUP2 MSTORE PUSH1 0x20 ADD PUSH1 0x0 KECCAK256 SWAP1 DUP1 MLOAD SWAP1 PUSH1 0x20 ADD SWAP1 PUSH2 0x366F SWAP3 SWAP2 SWAP1 PUSH2 0x4C21 JUMP JUMPDEST POP PUSH2 0x3684 PUSH8 0xD8DA9D92A4294CA6 PUSH1 0xC0 SHL PUSH2 0x354C JUMP JUMPDEST PUSH2 0x3698 PUSH8 0x65FB6CDCAFC8412B PUSH1 0xC0 SHL PUSH2 0x354C JUMP JUMPDEST DUP1 SWAP2 POP POP SWAP3 SWAP2 POP POP JUMP JUMPDEST POP JUMP JUMPDEST PUSH2 0x36B9 PUSH8 0x3095824660E9C244 PUSH1 0xC0 SHL PUSH2 0x36A2 JUMP JUMPDEST PUSH2 0x36CD PUSH8 0x5AD24A1CA7CD0932 PUSH1 0xC0 SHL PUSH2 0x36A2 JUMP JUMPDEST PUSH2 0x36E1 PUSH8 0xC88C2E26F5D9CA7D PUSH1 0xC0 SHL PUSH2 0x36A2 JUMP JUMPDEST PUSH2 0x36F5 PUSH8 0xB7EA7CD5185BB1F5 PUSH1 0xC0 SHL PUSH2 0x36A2 JUMP JUMPDEST PUSH1 0x0 PUSH20 0xFFFFFFFFFFFFFFFFFFFFFFFFFFFFFFFFFFFFFFFF AND DUP3 PUSH20 0xFFFFFFFFFFFFFFFFFFFFFFFFFFFFFFFFFFFFFFFF AND EQ ISZERO PUSH2 0x372F JUMPI PUSH1 0x0 DUP1 REVERT JUMPDEST PUSH2 0x3743 PUSH8 0x48249C0CF9F76890 PUSH1 0xC0 SHL PUSH2 0x36A2 JUMP JUMPDEST PUSH2 0x3757 PUSH8 0x379B8F1EF577E017 PUSH1 0xC0 SHL PUSH2 0x36A2 JUMP JUMPDEST PUSH2 0x376B PUSH8 0xBADDF2709847E537 PUSH1 0xC0 SHL PUSH2 0x36A2 JUMP JUMPDEST PUSH2 0x377F PUSH8 0x44D78D7A1ABA149E PUSH1 0xC0 SHL PUSH2 0x36A2 JUMP JUMPDEST PUSH2 0x3788 DUP2 PUSH2 0x2014 JUMP JUMPDEST PUSH20 0xFFFFFFFFFFFFFFFFFFFFFFFFFFFFFFFFFFFFFFFF AND DUP3 PUSH20 0xFFFFFFFFFFFFFFFFFFFFFFFFFFFFFFFFFFFFFFFF AND EQ ISZERO PUSH2 0x37C0 JUMPI PUSH1 0x0 DUP1 REVERT JUMPDEST PUSH2 0x37D4 PUSH8 0xAA63AC6C78F75911 PUSH1 0xC0 SHL PUSH2 0x36A2 JUMP JUMPDEST PUSH2 0x37E8 PUSH8 0x254E0CD98957DFCB PUSH1 0xC0 SHL PUSH2 0x36A2 JUMP JUMPDEST PUSH2 0x37FC PUSH8 0x3075038367B024BE PUSH1 0xC0 SHL PUSH2 0x36A2 JUMP JUMPDEST PUSH2 0x3810 PUSH8 0xC910FCB05265B6DF PUSH1 0xC0 SHL PUSH2 0x36A2 JUMP JUMPDEST DUP3 PUSH20 0xFFFFFFFFFFFFFFFFFFFFFFFFFFFFFFFFFFFFFFFF AND PUSH2 0x3830 DUP3 PUSH2 0x2014 JUMP JUMPDEST PUSH20 0xFFFFFFFFFFFFFFFFFFFFFFFFFFFFFFFFFFFFFFFF AND EQ PUSH2 0x3850 JUMPI PUSH1 0x0 DUP1 REVERT JUMPDEST PUSH2 0x3864 PUSH8 0x2C872D32672EDEBA PUSH1 0xC0 SHL PUSH2 0x36A2 JUMP JUMPDEST PUSH2 0x3878 PUSH8 0x17E0E4F57F0D33DB PUSH1 0xC0 SHL PUSH2 0x36A2 JUMP JUMPDEST PUSH2 0x388C PUSH8 0xCD8892F78C188E47 PUSH1 0xC0 SHL PUSH2 0x36A2 JUMP JUMPDEST PUSH2 0x3896 DUP4 DUP3 PUSH2 0x41CB JUMP JUMPDEST PUSH2 0x38AA PUSH8 0x304A556D44F8FC97 PUSH1 0xC0 SHL PUSH2 0x36A2 JUMP JUMPDEST PUSH2 0x38BE PUSH8 0x131C6F7BE7D30F98 PUSH1 0xC0 SHL PUSH2 0x36A2 JUMP JUMPDEST PUSH2 0x38C8 DUP4 DUP3 PUSH2 0x4368 JUMP JUMPDEST PUSH2 0x38DC PUSH8 0x2D9E8C8949992A11 PUSH1 0xC0 SHL PUSH2 0x36A2 JUMP JUMPDEST PUSH2 0x38F0 PUSH8 0x9E6B0D19B24CEB1D PUSH1 0xC0 SHL PUSH2 0x36A2 JUMP JUMPDEST PUSH2 0x38FA DUP3 DUP3 PUSH2 0x46E6 JUMP JUMPDEST PUSH2 0x390E PUSH8 0x21D96E6ABD8B794E PUSH1 0xC0 SHL PUSH2 0x36A2 JUMP JUMPDEST PUSH2 0x3922 PUSH8 0xFDF67986C0A5CF53 PUSH1 0xC0 SHL PUSH2 0x36A2 JUMP JUMPDEST DUP2 PUSH20 0xFFFFFFFFFFFFFFFFFFFFFFFFFFFFFFFFFFFFFFFF AND DUP4 PUSH20 0xFFFFFFFFFFFFFFFFFFFFFFFFFFFFFFFFFFFFFFFF AND PUSH32 0xDDF252AD1BE2C89B69C2B068FC378DAA952BA7F163C4A11628F55A4DF523B3EF DUP4 PUSH1 0x40 MLOAD DUP1 DUP3 DUP2 MSTORE PUSH1 0x20 ADD SWAP2 POP POP PUSH1 0x40 MLOAD DUP1 SWAP2 SUB SWAP1 LOG3 POP POP POP JUMP JUMPDEST PUSH2 0x39A0 PUSH8 0x4CAD7012555A56C9 PUSH1 0xC0 SHL PUSH2 0x354C JUMP JUMPDEST PUSH2 0x39B4 PUSH8 0x15F1F3872C31C9ED PUSH1 0xC0 SHL PUSH2 0x354C JUMP JUMPDEST PUSH2 0x39C8 PUSH8 0xC95960E59EB7CD41 PUSH1 0xC0 SHL PUSH2 0x354C JUMP JUMPDEST PUSH1 0x0 PUSH2 0x39DE PUSH8 0x5E2FC0979CE624BF PUSH1 0xC0 SHL PUSH2 0x354C JUMP JUMPDEST PUSH2 0x39F2 PUSH8 0x938941B4FEABE81A PUSH1 0xC0 SHL PUSH2 0x354C JUMP JUMPDEST PUSH1 0x0 PUSH2 0x3A08 PUSH8 0x7842C95BAFFC2E4B PUSH1 0xC0 SHL PUSH2 0x354C JUMP JUMPDEST PUSH2 0x3A1C PUSH8 0xB8E17E7F14759ED6 PUSH1 0xC0 SHL PUSH2 0x354C JUMP JUMPDEST PUSH1 0x0 PUSH2 0x3A32 PUSH8 0xB46C652551913B1C PUSH1 0xC0 SHL PUSH2 0x354C JUMP JUMPDEST PUSH2 0x3A46 PUSH8 0x674E281DDC28939A PUSH1 0xC0 SHL PUSH2 0x354C JUMP JUMPDEST PUSH1 0xE PUSH1 0x0 DUP6 DUP2 MSTORE PUSH1 0x20 ADD SWAP1 DUP2 MSTORE PUSH1 0x20 ADD PUSH1 0x0 KECCAK256 PUSH1 0x0 SWAP1 SLOAD SWAP1 PUSH2 0x100 EXP SWAP1 DIV PUSH1 0xFF AND ISZERO PUSH2 0x3B3E JUMPI PUSH2 0x3A80 PUSH8 0x1969C88E65E685DB PUSH1 0xC0 SHL PUSH2 0x354C JUMP JUMPDEST PUSH2 0x3A94 PUSH8 0xB63C1BBDA5A892F7 PUSH1 0xC0 SHL PUSH2 0x354C JUMP JUMPDEST PUSH2 0x3ABD PUSH2 0x3E8 PUSH2 0x3AAF PUSH1 0x6 SLOAD DUP12 PUSH2 0x4940 SWAP1 SWAP2 SWAP1 PUSH4 0xFFFFFFFF AND JUMP JUMPDEST PUSH2 0x4A7C SWAP1 SWAP2 SWAP1 PUSH4 0xFFFFFFFF AND JUMP JUMPDEST SWAP3 POP PUSH2 0x3AD3 PUSH8 0x39B2CA19E3005DAA PUSH1 0xC0 SHL PUSH2 0x354C JUMP JUMPDEST PUSH2 0x3AFC PUSH2 0x3E8 PUSH2 0x3AEE PUSH1 0x7 SLOAD DUP12 PUSH2 0x4940 SWAP1 SWAP2 SWAP1 PUSH4 0xFFFFFFFF AND JUMP JUMPDEST PUSH2 0x4A7C SWAP1 SWAP2 SWAP1 PUSH4 0xFFFFFFFF AND JUMP JUMPDEST SWAP2 POP PUSH2 0x3B12 PUSH8 0xB770A1994B7B65F8 PUSH1 0xC0 SHL PUSH2 0x354C JUMP JUMPDEST PUSH2 0x3B37 DUP4 PUSH2 0x3B29 DUP5 DUP12 PUSH2 0x4AFA SWAP1 SWAP2 SWAP1 PUSH4 0xFFFFFFFF AND JUMP JUMPDEST PUSH2 0x4AFA SWAP1 SWAP2 SWAP1 PUSH4 0xFFFFFFFF AND JUMP JUMPDEST SWAP1 POP PUSH2 0x3BDA JUMP JUMPDEST PUSH2 0x3B52 PUSH8 0xCF91BCB15AE63DCC PUSH1 0xC0 SHL PUSH2 0x354C JUMP JUMPDEST PUSH2 0x3B66 PUSH8 0xBED3AB45697591A4 PUSH1 0xC0 SHL PUSH2 0x354C JUMP JUMPDEST PUSH1 0x0 SWAP3 POP PUSH2 0x3B7E PUSH8 0xFA21524B656923CD PUSH1 0xC0 SHL PUSH2 0x354C JUMP JUMPDEST DUP8 SWAP2 POP PUSH2 0x3B95 PUSH8 0x33EA9A53F43D2799 PUSH1 0xC0 SHL PUSH2 0x354C JUMP JUMPDEST PUSH1 0x0 SWAP1 POP PUSH2 0x3BAD PUSH8 0x62D8E0645620DF4 PUSH1 0xC0 SHL PUSH2 0x354C JUMP JUMPDEST PUSH1 0x1 PUSH1 0xE PUSH1 0x0 DUP7 DUP2 MSTORE PUSH1 0x20 ADD SWAP1 DUP2 MSTORE PUSH1 0x20 ADD PUSH1 0x0 KECCAK256 PUSH1 0x0 PUSH2 0x100 EXP DUP2 SLOAD DUP2 PUSH1 0xFF MUL NOT AND SWAP1 DUP4 ISZERO ISZERO MUL OR SWAP1 SSTORE POP JUMPDEST PUSH2 0x3BEE PUSH8 0x728EF2925FB4D9E2 PUSH1 0xC0 SHL PUSH2 0x354C JUMP JUMPDEST PUSH2 0x3C02 PUSH8 0xAF14C5D163C97A1C PUSH1 0xC0 SHL PUSH2 0x354C JUMP JUMPDEST DUP7 PUSH20 0xFFFFFFFFFFFFFFFFFFFFFFFFFFFFFFFFFFFFFFFF AND PUSH2 0x8FC DUP5 SWAP1 DUP2 ISZERO MUL SWAP1 PUSH1 0x40 MLOAD PUSH1 0x0 PUSH1 0x40 MLOAD DUP1 DUP4 SUB DUP2 DUP6 DUP9 DUP9 CALL SWAP4 POP POP POP POP ISZERO DUP1 ISZERO PUSH2 0x3C48 JUMPI RETURNDATASIZE PUSH1 0x0 DUP1 RETURNDATACOPY RETURNDATASIZE PUSH1 0x0 REVERT JUMPDEST POP PUSH2 0x3C5D PUSH8 0x1D1FB53A1D28DC36 PUSH1 0xC0 SHL PUSH2 0x354C JUMP JUMPDEST PUSH2 0x3C71 PUSH8 0x75CECDA1B633DF9C PUSH1 0xC0 SHL PUSH2 0x354C JUMP JUMPDEST DUP6 PUSH20 0xFFFFFFFFFFFFFFFFFFFFFFFFFFFFFFFFFFFFFFFF AND PUSH2 0x8FC DUP4 SWAP1 DUP2 ISZERO MUL SWAP1 PUSH1 0x40 MLOAD PUSH1 0x0 PUSH1 0x40 MLOAD DUP1 DUP4 SUB DUP2 DUP6 DUP9 DUP9 CALL SWAP4 POP POP POP POP ISZERO DUP1 ISZERO PUSH2 0x3CB7 JUMPI RETURNDATASIZE PUSH1 0x0 DUP1 RETURNDATACOPY RETURNDATASIZE PUSH1 0x0 REVERT JUMPDEST POP PUSH2 0x3CCC PUSH8 0xC1FE9DB294188272 PUSH1 0xC0 SHL PUSH2 0x354C JUMP JUMPDEST PUSH2 0x3CE0 PUSH8 0x6D8A0262E27E8A2B PUSH1 0xC0 SHL PUSH2 0x354C JUMP JUMPDEST DUP5 PUSH20 0xFFFFFFFFFFFFFFFFFFFFFFFFFFFFFFFFFFFFFFFF AND PUSH2 0x8FC DUP3 SWAP1 DUP2 ISZERO MUL SWAP1 PUSH1 0x40 MLOAD PUSH1 0x0 PUSH1 0x40 MLOAD DUP1 DUP4 SUB DUP2 DUP6 DUP9 DUP9 CALL SWAP4 POP POP POP POP ISZERO DUP1 ISZERO PUSH2 0x3D26 JUMPI RETURNDATASIZE PUSH1 0x0 DUP1 RETURNDATACOPY RETURNDATASIZE PUSH1 0x0 REVERT JUMPDEST POP POP POP POP POP POP POP POP POP JUMP JUMPDEST PUSH2 0x3D45 PUSH8 0x447F71AE4395D517 PUSH1 0xC0 SHL PUSH2 0x354C JUMP JUMPDEST PUSH2 0x3D59 PUSH8 0x75D8DA1673627E7E PUSH1 0xC0 SHL PUSH2 0x354C JUMP JUMPDEST PUSH1 0x0 PUSH1 0x8 PUSH1 0x0 DUP4 DUP2 MSTORE PUSH1 0x20 ADD SWAP1 DUP2 MSTORE PUSH1 0x20 ADD PUSH1 0x0 KECCAK256 PUSH1 0x0 PUSH2 0x100 EXP DUP2 SLOAD DUP2 PUSH20 0xFFFFFFFFFFFFFFFFFFFFFFFFFFFFFFFFFFFFFFFF MUL NOT AND SWAP1 DUP4 PUSH20 0xFFFFFFFFFFFFFFFFFFFFFFFFFFFFFFFFFFFFFFFF AND MUL OR SWAP1 SSTORE POP PUSH2 0x3DC0 PUSH8 0x9C077CB67108BC6F PUSH1 0xC0 SHL PUSH2 0x354C JUMP JUMPDEST PUSH1 0x0 PUSH1 0x9 PUSH1 0x0 DUP4 DUP2 MSTORE PUSH1 0x20 ADD SWAP1 DUP2 MSTORE PUSH1 0x20 ADD PUSH1 0x0 KECCAK256 DUP2 SWAP1 SSTORE POP POP JUMP JUMPDEST PUSH1 0x0 PUSH2 0x3DF2 PUSH8 0x85142F6C8A6EF33 PUSH1 0xC0 SHL PUSH2 0x354C JUMP JUMPDEST PUSH2 0x3E06 PUSH8 0xE8B12AA6AC0DE9FC PUSH1 0xC0 SHL PUSH2 0x354C JUMP JUMPDEST PUSH2 0x3E1A PUSH8 0x792EA70BA9A323E8 PUSH1 0xC0 SHL PUSH2 0x354C JUMP JUMPDEST PUSH1 0x9 PUSH1 0x0 DUP4 DUP2 MSTORE PUSH1 0x20 ADD SWAP1 DUP2 MSTORE PUSH1 0x20 ADD PUSH1 0x0 KECCAK256 SLOAD CALLVALUE GT SWAP1 POP SWAP2 SWAP1 POP JUMP JUMPDEST PUSH2 0x3E4B PUSH8 0x3273871BEDF860BA PUSH1 0xC0 SHL PUSH2 0x354C JUMP JUMPDEST PUSH2 0x3E5F PUSH8 0xFEB18DE0135945F PUSH1 0xC0 SHL PUSH2 0x354C JUMP JUMPDEST PUSH2 0x3E73 PUSH8 0x32495C1BADB4E65E PUSH1 0xC0 SHL PUSH2 0x354C JUMP JUMPDEST PUSH1 0x0 PUSH1 0x9 PUSH1 0x0 DUP4 DUP2 MSTORE PUSH1 0x20 ADD SWAP1 DUP2 MSTORE PUSH1 0x20 ADD PUSH1 0x0 KECCAK256 SLOAD SWAP1 POP PUSH2 0x3E9F PUSH8 0x2F9CAD454AD080F7 PUSH1 0xC0 SHL PUSH2 0x354C JUMP JUMPDEST PUSH2 0x3EB3 PUSH8 0x5F092FEC7AA5D510 PUSH1 0xC0 SHL PUSH2 0x354C JUMP JUMPDEST PUSH1 0x0 PUSH1 0x8 PUSH1 0x0 DUP5 DUP2 MSTORE PUSH1 0x20 ADD SWAP1 DUP2 MSTORE PUSH1 0x20 ADD PUSH1 0x0 KECCAK256 PUSH1 0x0 SWAP1 SLOAD SWAP1 PUSH2 0x100 EXP SWAP1 DIV PUSH20 0xFFFFFFFFFFFFFFFFFFFFFFFFFFFFFFFFFFFFFFFF AND SWAP1 POP PUSH2 0x3EFF PUSH8 0xF4428A29EFC3B3ED PUSH1 0xC0 SHL PUSH2 0x354C JUMP JUMPDEST PUSH2 0x3F13 PUSH8 0xA648A38E75F2C943 PUSH1 0xC0 SHL PUSH2 0x354C JUMP JUMPDEST PUSH1 0x0 PUSH20 0xFFFFFFFFFFFFFFFFFFFFFFFFFFFFFFFFFFFFFFFF AND DUP2 PUSH20 0xFFFFFFFFFFFFFFFFFFFFFFFFFFFFFFFFFFFFFFFF AND EQ PUSH2 0x3FCF JUMPI PUSH2 0x3F5B PUSH8 0xAFED8706CD403C54 PUSH1 0xC0 SHL PUSH2 0x354C JUMP JUMPDEST PUSH2 0x3F6F PUSH8 0xDD345E0113E2AFB3 PUSH1 0xC0 SHL PUSH2 0x354C JUMP JUMPDEST PUSH2 0x3F83 PUSH8 0x5CB96ABCD7F0F254 PUSH1 0xC0 SHL PUSH2 0x354C JUMP JUMPDEST DUP1 PUSH20 0xFFFFFFFFFFFFFFFFFFFFFFFFFFFFFFFFFFFFFFFF AND PUSH2 0x8FC DUP4 SWAP1 DUP2 ISZERO MUL SWAP1 PUSH1 0x40 MLOAD PUSH1 0x0 PUSH1 0x40 MLOAD DUP1 DUP4 SUB DUP2 DUP6 DUP9 DUP9 CALL SWAP4 POP POP POP POP ISZERO DUP1 ISZERO PUSH2 0x3FC9 JUMPI RETURNDATASIZE PUSH1 0x0 DUP1 RETURNDATACOPY RETURNDATASIZE PUSH1 0x0 REVERT JUMPDEST POP PUSH2 0x3FE4 JUMP JUMPDEST PUSH2 0x3FE3 PUSH8 0x5758108E738D4BFF PUSH1 0xC0 SHL PUSH2 0x354C JUMP JUMPDEST JUMPDEST POP POP POP JUMP JUMPDEST POP JUMP JUMPDEST PUSH1 0x0 PUSH2 0x4002 PUSH8 0xA1C6A9235D43C12A PUSH1 0xC0 SHL PUSH2 0x36A2 JUMP JUMPDEST PUSH2 0x4016 PUSH8 0xC9673F36C74C113C PUSH1 0xC0 SHL PUSH2 0x36A2 JUMP JUMPDEST PUSH2 0x402A PUSH8 0xF9784286CAB3DB1E PUSH1 0xC0 SHL PUSH2 0x36A2 JUMP JUMPDEST DUP3 PUSH20 0xFFFFFFFFFFFFFFFFFFFFFFFFFFFFFFFFFFFFFFFF AND PUSH2 0x404A DUP4 PUSH2 0x14EE JUMP JUMPDEST PUSH20 0xFFFFFFFFFFFFFFFFFFFFFFFFFFFFFFFFFFFFFFFF AND EQ SWAP1 POP SWAP3 SWAP2 POP POP JUMP JUMPDEST PUSH2 0x407D PUSH8 0x272B9B8519DA9973 PUSH1 0xC0 SHL PUSH2 0x36A2 JUMP JUMPDEST PUSH2 0x4091 PUSH8 0xF34152F18B38C40E PUSH1 0xC0 SHL PUSH2 0x36A2 JUMP JUMPDEST PUSH2 0x40A5 PUSH8 0x4B1FDA3D370F985F PUSH1 0xC0 SHL PUSH2 0x36A2 JUMP JUMPDEST PUSH2 0x40B9 PUSH8 0x1821D5955DA62EE2 PUSH1 0xC0 SHL PUSH2 0x36A2 JUMP JUMPDEST PUSH1 0x0 PUSH20 0xFFFFFFFFFFFFFFFFFFFFFFFFFFFFFFFFFFFFFFFF AND DUP3 PUSH20 0xFFFFFFFFFFFFFFFFFFFFFFFFFFFFFFFFFFFFFFFF AND EQ ISZERO PUSH2 0x40F3 JUMPI PUSH1 0x0 DUP1 REVERT JUMPDEST PUSH2 0x4107 PUSH8 0x6D2121FB8AB0FC9A PUSH1 0xC0 SHL PUSH2 0x36A2 JUMP JUMPDEST PUSH2 0x411B PUSH8 0x8FBDCDB969FA0056 PUSH1 0xC0 SHL PUSH2 0x36A2 JUMP JUMPDEST PUSH2 0x412F PUSH8 0xEBACEAAE0C743AA5 PUSH1 0xC0 SHL PUSH2 0x36A2 JUMP JUMPDEST PUSH2 0x4139 DUP3 DUP3 PUSH2 0x46E6 JUMP JUMPDEST PUSH2 0x414D PUSH8 0x67FC43DD1156EC6F PUSH1 0xC0 SHL PUSH2 0x36A2 JUMP JUMPDEST PUSH2 0x4161 PUSH8 0x74EA768A0577AB9F PUSH1 0xC0 SHL PUSH2 0x36A2 JUMP JUMPDEST DUP2 PUSH20 0xFFFFFFFFFFFFFFFFFFFFFFFFFFFFFFFFFFFFFFFF AND PUSH1 0x0 PUSH20 0xFFFFFFFFFFFFFFFFFFFFFFFFFFFFFFFFFFFFFFFF AND PUSH32 0xDDF252AD1BE2C89B69C2B068FC378DAA952BA7F163C4A11628F55A4DF523B3EF DUP4 PUSH1 0x40 MLOAD DUP1 DUP3 DUP2 MSTORE PUSH1 0x20 ADD SWAP2 POP POP PUSH1 0x40 MLOAD DUP1 SWAP2 SUB SWAP1 LOG3 POP POP JUMP JUMPDEST PUSH2 0x41DF PUSH8 0x8619E0451B2BDF5C PUSH1 0xC0 SHL PUSH2 0x36A2 JUMP JUMPDEST PUSH2 0x41F3 PUSH8 0x2AB480F3768AF6B4 PUSH1 0xC0 SHL PUSH2 0x36A2 JUMP JUMPDEST PUSH2 0x4207 PUSH8 0xDC9C73925AAB5D0D PUSH1 0xC0 SHL PUSH2 0x36A2 JUMP JUMPDEST PUSH2 0x421B PUSH8 0x6857252506E5EF8 PUSH1 0xC0 SHL PUSH2 0x36A2 JUMP JUMPDEST DUP2 PUSH20 0xFFFFFFFFFFFFFFFFFFFFFFFFFFFFFFFFFFFFFFFF AND PUSH2 0x423B DUP3 PUSH2 0x2014 JUMP JUMPDEST PUSH20 0xFFFFFFFFFFFFFFFFFFFFFFFFFFFFFFFFFFFFFFFF AND EQ PUSH2 0x425B JUMPI PUSH1 0x0 DUP1 REVERT JUMPDEST PUSH2 0x426F PUSH8 0xB275D533181FD538 PUSH1 0xC0 SHL PUSH2 0x36A2 JUMP JUMPDEST PUSH2 0x4283 PUSH8 0xA0D2308921E6FBDE PUSH1 0xC0 SHL PUSH2 0x36A2 JUMP JUMPDEST PUSH1 0x0 PUSH1 0x2 PUSH1 0x0 DUP4 DUP2 MSTORE PUSH1 0x20 ADD SWAP1 DUP2 MSTORE PUSH1 0x20 ADD PUSH1 0x0 KECCAK256 PUSH1 0x0 PUSH2 0x100 EXP DUP2 SLOAD DUP2 PUSH20 0xFFFFFFFFFFFFFFFFFFFFFFFFFFFFFFFFFFFFFFFF MUL NOT AND SWAP1 DUP4 PUSH20 0xFFFFFFFFFFFFFFFFFFFFFFFFFFFFFFFFFFFFFFFF AND MUL OR SWAP1 SSTORE POP PUSH2 0x42EA PUSH8 0x3B188E01AFC3126A PUSH1 0xC0 SHL PUSH2 0x36A2 JUMP JUMPDEST PUSH2 0x42FE PUSH8 0xDEA23BF567A4AA3B PUSH1 0xC0 SHL PUSH2 0x36A2 JUMP JUMPDEST PUSH1 0x0 PUSH20 0xFFFFFFFFFFFFFFFFFFFFFFFFFFFFFFFFFFFFFFFF AND DUP3 PUSH20 0xFFFFFFFFFFFFFFFFFFFFFFFFFFFFFFFFFFFFFFFF AND PUSH32 0x8C5BE1E5EBEC7D5BD14F71427D1E84F3DD0314C0F7B2291E5B200AC8C7C3B925 DUP4 PUSH1 0x40 MLOAD DUP1 DUP3 DUP2 MSTORE PUSH1 0x20 ADD SWAP2 POP POP PUSH1 0x40 MLOAD DUP1 SWAP2 SUB SWAP1 LOG3 POP POP JUMP JUMPDEST PUSH2 0x437C PUSH8 0x612EDBADD0745B66 PUSH1 0xC0 SHL PUSH2 0x36A2 JUMP JUMPDEST PUSH2 0x4390 PUSH8 0x7948ADB06D136C52 PUSH1 0xC0 SHL PUSH2 0x36A2 JUMP JUMPDEST PUSH2 0x43A4 PUSH8 0xAC64A8AF84F2CB16 PUSH1 0xC0 SHL PUSH2 0x36A2 JUMP JUMPDEST PUSH2 0x43B8 PUSH8 0x367C33817C772D32 PUSH1 0xC0 SHL PUSH2 0x36A2 JUMP JUMPDEST DUP2 PUSH20 0xFFFFFFFFFFFFFFFFFFFFFFFFFFFFFFFFFFFFFFFF AND PUSH2 0x43D8 DUP3 PUSH2 0x2014 JUMP JUMPDEST PUSH20 0xFFFFFFFFFFFFFFFFFFFFFFFFFFFFFFFFFFFFFFFF AND EQ PUSH2 0x43F8 JUMPI PUSH1 0x0 DUP1 REVERT JUMPDEST PUSH2 0x440C PUSH8 0xFDF9457BDE2825CB PUSH1 0xC0 SHL PUSH2 0x36A2 JUMP JUMPDEST PUSH2 0x4420 PUSH8 0x892DECE102A0791D PUSH1 0xC0 SHL PUSH2 0x36A2 JUMP JUMPDEST PUSH2 0x4434 PUSH8 0xD32CA34A1FDE6028 PUSH1 0xC0 SHL PUSH2 0x36A2 JUMP JUMPDEST PUSH1 0x0 PUSH1 0x4 PUSH1 0x0 DUP4 DUP2 MSTORE PUSH1 0x20 ADD SWAP1 DUP2 MSTORE PUSH1 0x20 ADD PUSH1 0x0 KECCAK256 SLOAD SWAP1 POP PUSH2 0x4460 PUSH8 0x3001B6B1DA158351 PUSH1 0xC0 SHL PUSH2 0x36A2 JUMP JUMPDEST PUSH2 0x4474 PUSH8 0xD9B130ED6D1FF142 PUSH1 0xC0 SHL PUSH2 0x36A2 JUMP JUMPDEST PUSH1 0x0 PUSH2 0x4492 PUSH1 0x1 PUSH2 0x4484 DUP7 PUSH2 0x2254 JUMP JUMPDEST PUSH2 0x4AFA SWAP1 SWAP2 SWAP1 PUSH4 0xFFFFFFFF AND JUMP JUMPDEST SWAP1 POP PUSH2 0x44A7 PUSH7 0xCB88AD738B41DD PUSH1 0xC0 SHL PUSH2 0x36A2 JUMP JUMPDEST PUSH2 0x44BB PUSH8 0x51E8ADD8F3DE4E9B PUSH1 0xC0 SHL PUSH2 0x36A2 JUMP JUMPDEST PUSH1 0x0 PUSH1 0x3 PUSH1 0x0 DUP7 PUSH20 0xFFFFFFFFFFFFFFFFFFFFFFFFFFFFFFFFFFFFFFFF AND PUSH20 0xFFFFFFFFFFFFFFFFFFFFFFFFFFFFFFFFFFFFFFFF AND DUP2 MSTORE PUSH1 0x20 ADD SWAP1 DUP2 MSTORE PUSH1 0x20 ADD PUSH1 0x0 KECCAK256 DUP3 DUP2 SLOAD DUP2 LT PUSH2 0x4507 JUMPI INVALID JUMPDEST SWAP1 PUSH1 0x0 MSTORE PUSH1 0x20 PUSH1 0x0 KECCAK256 ADD SLOAD SWAP1 POP PUSH2 0x4528 PUSH8 0x2085C9A28A3932AB PUSH1 0xC0 SHL PUSH2 0x36A2 JUMP JUMPDEST PUSH1 0x0 PUSH1 0x1 PUSH1 0x0 DUP7 DUP2 MSTORE PUSH1 0x20 ADD SWAP1 DUP2 MSTORE PUSH1 0x20 ADD PUSH1 0x0 KECCAK256 PUSH1 0x0 PUSH2 0x100 EXP DUP2 SLOAD DUP2 PUSH20 0xFFFFFFFFFFFFFFFFFFFFFFFFFFFFFFFFFFFFFFFF MUL NOT AND SWAP1 DUP4 PUSH20 0xFFFFFFFFFFFFFFFFFFFFFFFFFFFFFFFFFFFFFFFF AND MUL OR SWAP1 SSTORE POP PUSH2 0x458F PUSH8 0x9D7ADA884A302E8F PUSH1 0xC0 SHL PUSH2 0x36A2 JUMP JUMPDEST DUP1 PUSH1 0x3 PUSH1 0x0 DUP8 PUSH20 0xFFFFFFFFFFFFFFFFFFFFFFFFFFFFFFFFFFFFFFFF AND PUSH20 0xFFFFFFFFFFFFFFFFFFFFFFFFFFFFFFFFFFFFFFFF AND DUP2 MSTORE PUSH1 0x20 ADD SWAP1 DUP2 MSTORE PUSH1 0x20 ADD PUSH1 0x0 KECCAK256 DUP5 DUP2 SLOAD DUP2 LT PUSH2 0x45DA JUMPI INVALID JUMPDEST SWAP1 PUSH1 0x0 MSTORE PUSH1 0x20 PUSH1 0x0 KECCAK256 ADD DUP2 SWAP1 SSTORE POP PUSH2 0x45FC PUSH8 0x7C2FA9C27B6C476B PUSH1 0xC0 SHL PUSH2 0x36A2 JUMP JUMPDEST PUSH1 0x0 PUSH1 0x3 PUSH1 0x0 DUP8 PUSH20 0xFFFFFFFFFFFFFFFFFFFFFFFFFFFFFFFFFFFFFFFF AND PUSH20 0xFFFFFFFFFFFFFFFFFFFFFFFFFFFFFFFFFFFFFFFF AND DUP2 MSTORE PUSH1 0x20 ADD SWAP1 DUP2 MSTORE PUSH1 0x20 ADD PUSH1 0x0 KECCAK256 DUP4 DUP2 SLOAD DUP2 LT PUSH2 0x4648 JUMPI INVALID JUMPDEST SWAP1 PUSH1 0x0 MSTORE PUSH1 0x20 PUSH1 0x0 KECCAK256 ADD DUP2 SWAP1 SSTORE POP PUSH2 0x466A PUSH8 0xED1CD43322829C8B PUSH1 0xC0 SHL PUSH2 0x36A2 JUMP JUMPDEST PUSH1 0x0 PUSH1 0x4 PUSH1 0x0 DUP7 DUP2 MSTORE PUSH1 0x20 ADD SWAP1 DUP2 MSTORE PUSH1 0x20 ADD PUSH1 0x0 KECCAK256 DUP2 SWAP1 SSTORE POP PUSH2 0x4697 PUSH8 0x88396CD3F60079FF PUSH1 0xC0 SHL PUSH2 0x36A2 JUMP JUMPDEST DUP3 PUSH1 0x4 PUSH1 0x0 DUP4 DUP2 MSTORE PUSH1 0x20 ADD SWAP1 DUP2 MSTORE PUSH1 0x20 ADD PUSH1 0x0 KECCAK256 DUP2 SWAP1 SSTORE POP PUSH2 0x46C3 PUSH8 0x980DFA6ADA942606 PUSH1 0xC0 SHL PUSH2 0x36A2 JUMP JUMPDEST PUSH2 0x46D9 PUSH1 0x1 PUSH1 0x0 SLOAD PUSH2 0x4AFA SWAP1 SWAP2 SWAP1 PUSH4 0xFFFFFFFF AND JUMP JUMPDEST PUSH1 0x0 DUP2 SWAP1 SSTORE POP POP POP POP POP POP JUMP JUMPDEST PUSH2 0x46FA PUSH8 0xC652D0888A30AE0B PUSH1 0xC0 SHL PUSH2 0x36A2 JUMP JUMPDEST PUSH2 0x470E PUSH8 0x2546D0066B1350B6 PUSH1 0xC0 SHL PUSH2 0x36A2 JUMP JUMPDEST PUSH2 0x4722 PUSH8 0x859EB002D0F98E0A PUSH1 0xC0 SHL PUSH2 0x36A2 JUMP JUMPDEST PUSH2 0x4736 PUSH8 0xA879A4A489AA2216 PUSH1 0xC0 SHL PUSH2 0x36A2 JUMP JUMPDEST PUSH1 0x0 PUSH20 0xFFFFFFFFFFFFFFFFFFFFFFFFFFFFFFFFFFFFFFFF AND PUSH1 0x1 PUSH1 0x0 DUP4 DUP2 MSTORE PUSH1 0x20 ADD SWAP1 DUP2 MSTORE PUSH1 0x20 ADD PUSH1 0x0 KECCAK256 PUSH1 0x0 SWAP1 SLOAD SWAP1 PUSH2 0x100 EXP SWAP1 DIV PUSH20 0xFFFFFFFFFFFFFFFFFFFFFFFFFFFFFFFFFFFFFFFF AND PUSH20 0xFFFFFFFFFFFFFFFFFFFFFFFFFFFFFFFFFFFFFFFF AND EQ PUSH2 0x47A2 JUMPI PUSH1 0x0 DUP1 REVERT JUMPDEST PUSH2 0x47B6 PUSH8 0xEEA52EB7A1E8AF84 PUSH1 0xC0 SHL PUSH2 0x36A2 JUMP JUMPDEST PUSH2 0x47CA PUSH8 0x7F8EB06FBBEF281A PUSH1 0xC0 SHL PUSH2 0x36A2 JUMP JUMPDEST DUP2 PUSH1 0x1 PUSH1 0x0 DUP4 DUP2 MSTORE PUSH1 0x20 ADD SWAP1 DUP2 MSTORE PUSH1 0x20 ADD PUSH1 0x0 KECCAK256 PUSH1 0x0 PUSH2 0x100 EXP DUP2 SLOAD DUP2 PUSH20 0xFFFFFFFFFFFFFFFFFFFFFFFFFFFFFFFFFFFFFFFF MUL NOT AND SWAP1 DUP4 PUSH20 0xFFFFFFFFFFFFFFFFFFFFFFFFFFFFFFFFFFFFFFFF AND MUL OR SWAP1 SSTORE POP PUSH2 0x4830 PUSH8 0x7A569FFD1E506DB2 PUSH1 0xC0 SHL PUSH2 0x36A2 JUMP JUMPDEST PUSH2 0x4844 PUSH8 0x249F4028DCA3D068 PUSH1 0xC0 SHL PUSH2 0x36A2 JUMP JUMPDEST PUSH1 0x0 PUSH2 0x484F DUP4 PUSH2 0x2254 JUMP JUMPDEST SWAP1 POP PUSH2 0x4865 PUSH8 0x77DA2FCABA40C33A PUSH1 0xC0 SHL PUSH2 0x36A2 JUMP JUMPDEST PUSH2 0x4879 PUSH8 0xDAA6BEED913386E9 PUSH1 0xC0 SHL PUSH2 0x36A2 JUMP JUMPDEST PUSH1 0x3 PUSH1 0x0 DUP5 PUSH20 0xFFFFFFFFFFFFFFFFFFFFFFFFFFFFFFFFFFFFFFFF AND PUSH20 0xFFFFFFFFFFFFFFFFFFFFFFFFFFFFFFFFFFFFFFFF AND DUP2 MSTORE PUSH1 0x20 ADD SWAP1 DUP2 MSTORE PUSH1 0x20 ADD PUSH1 0x0 KECCAK256 DUP3 SWAP1 DUP1 PUSH1 0x1 DUP2 SLOAD ADD DUP1 DUP3 SSTORE DUP1 SWAP2 POP POP PUSH1 0x1 SWAP1 SUB SWAP1 PUSH1 0x0 MSTORE PUSH1 0x20 PUSH1 0x0 KECCAK256 ADD PUSH1 0x0 SWAP1 SWAP2 SWAP1 SWAP2 SWAP1 SWAP2 POP SSTORE PUSH2 0x48F3 PUSH8 0x44637881013C5A2F PUSH1 0xC0 SHL PUSH2 0x36A2 JUMP JUMPDEST DUP1 PUSH1 0x4 PUSH1 0x0 DUP5 DUP2 MSTORE PUSH1 0x20 ADD SWAP1 DUP2 MSTORE PUSH1 0x20 ADD PUSH1 0x0 KECCAK256 DUP2 SWAP1 SSTORE POP PUSH2 0x491F PUSH8 0x2A0C15233A423BB4 PUSH1 0xC0 SHL PUSH2 0x36A2 JUMP JUMPDEST PUSH2 0x4935 PUSH1 0x1 PUSH1 0x0 SLOAD PUSH2 0x4B75 SWAP1 SWAP2 SWAP1 PUSH4 0xFFFFFFFF AND JUMP JUMPDEST PUSH1 0x0 DUP2 SWAP1 SSTORE POP POP POP POP JUMP JUMPDEST PUSH1 0x0 PUSH2 0x4956 PUSH8 0x7582961EEE8980C1 PUSH1 0xC0 SHL PUSH2 0x4C1E JUMP JUMPDEST PUSH2 0x496A PUSH8 0x481EF69BF7DEB429 PUSH1 0xC0 SHL PUSH2 0x4C1E JUMP JUMPDEST PUSH2 0x497E PUSH8 0xBA46E7E5634D960A PUSH1 0xC0 SHL PUSH2 0x4C1E JUMP JUMPDEST PUSH1 0x0 DUP4 EQ ISZERO PUSH2 0x49CC JUMPI PUSH2 0x499B PUSH8 0x41374F356188471 PUSH1 0xC0 SHL PUSH2 0x4C1E JUMP JUMPDEST PUSH2 0x49AF PUSH8 0x4CA41A311C90A861 PUSH1 0xC0 SHL PUSH2 0x4C1E JUMP JUMPDEST PUSH2 0x49C3 PUSH8 0xC1C770670696BEDB PUSH1 0xC0 SHL PUSH2 0x4C1E JUMP JUMPDEST PUSH1 0x0 SWAP1 POP PUSH2 0x4A76 JUMP JUMPDEST PUSH2 0x49E0 PUSH8 0x66B5D5615C4B6614 PUSH1 0xC0 SHL PUSH2 0x4C1E JUMP JUMPDEST PUSH2 0x49F4 PUSH8 0xC698A4DD07B167A6 PUSH1 0xC0 SHL PUSH2 0x4C1E JUMP JUMPDEST PUSH2 0x4A08 PUSH8 0xC7FD50707991A34F PUSH1 0xC0 SHL PUSH2 0x4C1E JUMP JUMPDEST PUSH1 0x0 DUP3 DUP5 MUL SWAP1 POP PUSH2 0x4A23 PUSH8 0x6FF086C0E38E48FE PUSH1 0xC0 SHL PUSH2 0x4C1E JUMP JUMPDEST PUSH2 0x4A37 PUSH8 0x5CDEA772A870BBE5 PUSH1 0xC0 SHL PUSH2 0x4C1E JUMP JUMPDEST DUP3 DUP5 DUP3 DUP2 PUSH2 0x4A41 JUMPI INVALID JUMPDEST DIV EQ PUSH2 0x4A49 JUMPI INVALID JUMPDEST PUSH2 0x4A5D PUSH8 0x623BA50D60D959FE PUSH1 0xC0 SHL PUSH2 0x4C1E JUMP JUMPDEST PUSH2 0x4A71 PUSH8 0x558E54E11F92D709 PUSH1 0xC0 SHL PUSH2 0x4C1E JUMP JUMPDEST DUP1 SWAP2 POP POP JUMPDEST SWAP3 SWAP2 POP POP JUMP JUMPDEST PUSH1 0x0 PUSH2 0x4A92 PUSH8 0x7B1689D7C4C39D7F PUSH1 0xC0 SHL PUSH2 0x4C1E JUMP JUMPDEST PUSH2 0x4AA6 PUSH8 0x58F7DB4DCD5F5C53 PUSH1 0xC0 SHL PUSH2 0x4C1E JUMP JUMPDEST PUSH2 0x4ABA PUSH8 0xFAC8001ECD35F792 PUSH1 0xC0 SHL PUSH2 0x4C1E JUMP JUMPDEST PUSH1 0x0 DUP3 DUP5 DUP2 PUSH2 0x4AC5 JUMPI INVALID JUMPDEST DIV SWAP1 POP PUSH2 0x4ADC PUSH8 0xFFCDB660C9FE5A0F PUSH1 0xC0 SHL PUSH2 0x4C1E JUMP JUMPDEST PUSH2 0x4AF0 PUSH8 0x7655AF5EA1F379EE PUSH1 0xC0 SHL PUSH2 0x4C1E JUMP JUMPDEST DUP1 SWAP2 POP POP SWAP3 SWAP2 POP POP JUMP JUMPDEST PUSH1 0x0 PUSH2 0x4B10 PUSH8 0xAD439B8A78E14D47 PUSH1 0xC0 SHL PUSH2 0x4C1E JUMP JUMPDEST PUSH2 0x4B24 PUSH8 0xDA02640415893D33 PUSH1 0xC0 SHL PUSH2 0x4C1E JUMP JUMPDEST PUSH2 0x4B38 PUSH8 0x632CD40E4CB4BEE1 PUSH1 0xC0 SHL PUSH2 0x4C1E JUMP JUMPDEST DUP3 DUP3 GT ISZERO PUSH2 0x4B42 JUMPI INVALID JUMPDEST PUSH2 0x4B56 PUSH8 0xA0C4075F9E733D72 PUSH1 0xC0 SHL PUSH2 0x4C1E JUMP JUMPDEST PUSH2 0x4B6A PUSH8 0x6C12AD1C5CD42EFC PUSH1 0xC0 SHL PUSH2 0x4C1E JUMP JUMPDEST DUP2 DUP4 SUB SWAP1 POP SWAP3 SWAP2 POP POP JUMP JUMPDEST PUSH1 0x0 PUSH2 0x4B8B PUSH8 0xBCE7194644D0CA30 PUSH1 0xC0 SHL PUSH2 0x4C1E JUMP JUMPDEST PUSH2 0x4B9F PUSH8 0x2A2BBDD6152BC7E4 PUSH1 0xC0 SHL PUSH2 0x4C1E JUMP JUMPDEST PUSH2 0x4BB3 PUSH8 0x416FFFB0A9174AC PUSH1 0xC0 SHL PUSH2 0x4C1E JUMP JUMPDEST PUSH1 0x0 DUP3 DUP5 ADD SWAP1 POP PUSH2 0x4BCE PUSH8 0x1DFD41C0D3247FBB PUSH1 0xC0 SHL PUSH2 0x4C1E JUMP JUMPDEST PUSH2 0x4BE2 PUSH8 0x855235157C6AA445 PUSH1 0xC0 SHL PUSH2 0x4C1E JUMP JUMPDEST DUP4 DUP2 LT ISZERO PUSH2 0x4BEC JUMPI INVALID JUMPDEST PUSH2 0x4C00 PUSH8 0x32BDD39224ACC6D PUSH1 0xC0 SHL PUSH2 0x4C1E JUMP JUMPDEST PUSH2 0x4C14 PUSH8 0x2AAA448DD8C7971E PUSH1 0xC0 SHL PUSH2 0x4C1E JUMP JUMPDEST DUP1 SWAP2 POP POP SWAP3 SWAP2 POP POP JUMP JUMPDEST POP JUMP JUMPDEST DUP3 DUP1 SLOAD PUSH1 0x1 DUP2 PUSH1 0x1 AND ISZERO PUSH2 0x100 MUL SUB AND PUSH1 0x2 SWAP1 DIV SWAP1 PUSH1 0x0 MSTORE PUSH1 0x20 PUSH1 0x0 KECCAK256 SWAP1 PUSH1 0x1F ADD PUSH1 0x20 SWAP1 DIV DUP2 ADD SWAP3 DUP3 PUSH2 0x4C57 JUMPI PUSH1 0x0 DUP6 SSTORE PUSH2 0x4C9E JUMP JUMPDEST DUP3 PUSH1 0x1F LT PUSH2 0x4C70 JUMPI DUP1 MLOAD PUSH1 0xFF NOT AND DUP4 DUP1 ADD OR DUP6 SSTORE PUSH2 0x4C9E JUMP JUMPDEST DUP3 DUP1 ADD PUSH1 0x1 ADD DUP6 SSTORE DUP3 ISZERO PUSH2 0x4C9E JUMPI SWAP2 DUP3 ADD JUMPDEST DUP3 DUP2 GT ISZERO PUSH2 0x4C9D JUMPI DUP3 MLOAD DUP3 SSTORE SWAP2 PUSH1 0x20 ADD SWAP2 SWAP1 PUSH1 0x1 ADD SWAP1 PUSH2 0x4C82 JUMP JUMPDEST JUMPDEST POP SWAP1 POP PUSH2 0x4CAB SWAP2 SWAP1 PUSH2 0x4CAF JUMP JUMPDEST POP SWAP1 JUMP JUMPDEST JUMPDEST DUP1 DUP3 GT ISZERO PUSH2 0x4CC8 JUMPI PUSH1 0x0 DUP2 PUSH1 0x0 SWAP1 SSTORE POP PUSH1 0x1 ADD PUSH2 0x4CB0 JUMP JUMPDEST POP SWAP1 JUMP INVALID LOG2 PUSH5 0x6970667358 0x22 SLT KECCAK256 STATICCALL PUSH10 0xE9E458456170C001E845 SLT SWAP6 0xA6 RETURNDATACOPY PUSH8 0x42628B5C5F7314EC SWAP13 0xB0 SWAP4 0xD3 CALL SELFBALANCE 0xDF PUSH5 0x736F6C6343 STOP SMOD MOD STOP CALLER "},"methodIdentifiers":{"acceptBid(uint256)":"2b1fd58a","addNewToken(string)":"d9856c21","addNewTokenWithEditions(string,uint256,uint256)":"019871e9","approve(address,uint256)":"095ea7b3","approvedFor(uint256)":"2a6dd48f","balanceOf(address)":"70a08231","bid(uint256)":"454a2ab3","buy(uint256)":"d96a094a","cancelBid(uint256)":"9703ef35","creatorOfToken(uint256)":"d5da8d44","creatorPercentage()":"f071bf4f","currentBidDetailsOfToken(uint256)":"1a289aea","isWhitelisted(address)":"3af32abf","maintainerPercentage()":"f2bf6b8c","name()":"06fdde03","originalTokenOfUri(string)":"653436fd","owner()":"8da5cb5b","ownerOf(uint256)":"6352211e","salePriceOfToken(uint256)":"9f2a3c32","setCreatorPercentage(uint256)":"c0ec93e7","setMaintainerPercentage(uint256)":"5c68a557","setSalePrice(uint256,uint256)":"053992c5","symbol()":"95d89b41","takeOwnership(uint256)":"b2e6ceeb","tokenURI(uint256)":"c87b56dd","tokensOf(address)":"5a3f2672","totalSupply()":"18160ddd","transfer(address,uint256)":"a9059cbb","transferOwnership(address)":"f2fde38b","whitelistCreator(address)":"62f11dd2"}}}}}