{"contracts/SupeRareWrapper.sol":{"SupeRareWrapper":{"abi":[{"inputs":[{"internalType":"address","name":"OriginalSupeRareAddr__","type":"address"}],"stateMutability":"nonpayable","type":"constructor"},{"anonymous":false,"inputs":[{"indexed":true,"internalType":"address","name":"previousOwner","type":"address"},{"indexed":true,"internalType":"address","name":"newOwner","type":"address"}],"name":"OwnershipTransferred","type":"event"},{"anonymous":false,"inputs":[{"indexed":true,"internalType":"address","name":"from","type":"address"},{"indexed":true,"internalType":"address","name":"to","type":"address"},{"indexed":true,"internalType":"uint256","name":"tokenId","type":"uint256"}],"name":"Transfer","type":"event"},{"inputs":[{"internalType":"address","name":"newOwner","type":"address"}],"name":"changeOwner","outputs":[],"stateMutability":"nonpayable","type":"function"},{"inputs":[],"name":"getOwner","outputs":[{"internalType":"address","name":"","type":"address"}],"stateMutability":"view","type":"function"},{"inputs":[],"name":"getSupeRareAddress","outputs":[{"internalType":"address","name":"","type":"address"}],"stateMutability":"view","type":"function"},{"inputs":[{"internalType":"address","name":"","type":"address"},{"internalType":"address","name":"","type":"address"},{"internalType":"uint256","name":"","type":"uint256"},{"internalType":"bytes","name":"","type":"bytes"}],"name":"onERC721Received","outputs":[{"internalType":"bytes4","name":"","type":"bytes4"}],"stateMutability":"pure","type":"function"},{"inputs":[{"internalType":"address","name":"from","type":"address"},{"internalType":"address","name":"to","type":"address"},{"internalType":"uint256","name":"tokenId","type":"uint256"},{"internalType":"bytes","name":"_data","type":"bytes"}],"name":"safeTransferFrom","outputs":[],"stateMutability":"nonpayable","type":"function"}],"evm":{"bytecode":{"linkReferences":{},"object":"608060405234801561001057600080fd5b506040516200175d3803806200175d8339818101604052602081101561003557600080fd5b8101908080519060200190929190505050610060671f18f0d339b0188560c01b61019660201b60201c565b61007a679bbb0180e7b4ba7060c01b61019660201b60201c565b806000806101000a81548173ffffffffffffffffffffffffffffffffffffffff021916908373ffffffffffffffffffffffffffffffffffffffff1602179055506100d467c0660557108b2fc860c01b61019660201b60201c565b60008054906101000a900473ffffffffffffffffffffffffffffffffffffffff16600160006101000a81548173ffffffffffffffffffffffffffffffffffffffff021916908373ffffffffffffffffffffffffffffffffffffffff16021790555061014f67eee538068e412a8e60c01b61019660201b60201c565b33600260006101000a81548173ffffffffffffffffffffffffffffffffffffffff021916908373ffffffffffffffffffffffffffffffffffffffff16021790555050610199565b50565b6115b480620001a96000396000f3fe608060405234801561001057600080fd5b50600436106100575760003560e01c8063150b7a021461005c5780633646478914610152578063893d20e814610186578063a6f9dae1146101ba578063b88d4fde146101fe575b600080fd5b61011d6004803603608081101561007257600080fd5b81019080803573ffffffffffffffffffffffffffffffffffffffff169060200190929190803573ffffffffffffffffffffffffffffffffffffffff16906020019092919080359060200190929190803590602001906401000000008111156100d957600080fd5b8201836020820111156100eb57600080fd5b8035906020019184600183028401116401000000008311171561010d57600080fd5b9091929391929390505050610303565b60405180827bffffffffffffffffffffffffffffffffffffffffffffffffffffffff1916815260200191505060405180910390f35b61015a610354565b604051808273ffffffffffffffffffffffffffffffffffffffff16815260200191505060405180910390f35b61018e6103b8565b604051808273ffffffffffffffffffffffffffffffffffffffff16815260200191505060405180910390f35b6101fc600480360360208110156101d057600080fd5b81019080803573ffffffffffffffffffffffffffffffffffffffff16906020019092919050505061041e565b005b6103016004803603608081101561021457600080fd5b81019080803573ffffffffffffffffffffffffffffffffffffffff169060200190929190803573ffffffffffffffffffffffffffffffffffffffff169060200190929190803590602001909291908035906020019064010000000081111561027b57600080fd5b82018360208201111561028d57600080fd5b803590602001918460018302840111640100000000831117156102af57600080fd5b91908080601f016020809104026020016040519081016040528093929190818152602001838380828437600081840152601f19601f82011690508083019250505050505050919291929050505061071b565b005b6000610319679fd4b458bde496d360c01b610a6a565b61032d67d842a567b074678c60c01b610a6a565b6103416740082c015a36b59160c01b610a6a565b63150b7a0260e01b905095945050505050565b600061036a67cc80cbc9b9def77b60c01b610a6a565b61037e67baa741afa6fd630060c01b610a6a565b61039267c3c660dc2288def260c01b610a6a565b60008054906101000a900473ffffffffffffffffffffffffffffffffffffffff16905090565b60006103ce675c223afb98f6138d60c01b610a6a565b6103e2678c28349e419dcdfb60c01b610a6a565b6103f6673c30d1a0cdf3b9e160c01b610a6a565b600260009054906101000a900473ffffffffffffffffffffffffffffffffffffffff16905090565b61043267a7547557c60d3dbb60c01b610a6a565b61044667efb8f79a74c4555f60c01b610a6a565b61045a679b8c8f16672077e360c01b610a6a565b61046e67e68b02c332d0da0f60c01b610a6a565b61048267cfb17fbff1a210ec60c01b610a6a565b600260009054906101000a900473ffffffffffffffffffffffffffffffffffffffff1673ffffffffffffffffffffffffffffffffffffffff163373ffffffffffffffffffffffffffffffffffffffff1614610545576040517f08c379a000000000000000000000000000000000000000000000000000000000815260040180806020018281038252600a8152602001807f4f4e4c595f4f574e45520000000000000000000000000000000000000000000081525060200191505060405180910390fd5b61055967782d0514bd4aff9360c01b610a6a565b61056d675c8e7a51714067a060c01b610a6a565b6105816758021074f3062a4660c01b610a6a565b61059567cf591fbea180046c60c01b610a6a565b6105a96744be7a5882e954e760c01b610a6a565b6105bd6777c7c1ba3dc6430860c01b610a6a565b6105d1675380ff9750c329e160c01b610a6a565b600073ffffffffffffffffffffffffffffffffffffffff168173ffffffffffffffffffffffffffffffffffffffff16141561060b57600080fd5b61061f676cdd386c480f277760c01b610a6a565b61063367d018c2d308c983a460c01b610a6a565b61064767d71740169efac82660c01b610a6a565b8073ffffffffffffffffffffffffffffffffffffffff16600260009054906101000a900473ffffffffffffffffffffffffffffffffffffffff1673ffffffffffffffffffffffffffffffffffffffff167f8be0079c531659141344cd1fd0a4f28419497f9722a3daafe3b4186f6b6457e060405160405180910390a36106d767f00bbafe37d9bf1460c01b610a6a565b80600260006101000a81548173ffffffffffffffffffffffffffffffffffffffff021916908373ffffffffffffffffffffffffffffffffffffffff16021790555050565b61072f677d510c734c64eb4f60c01b610a6a565b61074367efb8f79a74c4555f60c01b610a6a565b610757679b8c8f16672077e360c01b610a6a565b61076b67e68b02c332d0da0f60c01b610a6a565b61077f67cfb17fbff1a210ec60c01b610a6a565b600260009054906101000a900473ffffffffffffffffffffffffffffffffffffffff1673ffffffffffffffffffffffffffffffffffffffff163373ffffffffffffffffffffffffffffffffffffffff1614610842576040517f08c379a000000000000000000000000000000000000000000000000000000000815260040180806020018281038252600a8152602001807f4f4e4c595f4f574e45520000000000000000000000000000000000000000000081525060200191505060405180910390fd5b61085667782d0514bd4aff9360c01b610a6a565b61086a675c8e7a51714067a060c01b610a6a565b61087e675491d67ff2caa88060c01b610a6a565b610892673c9aeb0c9d07761060c01b610a6a565b6108a66770807ea99ed2b68e60c01b610a6a565b6108ba6767d56145d4a7505c60c01b610a6a565b6108ce67b2c6be2b50669b1b60c01b610a6a565b600160009054906101000a900473ffffffffffffffffffffffffffffffffffffffff1673ffffffffffffffffffffffffffffffffffffffff16636352211e836040518263ffffffff1660e01b81526004018082815260200191505060206040518083038186803b15801561094157600080fd5b505afa158015610955573d6000803e3d6000fd5b505050506040513d602081101561096b57600080fd5b810190808051906020019092919050505073ffffffffffffffffffffffffffffffffffffffff168473ffffffffffffffffffffffffffffffffffffffff1614610a1c576040517f08c379a000000000000000000000000000000000000000000000000000000000815260040180806020018281038252600d8152602001807f4e4f545f4e46545f4f574e45520000000000000000000000000000000000000081525060200191505060405180910390fd5b610a30679a5a1db77c58f4af60c01b610a6a565b610a4467fda8cb7ad5b12f3f60c01b610a6a565b610a586706e0b793290dee3b60c01b610a6a565b610a6484848484610a6d565b50505050565b50565b610a81674595544f0feaa35560c01b610a6a565b610a956707c41db795ccd7fb60c01b610a6a565b610aa967c44502c8e6a8c85560c01b610a6a565b610ab4848484610b6b565b610ac867e97b6e47b06ff59960c01b610a6a565b610adc67a7c732ce58f8858260c01b610a6a565b610af067c8732947999150b660c01b610a6a565b610afc84848484610f4d565b610b51576040517f08c379a00000000000000000000000000000000000000000000000000000000081526004018080602001828103825260328152602001806115036032913960400191505060405180910390fd5b610b65675d8a3a08201dfcbc60c01b610a6a565b50505050565b610b7f67e60294fcd6d6bd6860c01b610a6a565b610b9367c92445e87100892760c01b610a6a565b610ba7678be554ac287deff360c01b610a6a565b610bbb6736670176993b8c7c60c01b610a6a565b600073ffffffffffffffffffffffffffffffffffffffff168273ffffffffffffffffffffffffffffffffffffffff161415610c41576040517f08c379a00000000000000000000000000000000000000000000000000000000081526004018080602001828103825260248152602001806115356024913960400191505060405180910390fd5b610c55679ac3cc18584d05ca60c01b610a6a565b610c6967eac9c8cee262163d60c01b610a6a565b610c7d6754da412a68ab4a6a60c01b610a6a565b60008060009054906101000a900473ffffffffffffffffffffffffffffffffffffffff1673ffffffffffffffffffffffffffffffffffffffff168383604051602401808373ffffffffffffffffffffffffffffffffffffffff168152602001828152602001925050506040516020818303038152906040527fa9059cbb000000000000000000000000000000000000000000000000000000007bffffffffffffffffffffffffffffffffffffffffffffffffffffffff19166020820180517bffffffffffffffffffffffffffffffffffffffffffffffffffffffff83818316178352505050506040518082805190602001908083835b60208310610d965780518252602082019150602081019050602083039250610d73565b6001836020036101000a0380198251168184511680821785525050505050509050019150506000604051808303816000865af19150503d8060008114610df8576040519150601f19603f3d011682016040523d82523d6000602084013e610dfd565b606091505b50509050610e15676609bc59441f664060c01b610a6a565b610e2967af4fbb36ae73dfe260c01b610a6a565b610e3d675765bfbc33b0e87d60c01b610a6a565b80610eb0576040517f08c379a000000000000000000000000000000000000000000000000000000000815260040180806020018281038252600d8152602001807f526566756e64206661696c65640000000000000000000000000000000000000081525060200191505060405180910390fd5b610ec4672ec45c582614b2b760c01b610a6a565b610ed867e5dbdd86eecb0ec260c01b610a6a565b610eec67d8a9766fe2c12e4160c01b610a6a565b818373ffffffffffffffffffffffffffffffffffffffff168573ffffffffffffffffffffffffffffffffffffffff167fddf252ad1be2c89b69c2b068fc378daa952ba7f163c4a11628f55a4df523b3ef60405160405180910390a450505050565b6000610f63679534d6d75162532b60c01b610a6a565b610f776767e8cd995f30165f60c01b610a6a565b610f8b675bb95dd4e792c37b60c01b610a6a565b610faa8473ffffffffffffffffffffffffffffffffffffffff16611263565b610ff357610fc2670c5128678ff8c80660c01b610a6a565b610fd6677fdf185089c5096d60c01b610a6a565b610fea67afa245e228ce823a60c01b610a6a565b6001905061125b565b611007670dafc9033fc0100760c01b610a6a565b61101b67a466120cb7c0c3a660c01b610a6a565b61102f67d95db82e0251171d60c01b610a6a565b600061119263150b7a0260e01b33888787604051602401808573ffffffffffffffffffffffffffffffffffffffff1681526020018473ffffffffffffffffffffffffffffffffffffffff16815260200183815260200180602001828103825283818151815260200191508051906020019080838360005b838110156110c15780820151818401526020810190506110a6565b50505050905090810190601f1680156110ee5780820380516001836020036101000a031916815260200191505b5095505050505050604051602081830303815290604052907bffffffffffffffffffffffffffffffffffffffffffffffffffffffff19166020820180517bffffffffffffffffffffffffffffffffffffffffffffffffffffffff8381831617835250505050604051806060016040528060328152602001611503603291398773ffffffffffffffffffffffffffffffffffffffff166112769092919063ffffffff16565b90506111a86720c0df1fca06539960c01b610a6a565b6111bc675d9bde75aa38d6c660c01b610a6a565b60008180602001905160208110156111d357600080fd5b810190808051906020019092919050505090506111fa672abf1e3d16b8dd9260c01b610a6a565b61120e675eeced4725e2445460c01b610a6a565b63150b7a0260e01b7bffffffffffffffffffffffffffffffffffffffffffffffffffffffff1916817bffffffffffffffffffffffffffffffffffffffffffffffffffffffff191614925050505b949350505050565b600080823b905060008111915050919050565b6060611285848460008561128e565b90509392505050565b6060824710156112e9576040517f08c379a00000000000000000000000000000000000000000000000000000000081526004018080602001828103825260268152602001806115596026913960400191505060405180910390fd5b6112f285611263565b611364576040517f08c379a000000000000000000000000000000000000000000000000000000000815260040180806020018281038252601d8152602001807f416464726573733a2063616c6c20746f206e6f6e2d636f6e747261637400000081525060200191505060405180910390fd5b6000808673ffffffffffffffffffffffffffffffffffffffff1685876040518082805190602001908083835b602083106113b35780518252602082019150602081019050602083039250611390565b6001836020036101000a03801982511681845116808217855250505050505090500191505060006040518083038185875af1925050503d8060008114611415576040519150601f19603f3d011682016040523d82523d6000602084013e61141a565b606091505b509150915061142a828286611436565b92505050949350505050565b60608315611446578290506114fb565b6000835111156114595782518084602001fd5b816040517f08c379a00000000000000000000000000000000000000000000000000000000081526004018080602001828103825283818151815260200191508051906020019080838360005b838110156114c05780820151818401526020810190506114a5565b50505050905090810190601f1680156114ed5780820380516001836020036101000a031916815260200191505b509250505060405180910390fd5b939250505056fe4552433732313a207472616e7366657220746f206e6f6e20455243373231526563656976657220696d706c656d656e7465724552433732313a207472616e7366657220746f20746865207a65726f2061646472657373416464726573733a20696e73756666696369656e742062616c616e636520666f722063616c6ca26469706673582212205c308aa76b8e0161adac15bf854dbf1ce1250c15ba63e850d63b0ec2ee44615f64736f6c63430007060033","opcodes":"PUSH1 0x80 PUSH1 0x40 MSTORE CALLVALUE DUP1 ISZERO PUSH2 0x10 JUMPI PUSH1 0x0 DUP1 REVERT JUMPDEST POP PUSH1 0x40 MLOAD PUSH3 0x175D CODESIZE SUB DUP1 PUSH3 0x175D DUP4 CODECOPY DUP2 DUP2 ADD PUSH1 0x40 MSTORE PUSH1 0x20 DUP2 LT ISZERO PUSH2 0x35 JUMPI PUSH1 0x0 DUP1 REVERT JUMPDEST DUP2 ADD SWAP1 DUP1 DUP1 MLOAD SWAP1 PUSH1 0x20 ADD SWAP1 SWAP3 SWAP2 SWAP1 POP POP POP PUSH2 0x60 PUSH8 0x1F18F0D339B01885 PUSH1 0xC0 SHL PUSH2 0x196 PUSH1 0x20 SHL PUSH1 0x20 SHR JUMP JUMPDEST PUSH2 0x7A PUSH8 0x9BBB0180E7B4BA70 PUSH1 0xC0 SHL PUSH2 0x196 PUSH1 0x20 SHL PUSH1 0x20 SHR JUMP JUMPDEST DUP1 PUSH1 0x0 DUP1 PUSH2 0x100 EXP DUP2 SLOAD DUP2 PUSH20 0xFFFFFFFFFFFFFFFFFFFFFFFFFFFFFFFFFFFFFFFF MUL NOT AND SWAP1 DUP4 PUSH20 0xFFFFFFFFFFFFFFFFFFFFFFFFFFFFFFFFFFFFFFFF AND MUL OR SWAP1 SSTORE POP PUSH2 0xD4 PUSH8 0xC0660557108B2FC8 PUSH1 0xC0 SHL PUSH2 0x196 PUSH1 0x20 SHL PUSH1 0x20 SHR JUMP JUMPDEST PUSH1 0x0 DUP1 SLOAD SWAP1 PUSH2 0x100 EXP SWAP1 DIV PUSH20 0xFFFFFFFFFFFFFFFFFFFFFFFFFFFFFFFFFFFFFFFF AND PUSH1 0x1 PUSH1 0x0 PUSH2 0x100 EXP DUP2 SLOAD DUP2 PUSH20 0xFFFFFFFFFFFFFFFFFFFFFFFFFFFFFFFFFFFFFFFF MUL NOT AND SWAP1 DUP4 PUSH20 0xFFFFFFFFFFFFFFFFFFFFFFFFFFFFFFFFFFFFFFFF AND MUL OR SWAP1 SSTORE POP PUSH2 0x14F PUSH8 0xEEE538068E412A8E PUSH1 0xC0 SHL PUSH2 0x196 PUSH1 0x20 SHL PUSH1 0x20 SHR JUMP JUMPDEST CALLER PUSH1 0x2 PUSH1 0x0 PUSH2 0x100 EXP DUP2 SLOAD DUP2 PUSH20 0xFFFFFFFFFFFFFFFFFFFFFFFFFFFFFFFFFFFFFFFF MUL NOT AND SWAP1 DUP4 PUSH20 0xFFFFFFFFFFFFFFFFFFFFFFFFFFFFFFFFFFFFFFFF AND MUL OR SWAP1 SSTORE POP POP PUSH2 0x199 JUMP JUMPDEST POP JUMP JUMPDEST PUSH2 0x15B4 DUP1 PUSH3 0x1A9 PUSH1 0x0 CODECOPY PUSH1 0x0 RETURN INVALID PUSH1 0x80 PUSH1 0x40 MSTORE CALLVALUE DUP1 ISZERO PUSH2 0x10 JUMPI PUSH1 0x0 DUP1 REVERT JUMPDEST POP PUSH1 0x4 CALLDATASIZE LT PUSH2 0x57 JUMPI PUSH1 0x0 CALLDATALOAD PUSH1 0xE0 SHR DUP1 PUSH4 0x150B7A02 EQ PUSH2 0x5C JUMPI DUP1 PUSH4 0x36464789 EQ PUSH2 0x152 JUMPI DUP1 PUSH4 0x893D20E8 EQ PUSH2 0x186 JUMPI DUP1 PUSH4 0xA6F9DAE1 EQ PUSH2 0x1BA JUMPI DUP1 PUSH4 0xB88D4FDE EQ PUSH2 0x1FE JUMPI JUMPDEST PUSH1 0x0 DUP1 REVERT JUMPDEST PUSH2 0x11D PUSH1 0x4 DUP1 CALLDATASIZE SUB PUSH1 0x80 DUP2 LT ISZERO PUSH2 0x72 JUMPI PUSH1 0x0 DUP1 REVERT JUMPDEST DUP2 ADD SWAP1 DUP1 DUP1 CALLDATALOAD PUSH20 0xFFFFFFFFFFFFFFFFFFFFFFFFFFFFFFFFFFFFFFFF AND SWAP1 PUSH1 0x20 ADD SWAP1 SWAP3 SWAP2 SWAP1 DUP1 CALLDATALOAD PUSH20 0xFFFFFFFFFFFFFFFFFFFFFFFFFFFFFFFFFFFFFFFF AND SWAP1 PUSH1 0x20 ADD SWAP1 SWAP3 SWAP2 SWAP1 DUP1 CALLDATALOAD SWAP1 PUSH1 0x20 ADD SWAP1 SWAP3 SWAP2 SWAP1 DUP1 CALLDATALOAD SWAP1 PUSH1 0x20 ADD SWAP1 PUSH5 0x100000000 DUP2 GT ISZERO PUSH2 0xD9 JUMPI PUSH1 0x0 DUP1 REVERT JUMPDEST DUP3 ADD DUP4 PUSH1 0x20 DUP3 ADD GT ISZERO PUSH2 0xEB JUMPI PUSH1 0x0 DUP1 REVERT JUMPDEST DUP1 CALLDATALOAD SWAP1 PUSH1 0x20 ADD SWAP2 DUP5 PUSH1 0x1 DUP4 MUL DUP5 ADD GT PUSH5 0x100000000 DUP4 GT OR ISZERO PUSH2 0x10D JUMPI PUSH1 0x0 DUP1 REVERT JUMPDEST SWAP1 SWAP2 SWAP3 SWAP4 SWAP2 SWAP3 SWAP4 SWAP1 POP POP POP PUSH2 0x303 JUMP JUMPDEST PUSH1 0x40 MLOAD DUP1 DUP3 PUSH28 0xFFFFFFFFFFFFFFFFFFFFFFFFFFFFFFFFFFFFFFFFFFFFFFFFFFFFFFFF NOT AND DUP2 MSTORE PUSH1 0x20 ADD SWAP2 POP POP PUSH1 0x40 MLOAD DUP1 SWAP2 SUB SWAP1 RETURN JUMPDEST PUSH2 0x15A PUSH2 0x354 JUMP JUMPDEST PUSH1 0x40 MLOAD DUP1 DUP3 PUSH20 0xFFFFFFFFFFFFFFFFFFFFFFFFFFFFFFFFFFFFFFFF AND DUP2 MSTORE PUSH1 0x20 ADD SWAP2 POP POP PUSH1 0x40 MLOAD DUP1 SWAP2 SUB SWAP1 RETURN JUMPDEST PUSH2 0x18E PUSH2 0x3B8 JUMP JUMPDEST PUSH1 0x40 MLOAD DUP1 DUP3 PUSH20 0xFFFFFFFFFFFFFFFFFFFFFFFFFFFFFFFFFFFFFFFF AND DUP2 MSTORE PUSH1 0x20 ADD SWAP2 POP POP PUSH1 0x40 MLOAD DUP1 SWAP2 SUB SWAP1 RETURN JUMPDEST PUSH2 0x1FC PUSH1 0x4 DUP1 CALLDATASIZE SUB PUSH1 0x20 DUP2 LT ISZERO PUSH2 0x1D0 JUMPI PUSH1 0x0 DUP1 REVERT JUMPDEST DUP2 ADD SWAP1 DUP1 DUP1 CALLDATALOAD PUSH20 0xFFFFFFFFFFFFFFFFFFFFFFFFFFFFFFFFFFFFFFFF AND SWAP1 PUSH1 0x20 ADD SWAP1 SWAP3 SWAP2 SWAP1 POP POP POP PUSH2 0x41E JUMP JUMPDEST STOP JUMPDEST PUSH2 0x301 PUSH1 0x4 DUP1 CALLDATASIZE SUB PUSH1 0x80 DUP2 LT ISZERO PUSH2 0x214 JUMPI PUSH1 0x0 DUP1 REVERT JUMPDEST DUP2 ADD SWAP1 DUP1 DUP1 CALLDATALOAD PUSH20 0xFFFFFFFFFFFFFFFFFFFFFFFFFFFFFFFFFFFFFFFF AND SWAP1 PUSH1 0x20 ADD SWAP1 SWAP3 SWAP2 SWAP1 DUP1 CALLDATALOAD PUSH20 0xFFFFFFFFFFFFFFFFFFFFFFFFFFFFFFFFFFFFFFFF AND SWAP1 PUSH1 0x20 ADD SWAP1 SWAP3 SWAP2 SWAP1 DUP1 CALLDATALOAD SWAP1 PUSH1 0x20 ADD SWAP1 SWAP3 SWAP2 SWAP1 DUP1 CALLDATALOAD SWAP1 PUSH1 0x20 ADD SWAP1 PUSH5 0x100000000 DUP2 GT ISZERO PUSH2 0x27B JUMPI PUSH1 0x0 DUP1 REVERT JUMPDEST DUP3 ADD DUP4 PUSH1 0x20 DUP3 ADD GT ISZERO PUSH2 0x28D JUMPI PUSH1 0x0 DUP1 REVERT JUMPDEST DUP1 CALLDATALOAD SWAP1 PUSH1 0x20 ADD SWAP2 DUP5 PUSH1 0x1 DUP4 MUL DUP5 ADD GT PUSH5 0x100000000 DUP4 GT OR ISZERO PUSH2 0x2AF JUMPI PUSH1 0x0 DUP1 REVERT JUMPDEST SWAP2 SWAP1 DUP1 DUP1 PUSH1 0x1F ADD PUSH1 0x20 DUP1 SWAP2 DIV MUL PUSH1 0x20 ADD PUSH1 0x40 MLOAD SWAP1 DUP2 ADD PUSH1 0x40 MSTORE DUP1 SWAP4 SWAP3 SWAP2 SWAP1 DUP2 DUP2 MSTORE PUSH1 0x20 ADD DUP4 DUP4 DUP1 DUP3 DUP5 CALLDATACOPY PUSH1 0x0 DUP2 DUP5 ADD MSTORE PUSH1 0x1F NOT PUSH1 0x1F DUP3 ADD AND SWAP1 POP DUP1 DUP4 ADD SWAP3 POP POP POP POP POP POP POP SWAP2 SWAP3 SWAP2 SWAP3 SWAP1 POP POP POP PUSH2 0x71B JUMP JUMPDEST STOP JUMPDEST PUSH1 0x0 PUSH2 0x319 PUSH8 0x9FD4B458BDE496D3 PUSH1 0xC0 SHL PUSH2 0xA6A JUMP JUMPDEST PUSH2 0x32D PUSH8 0xD842A567B074678C PUSH1 0xC0 SHL PUSH2 0xA6A JUMP JUMPDEST PUSH2 0x341 PUSH8 0x40082C015A36B591 PUSH1 0xC0 SHL PUSH2 0xA6A JUMP JUMPDEST PUSH4 0x150B7A02 PUSH1 0xE0 SHL SWAP1 POP SWAP6 SWAP5 POP POP POP POP POP JUMP JUMPDEST PUSH1 0x0 PUSH2 0x36A PUSH8 0xCC80CBC9B9DEF77B PUSH1 0xC0 SHL PUSH2 0xA6A JUMP JUMPDEST PUSH2 0x37E PUSH8 0xBAA741AFA6FD6300 PUSH1 0xC0 SHL PUSH2 0xA6A JUMP JUMPDEST PUSH2 0x392 PUSH8 0xC3C660DC2288DEF2 PUSH1 0xC0 SHL PUSH2 0xA6A JUMP JUMPDEST PUSH1 0x0 DUP1 SLOAD SWAP1 PUSH2 0x100 EXP SWAP1 DIV PUSH20 0xFFFFFFFFFFFFFFFFFFFFFFFFFFFFFFFFFFFFFFFF AND SWAP1 POP SWAP1 JUMP JUMPDEST PUSH1 0x0 PUSH2 0x3CE PUSH8 0x5C223AFB98F6138D PUSH1 0xC0 SHL PUSH2 0xA6A JUMP JUMPDEST PUSH2 0x3E2 PUSH8 0x8C28349E419DCDFB PUSH1 0xC0 SHL PUSH2 0xA6A JUMP JUMPDEST PUSH2 0x3F6 PUSH8 0x3C30D1A0CDF3B9E1 PUSH1 0xC0 SHL PUSH2 0xA6A JUMP JUMPDEST PUSH1 0x2 PUSH1 0x0 SWAP1 SLOAD SWAP1 PUSH2 0x100 EXP SWAP1 DIV PUSH20 0xFFFFFFFFFFFFFFFFFFFFFFFFFFFFFFFFFFFFFFFF AND SWAP1 POP SWAP1 JUMP JUMPDEST PUSH2 0x432 PUSH8 0xA7547557C60D3DBB PUSH1 0xC0 SHL PUSH2 0xA6A JUMP JUMPDEST PUSH2 0x446 PUSH8 0xEFB8F79A74C4555F PUSH1 0xC0 SHL PUSH2 0xA6A JUMP JUMPDEST PUSH2 0x45A PUSH8 0x9B8C8F16672077E3 PUSH1 0xC0 SHL PUSH2 0xA6A JUMP JUMPDEST PUSH2 0x46E PUSH8 0xE68B02C332D0DA0F PUSH1 0xC0 SHL PUSH2 0xA6A JUMP JUMPDEST PUSH2 0x482 PUSH8 0xCFB17FBFF1A210EC PUSH1 0xC0 SHL PUSH2 0xA6A JUMP JUMPDEST PUSH1 0x2 PUSH1 0x0 SWAP1 SLOAD SWAP1 PUSH2 0x100 EXP SWAP1 DIV PUSH20 0xFFFFFFFFFFFFFFFFFFFFFFFFFFFFFFFFFFFFFFFF AND PUSH20 0xFFFFFFFFFFFFFFFFFFFFFFFFFFFFFFFFFFFFFFFF AND CALLER PUSH20 0xFFFFFFFFFFFFFFFFFFFFFFFFFFFFFFFFFFFFFFFF AND EQ PUSH2 0x545 JUMPI PUSH1 0x40 MLOAD PUSH32 0x8C379A000000000000000000000000000000000000000000000000000000000 DUP2 MSTORE PUSH1 0x4 ADD DUP1 DUP1 PUSH1 0x20 ADD DUP3 DUP2 SUB DUP3 MSTORE PUSH1 0xA DUP2 MSTORE PUSH1 0x20 ADD DUP1 PUSH32 0x4F4E4C595F4F574E455200000000000000000000000000000000000000000000 DUP2 MSTORE POP PUSH1 0x20 ADD SWAP2 POP POP PUSH1 0x40 MLOAD DUP1 SWAP2 SUB SWAP1 REVERT JUMPDEST PUSH2 0x559 PUSH8 0x782D0514BD4AFF93 PUSH1 0xC0 SHL PUSH2 0xA6A JUMP JUMPDEST PUSH2 0x56D PUSH8 0x5C8E7A51714067A0 PUSH1 0xC0 SHL PUSH2 0xA6A JUMP JUMPDEST PUSH2 0x581 PUSH8 0x58021074F3062A46 PUSH1 0xC0 SHL PUSH2 0xA6A JUMP JUMPDEST PUSH2 0x595 PUSH8 0xCF591FBEA180046C PUSH1 0xC0 SHL PUSH2 0xA6A JUMP JUMPDEST PUSH2 0x5A9 PUSH8 0x44BE7A5882E954E7 PUSH1 0xC0 SHL PUSH2 0xA6A JUMP JUMPDEST PUSH2 0x5BD PUSH8 0x77C7C1BA3DC64308 PUSH1 0xC0 SHL PUSH2 0xA6A JUMP JUMPDEST PUSH2 0x5D1 PUSH8 0x5380FF9750C329E1 PUSH1 0xC0 SHL PUSH2 0xA6A JUMP JUMPDEST PUSH1 0x0 PUSH20 0xFFFFFFFFFFFFFFFFFFFFFFFFFFFFFFFFFFFFFFFF AND DUP2 PUSH20 0xFFFFFFFFFFFFFFFFFFFFFFFFFFFFFFFFFFFFFFFF AND EQ ISZERO PUSH2 0x60B JUMPI PUSH1 0x0 DUP1 REVERT JUMPDEST PUSH2 0x61F PUSH8 0x6CDD386C480F2777 PUSH1 0xC0 SHL PUSH2 0xA6A JUMP JUMPDEST PUSH2 0x633 PUSH8 0xD018C2D308C983A4 PUSH1 0xC0 SHL PUSH2 0xA6A JUMP JUMPDEST PUSH2 0x647 PUSH8 0xD71740169EFAC826 PUSH1 0xC0 SHL PUSH2 0xA6A JUMP JUMPDEST DUP1 PUSH20 0xFFFFFFFFFFFFFFFFFFFFFFFFFFFFFFFFFFFFFFFF AND PUSH1 0x2 PUSH1 0x0 SWAP1 SLOAD SWAP1 PUSH2 0x100 EXP SWAP1 DIV PUSH20 0xFFFFFFFFFFFFFFFFFFFFFFFFFFFFFFFFFFFFFFFF AND PUSH20 0xFFFFFFFFFFFFFFFFFFFFFFFFFFFFFFFFFFFFFFFF AND PUSH32 0x8BE0079C531659141344CD1FD0A4F28419497F9722A3DAAFE3B4186F6B6457E0 PUSH1 0x40 MLOAD PUSH1 0x40 MLOAD DUP1 SWAP2 SUB SWAP1 LOG3 PUSH2 0x6D7 PUSH8 0xF00BBAFE37D9BF14 PUSH1 0xC0 SHL PUSH2 0xA6A JUMP JUMPDEST DUP1 PUSH1 0x2 PUSH1 0x0 PUSH2 0x100 EXP DUP2 SLOAD DUP2 PUSH20 0xFFFFFFFFFFFFFFFFFFFFFFFFFFFFFFFFFFFFFFFF MUL NOT AND SWAP1 DUP4 PUSH20 0xFFFFFFFFFFFFFFFFFFFFFFFFFFFFFFFFFFFFFFFF AND MUL OR SWAP1 SSTORE POP POP JUMP JUMPDEST PUSH2 0x72F PUSH8 0x7D510C734C64EB4F PUSH1 0xC0 SHL PUSH2 0xA6A JUMP JUMPDEST PUSH2 0x743 PUSH8 0xEFB8F79A74C4555F PUSH1 0xC0 SHL PUSH2 0xA6A JUMP JUMPDEST PUSH2 0x757 PUSH8 0x9B8C8F16672077E3 PUSH1 0xC0 SHL PUSH2 0xA6A JUMP JUMPDEST PUSH2 0x76B PUSH8 0xE68B02C332D0DA0F PUSH1 0xC0 SHL PUSH2 0xA6A JUMP JUMPDEST PUSH2 0x77F PUSH8 0xCFB17FBFF1A210EC PUSH1 0xC0 SHL PUSH2 0xA6A JUMP JUMPDEST PUSH1 0x2 PUSH1 0x0 SWAP1 SLOAD SWAP1 PUSH2 0x100 EXP SWAP1 DIV PUSH20 0xFFFFFFFFFFFFFFFFFFFFFFFFFFFFFFFFFFFFFFFF AND PUSH20 0xFFFFFFFFFFFFFFFFFFFFFFFFFFFFFFFFFFFFFFFF AND CALLER PUSH20 0xFFFFFFFFFFFFFFFFFFFFFFFFFFFFFFFFFFFFFFFF AND EQ PUSH2 0x842 JUMPI PUSH1 0x40 MLOAD PUSH32 0x8C379A000000000000000000000000000000000000000000000000000000000 DUP2 MSTORE PUSH1 0x4 ADD DUP1 DUP1 PUSH1 0x20 ADD DUP3 DUP2 SUB DUP3 MSTORE PUSH1 0xA DUP2 MSTORE PUSH1 0x20 ADD DUP1 PUSH32 0x4F4E4C595F4F574E455200000000000000000000000000000000000000000000 DUP2 MSTORE POP PUSH1 0x20 ADD SWAP2 POP POP PUSH1 0x40 MLOAD DUP1 SWAP2 SUB SWAP1 REVERT JUMPDEST PUSH2 0x856 PUSH8 0x782D0514BD4AFF93 PUSH1 0xC0 SHL PUSH2 0xA6A JUMP JUMPDEST PUSH2 0x86A PUSH8 0x5C8E7A51714067A0 PUSH1 0xC0 SHL PUSH2 0xA6A JUMP JUMPDEST PUSH2 0x87E PUSH8 0x5491D67FF2CAA880 PUSH1 0xC0 SHL PUSH2 0xA6A JUMP JUMPDEST PUSH2 0x892 PUSH8 0x3C9AEB0C9D077610 PUSH1 0xC0 SHL PUSH2 0xA6A JUMP JUMPDEST PUSH2 0x8A6 PUSH8 0x70807EA99ED2B68E PUSH1 0xC0 SHL PUSH2 0xA6A JUMP JUMPDEST PUSH2 0x8BA PUSH8 0x67D56145D4A7505C PUSH1 0xC0 SHL PUSH2 0xA6A JUMP JUMPDEST PUSH2 0x8CE PUSH8 0xB2C6BE2B50669B1B PUSH1 0xC0 SHL PUSH2 0xA6A JUMP JUMPDEST PUSH1 0x1 PUSH1 0x0 SWAP1 SLOAD SWAP1 PUSH2 0x100 EXP SWAP1 DIV PUSH20 0xFFFFFFFFFFFFFFFFFFFFFFFFFFFFFFFFFFFFFFFF AND PUSH20 0xFFFFFFFFFFFFFFFFFFFFFFFFFFFFFFFFFFFFFFFF AND PUSH4 0x6352211E DUP4 PUSH1 0x40 MLOAD DUP3 PUSH4 0xFFFFFFFF AND PUSH1 0xE0 SHL DUP2 MSTORE PUSH1 0x4 ADD DUP1 DUP3 DUP2 MSTORE PUSH1 0x20 ADD SWAP2 POP POP PUSH1 0x20 PUSH1 0x40 MLOAD DUP1 DUP4 SUB DUP2 DUP7 DUP1 EXTCODESIZE ISZERO DUP1 ISZERO PUSH2 0x941 JUMPI PUSH1 0x0 DUP1 REVERT JUMPDEST POP GAS STATICCALL ISZERO DUP1 ISZERO PUSH2 0x955 JUMPI RETURNDATASIZE PUSH1 0x0 DUP1 RETURNDATACOPY RETURNDATASIZE PUSH1 0x0 REVERT JUMPDEST POP POP POP POP PUSH1 0x40 MLOAD RETURNDATASIZE PUSH1 0x20 DUP2 LT ISZERO PUSH2 0x96B JUMPI PUSH1 0x0 DUP1 REVERT JUMPDEST DUP2 ADD SWAP1 DUP1 DUP1 MLOAD SWAP1 PUSH1 0x20 ADD SWAP1 SWAP3 SWAP2 SWAP1 POP POP POP PUSH20 0xFFFFFFFFFFFFFFFFFFFFFFFFFFFFFFFFFFFFFFFF AND DUP5 PUSH20 0xFFFFFFFFFFFFFFFFFFFFFFFFFFFFFFFFFFFFFFFF AND EQ PUSH2 0xA1C JUMPI PUSH1 0x40 MLOAD PUSH32 0x8C379A000000000000000000000000000000000000000000000000000000000 DUP2 MSTORE PUSH1 0x4 ADD DUP1 DUP1 PUSH1 0x20 ADD DUP3 DUP2 SUB DUP3 MSTORE PUSH1 0xD DUP2 MSTORE PUSH1 0x20 ADD DUP1 PUSH32 0x4E4F545F4E46545F4F574E455200000000000000000000000000000000000000 DUP2 MSTORE POP PUSH1 0x20 ADD SWAP2 POP POP PUSH1 0x40 MLOAD DUP1 SWAP2 SUB SWAP1 REVERT JUMPDEST PUSH2 0xA30 PUSH8 0x9A5A1DB77C58F4AF PUSH1 0xC0 SHL PUSH2 0xA6A JUMP JUMPDEST PUSH2 0xA44 PUSH8 0xFDA8CB7AD5B12F3F PUSH1 0xC0 SHL PUSH2 0xA6A JUMP JUMPDEST PUSH2 0xA58 PUSH8 0x6E0B793290DEE3B PUSH1 0xC0 SHL PUSH2 0xA6A JUMP JUMPDEST PUSH2 0xA64 DUP5 DUP5 DUP5 DUP5 PUSH2 0xA6D JUMP JUMPDEST POP POP POP POP JUMP JUMPDEST POP JUMP JUMPDEST PUSH2 0xA81 PUSH8 0x4595544F0FEAA355 PUSH1 0xC0 SHL PUSH2 0xA6A JUMP JUMPDEST PUSH2 0xA95 PUSH8 0x7C41DB795CCD7FB PUSH1 0xC0 SHL PUSH2 0xA6A JUMP JUMPDEST PUSH2 0xAA9 PUSH8 0xC44502C8E6A8C855 PUSH1 0xC0 SHL PUSH2 0xA6A JUMP JUMPDEST PUSH2 0xAB4 DUP5 DUP5 DUP5 PUSH2 0xB6B JUMP JUMPDEST PUSH2 0xAC8 PUSH8 0xE97B6E47B06FF599 PUSH1 0xC0 SHL PUSH2 0xA6A JUMP JUMPDEST PUSH2 0xADC PUSH8 0xA7C732CE58F88582 PUSH1 0xC0 SHL PUSH2 0xA6A JUMP JUMPDEST PUSH2 0xAF0 PUSH8 0xC8732947999150B6 PUSH1 0xC0 SHL PUSH2 0xA6A JUMP JUMPDEST PUSH2 0xAFC DUP5 DUP5 DUP5 DUP5 PUSH2 0xF4D JUMP JUMPDEST PUSH2 0xB51 JUMPI PUSH1 0x40 MLOAD PUSH32 0x8C379A000000000000000000000000000000000000000000000000000000000 DUP2 MSTORE PUSH1 0x4 ADD DUP1 DUP1 PUSH1 0x20 ADD DUP3 DUP2 SUB DUP3 MSTORE PUSH1 0x32 DUP2 MSTORE PUSH1 0x20 ADD DUP1 PUSH2 0x1503 PUSH1 0x32 SWAP2 CODECOPY PUSH1 0x40 ADD SWAP2 POP POP PUSH1 0x40 MLOAD DUP1 SWAP2 SUB SWAP1 REVERT JUMPDEST PUSH2 0xB65 PUSH8 0x5D8A3A08201DFCBC PUSH1 0xC0 SHL PUSH2 0xA6A JUMP JUMPDEST POP POP POP POP JUMP JUMPDEST PUSH2 0xB7F PUSH8 0xE60294FCD6D6BD68 PUSH1 0xC0 SHL PUSH2 0xA6A JUMP JUMPDEST PUSH2 0xB93 PUSH8 0xC92445E871008927 PUSH1 0xC0 SHL PUSH2 0xA6A JUMP JUMPDEST PUSH2 0xBA7 PUSH8 0x8BE554AC287DEFF3 PUSH1 0xC0 SHL PUSH2 0xA6A JUMP JUMPDEST PUSH2 0xBBB PUSH8 0x36670176993B8C7C PUSH1 0xC0 SHL PUSH2 0xA6A JUMP JUMPDEST PUSH1 0x0 PUSH20 0xFFFFFFFFFFFFFFFFFFFFFFFFFFFFFFFFFFFFFFFF AND DUP3 PUSH20 0xFFFFFFFFFFFFFFFFFFFFFFFFFFFFFFFFFFFFFFFF AND EQ ISZERO PUSH2 0xC41 JUMPI PUSH1 0x40 MLOAD PUSH32 0x8C379A000000000000000000000000000000000000000000000000000000000 DUP2 MSTORE PUSH1 0x4 ADD DUP1 DUP1 PUSH1 0x20 ADD DUP3 DUP2 SUB DUP3 MSTORE PUSH1 0x24 DUP2 MSTORE PUSH1 0x20 ADD DUP1 PUSH2 0x1535 PUSH1 0x24 SWAP2 CODECOPY PUSH1 0x40 ADD SWAP2 POP POP PUSH1 0x40 MLOAD DUP1 SWAP2 SUB SWAP1 REVERT JUMPDEST PUSH2 0xC55 PUSH8 0x9AC3CC18584D05CA PUSH1 0xC0 SHL PUSH2 0xA6A JUMP JUMPDEST PUSH2 0xC69 PUSH8 0xEAC9C8CEE262163D PUSH1 0xC0 SHL PUSH2 0xA6A JUMP JUMPDEST PUSH2 0xC7D PUSH8 0x54DA412A68AB4A6A PUSH1 0xC0 SHL PUSH2 0xA6A JUMP JUMPDEST PUSH1 0x0 DUP1 PUSH1 0x0 SWAP1 SLOAD SWAP1 PUSH2 0x100 EXP SWAP1 DIV PUSH20 0xFFFFFFFFFFFFFFFFFFFFFFFFFFFFFFFFFFFFFFFF AND PUSH20 0xFFFFFFFFFFFFFFFFFFFFFFFFFFFFFFFFFFFFFFFF AND DUP4 DUP4 PUSH1 0x40 MLOAD PUSH1 0x24 ADD DUP1 DUP4 PUSH20 0xFFFFFFFFFFFFFFFFFFFFFFFFFFFFFFFFFFFFFFFF AND DUP2 MSTORE PUSH1 0x20 ADD DUP3 DUP2 MSTORE PUSH1 0x20 ADD SWAP3 POP POP POP PUSH1 0x40 MLOAD PUSH1 0x20 DUP2 DUP4 SUB SUB DUP2 MSTORE SWAP1 PUSH1 0x40 MSTORE PUSH32 0xA9059CBB00000000000000000000000000000000000000000000000000000000 PUSH28 0xFFFFFFFFFFFFFFFFFFFFFFFFFFFFFFFFFFFFFFFFFFFFFFFFFFFFFFFF NOT AND PUSH1 0x20 DUP3 ADD DUP1 MLOAD PUSH28 0xFFFFFFFFFFFFFFFFFFFFFFFFFFFFFFFFFFFFFFFFFFFFFFFFFFFFFFFF DUP4 DUP2 DUP4 AND OR DUP4 MSTORE POP POP POP POP PUSH1 0x40 MLOAD DUP1 DUP3 DUP1 MLOAD SWAP1 PUSH1 0x20 ADD SWAP1 DUP1 DUP4 DUP4 JUMPDEST PUSH1 0x20 DUP4 LT PUSH2 0xD96 JUMPI DUP1 MLOAD DUP3 MSTORE PUSH1 0x20 DUP3 ADD SWAP2 POP PUSH1 0x20 DUP2 ADD SWAP1 POP PUSH1 0x20 DUP4 SUB SWAP3 POP PUSH2 0xD73 JUMP JUMPDEST PUSH1 0x1 DUP4 PUSH1 0x20 SUB PUSH2 0x100 EXP SUB DUP1 NOT DUP3 MLOAD AND DUP2 DUP5 MLOAD AND DUP1 DUP3 OR DUP6 MSTORE POP POP POP POP POP POP SWAP1 POP ADD SWAP2 POP POP PUSH1 0x0 PUSH1 0x40 MLOAD DUP1 DUP4 SUB DUP2 PUSH1 0x0 DUP7 GAS CALL SWAP2 POP POP RETURNDATASIZE DUP1 PUSH1 0x0 DUP2 EQ PUSH2 0xDF8 JUMPI PUSH1 0x40 MLOAD SWAP2 POP PUSH1 0x1F NOT PUSH1 0x3F RETURNDATASIZE ADD AND DUP3 ADD PUSH1 0x40 MSTORE RETURNDATASIZE DUP3 MSTORE RETURNDATASIZE PUSH1 0x0 PUSH1 0x20 DUP5 ADD RETURNDATACOPY PUSH2 0xDFD JUMP JUMPDEST PUSH1 0x60 SWAP2 POP JUMPDEST POP POP SWAP1 POP PUSH2 0xE15 PUSH8 0x6609BC59441F6640 PUSH1 0xC0 SHL PUSH2 0xA6A JUMP JUMPDEST PUSH2 0xE29 PUSH8 0xAF4FBB36AE73DFE2 PUSH1 0xC0 SHL PUSH2 0xA6A JUMP JUMPDEST PUSH2 0xE3D PUSH8 0x5765BFBC33B0E87D PUSH1 0xC0 SHL PUSH2 0xA6A JUMP JUMPDEST DUP1 PUSH2 0xEB0 JUMPI PUSH1 0x40 MLOAD PUSH32 0x8C379A000000000000000000000000000000000000000000000000000000000 DUP2 MSTORE PUSH1 0x4 ADD DUP1 DUP1 PUSH1 0x20 ADD DUP3 DUP2 SUB DUP3 MSTORE PUSH1 0xD DUP2 MSTORE PUSH1 0x20 ADD DUP1 PUSH32 0x526566756E64206661696C656400000000000000000000000000000000000000 DUP2 MSTORE POP PUSH1 0x20 ADD SWAP2 POP POP PUSH1 0x40 MLOAD DUP1 SWAP2 SUB SWAP1 REVERT JUMPDEST PUSH2 0xEC4 PUSH8 0x2EC45C582614B2B7 PUSH1 0xC0 SHL PUSH2 0xA6A JUMP JUMPDEST PUSH2 0xED8 PUSH8 0xE5DBDD86EECB0EC2 PUSH1 0xC0 SHL PUSH2 0xA6A JUMP JUMPDEST PUSH2 0xEEC PUSH8 0xD8A9766FE2C12E41 PUSH1 0xC0 SHL PUSH2 0xA6A JUMP JUMPDEST DUP2 DUP4 PUSH20 0xFFFFFFFFFFFFFFFFFFFFFFFFFFFFFFFFFFFFFFFF AND DUP6 PUSH20 0xFFFFFFFFFFFFFFFFFFFFFFFFFFFFFFFFFFFFFFFF AND PUSH32 0xDDF252AD1BE2C89B69C2B068FC378DAA952BA7F163C4A11628F55A4DF523B3EF PUSH1 0x40 MLOAD PUSH1 0x40 MLOAD DUP1 SWAP2 SUB SWAP1 LOG4 POP POP POP POP JUMP JUMPDEST PUSH1 0x0 PUSH2 0xF63 PUSH8 0x9534D6D75162532B PUSH1 0xC0 SHL PUSH2 0xA6A JUMP JUMPDEST PUSH2 0xF77 PUSH8 0x67E8CD995F30165F PUSH1 0xC0 SHL PUSH2 0xA6A JUMP JUMPDEST PUSH2 0xF8B PUSH8 0x5BB95DD4E792C37B PUSH1 0xC0 SHL PUSH2 0xA6A JUMP JUMPDEST PUSH2 0xFAA DUP5 PUSH20 0xFFFFFFFFFFFFFFFFFFFFFFFFFFFFFFFFFFFFFFFF AND PUSH2 0x1263 JUMP JUMPDEST PUSH2 0xFF3 JUMPI PUSH2 0xFC2 PUSH8 0xC5128678FF8C806 PUSH1 0xC0 SHL PUSH2 0xA6A JUMP JUMPDEST PUSH2 0xFD6 PUSH8 0x7FDF185089C5096D PUSH1 0xC0 SHL PUSH2 0xA6A JUMP JUMPDEST PUSH2 0xFEA PUSH8 0xAFA245E228CE823A PUSH1 0xC0 SHL PUSH2 0xA6A JUMP JUMPDEST PUSH1 0x1 SWAP1 POP PUSH2 0x125B JUMP JUMPDEST PUSH2 0x1007 PUSH8 0xDAFC9033FC01007 PUSH1 0xC0 SHL PUSH2 0xA6A JUMP JUMPDEST PUSH2 0x101B PUSH8 0xA466120CB7C0C3A6 PUSH1 0xC0 SHL PUSH2 0xA6A JUMP JUMPDEST PUSH2 0x102F PUSH8 0xD95DB82E0251171D PUSH1 0xC0 SHL PUSH2 0xA6A JUMP JUMPDEST PUSH1 0x0 PUSH2 0x1192 PUSH4 0x150B7A02 PUSH1 0xE0 SHL CALLER DUP9 DUP8 DUP8 PUSH1 0x40 MLOAD PUSH1 0x24 ADD DUP1 DUP6 PUSH20 0xFFFFFFFFFFFFFFFFFFFFFFFFFFFFFFFFFFFFFFFF AND DUP2 MSTORE PUSH1 0x20 ADD DUP5 PUSH20 0xFFFFFFFFFFFFFFFFFFFFFFFFFFFFFFFFFFFFFFFF AND DUP2 MSTORE PUSH1 0x20 ADD DUP4 DUP2 MSTORE PUSH1 0x20 ADD DUP1 PUSH1 0x20 ADD DUP3 DUP2 SUB DUP3 MSTORE DUP4 DUP2 DUP2 MLOAD DUP2 MSTORE PUSH1 0x20 ADD SWAP2 POP DUP1 MLOAD SWAP1 PUSH1 0x20 ADD SWAP1 DUP1 DUP4 DUP4 PUSH1 0x0 JUMPDEST DUP4 DUP2 LT ISZERO PUSH2 0x10C1 JUMPI DUP1 DUP3 ADD MLOAD DUP2 DUP5 ADD MSTORE PUSH1 0x20 DUP2 ADD SWAP1 POP PUSH2 0x10A6 JUMP JUMPDEST POP POP POP POP SWAP1 POP SWAP1 DUP2 ADD SWAP1 PUSH1 0x1F AND DUP1 ISZERO PUSH2 0x10EE JUMPI DUP1 DUP3 SUB DUP1 MLOAD PUSH1 0x1 DUP4 PUSH1 0x20 SUB PUSH2 0x100 EXP SUB NOT AND DUP2 MSTORE PUSH1 0x20 ADD SWAP2 POP JUMPDEST POP SWAP6 POP POP POP POP POP POP PUSH1 0x40 MLOAD PUSH1 0x20 DUP2 DUP4 SUB SUB DUP2 MSTORE SWAP1 PUSH1 0x40 MSTORE SWAP1 PUSH28 0xFFFFFFFFFFFFFFFFFFFFFFFFFFFFFFFFFFFFFFFFFFFFFFFFFFFFFFFF NOT AND PUSH1 0x20 DUP3 ADD DUP1 MLOAD PUSH28 0xFFFFFFFFFFFFFFFFFFFFFFFFFFFFFFFFFFFFFFFFFFFFFFFFFFFFFFFF DUP4 DUP2 DUP4 AND OR DUP4 MSTORE POP POP POP POP PUSH1 0x40 MLOAD DUP1 PUSH1 0x60 ADD PUSH1 0x40 MSTORE DUP1 PUSH1 0x32 DUP2 MSTORE PUSH1 0x20 ADD PUSH2 0x1503 PUSH1 0x32 SWAP2 CODECOPY DUP8 PUSH20 0xFFFFFFFFFFFFFFFFFFFFFFFFFFFFFFFFFFFFFFFF AND PUSH2 0x1276 SWAP1 SWAP3 SWAP2 SWAP1 PUSH4 0xFFFFFFFF AND JUMP JUMPDEST SWAP1 POP PUSH2 0x11A8 PUSH8 0x20C0DF1FCA065399 PUSH1 0xC0 SHL PUSH2 0xA6A JUMP JUMPDEST PUSH2 0x11BC PUSH8 0x5D9BDE75AA38D6C6 PUSH1 0xC0 SHL PUSH2 0xA6A JUMP JUMPDEST PUSH1 0x0 DUP2 DUP1 PUSH1 0x20 ADD SWAP1 MLOAD PUSH1 0x20 DUP2 LT ISZERO PUSH2 0x11D3 JUMPI PUSH1 0x0 DUP1 REVERT JUMPDEST DUP2 ADD SWAP1 DUP1 DUP1 MLOAD SWAP1 PUSH1 0x20 ADD SWAP1 SWAP3 SWAP2 SWAP1 POP POP POP SWAP1 POP PUSH2 0x11FA PUSH8 0x2ABF1E3D16B8DD92 PUSH1 0xC0 SHL PUSH2 0xA6A JUMP JUMPDEST PUSH2 0x120E PUSH8 0x5EECED4725E24454 PUSH1 0xC0 SHL PUSH2 0xA6A JUMP JUMPDEST PUSH4 0x150B7A02 PUSH1 0xE0 SHL PUSH28 0xFFFFFFFFFFFFFFFFFFFFFFFFFFFFFFFFFFFFFFFFFFFFFFFFFFFFFFFF NOT AND DUP2 PUSH28 0xFFFFFFFFFFFFFFFFFFFFFFFFFFFFFFFFFFFFFFFFFFFFFFFFFFFFFFFF NOT AND EQ SWAP3 POP POP POP JUMPDEST SWAP5 SWAP4 POP POP POP POP JUMP JUMPDEST PUSH1 0x0 DUP1 DUP3 EXTCODESIZE SWAP1 POP PUSH1 0x0 DUP2 GT SWAP2 POP POP SWAP2 SWAP1 POP JUMP JUMPDEST PUSH1 0x60 PUSH2 0x1285 DUP5 DUP5 PUSH1 0x0 DUP6 PUSH2 0x128E JUMP JUMPDEST SWAP1 POP SWAP4 SWAP3 POP POP POP JUMP JUMPDEST PUSH1 0x60 DUP3 SELFBALANCE LT ISZERO PUSH2 0x12E9 JUMPI PUSH1 0x40 MLOAD PUSH32 0x8C379A000000000000000000000000000000000000000000000000000000000 DUP2 MSTORE PUSH1 0x4 ADD DUP1 DUP1 PUSH1 0x20 ADD DUP3 DUP2 SUB DUP3 MSTORE PUSH1 0x26 DUP2 MSTORE PUSH1 0x20 ADD DUP1 PUSH2 0x1559 PUSH1 0x26 SWAP2 CODECOPY PUSH1 0x40 ADD SWAP2 POP POP PUSH1 0x40 MLOAD DUP1 SWAP2 SUB SWAP1 REVERT JUMPDEST PUSH2 0x12F2 DUP6 PUSH2 0x1263 JUMP JUMPDEST PUSH2 0x1364 JUMPI PUSH1 0x40 MLOAD PUSH32 0x8C379A000000000000000000000000000000000000000000000000000000000 DUP2 MSTORE PUSH1 0x4 ADD DUP1 DUP1 PUSH1 0x20 ADD DUP3 DUP2 SUB DUP3 MSTORE PUSH1 0x1D DUP2 MSTORE PUSH1 0x20 ADD DUP1 PUSH32 0x416464726573733A2063616C6C20746F206E6F6E2D636F6E7472616374000000 DUP2 MSTORE POP PUSH1 0x20 ADD SWAP2 POP POP PUSH1 0x40 MLOAD DUP1 SWAP2 SUB SWAP1 REVERT JUMPDEST PUSH1 0x0 DUP1 DUP7 PUSH20 0xFFFFFFFFFFFFFFFFFFFFFFFFFFFFFFFFFFFFFFFF AND DUP6 DUP8 PUSH1 0x40 MLOAD DUP1 DUP3 DUP1 MLOAD SWAP1 PUSH1 0x20 ADD SWAP1 DUP1 DUP4 DUP4 JUMPDEST PUSH1 0x20 DUP4 LT PUSH2 0x13B3 JUMPI DUP1 MLOAD DUP3 MSTORE PUSH1 0x20 DUP3 ADD SWAP2 POP PUSH1 0x20 DUP2 ADD SWAP1 POP PUSH1 0x20 DUP4 SUB SWAP3 POP PUSH2 0x1390 JUMP JUMPDEST PUSH1 0x1 DUP4 PUSH1 0x20 SUB PUSH2 0x100 EXP SUB DUP1 NOT DUP3 MLOAD AND DUP2 DUP5 MLOAD AND DUP1 DUP3 OR DUP6 MSTORE POP POP POP POP POP POP SWAP1 POP ADD SWAP2 POP POP PUSH1 0x0 PUSH1 0x40 MLOAD DUP1 DUP4 SUB DUP2 DUP6 DUP8 GAS CALL SWAP3 POP POP POP RETURNDATASIZE DUP1 PUSH1 0x0 DUP2 EQ PUSH2 0x1415 JUMPI PUSH1 0x40 MLOAD SWAP2 POP PUSH1 0x1F NOT PUSH1 0x3F RETURNDATASIZE ADD AND DUP3 ADD PUSH1 0x40 MSTORE RETURNDATASIZE DUP3 MSTORE RETURNDATASIZE PUSH1 0x0 PUSH1 0x20 DUP5 ADD RETURNDATACOPY PUSH2 0x141A JUMP JUMPDEST PUSH1 0x60 SWAP2 POP JUMPDEST POP SWAP2 POP SWAP2 POP PUSH2 0x142A DUP3 DUP3 DUP7 PUSH2 0x1436 JUMP JUMPDEST SWAP3 POP POP POP SWAP5 SWAP4 POP POP POP POP JUMP JUMPDEST PUSH1 0x60 DUP4 ISZERO PUSH2 0x1446 JUMPI DUP3 SWAP1 POP PUSH2 0x14FB JUMP JUMPDEST PUSH1 0x0 DUP4 MLOAD GT ISZERO PUSH2 0x1459 JUMPI DUP3 MLOAD DUP1 DUP5 PUSH1 0x20 ADD REVERT JUMPDEST DUP2 PUSH1 0x40 MLOAD PUSH32 0x8C379A000000000000000000000000000000000000000000000000000000000 DUP2 MSTORE PUSH1 0x4 ADD DUP1 DUP1 PUSH1 0x20 ADD DUP3 DUP2 SUB DUP3 MSTORE DUP4 DUP2 DUP2 MLOAD DUP2 MSTORE PUSH1 0x20 ADD SWAP2 POP DUP1 MLOAD SWAP1 PUSH1 0x20 ADD SWAP1 DUP1 DUP4 DUP4 PUSH1 0x0 JUMPDEST DUP4 DUP2 LT ISZERO PUSH2 0x14C0 JUMPI DUP1 DUP3 ADD MLOAD DUP2 DUP5 ADD MSTORE PUSH1 0x20 DUP2 ADD SWAP1 POP PUSH2 0x14A5 JUMP JUMPDEST POP POP POP POP SWAP1 POP SWAP1 DUP2 ADD SWAP1 PUSH1 0x1F AND DUP1 ISZERO PUSH2 0x14ED JUMPI DUP1 DUP3 SUB DUP1 MLOAD PUSH1 0x1 DUP4 PUSH1 0x20 SUB PUSH2 0x100 EXP SUB NOT AND DUP2 MSTORE PUSH1 0x20 ADD SWAP2 POP JUMPDEST POP SWAP3 POP POP POP PUSH1 0x40 MLOAD DUP1 SWAP2 SUB SWAP1 REVERT JUMPDEST SWAP4 SWAP3 POP POP POP JUMP INVALID GASLIMIT MSTORE NUMBER CALLDATACOPY ORIGIN BALANCE GASPRICE KECCAK256 PUSH21 0x72616E7366657220746F206E6F6E20455243373231 MSTORE PUSH6 0x636569766572 KECCAK256 PUSH10 0x6D706C656D656E746572 GASLIMIT MSTORE NUMBER CALLDATACOPY ORIGIN BALANCE GASPRICE KECCAK256 PUSH21 0x72616E7366657220746F20746865207A65726F2061 PUSH5 0x6472657373 COINBASE PUSH5 0x6472657373 GASPRICE KECCAK256 PUSH10 0x6E73756666696369656E PUSH21 0x2062616C616E636520666F722063616C6CA2646970 PUSH7 0x73582212205C30 DUP11 0xA7 PUSH12 0x8E0161ADAC15BF854DBF1CE1 0x25 0xC ISZERO 0xBA PUSH4 0xE850D63B 0xE 0xC2 0xEE DIFFICULTY PUSH2 0x5F64 PUSH20 0x6F6C634300070600330000000000000000000000 "},"methodIdentifiers":{"changeOwner(address)":"a6f9dae1","getOwner()":"893d20e8","getSupeRareAddress()":"36464789","onERC721Received(address,address,uint256,bytes)":"150b7a02","safeTransferFrom(address,address,uint256,bytes)":"b88d4fde"}}}}}