{
  "_format": "hh-sol-artifact-1",
  "contractName": "SwapContract",
  "sourceName": "contracts/SwapContract.sol",
  "abi": [
    {
      "inputs": [
        {
          "internalType": "address",
          "name": "WETH_",
          "type": "address"
        },
        {
          "internalType": "address",
          "name": "DAI_",
          "type": "address"
        },
        {
          "internalType": "contract ISwapRouter",
          "name": "_swapRouter",
          "type": "address"
        }
      ],
      "stateMutability": "payable",
      "type": "constructor"
    },
    {
      "anonymous": false,
      "inputs": [
        {
          "indexed": false,
          "internalType": "address",
          "name": "_refunder",
          "type": "address"
        },
        {
          "indexed": false,
          "internalType": "uint256",
          "name": "_value",
          "type": "uint256"
        }
      ],
      "name": "Refund",
      "type": "event"
    },
    {
      "anonymous": false,
      "inputs": [
        {
          "indexed": false,
          "internalType": "uint256",
          "name": "_amount",
          "type": "uint256"
        }
      ],
      "name": "SwapCompleted",
      "type": "event"
    },
    {
      "anonymous": false,
      "inputs": [
        {
          "indexed": false,
          "internalType": "bool",
          "name": "",
          "type": "bool"
        }
      ],
      "name": "ToggleStartStop",
      "type": "event"
    },
    {
      "anonymous": false,
      "inputs": [
        {
          "indexed": false,
          "internalType": "address",
          "name": "_weth",
          "type": "address"
        }
      ],
      "name": "WETHAddr_Changed",
      "type": "event"
    },
    {
      "inputs": [],
      "name": "SwapAllETH_DAI",
      "outputs": [
        {
          "internalType": "uint256",
          "name": "amountOut",
          "type": "uint256"
        }
      ],
      "stateMutability": "payable",
      "type": "function"
    },
    {
      "inputs": [
        {
          "internalType": "uint256",
          "name": "amountToUse",
          "type": "uint256"
        }
      ],
      "name": "SwapSomeETH_DAI",
      "outputs": [
        {
          "internalType": "uint256",
          "name": "amountOut",
          "type": "uint256"
        }
      ],
      "stateMutability": "payable",
      "type": "function"
    },
    {
      "inputs": [],
      "name": "ToggleContract",
      "outputs": [],
      "stateMutability": "nonpayable",
      "type": "function"
    },
    {
      "inputs": [],
      "name": "getContractBalance",
      "outputs": [
        {
          "internalType": "uint256",
          "name": "",
          "type": "uint256"
        }
      ],
      "stateMutability": "view",
      "type": "function"
    },
    {
      "inputs": [],
      "name": "getContractWETHBalance",
      "outputs": [
        {
          "internalType": "uint256",
          "name": "",
          "type": "uint256"
        }
      ],
      "stateMutability": "view",
      "type": "function"
    },
    {
      "inputs": [],
      "name": "getDAIAddr",
      "outputs": [
        {
          "internalType": "address",
          "name": "",
          "type": "address"
        }
      ],
      "stateMutability": "view",
      "type": "function"
    },
    {
      "inputs": [
        {
          "internalType": "address",
          "name": "account",
          "type": "address"
        }
      ],
      "name": "getDAIBalance",
      "outputs": [
        {
          "internalType": "uint256",
          "name": "",
          "type": "uint256"
        }
      ],
      "stateMutability": "view",
      "type": "function"
    },
    {
      "inputs": [],
      "name": "getWETHAddr",
      "outputs": [
        {
          "internalType": "address",
          "name": "",
          "type": "address"
        }
      ],
      "stateMutability": "view",
      "type": "function"
    },
    {
      "inputs": [
        {
          "internalType": "address",
          "name": "account",
          "type": "address"
        }
      ],
      "name": "getWETHBalance",
      "outputs": [
        {
          "internalType": "uint256",
          "name": "",
          "type": "uint256"
        }
      ],
      "stateMutability": "view",
      "type": "function"
    },
    {
      "inputs": [],
      "name": "owner",
      "outputs": [
        {
          "internalType": "address",
          "name": "",
          "type": "address"
        }
      ],
      "stateMutability": "view",
      "type": "function"
    },
    {
      "inputs": [],
      "name": "swapRouter",
      "outputs": [
        {
          "internalType": "contract ISwapRouter",
          "name": "",
          "type": "address"
        }
      ],
      "stateMutability": "view",
      "type": "function"
    }
  ],
  "bytecode": "0x60a0604052604051620022aa380380620022aa83398181016040528101906200002991906200021f565b82600360006101000a81548173ffffffffffffffffffffffffffffffffffffffff021916908373ffffffffffffffffffffffffffffffffffffffff16021790555081600460006101000a81548173ffffffffffffffffffffffffffffffffffffffff021916908373ffffffffffffffffffffffffffffffffffffffff160217905550600360009054906101000a900473ffffffffffffffffffffffffffffffffffffffff16600160006101000a81548173ffffffffffffffffffffffffffffffffffffffff021916908373ffffffffffffffffffffffffffffffffffffffff160217905550600460009054906101000a900473ffffffffffffffffffffffffffffffffffffffff16600260006101000a81548173ffffffffffffffffffffffffffffffffffffffff021916908373ffffffffffffffffffffffffffffffffffffffff1602179055508073ffffffffffffffffffffffffffffffffffffffff1660808173ffffffffffffffffffffffffffffffffffffffff1660601b81525050336000806101000a81548173ffffffffffffffffffffffffffffffffffffffff021916908373ffffffffffffffffffffffffffffffffffffffff160217905550505050620002f1565b6000815190506200020281620002bd565b92915050565b6000815190506200021981620002d7565b92915050565b6000806000606084860312156200023557600080fd5b60006200024586828701620001f1565b93505060206200025886828701620001f1565b92505060406200026b8682870162000208565b9150509250925092565b600062000282826200029d565b9050919050565b6000620002968262000275565b9050919050565b600073ffffffffffffffffffffffffffffffffffffffff82169050919050565b620002c88162000275565b8114620002d457600080fd5b50565b620002e28162000289565b8114620002ee57600080fd5b50565b60805160601c611f8262000328600039806106c9528061079c528061091e5280610cf75280610dca52806113a15250611f826000f3fe60806040526004361061009c5760003560e01c80636f9fb98a116100645780636f9fb98a1461019c5780638da5cb5b146101c7578063aee58134146101f2578063c31c9c0714610210578063cfa2e0041461023b578063f280da99146102525761009c565b80631bad4d2c146100a157806324cc246a146100cc57806337d65b3f1461010957806368ba02fa146101465780636b272c0c14610171575b600080fd5b3480156100ad57600080fd5b506100b6610282565b6040516100c39190611bf1565b60405180910390f35b3480156100d857600080fd5b506100f360048036038101906100ee91906118f5565b6102ac565b6040516101009190611d74565b60405180910390f35b34801561011557600080fd5b50610130600480360381019061012b91906118f5565b6102be565b60405161013d9190611d74565b60405180910390f35b34801561015257600080fd5b5061015b6102d0565b6040516101689190611d74565b60405180910390f35b34801561017d57600080fd5b5061018661036e565b6040516101939190611bf1565b60405180910390f35b3480156101a857600080fd5b506101b1610398565b6040516101be9190611d74565b60405180910390f35b3480156101d357600080fd5b506101dc61042e565b6040516101e99190611bf1565b60405180910390f35b6101fa610457565b6040516102079190611d74565b60405180910390f35b34801561021c57600080fd5b5061022561091c565b6040516102329190611cbd565b60405180910390f35b34801561024757600080fd5b50610250610940565b005b61026c60048036038101906102679190611947565b610a40565b6040516102799190611d74565b60405180910390f35b6000600360009054906101000a900473ffffffffffffffffffffffffffffffffffffffff16905090565b60006102b782610fd8565b9050919050565b60006102c98261108c565b9050919050565b60003373ffffffffffffffffffffffffffffffffffffffff1660008054906101000a900473ffffffffffffffffffffffffffffffffffffffff1673ffffffffffffffffffffffffffffffffffffffff1614610360576040517f08c379a000000000000000000000000000000000000000000000000000000000815260040161035790611cf8565b60405180910390fd5b6103693061108c565b905090565b6000600460009054906101000a900473ffffffffffffffffffffffffffffffffffffffff16905090565b60003373ffffffffffffffffffffffffffffffffffffffff1660008054906101000a900473ffffffffffffffffffffffffffffffffffffffff1673ffffffffffffffffffffffffffffffffffffffff1614610428576040517f08c379a000000000000000000000000000000000000000000000000000000000815260040161041f90611cf8565b60405180910390fd5b47905090565b60008060009054906101000a900473ffffffffffffffffffffffffffffffffffffffff16905090565b6000600460149054906101000a900460ff16156104a9576040517f08c379a00000000000000000000000000000000000000000000000000000000081526004016104a090611d38565b60405180910390fd5b60003390506104cd8173ffffffffffffffffffffffffffffffffffffffff16611140565b1561050d576040517f08c379a000000000000000000000000000000000000000000000000000000000815260040161050490611cd8565b60405180910390fd5b61054c6040518060400160405280600c81526020017f416d6f756e742053656e743a000000000000000000000000000000000000000081525034611153565b6105c46040518060400160405280600c81526020017f5745544820537570706c793a0000000000000000000000000000000000000000815250600360009054906101000a900473ffffffffffffffffffffffffffffffffffffffff1673ffffffffffffffffffffffffffffffffffffffff1631611153565b61063c6040518060400160405280600b81526020017f44414920537570706c793a000000000000000000000000000000000000000000815250600460009054906101000a900473ffffffffffffffffffffffffffffffffffffffff1673ffffffffffffffffffffffffffffffffffffffff1631611153565b6106453461125a565b60003490506106896040518060400160405280601e81526020017f42616c616e6365206f662061646472657373287468697329206166746572000081525082611153565b600160009054906101000a900473ffffffffffffffffffffffffffffffffffffffff1673ffffffffffffffffffffffffffffffffffffffff1663095ea7b37f0000000000000000000000000000000000000000000000000000000000000000836040518363ffffffff1660e01b8152600401610706929190611c79565b602060405180830381600087803b15801561072057600080fd5b505af1158015610734573d6000803e3d6000fd5b505050506040513d601f19601f82011682018060405250810190610758919061191e565b506000600160009054906101000a900473ffffffffffffffffffffffffffffffffffffffff1673ffffffffffffffffffffffffffffffffffffffff1663dd62ed3e307f00000000000000000000000000000000000000000000000000000000000000006040518363ffffffff1660e01b81526004016107d8929190611c50565b60206040518083038186803b1580156107f057600080fd5b505afa158015610804573d6000803e3d6000fd5b505050506040513d601f19601f820116820180604052508101906108289190611970565b905061084c604051806060016040528060238152602001611ea26023913982611153565b61089e600360009054906101000a900473ffffffffffffffffffffffffffffffffffffffff16600460009054906101000a900473ffffffffffffffffffffffffffffffffffffffff16610bb885611301565b93506108df6040518060400160405280600a81526020017f616d6f756e744f75743a0000000000000000000000000000000000000000000081525085611153565b7f02f857175b5562dc8e8fe1cc6d39215bf823a07a685f52fba82f1e637d4185138460405161090e9190611d74565b60405180910390a150505090565b7f000000000000000000000000000000000000000000000000000000000000000081565b3373ffffffffffffffffffffffffffffffffffffffff1660008054906101000a900473ffffffffffffffffffffffffffffffffffffffff1673ffffffffffffffffffffffffffffffffffffffff16146109ce576040517f08c379a00000000000000000000000000000000000000000000000000000000081526004016109c590611cf8565b60405180910390fd5b600460149054906101000a900460ff1615600460146101000a81548160ff0219169083151502179055507f52b85b02b7d21238e828a5c4da635eedf42851c8d1db199f9d414f941e89b650600460149054906101000a900460ff16604051610a369190611ca2565b60405180910390a1565b6000600460149054906101000a900460ff1615610a92576040517f08c379a0000000000000000000000000000000000000000000000000000000008152600401610a8990611d38565b60405180910390fd5b6000339050610ab68173ffffffffffffffffffffffffffffffffffffffff16611140565b15610af6576040517f08c379a0000000000000000000000000000000000000000000000000000000008152600401610aed90611cd8565b60405180910390fd5b610b356040518060400160405280600c81526020017f416d6f756e742053656e743a000000000000000000000000000000000000000081525034611153565b610b746040518060400160405280600e81526020017f416d6f756e7420546f207573653a00000000000000000000000000000000000081525084611153565b610bec6040518060400160405280600c81526020017f5745544820537570706c793a0000000000000000000000000000000000000000815250600360009054906101000a900473ffffffffffffffffffffffffffffffffffffffff1673ffffffffffffffffffffffffffffffffffffffff1631611153565b610c646040518060400160405280600b81526020017f44414920537570706c793a000000000000000000000000000000000000000000815250600460009054906101000a900473ffffffffffffffffffffffffffffffffffffffff1673ffffffffffffffffffffffffffffffffffffffff1631611153565b610c6f338434611455565b610c788361125a565b610cb76040518060400160405280601d81526020017f574554482042616c616e6365206f66207468697320636f6e747261637400000081525047611153565b600160009054906101000a900473ffffffffffffffffffffffffffffffffffffffff1673ffffffffffffffffffffffffffffffffffffffff1663095ea7b37f0000000000000000000000000000000000000000000000000000000000000000856040518363ffffffff1660e01b8152600401610d34929190611c79565b602060405180830381600087803b158015610d4e57600080fd5b505af1158015610d62573d6000803e3d6000fd5b505050506040513d601f19601f82011682018060405250810190610d86919061191e565b506000600160009054906101000a900473ffffffffffffffffffffffffffffffffffffffff1673ffffffffffffffffffffffffffffffffffffffff1663dd62ed3e307f00000000000000000000000000000000000000000000000000000000000000006040518363ffffffff1660e01b8152600401610e06929190611c50565b60206040518083038186803b158015610e1e57600080fd5b505afa158015610e32573d6000803e3d6000fd5b505050506040513d601f19601f82011682018060405250810190610e569190611970565b9050610e7a604051806060016040528060238152602001611ea26023913982611153565b610ecc600360009054906101000a900473ffffffffffffffffffffffffffffffffffffffff16600460009054906101000a900473ffffffffffffffffffffffffffffffffffffffff16610bb887611301565b9250610f9a604051806060016040528060218152602001611ec560219139600260009054906101000a900473ffffffffffffffffffffffffffffffffffffffff1673ffffffffffffffffffffffffffffffffffffffff166370a08231336040518263ffffffff1660e01b8152600401610f459190611c0c565b60206040518083038186803b158015610f5d57600080fd5b505afa158015610f71573d6000803e3d6000fd5b505050506040513d601f19601f82011682018060405250810190610f959190611970565b611153565b7f02f857175b5562dc8e8fe1cc6d39215bf823a07a685f52fba82f1e637d41851383604051610fc99190611d74565b60405180910390a15050919050565b6000600260009054906101000a900473ffffffffffffffffffffffffffffffffffffffff1673ffffffffffffffffffffffffffffffffffffffff166370a08231836040518263ffffffff1660e01b81526004016110359190611bf1565b60206040518083038186803b15801561104d57600080fd5b505afa158015611061573d6000803e3d6000fd5b505050506040513d601f19601f820116820180604052508101906110859190611970565b9050919050565b6000600160009054906101000a900473ffffffffffffffffffffffffffffffffffffffff1673ffffffffffffffffffffffffffffffffffffffff166370a08231836040518263ffffffff1660e01b81526004016110e99190611bf1565b60206040518083038186803b15801561110157600080fd5b505afa158015611115573d6000803e3d6000fd5b505050506040513d601f19601f820116820180604052508101906111399190611970565b9050919050565b600080823b905060008111915050919050565b61125682826040516024018080602001838152602001828103825284818151815260200191508051906020019080838360005b838110156111a1578082015181840152602081019050611186565b50505050905090810190601f1680156111ce5780820380516001836020036101000a031916815260200191505b5093505050506040516020818303038152906040527fb60e72cc000000000000000000000000000000000000000000000000000000007bffffffffffffffffffffffffffffffffffffffffffffffffffffffff19166020820180517bffffffffffffffffffffffffffffffffffffffffffffffffffffffff83818316178352505050506114fd565b5050565b61127b604051806060016040528060298152602001611ee660299139611526565b600160009054906101000a900473ffffffffffffffffffffffffffffffffffffffff1673ffffffffffffffffffffffffffffffffffffffff1663d0e30db0826040518263ffffffff1660e01b81526004016000604051808303818588803b1580156112e557600080fd5b505af11580156112f9573d6000803e3d6000fd5b505050505050565b6000806040518061010001604052808773ffffffffffffffffffffffffffffffffffffffff1681526020018673ffffffffffffffffffffffffffffffffffffffff1681526020018562ffffff1681526020013373ffffffffffffffffffffffffffffffffffffffff16815260200142815260200184815260200160008152602001600073ffffffffffffffffffffffffffffffffffffffff1681525090507f000000000000000000000000000000000000000000000000000000000000000073ffffffffffffffffffffffffffffffffffffffff1663414bf389826040518263ffffffff1660e01b81526004016113f89190611d58565b602060405180830381600087803b15801561141257600080fd5b505af1158015611426573d6000803e3d6000fd5b505050506040513d601f19601f8201168201806040525081019061144a9190611970565b915050949350505050565b818111156114f8576000611472838361162490919063ffffffff16565b90506114b36040518060400160405280602081526020017f5f726566756e642046756e6374696f6e3a20526566756e6420416d6f756e743a81525082611153565b6114bd84826116a7565b7fbb28353e4598c3b9199101a66e0989549b659a59a54d2c27fbb183f1932c8e6d84826040516114ee929190611c27565b60405180910390a1505b505050565b60008151905060006a636f6e736f6c652e6c6f679050602083016000808483855afa5050505050565b611621816040516024018080602001828103825283818151815260200191508051906020019080838360005b8381101561156d578082015181840152602081019050611552565b50505050905090810190601f16801561159a5780820380516001836020036101000a031916815260200191505b50925050506040516020818303038152906040527f41304fac000000000000000000000000000000000000000000000000000000007bffffffffffffffffffffffffffffffffffffffffffffffffffffffff19166020820180517bffffffffffffffffffffffffffffffffffffffffffffffffffffffff83818316178352505050506114fd565b50565b60008282111561169c576040517f08c379a000000000000000000000000000000000000000000000000000000000815260040180806020018281038252601e8152602001807f536166654d6174683a207375627472616374696f6e206f766572666c6f77000081525060200191505060405180910390fd5b818303905092915050565b6116ca6040518060600160405280603e8152602001611f0f603e9139838361177b565b60008273ffffffffffffffffffffffffffffffffffffffff16826040516116f090611bdc565b60006040518083038185875af1925050503d806000811461172d576040519150601f19603f3d011682016040523d82523d6000602084013e611732565b606091505b5050905080611776576040517f08c379a000000000000000000000000000000000000000000000000000000000815260040161176d90611d18565b60405180910390fd5b505050565b61189c83838360405160240180806020018473ffffffffffffffffffffffffffffffffffffffff168152602001838152602001828103825285818151815260200191508051906020019080838360005b838110156117e65780820151818401526020810190506117cb565b50505050905090810190601f1680156118135780820380516001836020036101000a031916815260200191505b509450505050506040516020818303038152906040527f0d26b925000000000000000000000000000000000000000000000000000000007bffffffffffffffffffffffffffffffffffffffffffffffffffffffff19166020820180517bffffffffffffffffffffffffffffffffffffffffffffffffffffffff83818316178352505050506114fd565b505050565b6000813590506118b081611e5c565b92915050565b6000815190506118c581611e73565b92915050565b6000813590506118da81611e8a565b92915050565b6000815190506118ef81611e8a565b92915050565b60006020828403121561190757600080fd5b6000611915848285016118a1565b91505092915050565b60006020828403121561193057600080fd5b600061193e848285016118b6565b91505092915050565b60006020828403121561195957600080fd5b6000611967848285016118cb565b91505092915050565b60006020828403121561198257600080fd5b6000611990848285016118e0565b91505092915050565b6119a281611e02565b82525050565b6119b181611dab565b82525050565b6119c081611dab565b82525050565b6119cf81611dbd565b82525050565b6119de81611e14565b82525050565b60006119f1601183611d9a565b91507f4f4e4c595f454f41735f414c4c4f5745440000000000000000000000000000006000830152602082019050919050565b6000611a31600d83611d9a565b91507f4e4f545f5448455f4f574e4552000000000000000000000000000000000000006000830152602082019050919050565b6000611a71600d83611d9a565b91507f526566756e64206661696c6564000000000000000000000000000000000000006000830152602082019050919050565b6000611ab1600083611d8f565b9150600082019050919050565b6000611acb601183611d9a565b91507f4445504f534954535f44495341424c45440000000000000000000000000000006000830152602082019050919050565b61010082016000820151611b1560008501826119a8565b506020820151611b2860208501826119a8565b506040820151611b3b6040850182611baf565b506060820151611b4e60608501826119a8565b506080820151611b616080850182611bbe565b5060a0820151611b7460a0850182611bbe565b5060c0820151611b8760c0850182611bbe565b5060e0820151611b9a60e0850182611ba0565b50505050565b611ba981611dc9565b82525050565b611bb881611de9565b82525050565b611bc781611df8565b82525050565b611bd681611df8565b82525050565b6000611be782611aa4565b9150819050919050565b6000602082019050611c0660008301846119b7565b92915050565b6000602082019050611c216000830184611999565b92915050565b6000604082019050611c3c6000830185611999565b611c496020830184611bcd565b9392505050565b6000604082019050611c6560008301856119b7565b611c7260208301846119b7565b9392505050565b6000604082019050611c8e60008301856119b7565b611c9b6020830184611bcd565b9392505050565b6000602082019050611cb760008301846119c6565b92915050565b6000602082019050611cd260008301846119d5565b92915050565b60006020820190508181036000830152611cf1816119e4565b9050919050565b60006020820190508181036000830152611d1181611a24565b9050919050565b60006020820190508181036000830152611d3181611a64565b9050919050565b60006020820190508181036000830152611d5181611abe565b9050919050565b600061010082019050611d6e6000830184611afe565b92915050565b6000602082019050611d896000830184611bcd565b92915050565b600081905092915050565b600082825260208201905092915050565b6000611db682611dc9565b9050919050565b60008115159050919050565b600073ffffffffffffffffffffffffffffffffffffffff82169050919050565b600062ffffff82169050919050565b6000819050919050565b6000611e0d82611e38565b9050919050565b6000611e1f82611e26565b9050919050565b6000611e3182611dc9565b9050919050565b6000611e4382611e4a565b9050919050565b6000611e5582611dc9565b9050919050565b611e6581611dab565b8114611e7057600080fd5b50565b611e7c81611dbd565b8114611e8757600080fd5b50565b611e9381611df8565b8114611e9e57600080fd5b5056fe5377617020526f75746572277320616c6c6f77616e6365207570646174656420746f3a4441492062616c61636520746f2062652077697468647261776e206c617465723a4465706f736974696e672063616c6c657227732045544820616d6f756e7420746f20757365202e2e2e5f73656e744574682066756e6374696f6e3a2053656e64696e6720726566756e6420746f200a416464723a202573200a45544820526566756e643a202573a2646970667358221220ef77950676cab77872a40f96a4e0fa33f1bcff448d646c4f25fdfcc0b9c8108b64736f6c63430007060033",
  "linkReferences": {},
  "deployedLinkReferences": {}
}