{
  "_format": "hh-sol-artifact-1",
  "contractName": "NOTEOA",
  "sourceName": "contracts/NOTEOA.sol",
  "abi": [
    {
      "inputs": [
        {
          "internalType": "address",
          "name": "SwapContract",
          "type": "address"
        }
      ],
      "stateMutability": "nonpayable",
      "type": "constructor"
    },
    {
      "stateMutability": "payable",
      "type": "fallback"
    },
    {
      "inputs": [],
      "name": "callDepositSwapAllETH",
      "outputs": [],
      "stateMutability": "nonpayable",
      "type": "function"
    },
    {
      "inputs": [],
      "name": "callDepositSwapSomeETH",
      "outputs": [],
      "stateMutability": "nonpayable",
      "type": "function"
    },
    {
      "stateMutability": "payable",
      "type": "receive"
    }
  ],
  "bytecode": "0x6080604052670de0b6b3a76400006001556706f05b59d3b2000060025534801561002857600080fd5b50604051610a0b380380610a0b833981810160405281019061004a91906100e6565b806000806101000a81548173ffffffffffffffffffffffffffffffffffffffff021916908373ffffffffffffffffffffffffffffffffffffffff16021790555033600360006101000a81548173ffffffffffffffffffffffffffffffffffffffff021916908373ffffffffffffffffffffffffffffffffffffffff16021790555050610158565b6000815190506100e081610141565b92915050565b6000602082840312156100f857600080fd5b6000610106848285016100d1565b91505092915050565b600061011a82610121565b9050919050565b600073ffffffffffffffffffffffffffffffffffffffff82169050919050565b61014a8161010f565b811461015557600080fd5b50565b6108a4806101676000396000f3fe60806040526004361061002d5760003560e01c8063bd73fd6b14610036578063c2ead75b1461004d57610034565b3661003457005b005b34801561004257600080fd5b5061004b610064565b005b34801561005957600080fd5b50610062610299565b005b3373ffffffffffffffffffffffffffffffffffffffff16600360009054906101000a900473ffffffffffffffffffffffffffffffffffffffff1673ffffffffffffffffffffffffffffffffffffffff16146100f4576040517f08c379a00000000000000000000000000000000000000000000000000000000081526004016100eb9061076a565b60405180910390fd5b61013660405180606001604052806025815260200161084a6025913960008054906101000a900473ffffffffffffffffffffffffffffffffffffffff166104c1565b60008060009054906101000a900473ffffffffffffffffffffffffffffffffffffffff1673ffffffffffffffffffffffffffffffffffffffff1660015460025460405160240161018691906107ca565b6040516020818303038152906040527ff280da99000000000000000000000000000000000000000000000000000000007bffffffffffffffffffffffffffffffffffffffffffffffffffffffff19166020820180517bffffffffffffffffffffffffffffffffffffffffffffffffffffffff83818316178352505050506040516102109190610753565b60006040518083038185875af1925050503d806000811461024d576040519150601f19603f3d011682016040523d82523d6000602084013e610252565b606091505b5050905080610296576040517f08c379a000000000000000000000000000000000000000000000000000000000815260040161028d906107aa565b60405180910390fd5b50565b3373ffffffffffffffffffffffffffffffffffffffff16600360009054906101000a900473ffffffffffffffffffffffffffffffffffffffff1673ffffffffffffffffffffffffffffffffffffffff1614610329576040517f08c379a00000000000000000000000000000000000000000000000000000000081526004016103209061076a565b60405180910390fd5b61036b60405180606001604052806025815260200161084a6025913960008054906101000a900473ffffffffffffffffffffffffffffffffffffffff166104c1565b60008060009054906101000a900473ffffffffffffffffffffffffffffffffffffffff1673ffffffffffffffffffffffffffffffffffffffff166001546040516024016040516020818303038152906040527faee58134000000000000000000000000000000000000000000000000000000007bffffffffffffffffffffffffffffffffffffffffffffffffffffffff19166020820180517bffffffffffffffffffffffffffffffffffffffffffffffffffffffff83818316178352505050506040516104389190610753565b60006040518083038185875af1925050503d8060008114610475576040519150601f19603f3d011682016040523d82523d6000602084013e61047a565b606091505b50509050806104be576040517f08c379a00000000000000000000000000000000000000000000000000000000081526004016104b59061078a565b60405180910390fd5b50565b6105da828260405160240180806020018373ffffffffffffffffffffffffffffffffffffffff168152602001828103825284818151815260200191508051906020019080838360005b8381101561052557808201518184015260208101905061050a565b50505050905090810190601f1680156105525780820380516001836020036101000a031916815260200191505b5093505050506040516020818303038152906040527f319af333000000000000000000000000000000000000000000000000000000007bffffffffffffffffffffffffffffffffffffffffffffffffffffffff19166020820180517bffffffffffffffffffffffffffffffffffffffffffffffffffffffff83818316178352505050506105de565b5050565b60008151905060006a636f6e736f6c652e6c6f679050602083016000808483855afa5050505050565b6000610612826107e5565b61061c81856107f0565b935061062c818560208601610816565b80840191505092915050565b6000610645600d836107fb565b91507f4e4f545f5448455f4f574e4552000000000000000000000000000000000000006000830152602082019050919050565b60006106856025836107fb565b91507f4e4f545f414c4c4f5745445f544f5f50415254494349504154455f537761704160008301527f6c6c4554480000000000000000000000000000000000000000000000000000006020830152604082019050919050565b60006106eb6026836107fb565b91507f4e4f545f414c4c4f5745445f544f5f50415254494349504154455f537761705360008301527f6f6d6545544800000000000000000000000000000000000000000000000000006020830152604082019050919050565b61074d8161080c565b82525050565b600061075f8284610607565b915081905092915050565b6000602082019050818103600083015261078381610638565b9050919050565b600060208201905081810360008301526107a381610678565b9050919050565b600060208201905081810360008301526107c3816106de565b9050919050565b60006020820190506107df6000830184610744565b92915050565b600081519050919050565b600081905092915050565b600082825260208201905092915050565b6000819050919050565b60005b83811015610834578082015181840152602081019050610819565b83811115610843576000848401525b5050505056fe5377617020436f6e747261637420616464726573732066726f6d204e4f54454f412025733aa26469706673582212201a8aa65a6a73e2542cd228ab83fd2dd01a838eb5ccfa6bf7cf6a7a9468fdff8564736f6c63430007060033",
  "linkReferences": {},
  "deployedLinkReferences": {}
}