{
  "_format": "hh-sol-artifact-1",
  "contractName": "MintNewPosition",
  "sourceName": "contracts/MintNewPosition.sol",
  "abi": [
    {
      "inputs": [],
      "stateMutability": "nonpayable",
      "type": "constructor"
    },
    {
      "inputs": [],
      "name": "DAI",
      "outputs": [
        {
          "internalType": "address",
          "name": "",
          "type": "address"
        }
      ],
      "stateMutability": "view",
      "type": "function"
    },
    {
      "inputs": [],
      "name": "GDAI",
      "outputs": [
        {
          "internalType": "address",
          "name": "",
          "type": "address"
        }
      ],
      "stateMutability": "view",
      "type": "function"
    },
    {
      "inputs": [],
      "name": "ION",
      "outputs": [
        {
          "internalType": "address",
          "name": "",
          "type": "address"
        }
      ],
      "stateMutability": "view",
      "type": "function"
    },
    {
      "inputs": [],
      "name": "NonfungiblePositionManagerADDR",
      "outputs": [
        {
          "internalType": "address",
          "name": "",
          "type": "address"
        }
      ],
      "stateMutability": "view",
      "type": "function"
    },
    {
      "inputs": [],
      "name": "WETH",
      "outputs": [
        {
          "internalType": "address",
          "name": "",
          "type": "address"
        }
      ],
      "stateMutability": "view",
      "type": "function"
    },
    {
      "inputs": [],
      "name": "WETH_TEST",
      "outputs": [
        {
          "internalType": "address",
          "name": "",
          "type": "address"
        }
      ],
      "stateMutability": "view",
      "type": "function"
    },
    {
      "inputs": [
        {
          "internalType": "uint256",
          "name": "",
          "type": "uint256"
        }
      ],
      "name": "deposits",
      "outputs": [
        {
          "internalType": "address",
          "name": "owner",
          "type": "address"
        },
        {
          "internalType": "uint128",
          "name": "liquidity",
          "type": "uint128"
        },
        {
          "internalType": "address",
          "name": "token0",
          "type": "address"
        },
        {
          "internalType": "address",
          "name": "token1",
          "type": "address"
        }
      ],
      "stateMutability": "view",
      "type": "function"
    },
    {
      "inputs": [],
      "name": "getDAIAddress",
      "outputs": [
        {
          "internalType": "address",
          "name": "",
          "type": "address"
        }
      ],
      "stateMutability": "pure",
      "type": "function"
    },
    {
      "inputs": [],
      "name": "getGDAIAddress",
      "outputs": [
        {
          "internalType": "address",
          "name": "",
          "type": "address"
        }
      ],
      "stateMutability": "pure",
      "type": "function"
    },
    {
      "inputs": [],
      "name": "getIONAddress",
      "outputs": [
        {
          "internalType": "address",
          "name": "",
          "type": "address"
        }
      ],
      "stateMutability": "pure",
      "type": "function"
    },
    {
      "inputs": [],
      "name": "getWETHAddress",
      "outputs": [
        {
          "internalType": "address",
          "name": "",
          "type": "address"
        }
      ],
      "stateMutability": "pure",
      "type": "function"
    },
    {
      "inputs": [],
      "name": "getWETHTestAddress",
      "outputs": [
        {
          "internalType": "address",
          "name": "",
          "type": "address"
        }
      ],
      "stateMutability": "pure",
      "type": "function"
    },
    {
      "inputs": [
        {
          "internalType": "address",
          "name": "token0",
          "type": "address"
        },
        {
          "internalType": "address",
          "name": "token1",
          "type": "address"
        },
        {
          "internalType": "uint256",
          "name": "amount0ToMint",
          "type": "uint256"
        },
        {
          "internalType": "uint256",
          "name": "amount1ToMint",
          "type": "uint256"
        }
      ],
      "name": "mintNewPosition",
      "outputs": [
        {
          "internalType": "uint256",
          "name": "tokenId",
          "type": "uint256"
        },
        {
          "internalType": "uint128",
          "name": "liquidity",
          "type": "uint128"
        },
        {
          "internalType": "uint256",
          "name": "amount0",
          "type": "uint256"
        },
        {
          "internalType": "uint256",
          "name": "amount1",
          "type": "uint256"
        }
      ],
      "stateMutability": "nonpayable",
      "type": "function"
    },
    {
      "inputs": [
        {
          "internalType": "uint256",
          "name": "amount0ToMint",
          "type": "uint256"
        },
        {
          "internalType": "uint256",
          "name": "amount1ToMint",
          "type": "uint256"
        }
      ],
      "name": "mintNewPositionGDAI_WETH",
      "outputs": [
        {
          "internalType": "uint256",
          "name": "tokenId",
          "type": "uint256"
        },
        {
          "internalType": "uint128",
          "name": "liquidity",
          "type": "uint128"
        },
        {
          "internalType": "uint256",
          "name": "amount0",
          "type": "uint256"
        },
        {
          "internalType": "uint256",
          "name": "amount1",
          "type": "uint256"
        }
      ],
      "stateMutability": "nonpayable",
      "type": "function"
    },
    {
      "inputs": [],
      "name": "nonfungiblePositionManager",
      "outputs": [
        {
          "internalType": "contract INonfungiblePositionManager",
          "name": "",
          "type": "address"
        }
      ],
      "stateMutability": "view",
      "type": "function"
    },
    {
      "inputs": [
        {
          "internalType": "address",
          "name": "operator",
          "type": "address"
        },
        {
          "internalType": "address",
          "name": "",
          "type": "address"
        },
        {
          "internalType": "uint256",
          "name": "tokenId",
          "type": "uint256"
        },
        {
          "internalType": "bytes",
          "name": "",
          "type": "bytes"
        }
      ],
      "name": "onERC721Received",
      "outputs": [
        {
          "internalType": "bytes4",
          "name": "",
          "type": "bytes4"
        }
      ],
      "stateMutability": "nonpayable",
      "type": "function"
    },
    {
      "inputs": [],
      "name": "poolFee",
      "outputs": [
        {
          "internalType": "uint24",
          "name": "",
          "type": "uint24"
        }
      ],
      "stateMutability": "view",
      "type": "function"
    }
  ],
  "bytecode": "0x60a060405234801561001057600080fd5b5073c36442b4a4522e871399cd717abdd847ab11fe8873ffffffffffffffffffffffffffffffffffffffff1660808173ffffffffffffffffffffffffffffffffffffffff1660601b8152505060805160601c61183b6100b0600039806103c452806103ef52806104fa52806105cb5280610613528061076b5280610831528061087052806109a35280610a885280610af85280610b57525061183b6000f3fe608060405234801561001057600080fd5b506004361061010b5760003560e01c8063affa8817116100a2578063dcec05bf11610071578063dcec05bf146102b4578063e0bab4c4146102d2578063e40f889f146102f0578063e60295151461030e578063feafb38e1461032c5761010b565b8063affa881714610227578063b02c43d014610245578063b44a272214610278578063cdabc6af146102965761010b565b806374780df9116100de57806374780df91461019a57806386d951eb146101cd578063929d0381146101eb578063ad5c4648146102095761010b565b8063089fe6aa14610110578063150b7a021461012e5780634959225b1461015e578063699af8c31461017c575b600080fd5b61011861035f565b6040516101259190611681565b60405180910390f35b610148600480360381019061014391906112ad565b610365565b604051610155919061162f565b60405180910390f35b610166610384565b60405161017391906115cf565b60405180910390f35b61018461039c565b60405161019191906115cf565b60405180910390f35b6101b460048036038101906101af919061132d565b6103b8565b6040516101c494939291906116b7565b60405180910390f35b6101d5610659565b6040516101e291906115cf565b60405180910390f35b6101f3610671565b60405161020091906115cf565b60405180910390f35b610211610689565b60405161021e91906115cf565b60405180910390f35b61022f6106a1565b60405161023c91906115cf565b60405180910390f35b61025f600480360381019061025a9190611390565b6106bd565b60405161026f94939291906115ea565b60405180910390f35b610280610769565b60405161028d919061164a565b60405180910390f35b61029e61078d565b6040516102ab91906115cf565b60405180910390f35b6102bc6107a9565b6040516102c991906115cf565b60405180910390f35b6102da6107c1565b6040516102e791906115cf565b60405180910390f35b6102f86107d9565b60405161030591906115cf565b60405180910390f35b6103166107f5565b60405161032391906115cf565b60405180910390f35b6103466004803603810190610341919061141c565b610811565b60405161035694939291906116b7565b60405180910390f35b610bb881565b60006103718685610b50565b63150b7a0260e01b905095945050505050565b73c36442b4a4522e871399cd717abdd847ab11fe8881565b60007391761e31588ddb57386225055ce2b993ae07081f905090565b6000806000806103e9887f000000000000000000000000000000000000000000000000000000000000000088610da9565b610414877f000000000000000000000000000000000000000000000000000000000000000087610da9565b60006040518061016001604052808a73ffffffffffffffffffffffffffffffffffffffff1681526020018973ffffffffffffffffffffffffffffffffffffffff168152602001610bb862ffffff1681526020017ffffffffffffffffffffffffffffffffffffffffffffffffffffffffffff2761860020b81526020017ffffffffffffffffffffffffffffffffffffffffffffffffffffffffffff2761860000360020b815260200188815260200187815260200160008152602001600081526020013073ffffffffffffffffffffffffffffffffffffffff1681526020014281525090507f000000000000000000000000000000000000000000000000000000000000000073ffffffffffffffffffffffffffffffffffffffff166388316456826040518263ffffffff1660e01b81526004016105519190611665565b608060405180830381600087803b15801561056b57600080fd5b505af115801561057f573d6000803e3d6000fd5b505050506040513d601f19601f820116820180604052508101906105a391906113b9565b809550819650829750839850505050506105bd3386610b50565b86831015610605576105f1897f00000000000000000000000000000000000000000000000000000000000000006000610da9565b600083880390506106038a3383610faa565b505b8582101561064d57610639887f00000000000000000000000000000000000000000000000000000000000000006000610da9565b6000828703905061064b893383610faa565b505b50945094509450949050565b73652aa57d6f51f74605f8d6e78e0c54fe237a22f481565b7391761e31588ddb57386225055ce2b993ae07081f81565b73b4fbf271143f4fbf7b91a5ded31805e42b2208d681565b600073b4fbf271143f4fbf7b91a5ded31805e42b2208d6905090565b60006020528060005260406000206000915090508060000160009054906101000a900473ffffffffffffffffffffffffffffffffffffffff16908060010160009054906101000a90046fffffffffffffffffffffffffffffffff16908060020160009054906101000a900473ffffffffffffffffffffffffffffffffffffffff16908060030160009054906101000a900473ffffffffffffffffffffffffffffffffffffffff16905084565b7f000000000000000000000000000000000000000000000000000000000000000081565b600073a28aae128e9193d659de6d25e4979499c41e9c19905090565b73a28aae128e9193d659de6d25e4979499c41e9c1981565b73dc31ee1784292379fbb2964b3b9c4124d8f89c6081565b600073652aa57d6f51f74605f8d6e78e0c54fe237a22f4905090565b600073dc31ee1784292379fbb2964b3b9c4124d8f89c60905090565b60008060008061085673652aa57d6f51f74605f8d6e78e0c54fe237a22f47f000000000000000000000000000000000000000000000000000000000000000088610da9565b61089573b4fbf271143f4fbf7b91a5ded31805e42b2208d67f000000000000000000000000000000000000000000000000000000000000000087610da9565b600060405180610160016040528073652aa57d6f51f74605f8d6e78e0c54fe237a22f473ffffffffffffffffffffffffffffffffffffffff16815260200173b4fbf271143f4fbf7b91a5ded31805e42b2208d673ffffffffffffffffffffffffffffffffffffffff168152602001610bb862ffffff1681526020017ffffffffffffffffffffffffffffffffffffffffffffffffffffffffffff2761860020b81526020017ffffffffffffffffffffffffffffffffffffffffffffffffffffffffffff2761860000360020b815260200188815260200187815260200160008152602001600081526020013073ffffffffffffffffffffffffffffffffffffffff1681526020014281525090507f000000000000000000000000000000000000000000000000000000000000000073ffffffffffffffffffffffffffffffffffffffff166388316456826040518263ffffffff1660e01b81526004016109fa9190611665565b608060405180830381600087803b158015610a1457600080fd5b505af1158015610a28573d6000803e3d6000fd5b505050506040513d601f19601f82011682018060405250810190610a4c91906113b9565b80955081965082975083985050505050610a663386610b50565b86831015610ad657610aae73652aa57d6f51f74605f8d6e78e0c54fe237a22f47f00000000000000000000000000000000000000000000000000000000000000006000610da9565b60008388039050610ad473652aa57d6f51f74605f8d6e78e0c54fe237a22f43383610faa565b505b85821015610b4657610b1e73b4fbf271143f4fbf7b91a5ded31805e42b2208d67f00000000000000000000000000000000000000000000000000000000000000006000610da9565b60008287039050610b4473b4fbf271143f4fbf7b91a5ded31805e42b2208d63383610faa565b505b5092959194509250565b60008060007f000000000000000000000000000000000000000000000000000000000000000073ffffffffffffffffffffffffffffffffffffffff1663256b9f39856040518263ffffffff1660e01b8152600401610bae919061169c565b60606040518083038186803b158015610bc657600080fd5b505afa158015610bda573d6000803e3d6000fd5b505050506040513d601f19601f82011682018060405250810190610bfe919061125e565b92509250925060405180608001604052808673ffffffffffffffffffffffffffffffffffffffff168152602001826fffffffffffffffffffffffffffffffff1681526020018473ffffffffffffffffffffffffffffffffffffffff1681526020018373ffffffffffffffffffffffffffffffffffffffff1681525060008086815260200190815260200160002060008201518160000160006101000a81548173ffffffffffffffffffffffffffffffffffffffff021916908373ffffffffffffffffffffffffffffffffffffffff16021790555060208201518160010160006101000a8154816fffffffffffffffffffffffffffffffff02191690836fffffffffffffffffffffffffffffffff16021790555060408201518160020160006101000a81548173ffffffffffffffffffffffffffffffffffffffff021916908373ffffffffffffffffffffffffffffffffffffffff16021790555060608201518160030160006101000a81548173ffffffffffffffffffffffffffffffffffffffff021916908373ffffffffffffffffffffffffffffffffffffffff1602179055509050505050505050565b6000808473ffffffffffffffffffffffffffffffffffffffff1663095ea7b360e01b8585604051602401808373ffffffffffffffffffffffffffffffffffffffff16815260200182815260200192505050604051602081830303815290604052907bffffffffffffffffffffffffffffffffffffffffffffffffffffffff19166020820180517bffffffffffffffffffffffffffffffffffffffffffffffffffffffff83818316178352505050506040518082805190602001908083835b60208310610e8a5780518252602082019150602081019050602083039250610e67565b6001836020036101000a0380198251168184511680821785525050505050509050019150506000604051808303816000865af19150503d8060008114610eec576040519150601f19603f3d011682016040523d82523d6000602084013e610ef1565b606091505b5091509150818015610f315750600081511480610f305750808060200190516020811015610f1e57600080fd5b81019080805190602001909291905050505b5b610fa3576040517f08c379a00000000000000000000000000000000000000000000000000000000081526004018080602001828103825260028152602001807f534100000000000000000000000000000000000000000000000000000000000081525060200191505060405180910390fd5b5050505050565b6000808473ffffffffffffffffffffffffffffffffffffffff1663a9059cbb60e01b8585604051602401808373ffffffffffffffffffffffffffffffffffffffff16815260200182815260200192505050604051602081830303815290604052907bffffffffffffffffffffffffffffffffffffffffffffffffffffffff19166020820180517bffffffffffffffffffffffffffffffffffffffffffffffffffffffff83818316178352505050506040518082805190602001908083835b6020831061108b5780518252602082019150602081019050602083039250611068565b6001836020036101000a0380198251168184511680821785525050505050509050019150506000604051808303816000865af19150503d80600081146110ed576040519150601f19603f3d011682016040523d82523d6000602084013e6110f2565b606091505b50915091508180156111325750600081511480611131575080806020019051602081101561111f57600080fd5b81019080805190602001909291905050505b5b6111a4576040517f08c379a00000000000000000000000000000000000000000000000000000000081526004018080602001828103825260028152602001807f535400000000000000000000000000000000000000000000000000000000000081525060200191505060405180910390fd5b5050505050565b6000813590506111ba816117c0565b92915050565b6000815190506111cf816117c0565b92915050565b60008083601f8401126111e757600080fd5b8235905067ffffffffffffffff81111561120057600080fd5b60208301915083600182028301111561121857600080fd5b9250929050565b60008151905061122e816117d7565b92915050565b600081359050611243816117ee565b92915050565b600081519050611258816117ee565b92915050565b60008060006060848603121561127357600080fd5b6000611281868287016111c0565b9350506020611292868287016111c0565b92505060406112a38682870161121f565b9150509250925092565b6000806000806000608086880312156112c557600080fd5b60006112d3888289016111ab565b95505060206112e4888289016111ab565b94505060406112f588828901611234565b935050606086013567ffffffffffffffff81111561131257600080fd5b61131e888289016111d5565b92509250509295509295909350565b6000806000806080858703121561134357600080fd5b6000611351878288016111ab565b9450506020611362878288016111ab565b935050604061137387828801611234565b925050606061138487828801611234565b91505092959194509250565b6000602082840312156113a257600080fd5b60006113b084828501611234565b91505092915050565b600080600080608085870312156113cf57600080fd5b60006113dd87828801611249565b94505060206113ee8782880161121f565b93505060406113ff87828801611249565b925050606061141087828801611249565b91505092959194509250565b6000806040838503121561142f57600080fd5b600061143d85828601611234565b925050602061144e85828601611234565b9150509250929050565b611461816116fc565b82525050565b611470816116fc565b82525050565b61147f8161170e565b82525050565b61148e8161179c565b82525050565b61149d8161173a565b82525050565b610160820160008201516114ba6000850182611458565b5060208201516114cd6020850182611458565b5060408201516114e06040850182611593565b5060608201516114f36060850182611494565b5060808201516115066080850182611494565b5060a082015161151960a08501826115b1565b5060c082015161152c60c08501826115b1565b5060e082015161153f60e08501826115b1565b506101008201516115546101008501826115b1565b50610120820151611569610120850182611458565b5061014082015161157e6101408501826115b1565b50505050565b61158d81611747565b82525050565b61159c81611783565b82525050565b6115ab81611783565b82525050565b6115ba81611792565b82525050565b6115c981611792565b82525050565b60006020820190506115e46000830184611467565b92915050565b60006080820190506115ff6000830187611467565b61160c6020830186611584565b6116196040830185611467565b6116266060830184611467565b95945050505050565b60006020820190506116446000830184611476565b92915050565b600060208201905061165f6000830184611485565b92915050565b60006101608201905061167b60008301846114a3565b92915050565b600060208201905061169660008301846115a2565b92915050565b60006020820190506116b160008301846115c0565b92915050565b60006080820190506116cc60008301876115c0565b6116d96020830186611584565b6116e660408301856115c0565b6116f360608301846115c0565b95945050505050565b600061170782611763565b9050919050565b60007fffffffff0000000000000000000000000000000000000000000000000000000082169050919050565b60008160020b9050919050565b60006fffffffffffffffffffffffffffffffff82169050919050565b600073ffffffffffffffffffffffffffffffffffffffff82169050919050565b600062ffffff82169050919050565b6000819050919050565b60006117a7826117ae565b9050919050565b60006117b982611763565b9050919050565b6117c9816116fc565b81146117d457600080fd5b50565b6117e081611747565b81146117eb57600080fd5b50565b6117f781611792565b811461180257600080fd5b5056fea26469706673582212203a88b441c5004da80072524f87b300d446415c7d090c4278e2ee2c394e77c3cd64736f6c63430007060033",
  "linkReferences": {},
  "deployedLinkReferences": {}
}