{
  "_format": "hh-sol-artifact-1",
  "contractName": "SupeRareWrapper",
  "sourceName": "contracts/SuperRareWrapper.sol",
  "abi": [
    {
      "inputs": [
        {
          "internalType": "address",
          "name": "OriginalSupeRareAddr__",
          "type": "address"
        }
      ],
      "stateMutability": "nonpayable",
      "type": "constructor"
    },
    {
      "anonymous": false,
      "inputs": [
        {
          "indexed": true,
          "internalType": "address",
          "name": "owner",
          "type": "address"
        },
        {
          "indexed": true,
          "internalType": "address",
          "name": "approved",
          "type": "address"
        },
        {
          "indexed": true,
          "internalType": "uint256",
          "name": "tokenId",
          "type": "uint256"
        }
      ],
      "name": "Approval",
      "type": "event"
    },
    {
      "anonymous": false,
      "inputs": [
        {
          "indexed": true,
          "internalType": "address",
          "name": "owner",
          "type": "address"
        },
        {
          "indexed": true,
          "internalType": "address",
          "name": "operator",
          "type": "address"
        },
        {
          "indexed": false,
          "internalType": "bool",
          "name": "approved",
          "type": "bool"
        }
      ],
      "name": "ApprovalForAll",
      "type": "event"
    },
    {
      "anonymous": false,
      "inputs": [
        {
          "indexed": true,
          "internalType": "address",
          "name": "previousOwner",
          "type": "address"
        },
        {
          "indexed": true,
          "internalType": "address",
          "name": "newOwner",
          "type": "address"
        }
      ],
      "name": "OwnershipTransferred",
      "type": "event"
    },
    {
      "anonymous": false,
      "inputs": [
        {
          "indexed": true,
          "internalType": "address",
          "name": "from",
          "type": "address"
        },
        {
          "indexed": true,
          "internalType": "address",
          "name": "to",
          "type": "address"
        },
        {
          "indexed": true,
          "internalType": "uint256",
          "name": "tokenId",
          "type": "uint256"
        }
      ],
      "name": "Transfer",
      "type": "event"
    },
    {
      "inputs": [
        {
          "internalType": "uint256",
          "name": "_tokenId",
          "type": "uint256"
        }
      ],
      "name": "acceptBid",
      "outputs": [],
      "stateMutability": "nonpayable",
      "type": "function"
    },
    {
      "inputs": [
        {
          "internalType": "string",
          "name": "_uri",
          "type": "string"
        }
      ],
      "name": "addNewToken",
      "outputs": [],
      "stateMutability": "nonpayable",
      "type": "function"
    },
    {
      "inputs": [
        {
          "internalType": "string",
          "name": "_uri",
          "type": "string"
        },
        {
          "internalType": "uint256",
          "name": "_editions",
          "type": "uint256"
        },
        {
          "internalType": "uint256",
          "name": "_salePrice",
          "type": "uint256"
        }
      ],
      "name": "addNewTokenWithEditions",
      "outputs": [],
      "stateMutability": "nonpayable",
      "type": "function"
    },
    {
      "inputs": [
        {
          "internalType": "address",
          "name": "",
          "type": "address"
        },
        {
          "internalType": "uint256",
          "name": "",
          "type": "uint256"
        }
      ],
      "name": "approve",
      "outputs": [],
      "stateMutability": "nonpayable",
      "type": "function"
    },
    {
      "inputs": [
        {
          "internalType": "address",
          "name": "account",
          "type": "address"
        }
      ],
      "name": "balanceOf",
      "outputs": [
        {
          "internalType": "uint256",
          "name": "",
          "type": "uint256"
        }
      ],
      "stateMutability": "view",
      "type": "function"
    },
    {
      "inputs": [
        {
          "internalType": "uint256",
          "name": "_tokenId",
          "type": "uint256"
        }
      ],
      "name": "bid",
      "outputs": [],
      "stateMutability": "nonpayable",
      "type": "function"
    },
    {
      "inputs": [
        {
          "internalType": "uint256",
          "name": "_tokenId",
          "type": "uint256"
        }
      ],
      "name": "buy",
      "outputs": [],
      "stateMutability": "nonpayable",
      "type": "function"
    },
    {
      "inputs": [
        {
          "internalType": "uint256",
          "name": "_tokenId",
          "type": "uint256"
        }
      ],
      "name": "cancelBid",
      "outputs": [],
      "stateMutability": "nonpayable",
      "type": "function"
    },
    {
      "inputs": [
        {
          "internalType": "uint256",
          "name": "_tokenId",
          "type": "uint256"
        }
      ],
      "name": "creatorOfToken",
      "outputs": [
        {
          "internalType": "address",
          "name": "",
          "type": "address"
        }
      ],
      "stateMutability": "nonpayable",
      "type": "function"
    },
    {
      "inputs": [
        {
          "internalType": "uint256",
          "name": "_tokenId",
          "type": "uint256"
        }
      ],
      "name": "currentBidDetailsOfToken",
      "outputs": [
        {
          "internalType": "uint256",
          "name": "",
          "type": "uint256"
        },
        {
          "internalType": "address",
          "name": "",
          "type": "address"
        }
      ],
      "stateMutability": "nonpayable",
      "type": "function"
    },
    {
      "inputs": [
        {
          "internalType": "uint256",
          "name": "tokenId",
          "type": "uint256"
        }
      ],
      "name": "getApproved",
      "outputs": [
        {
          "internalType": "address",
          "name": "",
          "type": "address"
        }
      ],
      "stateMutability": "view",
      "type": "function"
    },
    {
      "inputs": [
        {
          "internalType": "address",
          "name": "account",
          "type": "address"
        }
      ],
      "name": "getCreatorPercentage",
      "outputs": [
        {
          "internalType": "uint256",
          "name": "",
          "type": "uint256"
        }
      ],
      "stateMutability": "view",
      "type": "function"
    },
    {
      "inputs": [
        {
          "internalType": "address",
          "name": "account",
          "type": "address"
        }
      ],
      "name": "getMaintainerPercentage",
      "outputs": [
        {
          "internalType": "uint256",
          "name": "",
          "type": "uint256"
        }
      ],
      "stateMutability": "view",
      "type": "function"
    },
    {
      "inputs": [
        {
          "internalType": "address",
          "name": "",
          "type": "address"
        },
        {
          "internalType": "address",
          "name": "",
          "type": "address"
        }
      ],
      "name": "isApprovedForAll",
      "outputs": [
        {
          "internalType": "bool",
          "name": "",
          "type": "bool"
        }
      ],
      "stateMutability": "view",
      "type": "function"
    },
    {
      "inputs": [
        {
          "internalType": "address",
          "name": "_creator",
          "type": "address"
        }
      ],
      "name": "isWhitelisted",
      "outputs": [
        {
          "internalType": "bool",
          "name": "",
          "type": "bool"
        }
      ],
      "stateMutability": "nonpayable",
      "type": "function"
    },
    {
      "inputs": [],
      "name": "name",
      "outputs": [
        {
          "internalType": "string",
          "name": "",
          "type": "string"
        }
      ],
      "stateMutability": "view",
      "type": "function"
    },
    {
      "inputs": [
        {
          "internalType": "address",
          "name": "",
          "type": "address"
        },
        {
          "internalType": "address",
          "name": "",
          "type": "address"
        },
        {
          "internalType": "uint256",
          "name": "",
          "type": "uint256"
        },
        {
          "internalType": "bytes",
          "name": "",
          "type": "bytes"
        }
      ],
      "name": "onERC721Received",
      "outputs": [
        {
          "internalType": "bytes4",
          "name": "",
          "type": "bytes4"
        }
      ],
      "stateMutability": "view",
      "type": "function"
    },
    {
      "inputs": [
        {
          "internalType": "string",
          "name": "_uri",
          "type": "string"
        }
      ],
      "name": "originalTokenOfUri",
      "outputs": [
        {
          "internalType": "uint256",
          "name": "",
          "type": "uint256"
        }
      ],
      "stateMutability": "nonpayable",
      "type": "function"
    },
    {
      "inputs": [],
      "name": "owner",
      "outputs": [
        {
          "internalType": "address",
          "name": "",
          "type": "address"
        }
      ],
      "stateMutability": "view",
      "type": "function"
    },
    {
      "inputs": [
        {
          "internalType": "uint256",
          "name": "tokenId",
          "type": "uint256"
        }
      ],
      "name": "ownerOf",
      "outputs": [
        {
          "internalType": "address",
          "name": "",
          "type": "address"
        }
      ],
      "stateMutability": "view",
      "type": "function"
    },
    {
      "inputs": [],
      "name": "renounceOwnership",
      "outputs": [],
      "stateMutability": "nonpayable",
      "type": "function"
    },
    {
      "inputs": [
        {
          "internalType": "address",
          "name": "from",
          "type": "address"
        },
        {
          "internalType": "address",
          "name": "to",
          "type": "address"
        },
        {
          "internalType": "uint256",
          "name": "tokenId",
          "type": "uint256"
        }
      ],
      "name": "safeTransferFrom",
      "outputs": [],
      "stateMutability": "nonpayable",
      "type": "function"
    },
    {
      "inputs": [
        {
          "internalType": "address",
          "name": "from",
          "type": "address"
        },
        {
          "internalType": "address",
          "name": "to",
          "type": "address"
        },
        {
          "internalType": "uint256",
          "name": "tokenId",
          "type": "uint256"
        },
        {
          "internalType": "bytes",
          "name": "_data",
          "type": "bytes"
        }
      ],
      "name": "safeTransferFrom",
      "outputs": [],
      "stateMutability": "nonpayable",
      "type": "function"
    },
    {
      "inputs": [
        {
          "internalType": "uint256",
          "name": "_tokenId",
          "type": "uint256"
        }
      ],
      "name": "salePriceOfToken",
      "outputs": [
        {
          "internalType": "uint256",
          "name": "",
          "type": "uint256"
        }
      ],
      "stateMutability": "nonpayable",
      "type": "function"
    },
    {
      "inputs": [
        {
          "internalType": "address",
          "name": "",
          "type": "address"
        },
        {
          "internalType": "bool",
          "name": "",
          "type": "bool"
        }
      ],
      "name": "setApprovalForAll",
      "outputs": [],
      "stateMutability": "nonpayable",
      "type": "function"
    },
    {
      "inputs": [
        {
          "internalType": "uint256",
          "name": "_percentage",
          "type": "uint256"
        }
      ],
      "name": "setCreatorPercentage",
      "outputs": [],
      "stateMutability": "nonpayable",
      "type": "function"
    },
    {
      "inputs": [
        {
          "internalType": "uint256",
          "name": "_percentage",
          "type": "uint256"
        }
      ],
      "name": "setMaintainerPercentage",
      "outputs": [],
      "stateMutability": "nonpayable",
      "type": "function"
    },
    {
      "inputs": [
        {
          "internalType": "uint256",
          "name": "_tokenId",
          "type": "uint256"
        },
        {
          "internalType": "uint256",
          "name": "_salePrice",
          "type": "uint256"
        }
      ],
      "name": "setSalePrice",
      "outputs": [],
      "stateMutability": "nonpayable",
      "type": "function"
    },
    {
      "inputs": [
        {
          "internalType": "bytes4",
          "name": "interfaceId",
          "type": "bytes4"
        }
      ],
      "name": "supportsInterface",
      "outputs": [
        {
          "internalType": "bool",
          "name": "",
          "type": "bool"
        }
      ],
      "stateMutability": "view",
      "type": "function"
    },
    {
      "inputs": [],
      "name": "symbol",
      "outputs": [
        {
          "internalType": "string",
          "name": "",
          "type": "string"
        }
      ],
      "stateMutability": "view",
      "type": "function"
    },
    {
      "inputs": [
        {
          "internalType": "uint256",
          "name": "tokenId",
          "type": "uint256"
        }
      ],
      "name": "tokenURI",
      "outputs": [
        {
          "internalType": "string",
          "name": "",
          "type": "string"
        }
      ],
      "stateMutability": "view",
      "type": "function"
    },
    {
      "inputs": [
        {
          "internalType": "address",
          "name": "from",
          "type": "address"
        },
        {
          "internalType": "address",
          "name": "to",
          "type": "address"
        },
        {
          "internalType": "uint256",
          "name": "tokenId",
          "type": "uint256"
        }
      ],
      "name": "transferFrom",
      "outputs": [],
      "stateMutability": "nonpayable",
      "type": "function"
    },
    {
      "inputs": [
        {
          "internalType": "address",
          "name": "newOwner",
          "type": "address"
        }
      ],
      "name": "transferOwnership",
      "outputs": [],
      "stateMutability": "nonpayable",
      "type": "function"
    },
    {
      "inputs": [
        {
          "internalType": "address",
          "name": "_creator",
          "type": "address"
        }
      ],
      "name": "whitelistCreator",
      "outputs": [],
      "stateMutability": "nonpayable",
      "type": "function"
    }
  ],
  "bytecode": "0x60806040523480156200001157600080fd5b5060405162004bf338038062004bf383398181016040528101906200003791906200031a565b600062000049620001f260201b60201c565b9050806000806101000a81548173ffffffffffffffffffffffffffffffffffffffff021916908373ffffffffffffffffffffffffffffffffffffffff1602179055508073ffffffffffffffffffffffffffffffffffffffff16600073ffffffffffffffffffffffffffffffffffffffff167f8be0079c531659141344cd1fd0a4f28419497f9722a3daafe3b4186f6b6457e060405160405180910390a350620000ff6301ffc9a760e01b620001fa60201b60201c565b80600260006101000a81548173ffffffffffffffffffffffffffffffffffffffff021916908373ffffffffffffffffffffffffffffffffffffffff160217905550600260009054906101000a900473ffffffffffffffffffffffffffffffffffffffff16600360006101000a81548173ffffffffffffffffffffffffffffffffffffffff021916908373ffffffffffffffffffffffffffffffffffffffff160217905550620001bb6380ac58cd60e01b620001fa60201b60201c565b620001d3635b5e139f60e01b620001fa60201b60201c565b620001eb63780e9d6360e01b620001fa60201b60201c565b5062000394565b600033905090565b63ffffffff60e01b817bffffffffffffffffffffffffffffffffffffffffffffffffffffffff1916141562000297576040517f08c379a000000000000000000000000000000000000000000000000000000000815260040180806020018281038252601c8152602001807f4552433136353a20696e76616c696420696e746572666163652069640000000081525060200191505060405180910390fd5b6001806000837bffffffffffffffffffffffffffffffffffffffffffffffffffffffff19167bffffffffffffffffffffffffffffffffffffffffffffffffffffffff1916815260200190815260200160002060006101000a81548160ff02191690831515021790555050565b60008151905062000314816200037a565b92915050565b6000602082840312156200032d57600080fd5b60006200033d8482850162000303565b91505092915050565b600062000353826200035a565b9050919050565b600073ffffffffffffffffffffffffffffffffffffffff82169050919050565b620003858162000346565b81146200039157600080fd5b50565b61484f80620003a46000396000f3fe608060405234801561001057600080fd5b50600436106102065760003560e01c8063653436fd1161011a578063b88d4fde116100ad578063d96a094a1161007c578063d96a094a1461061c578063d9856c2114610638578063e8d7958214610654578063e985e9c514610684578063f2fde38b146106b457610206565b8063b88d4fde14610584578063c0ec93e7146105a0578063c87b56dd146105bc578063d5da8d44146105ec57610206565b806395d89b41116100e957806395d89b41146104fe5780639703ef351461051c5780639f2a3c3214610538578063a22cb4651461056857610206565b8063653436fd1461047657806370a08231146104a6578063715018a6146104d65780638da5cb5b146104e057610206565b806323b872dd1161019d57806342842e0e1161016c57806342842e0e146103d6578063454a2ab3146103f25780635c68a5571461040e57806362f11dd21461042a5780636352211e1461044657610206565b806323b872dd1461033e5780632ab674a11461035a5780632b1fd58a1461038a5780633af32abf146103a657610206565b8063081812fc116101d9578063081812fc14610291578063095ea7b3146102c1578063150b7a02146102dd5780631a289aea1461030d57610206565b8063019871e91461020b57806301ffc9a714610227578063053992c51461025757806306fdde0314610273575b600080fd5b6102256004803603810190610220919061385b565b6106d0565b005b610241600480360381019061023c9190613787565b610836565b60405161024e919061424d565b60405180910390f35b610271600480360381019061026c9190613950565b61089e565b005b61027b610a01565b6040516102889190614283565b60405180910390f35b6102ab60048036038101906102a691906138c2565b610aad565b6040516102b891906141bd565b60405180910390f35b6102db60048036038101906102d69190613722565b610b61565b005b6102f760048036038101906102f2919061366b565b610b9c565b6040516103049190614268565b60405180910390f35b610327600480360381019061032291906138c2565b610bc0565b60405161033592919061453e565b60405180910390f35b6103586004803603810190610353919061361c565b610c78565b005b610374600480360381019061036f919061358e565b610cd8565b6040516103819190614523565b60405180910390f35b6103a4600480360381019061039f91906138c2565b610f09565b005b6103c060048036038101906103bb919061358e565b611069565b6040516103cd919061424d565b60405180910390f35b6103f060048036038101906103eb919061361c565b61111f565b005b61040c600480360381019061040791906138c2565b61113f565b005b610428600480360381019061042391906138c2565b61129f565b005b610444600480360381019061043f919061358e565b61143e565b005b610460600480360381019061045b91906138c2565b611608565b60405161046d91906141bd565b60405180910390f35b610490600480360381019061048b91906137d9565b6116bc565b60405161049d9190614523565b60405180910390f35b6104c060048036038101906104bb919061358e565b611772565b6040516104cd9190614523565b60405180910390f35b6104de611895565b005b6104e8611a02565b6040516104f591906141bd565b60405180910390f35b610506611a2b565b6040516105139190614283565b60405180910390f35b610536600480360381019061053191906138c2565b611ad7565b005b610552600480360381019061054d91906138c2565b611c37565b60405161055f9190614523565b60405180910390f35b610582600480360381019061057d91906136e6565b611ced565b005b61059e6004803603810190610599919061366b565b611d28565b005b6105ba60048036038101906105b591906138c2565b611d8a565b005b6105d660048036038101906105d191906138c2565b611eea565b6040516105e39190614283565b60405180910390f35b610606600480360381019061060191906138c2565b611fa3565b60405161061391906141bd565b60405180910390f35b610636600480360381019061063191906138c2565b612059565b005b610652600480360381019061064d91906137d9565b6121b9565b005b61066e6004803603810190610669919061358e565b612319565b60405161067b9190614523565b60405180910390f35b61069e600480360381019061069991906135e0565b61254a565b6040516106ab919061424d565b60405180910390f35b6106ce60048036038101906106c9919061358e565b612587565b005b6000600260009054906101000a900473ffffffffffffffffffffffffffffffffffffffff1673ffffffffffffffffffffffffffffffffffffffff16848484604051602401610720939291906142a5565b6040516020818303038152906040527f019871e9000000000000000000000000000000000000000000000000000000007bffffffffffffffffffffffffffffffffffffffffffffffffffffffff19166020820180517bffffffffffffffffffffffffffffffffffffffffffffffffffffffff83818316178352505050506040516107aa91906141a6565b6000604051808303816000865af19150503d80600081146107e7576040519150601f19603f3d011682016040523d82523d6000602084013e6107ec565b606091505b5050905080610830576040517f08c379a000000000000000000000000000000000000000000000000000000000815260040161082790614463565b60405180910390fd5b50505050565b600060016000837bffffffffffffffffffffffffffffffffffffffffffffffffffffffff19167bffffffffffffffffffffffffffffffffffffffffffffffffffffffff1916815260200190815260200160002060009054906101000a900460ff169050919050565b6000600260009054906101000a900473ffffffffffffffffffffffffffffffffffffffff1673ffffffffffffffffffffffffffffffffffffffff1683836040516024016108ec929190614567565b6040516020818303038152906040527f053992c5000000000000000000000000000000000000000000000000000000007bffffffffffffffffffffffffffffffffffffffffffffffffffffffff19166020820180517bffffffffffffffffffffffffffffffffffffffffffffffffffffffff838183161783525050505060405161097691906141a6565b6000604051808303816000865af19150503d80600081146109b3576040519150601f19603f3d011682016040523d82523d6000602084013e6109b8565b606091505b50509050806109fc576040517f08c379a00000000000000000000000000000000000000000000000000000000081526004016109f390614443565b60405180910390fd5b505050565b6060600360009054906101000a900473ffffffffffffffffffffffffffffffffffffffff1673ffffffffffffffffffffffffffffffffffffffff166306fdde036040518163ffffffff1660e01b815260040160006040518083038186803b158015610a6b57600080fd5b505afa158015610a7f573d6000803e3d6000fd5b505050506040513d6000823e3d601f19601f82011682018060405250810190610aa8919061381a565b905090565b6000600360009054906101000a900473ffffffffffffffffffffffffffffffffffffffff1673ffffffffffffffffffffffffffffffffffffffff16632a6dd48f836040518263ffffffff1660e01b8152600401610b0a9190614523565b60206040518083038186803b158015610b2257600080fd5b505afa158015610b36573d6000803e3d6000fd5b505050506040513d601f19601f82011682018060405250810190610b5a91906135b7565b9050919050565b6040517f08c379a0000000000000000000000000000000000000000000000000000000008152600401610b93906144c3565b60405180910390fd5b6000610bae63150b7a0260e01b612779565b63150b7a0260e01b9050949350505050565b600080600360009054906101000a900473ffffffffffffffffffffffffffffffffffffffff1673ffffffffffffffffffffffffffffffffffffffff16631a289aea846040518263ffffffff1660e01b8152600401610c1e9190614523565b6040805180830381600087803b158015610c3757600080fd5b505af1158015610c4b573d6000803e3d6000fd5b505050506040513d601f19601f82011682018060405250810190610c6f9190613914565b91509150915091565b610c89610c83612831565b82612839565b610cc8576040517f08c379a0000000000000000000000000000000000000000000000000000000008152600401610cbf906144a3565b60405180910390fd5b610cd38383836129fc565b505050565b60008073ffffffffffffffffffffffffffffffffffffffff168273ffffffffffffffffffffffffffffffffffffffff161415610d49576040517f08c379a0000000000000000000000000000000000000000000000000000000008152600401610d4090614403565b60405180910390fd5b600080600260009054906101000a900473ffffffffffffffffffffffffffffffffffffffff1673ffffffffffffffffffffffffffffffffffffffff166040516024016040516020818303038152906040527ff071bf4f000000000000000000000000000000000000000000000000000000007bffffffffffffffffffffffffffffffffffffffffffffffffffffffff19166020820180517bffffffffffffffffffffffffffffffffffffffffffffffffffffffff8381831617835250505050604051610e1591906141a6565b600060405180830381855afa9150503d8060008114610e50576040519150601f19603f3d011682016040523d82523d6000602084013e610e55565b606091505b509150915081610e9a576040517f08c379a0000000000000000000000000000000000000000000000000000000008152600401610e91906144e3565b60405180910390fd5b610eec6040518060400160405280601381526020017f43726561746f722070657263656e746167653a0000000000000000000000000081525082806020019051810190610ee791906138eb565b612bbb565b80806020019051810190610f0091906138eb565b92505050919050565b6000600260009054906101000a900473ffffffffffffffffffffffffffffffffffffffff1673ffffffffffffffffffffffffffffffffffffffff1682604051602401610f559190614523565b6040516020818303038152906040527f2b1fd58a000000000000000000000000000000000000000000000000000000007bffffffffffffffffffffffffffffffffffffffffffffffffffffffff19166020820180517bffffffffffffffffffffffffffffffffffffffffffffffffffffffff8381831617835250505050604051610fdf91906141a6565b6000604051808303816000865af19150503d806000811461101c576040519150601f19603f3d011682016040523d82523d6000602084013e611021565b606091505b5050905080611065576040517f08c379a000000000000000000000000000000000000000000000000000000000815260040161105c906142e3565b60405180910390fd5b5050565b6000600360009054906101000a900473ffffffffffffffffffffffffffffffffffffffff1673ffffffffffffffffffffffffffffffffffffffff16633af32abf836040518263ffffffff1660e01b81526004016110c691906141bd565b602060405180830381600087803b1580156110e057600080fd5b505af11580156110f4573d6000803e3d6000fd5b505050506040513d601f19601f82011682018060405250810190611118919061375e565b9050919050565b61113a83838360405180602001604052806000815250611d28565b505050565b6000600260009054906101000a900473ffffffffffffffffffffffffffffffffffffffff1673ffffffffffffffffffffffffffffffffffffffff168260405160240161118b9190614523565b6040516020818303038152906040527f454a2ab3000000000000000000000000000000000000000000000000000000007bffffffffffffffffffffffffffffffffffffffffffffffffffffffff19166020820180517bffffffffffffffffffffffffffffffffffffffffffffffffffffffff838183161783525050505060405161121591906141a6565b6000604051808303816000865af19150503d8060008114611252576040519150601f19603f3d011682016040523d82523d6000602084013e611257565b606091505b505090508061129b576040517f08c379a000000000000000000000000000000000000000000000000000000000815260040161129290614383565b60405180910390fd5b5050565b6112de6040518060400160405280601081526020017f5375706552617265577261707065723a0000000000000000000000000000000081525033612cc2565b6000600260009054906101000a900473ffffffffffffffffffffffffffffffffffffffff1673ffffffffffffffffffffffffffffffffffffffff168260405160240161132a9190614523565b6040516020818303038152906040527f5c68a557000000000000000000000000000000000000000000000000000000007bffffffffffffffffffffffffffffffffffffffffffffffffffffffff19166020820180517bffffffffffffffffffffffffffffffffffffffffffffffffffffffff83818316178352505050506040516113b491906141a6565b6000604051808303816000865af19150503d80600081146113f1576040519150601f19603f3d011682016040523d82523d6000602084013e6113f6565b606091505b505090508061143a576040517f08c379a0000000000000000000000000000000000000000000000000000000008152600401611431906143a3565b60405180910390fd5b5050565b6000600260009054906101000a900473ffffffffffffffffffffffffffffffffffffffff1673ffffffffffffffffffffffffffffffffffffffff168260405160240161148a91906141bd565b6040516020818303038152906040527f62f11dd2000000000000000000000000000000000000000000000000000000007bffffffffffffffffffffffffffffffffffffffffffffffffffffffff19166020820180517bffffffffffffffffffffffffffffffffffffffffffffffffffffffff838183161783525050505060405161151491906141a6565b6000604051808303816000865af19150503d8060008114611551576040519150601f19603f3d011682016040523d82523d6000602084013e611556565b606091505b505090506115c46040518060400160405280600b81526020017f6d73672e73656e6465723d00000000000000000000000000000000000000000081525061159b612831565b83600260009054906101000a900473ffffffffffffffffffffffffffffffffffffffff16612ddf565b80611604576040517f08c379a00000000000000000000000000000000000000000000000000000000081526004016115fb90614343565b60405180910390fd5b5050565b6000600360009054906101000a900473ffffffffffffffffffffffffffffffffffffffff1673ffffffffffffffffffffffffffffffffffffffff16636352211e836040518263ffffffff1660e01b81526004016116659190614523565b60206040518083038186803b15801561167d57600080fd5b505afa158015611691573d6000803e3d6000fd5b505050506040513d601f19601f820116820180604052508101906116b591906135b7565b9050919050565b6000600360009054906101000a900473ffffffffffffffffffffffffffffffffffffffff1673ffffffffffffffffffffffffffffffffffffffff1663653436fd836040518263ffffffff1660e01b81526004016117199190614283565b602060405180830381600087803b15801561173357600080fd5b505af1158015611747573d6000803e3d6000fd5b505050506040513d601f19601f8201168201806040525081019061176b91906138eb565b9050919050565b60008073ffffffffffffffffffffffffffffffffffffffff168273ffffffffffffffffffffffffffffffffffffffff1614156117e3576040517f08c379a00000000000000000000000000000000000000000000000000000000081526004016117da90614403565b60405180910390fd5b600360009054906101000a900473ffffffffffffffffffffffffffffffffffffffff1673ffffffffffffffffffffffffffffffffffffffff166370a08231836040518263ffffffff1660e01b815260040161183e91906141bd565b60206040518083038186803b15801561185657600080fd5b505afa15801561186a573d6000803e3d6000fd5b505050506040513d601f19601f8201168201806040525081019061188e91906138eb565b9050919050565b61189d612831565b73ffffffffffffffffffffffffffffffffffffffff166118bb611a02565b73ffffffffffffffffffffffffffffffffffffffff1614611944576040517f08c379a00000000000000000000000000000000000000000000000000000000081526004018080602001828103825260208152602001807f4f776e61626c653a2063616c6c6572206973206e6f7420746865206f776e657281525060200191505060405180910390fd5b600073ffffffffffffffffffffffffffffffffffffffff1660008054906101000a900473ffffffffffffffffffffffffffffffffffffffff1673ffffffffffffffffffffffffffffffffffffffff167f8be0079c531659141344cd1fd0a4f28419497f9722a3daafe3b4186f6b6457e060405160405180910390a360008060006101000a81548173ffffffffffffffffffffffffffffffffffffffff021916908373ffffffffffffffffffffffffffffffffffffffff160217905550565b60008060009054906101000a900473ffffffffffffffffffffffffffffffffffffffff16905090565b6060600360009054906101000a900473ffffffffffffffffffffffffffffffffffffffff1673ffffffffffffffffffffffffffffffffffffffff166395d89b416040518163ffffffff1660e01b815260040160006040518083038186803b158015611a9557600080fd5b505afa158015611aa9573d6000803e3d6000fd5b505050506040513d6000823e3d601f19601f82011682018060405250810190611ad2919061381a565b905090565b6000600260009054906101000a900473ffffffffffffffffffffffffffffffffffffffff1673ffffffffffffffffffffffffffffffffffffffff1682604051602401611b239190614523565b6040516020818303038152906040527f9703ef35000000000000000000000000000000000000000000000000000000007bffffffffffffffffffffffffffffffffffffffffffffffffffffffff19166020820180517bffffffffffffffffffffffffffffffffffffffffffffffffffffffff8381831617835250505050604051611bad91906141a6565b6000604051808303816000865af19150503d8060008114611bea576040519150601f19603f3d011682016040523d82523d6000602084013e611bef565b606091505b5050905080611c33576040517f08c379a0000000000000000000000000000000000000000000000000000000008152600401611c2a906143e3565b60405180910390fd5b5050565b6000600360009054906101000a900473ffffffffffffffffffffffffffffffffffffffff1673ffffffffffffffffffffffffffffffffffffffff16639f2a3c32836040518263ffffffff1660e01b8152600401611c949190614523565b602060405180830381600087803b158015611cae57600080fd5b505af1158015611cc2573d6000803e3d6000fd5b505050506040513d601f19601f82011682018060405250810190611ce691906138eb565b9050919050565b6040517f08c379a0000000000000000000000000000000000000000000000000000000008152600401611d1f90614483565b60405180910390fd5b611d39611d33612831565b83612839565b611d78576040517f08c379a0000000000000000000000000000000000000000000000000000000008152600401611d6f906144a3565b60405180910390fd5b611d8484848484612f26565b50505050565b6000600260009054906101000a900473ffffffffffffffffffffffffffffffffffffffff1673ffffffffffffffffffffffffffffffffffffffff1682604051602401611dd69190614523565b6040516020818303038152906040527fc0ec93e7000000000000000000000000000000000000000000000000000000007bffffffffffffffffffffffffffffffffffffffffffffffffffffffff19166020820180517bffffffffffffffffffffffffffffffffffffffffffffffffffffffff8381831617835250505050604051611e6091906141a6565b6000604051808303816000865af19150503d8060008114611e9d576040519150601f19603f3d011682016040523d82523d6000602084013e611ea2565b606091505b5050905080611ee6576040517f08c379a0000000000000000000000000000000000000000000000000000000008152600401611edd906143a3565b60405180910390fd5b5050565b6060600360009054906101000a900473ffffffffffffffffffffffffffffffffffffffff1673ffffffffffffffffffffffffffffffffffffffff1663c87b56dd836040518263ffffffff1660e01b8152600401611f479190614523565b60006040518083038186803b158015611f5f57600080fd5b505afa158015611f73573d6000803e3d6000fd5b505050506040513d6000823e3d601f19601f82011682018060405250810190611f9c919061381a565b9050919050565b6000600360009054906101000a900473ffffffffffffffffffffffffffffffffffffffff1673ffffffffffffffffffffffffffffffffffffffff1663d5da8d44836040518263ffffffff1660e01b81526004016120009190614523565b602060405180830381600087803b15801561201a57600080fd5b505af115801561202e573d6000803e3d6000fd5b505050506040513d601f19601f8201168201806040525081019061205291906135b7565b9050919050565b6000600260009054906101000a900473ffffffffffffffffffffffffffffffffffffffff1673ffffffffffffffffffffffffffffffffffffffff16826040516024016120a59190614523565b6040516020818303038152906040527fd96a094a000000000000000000000000000000000000000000000000000000007bffffffffffffffffffffffffffffffffffffffffffffffffffffffff19166020820180517bffffffffffffffffffffffffffffffffffffffffffffffffffffffff838183161783525050505060405161212f91906141a6565b6000604051808303816000865af19150503d806000811461216c576040519150601f19603f3d011682016040523d82523d6000602084013e612171565b606091505b50509050806121b5576040517f08c379a00000000000000000000000000000000000000000000000000000000081526004016121ac90614323565b60405180910390fd5b5050565b6000600260009054906101000a900473ffffffffffffffffffffffffffffffffffffffff1673ffffffffffffffffffffffffffffffffffffffff16826040516024016122059190614283565b6040516020818303038152906040527fa0258d0b000000000000000000000000000000000000000000000000000000007bffffffffffffffffffffffffffffffffffffffffffffffffffffffff19166020820180517bffffffffffffffffffffffffffffffffffffffffffffffffffffffff838183161783525050505060405161228f91906141a6565b6000604051808303816000865af19150503d80600081146122cc576040519150601f19603f3d011682016040523d82523d6000602084013e6122d1565b606091505b5050905080612315576040517f08c379a000000000000000000000000000000000000000000000000000000000815260040161230c90614503565b60405180910390fd5b5050565b60008073ffffffffffffffffffffffffffffffffffffffff168273ffffffffffffffffffffffffffffffffffffffff16141561238a576040517f08c379a000000000000000000000000000000000000000000000000000000000815260040161238190614403565b60405180910390fd5b600080600260009054906101000a900473ffffffffffffffffffffffffffffffffffffffff1673ffffffffffffffffffffffffffffffffffffffff166040516024016040516020818303038152906040527ff2bf6b8c000000000000000000000000000000000000000000000000000000007bffffffffffffffffffffffffffffffffffffffffffffffffffffffff19166020820180517bffffffffffffffffffffffffffffffffffffffffffffffffffffffff838183161783525050505060405161245691906141a6565b600060405180830381855afa9150503d8060008114612491576040519150601f19603f3d011682016040523d82523d6000602084013e612496565b606091505b5091509150816124db576040517f08c379a00000000000000000000000000000000000000000000000000000000081526004016124d290614423565b60405180910390fd5b61252d6040518060400160405280601681526020017f4d61696e7461696e65722070657263656e746167653a000000000000000000008152508280602001905181019061252891906138eb565b612bbb565b8080602001905181019061254191906138eb565b92505050919050565b60006040517f08c379a000000000000000000000000000000000000000000000000000000000815260040161257e90614363565b60405180910390fd5b61258f612831565b73ffffffffffffffffffffffffffffffffffffffff166125ad611a02565b73ffffffffffffffffffffffffffffffffffffffff1614612636576040517f08c379a00000000000000000000000000000000000000000000000000000000081526004018080602001828103825260208152602001807f4f776e61626c653a2063616c6c6572206973206e6f7420746865206f776e657281525060200191505060405180910390fd5b600073ffffffffffffffffffffffffffffffffffffffff168173ffffffffffffffffffffffffffffffffffffffff1614156126bc576040517f08c379a00000000000000000000000000000000000000000000000000000000081526004018080602001828103825260268152602001806147ce6026913960400191505060405180910390fd5b8073ffffffffffffffffffffffffffffffffffffffff1660008054906101000a900473ffffffffffffffffffffffffffffffffffffffff1673ffffffffffffffffffffffffffffffffffffffff167f8be0079c531659141344cd1fd0a4f28419497f9722a3daafe3b4186f6b6457e060405160405180910390a3806000806101000a81548173ffffffffffffffffffffffffffffffffffffffff021916908373ffffffffffffffffffffffffffffffffffffffff16021790555050565b61282e8160405160240180827bffffffffffffffffffffffffffffffffffffffffffffffffffffffff191681526020019150506040516020818303038152906040527fe05f48d1000000000000000000000000000000000000000000000000000000007bffffffffffffffffffffffffffffffffffffffffffffffffffffffff19166020820180517bffffffffffffffffffffffffffffffffffffffffffffffffffffffff8381831617835250505050612f82565b50565b600033905090565b60008273ffffffffffffffffffffffffffffffffffffffff16600360009054906101000a900473ffffffffffffffffffffffffffffffffffffffff1673ffffffffffffffffffffffffffffffffffffffff16632a6dd48f846040518263ffffffff1660e01b81526004016128ad9190614523565b60206040518083038186803b1580156128c557600080fd5b505afa1580156128d9573d6000803e3d6000fd5b505050506040513d601f19601f820116820180604052508101906128fd91906135b7565b73ffffffffffffffffffffffffffffffffffffffff1614806129f457508273ffffffffffffffffffffffffffffffffffffffff16600360009054906101000a900473ffffffffffffffffffffffffffffffffffffffff1673ffffffffffffffffffffffffffffffffffffffff16636352211e846040518263ffffffff1660e01b815260040161298c9190614523565b60206040518083038186803b1580156129a457600080fd5b505afa1580156129b8573d6000803e3d6000fd5b505050506040513d601f19601f820116820180604052508101906129dc91906135b7565b73ffffffffffffffffffffffffffffffffffffffff16145b905092915050565b6000600260009054906101000a900473ffffffffffffffffffffffffffffffffffffffff1673ffffffffffffffffffffffffffffffffffffffff168383604051602401612a4a929190614224565b6040516020818303038152906040527fa9059cbb000000000000000000000000000000000000000000000000000000007bffffffffffffffffffffffffffffffffffffffffffffffffffffffff19166020820180517bffffffffffffffffffffffffffffffffffffffffffffffffffffffff8381831617835250505050604051612ad491906141a6565b6000604051808303816000865af19150503d8060008114612b11576040519150601f19603f3d011682016040523d82523d6000602084013e612b16565b606091505b5050905080612b5a576040517f08c379a0000000000000000000000000000000000000000000000000000000008152600401612b51906143c3565b60405180910390fd5b818373ffffffffffffffffffffffffffffffffffffffff168573ffffffffffffffffffffffffffffffffffffffff167fddf252ad1be2c89b69c2b068fc378daa952ba7f163c4a11628f55a4df523b3ef60405160405180910390a450505050565b612cbe82826040516024018080602001838152602001828103825284818151815260200191508051906020019080838360005b83811015612c09578082015181840152602081019050612bee565b50505050905090810190601f168015612c365780820380516001836020036101000a031916815260200191505b5093505050506040516020818303038152906040527fb60e72cc000000000000000000000000000000000000000000000000000000007bffffffffffffffffffffffffffffffffffffffffffffffffffffffff19166020820180517bffffffffffffffffffffffffffffffffffffffffffffffffffffffff8381831617835250505050612f82565b5050565b612ddb828260405160240180806020018373ffffffffffffffffffffffffffffffffffffffff168152602001828103825284818151815260200191508051906020019080838360005b83811015612d26578082015181840152602081019050612d0b565b50505050905090810190601f168015612d535780820380516001836020036101000a031916815260200191505b5093505050506040516020818303038152906040527f319af333000000000000000000000000000000000000000000000000000000007bffffffffffffffffffffffffffffffffffffffffffffffffffffffff19166020820180517bffffffffffffffffffffffffffffffffffffffffffffffffffffffff8381831617835250505050612f82565b5050565b612f208484848460405160240180806020018573ffffffffffffffffffffffffffffffffffffffff16815260200184151581526020018373ffffffffffffffffffffffffffffffffffffffff168152602001828103825286818151815260200191508051906020019080838360005b83811015612e69578082015181840152602081019050612e4e565b50505050905090810190601f168015612e965780820380516001836020036101000a031916815260200191505b50955050505050506040516020818303038152906040527f223603bd000000000000000000000000000000000000000000000000000000007bffffffffffffffffffffffffffffffffffffffffffffffffffffffff19166020820180517bffffffffffffffffffffffffffffffffffffffffffffffffffffffff8381831617835250505050612f82565b50505050565b612f318484846129fc565b612f3d84848484612fab565b612f7c576040517f08c379a0000000000000000000000000000000000000000000000000000000008152600401612f7390614303565b60405180910390fd5b50505050565b60008151905060006a636f6e736f6c652e6c6f679050602083016000808483855afa5050505050565b6000612fcc8473ffffffffffffffffffffffffffffffffffffffff1661310f565b612fd95760019050613107565b60006130a063150b7a0260e01b612fee612831565b88878760405160240161300494939291906141d8565b604051602081830303815290604052907bffffffffffffffffffffffffffffffffffffffffffffffffffffffff19166020820180517bffffffffffffffffffffffffffffffffffffffffffffffffffffffff838183161783525050505060405180606001604052806032815260200161479c603291398773ffffffffffffffffffffffffffffffffffffffff166131229092919063ffffffff16565b90506000818060200190518101906130b891906137b0565b905063150b7a0260e01b7bffffffffffffffffffffffffffffffffffffffffffffffffffffffff1916817bffffffffffffffffffffffffffffffffffffffffffffffffffffffff191614925050505b949350505050565b600080823b905060008111915050919050565b6060613131848460008561313a565b90509392505050565b606082471015613195576040517f08c379a00000000000000000000000000000000000000000000000000000000081526004018080602001828103825260268152602001806147f46026913960400191505060405180910390fd5b61319e8561310f565b613210576040517f08c379a000000000000000000000000000000000000000000000000000000000815260040180806020018281038252601d8152602001807f416464726573733a2063616c6c20746f206e6f6e2d636f6e747261637400000081525060200191505060405180910390fd5b6000808673ffffffffffffffffffffffffffffffffffffffff1685876040518082805190602001908083835b6020831061325f578051825260208201915060208101905060208303925061323c565b6001836020036101000a03801982511681845116808217855250505050505090500191505060006040518083038185875af1925050503d80600081146132c1576040519150601f19603f3d011682016040523d82523d6000602084013e6132c6565b606091505b50915091506132d68282866132e2565b92505050949350505050565b606083156132f2578290506133a7565b6000835111156133055782518084602001fd5b816040517f08c379a00000000000000000000000000000000000000000000000000000000081526004018080602001828103825283818151815260200191508051906020019080838360005b8381101561336c578082015181840152602081019050613351565b50505050905090810190601f1680156133995780820380516001836020036101000a031916815260200191505b509250505060405180910390fd5b9392505050565b60006133c16133bc846145c1565b614590565b9050828152602081018484840111156133d957600080fd5b6133e48482856146ea565b509392505050565b60006133ff6133fa846145f1565b614590565b90508281526020810184848401111561341757600080fd5b6134228482856146ea565b509392505050565b600061343d613438846145f1565b614590565b90508281526020810184848401111561345557600080fd5b6134608482856146f9565b509392505050565b6000813590506134778161473f565b92915050565b60008151905061348c8161473f565b92915050565b6000813590506134a181614756565b92915050565b6000815190506134b681614756565b92915050565b6000813590506134cb8161476d565b92915050565b6000815190506134e08161476d565b92915050565b600082601f8301126134f757600080fd5b81356135078482602086016133ae565b91505092915050565b600082601f83011261352157600080fd5b81356135318482602086016133ec565b91505092915050565b600082601f83011261354b57600080fd5b815161355b84826020860161342a565b91505092915050565b60008135905061357381614784565b92915050565b60008151905061358881614784565b92915050565b6000602082840312156135a057600080fd5b60006135ae84828501613468565b91505092915050565b6000602082840312156135c957600080fd5b60006135d78482850161347d565b91505092915050565b600080604083850312156135f357600080fd5b600061360185828601613468565b925050602061361285828601613468565b9150509250929050565b60008060006060848603121561363157600080fd5b600061363f86828701613468565b935050602061365086828701613468565b925050604061366186828701613564565b9150509250925092565b6000806000806080858703121561368157600080fd5b600061368f87828801613468565b94505060206136a087828801613468565b93505060406136b187828801613564565b925050606085013567ffffffffffffffff8111156136ce57600080fd5b6136da878288016134e6565b91505092959194509250565b600080604083850312156136f957600080fd5b600061370785828601613468565b925050602061371885828601613492565b9150509250929050565b6000806040838503121561373557600080fd5b600061374385828601613468565b925050602061375485828601613564565b9150509250929050565b60006020828403121561377057600080fd5b600061377e848285016134a7565b91505092915050565b60006020828403121561379957600080fd5b60006137a7848285016134bc565b91505092915050565b6000602082840312156137c257600080fd5b60006137d0848285016134d1565b91505092915050565b6000602082840312156137eb57600080fd5b600082013567ffffffffffffffff81111561380557600080fd5b61381184828501613510565b91505092915050565b60006020828403121561382c57600080fd5b600082015167ffffffffffffffff81111561384657600080fd5b6138528482850161353a565b91505092915050565b60008060006060848603121561387057600080fd5b600084013567ffffffffffffffff81111561388a57600080fd5b61389686828701613510565b93505060206138a786828701613564565b92505060406138b886828701613564565b9150509250925092565b6000602082840312156138d457600080fd5b60006138e284828501613564565b91505092915050565b6000602082840312156138fd57600080fd5b600061390b84828501613579565b91505092915050565b6000806040838503121561392757600080fd5b600061393585828601613579565b92505060206139468582860161347d565b9150509250929050565b6000806040838503121561396357600080fd5b600061397185828601613564565b925050602061398285828601613564565b9150509250929050565b61399581614676565b82525050565b6139a481614664565b82525050565b6139b381614688565b82525050565b6139c281614694565b82525050565b60006139d382614621565b6139dd8185614637565b93506139ed8185602086016146f9565b6139f68161472e565b840191505092915050565b6000613a0c82614621565b613a168185614648565b9350613a268185602086016146f9565b80840191505092915050565b6000613a3d8261462c565b613a478185614653565b9350613a578185602086016146f9565b613a608161472e565b840191505092915050565b6000613a78602983614653565b91507f5375706552617265577261707065723a2061636365707442696420616374696f60008301527f6e206661696c65642100000000000000000000000000000000000000000000006020830152604082019050919050565b6000613ade603283614653565b91507f4552433732313a207472616e7366657220746f206e6f6e20455243373231526560008301527f63656976657220696d706c656d656e74657200000000000000000000000000006020830152604082019050919050565b6000613b44602383614653565b91507f5375706552617265577261707065723a2062757920616374696f6e206661696c60008301527f65642100000000000000000000000000000000000000000000000000000000006020830152604082019050919050565b6000613baa603083614653565b91507f5375706552617265577261707065723a2077686974656c69737443726561746f60008301527f7220616374696f6e206661696c656421000000000000000000000000000000006020830152604082019050919050565b6000613c10603283614653565b91507f5375706552617265577261707065723a206973417070726f766564466f72416c60008301527f6c204e6f7420696d706c656d656e7465642100000000000000000000000000006020830152604082019050919050565b6000613c76602383614653565b91507f5375706552617265577261707065723a2062696420616374696f6e206661696c60008301527f65642100000000000000000000000000000000000000000000000000000000006020830152604082019050919050565b6000613cdc603783614653565b91507f5375706552617265577261707065723a207365744d61696e7461696e6572506560008301527f7263656e7461676520616374696f6e206661696c6564210000000000000000006020830152604082019050919050565b6000613d42602a83614653565b91507f5375706552617265577261707065723a205472616e73666572206f6620746f6b60008301527f656e206661696c656421000000000000000000000000000000000000000000006020830152604082019050919050565b6000613da8602983614653565b91507f5375706552617265577261707065723a2063616e63656c42696420616374696f60008301527f6e206661696c65642100000000000000000000000000000000000000000000006020830152604082019050919050565b6000613e0e602a83614653565b91507f4552433732313a2062616c616e636520717565727920666f7220746865207a6560008301527f726f2061646472657373000000000000000000000000000000000000000000006020830152604082019050919050565b6000613e74603783614653565b91507f5375706552617265577261707065723a206765744d61696e7461696e6572506560008301527f7263656e7461676520616374696f6e206661696c6564210000000000000000006020830152604082019050919050565b6000613eda602c83614653565b91507f5375706552617265577261707065723a2073657453616c65507269636520616360008301527f74696f6e206661696c65642100000000000000000000000000000000000000006020830152604082019050919050565b6000613f40603783614653565b91507f5375706552617265577261707065723a206164644e6577546f6b656e5769746860008301527f45646974696f6e7320616374696f6e206661696c6564210000000000000000006020830152604082019050919050565b6000613fa6603383614653565b91507f5375706552617265577261707065723a20736574417070726f76616c466f724160008301527f6c6c204e6f7420696d706c656d656e74656421000000000000000000000000006020830152604082019050919050565b600061400c603183614653565b91507f4552433732313a207472616e736665722063616c6c6572206973206e6f74206f60008301527f776e6572206e6f7220617070726f7665640000000000000000000000000000006020830152604082019050919050565b6000614072602983614653565b91507f5375706552617265577261707065723a20617070726f7665204e6f7420696d7060008301527f6c656d656e7465642100000000000000000000000000000000000000000000006020830152604082019050919050565b60006140d8603483614653565b91507f5375706552617265577261707065723a2067657443726561746f72506572636560008301527f6e7461676520616374696f6e206661696c6564210000000000000000000000006020830152604082019050919050565b600061413e602b83614653565b91507f5375706552617265577261707065723a206164644e6577546f6b656e2061637460008301527f696f6e206661696c6564210000000000000000000000000000000000000000006020830152604082019050919050565b6141a0816146e0565b82525050565b60006141b28284613a01565b915081905092915050565b60006020820190506141d2600083018461399b565b92915050565b60006080820190506141ed600083018761398c565b6141fa602083018661399b565b6142076040830185614197565b818103606083015261421981846139c8565b905095945050505050565b6000604082019050614239600083018561399b565b6142466020830184614197565b9392505050565b600060208201905061426260008301846139aa565b92915050565b600060208201905061427d60008301846139b9565b92915050565b6000602082019050818103600083015261429d8184613a32565b905092915050565b600060608201905081810360008301526142bf8186613a32565b90506142ce6020830185614197565b6142db6040830184614197565b949350505050565b600060208201905081810360008301526142fc81613a6b565b9050919050565b6000602082019050818103600083015261431c81613ad1565b9050919050565b6000602082019050818103600083015261433c81613b37565b9050919050565b6000602082019050818103600083015261435c81613b9d565b9050919050565b6000602082019050818103600083015261437c81613c03565b9050919050565b6000602082019050818103600083015261439c81613c69565b9050919050565b600060208201905081810360008301526143bc81613ccf565b9050919050565b600060208201905081810360008301526143dc81613d35565b9050919050565b600060208201905081810360008301526143fc81613d9b565b9050919050565b6000602082019050818103600083015261441c81613e01565b9050919050565b6000602082019050818103600083015261443c81613e67565b9050919050565b6000602082019050818103600083015261445c81613ecd565b9050919050565b6000602082019050818103600083015261447c81613f33565b9050919050565b6000602082019050818103600083015261449c81613f99565b9050919050565b600060208201905081810360008301526144bc81613fff565b9050919050565b600060208201905081810360008301526144dc81614065565b9050919050565b600060208201905081810360008301526144fc816140cb565b9050919050565b6000602082019050818103600083015261451c81614131565b9050919050565b60006020820190506145386000830184614197565b92915050565b60006040820190506145536000830185614197565b614560602083018461399b565b9392505050565b600060408201905061457c6000830185614197565b6145896020830184614197565b9392505050565b6000604051905081810181811067ffffffffffffffff821117156145b7576145b661472c565b5b8060405250919050565b600067ffffffffffffffff8211156145dc576145db61472c565b5b601f19601f8301169050602081019050919050565b600067ffffffffffffffff82111561460c5761460b61472c565b5b601f19601f8301169050602081019050919050565b600081519050919050565b600081519050919050565b600082825260208201905092915050565b600081905092915050565b600082825260208201905092915050565b600061466f826146c0565b9050919050565b6000614681826146c0565b9050919050565b60008115159050919050565b60007fffffffff0000000000000000000000000000000000000000000000000000000082169050919050565b600073ffffffffffffffffffffffffffffffffffffffff82169050919050565b6000819050919050565b82818337600083830152505050565b60005b838110156147175780820151818401526020810190506146fc565b83811115614726576000848401525b50505050565bfe5b6000601f19601f8301169050919050565b61474881614664565b811461475357600080fd5b50565b61475f81614688565b811461476a57600080fd5b50565b61477681614694565b811461478157600080fd5b50565b61478d816146e0565b811461479857600080fd5b5056fe4552433732313a207472616e7366657220746f206e6f6e20455243373231526563656976657220696d706c656d656e7465724f776e61626c653a206e6577206f776e657220697320746865207a65726f2061646472657373416464726573733a20696e73756666696369656e742062616c616e636520666f722063616c6ca264697066735822122007260ba8a94625c96dedea5013cdaeed299e6a76d36747a3e4ad83cca2e3b9e164736f6c63430007060033",
  "linkReferences": {},
  "deployedLinkReferences": {}
}