{
  "_format": "hh-sol-artifact-1",
  "contractName": "SupeRareWrapper",
  "sourceName": "contracts/SuperRareWrapper.sol",
  "abi": [
    {
      "inputs": [
        {
          "internalType": "address",
          "name": "OriginalSupeRareAddr__",
          "type": "address"
        }
      ],
      "stateMutability": "nonpayable",
      "type": "constructor"
    },
    {
      "anonymous": false,
      "inputs": [
        {
          "indexed": true,
          "internalType": "address",
          "name": "owner",
          "type": "address"
        },
        {
          "indexed": true,
          "internalType": "address",
          "name": "approved",
          "type": "address"
        },
        {
          "indexed": true,
          "internalType": "uint256",
          "name": "tokenId",
          "type": "uint256"
        }
      ],
      "name": "Approval",
      "type": "event"
    },
    {
      "anonymous": false,
      "inputs": [
        {
          "indexed": true,
          "internalType": "address",
          "name": "owner",
          "type": "address"
        },
        {
          "indexed": true,
          "internalType": "address",
          "name": "operator",
          "type": "address"
        },
        {
          "indexed": false,
          "internalType": "bool",
          "name": "approved",
          "type": "bool"
        }
      ],
      "name": "ApprovalForAll",
      "type": "event"
    },
    {
      "anonymous": false,
      "inputs": [
        {
          "indexed": true,
          "internalType": "address",
          "name": "previousOwner",
          "type": "address"
        },
        {
          "indexed": true,
          "internalType": "address",
          "name": "newOwner",
          "type": "address"
        }
      ],
      "name": "OwnershipTransferred",
      "type": "event"
    },
    {
      "anonymous": false,
      "inputs": [
        {
          "indexed": true,
          "internalType": "address",
          "name": "from",
          "type": "address"
        },
        {
          "indexed": true,
          "internalType": "address",
          "name": "to",
          "type": "address"
        },
        {
          "indexed": true,
          "internalType": "uint256",
          "name": "tokenId",
          "type": "uint256"
        }
      ],
      "name": "Transfer",
      "type": "event"
    },
    {
      "inputs": [
        {
          "internalType": "address",
          "name": "",
          "type": "address"
        },
        {
          "internalType": "uint256",
          "name": "",
          "type": "uint256"
        }
      ],
      "name": "approve",
      "outputs": [],
      "stateMutability": "nonpayable",
      "type": "function"
    },
    {
      "inputs": [
        {
          "internalType": "address",
          "name": "account",
          "type": "address"
        }
      ],
      "name": "balanceOf",
      "outputs": [
        {
          "internalType": "uint256",
          "name": "",
          "type": "uint256"
        }
      ],
      "stateMutability": "view",
      "type": "function"
    },
    {
      "inputs": [
        {
          "internalType": "uint256",
          "name": "_tokenId",
          "type": "uint256"
        }
      ],
      "name": "creatorOfToken",
      "outputs": [
        {
          "internalType": "address",
          "name": "",
          "type": "address"
        }
      ],
      "stateMutability": "nonpayable",
      "type": "function"
    },
    {
      "inputs": [
        {
          "internalType": "uint256",
          "name": "_tokenId",
          "type": "uint256"
        }
      ],
      "name": "currentBidDetailsOfToken",
      "outputs": [
        {
          "internalType": "uint256",
          "name": "",
          "type": "uint256"
        },
        {
          "internalType": "address",
          "name": "",
          "type": "address"
        }
      ],
      "stateMutability": "nonpayable",
      "type": "function"
    },
    {
      "inputs": [
        {
          "internalType": "uint256",
          "name": "tokenId",
          "type": "uint256"
        }
      ],
      "name": "getApproved",
      "outputs": [
        {
          "internalType": "address",
          "name": "",
          "type": "address"
        }
      ],
      "stateMutability": "view",
      "type": "function"
    },
    {
      "inputs": [
        {
          "internalType": "address",
          "name": "account",
          "type": "address"
        }
      ],
      "name": "getCreatorPercentage",
      "outputs": [
        {
          "internalType": "uint256",
          "name": "",
          "type": "uint256"
        }
      ],
      "stateMutability": "view",
      "type": "function"
    },
    {
      "inputs": [
        {
          "internalType": "address",
          "name": "account",
          "type": "address"
        }
      ],
      "name": "getMaintainerPercentage",
      "outputs": [
        {
          "internalType": "uint256",
          "name": "",
          "type": "uint256"
        }
      ],
      "stateMutability": "view",
      "type": "function"
    },
    {
      "inputs": [
        {
          "internalType": "address",
          "name": "",
          "type": "address"
        },
        {
          "internalType": "address",
          "name": "",
          "type": "address"
        }
      ],
      "name": "isApprovedForAll",
      "outputs": [
        {
          "internalType": "bool",
          "name": "",
          "type": "bool"
        }
      ],
      "stateMutability": "view",
      "type": "function"
    },
    {
      "inputs": [
        {
          "internalType": "address",
          "name": "_creator",
          "type": "address"
        }
      ],
      "name": "isWhitelisted",
      "outputs": [
        {
          "internalType": "bool",
          "name": "",
          "type": "bool"
        }
      ],
      "stateMutability": "nonpayable",
      "type": "function"
    },
    {
      "inputs": [],
      "name": "name",
      "outputs": [
        {
          "internalType": "string",
          "name": "",
          "type": "string"
        }
      ],
      "stateMutability": "view",
      "type": "function"
    },
    {
      "inputs": [
        {
          "internalType": "address",
          "name": "",
          "type": "address"
        },
        {
          "internalType": "address",
          "name": "",
          "type": "address"
        },
        {
          "internalType": "uint256",
          "name": "",
          "type": "uint256"
        },
        {
          "internalType": "bytes",
          "name": "",
          "type": "bytes"
        }
      ],
      "name": "onERC721Received",
      "outputs": [
        {
          "internalType": "bytes4",
          "name": "",
          "type": "bytes4"
        }
      ],
      "stateMutability": "view",
      "type": "function"
    },
    {
      "inputs": [
        {
          "internalType": "string",
          "name": "_uri",
          "type": "string"
        }
      ],
      "name": "originalTokenOfUri",
      "outputs": [
        {
          "internalType": "uint256",
          "name": "",
          "type": "uint256"
        }
      ],
      "stateMutability": "nonpayable",
      "type": "function"
    },
    {
      "inputs": [],
      "name": "owner",
      "outputs": [
        {
          "internalType": "address",
          "name": "",
          "type": "address"
        }
      ],
      "stateMutability": "view",
      "type": "function"
    },
    {
      "inputs": [
        {
          "internalType": "uint256",
          "name": "tokenId",
          "type": "uint256"
        }
      ],
      "name": "ownerOf",
      "outputs": [
        {
          "internalType": "address",
          "name": "",
          "type": "address"
        }
      ],
      "stateMutability": "view",
      "type": "function"
    },
    {
      "inputs": [],
      "name": "renounceOwnership",
      "outputs": [],
      "stateMutability": "nonpayable",
      "type": "function"
    },
    {
      "inputs": [
        {
          "internalType": "address",
          "name": "from",
          "type": "address"
        },
        {
          "internalType": "address",
          "name": "to",
          "type": "address"
        },
        {
          "internalType": "uint256",
          "name": "tokenId",
          "type": "uint256"
        }
      ],
      "name": "safeTransferFrom",
      "outputs": [],
      "stateMutability": "nonpayable",
      "type": "function"
    },
    {
      "inputs": [
        {
          "internalType": "address",
          "name": "from",
          "type": "address"
        },
        {
          "internalType": "address",
          "name": "to",
          "type": "address"
        },
        {
          "internalType": "uint256",
          "name": "tokenId",
          "type": "uint256"
        },
        {
          "internalType": "bytes",
          "name": "_data",
          "type": "bytes"
        }
      ],
      "name": "safeTransferFrom",
      "outputs": [],
      "stateMutability": "nonpayable",
      "type": "function"
    },
    {
      "inputs": [
        {
          "internalType": "uint256",
          "name": "_tokenId",
          "type": "uint256"
        }
      ],
      "name": "salePriceOfToken",
      "outputs": [
        {
          "internalType": "uint256",
          "name": "",
          "type": "uint256"
        }
      ],
      "stateMutability": "nonpayable",
      "type": "function"
    },
    {
      "inputs": [
        {
          "internalType": "address",
          "name": "",
          "type": "address"
        },
        {
          "internalType": "bool",
          "name": "",
          "type": "bool"
        }
      ],
      "name": "setApprovalForAll",
      "outputs": [],
      "stateMutability": "nonpayable",
      "type": "function"
    },
    {
      "inputs": [
        {
          "internalType": "bytes4",
          "name": "interfaceId",
          "type": "bytes4"
        }
      ],
      "name": "supportsInterface",
      "outputs": [
        {
          "internalType": "bool",
          "name": "",
          "type": "bool"
        }
      ],
      "stateMutability": "view",
      "type": "function"
    },
    {
      "inputs": [],
      "name": "symbol",
      "outputs": [
        {
          "internalType": "string",
          "name": "",
          "type": "string"
        }
      ],
      "stateMutability": "view",
      "type": "function"
    },
    {
      "inputs": [
        {
          "internalType": "uint256",
          "name": "tokenId",
          "type": "uint256"
        }
      ],
      "name": "tokenURI",
      "outputs": [
        {
          "internalType": "string",
          "name": "",
          "type": "string"
        }
      ],
      "stateMutability": "view",
      "type": "function"
    },
    {
      "inputs": [
        {
          "internalType": "address",
          "name": "from",
          "type": "address"
        },
        {
          "internalType": "address",
          "name": "to",
          "type": "address"
        },
        {
          "internalType": "uint256",
          "name": "tokenId",
          "type": "uint256"
        }
      ],
      "name": "transferFrom",
      "outputs": [],
      "stateMutability": "nonpayable",
      "type": "function"
    },
    {
      "inputs": [
        {
          "internalType": "address",
          "name": "newOwner",
          "type": "address"
        }
      ],
      "name": "transferOwnership",
      "outputs": [],
      "stateMutability": "nonpayable",
      "type": "function"
    }
  ],
  "bytecode": "0x60806040523480156200001157600080fd5b50604051620033973803806200339783398181016040528101906200003791906200031a565b600062000049620001f260201b60201c565b9050806000806101000a81548173ffffffffffffffffffffffffffffffffffffffff021916908373ffffffffffffffffffffffffffffffffffffffff1602179055508073ffffffffffffffffffffffffffffffffffffffff16600073ffffffffffffffffffffffffffffffffffffffff167f8be0079c531659141344cd1fd0a4f28419497f9722a3daafe3b4186f6b6457e060405160405180910390a350620000ff6301ffc9a760e01b620001fa60201b60201c565b80600260006101000a81548173ffffffffffffffffffffffffffffffffffffffff021916908373ffffffffffffffffffffffffffffffffffffffff160217905550600260009054906101000a900473ffffffffffffffffffffffffffffffffffffffff16600360006101000a81548173ffffffffffffffffffffffffffffffffffffffff021916908373ffffffffffffffffffffffffffffffffffffffff160217905550620001bb6380ac58cd60e01b620001fa60201b60201c565b620001d3635b5e139f60e01b620001fa60201b60201c565b620001eb63780e9d6360e01b620001fa60201b60201c565b5062000394565b600033905090565b63ffffffff60e01b817bffffffffffffffffffffffffffffffffffffffffffffffffffffffff1916141562000297576040517f08c379a000000000000000000000000000000000000000000000000000000000815260040180806020018281038252601c8152602001807f4552433136353a20696e76616c696420696e746572666163652069640000000081525060200191505060405180910390fd5b6001806000837bffffffffffffffffffffffffffffffffffffffffffffffffffffffff19167bffffffffffffffffffffffffffffffffffffffffffffffffffffffff1916815260200190815260200160002060006101000a81548160ff02191690831515021790555050565b60008151905062000314816200037a565b92915050565b6000602082840312156200032d57600080fd5b60006200033d8482850162000303565b91505092915050565b600062000353826200035a565b9050919050565b600073ffffffffffffffffffffffffffffffffffffffff82169050919050565b620003858162000346565b81146200039157600080fd5b50565b612ff380620003a46000396000f3fe608060405234801561001057600080fd5b50600436106101585760003560e01c806370a08231116100c3578063b88d4fde1161007c578063b88d4fde14610412578063c87b56dd1461042e578063d5da8d441461045e578063e8d795821461048e578063e985e9c5146104be578063f2fde38b146104ee57610158565b806370a0823114610350578063715018a6146103805780638da5cb5b1461038a57806395d89b41146103a85780639f2a3c32146103c6578063a22cb465146103f657610158565b806323b872dd1161011557806323b872dd146102585780632ab674a1146102745780633af32abf146102a457806342842e0e146102d45780636352211e146102f0578063653436fd1461032057610158565b806301ffc9a71461015d57806306fdde031461018d578063081812fc146101ab578063095ea7b3146101db578063150b7a02146101f75780631a289aea14610227575b600080fd5b610177600480360381019061017291906124eb565b61050a565b6040516101849190612b78565b60405180910390f35b610195610572565b6040516101a29190612bae565b60405180910390f35b6101c560048036038101906101c091906125bf565b61061e565b6040516101d29190612ae8565b60405180910390f35b6101f560048036038101906101f09190612486565b6106d2565b005b610211600480360381019061020c91906123cf565b61070d565b60405161021e9190612b93565b60405180910390f35b610241600480360381019061023c91906125bf565b610731565b60405161024f929190612d0b565b60405180910390f35b610272600480360381019061026d9190612380565b6107e9565b005b61028e600480360381019061028991906122f2565b610849565b60405161029b9190612cf0565b60405180910390f35b6102be60048036038101906102b991906122f2565b610a7a565b6040516102cb9190612b78565b60405180910390f35b6102ee60048036038101906102e99190612380565b610b30565b005b61030a600480360381019061030591906125bf565b610b50565b6040516103179190612ae8565b60405180910390f35b61033a6004803603810190610335919061253d565b610c04565b6040516103479190612cf0565b60405180910390f35b61036a600480360381019061036591906122f2565b610cba565b6040516103779190612cf0565b60405180910390f35b610388610ddd565b005b610392610f4a565b60405161039f9190612ae8565b60405180910390f35b6103b0610f73565b6040516103bd9190612bae565b60405180910390f35b6103e060048036038101906103db91906125bf565b61101f565b6040516103ed9190612cf0565b60405180910390f35b610410600480360381019061040b919061244a565b6110d5565b005b61042c600480360381019061042791906123cf565b611110565b005b610448600480360381019061044391906125bf565b611172565b6040516104559190612bae565b60405180910390f35b610478600480360381019061047391906125bf565b61122b565b6040516104859190612ae8565b60405180910390f35b6104a860048036038101906104a391906122f2565b6112e1565b6040516104b59190612cf0565b60405180910390f35b6104d860048036038101906104d39190612344565b611512565b6040516104e59190612b78565b60405180910390f35b610508600480360381019061050391906122f2565b61154f565b005b600060016000837bffffffffffffffffffffffffffffffffffffffffffffffffffffffff19167bffffffffffffffffffffffffffffffffffffffffffffffffffffffff1916815260200190815260200160002060009054906101000a900460ff169050919050565b6060600360009054906101000a900473ffffffffffffffffffffffffffffffffffffffff1673ffffffffffffffffffffffffffffffffffffffff166306fdde036040518163ffffffff1660e01b815260040160006040518083038186803b1580156105dc57600080fd5b505afa1580156105f0573d6000803e3d6000fd5b505050506040513d6000823e3d601f19601f82011682018060405250810190610619919061257e565b905090565b6000600360009054906101000a900473ffffffffffffffffffffffffffffffffffffffff1673ffffffffffffffffffffffffffffffffffffffff16632a6dd48f836040518263ffffffff1660e01b815260040161067b9190612cf0565b60206040518083038186803b15801561069357600080fd5b505afa1580156106a7573d6000803e3d6000fd5b505050506040513d601f19601f820116820180604052508101906106cb919061231b565b9050919050565b6040517f08c379a000000000000000000000000000000000000000000000000000000000815260040161070490612cb0565b60405180910390fd5b600061071f63150b7a0260e01b611741565b63150b7a0260e01b9050949350505050565b600080600360009054906101000a900473ffffffffffffffffffffffffffffffffffffffff1673ffffffffffffffffffffffffffffffffffffffff16631a289aea846040518263ffffffff1660e01b815260040161078f9190612cf0565b6040805180830381600087803b1580156107a857600080fd5b505af11580156107bc573d6000803e3d6000fd5b505050506040513d601f19601f820116820180604052508101906107e09190612611565b91509150915091565b6107fa6107f46117f9565b82611801565b610839576040517f08c379a000000000000000000000000000000000000000000000000000000000815260040161083090612c90565b60405180910390fd5b6108448383836119c4565b505050565b60008073ffffffffffffffffffffffffffffffffffffffff168273ffffffffffffffffffffffffffffffffffffffff1614156108ba576040517f08c379a00000000000000000000000000000000000000000000000000000000081526004016108b190612c30565b60405180910390fd5b600080600260009054906101000a900473ffffffffffffffffffffffffffffffffffffffff1673ffffffffffffffffffffffffffffffffffffffff166040516024016040516020818303038152906040527ff071bf4f000000000000000000000000000000000000000000000000000000007bffffffffffffffffffffffffffffffffffffffffffffffffffffffff19166020820180517bffffffffffffffffffffffffffffffffffffffffffffffffffffffff83818316178352505050506040516109869190612ad1565b600060405180830381855afa9150503d80600081146109c1576040519150601f19603f3d011682016040523d82523d6000602084013e6109c6565b606091505b509150915081610a0b576040517f08c379a0000000000000000000000000000000000000000000000000000000008152600401610a0290612cd0565b60405180910390fd5b610a5d6040518060400160405280601381526020017f43726561746f722070657263656e746167653a0000000000000000000000000081525082806020019051810190610a5891906125e8565b611b83565b80806020019051810190610a7191906125e8565b92505050919050565b6000600360009054906101000a900473ffffffffffffffffffffffffffffffffffffffff1673ffffffffffffffffffffffffffffffffffffffff16633af32abf836040518263ffffffff1660e01b8152600401610ad79190612ae8565b602060405180830381600087803b158015610af157600080fd5b505af1158015610b05573d6000803e3d6000fd5b505050506040513d601f19601f82011682018060405250810190610b2991906124c2565b9050919050565b610b4b83838360405180602001604052806000815250611110565b505050565b6000600360009054906101000a900473ffffffffffffffffffffffffffffffffffffffff1673ffffffffffffffffffffffffffffffffffffffff16636352211e836040518263ffffffff1660e01b8152600401610bad9190612cf0565b60206040518083038186803b158015610bc557600080fd5b505afa158015610bd9573d6000803e3d6000fd5b505050506040513d601f19601f82011682018060405250810190610bfd919061231b565b9050919050565b6000600360009054906101000a900473ffffffffffffffffffffffffffffffffffffffff1673ffffffffffffffffffffffffffffffffffffffff1663653436fd836040518263ffffffff1660e01b8152600401610c619190612bae565b602060405180830381600087803b158015610c7b57600080fd5b505af1158015610c8f573d6000803e3d6000fd5b505050506040513d601f19601f82011682018060405250810190610cb391906125e8565b9050919050565b60008073ffffffffffffffffffffffffffffffffffffffff168273ffffffffffffffffffffffffffffffffffffffff161415610d2b576040517f08c379a0000000000000000000000000000000000000000000000000000000008152600401610d2290612c30565b60405180910390fd5b600360009054906101000a900473ffffffffffffffffffffffffffffffffffffffff1673ffffffffffffffffffffffffffffffffffffffff166370a08231836040518263ffffffff1660e01b8152600401610d869190612ae8565b60206040518083038186803b158015610d9e57600080fd5b505afa158015610db2573d6000803e3d6000fd5b505050506040513d601f19601f82011682018060405250810190610dd691906125e8565b9050919050565b610de56117f9565b73ffffffffffffffffffffffffffffffffffffffff16610e03610f4a565b73ffffffffffffffffffffffffffffffffffffffff1614610e8c576040517f08c379a00000000000000000000000000000000000000000000000000000000081526004018080602001828103825260208152602001807f4f776e61626c653a2063616c6c6572206973206e6f7420746865206f776e657281525060200191505060405180910390fd5b600073ffffffffffffffffffffffffffffffffffffffff1660008054906101000a900473ffffffffffffffffffffffffffffffffffffffff1673ffffffffffffffffffffffffffffffffffffffff167f8be0079c531659141344cd1fd0a4f28419497f9722a3daafe3b4186f6b6457e060405160405180910390a360008060006101000a81548173ffffffffffffffffffffffffffffffffffffffff021916908373ffffffffffffffffffffffffffffffffffffffff160217905550565b60008060009054906101000a900473ffffffffffffffffffffffffffffffffffffffff16905090565b6060600360009054906101000a900473ffffffffffffffffffffffffffffffffffffffff1673ffffffffffffffffffffffffffffffffffffffff166395d89b416040518163ffffffff1660e01b815260040160006040518083038186803b158015610fdd57600080fd5b505afa158015610ff1573d6000803e3d6000fd5b505050506040513d6000823e3d601f19601f8201168201806040525081019061101a919061257e565b905090565b6000600360009054906101000a900473ffffffffffffffffffffffffffffffffffffffff1673ffffffffffffffffffffffffffffffffffffffff16639f2a3c32836040518263ffffffff1660e01b815260040161107c9190612cf0565b602060405180830381600087803b15801561109657600080fd5b505af11580156110aa573d6000803e3d6000fd5b505050506040513d601f19601f820116820180604052508101906110ce91906125e8565b9050919050565b6040517f08c379a000000000000000000000000000000000000000000000000000000000815260040161110790612c70565b60405180910390fd5b61112161111b6117f9565b83611801565b611160576040517f08c379a000000000000000000000000000000000000000000000000000000000815260040161115790612c90565b60405180910390fd5b61116c84848484611c8a565b50505050565b6060600360009054906101000a900473ffffffffffffffffffffffffffffffffffffffff1673ffffffffffffffffffffffffffffffffffffffff1663c87b56dd836040518263ffffffff1660e01b81526004016111cf9190612cf0565b60006040518083038186803b1580156111e757600080fd5b505afa1580156111fb573d6000803e3d6000fd5b505050506040513d6000823e3d601f19601f82011682018060405250810190611224919061257e565b9050919050565b6000600360009054906101000a900473ffffffffffffffffffffffffffffffffffffffff1673ffffffffffffffffffffffffffffffffffffffff1663d5da8d44836040518263ffffffff1660e01b81526004016112889190612cf0565b602060405180830381600087803b1580156112a257600080fd5b505af11580156112b6573d6000803e3d6000fd5b505050506040513d601f19601f820116820180604052508101906112da919061231b565b9050919050565b60008073ffffffffffffffffffffffffffffffffffffffff168273ffffffffffffffffffffffffffffffffffffffff161415611352576040517f08c379a000000000000000000000000000000000000000000000000000000000815260040161134990612c30565b60405180910390fd5b600080600260009054906101000a900473ffffffffffffffffffffffffffffffffffffffff1673ffffffffffffffffffffffffffffffffffffffff166040516024016040516020818303038152906040527ff2bf6b8c000000000000000000000000000000000000000000000000000000007bffffffffffffffffffffffffffffffffffffffffffffffffffffffff19166020820180517bffffffffffffffffffffffffffffffffffffffffffffffffffffffff838183161783525050505060405161141e9190612ad1565b600060405180830381855afa9150503d8060008114611459576040519150601f19603f3d011682016040523d82523d6000602084013e61145e565b606091505b5091509150816114a3576040517f08c379a000000000000000000000000000000000000000000000000000000000815260040161149a90612c50565b60405180910390fd5b6114f56040518060400160405280601681526020017f4d61696e7461696e65722070657263656e746167653a00000000000000000000815250828060200190518101906114f091906125e8565b611b83565b8080602001905181019061150991906125e8565b92505050919050565b60006040517f08c379a000000000000000000000000000000000000000000000000000000000815260040161154690612bf0565b60405180910390fd5b6115576117f9565b73ffffffffffffffffffffffffffffffffffffffff16611575610f4a565b73ffffffffffffffffffffffffffffffffffffffff16146115fe576040517f08c379a00000000000000000000000000000000000000000000000000000000081526004018080602001828103825260208152602001807f4f776e61626c653a2063616c6c6572206973206e6f7420746865206f776e657281525060200191505060405180910390fd5b600073ffffffffffffffffffffffffffffffffffffffff168173ffffffffffffffffffffffffffffffffffffffff161415611684576040517f08c379a0000000000000000000000000000000000000000000000000000000008152600401808060200182810382526026815260200180612f726026913960400191505060405180910390fd5b8073ffffffffffffffffffffffffffffffffffffffff1660008054906101000a900473ffffffffffffffffffffffffffffffffffffffff1673ffffffffffffffffffffffffffffffffffffffff167f8be0079c531659141344cd1fd0a4f28419497f9722a3daafe3b4186f6b6457e060405160405180910390a3806000806101000a81548173ffffffffffffffffffffffffffffffffffffffff021916908373ffffffffffffffffffffffffffffffffffffffff16021790555050565b6117f68160405160240180827bffffffffffffffffffffffffffffffffffffffffffffffffffffffff191681526020019150506040516020818303038152906040527fe05f48d1000000000000000000000000000000000000000000000000000000007bffffffffffffffffffffffffffffffffffffffffffffffffffffffff19166020820180517bffffffffffffffffffffffffffffffffffffffffffffffffffffffff8381831617835250505050611ce6565b50565b600033905090565b60008273ffffffffffffffffffffffffffffffffffffffff16600360009054906101000a900473ffffffffffffffffffffffffffffffffffffffff1673ffffffffffffffffffffffffffffffffffffffff16632a6dd48f846040518263ffffffff1660e01b81526004016118759190612cf0565b60206040518083038186803b15801561188d57600080fd5b505afa1580156118a1573d6000803e3d6000fd5b505050506040513d601f19601f820116820180604052508101906118c5919061231b565b73ffffffffffffffffffffffffffffffffffffffff1614806119bc57508273ffffffffffffffffffffffffffffffffffffffff16600360009054906101000a900473ffffffffffffffffffffffffffffffffffffffff1673ffffffffffffffffffffffffffffffffffffffff16636352211e846040518263ffffffff1660e01b81526004016119549190612cf0565b60206040518083038186803b15801561196c57600080fd5b505afa158015611980573d6000803e3d6000fd5b505050506040513d601f19601f820116820180604052508101906119a4919061231b565b73ffffffffffffffffffffffffffffffffffffffff16145b905092915050565b6000600260009054906101000a900473ffffffffffffffffffffffffffffffffffffffff1673ffffffffffffffffffffffffffffffffffffffff168383604051602401611a12929190612b4f565b6040516020818303038152906040527fa9059cbb000000000000000000000000000000000000000000000000000000007bffffffffffffffffffffffffffffffffffffffffffffffffffffffff19166020820180517bffffffffffffffffffffffffffffffffffffffffffffffffffffffff8381831617835250505050604051611a9c9190612ad1565b6000604051808303816000865af19150503d8060008114611ad9576040519150601f19603f3d011682016040523d82523d6000602084013e611ade565b606091505b5050905080611b22576040517f08c379a0000000000000000000000000000000000000000000000000000000008152600401611b1990612c10565b60405180910390fd5b818373ffffffffffffffffffffffffffffffffffffffff168573ffffffffffffffffffffffffffffffffffffffff167fddf252ad1be2c89b69c2b068fc378daa952ba7f163c4a11628f55a4df523b3ef60405160405180910390a450505050565b611c8682826040516024018080602001838152602001828103825284818151815260200191508051906020019080838360005b83811015611bd1578082015181840152602081019050611bb6565b50505050905090810190601f168015611bfe5780820380516001836020036101000a031916815260200191505b5093505050506040516020818303038152906040527fb60e72cc000000000000000000000000000000000000000000000000000000007bffffffffffffffffffffffffffffffffffffffffffffffffffffffff19166020820180517bffffffffffffffffffffffffffffffffffffffffffffffffffffffff8381831617835250505050611ce6565b5050565b611c958484846119c4565b611ca184848484611d0f565b611ce0576040517f08c379a0000000000000000000000000000000000000000000000000000000008152600401611cd790612bd0565b60405180910390fd5b50505050565b60008151905060006a636f6e736f6c652e6c6f679050602083016000808483855afa5050505050565b6000611d308473ffffffffffffffffffffffffffffffffffffffff16611e73565b611d3d5760019050611e6b565b6000611e0463150b7a0260e01b611d526117f9565b888787604051602401611d689493929190612b03565b604051602081830303815290604052907bffffffffffffffffffffffffffffffffffffffffffffffffffffffff19166020820180517bffffffffffffffffffffffffffffffffffffffffffffffffffffffff8381831617835250505050604051806060016040528060328152602001612f40603291398773ffffffffffffffffffffffffffffffffffffffff16611e869092919063ffffffff16565b9050600081806020019051810190611e1c9190612514565b905063150b7a0260e01b7bffffffffffffffffffffffffffffffffffffffffffffffffffffffff1916817bffffffffffffffffffffffffffffffffffffffffffffffffffffffff191614925050505b949350505050565b600080823b905060008111915050919050565b6060611e958484600085611e9e565b90509392505050565b606082471015611ef9576040517f08c379a0000000000000000000000000000000000000000000000000000000008152600401808060200182810382526026815260200180612f986026913960400191505060405180910390fd5b611f0285611e73565b611f74576040517f08c379a000000000000000000000000000000000000000000000000000000000815260040180806020018281038252601d8152602001807f416464726573733a2063616c6c20746f206e6f6e2d636f6e747261637400000081525060200191505060405180910390fd5b6000808673ffffffffffffffffffffffffffffffffffffffff1685876040518082805190602001908083835b60208310611fc35780518252602082019150602081019050602083039250611fa0565b6001836020036101000a03801982511681845116808217855250505050505090500191505060006040518083038185875af1925050503d8060008114612025576040519150601f19603f3d011682016040523d82523d6000602084013e61202a565b606091505b509150915061203a828286612046565b92505050949350505050565b606083156120565782905061210b565b6000835111156120695782518084602001fd5b816040517f08c379a00000000000000000000000000000000000000000000000000000000081526004018080602001828103825283818151815260200191508051906020019080838360005b838110156120d05780820151818401526020810190506120b5565b50505050905090810190601f1680156120fd5780820380516001836020036101000a031916815260200191505b509250505060405180910390fd5b9392505050565b600061212561212084612d65565b612d34565b90508281526020810184848401111561213d57600080fd5b612148848285612e8e565b509392505050565b600061216361215e84612d95565b612d34565b90508281526020810184848401111561217b57600080fd5b612186848285612e8e565b509392505050565b60006121a161219c84612d95565b612d34565b9050828152602081018484840111156121b957600080fd5b6121c4848285612e9d565b509392505050565b6000813590506121db81612ee3565b92915050565b6000815190506121f081612ee3565b92915050565b60008135905061220581612efa565b92915050565b60008151905061221a81612efa565b92915050565b60008135905061222f81612f11565b92915050565b60008151905061224481612f11565b92915050565b600082601f83011261225b57600080fd5b813561226b848260208601612112565b91505092915050565b600082601f83011261228557600080fd5b8135612295848260208601612150565b91505092915050565b600082601f8301126122af57600080fd5b81516122bf84826020860161218e565b91505092915050565b6000813590506122d781612f28565b92915050565b6000815190506122ec81612f28565b92915050565b60006020828403121561230457600080fd5b6000612312848285016121cc565b91505092915050565b60006020828403121561232d57600080fd5b600061233b848285016121e1565b91505092915050565b6000806040838503121561235757600080fd5b6000612365858286016121cc565b9250506020612376858286016121cc565b9150509250929050565b60008060006060848603121561239557600080fd5b60006123a3868287016121cc565b93505060206123b4868287016121cc565b92505060406123c5868287016122c8565b9150509250925092565b600080600080608085870312156123e557600080fd5b60006123f3878288016121cc565b9450506020612404878288016121cc565b9350506040612415878288016122c8565b925050606085013567ffffffffffffffff81111561243257600080fd5b61243e8782880161224a565b91505092959194509250565b6000806040838503121561245d57600080fd5b600061246b858286016121cc565b925050602061247c858286016121f6565b9150509250929050565b6000806040838503121561249957600080fd5b60006124a7858286016121cc565b92505060206124b8858286016122c8565b9150509250929050565b6000602082840312156124d457600080fd5b60006124e28482850161220b565b91505092915050565b6000602082840312156124fd57600080fd5b600061250b84828501612220565b91505092915050565b60006020828403121561252657600080fd5b600061253484828501612235565b91505092915050565b60006020828403121561254f57600080fd5b600082013567ffffffffffffffff81111561256957600080fd5b61257584828501612274565b91505092915050565b60006020828403121561259057600080fd5b600082015167ffffffffffffffff8111156125aa57600080fd5b6125b68482850161229e565b91505092915050565b6000602082840312156125d157600080fd5b60006125df848285016122c8565b91505092915050565b6000602082840312156125fa57600080fd5b6000612608848285016122dd565b91505092915050565b6000806040838503121561262457600080fd5b6000612632858286016122dd565b9250506020612643858286016121e1565b9150509250929050565b61265681612e1a565b82525050565b61266581612e08565b82525050565b61267481612e2c565b82525050565b61268381612e38565b82525050565b600061269482612dc5565b61269e8185612ddb565b93506126ae818560208601612e9d565b6126b781612ed2565b840191505092915050565b60006126cd82612dc5565b6126d78185612dec565b93506126e7818560208601612e9d565b80840191505092915050565b60006126fe82612dd0565b6127088185612df7565b9350612718818560208601612e9d565b61272181612ed2565b840191505092915050565b6000612739603283612df7565b91507f4552433732313a207472616e7366657220746f206e6f6e20455243373231526560008301527f63656976657220696d706c656d656e74657200000000000000000000000000006020830152604082019050919050565b600061279f603283612df7565b91507f5375706552617265577261707065723a206973417070726f766564466f72416c60008301527f6c204e6f7420696d706c656d656e7465642100000000000000000000000000006020830152604082019050919050565b6000612805602a83612df7565b91507f5375706552617265577261707065723a205472616e73666572206f6620746f6b60008301527f656e206661696c656421000000000000000000000000000000000000000000006020830152604082019050919050565b600061286b602a83612df7565b91507f4552433732313a2062616c616e636520717565727920666f7220746865207a6560008301527f726f2061646472657373000000000000000000000000000000000000000000006020830152604082019050919050565b60006128d1603783612df7565b91507f5375706552617265577261707065723a206765744d61696e7461696e6572506560008301527f7263656e7461676520616374696f6e206661696c6564210000000000000000006020830152604082019050919050565b6000612937603383612df7565b91507f5375706552617265577261707065723a20736574417070726f76616c466f724160008301527f6c6c204e6f7420696d706c656d656e74656421000000000000000000000000006020830152604082019050919050565b600061299d603183612df7565b91507f4552433732313a207472616e736665722063616c6c6572206973206e6f74206f60008301527f776e6572206e6f7220617070726f7665640000000000000000000000000000006020830152604082019050919050565b6000612a03602983612df7565b91507f5375706552617265577261707065723a20617070726f7665204e6f7420696d7060008301527f6c656d656e7465642100000000000000000000000000000000000000000000006020830152604082019050919050565b6000612a69603483612df7565b91507f5375706552617265577261707065723a2067657443726561746f72506572636560008301527f6e7461676520616374696f6e206661696c6564210000000000000000000000006020830152604082019050919050565b612acb81612e84565b82525050565b6000612add82846126c2565b915081905092915050565b6000602082019050612afd600083018461265c565b92915050565b6000608082019050612b18600083018761264d565b612b25602083018661265c565b612b326040830185612ac2565b8181036060830152612b448184612689565b905095945050505050565b6000604082019050612b64600083018561265c565b612b716020830184612ac2565b9392505050565b6000602082019050612b8d600083018461266b565b92915050565b6000602082019050612ba8600083018461267a565b92915050565b60006020820190508181036000830152612bc881846126f3565b905092915050565b60006020820190508181036000830152612be98161272c565b9050919050565b60006020820190508181036000830152612c0981612792565b9050919050565b60006020820190508181036000830152612c29816127f8565b9050919050565b60006020820190508181036000830152612c498161285e565b9050919050565b60006020820190508181036000830152612c69816128c4565b9050919050565b60006020820190508181036000830152612c898161292a565b9050919050565b60006020820190508181036000830152612ca981612990565b9050919050565b60006020820190508181036000830152612cc9816129f6565b9050919050565b60006020820190508181036000830152612ce981612a5c565b9050919050565b6000602082019050612d056000830184612ac2565b92915050565b6000604082019050612d206000830185612ac2565b612d2d602083018461265c565b9392505050565b6000604051905081810181811067ffffffffffffffff82111715612d5b57612d5a612ed0565b5b8060405250919050565b600067ffffffffffffffff821115612d8057612d7f612ed0565b5b601f19601f8301169050602081019050919050565b600067ffffffffffffffff821115612db057612daf612ed0565b5b601f19601f8301169050602081019050919050565b600081519050919050565b600081519050919050565b600082825260208201905092915050565b600081905092915050565b600082825260208201905092915050565b6000612e1382612e64565b9050919050565b6000612e2582612e64565b9050919050565b60008115159050919050565b60007fffffffff0000000000000000000000000000000000000000000000000000000082169050919050565b600073ffffffffffffffffffffffffffffffffffffffff82169050919050565b6000819050919050565b82818337600083830152505050565b60005b83811015612ebb578082015181840152602081019050612ea0565b83811115612eca576000848401525b50505050565bfe5b6000601f19601f8301169050919050565b612eec81612e08565b8114612ef757600080fd5b50565b612f0381612e2c565b8114612f0e57600080fd5b50565b612f1a81612e38565b8114612f2557600080fd5b50565b612f3181612e84565b8114612f3c57600080fd5b5056fe4552433732313a207472616e7366657220746f206e6f6e20455243373231526563656976657220696d706c656d656e7465724f776e61626c653a206e6577206f776e657220697320746865207a65726f2061646472657373416464726573733a20696e73756666696369656e742062616c616e636520666f722063616c6ca26469706673582212203f8a69ad2e56255283cb61c6c924c4cb3fefdff5b781f90b2040ab7ef332079764736f6c63430007060033",
  "linkReferences": {},
  "deployedLinkReferences": {}
}