{
  "_format": "hh-sol-artifact-1",
  "contractName": "SupeRareWrapper",
  "sourceName": "contracts/SuperRareWrapper.sol",
  "abi": [
    {
      "inputs": [
        {
          "internalType": "address",
          "name": "OriginalSupeRareAddr__",
          "type": "address"
        }
      ],
      "stateMutability": "nonpayable",
      "type": "constructor"
    },
    {
      "anonymous": false,
      "inputs": [
        {
          "indexed": true,
          "internalType": "address",
          "name": "owner",
          "type": "address"
        },
        {
          "indexed": true,
          "internalType": "address",
          "name": "approved",
          "type": "address"
        },
        {
          "indexed": true,
          "internalType": "uint256",
          "name": "tokenId",
          "type": "uint256"
        }
      ],
      "name": "Approval",
      "type": "event"
    },
    {
      "anonymous": false,
      "inputs": [
        {
          "indexed": true,
          "internalType": "address",
          "name": "owner",
          "type": "address"
        },
        {
          "indexed": true,
          "internalType": "address",
          "name": "operator",
          "type": "address"
        },
        {
          "indexed": false,
          "internalType": "bool",
          "name": "approved",
          "type": "bool"
        }
      ],
      "name": "ApprovalForAll",
      "type": "event"
    },
    {
      "anonymous": false,
      "inputs": [
        {
          "indexed": true,
          "internalType": "address",
          "name": "previousOwner",
          "type": "address"
        },
        {
          "indexed": true,
          "internalType": "address",
          "name": "newOwner",
          "type": "address"
        }
      ],
      "name": "OwnershipTransferred",
      "type": "event"
    },
    {
      "anonymous": false,
      "inputs": [
        {
          "indexed": true,
          "internalType": "address",
          "name": "from",
          "type": "address"
        },
        {
          "indexed": true,
          "internalType": "address",
          "name": "to",
          "type": "address"
        },
        {
          "indexed": true,
          "internalType": "uint256",
          "name": "tokenId",
          "type": "uint256"
        }
      ],
      "name": "Transfer",
      "type": "event"
    },
    {
      "inputs": [
        {
          "internalType": "uint256",
          "name": "_tokenId",
          "type": "uint256"
        }
      ],
      "name": "acceptBid",
      "outputs": [],
      "stateMutability": "nonpayable",
      "type": "function"
    },
    {
      "inputs": [
        {
          "internalType": "string",
          "name": "_uri",
          "type": "string"
        }
      ],
      "name": "addNewToken",
      "outputs": [],
      "stateMutability": "nonpayable",
      "type": "function"
    },
    {
      "inputs": [
        {
          "internalType": "string",
          "name": "_uri",
          "type": "string"
        },
        {
          "internalType": "uint256",
          "name": "_editions",
          "type": "uint256"
        },
        {
          "internalType": "uint256",
          "name": "_salePrice",
          "type": "uint256"
        }
      ],
      "name": "addNewTokenWithEditions",
      "outputs": [],
      "stateMutability": "nonpayable",
      "type": "function"
    },
    {
      "inputs": [
        {
          "internalType": "address",
          "name": "",
          "type": "address"
        },
        {
          "internalType": "uint256",
          "name": "",
          "type": "uint256"
        }
      ],
      "name": "approve",
      "outputs": [],
      "stateMutability": "nonpayable",
      "type": "function"
    },
    {
      "inputs": [
        {
          "internalType": "address",
          "name": "account",
          "type": "address"
        }
      ],
      "name": "balanceOf",
      "outputs": [
        {
          "internalType": "uint256",
          "name": "",
          "type": "uint256"
        }
      ],
      "stateMutability": "view",
      "type": "function"
    },
    {
      "inputs": [
        {
          "internalType": "uint256",
          "name": "_tokenId",
          "type": "uint256"
        }
      ],
      "name": "bid",
      "outputs": [],
      "stateMutability": "nonpayable",
      "type": "function"
    },
    {
      "inputs": [
        {
          "internalType": "uint256",
          "name": "_tokenId",
          "type": "uint256"
        }
      ],
      "name": "buy",
      "outputs": [],
      "stateMutability": "nonpayable",
      "type": "function"
    },
    {
      "inputs": [
        {
          "internalType": "uint256",
          "name": "_tokenId",
          "type": "uint256"
        }
      ],
      "name": "cancelBid",
      "outputs": [],
      "stateMutability": "nonpayable",
      "type": "function"
    },
    {
      "inputs": [
        {
          "internalType": "uint256",
          "name": "_tokenId",
          "type": "uint256"
        }
      ],
      "name": "creatorOfToken",
      "outputs": [
        {
          "internalType": "address",
          "name": "",
          "type": "address"
        }
      ],
      "stateMutability": "nonpayable",
      "type": "function"
    },
    {
      "inputs": [
        {
          "internalType": "uint256",
          "name": "_tokenId",
          "type": "uint256"
        }
      ],
      "name": "currentBidDetailsOfToken",
      "outputs": [
        {
          "internalType": "uint256",
          "name": "",
          "type": "uint256"
        },
        {
          "internalType": "address",
          "name": "",
          "type": "address"
        }
      ],
      "stateMutability": "nonpayable",
      "type": "function"
    },
    {
      "inputs": [
        {
          "internalType": "uint256",
          "name": "tokenId",
          "type": "uint256"
        }
      ],
      "name": "getApproved",
      "outputs": [
        {
          "internalType": "address",
          "name": "",
          "type": "address"
        }
      ],
      "stateMutability": "view",
      "type": "function"
    },
    {
      "inputs": [
        {
          "internalType": "address",
          "name": "",
          "type": "address"
        },
        {
          "internalType": "address",
          "name": "",
          "type": "address"
        }
      ],
      "name": "isApprovedForAll",
      "outputs": [
        {
          "internalType": "bool",
          "name": "",
          "type": "bool"
        }
      ],
      "stateMutability": "view",
      "type": "function"
    },
    {
      "inputs": [
        {
          "internalType": "address",
          "name": "_creator",
          "type": "address"
        }
      ],
      "name": "isWhitelisted",
      "outputs": [
        {
          "internalType": "bool",
          "name": "",
          "type": "bool"
        }
      ],
      "stateMutability": "nonpayable",
      "type": "function"
    },
    {
      "inputs": [],
      "name": "name",
      "outputs": [
        {
          "internalType": "string",
          "name": "",
          "type": "string"
        }
      ],
      "stateMutability": "view",
      "type": "function"
    },
    {
      "inputs": [
        {
          "internalType": "address",
          "name": "",
          "type": "address"
        },
        {
          "internalType": "address",
          "name": "",
          "type": "address"
        },
        {
          "internalType": "uint256",
          "name": "",
          "type": "uint256"
        },
        {
          "internalType": "bytes",
          "name": "",
          "type": "bytes"
        }
      ],
      "name": "onERC721Received",
      "outputs": [
        {
          "internalType": "bytes4",
          "name": "",
          "type": "bytes4"
        }
      ],
      "stateMutability": "nonpayable",
      "type": "function"
    },
    {
      "inputs": [
        {
          "internalType": "string",
          "name": "_uri",
          "type": "string"
        }
      ],
      "name": "originalTokenOfUri",
      "outputs": [
        {
          "internalType": "uint256",
          "name": "",
          "type": "uint256"
        }
      ],
      "stateMutability": "nonpayable",
      "type": "function"
    },
    {
      "inputs": [],
      "name": "owner",
      "outputs": [
        {
          "internalType": "address",
          "name": "",
          "type": "address"
        }
      ],
      "stateMutability": "view",
      "type": "function"
    },
    {
      "inputs": [
        {
          "internalType": "uint256",
          "name": "tokenId",
          "type": "uint256"
        }
      ],
      "name": "ownerOf",
      "outputs": [
        {
          "internalType": "address",
          "name": "",
          "type": "address"
        }
      ],
      "stateMutability": "view",
      "type": "function"
    },
    {
      "inputs": [],
      "name": "renounceOwnership",
      "outputs": [],
      "stateMutability": "nonpayable",
      "type": "function"
    },
    {
      "inputs": [
        {
          "internalType": "address",
          "name": "from",
          "type": "address"
        },
        {
          "internalType": "address",
          "name": "to",
          "type": "address"
        },
        {
          "internalType": "uint256",
          "name": "tokenId",
          "type": "uint256"
        }
      ],
      "name": "safeTransferFrom",
      "outputs": [],
      "stateMutability": "nonpayable",
      "type": "function"
    },
    {
      "inputs": [
        {
          "internalType": "address",
          "name": "from",
          "type": "address"
        },
        {
          "internalType": "address",
          "name": "to",
          "type": "address"
        },
        {
          "internalType": "uint256",
          "name": "tokenId",
          "type": "uint256"
        },
        {
          "internalType": "bytes",
          "name": "_data",
          "type": "bytes"
        }
      ],
      "name": "safeTransferFrom",
      "outputs": [],
      "stateMutability": "nonpayable",
      "type": "function"
    },
    {
      "inputs": [
        {
          "internalType": "uint256",
          "name": "_tokenId",
          "type": "uint256"
        }
      ],
      "name": "salePriceOfToken",
      "outputs": [
        {
          "internalType": "uint256",
          "name": "",
          "type": "uint256"
        }
      ],
      "stateMutability": "nonpayable",
      "type": "function"
    },
    {
      "inputs": [
        {
          "internalType": "address",
          "name": "",
          "type": "address"
        },
        {
          "internalType": "bool",
          "name": "",
          "type": "bool"
        }
      ],
      "name": "setApprovalForAll",
      "outputs": [],
      "stateMutability": "nonpayable",
      "type": "function"
    },
    {
      "inputs": [
        {
          "internalType": "uint256",
          "name": "_percentage",
          "type": "uint256"
        }
      ],
      "name": "setCreatorPercentage",
      "outputs": [],
      "stateMutability": "nonpayable",
      "type": "function"
    },
    {
      "inputs": [
        {
          "internalType": "uint256",
          "name": "_percentage",
          "type": "uint256"
        }
      ],
      "name": "setMaintainerPercentage",
      "outputs": [],
      "stateMutability": "nonpayable",
      "type": "function"
    },
    {
      "inputs": [
        {
          "internalType": "uint256",
          "name": "_tokenId",
          "type": "uint256"
        },
        {
          "internalType": "uint256",
          "name": "_salePrice",
          "type": "uint256"
        }
      ],
      "name": "setSalePrice",
      "outputs": [],
      "stateMutability": "nonpayable",
      "type": "function"
    },
    {
      "inputs": [
        {
          "internalType": "bytes4",
          "name": "interfaceId",
          "type": "bytes4"
        }
      ],
      "name": "supportsInterface",
      "outputs": [
        {
          "internalType": "bool",
          "name": "",
          "type": "bool"
        }
      ],
      "stateMutability": "view",
      "type": "function"
    },
    {
      "inputs": [],
      "name": "symbol",
      "outputs": [
        {
          "internalType": "string",
          "name": "",
          "type": "string"
        }
      ],
      "stateMutability": "view",
      "type": "function"
    },
    {
      "inputs": [
        {
          "internalType": "uint256",
          "name": "tokenId",
          "type": "uint256"
        }
      ],
      "name": "tokenURI",
      "outputs": [
        {
          "internalType": "string",
          "name": "",
          "type": "string"
        }
      ],
      "stateMutability": "view",
      "type": "function"
    },
    {
      "inputs": [
        {
          "internalType": "address",
          "name": "from",
          "type": "address"
        },
        {
          "internalType": "address",
          "name": "to",
          "type": "address"
        },
        {
          "internalType": "uint256",
          "name": "tokenId",
          "type": "uint256"
        }
      ],
      "name": "transferFrom",
      "outputs": [],
      "stateMutability": "nonpayable",
      "type": "function"
    },
    {
      "inputs": [
        {
          "internalType": "address",
          "name": "newOwner",
          "type": "address"
        }
      ],
      "name": "transferOwnership",
      "outputs": [],
      "stateMutability": "nonpayable",
      "type": "function"
    },
    {
      "inputs": [
        {
          "internalType": "address",
          "name": "_creator",
          "type": "address"
        }
      ],
      "name": "whitelistCreator",
      "outputs": [],
      "stateMutability": "nonpayable",
      "type": "function"
    }
  ],
  "bytecode": "0x60806040523480156200001157600080fd5b50604051620042683803806200426883398181016040528101906200003791906200031a565b600062000049620001f260201b60201c565b9050806000806101000a81548173ffffffffffffffffffffffffffffffffffffffff021916908373ffffffffffffffffffffffffffffffffffffffff1602179055508073ffffffffffffffffffffffffffffffffffffffff16600073ffffffffffffffffffffffffffffffffffffffff167f8be0079c531659141344cd1fd0a4f28419497f9722a3daafe3b4186f6b6457e060405160405180910390a350620000ff6301ffc9a760e01b620001fa60201b60201c565b80600260006101000a81548173ffffffffffffffffffffffffffffffffffffffff021916908373ffffffffffffffffffffffffffffffffffffffff160217905550600260009054906101000a900473ffffffffffffffffffffffffffffffffffffffff16600360006101000a81548173ffffffffffffffffffffffffffffffffffffffff021916908373ffffffffffffffffffffffffffffffffffffffff160217905550620001bb6380ac58cd60e01b620001fa60201b60201c565b620001d3635b5e139f60e01b620001fa60201b60201c565b620001eb63780e9d6360e01b620001fa60201b60201c565b5062000394565b600033905090565b63ffffffff60e01b817bffffffffffffffffffffffffffffffffffffffffffffffffffffffff1916141562000297576040517f08c379a000000000000000000000000000000000000000000000000000000000815260040180806020018281038252601c8152602001807f4552433136353a20696e76616c696420696e746572666163652069640000000081525060200191505060405180910390fd5b6001806000837bffffffffffffffffffffffffffffffffffffffffffffffffffffffff19167bffffffffffffffffffffffffffffffffffffffffffffffffffffffff1916815260200190815260200160002060006101000a81548160ff02191690831515021790555050565b60008151905062000314816200037a565b92915050565b6000602082840312156200032d57600080fd5b60006200033d8482850162000303565b91505092915050565b600062000353826200035a565b9050919050565b600073ffffffffffffffffffffffffffffffffffffffff82169050919050565b620003858162000346565b81146200039157600080fd5b50565b613ec480620003a46000396000f3fe608060405234801561001057600080fd5b50600436106101f05760003560e01c8063653436fd1161010f578063b88d4fde116100a2578063d96a094a11610071578063d96a094a146105d6578063d9856c21146105f2578063e985e9c51461060e578063f2fde38b1461063e576101f0565b8063b88d4fde1461053e578063c0ec93e71461055a578063c87b56dd14610576578063d5da8d44146105a6576101f0565b806395d89b41116100de57806395d89b41146104b85780639703ef35146104d65780639f2a3c32146104f2578063a22cb46514610522576101f0565b8063653436fd1461043057806370a0823114610460578063715018a6146104905780638da5cb5b1461049a576101f0565b806323b872dd11610187578063454a2ab311610156578063454a2ab3146103ac5780635c68a557146103c857806362f11dd2146103e45780636352211e14610400576101f0565b806323b872dd146103285780632b1fd58a146103445780633af32abf1461036057806342842e0e14610390576101f0565b8063081812fc116101c3578063081812fc1461027b578063095ea7b3146102ab578063150b7a02146102c75780631a289aea146102f7576101f0565b8063019871e9146101f557806301ffc9a714610211578063053992c51461024157806306fdde031461025d575b600080fd5b61020f600480360381019061020a9190612fdc565b61065a565b005b61022b60048036038101906102269190612f08565b6107c0565b6040516102389190613902565b60405180910390f35b61025b600480360381019061025691906130d1565b610828565b005b61026561098b565b6040516102729190613938565b60405180910390f35b61029560048036038101906102909190613043565b610a37565b6040516102a29190613872565b60405180910390f35b6102c560048036038101906102c09190612ea3565b610aeb565b005b6102e160048036038101906102dc9190612dec565b610b26565b6040516102ee919061391d565b60405180910390f35b610311600480360381019061030c9190613043565b610b3a565b60405161031f929190613bb3565b60405180910390f35b610342600480360381019061033d9190612d9d565b610bf2565b005b61035e60048036038101906103599190613043565b610c52565b005b61037a60048036038101906103759190612d0f565b610db2565b6040516103879190613902565b60405180910390f35b6103aa60048036038101906103a59190612d9d565b610e68565b005b6103c660048036038101906103c19190613043565b610e88565b005b6103e260048036038101906103dd9190613043565b610fe8565b005b6103fe60048036038101906103f99190612d0f565b6111f7565b005b61041a60048036038101906104159190613043565b611357565b6040516104279190613872565b60405180910390f35b61044a60048036038101906104459190612f5a565b61140b565b6040516104579190613b98565b60405180910390f35b61047a60048036038101906104759190612d0f565b6114c1565b6040516104879190613b98565b60405180910390f35b6104986115e4565b005b6104a2611751565b6040516104af9190613872565b60405180910390f35b6104c061177a565b6040516104cd9190613938565b60405180910390f35b6104f060048036038101906104eb9190613043565b611826565b005b61050c60048036038101906105079190613043565b611986565b6040516105199190613b98565b60405180910390f35b61053c60048036038101906105379190612e67565b611a3c565b005b61055860048036038101906105539190612dec565b611a77565b005b610574600480360381019061056f9190613043565b611ad9565b005b610590600480360381019061058b9190613043565b611ce8565b60405161059d9190613938565b60405180910390f35b6105c060048036038101906105bb9190613043565b611da1565b6040516105cd9190613872565b60405180910390f35b6105f060048036038101906105eb9190613043565b611e57565b005b61060c60048036038101906106079190612f5a565b611fb7565b005b61062860048036038101906106239190612d61565b612117565b6040516106359190613902565b60405180910390f35b61065860048036038101906106539190612d0f565b612154565b005b6000600260009054906101000a900473ffffffffffffffffffffffffffffffffffffffff1673ffffffffffffffffffffffffffffffffffffffff168484846040516024016106aa9392919061395a565b6040516020818303038152906040527f019871e9000000000000000000000000000000000000000000000000000000007bffffffffffffffffffffffffffffffffffffffffffffffffffffffff19166020820180517bffffffffffffffffffffffffffffffffffffffffffffffffffffffff8381831617835250505050604051610734919061385b565b6000604051808303816000865af19150503d8060008114610771576040519150601f19603f3d011682016040523d82523d6000602084013e610776565b606091505b50509050806107ba576040517f08c379a00000000000000000000000000000000000000000000000000000000081526004016107b190613af8565b60405180910390fd5b50505050565b600060016000837bffffffffffffffffffffffffffffffffffffffffffffffffffffffff19167bffffffffffffffffffffffffffffffffffffffffffffffffffffffff1916815260200190815260200160002060009054906101000a900460ff169050919050565b6000600260009054906101000a900473ffffffffffffffffffffffffffffffffffffffff1673ffffffffffffffffffffffffffffffffffffffff168383604051602401610876929190613bdc565b6040516020818303038152906040527f053992c5000000000000000000000000000000000000000000000000000000007bffffffffffffffffffffffffffffffffffffffffffffffffffffffff19166020820180517bffffffffffffffffffffffffffffffffffffffffffffffffffffffff8381831617835250505050604051610900919061385b565b6000604051808303816000865af19150503d806000811461093d576040519150601f19603f3d011682016040523d82523d6000602084013e610942565b606091505b5050905080610986576040517f08c379a000000000000000000000000000000000000000000000000000000000815260040161097d90613ad8565b60405180910390fd5b505050565b6060600360009054906101000a900473ffffffffffffffffffffffffffffffffffffffff1673ffffffffffffffffffffffffffffffffffffffff166306fdde036040518163ffffffff1660e01b815260040160006040518083038186803b1580156109f557600080fd5b505afa158015610a09573d6000803e3d6000fd5b505050506040513d6000823e3d601f19601f82011682018060405250810190610a329190612f9b565b905090565b6000600360009054906101000a900473ffffffffffffffffffffffffffffffffffffffff1673ffffffffffffffffffffffffffffffffffffffff16632a6dd48f836040518263ffffffff1660e01b8152600401610a949190613b98565b60206040518083038186803b158015610aac57600080fd5b505afa158015610ac0573d6000803e3d6000fd5b505050506040513d601f19601f82011682018060405250810190610ae49190612d38565b9050919050565b6040517f08c379a0000000000000000000000000000000000000000000000000000000008152600401610b1d90613b58565b60405180910390fd5b600063150b7a0260e01b9050949350505050565b600080600360009054906101000a900473ffffffffffffffffffffffffffffffffffffffff1673ffffffffffffffffffffffffffffffffffffffff16631a289aea846040518263ffffffff1660e01b8152600401610b989190613b98565b6040805180830381600087803b158015610bb157600080fd5b505af1158015610bc5573d6000803e3d6000fd5b505050506040513d601f19601f82011682018060405250810190610be99190613095565b91509150915091565b610c03610bfd612346565b8261234e565b610c42576040517f08c379a0000000000000000000000000000000000000000000000000000000008152600401610c3990613b38565b60405180910390fd5b610c4d838383612511565b505050565b6000600260009054906101000a900473ffffffffffffffffffffffffffffffffffffffff1673ffffffffffffffffffffffffffffffffffffffff1682604051602401610c9e9190613b98565b6040516020818303038152906040527f2b1fd58a000000000000000000000000000000000000000000000000000000007bffffffffffffffffffffffffffffffffffffffffffffffffffffffff19166020820180517bffffffffffffffffffffffffffffffffffffffffffffffffffffffff8381831617835250505050604051610d28919061385b565b6000604051808303816000865af19150503d8060008114610d65576040519150601f19603f3d011682016040523d82523d6000602084013e610d6a565b606091505b5050905080610dae576040517f08c379a0000000000000000000000000000000000000000000000000000000008152600401610da590613998565b60405180910390fd5b5050565b6000600360009054906101000a900473ffffffffffffffffffffffffffffffffffffffff1673ffffffffffffffffffffffffffffffffffffffff16633af32abf836040518263ffffffff1660e01b8152600401610e0f9190613872565b602060405180830381600087803b158015610e2957600080fd5b505af1158015610e3d573d6000803e3d6000fd5b505050506040513d601f19601f82011682018060405250810190610e619190612edf565b9050919050565b610e8383838360405180602001604052806000815250611a77565b505050565b6000600260009054906101000a900473ffffffffffffffffffffffffffffffffffffffff1673ffffffffffffffffffffffffffffffffffffffff1682604051602401610ed49190613b98565b6040516020818303038152906040527f454a2ab3000000000000000000000000000000000000000000000000000000007bffffffffffffffffffffffffffffffffffffffffffffffffffffffff19166020820180517bffffffffffffffffffffffffffffffffffffffffffffffffffffffff8381831617835250505050604051610f5e919061385b565b6000604051808303816000865af19150503d8060008114610f9b576040519150601f19603f3d011682016040523d82523d6000602084013e610fa0565b606091505b5050905080610fe4576040517f08c379a0000000000000000000000000000000000000000000000000000000008152600401610fdb90613a38565b60405180910390fd5b5050565b610ff0612346565b73ffffffffffffffffffffffffffffffffffffffff1661100e611751565b73ffffffffffffffffffffffffffffffffffffffff1614611097576040517f08c379a00000000000000000000000000000000000000000000000000000000081526004018080602001828103825260208152602001807f4f776e61626c653a2063616c6c6572206973206e6f7420746865206f776e657281525060200191505060405180910390fd5b6000600260009054906101000a900473ffffffffffffffffffffffffffffffffffffffff1673ffffffffffffffffffffffffffffffffffffffff16826040516024016110e39190613b98565b6040516020818303038152906040527f5c68a557000000000000000000000000000000000000000000000000000000007bffffffffffffffffffffffffffffffffffffffffffffffffffffffff19166020820180517bffffffffffffffffffffffffffffffffffffffffffffffffffffffff838183161783525050505060405161116d919061385b565b6000604051808303816000865af19150503d80600081146111aa576040519150601f19603f3d011682016040523d82523d6000602084013e6111af565b606091505b50509050806111f3576040517f08c379a00000000000000000000000000000000000000000000000000000000081526004016111ea90613a58565b60405180910390fd5b5050565b6000600260009054906101000a900473ffffffffffffffffffffffffffffffffffffffff1673ffffffffffffffffffffffffffffffffffffffff16826040516024016112439190613872565b6040516020818303038152906040527f62f11dd2000000000000000000000000000000000000000000000000000000007bffffffffffffffffffffffffffffffffffffffffffffffffffffffff19166020820180517bffffffffffffffffffffffffffffffffffffffffffffffffffffffff83818316178352505050506040516112cd919061385b565b6000604051808303816000865af19150503d806000811461130a576040519150601f19603f3d011682016040523d82523d6000602084013e61130f565b606091505b5050905080611353576040517f08c379a000000000000000000000000000000000000000000000000000000000815260040161134a906139f8565b60405180910390fd5b5050565b6000600360009054906101000a900473ffffffffffffffffffffffffffffffffffffffff1673ffffffffffffffffffffffffffffffffffffffff16636352211e836040518263ffffffff1660e01b81526004016113b49190613b98565b60206040518083038186803b1580156113cc57600080fd5b505afa1580156113e0573d6000803e3d6000fd5b505050506040513d601f19601f820116820180604052508101906114049190612d38565b9050919050565b6000600360009054906101000a900473ffffffffffffffffffffffffffffffffffffffff1673ffffffffffffffffffffffffffffffffffffffff1663653436fd836040518263ffffffff1660e01b81526004016114689190613938565b602060405180830381600087803b15801561148257600080fd5b505af1158015611496573d6000803e3d6000fd5b505050506040513d601f19601f820116820180604052508101906114ba919061306c565b9050919050565b60008073ffffffffffffffffffffffffffffffffffffffff168273ffffffffffffffffffffffffffffffffffffffff161415611532576040517f08c379a000000000000000000000000000000000000000000000000000000000815260040161152990613ab8565b60405180910390fd5b600360009054906101000a900473ffffffffffffffffffffffffffffffffffffffff1673ffffffffffffffffffffffffffffffffffffffff166370a08231836040518263ffffffff1660e01b815260040161158d9190613872565b60206040518083038186803b1580156115a557600080fd5b505afa1580156115b9573d6000803e3d6000fd5b505050506040513d601f19601f820116820180604052508101906115dd919061306c565b9050919050565b6115ec612346565b73ffffffffffffffffffffffffffffffffffffffff1661160a611751565b73ffffffffffffffffffffffffffffffffffffffff1614611693576040517f08c379a00000000000000000000000000000000000000000000000000000000081526004018080602001828103825260208152602001807f4f776e61626c653a2063616c6c6572206973206e6f7420746865206f776e657281525060200191505060405180910390fd5b600073ffffffffffffffffffffffffffffffffffffffff1660008054906101000a900473ffffffffffffffffffffffffffffffffffffffff1673ffffffffffffffffffffffffffffffffffffffff167f8be0079c531659141344cd1fd0a4f28419497f9722a3daafe3b4186f6b6457e060405160405180910390a360008060006101000a81548173ffffffffffffffffffffffffffffffffffffffff021916908373ffffffffffffffffffffffffffffffffffffffff160217905550565b60008060009054906101000a900473ffffffffffffffffffffffffffffffffffffffff16905090565b6060600360009054906101000a900473ffffffffffffffffffffffffffffffffffffffff1673ffffffffffffffffffffffffffffffffffffffff166395d89b416040518163ffffffff1660e01b815260040160006040518083038186803b1580156117e457600080fd5b505afa1580156117f8573d6000803e3d6000fd5b505050506040513d6000823e3d601f19601f820116820180604052508101906118219190612f9b565b905090565b6000600260009054906101000a900473ffffffffffffffffffffffffffffffffffffffff1673ffffffffffffffffffffffffffffffffffffffff16826040516024016118729190613b98565b6040516020818303038152906040527f9703ef35000000000000000000000000000000000000000000000000000000007bffffffffffffffffffffffffffffffffffffffffffffffffffffffff19166020820180517bffffffffffffffffffffffffffffffffffffffffffffffffffffffff83818316178352505050506040516118fc919061385b565b6000604051808303816000865af19150503d8060008114611939576040519150601f19603f3d011682016040523d82523d6000602084013e61193e565b606091505b5050905080611982576040517f08c379a000000000000000000000000000000000000000000000000000000000815260040161197990613a98565b60405180910390fd5b5050565b6000600360009054906101000a900473ffffffffffffffffffffffffffffffffffffffff1673ffffffffffffffffffffffffffffffffffffffff16639f2a3c32836040518263ffffffff1660e01b81526004016119e39190613b98565b602060405180830381600087803b1580156119fd57600080fd5b505af1158015611a11573d6000803e3d6000fd5b505050506040513d601f19601f82011682018060405250810190611a35919061306c565b9050919050565b6040517f08c379a0000000000000000000000000000000000000000000000000000000008152600401611a6e90613b18565b60405180910390fd5b611a88611a82612346565b8361234e565b611ac7576040517f08c379a0000000000000000000000000000000000000000000000000000000008152600401611abe90613b38565b60405180910390fd5b611ad3848484846126d0565b50505050565b611ae1612346565b73ffffffffffffffffffffffffffffffffffffffff16611aff611751565b73ffffffffffffffffffffffffffffffffffffffff1614611b88576040517f08c379a00000000000000000000000000000000000000000000000000000000081526004018080602001828103825260208152602001807f4f776e61626c653a2063616c6c6572206973206e6f7420746865206f776e657281525060200191505060405180910390fd5b6000600260009054906101000a900473ffffffffffffffffffffffffffffffffffffffff1673ffffffffffffffffffffffffffffffffffffffff1682604051602401611bd49190613b98565b6040516020818303038152906040527fc0ec93e7000000000000000000000000000000000000000000000000000000007bffffffffffffffffffffffffffffffffffffffffffffffffffffffff19166020820180517bffffffffffffffffffffffffffffffffffffffffffffffffffffffff8381831617835250505050604051611c5e919061385b565b6000604051808303816000865af19150503d8060008114611c9b576040519150601f19603f3d011682016040523d82523d6000602084013e611ca0565b606091505b5050905080611ce4576040517f08c379a0000000000000000000000000000000000000000000000000000000008152600401611cdb90613a58565b60405180910390fd5b5050565b6060600360009054906101000a900473ffffffffffffffffffffffffffffffffffffffff1673ffffffffffffffffffffffffffffffffffffffff1663c87b56dd836040518263ffffffff1660e01b8152600401611d459190613b98565b60006040518083038186803b158015611d5d57600080fd5b505afa158015611d71573d6000803e3d6000fd5b505050506040513d6000823e3d601f19601f82011682018060405250810190611d9a9190612f9b565b9050919050565b6000600360009054906101000a900473ffffffffffffffffffffffffffffffffffffffff1673ffffffffffffffffffffffffffffffffffffffff1663d5da8d44836040518263ffffffff1660e01b8152600401611dfe9190613b98565b602060405180830381600087803b158015611e1857600080fd5b505af1158015611e2c573d6000803e3d6000fd5b505050506040513d601f19601f82011682018060405250810190611e509190612d38565b9050919050565b6000600260009054906101000a900473ffffffffffffffffffffffffffffffffffffffff1673ffffffffffffffffffffffffffffffffffffffff1682604051602401611ea39190613b98565b6040516020818303038152906040527fd96a094a000000000000000000000000000000000000000000000000000000007bffffffffffffffffffffffffffffffffffffffffffffffffffffffff19166020820180517bffffffffffffffffffffffffffffffffffffffffffffffffffffffff8381831617835250505050604051611f2d919061385b565b6000604051808303816000865af19150503d8060008114611f6a576040519150601f19603f3d011682016040523d82523d6000602084013e611f6f565b606091505b5050905080611fb3576040517f08c379a0000000000000000000000000000000000000000000000000000000008152600401611faa906139d8565b60405180910390fd5b5050565b6000600260009054906101000a900473ffffffffffffffffffffffffffffffffffffffff1673ffffffffffffffffffffffffffffffffffffffff16826040516024016120039190613938565b6040516020818303038152906040527fa0258d0b000000000000000000000000000000000000000000000000000000007bffffffffffffffffffffffffffffffffffffffffffffffffffffffff19166020820180517bffffffffffffffffffffffffffffffffffffffffffffffffffffffff838183161783525050505060405161208d919061385b565b6000604051808303816000865af19150503d80600081146120ca576040519150601f19603f3d011682016040523d82523d6000602084013e6120cf565b606091505b5050905080612113576040517f08c379a000000000000000000000000000000000000000000000000000000000815260040161210a90613b78565b60405180910390fd5b5050565b60006040517f08c379a000000000000000000000000000000000000000000000000000000000815260040161214b90613a18565b60405180910390fd5b61215c612346565b73ffffffffffffffffffffffffffffffffffffffff1661217a611751565b73ffffffffffffffffffffffffffffffffffffffff1614612203576040517f08c379a00000000000000000000000000000000000000000000000000000000081526004018080602001828103825260208152602001807f4f776e61626c653a2063616c6c6572206973206e6f7420746865206f776e657281525060200191505060405180910390fd5b600073ffffffffffffffffffffffffffffffffffffffff168173ffffffffffffffffffffffffffffffffffffffff161415612289576040517f08c379a0000000000000000000000000000000000000000000000000000000008152600401808060200182810382526026815260200180613e436026913960400191505060405180910390fd5b8073ffffffffffffffffffffffffffffffffffffffff1660008054906101000a900473ffffffffffffffffffffffffffffffffffffffff1673ffffffffffffffffffffffffffffffffffffffff167f8be0079c531659141344cd1fd0a4f28419497f9722a3daafe3b4186f6b6457e060405160405180910390a3806000806101000a81548173ffffffffffffffffffffffffffffffffffffffff021916908373ffffffffffffffffffffffffffffffffffffffff16021790555050565b600033905090565b60008273ffffffffffffffffffffffffffffffffffffffff16600360009054906101000a900473ffffffffffffffffffffffffffffffffffffffff1673ffffffffffffffffffffffffffffffffffffffff16632a6dd48f846040518263ffffffff1660e01b81526004016123c29190613b98565b60206040518083038186803b1580156123da57600080fd5b505afa1580156123ee573d6000803e3d6000fd5b505050506040513d601f19601f820116820180604052508101906124129190612d38565b73ffffffffffffffffffffffffffffffffffffffff16148061250957508273ffffffffffffffffffffffffffffffffffffffff16600360009054906101000a900473ffffffffffffffffffffffffffffffffffffffff1673ffffffffffffffffffffffffffffffffffffffff16636352211e846040518263ffffffff1660e01b81526004016124a19190613b98565b60206040518083038186803b1580156124b957600080fd5b505afa1580156124cd573d6000803e3d6000fd5b505050506040513d601f19601f820116820180604052508101906124f19190612d38565b73ffffffffffffffffffffffffffffffffffffffff16145b905092915050565b6000600260009054906101000a900473ffffffffffffffffffffffffffffffffffffffff1673ffffffffffffffffffffffffffffffffffffffff16838360405160240161255f9291906138d9565b6040516020818303038152906040527fa9059cbb000000000000000000000000000000000000000000000000000000007bffffffffffffffffffffffffffffffffffffffffffffffffffffffff19166020820180517bffffffffffffffffffffffffffffffffffffffffffffffffffffffff83818316178352505050506040516125e9919061385b565b6000604051808303816000865af19150503d8060008114612626576040519150601f19603f3d011682016040523d82523d6000602084013e61262b565b606091505b505090508061266f576040517f08c379a000000000000000000000000000000000000000000000000000000000815260040161266690613a78565b60405180910390fd5b818373ffffffffffffffffffffffffffffffffffffffff168573ffffffffffffffffffffffffffffffffffffffff167fddf252ad1be2c89b69c2b068fc378daa952ba7f163c4a11628f55a4df523b3ef60405160405180910390a450505050565b6126db848484612511565b6126e78484848461272c565b612726576040517f08c379a000000000000000000000000000000000000000000000000000000000815260040161271d906139b8565b60405180910390fd5b50505050565b600061274d8473ffffffffffffffffffffffffffffffffffffffff16612890565b61275a5760019050612888565b600061282163150b7a0260e01b61276f612346565b888787604051602401612785949392919061388d565b604051602081830303815290604052907bffffffffffffffffffffffffffffffffffffffffffffffffffffffff19166020820180517bffffffffffffffffffffffffffffffffffffffffffffffffffffffff8381831617835250505050604051806060016040528060328152602001613e11603291398773ffffffffffffffffffffffffffffffffffffffff166128a39092919063ffffffff16565b90506000818060200190518101906128399190612f31565b905063150b7a0260e01b7bffffffffffffffffffffffffffffffffffffffffffffffffffffffff1916817bffffffffffffffffffffffffffffffffffffffffffffffffffffffff191614925050505b949350505050565b600080823b905060008111915050919050565b60606128b284846000856128bb565b90509392505050565b606082471015612916576040517f08c379a0000000000000000000000000000000000000000000000000000000008152600401808060200182810382526026815260200180613e696026913960400191505060405180910390fd5b61291f85612890565b612991576040517f08c379a000000000000000000000000000000000000000000000000000000000815260040180806020018281038252601d8152602001807f416464726573733a2063616c6c20746f206e6f6e2d636f6e747261637400000081525060200191505060405180910390fd5b6000808673ffffffffffffffffffffffffffffffffffffffff1685876040518082805190602001908083835b602083106129e057805182526020820191506020810190506020830392506129bd565b6001836020036101000a03801982511681845116808217855250505050505090500191505060006040518083038185875af1925050503d8060008114612a42576040519150601f19603f3d011682016040523d82523d6000602084013e612a47565b606091505b5091509150612a57828286612a63565b92505050949350505050565b60608315612a7357829050612b28565b600083511115612a865782518084602001fd5b816040517f08c379a00000000000000000000000000000000000000000000000000000000081526004018080602001828103825283818151815260200191508051906020019080838360005b83811015612aed578082015181840152602081019050612ad2565b50505050905090810190601f168015612b1a5780820380516001836020036101000a031916815260200191505b509250505060405180910390fd5b9392505050565b6000612b42612b3d84613c36565b613c05565b905082815260208101848484011115612b5a57600080fd5b612b65848285613d5f565b509392505050565b6000612b80612b7b84613c66565b613c05565b905082815260208101848484011115612b9857600080fd5b612ba3848285613d5f565b509392505050565b6000612bbe612bb984613c66565b613c05565b905082815260208101848484011115612bd657600080fd5b612be1848285613d6e565b509392505050565b600081359050612bf881613db4565b92915050565b600081519050612c0d81613db4565b92915050565b600081359050612c2281613dcb565b92915050565b600081519050612c3781613dcb565b92915050565b600081359050612c4c81613de2565b92915050565b600081519050612c6181613de2565b92915050565b600082601f830112612c7857600080fd5b8135612c88848260208601612b2f565b91505092915050565b600082601f830112612ca257600080fd5b8135612cb2848260208601612b6d565b91505092915050565b600082601f830112612ccc57600080fd5b8151612cdc848260208601612bab565b91505092915050565b600081359050612cf481613df9565b92915050565b600081519050612d0981613df9565b92915050565b600060208284031215612d2157600080fd5b6000612d2f84828501612be9565b91505092915050565b600060208284031215612d4a57600080fd5b6000612d5884828501612bfe565b91505092915050565b60008060408385031215612d7457600080fd5b6000612d8285828601612be9565b9250506020612d9385828601612be9565b9150509250929050565b600080600060608486031215612db257600080fd5b6000612dc086828701612be9565b9350506020612dd186828701612be9565b9250506040612de286828701612ce5565b9150509250925092565b60008060008060808587031215612e0257600080fd5b6000612e1087828801612be9565b9450506020612e2187828801612be9565b9350506040612e3287828801612ce5565b925050606085013567ffffffffffffffff811115612e4f57600080fd5b612e5b87828801612c67565b91505092959194509250565b60008060408385031215612e7a57600080fd5b6000612e8885828601612be9565b9250506020612e9985828601612c13565b9150509250929050565b60008060408385031215612eb657600080fd5b6000612ec485828601612be9565b9250506020612ed585828601612ce5565b9150509250929050565b600060208284031215612ef157600080fd5b6000612eff84828501612c28565b91505092915050565b600060208284031215612f1a57600080fd5b6000612f2884828501612c3d565b91505092915050565b600060208284031215612f4357600080fd5b6000612f5184828501612c52565b91505092915050565b600060208284031215612f6c57600080fd5b600082013567ffffffffffffffff811115612f8657600080fd5b612f9284828501612c91565b91505092915050565b600060208284031215612fad57600080fd5b600082015167ffffffffffffffff811115612fc757600080fd5b612fd384828501612cbb565b91505092915050565b600080600060608486031215612ff157600080fd5b600084013567ffffffffffffffff81111561300b57600080fd5b61301786828701612c91565b935050602061302886828701612ce5565b925050604061303986828701612ce5565b9150509250925092565b60006020828403121561305557600080fd5b600061306384828501612ce5565b91505092915050565b60006020828403121561307e57600080fd5b600061308c84828501612cfa565b91505092915050565b600080604083850312156130a857600080fd5b60006130b685828601612cfa565b92505060206130c785828601612bfe565b9150509250929050565b600080604083850312156130e457600080fd5b60006130f285828601612ce5565b925050602061310385828601612ce5565b9150509250929050565b61311681613ceb565b82525050565b61312581613cd9565b82525050565b61313481613cfd565b82525050565b61314381613d09565b82525050565b600061315482613c96565b61315e8185613cac565b935061316e818560208601613d6e565b61317781613da3565b840191505092915050565b600061318d82613c96565b6131978185613cbd565b93506131a7818560208601613d6e565b80840191505092915050565b60006131be82613ca1565b6131c88185613cc8565b93506131d8818560208601613d6e565b6131e181613da3565b840191505092915050565b60006131f9602983613cc8565b91507f5375706552617265577261707065723a2061636365707442696420616374696f60008301527f6e206661696c65642100000000000000000000000000000000000000000000006020830152604082019050919050565b600061325f603283613cc8565b91507f4552433732313a207472616e7366657220746f206e6f6e20455243373231526560008301527f63656976657220696d706c656d656e74657200000000000000000000000000006020830152604082019050919050565b60006132c5602383613cc8565b91507f5375706552617265577261707065723a2062757920616374696f6e206661696c60008301527f65642100000000000000000000000000000000000000000000000000000000006020830152604082019050919050565b600061332b603083613cc8565b91507f5375706552617265577261707065723a2077686974656c69737443726561746f60008301527f7220616374696f6e206661696c656421000000000000000000000000000000006020830152604082019050919050565b6000613391603283613cc8565b91507f5375706552617265577261707065723a206973417070726f766564466f72416c60008301527f6c204e6f7420696d706c656d656e7465642100000000000000000000000000006020830152604082019050919050565b60006133f7602383613cc8565b91507f5375706552617265577261707065723a2062696420616374696f6e206661696c60008301527f65642100000000000000000000000000000000000000000000000000000000006020830152604082019050919050565b600061345d603783613cc8565b91507f5375706552617265577261707065723a207365744d61696e7461696e6572506560008301527f7263656e7461676520616374696f6e206661696c6564210000000000000000006020830152604082019050919050565b60006134c3602a83613cc8565b91507f5375706552617265577261707065723a205472616e73666572206f6620746f6b60008301527f656e206661696c656421000000000000000000000000000000000000000000006020830152604082019050919050565b6000613529602983613cc8565b91507f5375706552617265577261707065723a2063616e63656c42696420616374696f60008301527f6e206661696c65642100000000000000000000000000000000000000000000006020830152604082019050919050565b600061358f602a83613cc8565b91507f4552433732313a2062616c616e636520717565727920666f7220746865207a6560008301527f726f2061646472657373000000000000000000000000000000000000000000006020830152604082019050919050565b60006135f5602c83613cc8565b91507f5375706552617265577261707065723a2073657453616c65507269636520616360008301527f74696f6e206661696c65642100000000000000000000000000000000000000006020830152604082019050919050565b600061365b603783613cc8565b91507f5375706552617265577261707065723a206164644e6577546f6b656e5769746860008301527f45646974696f6e7320616374696f6e206661696c6564210000000000000000006020830152604082019050919050565b60006136c1603383613cc8565b91507f5375706552617265577261707065723a20736574417070726f76616c466f724160008301527f6c6c204e6f7420696d706c656d656e74656421000000000000000000000000006020830152604082019050919050565b6000613727603183613cc8565b91507f4552433732313a207472616e736665722063616c6c6572206973206e6f74206f60008301527f776e6572206e6f7220617070726f7665640000000000000000000000000000006020830152604082019050919050565b600061378d602983613cc8565b91507f5375706552617265577261707065723a20617070726f7665204e6f7420696d7060008301527f6c656d656e7465642100000000000000000000000000000000000000000000006020830152604082019050919050565b60006137f3602b83613cc8565b91507f5375706552617265577261707065723a206164644e6577546f6b656e2061637460008301527f696f6e206661696c6564210000000000000000000000000000000000000000006020830152604082019050919050565b61385581613d55565b82525050565b60006138678284613182565b915081905092915050565b6000602082019050613887600083018461311c565b92915050565b60006080820190506138a2600083018761310d565b6138af602083018661311c565b6138bc604083018561384c565b81810360608301526138ce8184613149565b905095945050505050565b60006040820190506138ee600083018561311c565b6138fb602083018461384c565b9392505050565b6000602082019050613917600083018461312b565b92915050565b6000602082019050613932600083018461313a565b92915050565b6000602082019050818103600083015261395281846131b3565b905092915050565b6000606082019050818103600083015261397481866131b3565b9050613983602083018561384c565b613990604083018461384c565b949350505050565b600060208201905081810360008301526139b1816131ec565b9050919050565b600060208201905081810360008301526139d181613252565b9050919050565b600060208201905081810360008301526139f1816132b8565b9050919050565b60006020820190508181036000830152613a118161331e565b9050919050565b60006020820190508181036000830152613a3181613384565b9050919050565b60006020820190508181036000830152613a51816133ea565b9050919050565b60006020820190508181036000830152613a7181613450565b9050919050565b60006020820190508181036000830152613a91816134b6565b9050919050565b60006020820190508181036000830152613ab18161351c565b9050919050565b60006020820190508181036000830152613ad181613582565b9050919050565b60006020820190508181036000830152613af1816135e8565b9050919050565b60006020820190508181036000830152613b118161364e565b9050919050565b60006020820190508181036000830152613b31816136b4565b9050919050565b60006020820190508181036000830152613b518161371a565b9050919050565b60006020820190508181036000830152613b7181613780565b9050919050565b60006020820190508181036000830152613b91816137e6565b9050919050565b6000602082019050613bad600083018461384c565b92915050565b6000604082019050613bc8600083018561384c565b613bd5602083018461311c565b9392505050565b6000604082019050613bf1600083018561384c565b613bfe602083018461384c565b9392505050565b6000604051905081810181811067ffffffffffffffff82111715613c2c57613c2b613da1565b5b8060405250919050565b600067ffffffffffffffff821115613c5157613c50613da1565b5b601f19601f8301169050602081019050919050565b600067ffffffffffffffff821115613c8157613c80613da1565b5b601f19601f8301169050602081019050919050565b600081519050919050565b600081519050919050565b600082825260208201905092915050565b600081905092915050565b600082825260208201905092915050565b6000613ce482613d35565b9050919050565b6000613cf682613d35565b9050919050565b60008115159050919050565b60007fffffffff0000000000000000000000000000000000000000000000000000000082169050919050565b600073ffffffffffffffffffffffffffffffffffffffff82169050919050565b6000819050919050565b82818337600083830152505050565b60005b83811015613d8c578082015181840152602081019050613d71565b83811115613d9b576000848401525b50505050565bfe5b6000601f19601f8301169050919050565b613dbd81613cd9565b8114613dc857600080fd5b50565b613dd481613cfd565b8114613ddf57600080fd5b50565b613deb81613d09565b8114613df657600080fd5b50565b613e0281613d55565b8114613e0d57600080fd5b5056fe4552433732313a207472616e7366657220746f206e6f6e20455243373231526563656976657220696d706c656d656e7465724f776e61626c653a206e6577206f776e657220697320746865207a65726f2061646472657373416464726573733a20696e73756666696369656e742062616c616e636520666f722063616c6ca264697066735822122018a65ec6daf51abd8c78d34a14c80ce95d99e01328e75f8b1d128c6a5650088a64736f6c63430007060033",
  "linkReferences": {},
  "deployedLinkReferences": {}
}