{
  "_format": "hh-sol-artifact-1",
  "contractName": "SupeRareWrapper",
  "sourceName": "contracts/SuperRareWrapper.sol",
  "abi": [
    {
      "inputs": [
        {
          "internalType": "address",
          "name": "OriginalSupeRareAddr__",
          "type": "address"
        }
      ],
      "stateMutability": "nonpayable",
      "type": "constructor"
    },
    {
      "anonymous": false,
      "inputs": [
        {
          "indexed": true,
          "internalType": "address",
          "name": "owner",
          "type": "address"
        },
        {
          "indexed": true,
          "internalType": "address",
          "name": "approved",
          "type": "address"
        },
        {
          "indexed": true,
          "internalType": "uint256",
          "name": "tokenId",
          "type": "uint256"
        }
      ],
      "name": "Approval",
      "type": "event"
    },
    {
      "anonymous": false,
      "inputs": [
        {
          "indexed": true,
          "internalType": "address",
          "name": "owner",
          "type": "address"
        },
        {
          "indexed": true,
          "internalType": "address",
          "name": "operator",
          "type": "address"
        },
        {
          "indexed": false,
          "internalType": "bool",
          "name": "approved",
          "type": "bool"
        }
      ],
      "name": "ApprovalForAll",
      "type": "event"
    },
    {
      "anonymous": false,
      "inputs": [
        {
          "indexed": true,
          "internalType": "address",
          "name": "previousOwner",
          "type": "address"
        },
        {
          "indexed": true,
          "internalType": "address",
          "name": "newOwner",
          "type": "address"
        }
      ],
      "name": "OwnershipTransferred",
      "type": "event"
    },
    {
      "anonymous": false,
      "inputs": [
        {
          "indexed": true,
          "internalType": "address",
          "name": "from",
          "type": "address"
        },
        {
          "indexed": true,
          "internalType": "address",
          "name": "to",
          "type": "address"
        },
        {
          "indexed": true,
          "internalType": "uint256",
          "name": "tokenId",
          "type": "uint256"
        }
      ],
      "name": "Transfer",
      "type": "event"
    },
    {
      "inputs": [
        {
          "internalType": "uint256",
          "name": "_tokenId",
          "type": "uint256"
        }
      ],
      "name": "acceptBid",
      "outputs": [],
      "stateMutability": "nonpayable",
      "type": "function"
    },
    {
      "inputs": [
        {
          "internalType": "string",
          "name": "_uri",
          "type": "string"
        }
      ],
      "name": "addNewToken",
      "outputs": [],
      "stateMutability": "nonpayable",
      "type": "function"
    },
    {
      "inputs": [
        {
          "internalType": "string",
          "name": "_uri",
          "type": "string"
        },
        {
          "internalType": "uint256",
          "name": "_editions",
          "type": "uint256"
        },
        {
          "internalType": "uint256",
          "name": "_salePrice",
          "type": "uint256"
        }
      ],
      "name": "addNewTokenWithEditions",
      "outputs": [],
      "stateMutability": "nonpayable",
      "type": "function"
    },
    {
      "inputs": [
        {
          "internalType": "address",
          "name": "",
          "type": "address"
        },
        {
          "internalType": "uint256",
          "name": "",
          "type": "uint256"
        }
      ],
      "name": "approve",
      "outputs": [],
      "stateMutability": "nonpayable",
      "type": "function"
    },
    {
      "inputs": [
        {
          "internalType": "address",
          "name": "account",
          "type": "address"
        }
      ],
      "name": "balanceOf",
      "outputs": [
        {
          "internalType": "uint256",
          "name": "",
          "type": "uint256"
        }
      ],
      "stateMutability": "view",
      "type": "function"
    },
    {
      "inputs": [
        {
          "internalType": "uint256",
          "name": "_tokenId",
          "type": "uint256"
        }
      ],
      "name": "bid",
      "outputs": [],
      "stateMutability": "nonpayable",
      "type": "function"
    },
    {
      "inputs": [
        {
          "internalType": "uint256",
          "name": "_tokenId",
          "type": "uint256"
        }
      ],
      "name": "buy",
      "outputs": [],
      "stateMutability": "nonpayable",
      "type": "function"
    },
    {
      "inputs": [
        {
          "internalType": "uint256",
          "name": "_tokenId",
          "type": "uint256"
        }
      ],
      "name": "cancelBid",
      "outputs": [],
      "stateMutability": "nonpayable",
      "type": "function"
    },
    {
      "inputs": [
        {
          "internalType": "uint256",
          "name": "_tokenId",
          "type": "uint256"
        }
      ],
      "name": "creatorOfToken",
      "outputs": [
        {
          "internalType": "address",
          "name": "",
          "type": "address"
        }
      ],
      "stateMutability": "nonpayable",
      "type": "function"
    },
    {
      "inputs": [
        {
          "internalType": "uint256",
          "name": "_tokenId",
          "type": "uint256"
        }
      ],
      "name": "currentBidDetailsOfToken",
      "outputs": [
        {
          "internalType": "uint256",
          "name": "",
          "type": "uint256"
        },
        {
          "internalType": "address",
          "name": "",
          "type": "address"
        }
      ],
      "stateMutability": "nonpayable",
      "type": "function"
    },
    {
      "inputs": [
        {
          "internalType": "uint256",
          "name": "tokenId",
          "type": "uint256"
        }
      ],
      "name": "getApproved",
      "outputs": [
        {
          "internalType": "address",
          "name": "",
          "type": "address"
        }
      ],
      "stateMutability": "view",
      "type": "function"
    },
    {
      "inputs": [
        {
          "internalType": "address",
          "name": "",
          "type": "address"
        },
        {
          "internalType": "address",
          "name": "",
          "type": "address"
        }
      ],
      "name": "isApprovedForAll",
      "outputs": [
        {
          "internalType": "bool",
          "name": "",
          "type": "bool"
        }
      ],
      "stateMutability": "view",
      "type": "function"
    },
    {
      "inputs": [
        {
          "internalType": "address",
          "name": "_creator",
          "type": "address"
        }
      ],
      "name": "isWhitelisted",
      "outputs": [
        {
          "internalType": "bool",
          "name": "",
          "type": "bool"
        }
      ],
      "stateMutability": "nonpayable",
      "type": "function"
    },
    {
      "inputs": [],
      "name": "name",
      "outputs": [
        {
          "internalType": "string",
          "name": "",
          "type": "string"
        }
      ],
      "stateMutability": "view",
      "type": "function"
    },
    {
      "inputs": [
        {
          "internalType": "address",
          "name": "",
          "type": "address"
        },
        {
          "internalType": "address",
          "name": "",
          "type": "address"
        },
        {
          "internalType": "uint256",
          "name": "",
          "type": "uint256"
        },
        {
          "internalType": "bytes",
          "name": "",
          "type": "bytes"
        }
      ],
      "name": "onERC721Received",
      "outputs": [
        {
          "internalType": "bytes4",
          "name": "",
          "type": "bytes4"
        }
      ],
      "stateMutability": "nonpayable",
      "type": "function"
    },
    {
      "inputs": [
        {
          "internalType": "string",
          "name": "_uri",
          "type": "string"
        }
      ],
      "name": "originalTokenOfUri",
      "outputs": [
        {
          "internalType": "uint256",
          "name": "",
          "type": "uint256"
        }
      ],
      "stateMutability": "nonpayable",
      "type": "function"
    },
    {
      "inputs": [],
      "name": "owner",
      "outputs": [
        {
          "internalType": "address",
          "name": "",
          "type": "address"
        }
      ],
      "stateMutability": "view",
      "type": "function"
    },
    {
      "inputs": [
        {
          "internalType": "uint256",
          "name": "tokenId",
          "type": "uint256"
        }
      ],
      "name": "ownerOf",
      "outputs": [
        {
          "internalType": "address",
          "name": "",
          "type": "address"
        }
      ],
      "stateMutability": "view",
      "type": "function"
    },
    {
      "inputs": [],
      "name": "renounceOwnership",
      "outputs": [],
      "stateMutability": "nonpayable",
      "type": "function"
    },
    {
      "inputs": [
        {
          "internalType": "address",
          "name": "from",
          "type": "address"
        },
        {
          "internalType": "address",
          "name": "to",
          "type": "address"
        },
        {
          "internalType": "uint256",
          "name": "tokenId",
          "type": "uint256"
        }
      ],
      "name": "safeTransferFrom",
      "outputs": [],
      "stateMutability": "nonpayable",
      "type": "function"
    },
    {
      "inputs": [
        {
          "internalType": "address",
          "name": "from",
          "type": "address"
        },
        {
          "internalType": "address",
          "name": "to",
          "type": "address"
        },
        {
          "internalType": "uint256",
          "name": "tokenId",
          "type": "uint256"
        },
        {
          "internalType": "bytes",
          "name": "_data",
          "type": "bytes"
        }
      ],
      "name": "safeTransferFrom",
      "outputs": [],
      "stateMutability": "nonpayable",
      "type": "function"
    },
    {
      "inputs": [
        {
          "internalType": "uint256",
          "name": "_tokenId",
          "type": "uint256"
        }
      ],
      "name": "salePriceOfToken",
      "outputs": [
        {
          "internalType": "uint256",
          "name": "",
          "type": "uint256"
        }
      ],
      "stateMutability": "nonpayable",
      "type": "function"
    },
    {
      "inputs": [
        {
          "internalType": "address",
          "name": "",
          "type": "address"
        },
        {
          "internalType": "bool",
          "name": "",
          "type": "bool"
        }
      ],
      "name": "setApprovalForAll",
      "outputs": [],
      "stateMutability": "nonpayable",
      "type": "function"
    },
    {
      "inputs": [
        {
          "internalType": "uint256",
          "name": "_percentage",
          "type": "uint256"
        }
      ],
      "name": "setCreatorPercentage",
      "outputs": [],
      "stateMutability": "nonpayable",
      "type": "function"
    },
    {
      "inputs": [
        {
          "internalType": "uint256",
          "name": "_percentage",
          "type": "uint256"
        }
      ],
      "name": "setMaintainerPercentage",
      "outputs": [],
      "stateMutability": "nonpayable",
      "type": "function"
    },
    {
      "inputs": [
        {
          "internalType": "uint256",
          "name": "_tokenId",
          "type": "uint256"
        },
        {
          "internalType": "uint256",
          "name": "_salePrice",
          "type": "uint256"
        }
      ],
      "name": "setSalePrice",
      "outputs": [],
      "stateMutability": "nonpayable",
      "type": "function"
    },
    {
      "inputs": [
        {
          "internalType": "bytes4",
          "name": "interfaceId",
          "type": "bytes4"
        }
      ],
      "name": "supportsInterface",
      "outputs": [
        {
          "internalType": "bool",
          "name": "",
          "type": "bool"
        }
      ],
      "stateMutability": "view",
      "type": "function"
    },
    {
      "inputs": [],
      "name": "symbol",
      "outputs": [
        {
          "internalType": "string",
          "name": "",
          "type": "string"
        }
      ],
      "stateMutability": "view",
      "type": "function"
    },
    {
      "inputs": [
        {
          "internalType": "uint256",
          "name": "tokenId",
          "type": "uint256"
        }
      ],
      "name": "tokenURI",
      "outputs": [
        {
          "internalType": "string",
          "name": "",
          "type": "string"
        }
      ],
      "stateMutability": "view",
      "type": "function"
    },
    {
      "inputs": [
        {
          "internalType": "address",
          "name": "from",
          "type": "address"
        },
        {
          "internalType": "address",
          "name": "to",
          "type": "address"
        },
        {
          "internalType": "uint256",
          "name": "tokenId",
          "type": "uint256"
        }
      ],
      "name": "transferFrom",
      "outputs": [],
      "stateMutability": "nonpayable",
      "type": "function"
    },
    {
      "inputs": [
        {
          "internalType": "address",
          "name": "newOwner",
          "type": "address"
        }
      ],
      "name": "transferOwnership",
      "outputs": [],
      "stateMutability": "nonpayable",
      "type": "function"
    },
    {
      "inputs": [
        {
          "internalType": "address",
          "name": "_creator",
          "type": "address"
        }
      ],
      "name": "whitelistCreator",
      "outputs": [],
      "stateMutability": "nonpayable",
      "type": "function"
    }
  ],
  "bytecode": "0x60806040526040518060400160405280600f81526020017f537570655261726557726170706572000000000000000000000000000000000081525060049080519060200190620000519291906200039f565b506040518060400160405280600581526020017f5355505257000000000000000000000000000000000000000000000000000000815250600590805190602001906200009f9291906200039f565b50348015620000ad57600080fd5b5060405162004985380380620049858339818101604052810190620000d391906200046c565b6000620000e56200028e60201b60201c565b9050806000806101000a81548173ffffffffffffffffffffffffffffffffffffffff021916908373ffffffffffffffffffffffffffffffffffffffff1602179055508073ffffffffffffffffffffffffffffffffffffffff16600073ffffffffffffffffffffffffffffffffffffffff167f8be0079c531659141344cd1fd0a4f28419497f9722a3daafe3b4186f6b6457e060405160405180910390a3506200019b6301ffc9a760e01b6200029660201b60201c565b80600260006101000a81548173ffffffffffffffffffffffffffffffffffffffff021916908373ffffffffffffffffffffffffffffffffffffffff160217905550600260009054906101000a900473ffffffffffffffffffffffffffffffffffffffff16600360006101000a81548173ffffffffffffffffffffffffffffffffffffffff021916908373ffffffffffffffffffffffffffffffffffffffff160217905550620002576380ac58cd60e01b6200029660201b60201c565b6200026f635b5e139f60e01b6200029660201b60201c565b6200028763780e9d6360e01b6200029660201b60201c565b50620004e6565b600033905090565b63ffffffff60e01b817bffffffffffffffffffffffffffffffffffffffffffffffffffffffff1916141562000333576040517f08c379a000000000000000000000000000000000000000000000000000000000815260040180806020018281038252601c8152602001807f4552433136353a20696e76616c696420696e746572666163652069640000000081525060200191505060405180910390fd5b6001806000837bffffffffffffffffffffffffffffffffffffffffffffffffffffffff19167bffffffffffffffffffffffffffffffffffffffffffffffffffffffff1916815260200190815260200160002060006101000a81548160ff02191690831515021790555050565b828054600181600116156101000203166002900490600052602060002090601f016020900481019282620003d7576000855562000423565b82601f10620003f257805160ff191683800117855562000423565b8280016001018555821562000423579182015b828111156200042257825182559160200191906001019062000405565b5b50905062000432919062000436565b5090565b5b808211156200045157600081600090555060010162000437565b5090565b6000815190506200046681620004cc565b92915050565b6000602082840312156200047f57600080fd5b60006200048f8482850162000455565b91505092915050565b6000620004a582620004ac565b9050919050565b600073ffffffffffffffffffffffffffffffffffffffff82169050919050565b620004d78162000498565b8114620004e357600080fd5b50565b61448f80620004f66000396000f3fe608060405234801561001057600080fd5b50600436106101f05760003560e01c8063653436fd1161010f578063b88d4fde116100a2578063d96a094a11610071578063d96a094a146105d6578063d9856c21146105f2578063e985e9c51461060e578063f2fde38b1461063e576101f0565b8063b88d4fde1461053e578063c0ec93e71461055a578063c87b56dd14610576578063d5da8d44146105a6576101f0565b806395d89b41116100de57806395d89b41146104b85780639703ef35146104d65780639f2a3c32146104f2578063a22cb46514610522576101f0565b8063653436fd1461043057806370a0823114610460578063715018a6146104905780638da5cb5b1461049a576101f0565b806323b872dd11610187578063454a2ab311610156578063454a2ab3146103ac5780635c68a557146103c857806362f11dd2146103e45780636352211e14610400576101f0565b806323b872dd146103285780632b1fd58a146103445780633af32abf1461036057806342842e0e14610390576101f0565b8063081812fc116101c3578063081812fc1461027b578063095ea7b3146102ab578063150b7a02146102c75780631a289aea146102f7576101f0565b8063019871e9146101f557806301ffc9a714610211578063053992c51461024157806306fdde031461025d575b600080fd5b61020f600480360381019061020a91906133fe565b61065a565b005b61022b6004803603810190610226919061332a565b6107c0565b6040516102389190613e56565b60405180910390f35b61025b600480360381019061025691906134f3565b610828565b005b61026561098b565b6040516102729190613e8c565b60405180910390f35b61029560048036038101906102909190613465565b610a37565b6040516102a29190613dc6565b60405180910390f35b6102c560048036038101906102c091906132c5565b610aeb565b005b6102e160048036038101906102dc919061320e565b610b26565b6040516102ee9190613e71565b60405180910390f35b610311600480360381019061030c9190613465565b610b3a565b60405161031f929190614167565b60405180910390f35b610342600480360381019061033d91906131bf565b610cba565b005b61035e60048036038101906103599190613465565b610d1a565b005b61037a60048036038101906103759190613108565b610e7a565b6040516103879190613e56565b60405180910390f35b6103aa60048036038101906103a591906131bf565b610ff7565b005b6103c660048036038101906103c19190613465565b611017565b005b6103e260048036038101906103dd9190613465565b611177565b005b6103fe60048036038101906103f99190613108565b611386565b005b61041a60048036038101906104159190613465565b6114e6565b6040516104279190613dc6565b60405180910390f35b61044a6004803603810190610445919061337c565b61159a565b604051610457919061414c565b60405180910390f35b61047a60048036038101906104759190613108565b611717565b604051610487919061414c565b60405180910390f35b61049861183a565b005b6104a26119a7565b6040516104af9190613dc6565b60405180910390f35b6104c06119d0565b6040516104cd9190613e8c565b60405180910390f35b6104f060048036038101906104eb9190613465565b611a7c565b005b61050c60048036038101906105079190613465565b611bdc565b604051610519919061414c565b60405180910390f35b61053c60048036038101906105379190613289565b611d59565b005b6105586004803603810190610553919061320e565b611d94565b005b610574600480360381019061056f9190613465565b611df6565b005b610590600480360381019061058b9190613465565b612005565b60405161059d9190613e8c565b60405180910390f35b6105c060048036038101906105bb9190613465565b6120be565b6040516105cd9190613dc6565b60405180910390f35b6105f060048036038101906105eb9190613465565b61223b565b005b61060c6004803603810190610607919061337c565b61239b565b005b61062860048036038101906106239190613183565b6124fb565b6040516106359190613e56565b60405180910390f35b61065860048036038101906106539190613108565b612538565b005b6000600260009054906101000a900473ffffffffffffffffffffffffffffffffffffffff1673ffffffffffffffffffffffffffffffffffffffff168484846040516024016106aa93929190613eae565b6040516020818303038152906040527f019871e9000000000000000000000000000000000000000000000000000000007bffffffffffffffffffffffffffffffffffffffffffffffffffffffff19166020820180517bffffffffffffffffffffffffffffffffffffffffffffffffffffffff83818316178352505050506040516107349190613daf565b6000604051808303816000865af19150503d8060008114610771576040519150601f19603f3d011682016040523d82523d6000602084013e610776565b606091505b50509050806107ba576040517f08c379a00000000000000000000000000000000000000000000000000000000081526004016107b19061408c565b60405180910390fd5b50505050565b600060016000837bffffffffffffffffffffffffffffffffffffffffffffffffffffffff19167bffffffffffffffffffffffffffffffffffffffffffffffffffffffff1916815260200190815260200160002060009054906101000a900460ff169050919050565b6000600260009054906101000a900473ffffffffffffffffffffffffffffffffffffffff1673ffffffffffffffffffffffffffffffffffffffff168383604051602401610876929190614190565b6040516020818303038152906040527f053992c5000000000000000000000000000000000000000000000000000000007bffffffffffffffffffffffffffffffffffffffffffffffffffffffff19166020820180517bffffffffffffffffffffffffffffffffffffffffffffffffffffffff83818316178352505050506040516109009190613daf565b6000604051808303816000865af19150503d806000811461093d576040519150601f19603f3d011682016040523d82523d6000602084013e610942565b606091505b5050905080610986576040517f08c379a000000000000000000000000000000000000000000000000000000000815260040161097d9061406c565b60405180910390fd5b505050565b6060600360009054906101000a900473ffffffffffffffffffffffffffffffffffffffff1673ffffffffffffffffffffffffffffffffffffffff166306fdde036040518163ffffffff1660e01b815260040160006040518083038186803b1580156109f557600080fd5b505afa158015610a09573d6000803e3d6000fd5b505050506040513d6000823e3d601f19601f82011682018060405250810190610a3291906133bd565b905090565b6000600360009054906101000a900473ffffffffffffffffffffffffffffffffffffffff1673ffffffffffffffffffffffffffffffffffffffff16632a6dd48f836040518263ffffffff1660e01b8152600401610a94919061414c565b60206040518083038186803b158015610aac57600080fd5b505afa158015610ac0573d6000803e3d6000fd5b505050506040513d601f19601f82011682018060405250810190610ae49190613131565b9050919050565b6040517f08c379a0000000000000000000000000000000000000000000000000000000008152600401610b1d9061410c565b60405180910390fd5b600063150b7a0260e01b9050949350505050565b600080600080600260009054906101000a900473ffffffffffffffffffffffffffffffffffffffff1673ffffffffffffffffffffffffffffffffffffffff1685604051602401610b8a919061414c565b6040516020818303038152906040527f1a289aea000000000000000000000000000000000000000000000000000000007bffffffffffffffffffffffffffffffffffffffffffffffffffffffff19166020820180517bffffffffffffffffffffffffffffffffffffffffffffffffffffffff8381831617835250505050604051610c149190613daf565b6000604051808303816000865af19150503d8060008114610c51576040519150601f19603f3d011682016040523d82523d6000602084013e610c56565b606091505b509150915081610c9b576040517f08c379a0000000000000000000000000000000000000000000000000000000008152600401610c9290613f2c565b60405180910390fd5b80806020019051810190610caf91906134b7565b935093505050915091565b610ccb610cc561272a565b82612732565b610d0a576040517f08c379a0000000000000000000000000000000000000000000000000000000008152600401610d01906140cc565b60405180910390fd5b610d158383836128f5565b505050565b6000600260009054906101000a900473ffffffffffffffffffffffffffffffffffffffff1673ffffffffffffffffffffffffffffffffffffffff1682604051602401610d66919061414c565b6040516020818303038152906040527f2b1fd58a000000000000000000000000000000000000000000000000000000007bffffffffffffffffffffffffffffffffffffffffffffffffffffffff19166020820180517bffffffffffffffffffffffffffffffffffffffffffffffffffffffff8381831617835250505050604051610df09190613daf565b6000604051808303816000865af19150503d8060008114610e2d576040519150601f19603f3d011682016040523d82523d6000602084013e610e32565b606091505b5050905080610e76576040517f08c379a0000000000000000000000000000000000000000000000000000000008152600401610e6d90613f0c565b60405180910390fd5b5050565b6000806000600260009054906101000a900473ffffffffffffffffffffffffffffffffffffffff1673ffffffffffffffffffffffffffffffffffffffff1684604051602401610ec99190613dc6565b6040516020818303038152906040527f3af32abf000000000000000000000000000000000000000000000000000000007bffffffffffffffffffffffffffffffffffffffffffffffffffffffff19166020820180517bffffffffffffffffffffffffffffffffffffffffffffffffffffffff8381831617835250505050604051610f539190613daf565b6000604051808303816000865af19150503d8060008114610f90576040519150601f19603f3d011682016040523d82523d6000602084013e610f95565b606091505b509150915081610fda576040517f08c379a0000000000000000000000000000000000000000000000000000000008152600401610fd1906140ec565b60405180910390fd5b80806020019051810190610fee9190613301565b92505050919050565b61101283838360405180602001604052806000815250611d94565b505050565b6000600260009054906101000a900473ffffffffffffffffffffffffffffffffffffffff1673ffffffffffffffffffffffffffffffffffffffff1682604051602401611063919061414c565b6040516020818303038152906040527f454a2ab3000000000000000000000000000000000000000000000000000000007bffffffffffffffffffffffffffffffffffffffffffffffffffffffff19166020820180517bffffffffffffffffffffffffffffffffffffffffffffffffffffffff83818316178352505050506040516110ed9190613daf565b6000604051808303816000865af19150503d806000811461112a576040519150601f19603f3d011682016040523d82523d6000602084013e61112f565b606091505b5050905080611173576040517f08c379a000000000000000000000000000000000000000000000000000000000815260040161116a90613fcc565b60405180910390fd5b5050565b61117f61272a565b73ffffffffffffffffffffffffffffffffffffffff1661119d6119a7565b73ffffffffffffffffffffffffffffffffffffffff1614611226576040517f08c379a00000000000000000000000000000000000000000000000000000000081526004018080602001828103825260208152602001807f4f776e61626c653a2063616c6c6572206973206e6f7420746865206f776e657281525060200191505060405180910390fd5b6000600260009054906101000a900473ffffffffffffffffffffffffffffffffffffffff1673ffffffffffffffffffffffffffffffffffffffff1682604051602401611272919061414c565b6040516020818303038152906040527f5c68a557000000000000000000000000000000000000000000000000000000007bffffffffffffffffffffffffffffffffffffffffffffffffffffffff19166020820180517bffffffffffffffffffffffffffffffffffffffffffffffffffffffff83818316178352505050506040516112fc9190613daf565b6000604051808303816000865af19150503d8060008114611339576040519150601f19603f3d011682016040523d82523d6000602084013e61133e565b606091505b5050905080611382576040517f08c379a000000000000000000000000000000000000000000000000000000000815260040161137990613fec565b60405180910390fd5b5050565b6000600260009054906101000a900473ffffffffffffffffffffffffffffffffffffffff1673ffffffffffffffffffffffffffffffffffffffff16826040516024016113d29190613dc6565b6040516020818303038152906040527f62f11dd2000000000000000000000000000000000000000000000000000000007bffffffffffffffffffffffffffffffffffffffffffffffffffffffff19166020820180517bffffffffffffffffffffffffffffffffffffffffffffffffffffffff838183161783525050505060405161145c9190613daf565b6000604051808303816000865af19150503d8060008114611499576040519150601f19603f3d011682016040523d82523d6000602084013e61149e565b606091505b50509050806114e2576040517f08c379a00000000000000000000000000000000000000000000000000000000081526004016114d990613f8c565b60405180910390fd5b5050565b6000600360009054906101000a900473ffffffffffffffffffffffffffffffffffffffff1673ffffffffffffffffffffffffffffffffffffffff16636352211e836040518263ffffffff1660e01b8152600401611543919061414c565b60206040518083038186803b15801561155b57600080fd5b505afa15801561156f573d6000803e3d6000fd5b505050506040513d601f19601f820116820180604052508101906115939190613131565b9050919050565b6000806000600260009054906101000a900473ffffffffffffffffffffffffffffffffffffffff1673ffffffffffffffffffffffffffffffffffffffff16846040516024016115e99190613e8c565b6040516020818303038152906040527f653436fd000000000000000000000000000000000000000000000000000000007bffffffffffffffffffffffffffffffffffffffffffffffffffffffff19166020820180517bffffffffffffffffffffffffffffffffffffffffffffffffffffffff83818316178352505050506040516116739190613daf565b6000604051808303816000865af19150503d80600081146116b0576040519150601f19603f3d011682016040523d82523d6000602084013e6116b5565b606091505b5091509150816116fa576040517f08c379a00000000000000000000000000000000000000000000000000000000081526004016116f190613eec565b60405180910390fd5b8080602001905181019061170e919061348e565b92505050919050565b60008073ffffffffffffffffffffffffffffffffffffffff168273ffffffffffffffffffffffffffffffffffffffff161415611788576040517f08c379a000000000000000000000000000000000000000000000000000000000815260040161177f9061404c565b60405180910390fd5b600360009054906101000a900473ffffffffffffffffffffffffffffffffffffffff1673ffffffffffffffffffffffffffffffffffffffff166370a08231836040518263ffffffff1660e01b81526004016117e39190613dc6565b60206040518083038186803b1580156117fb57600080fd5b505afa15801561180f573d6000803e3d6000fd5b505050506040513d601f19601f82011682018060405250810190611833919061348e565b9050919050565b61184261272a565b73ffffffffffffffffffffffffffffffffffffffff166118606119a7565b73ffffffffffffffffffffffffffffffffffffffff16146118e9576040517f08c379a00000000000000000000000000000000000000000000000000000000081526004018080602001828103825260208152602001807f4f776e61626c653a2063616c6c6572206973206e6f7420746865206f776e657281525060200191505060405180910390fd5b600073ffffffffffffffffffffffffffffffffffffffff1660008054906101000a900473ffffffffffffffffffffffffffffffffffffffff1673ffffffffffffffffffffffffffffffffffffffff167f8be0079c531659141344cd1fd0a4f28419497f9722a3daafe3b4186f6b6457e060405160405180910390a360008060006101000a81548173ffffffffffffffffffffffffffffffffffffffff021916908373ffffffffffffffffffffffffffffffffffffffff160217905550565b60008060009054906101000a900473ffffffffffffffffffffffffffffffffffffffff16905090565b6060600360009054906101000a900473ffffffffffffffffffffffffffffffffffffffff1673ffffffffffffffffffffffffffffffffffffffff166395d89b416040518163ffffffff1660e01b815260040160006040518083038186803b158015611a3a57600080fd5b505afa158015611a4e573d6000803e3d6000fd5b505050506040513d6000823e3d601f19601f82011682018060405250810190611a7791906133bd565b905090565b6000600260009054906101000a900473ffffffffffffffffffffffffffffffffffffffff1673ffffffffffffffffffffffffffffffffffffffff1682604051602401611ac8919061414c565b6040516020818303038152906040527f9703ef35000000000000000000000000000000000000000000000000000000007bffffffffffffffffffffffffffffffffffffffffffffffffffffffff19166020820180517bffffffffffffffffffffffffffffffffffffffffffffffffffffffff8381831617835250505050604051611b529190613daf565b6000604051808303816000865af19150503d8060008114611b8f576040519150601f19603f3d011682016040523d82523d6000602084013e611b94565b606091505b5050905080611bd8576040517f08c379a0000000000000000000000000000000000000000000000000000000008152600401611bcf9061402c565b60405180910390fd5b5050565b6000806000600260009054906101000a900473ffffffffffffffffffffffffffffffffffffffff1673ffffffffffffffffffffffffffffffffffffffff1684604051602401611c2b919061414c565b6040516020818303038152906040527f9f2a3c32000000000000000000000000000000000000000000000000000000007bffffffffffffffffffffffffffffffffffffffffffffffffffffffff19166020820180517bffffffffffffffffffffffffffffffffffffffffffffffffffffffff8381831617835250505050604051611cb59190613daf565b6000604051808303816000865af19150503d8060008114611cf2576040519150601f19603f3d011682016040523d82523d6000602084013e611cf7565b606091505b509150915081611d3c576040517f08c379a0000000000000000000000000000000000000000000000000000000008152600401611d3390613f2c565b60405180910390fd5b80806020019051810190611d50919061348e565b92505050919050565b6040517f08c379a0000000000000000000000000000000000000000000000000000000008152600401611d8b906140ac565b60405180910390fd5b611da5611d9f61272a565b83612732565b611de4576040517f08c379a0000000000000000000000000000000000000000000000000000000008152600401611ddb906140cc565b60405180910390fd5b611df084848484612ab4565b50505050565b611dfe61272a565b73ffffffffffffffffffffffffffffffffffffffff16611e1c6119a7565b73ffffffffffffffffffffffffffffffffffffffff1614611ea5576040517f08c379a00000000000000000000000000000000000000000000000000000000081526004018080602001828103825260208152602001807f4f776e61626c653a2063616c6c6572206973206e6f7420746865206f776e657281525060200191505060405180910390fd5b6000600260009054906101000a900473ffffffffffffffffffffffffffffffffffffffff1673ffffffffffffffffffffffffffffffffffffffff1682604051602401611ef1919061414c565b6040516020818303038152906040527fc0ec93e7000000000000000000000000000000000000000000000000000000007bffffffffffffffffffffffffffffffffffffffffffffffffffffffff19166020820180517bffffffffffffffffffffffffffffffffffffffffffffffffffffffff8381831617835250505050604051611f7b9190613daf565b6000604051808303816000865af19150503d8060008114611fb8576040519150601f19603f3d011682016040523d82523d6000602084013e611fbd565b606091505b5050905080612001576040517f08c379a0000000000000000000000000000000000000000000000000000000008152600401611ff890613fec565b60405180910390fd5b5050565b6060600360009054906101000a900473ffffffffffffffffffffffffffffffffffffffff1673ffffffffffffffffffffffffffffffffffffffff1663c87b56dd836040518263ffffffff1660e01b8152600401612062919061414c565b60006040518083038186803b15801561207a57600080fd5b505afa15801561208e573d6000803e3d6000fd5b505050506040513d6000823e3d601f19601f820116820180604052508101906120b791906133bd565b9050919050565b6000806000600260009054906101000a900473ffffffffffffffffffffffffffffffffffffffff1673ffffffffffffffffffffffffffffffffffffffff168460405160240161210d919061414c565b6040516020818303038152906040527fd5da8d44000000000000000000000000000000000000000000000000000000007bffffffffffffffffffffffffffffffffffffffffffffffffffffffff19166020820180517bffffffffffffffffffffffffffffffffffffffffffffffffffffffff83818316178352505050506040516121979190613daf565b6000604051808303816000865af19150503d80600081146121d4576040519150601f19603f3d011682016040523d82523d6000602084013e6121d9565b606091505b50915091508161221e576040517f08c379a000000000000000000000000000000000000000000000000000000000815260040161221590613f2c565b60405180910390fd5b80806020019051810190612232919061315a565b92505050919050565b6000600260009054906101000a900473ffffffffffffffffffffffffffffffffffffffff1673ffffffffffffffffffffffffffffffffffffffff1682604051602401612287919061414c565b6040516020818303038152906040527fd96a094a000000000000000000000000000000000000000000000000000000007bffffffffffffffffffffffffffffffffffffffffffffffffffffffff19166020820180517bffffffffffffffffffffffffffffffffffffffffffffffffffffffff83818316178352505050506040516123119190613daf565b6000604051808303816000865af19150503d806000811461234e576040519150601f19603f3d011682016040523d82523d6000602084013e612353565b606091505b5050905080612397576040517f08c379a000000000000000000000000000000000000000000000000000000000815260040161238e90613f6c565b60405180910390fd5b5050565b6000600260009054906101000a900473ffffffffffffffffffffffffffffffffffffffff1673ffffffffffffffffffffffffffffffffffffffff16826040516024016123e79190613e8c565b6040516020818303038152906040527fa0258d0b000000000000000000000000000000000000000000000000000000007bffffffffffffffffffffffffffffffffffffffffffffffffffffffff19166020820180517bffffffffffffffffffffffffffffffffffffffffffffffffffffffff83818316178352505050506040516124719190613daf565b6000604051808303816000865af19150503d80600081146124ae576040519150601f19603f3d011682016040523d82523d6000602084013e6124b3565b606091505b50509050806124f7576040517f08c379a00000000000000000000000000000000000000000000000000000000081526004016124ee9061412c565b60405180910390fd5b5050565b60006040517f08c379a000000000000000000000000000000000000000000000000000000000815260040161252f90613fac565b60405180910390fd5b61254061272a565b73ffffffffffffffffffffffffffffffffffffffff1661255e6119a7565b73ffffffffffffffffffffffffffffffffffffffff16146125e7576040517f08c379a00000000000000000000000000000000000000000000000000000000081526004018080602001828103825260208152602001807f4f776e61626c653a2063616c6c6572206973206e6f7420746865206f776e657281525060200191505060405180910390fd5b600073ffffffffffffffffffffffffffffffffffffffff168173ffffffffffffffffffffffffffffffffffffffff16141561266d576040517f08c379a000000000000000000000000000000000000000000000000000000000815260040180806020018281038252602681526020018061440e6026913960400191505060405180910390fd5b8073ffffffffffffffffffffffffffffffffffffffff1660008054906101000a900473ffffffffffffffffffffffffffffffffffffffff1673ffffffffffffffffffffffffffffffffffffffff167f8be0079c531659141344cd1fd0a4f28419497f9722a3daafe3b4186f6b6457e060405160405180910390a3806000806101000a81548173ffffffffffffffffffffffffffffffffffffffff021916908373ffffffffffffffffffffffffffffffffffffffff16021790555050565b600033905090565b60008273ffffffffffffffffffffffffffffffffffffffff16600360009054906101000a900473ffffffffffffffffffffffffffffffffffffffff1673ffffffffffffffffffffffffffffffffffffffff16632a6dd48f846040518263ffffffff1660e01b81526004016127a6919061414c565b60206040518083038186803b1580156127be57600080fd5b505afa1580156127d2573d6000803e3d6000fd5b505050506040513d601f19601f820116820180604052508101906127f69190613131565b73ffffffffffffffffffffffffffffffffffffffff1614806128ed57508273ffffffffffffffffffffffffffffffffffffffff16600360009054906101000a900473ffffffffffffffffffffffffffffffffffffffff1673ffffffffffffffffffffffffffffffffffffffff16636352211e846040518263ffffffff1660e01b8152600401612885919061414c565b60206040518083038186803b15801561289d57600080fd5b505afa1580156128b1573d6000803e3d6000fd5b505050506040513d601f19601f820116820180604052508101906128d59190613131565b73ffffffffffffffffffffffffffffffffffffffff16145b905092915050565b6000600260009054906101000a900473ffffffffffffffffffffffffffffffffffffffff1673ffffffffffffffffffffffffffffffffffffffff168383604051602401612943929190613e2d565b6040516020818303038152906040527fa9059cbb000000000000000000000000000000000000000000000000000000007bffffffffffffffffffffffffffffffffffffffffffffffffffffffff19166020820180517bffffffffffffffffffffffffffffffffffffffffffffffffffffffff83818316178352505050506040516129cd9190613daf565b6000604051808303816000865af19150503d8060008114612a0a576040519150601f19603f3d011682016040523d82523d6000602084013e612a0f565b606091505b5050905080612a53576040517f08c379a0000000000000000000000000000000000000000000000000000000008152600401612a4a9061400c565b60405180910390fd5b818373ffffffffffffffffffffffffffffffffffffffff168573ffffffffffffffffffffffffffffffffffffffff167fddf252ad1be2c89b69c2b068fc378daa952ba7f163c4a11628f55a4df523b3ef60405160405180910390a450505050565b612abf8484846128f5565b612acb84848484612b10565b612b0a576040517f08c379a0000000000000000000000000000000000000000000000000000000008152600401612b0190613f4c565b60405180910390fd5b50505050565b6000612b318473ffffffffffffffffffffffffffffffffffffffff16612c74565b612b3e5760019050612c6c565b6000612c0563150b7a0260e01b612b5361272a565b888787604051602401612b699493929190613de1565b604051602081830303815290604052907bffffffffffffffffffffffffffffffffffffffffffffffffffffffff19166020820180517bffffffffffffffffffffffffffffffffffffffffffffffffffffffff83818316178352505050506040518060600160405280603281526020016143dc603291398773ffffffffffffffffffffffffffffffffffffffff16612c879092919063ffffffff16565b9050600081806020019051810190612c1d9190613353565b905063150b7a0260e01b7bffffffffffffffffffffffffffffffffffffffffffffffffffffffff1916817bffffffffffffffffffffffffffffffffffffffffffffffffffffffff191614925050505b949350505050565b600080823b905060008111915050919050565b6060612c968484600085612c9f565b90509392505050565b606082471015612cfa576040517f08c379a00000000000000000000000000000000000000000000000000000000081526004018080602001828103825260268152602001806144346026913960400191505060405180910390fd5b612d0385612c74565b612d75576040517f08c379a000000000000000000000000000000000000000000000000000000000815260040180806020018281038252601d8152602001807f416464726573733a2063616c6c20746f206e6f6e2d636f6e747261637400000081525060200191505060405180910390fd5b6000808673ffffffffffffffffffffffffffffffffffffffff1685876040518082805190602001908083835b60208310612dc45780518252602082019150602081019050602083039250612da1565b6001836020036101000a03801982511681845116808217855250505050505090500191505060006040518083038185875af1925050503d8060008114612e26576040519150601f19603f3d011682016040523d82523d6000602084013e612e2b565b606091505b5091509150612e3b828286612e47565b92505050949350505050565b60608315612e5757829050612f0c565b600083511115612e6a5782518084602001fd5b816040517f08c379a00000000000000000000000000000000000000000000000000000000081526004018080602001828103825283818151815260200191508051906020019080838360005b83811015612ed1578082015181840152602081019050612eb6565b50505050905090810190601f168015612efe5780820380516001836020036101000a031916815260200191505b509250505060405180910390fd5b9392505050565b6000612f26612f21846141ea565b6141b9565b905082815260208101848484011115612f3e57600080fd5b612f49848285614313565b509392505050565b6000612f64612f5f8461421a565b6141b9565b905082815260208101848484011115612f7c57600080fd5b612f87848285614313565b509392505050565b6000612fa2612f9d8461421a565b6141b9565b905082815260208101848484011115612fba57600080fd5b612fc5848285614322565b509392505050565b600081359050612fdc81614368565b92915050565b600081519050612ff181614368565b92915050565b6000815190506130068161437f565b92915050565b60008135905061301b81614396565b92915050565b60008151905061303081614396565b92915050565b600081359050613045816143ad565b92915050565b60008151905061305a816143ad565b92915050565b600082601f83011261307157600080fd5b8135613081848260208601612f13565b91505092915050565b600082601f83011261309b57600080fd5b81356130ab848260208601612f51565b91505092915050565b600082601f8301126130c557600080fd5b81516130d5848260208601612f8f565b91505092915050565b6000813590506130ed816143c4565b92915050565b600081519050613102816143c4565b92915050565b60006020828403121561311a57600080fd5b600061312884828501612fcd565b91505092915050565b60006020828403121561314357600080fd5b600061315184828501612fe2565b91505092915050565b60006020828403121561316c57600080fd5b600061317a84828501612ff7565b91505092915050565b6000806040838503121561319657600080fd5b60006131a485828601612fcd565b92505060206131b585828601612fcd565b9150509250929050565b6000806000606084860312156131d457600080fd5b60006131e286828701612fcd565b93505060206131f386828701612fcd565b9250506040613204868287016130de565b9150509250925092565b6000806000806080858703121561322457600080fd5b600061323287828801612fcd565b945050602061324387828801612fcd565b9350506040613254878288016130de565b925050606085013567ffffffffffffffff81111561327157600080fd5b61327d87828801613060565b91505092959194509250565b6000806040838503121561329c57600080fd5b60006132aa85828601612fcd565b92505060206132bb8582860161300c565b9150509250929050565b600080604083850312156132d857600080fd5b60006132e685828601612fcd565b92505060206132f7858286016130de565b9150509250929050565b60006020828403121561331357600080fd5b600061332184828501613021565b91505092915050565b60006020828403121561333c57600080fd5b600061334a84828501613036565b91505092915050565b60006020828403121561336557600080fd5b60006133738482850161304b565b91505092915050565b60006020828403121561338e57600080fd5b600082013567ffffffffffffffff8111156133a857600080fd5b6133b48482850161308a565b91505092915050565b6000602082840312156133cf57600080fd5b600082015167ffffffffffffffff8111156133e957600080fd5b6133f5848285016130b4565b91505092915050565b60008060006060848603121561341357600080fd5b600084013567ffffffffffffffff81111561342d57600080fd5b6134398682870161308a565b935050602061344a868287016130de565b925050604061345b868287016130de565b9150509250925092565b60006020828403121561347757600080fd5b6000613485848285016130de565b91505092915050565b6000602082840312156134a057600080fd5b60006134ae848285016130f3565b91505092915050565b600080604083850312156134ca57600080fd5b60006134d8858286016130f3565b92505060206134e985828601612ff7565b9150509250929050565b6000806040838503121561350657600080fd5b6000613514858286016130de565b9250506020613525858286016130de565b9150509250929050565b6135388161429f565b82525050565b6135478161428d565b82525050565b613556816142b1565b82525050565b613565816142bd565b82525050565b60006135768261424a565b6135808185614260565b9350613590818560208601614322565b61359981614357565b840191505092915050565b60006135af8261424a565b6135b98185614271565b93506135c9818560208601614322565b80840191505092915050565b60006135e082614255565b6135ea818561427c565b93506135fa818560208601614322565b61360381614357565b840191505092915050565b600061361b60328361427c565b91507f5375706552617265577261707065723a206f726967696e616c546f6b656e4f6660008301527f55726920616374696f6e206661696c65642100000000000000000000000000006020830152604082019050919050565b600061368160298361427c565b91507f5375706552617265577261707065723a2061636365707442696420616374696f60008301527f6e206661696c65642100000000000000000000000000000000000000000000006020830152604082019050919050565b60006136e760388361427c565b91507f5375706552617265577261707065723a2063757272656e74426964446574616960008301527f6c734f66546f6b656e20616374696f6e206661696c65642100000000000000006020830152604082019050919050565b600061374d60328361427c565b91507f4552433732313a207472616e7366657220746f206e6f6e20455243373231526560008301527f63656976657220696d706c656d656e74657200000000000000000000000000006020830152604082019050919050565b60006137b360238361427c565b91507f5375706552617265577261707065723a2062757920616374696f6e206661696c60008301527f65642100000000000000000000000000000000000000000000000000000000006020830152604082019050919050565b600061381960308361427c565b91507f5375706552617265577261707065723a2077686974656c69737443726561746f60008301527f7220616374696f6e206661696c656421000000000000000000000000000000006020830152604082019050919050565b600061387f60328361427c565b91507f5375706552617265577261707065723a206973417070726f766564466f72416c60008301527f6c204e6f7420696d706c656d656e7465642100000000000000000000000000006020830152604082019050919050565b60006138e560238361427c565b91507f5375706552617265577261707065723a2062696420616374696f6e206661696c60008301527f65642100000000000000000000000000000000000000000000000000000000006020830152604082019050919050565b600061394b60378361427c565b91507f5375706552617265577261707065723a207365744d61696e7461696e6572506560008301527f7263656e7461676520616374696f6e206661696c6564210000000000000000006020830152604082019050919050565b60006139b1602a8361427c565b91507f5375706552617265577261707065723a205472616e73666572206f6620746f6b60008301527f656e206661696c656421000000000000000000000000000000000000000000006020830152604082019050919050565b6000613a1760298361427c565b91507f5375706552617265577261707065723a2063616e63656c42696420616374696f60008301527f6e206661696c65642100000000000000000000000000000000000000000000006020830152604082019050919050565b6000613a7d602a8361427c565b91507f4552433732313a2062616c616e636520717565727920666f7220746865207a6560008301527f726f2061646472657373000000000000000000000000000000000000000000006020830152604082019050919050565b6000613ae3602c8361427c565b91507f5375706552617265577261707065723a2073657453616c65507269636520616360008301527f74696f6e206661696c65642100000000000000000000000000000000000000006020830152604082019050919050565b6000613b4960378361427c565b91507f5375706552617265577261707065723a206164644e6577546f6b656e5769746860008301527f45646974696f6e7320616374696f6e206661696c6564210000000000000000006020830152604082019050919050565b6000613baf60338361427c565b91507f5375706552617265577261707065723a20736574417070726f76616c466f724160008301527f6c6c204e6f7420696d706c656d656e74656421000000000000000000000000006020830152604082019050919050565b6000613c1560318361427c565b91507f4552433732313a207472616e736665722063616c6c6572206973206e6f74206f60008301527f776e6572206e6f7220617070726f7665640000000000000000000000000000006020830152604082019050919050565b6000613c7b602d8361427c565b91507f5375706552617265577261707065723a20697357686974656c6973746564206160008301527f6374696f6e206661696c656421000000000000000000000000000000000000006020830152604082019050919050565b6000613ce160298361427c565b91507f5375706552617265577261707065723a20617070726f7665204e6f7420696d7060008301527f6c656d656e7465642100000000000000000000000000000000000000000000006020830152604082019050919050565b6000613d47602b8361427c565b91507f5375706552617265577261707065723a206164644e6577546f6b656e2061637460008301527f696f6e206661696c6564210000000000000000000000000000000000000000006020830152604082019050919050565b613da981614309565b82525050565b6000613dbb82846135a4565b915081905092915050565b6000602082019050613ddb600083018461353e565b92915050565b6000608082019050613df6600083018761352f565b613e03602083018661353e565b613e106040830185613da0565b8181036060830152613e22818461356b565b905095945050505050565b6000604082019050613e42600083018561353e565b613e4f6020830184613da0565b9392505050565b6000602082019050613e6b600083018461354d565b92915050565b6000602082019050613e86600083018461355c565b92915050565b60006020820190508181036000830152613ea681846135d5565b905092915050565b60006060820190508181036000830152613ec881866135d5565b9050613ed76020830185613da0565b613ee46040830184613da0565b949350505050565b60006020820190508181036000830152613f058161360e565b9050919050565b60006020820190508181036000830152613f2581613674565b9050919050565b60006020820190508181036000830152613f45816136da565b9050919050565b60006020820190508181036000830152613f6581613740565b9050919050565b60006020820190508181036000830152613f85816137a6565b9050919050565b60006020820190508181036000830152613fa58161380c565b9050919050565b60006020820190508181036000830152613fc581613872565b9050919050565b60006020820190508181036000830152613fe5816138d8565b9050919050565b600060208201905081810360008301526140058161393e565b9050919050565b60006020820190508181036000830152614025816139a4565b9050919050565b6000602082019050818103600083015261404581613a0a565b9050919050565b6000602082019050818103600083015261406581613a70565b9050919050565b6000602082019050818103600083015261408581613ad6565b9050919050565b600060208201905081810360008301526140a581613b3c565b9050919050565b600060208201905081810360008301526140c581613ba2565b9050919050565b600060208201905081810360008301526140e581613c08565b9050919050565b6000602082019050818103600083015261410581613c6e565b9050919050565b6000602082019050818103600083015261412581613cd4565b9050919050565b6000602082019050818103600083015261414581613d3a565b9050919050565b60006020820190506141616000830184613da0565b92915050565b600060408201905061417c6000830185613da0565b614189602083018461353e565b9392505050565b60006040820190506141a56000830185613da0565b6141b26020830184613da0565b9392505050565b6000604051905081810181811067ffffffffffffffff821117156141e0576141df614355565b5b8060405250919050565b600067ffffffffffffffff82111561420557614204614355565b5b601f19601f8301169050602081019050919050565b600067ffffffffffffffff82111561423557614234614355565b5b601f19601f8301169050602081019050919050565b600081519050919050565b600081519050919050565b600082825260208201905092915050565b600081905092915050565b600082825260208201905092915050565b6000614298826142e9565b9050919050565b60006142aa826142e9565b9050919050565b60008115159050919050565b60007fffffffff0000000000000000000000000000000000000000000000000000000082169050919050565b600073ffffffffffffffffffffffffffffffffffffffff82169050919050565b6000819050919050565b82818337600083830152505050565b60005b83811015614340578082015181840152602081019050614325565b8381111561434f576000848401525b50505050565bfe5b6000601f19601f8301169050919050565b6143718161428d565b811461437c57600080fd5b50565b6143888161429f565b811461439357600080fd5b50565b61439f816142b1565b81146143aa57600080fd5b50565b6143b6816142bd565b81146143c157600080fd5b50565b6143cd81614309565b81146143d857600080fd5b5056fe4552433732313a207472616e7366657220746f206e6f6e20455243373231526563656976657220696d706c656d656e7465724f776e61626c653a206e6577206f776e657220697320746865207a65726f2061646472657373416464726573733a20696e73756666696369656e742062616c616e636520666f722063616c6ca2646970667358221220ef3f538b3ac266529230d848e0b8c1dfab7d5e4580a4232a1ed07a20890469d564736f6c63430007060033",
  "linkReferences": {},
  "deployedLinkReferences": {}
}