{
  "_format": "hh-sol-artifact-1",
  "contractName": "SupeRareWrapper",
  "sourceName": "contracts/SuperRareWrapper.sol",
  "abi": [
    {
      "inputs": [
        {
          "internalType": "address",
          "name": "OriginalSupeRareAddr__",
          "type": "address"
        }
      ],
      "stateMutability": "nonpayable",
      "type": "constructor"
    },
    {
      "anonymous": false,
      "inputs": [
        {
          "indexed": true,
          "internalType": "address",
          "name": "owner",
          "type": "address"
        },
        {
          "indexed": true,
          "internalType": "address",
          "name": "approved",
          "type": "address"
        },
        {
          "indexed": true,
          "internalType": "uint256",
          "name": "tokenId",
          "type": "uint256"
        }
      ],
      "name": "Approval",
      "type": "event"
    },
    {
      "anonymous": false,
      "inputs": [
        {
          "indexed": true,
          "internalType": "address",
          "name": "owner",
          "type": "address"
        },
        {
          "indexed": true,
          "internalType": "address",
          "name": "operator",
          "type": "address"
        },
        {
          "indexed": false,
          "internalType": "bool",
          "name": "approved",
          "type": "bool"
        }
      ],
      "name": "ApprovalForAll",
      "type": "event"
    },
    {
      "anonymous": false,
      "inputs": [
        {
          "indexed": true,
          "internalType": "address",
          "name": "previousOwner",
          "type": "address"
        },
        {
          "indexed": true,
          "internalType": "address",
          "name": "newOwner",
          "type": "address"
        }
      ],
      "name": "OwnershipTransferred",
      "type": "event"
    },
    {
      "anonymous": false,
      "inputs": [
        {
          "indexed": true,
          "internalType": "address",
          "name": "from",
          "type": "address"
        },
        {
          "indexed": true,
          "internalType": "address",
          "name": "to",
          "type": "address"
        },
        {
          "indexed": true,
          "internalType": "uint256",
          "name": "tokenId",
          "type": "uint256"
        }
      ],
      "name": "Transfer",
      "type": "event"
    },
    {
      "inputs": [
        {
          "internalType": "address",
          "name": "to",
          "type": "address"
        },
        {
          "internalType": "uint256",
          "name": "tokenId",
          "type": "uint256"
        }
      ],
      "name": "approve",
      "outputs": [],
      "stateMutability": "nonpayable",
      "type": "function"
    },
    {
      "inputs": [
        {
          "internalType": "address",
          "name": "account",
          "type": "address"
        }
      ],
      "name": "balanceOf",
      "outputs": [
        {
          "internalType": "uint256",
          "name": "",
          "type": "uint256"
        }
      ],
      "stateMutability": "view",
      "type": "function"
    },
    {
      "inputs": [
        {
          "internalType": "uint256",
          "name": "tokenId",
          "type": "uint256"
        }
      ],
      "name": "getApproved",
      "outputs": [
        {
          "internalType": "address",
          "name": "",
          "type": "address"
        }
      ],
      "stateMutability": "view",
      "type": "function"
    },
    {
      "inputs": [
        {
          "internalType": "address",
          "name": "owner",
          "type": "address"
        },
        {
          "internalType": "address",
          "name": "operator",
          "type": "address"
        }
      ],
      "name": "isApprovedForAll",
      "outputs": [
        {
          "internalType": "bool",
          "name": "",
          "type": "bool"
        }
      ],
      "stateMutability": "view",
      "type": "function"
    },
    {
      "inputs": [],
      "name": "name",
      "outputs": [
        {
          "internalType": "string",
          "name": "",
          "type": "string"
        }
      ],
      "stateMutability": "view",
      "type": "function"
    },
    {
      "inputs": [
        {
          "internalType": "address",
          "name": "",
          "type": "address"
        },
        {
          "internalType": "address",
          "name": "",
          "type": "address"
        },
        {
          "internalType": "uint256",
          "name": "",
          "type": "uint256"
        },
        {
          "internalType": "bytes",
          "name": "",
          "type": "bytes"
        }
      ],
      "name": "onERC721Received",
      "outputs": [
        {
          "internalType": "bytes4",
          "name": "",
          "type": "bytes4"
        }
      ],
      "stateMutability": "nonpayable",
      "type": "function"
    },
    {
      "inputs": [],
      "name": "owner",
      "outputs": [
        {
          "internalType": "address",
          "name": "",
          "type": "address"
        }
      ],
      "stateMutability": "view",
      "type": "function"
    },
    {
      "inputs": [
        {
          "internalType": "uint256",
          "name": "tokenId",
          "type": "uint256"
        }
      ],
      "name": "ownerOf",
      "outputs": [
        {
          "internalType": "address",
          "name": "",
          "type": "address"
        }
      ],
      "stateMutability": "view",
      "type": "function"
    },
    {
      "inputs": [],
      "name": "renounceOwnership",
      "outputs": [],
      "stateMutability": "nonpayable",
      "type": "function"
    },
    {
      "inputs": [
        {
          "internalType": "address",
          "name": "from",
          "type": "address"
        },
        {
          "internalType": "address",
          "name": "to",
          "type": "address"
        },
        {
          "internalType": "uint256",
          "name": "tokenId",
          "type": "uint256"
        }
      ],
      "name": "safeTransferFrom",
      "outputs": [],
      "stateMutability": "nonpayable",
      "type": "function"
    },
    {
      "inputs": [
        {
          "internalType": "address",
          "name": "from",
          "type": "address"
        },
        {
          "internalType": "address",
          "name": "to",
          "type": "address"
        },
        {
          "internalType": "uint256",
          "name": "tokenId",
          "type": "uint256"
        },
        {
          "internalType": "bytes",
          "name": "_data",
          "type": "bytes"
        }
      ],
      "name": "safeTransferFrom",
      "outputs": [],
      "stateMutability": "nonpayable",
      "type": "function"
    },
    {
      "inputs": [
        {
          "internalType": "address",
          "name": "operator",
          "type": "address"
        },
        {
          "internalType": "bool",
          "name": "approved",
          "type": "bool"
        }
      ],
      "name": "setApprovalForAll",
      "outputs": [],
      "stateMutability": "nonpayable",
      "type": "function"
    },
    {
      "inputs": [
        {
          "internalType": "bytes4",
          "name": "interfaceId",
          "type": "bytes4"
        }
      ],
      "name": "supportsInterface",
      "outputs": [
        {
          "internalType": "bool",
          "name": "",
          "type": "bool"
        }
      ],
      "stateMutability": "view",
      "type": "function"
    },
    {
      "inputs": [],
      "name": "symbol",
      "outputs": [
        {
          "internalType": "string",
          "name": "",
          "type": "string"
        }
      ],
      "stateMutability": "view",
      "type": "function"
    },
    {
      "inputs": [
        {
          "internalType": "uint256",
          "name": "tokenId",
          "type": "uint256"
        }
      ],
      "name": "tokenURI",
      "outputs": [
        {
          "internalType": "string",
          "name": "",
          "type": "string"
        }
      ],
      "stateMutability": "view",
      "type": "function"
    },
    {
      "inputs": [
        {
          "internalType": "address",
          "name": "from",
          "type": "address"
        },
        {
          "internalType": "address",
          "name": "to",
          "type": "address"
        },
        {
          "internalType": "uint256",
          "name": "tokenId",
          "type": "uint256"
        }
      ],
      "name": "transferFrom",
      "outputs": [],
      "stateMutability": "nonpayable",
      "type": "function"
    },
    {
      "inputs": [
        {
          "internalType": "address",
          "name": "newOwner",
          "type": "address"
        }
      ],
      "name": "transferOwnership",
      "outputs": [],
      "stateMutability": "nonpayable",
      "type": "function"
    }
  ],
  "bytecode": "0x60806040526040518060400160405280600f81526020017f537570655261726557726170706572000000000000000000000000000000000081525060049080519060200190620000519291906200039f565b506040518060400160405280600581526020017f5355505257000000000000000000000000000000000000000000000000000000815250600590805190602001906200009f9291906200039f565b50348015620000ad57600080fd5b5060405162002650380380620026508339818101604052810190620000d391906200046c565b6000620000e56200028e60201b60201c565b9050806000806101000a81548173ffffffffffffffffffffffffffffffffffffffff021916908373ffffffffffffffffffffffffffffffffffffffff1602179055508073ffffffffffffffffffffffffffffffffffffffff16600073ffffffffffffffffffffffffffffffffffffffff167f8be0079c531659141344cd1fd0a4f28419497f9722a3daafe3b4186f6b6457e060405160405180910390a3506200019b6301ffc9a760e01b6200029660201b60201c565b80600260006101000a81548173ffffffffffffffffffffffffffffffffffffffff021916908373ffffffffffffffffffffffffffffffffffffffff160217905550600260009054906101000a900473ffffffffffffffffffffffffffffffffffffffff16600360006101000a81548173ffffffffffffffffffffffffffffffffffffffff021916908373ffffffffffffffffffffffffffffffffffffffff160217905550620002576380ac58cd60e01b6200029660201b60201c565b6200026f635b5e139f60e01b6200029660201b60201c565b6200028763780e9d6360e01b6200029660201b60201c565b50620004e6565b600033905090565b63ffffffff60e01b817bffffffffffffffffffffffffffffffffffffffffffffffffffffffff1916141562000333576040517f08c379a000000000000000000000000000000000000000000000000000000000815260040180806020018281038252601c8152602001807f4552433136353a20696e76616c696420696e746572666163652069640000000081525060200191505060405180910390fd5b6001806000837bffffffffffffffffffffffffffffffffffffffffffffffffffffffff19167bffffffffffffffffffffffffffffffffffffffffffffffffffffffff1916815260200190815260200160002060006101000a81548160ff02191690831515021790555050565b828054600181600116156101000203166002900490600052602060002090601f016020900481019282620003d7576000855562000423565b82601f10620003f257805160ff191683800117855562000423565b8280016001018555821562000423579182015b828111156200042257825182559160200191906001019062000405565b5b50905062000432919062000436565b5090565b5b808211156200045157600081600090555060010162000437565b5090565b6000815190506200046681620004cc565b92915050565b6000602082840312156200047f57600080fd5b60006200048f8482850162000455565b91505092915050565b6000620004a582620004ac565b9050919050565b600073ffffffffffffffffffffffffffffffffffffffff82169050919050565b620004d78162000498565b8114620004e357600080fd5b50565b61215a80620004f66000396000f3fe608060405234801561001057600080fd5b506004361061010b5760003560e01c806370a08231116100a2578063a22cb46511610071578063a22cb465146102b8578063b88d4fde146102d4578063c87b56dd146102f0578063e985e9c514610320578063f2fde38b146103505761010b565b806370a0823114610242578063715018a6146102725780638da5cb5b1461027c57806395d89b411461029a5761010b565b8063150b7a02116100de578063150b7a02146101aa57806323b872dd146101da57806342842e0e146101f65780636352211e146102125761010b565b806301ffc9a71461011057806306fdde0314610140578063081812fc1461015e578063095ea7b31461018e575b600080fd5b61012a6004803603810190610125919061188a565b61036c565b6040516101379190611d68565b60405180910390f35b6101486103d4565b6040516101559190611d9e565b60405180910390f35b6101786004803603810190610173919061191d565b610480565b6040516101859190611cd8565b60405180910390f35b6101a860048036038101906101a3919061184e565b610534565b005b6101c460048036038101906101bf9190611797565b610539565b6040516101d19190611d83565b60405180910390f35b6101f460048036038101906101ef9190611748565b61054d565b005b610210600480360381019061020b9190611748565b6105ad565b005b61022c6004803603810190610227919061191d565b6105cd565b6040516102399190611cd8565b60405180910390f35b61025c600480360381019061025791906116ba565b610681565b6040516102699190611e80565b60405180910390f35b61027a6107a4565b005b610284610911565b6040516102919190611cd8565b60405180910390f35b6102a261093a565b6040516102af9190611d9e565b60405180910390f35b6102d260048036038101906102cd9190611812565b6109e6565b005b6102ee60048036038101906102e99190611797565b610a21565b005b61030a6004803603810190610305919061191d565b610a83565b6040516103179190611d9e565b60405180910390f35b61033a6004803603810190610335919061170c565b610b3c565b6040516103479190611d68565b60405180910390f35b61036a600480360381019061036591906116ba565b610b79565b005b600060016000837bffffffffffffffffffffffffffffffffffffffffffffffffffffffff19167bffffffffffffffffffffffffffffffffffffffffffffffffffffffff1916815260200190815260200160002060009054906101000a900460ff169050919050565b6060600360009054906101000a900473ffffffffffffffffffffffffffffffffffffffff1673ffffffffffffffffffffffffffffffffffffffff166306fdde036040518163ffffffff1660e01b815260040160006040518083038186803b15801561043e57600080fd5b505afa158015610452573d6000803e3d6000fd5b505050506040513d6000823e3d601f19601f8201168201806040525081019061047b91906118dc565b905090565b6000600360009054906101000a900473ffffffffffffffffffffffffffffffffffffffff1673ffffffffffffffffffffffffffffffffffffffff16632a6dd48f836040518263ffffffff1660e01b81526004016104dd9190611e80565b60206040518083038186803b1580156104f557600080fd5b505afa158015610509573d6000803e3d6000fd5b505050506040513d601f19601f8201168201806040525081019061052d91906116e3565b9050919050565b600080fd5b600063150b7a0260e01b9050949350505050565b61055e610558610d6b565b82610d73565b61059d576040517f08c379a000000000000000000000000000000000000000000000000000000000815260040161059490611e40565b60405180910390fd5b6105a8838383610f36565b505050565b6105c883838360405180602001604052806000815250610a21565b505050565b6000600360009054906101000a900473ffffffffffffffffffffffffffffffffffffffff1673ffffffffffffffffffffffffffffffffffffffff16636352211e836040518263ffffffff1660e01b815260040161062a9190611e80565b60206040518083038186803b15801561064257600080fd5b505afa158015610656573d6000803e3d6000fd5b505050506040513d601f19601f8201168201806040525081019061067a91906116e3565b9050919050565b60008073ffffffffffffffffffffffffffffffffffffffff168273ffffffffffffffffffffffffffffffffffffffff1614156106f2576040517f08c379a00000000000000000000000000000000000000000000000000000000081526004016106e990611e20565b60405180910390fd5b600360009054906101000a900473ffffffffffffffffffffffffffffffffffffffff1673ffffffffffffffffffffffffffffffffffffffff166370a08231836040518263ffffffff1660e01b815260040161074d9190611cd8565b60206040518083038186803b15801561076557600080fd5b505afa158015610779573d6000803e3d6000fd5b505050506040513d601f19601f8201168201806040525081019061079d9190611946565b9050919050565b6107ac610d6b565b73ffffffffffffffffffffffffffffffffffffffff166107ca610911565b73ffffffffffffffffffffffffffffffffffffffff1614610853576040517f08c379a00000000000000000000000000000000000000000000000000000000081526004018080602001828103825260208152602001807f4f776e61626c653a2063616c6c6572206973206e6f7420746865206f776e657281525060200191505060405180910390fd5b600073ffffffffffffffffffffffffffffffffffffffff1660008054906101000a900473ffffffffffffffffffffffffffffffffffffffff1673ffffffffffffffffffffffffffffffffffffffff167f8be0079c531659141344cd1fd0a4f28419497f9722a3daafe3b4186f6b6457e060405160405180910390a360008060006101000a81548173ffffffffffffffffffffffffffffffffffffffff021916908373ffffffffffffffffffffffffffffffffffffffff160217905550565b60008060009054906101000a900473ffffffffffffffffffffffffffffffffffffffff16905090565b6060600360009054906101000a900473ffffffffffffffffffffffffffffffffffffffff1673ffffffffffffffffffffffffffffffffffffffff166395d89b416040518163ffffffff1660e01b815260040160006040518083038186803b1580156109a457600080fd5b505afa1580156109b8573d6000803e3d6000fd5b505050506040513d6000823e3d601f19601f820116820180604052508101906109e191906118dc565b905090565b6040517f08c379a0000000000000000000000000000000000000000000000000000000008152600401610a1890611dc0565b60405180910390fd5b610a32610a2c610d6b565b83610d73565b610a71576040517f08c379a0000000000000000000000000000000000000000000000000000000008152600401610a6890611e40565b60405180910390fd5b610a7d848484846110f8565b50505050565b6060600360009054906101000a900473ffffffffffffffffffffffffffffffffffffffff1673ffffffffffffffffffffffffffffffffffffffff1663c87b56dd836040518263ffffffff1660e01b8152600401610ae09190611e80565b60006040518083038186803b158015610af857600080fd5b505afa158015610b0c573d6000803e3d6000fd5b505050506040513d6000823e3d601f19601f82011682018060405250810190610b3591906118dc565b9050919050565b60006040517f08c379a0000000000000000000000000000000000000000000000000000000008152600401610b7090611e60565b60405180910390fd5b610b81610d6b565b73ffffffffffffffffffffffffffffffffffffffff16610b9f610911565b73ffffffffffffffffffffffffffffffffffffffff1614610c28576040517f08c379a00000000000000000000000000000000000000000000000000000000081526004018080602001828103825260208152602001807f4f776e61626c653a2063616c6c6572206973206e6f7420746865206f776e657281525060200191505060405180910390fd5b600073ffffffffffffffffffffffffffffffffffffffff168173ffffffffffffffffffffffffffffffffffffffff161415610cae576040517f08c379a00000000000000000000000000000000000000000000000000000000081526004018080602001828103825260268152602001806120d96026913960400191505060405180910390fd5b8073ffffffffffffffffffffffffffffffffffffffff1660008054906101000a900473ffffffffffffffffffffffffffffffffffffffff1673ffffffffffffffffffffffffffffffffffffffff167f8be0079c531659141344cd1fd0a4f28419497f9722a3daafe3b4186f6b6457e060405160405180910390a3806000806101000a81548173ffffffffffffffffffffffffffffffffffffffff021916908373ffffffffffffffffffffffffffffffffffffffff16021790555050565b600033905090565b60008273ffffffffffffffffffffffffffffffffffffffff16600360009054906101000a900473ffffffffffffffffffffffffffffffffffffffff1673ffffffffffffffffffffffffffffffffffffffff16632a6dd48f846040518263ffffffff1660e01b8152600401610de79190611e80565b60206040518083038186803b158015610dff57600080fd5b505afa158015610e13573d6000803e3d6000fd5b505050506040513d601f19601f82011682018060405250810190610e3791906116e3565b73ffffffffffffffffffffffffffffffffffffffff161480610f2e57508273ffffffffffffffffffffffffffffffffffffffff16600360009054906101000a900473ffffffffffffffffffffffffffffffffffffffff1673ffffffffffffffffffffffffffffffffffffffff16636352211e846040518263ffffffff1660e01b8152600401610ec69190611e80565b60206040518083038186803b158015610ede57600080fd5b505afa158015610ef2573d6000803e3d6000fd5b505050506040513d601f19601f82011682018060405250810190610f1691906116e3565b73ffffffffffffffffffffffffffffffffffffffff16145b905092915050565b600080600260009054906101000a900473ffffffffffffffffffffffffffffffffffffffff1673ffffffffffffffffffffffffffffffffffffffff168484604051602401610f85929190611d3f565b6040516020818303038152906040527fa9059cbb000000000000000000000000000000000000000000000000000000007bffffffffffffffffffffffffffffffffffffffffffffffffffffffff19166020820180517bffffffffffffffffffffffffffffffffffffffffffffffffffffffff838183161783525050505060405161100f9190611cc1565b6000604051808303816000865af19150503d806000811461104c576040519150601f19603f3d011682016040523d82523d6000602084013e611051565b606091505b509150915081611096576040517f08c379a000000000000000000000000000000000000000000000000000000000815260040161108d90611e00565b60405180910390fd5b828473ffffffffffffffffffffffffffffffffffffffff168673ffffffffffffffffffffffffffffffffffffffff167fddf252ad1be2c89b69c2b068fc378daa952ba7f163c4a11628f55a4df523b3ef60405160405180910390a45050505050565b611103848484610f36565b61110f84848484611154565b61114e576040517f08c379a000000000000000000000000000000000000000000000000000000000815260040161114590611de0565b60405180910390fd5b50505050565b60006111758473ffffffffffffffffffffffffffffffffffffffff166112b8565b61118257600190506112b0565b600061124963150b7a0260e01b611197610d6b565b8887876040516024016111ad9493929190611cf3565b604051602081830303815290604052907bffffffffffffffffffffffffffffffffffffffffffffffffffffffff19166020820180517bffffffffffffffffffffffffffffffffffffffffffffffffffffffff83818316178352505050506040518060600160405280603281526020016120a7603291398773ffffffffffffffffffffffffffffffffffffffff166112cb9092919063ffffffff16565b905060008180602001905181019061126191906118b3565b905063150b7a0260e01b7bffffffffffffffffffffffffffffffffffffffffffffffffffffffff1916817bffffffffffffffffffffffffffffffffffffffffffffffffffffffff191614925050505b949350505050565b600080823b905060008111915050919050565b60606112da84846000856112e3565b90509392505050565b60608247101561133e576040517f08c379a00000000000000000000000000000000000000000000000000000000081526004018080602001828103825260268152602001806120ff6026913960400191505060405180910390fd5b611347856112b8565b6113b9576040517f08c379a000000000000000000000000000000000000000000000000000000000815260040180806020018281038252601d8152602001807f416464726573733a2063616c6c20746f206e6f6e2d636f6e747261637400000081525060200191505060405180910390fd5b6000808673ffffffffffffffffffffffffffffffffffffffff1685876040518082805190602001908083835b6020831061140857805182526020820191506020810190506020830392506113e5565b6001836020036101000a03801982511681845116808217855250505050505090500191505060006040518083038185875af1925050503d806000811461146a576040519150601f19603f3d011682016040523d82523d6000602084013e61146f565b606091505b509150915061147f82828661148b565b92505050949350505050565b6060831561149b57829050611550565b6000835111156114ae5782518084602001fd5b816040517f08c379a00000000000000000000000000000000000000000000000000000000081526004018080602001828103825283818151815260200191508051906020019080838360005b838110156115155780820151818401526020810190506114fa565b50505050905090810190601f1680156115425780820380516001836020036101000a031916815260200191505b509250505060405180910390fd5b9392505050565b600061156a61156584611ecc565b611e9b565b90508281526020810184848401111561158257600080fd5b61158d848285611ff5565b509392505050565b60006115a86115a384611efc565b611e9b565b9050828152602081018484840111156115c057600080fd5b6115cb848285612004565b509392505050565b6000813590506115e28161204a565b92915050565b6000815190506115f78161204a565b92915050565b60008135905061160c81612061565b92915050565b60008135905061162181612078565b92915050565b60008151905061163681612078565b92915050565b600082601f83011261164d57600080fd5b813561165d848260208601611557565b91505092915050565b600082601f83011261167757600080fd5b8151611687848260208601611595565b91505092915050565b60008135905061169f8161208f565b92915050565b6000815190506116b48161208f565b92915050565b6000602082840312156116cc57600080fd5b60006116da848285016115d3565b91505092915050565b6000602082840312156116f557600080fd5b6000611703848285016115e8565b91505092915050565b6000806040838503121561171f57600080fd5b600061172d858286016115d3565b925050602061173e858286016115d3565b9150509250929050565b60008060006060848603121561175d57600080fd5b600061176b868287016115d3565b935050602061177c868287016115d3565b925050604061178d86828701611690565b9150509250925092565b600080600080608085870312156117ad57600080fd5b60006117bb878288016115d3565b94505060206117cc878288016115d3565b93505060406117dd87828801611690565b925050606085013567ffffffffffffffff8111156117fa57600080fd5b6118068782880161163c565b91505092959194509250565b6000806040838503121561182557600080fd5b6000611833858286016115d3565b9250506020611844858286016115fd565b9150509250929050565b6000806040838503121561186157600080fd5b600061186f858286016115d3565b925050602061188085828601611690565b9150509250929050565b60006020828403121561189c57600080fd5b60006118aa84828501611612565b91505092915050565b6000602082840312156118c557600080fd5b60006118d384828501611627565b91505092915050565b6000602082840312156118ee57600080fd5b600082015167ffffffffffffffff81111561190857600080fd5b61191484828501611666565b91505092915050565b60006020828403121561192f57600080fd5b600061193d84828501611690565b91505092915050565b60006020828403121561195857600080fd5b6000611966848285016116a5565b91505092915050565b61197881611f81565b82525050565b61198781611f6f565b82525050565b61199681611f93565b82525050565b6119a581611f9f565b82525050565b60006119b682611f2c565b6119c08185611f42565b93506119d0818560208601612004565b6119d981612039565b840191505092915050565b60006119ef82611f2c565b6119f98185611f53565b9350611a09818560208601612004565b80840191505092915050565b6000611a2082611f37565b611a2a8185611f5e565b9350611a3a818560208601612004565b611a4381612039565b840191505092915050565b6000611a5b603483611f5e565b91507f537570655261726520577261707065723a20736574417070726f76616c466f7260008301527f416c6c204e6f7420696d706c656d656e746564210000000000000000000000006020830152604082019050919050565b6000611ac1603283611f5e565b91507f4552433732313a207472616e7366657220746f206e6f6e20455243373231526560008301527f63656976657220696d706c656d656e74657200000000000000000000000000006020830152604082019050919050565b6000611b27602a83611f5e565b91507f5375706552617265577261707065723a205472616e73666572206f6620746f6b60008301527f656e206661696c656421000000000000000000000000000000000000000000006020830152604082019050919050565b6000611b8d602a83611f5e565b91507f4552433732313a2062616c616e636520717565727920666f7220746865207a6560008301527f726f2061646472657373000000000000000000000000000000000000000000006020830152604082019050919050565b6000611bf3603183611f5e565b91507f4552433732313a207472616e736665722063616c6c6572206973206e6f74206f60008301527f776e6572206e6f7220617070726f7665640000000000000000000000000000006020830152604082019050919050565b6000611c59603383611f5e565b91507f537570655261726520577261707065723a206973417070726f766564466f724160008301527f6c6c204e6f7420696d706c656d656e74656421000000000000000000000000006020830152604082019050919050565b611cbb81611feb565b82525050565b6000611ccd82846119e4565b915081905092915050565b6000602082019050611ced600083018461197e565b92915050565b6000608082019050611d08600083018761196f565b611d15602083018661197e565b611d226040830185611cb2565b8181036060830152611d3481846119ab565b905095945050505050565b6000604082019050611d54600083018561197e565b611d616020830184611cb2565b9392505050565b6000602082019050611d7d600083018461198d565b92915050565b6000602082019050611d98600083018461199c565b92915050565b60006020820190508181036000830152611db88184611a15565b905092915050565b60006020820190508181036000830152611dd981611a4e565b9050919050565b60006020820190508181036000830152611df981611ab4565b9050919050565b60006020820190508181036000830152611e1981611b1a565b9050919050565b60006020820190508181036000830152611e3981611b80565b9050919050565b60006020820190508181036000830152611e5981611be6565b9050919050565b60006020820190508181036000830152611e7981611c4c565b9050919050565b6000602082019050611e956000830184611cb2565b92915050565b6000604051905081810181811067ffffffffffffffff82111715611ec257611ec1612037565b5b8060405250919050565b600067ffffffffffffffff821115611ee757611ee6612037565b5b601f19601f8301169050602081019050919050565b600067ffffffffffffffff821115611f1757611f16612037565b5b601f19601f8301169050602081019050919050565b600081519050919050565b600081519050919050565b600082825260208201905092915050565b600081905092915050565b600082825260208201905092915050565b6000611f7a82611fcb565b9050919050565b6000611f8c82611fcb565b9050919050565b60008115159050919050565b60007fffffffff0000000000000000000000000000000000000000000000000000000082169050919050565b600073ffffffffffffffffffffffffffffffffffffffff82169050919050565b6000819050919050565b82818337600083830152505050565b60005b83811015612022578082015181840152602081019050612007565b83811115612031576000848401525b50505050565bfe5b6000601f19601f8301169050919050565b61205381611f6f565b811461205e57600080fd5b50565b61206a81611f93565b811461207557600080fd5b50565b61208181611f9f565b811461208c57600080fd5b50565b61209881611feb565b81146120a357600080fd5b5056fe4552433732313a207472616e7366657220746f206e6f6e20455243373231526563656976657220696d706c656d656e7465724f776e61626c653a206e6577206f776e657220697320746865207a65726f2061646472657373416464726573733a20696e73756666696369656e742062616c616e636520666f722063616c6ca264697066735822122054eb2637a46d63bef9d201681325cec111efb7e391bb9f9c9e43f67e9b5a9a7d64736f6c63430007060033",
  "linkReferences": {},
  "deployedLinkReferences": {}
}