{
  "_format": "hh-sol-artifact-1",
  "contractName": "SupeRareWrapper",
  "sourceName": "contracts/SuperRareWrapper.sol",
  "abi": [
    {
      "inputs": [
        {
          "internalType": "address",
          "name": "OriginalSupeRareAddr__",
          "type": "address"
        }
      ],
      "stateMutability": "nonpayable",
      "type": "constructor"
    },
    {
      "anonymous": false,
      "inputs": [
        {
          "indexed": true,
          "internalType": "address",
          "name": "owner",
          "type": "address"
        },
        {
          "indexed": true,
          "internalType": "address",
          "name": "approved",
          "type": "address"
        },
        {
          "indexed": true,
          "internalType": "uint256",
          "name": "tokenId",
          "type": "uint256"
        }
      ],
      "name": "Approval",
      "type": "event"
    },
    {
      "anonymous": false,
      "inputs": [
        {
          "indexed": true,
          "internalType": "address",
          "name": "owner",
          "type": "address"
        },
        {
          "indexed": true,
          "internalType": "address",
          "name": "operator",
          "type": "address"
        },
        {
          "indexed": false,
          "internalType": "bool",
          "name": "approved",
          "type": "bool"
        }
      ],
      "name": "ApprovalForAll",
      "type": "event"
    },
    {
      "anonymous": false,
      "inputs": [
        {
          "indexed": true,
          "internalType": "address",
          "name": "previousOwner",
          "type": "address"
        },
        {
          "indexed": true,
          "internalType": "address",
          "name": "newOwner",
          "type": "address"
        }
      ],
      "name": "OwnershipTransferred",
      "type": "event"
    },
    {
      "anonymous": false,
      "inputs": [
        {
          "indexed": true,
          "internalType": "address",
          "name": "from",
          "type": "address"
        },
        {
          "indexed": true,
          "internalType": "address",
          "name": "to",
          "type": "address"
        },
        {
          "indexed": true,
          "internalType": "uint256",
          "name": "tokenId",
          "type": "uint256"
        }
      ],
      "name": "Transfer",
      "type": "event"
    },
    {
      "inputs": [
        {
          "internalType": "address",
          "name": "to",
          "type": "address"
        },
        {
          "internalType": "uint256",
          "name": "tokenId",
          "type": "uint256"
        }
      ],
      "name": "approve",
      "outputs": [],
      "stateMutability": "nonpayable",
      "type": "function"
    },
    {
      "inputs": [
        {
          "internalType": "address",
          "name": "account",
          "type": "address"
        }
      ],
      "name": "balanceOf",
      "outputs": [
        {
          "internalType": "uint256",
          "name": "",
          "type": "uint256"
        }
      ],
      "stateMutability": "view",
      "type": "function"
    },
    {
      "inputs": [
        {
          "internalType": "uint256",
          "name": "tokenId",
          "type": "uint256"
        }
      ],
      "name": "getApproved",
      "outputs": [
        {
          "internalType": "address",
          "name": "",
          "type": "address"
        }
      ],
      "stateMutability": "view",
      "type": "function"
    },
    {
      "inputs": [
        {
          "internalType": "address",
          "name": "owner",
          "type": "address"
        },
        {
          "internalType": "address",
          "name": "operator",
          "type": "address"
        }
      ],
      "name": "isApprovedForAll",
      "outputs": [
        {
          "internalType": "bool",
          "name": "",
          "type": "bool"
        }
      ],
      "stateMutability": "view",
      "type": "function"
    },
    {
      "inputs": [],
      "name": "name",
      "outputs": [
        {
          "internalType": "string",
          "name": "",
          "type": "string"
        }
      ],
      "stateMutability": "view",
      "type": "function"
    },
    {
      "inputs": [
        {
          "internalType": "address",
          "name": "",
          "type": "address"
        },
        {
          "internalType": "address",
          "name": "",
          "type": "address"
        },
        {
          "internalType": "uint256",
          "name": "",
          "type": "uint256"
        },
        {
          "internalType": "bytes",
          "name": "",
          "type": "bytes"
        }
      ],
      "name": "onERC721Received",
      "outputs": [
        {
          "internalType": "bytes4",
          "name": "",
          "type": "bytes4"
        }
      ],
      "stateMutability": "nonpayable",
      "type": "function"
    },
    {
      "inputs": [],
      "name": "owner",
      "outputs": [
        {
          "internalType": "address",
          "name": "",
          "type": "address"
        }
      ],
      "stateMutability": "view",
      "type": "function"
    },
    {
      "inputs": [
        {
          "internalType": "uint256",
          "name": "tokenId",
          "type": "uint256"
        }
      ],
      "name": "ownerOf",
      "outputs": [
        {
          "internalType": "address",
          "name": "",
          "type": "address"
        }
      ],
      "stateMutability": "view",
      "type": "function"
    },
    {
      "inputs": [],
      "name": "renounceOwnership",
      "outputs": [],
      "stateMutability": "nonpayable",
      "type": "function"
    },
    {
      "inputs": [
        {
          "internalType": "address",
          "name": "from",
          "type": "address"
        },
        {
          "internalType": "address",
          "name": "to",
          "type": "address"
        },
        {
          "internalType": "uint256",
          "name": "tokenId",
          "type": "uint256"
        }
      ],
      "name": "safeTransferFrom",
      "outputs": [],
      "stateMutability": "nonpayable",
      "type": "function"
    },
    {
      "inputs": [
        {
          "internalType": "address",
          "name": "from",
          "type": "address"
        },
        {
          "internalType": "address",
          "name": "to",
          "type": "address"
        },
        {
          "internalType": "uint256",
          "name": "tokenId",
          "type": "uint256"
        },
        {
          "internalType": "bytes",
          "name": "_data",
          "type": "bytes"
        }
      ],
      "name": "safeTransferFrom",
      "outputs": [],
      "stateMutability": "nonpayable",
      "type": "function"
    },
    {
      "inputs": [
        {
          "internalType": "address",
          "name": "operator",
          "type": "address"
        },
        {
          "internalType": "bool",
          "name": "approved",
          "type": "bool"
        }
      ],
      "name": "setApprovalForAll",
      "outputs": [],
      "stateMutability": "nonpayable",
      "type": "function"
    },
    {
      "inputs": [
        {
          "internalType": "bytes4",
          "name": "interfaceId",
          "type": "bytes4"
        }
      ],
      "name": "supportsInterface",
      "outputs": [
        {
          "internalType": "bool",
          "name": "",
          "type": "bool"
        }
      ],
      "stateMutability": "view",
      "type": "function"
    },
    {
      "inputs": [],
      "name": "symbol",
      "outputs": [
        {
          "internalType": "string",
          "name": "",
          "type": "string"
        }
      ],
      "stateMutability": "view",
      "type": "function"
    },
    {
      "inputs": [
        {
          "internalType": "uint256",
          "name": "tokenId",
          "type": "uint256"
        }
      ],
      "name": "tokenURI",
      "outputs": [
        {
          "internalType": "string",
          "name": "",
          "type": "string"
        }
      ],
      "stateMutability": "view",
      "type": "function"
    },
    {
      "inputs": [
        {
          "internalType": "address",
          "name": "from",
          "type": "address"
        },
        {
          "internalType": "address",
          "name": "to",
          "type": "address"
        },
        {
          "internalType": "uint256",
          "name": "tokenId",
          "type": "uint256"
        }
      ],
      "name": "transferFrom",
      "outputs": [],
      "stateMutability": "nonpayable",
      "type": "function"
    },
    {
      "inputs": [
        {
          "internalType": "address",
          "name": "newOwner",
          "type": "address"
        }
      ],
      "name": "transferOwnership",
      "outputs": [],
      "stateMutability": "nonpayable",
      "type": "function"
    }
  ],
  "bytecode": "0x60806040526040518060400160405280600f81526020017f537570655261726557726170706572000000000000000000000000000000000081525060049080519060200190620000519291906200039f565b506040518060400160405280600581526020017f5355505257000000000000000000000000000000000000000000000000000000815250600590805190602001906200009f9291906200039f565b50348015620000ad57600080fd5b50604051620024d9380380620024d98339818101604052810190620000d391906200046c565b6000620000e56200028e60201b60201c565b9050806000806101000a81548173ffffffffffffffffffffffffffffffffffffffff021916908373ffffffffffffffffffffffffffffffffffffffff1602179055508073ffffffffffffffffffffffffffffffffffffffff16600073ffffffffffffffffffffffffffffffffffffffff167f8be0079c531659141344cd1fd0a4f28419497f9722a3daafe3b4186f6b6457e060405160405180910390a3506200019b6301ffc9a760e01b6200029660201b60201c565b80600260006101000a81548173ffffffffffffffffffffffffffffffffffffffff021916908373ffffffffffffffffffffffffffffffffffffffff160217905550600260009054906101000a900473ffffffffffffffffffffffffffffffffffffffff16600360006101000a81548173ffffffffffffffffffffffffffffffffffffffff021916908373ffffffffffffffffffffffffffffffffffffffff160217905550620002576380ac58cd60e01b6200029660201b60201c565b6200026f635b5e139f60e01b6200029660201b60201c565b6200028763780e9d6360e01b6200029660201b60201c565b50620004e6565b600033905090565b63ffffffff60e01b817bffffffffffffffffffffffffffffffffffffffffffffffffffffffff1916141562000333576040517f08c379a000000000000000000000000000000000000000000000000000000000815260040180806020018281038252601c8152602001807f4552433136353a20696e76616c696420696e746572666163652069640000000081525060200191505060405180910390fd5b6001806000837bffffffffffffffffffffffffffffffffffffffffffffffffffffffff19167bffffffffffffffffffffffffffffffffffffffffffffffffffffffff1916815260200190815260200160002060006101000a81548160ff02191690831515021790555050565b828054600181600116156101000203166002900490600052602060002090601f016020900481019282620003d7576000855562000423565b82601f10620003f257805160ff191683800117855562000423565b8280016001018555821562000423579182015b828111156200042257825182559160200191906001019062000405565b5b50905062000432919062000436565b5090565b5b808211156200045157600081600090555060010162000437565b5090565b6000815190506200046681620004cc565b92915050565b6000602082840312156200047f57600080fd5b60006200048f8482850162000455565b91505092915050565b6000620004a582620004ac565b9050919050565b600073ffffffffffffffffffffffffffffffffffffffff82169050919050565b620004d78162000498565b8114620004e357600080fd5b50565b611fe380620004f66000396000f3fe608060405234801561001057600080fd5b506004361061010b5760003560e01c806370a08231116100a2578063a22cb46511610071578063a22cb465146102b8578063b88d4fde146102d4578063c87b56dd146102f0578063e985e9c514610320578063f2fde38b146103505761010b565b806370a0823114610242578063715018a6146102725780638da5cb5b1461027c57806395d89b411461029a5761010b565b8063150b7a02116100de578063150b7a02146101aa57806323b872dd146101da57806342842e0e146101f65780636352211e146102125761010b565b806301ffc9a71461011057806306fdde0314610140578063081812fc1461015e578063095ea7b31461018e575b600080fd5b61012a6004803603810190610125919061181f565b61036c565b6040516101379190611c31565b60405180910390f35b6101486103d4565b6040516101559190611c67565b60405180910390f35b610178600480360381019061017391906118b2565b610480565b6040516101859190611ba1565b60405180910390f35b6101a860048036038101906101a391906117e3565b610534565b005b6101c460048036038101906101bf919061172c565b610539565b6040516101d19190611c4c565b60405180910390f35b6101f460048036038101906101ef91906116dd565b61054d565b005b610210600480360381019061020b91906116dd565b6105ad565b005b61022c600480360381019061022791906118b2565b6105cd565b6040516102399190611ba1565b60405180910390f35b61025c6004803603810190610257919061164f565b610681565b6040516102699190611d09565b60405180910390f35b61027a6107a4565b005b610284610911565b6040516102919190611ba1565b60405180910390f35b6102a261093a565b6040516102af9190611c67565b60405180910390f35b6102d260048036038101906102cd91906117a7565b6109e6565b005b6102ee60048036038101906102e9919061172c565b6109eb565b005b61030a600480360381019061030591906118b2565b610a4d565b6040516103179190611c67565b60405180910390f35b61033a600480360381019061033591906116a1565b610b06565b6040516103479190611c31565b60405180910390f35b61036a6004803603810190610365919061164f565b610b0e565b005b600060016000837bffffffffffffffffffffffffffffffffffffffffffffffffffffffff19167bffffffffffffffffffffffffffffffffffffffffffffffffffffffff1916815260200190815260200160002060009054906101000a900460ff169050919050565b6060600360009054906101000a900473ffffffffffffffffffffffffffffffffffffffff1673ffffffffffffffffffffffffffffffffffffffff166306fdde036040518163ffffffff1660e01b815260040160006040518083038186803b15801561043e57600080fd5b505afa158015610452573d6000803e3d6000fd5b505050506040513d6000823e3d601f19601f8201168201806040525081019061047b9190611871565b905090565b6000600360009054906101000a900473ffffffffffffffffffffffffffffffffffffffff1673ffffffffffffffffffffffffffffffffffffffff16632a6dd48f836040518263ffffffff1660e01b81526004016104dd9190611d09565b60206040518083038186803b1580156104f557600080fd5b505afa158015610509573d6000803e3d6000fd5b505050506040513d601f19601f8201168201806040525081019061052d9190611678565b9050919050565b600080fd5b600063150b7a0260e01b9050949350505050565b61055e610558610d00565b82610d08565b61059d576040517f08c379a000000000000000000000000000000000000000000000000000000000815260040161059490611ce9565b60405180910390fd5b6105a8838383610ecb565b505050565b6105c8838383604051806020016040528060008152506109eb565b505050565b6000600360009054906101000a900473ffffffffffffffffffffffffffffffffffffffff1673ffffffffffffffffffffffffffffffffffffffff16636352211e836040518263ffffffff1660e01b815260040161062a9190611d09565b60206040518083038186803b15801561064257600080fd5b505afa158015610656573d6000803e3d6000fd5b505050506040513d601f19601f8201168201806040525081019061067a9190611678565b9050919050565b60008073ffffffffffffffffffffffffffffffffffffffff168273ffffffffffffffffffffffffffffffffffffffff1614156106f2576040517f08c379a00000000000000000000000000000000000000000000000000000000081526004016106e990611cc9565b60405180910390fd5b600360009054906101000a900473ffffffffffffffffffffffffffffffffffffffff1673ffffffffffffffffffffffffffffffffffffffff166370a08231836040518263ffffffff1660e01b815260040161074d9190611ba1565b60206040518083038186803b15801561076557600080fd5b505afa158015610779573d6000803e3d6000fd5b505050506040513d601f19601f8201168201806040525081019061079d91906118db565b9050919050565b6107ac610d00565b73ffffffffffffffffffffffffffffffffffffffff166107ca610911565b73ffffffffffffffffffffffffffffffffffffffff1614610853576040517f08c379a00000000000000000000000000000000000000000000000000000000081526004018080602001828103825260208152602001807f4f776e61626c653a2063616c6c6572206973206e6f7420746865206f776e657281525060200191505060405180910390fd5b600073ffffffffffffffffffffffffffffffffffffffff1660008054906101000a900473ffffffffffffffffffffffffffffffffffffffff1673ffffffffffffffffffffffffffffffffffffffff167f8be0079c531659141344cd1fd0a4f28419497f9722a3daafe3b4186f6b6457e060405160405180910390a360008060006101000a81548173ffffffffffffffffffffffffffffffffffffffff021916908373ffffffffffffffffffffffffffffffffffffffff160217905550565b60008060009054906101000a900473ffffffffffffffffffffffffffffffffffffffff16905090565b6060600360009054906101000a900473ffffffffffffffffffffffffffffffffffffffff1673ffffffffffffffffffffffffffffffffffffffff166395d89b416040518163ffffffff1660e01b815260040160006040518083038186803b1580156109a457600080fd5b505afa1580156109b8573d6000803e3d6000fd5b505050506040513d6000823e3d601f19601f820116820180604052508101906109e19190611871565b905090565b600080fd5b6109fc6109f6610d00565b83610d08565b610a3b576040517f08c379a0000000000000000000000000000000000000000000000000000000008152600401610a3290611ce9565b60405180910390fd5b610a478484848461108d565b50505050565b6060600360009054906101000a900473ffffffffffffffffffffffffffffffffffffffff1673ffffffffffffffffffffffffffffffffffffffff1663c87b56dd836040518263ffffffff1660e01b8152600401610aaa9190611d09565b60006040518083038186803b158015610ac257600080fd5b505afa158015610ad6573d6000803e3d6000fd5b505050506040513d6000823e3d601f19601f82011682018060405250810190610aff9190611871565b9050919050565b600092915050565b610b16610d00565b73ffffffffffffffffffffffffffffffffffffffff16610b34610911565b73ffffffffffffffffffffffffffffffffffffffff1614610bbd576040517f08c379a00000000000000000000000000000000000000000000000000000000081526004018080602001828103825260208152602001807f4f776e61626c653a2063616c6c6572206973206e6f7420746865206f776e657281525060200191505060405180910390fd5b600073ffffffffffffffffffffffffffffffffffffffff168173ffffffffffffffffffffffffffffffffffffffff161415610c43576040517f08c379a0000000000000000000000000000000000000000000000000000000008152600401808060200182810382526026815260200180611f626026913960400191505060405180910390fd5b8073ffffffffffffffffffffffffffffffffffffffff1660008054906101000a900473ffffffffffffffffffffffffffffffffffffffff1673ffffffffffffffffffffffffffffffffffffffff167f8be0079c531659141344cd1fd0a4f28419497f9722a3daafe3b4186f6b6457e060405160405180910390a3806000806101000a81548173ffffffffffffffffffffffffffffffffffffffff021916908373ffffffffffffffffffffffffffffffffffffffff16021790555050565b600033905090565b60008273ffffffffffffffffffffffffffffffffffffffff16600360009054906101000a900473ffffffffffffffffffffffffffffffffffffffff1673ffffffffffffffffffffffffffffffffffffffff16632a6dd48f846040518263ffffffff1660e01b8152600401610d7c9190611d09565b60206040518083038186803b158015610d9457600080fd5b505afa158015610da8573d6000803e3d6000fd5b505050506040513d601f19601f82011682018060405250810190610dcc9190611678565b73ffffffffffffffffffffffffffffffffffffffff161480610ec357508273ffffffffffffffffffffffffffffffffffffffff16600360009054906101000a900473ffffffffffffffffffffffffffffffffffffffff1673ffffffffffffffffffffffffffffffffffffffff16636352211e846040518263ffffffff1660e01b8152600401610e5b9190611d09565b60206040518083038186803b158015610e7357600080fd5b505afa158015610e87573d6000803e3d6000fd5b505050506040513d601f19601f82011682018060405250810190610eab9190611678565b73ffffffffffffffffffffffffffffffffffffffff16145b905092915050565b600080600260009054906101000a900473ffffffffffffffffffffffffffffffffffffffff1673ffffffffffffffffffffffffffffffffffffffff168484604051602401610f1a929190611c08565b6040516020818303038152906040527fa9059cbb000000000000000000000000000000000000000000000000000000007bffffffffffffffffffffffffffffffffffffffffffffffffffffffff19166020820180517bffffffffffffffffffffffffffffffffffffffffffffffffffffffff8381831617835250505050604051610fa49190611b8a565b6000604051808303816000865af19150503d8060008114610fe1576040519150601f19603f3d011682016040523d82523d6000602084013e610fe6565b606091505b50915091508161102b576040517f08c379a000000000000000000000000000000000000000000000000000000000815260040161102290611ca9565b60405180910390fd5b828473ffffffffffffffffffffffffffffffffffffffff168673ffffffffffffffffffffffffffffffffffffffff167fddf252ad1be2c89b69c2b068fc378daa952ba7f163c4a11628f55a4df523b3ef60405160405180910390a45050505050565b611098848484610ecb565b6110a4848484846110e9565b6110e3576040517f08c379a00000000000000000000000000000000000000000000000000000000081526004016110da90611c89565b60405180910390fd5b50505050565b600061110a8473ffffffffffffffffffffffffffffffffffffffff1661124d565b6111175760019050611245565b60006111de63150b7a0260e01b61112c610d00565b8887876040516024016111429493929190611bbc565b604051602081830303815290604052907bffffffffffffffffffffffffffffffffffffffffffffffffffffffff19166020820180517bffffffffffffffffffffffffffffffffffffffffffffffffffffffff8381831617835250505050604051806060016040528060328152602001611f30603291398773ffffffffffffffffffffffffffffffffffffffff166112609092919063ffffffff16565b90506000818060200190518101906111f69190611848565b905063150b7a0260e01b7bffffffffffffffffffffffffffffffffffffffffffffffffffffffff1916817bffffffffffffffffffffffffffffffffffffffffffffffffffffffff191614925050505b949350505050565b600080823b905060008111915050919050565b606061126f8484600085611278565b90509392505050565b6060824710156112d3576040517f08c379a0000000000000000000000000000000000000000000000000000000008152600401808060200182810382526026815260200180611f886026913960400191505060405180910390fd5b6112dc8561124d565b61134e576040517f08c379a000000000000000000000000000000000000000000000000000000000815260040180806020018281038252601d8152602001807f416464726573733a2063616c6c20746f206e6f6e2d636f6e747261637400000081525060200191505060405180910390fd5b6000808673ffffffffffffffffffffffffffffffffffffffff1685876040518082805190602001908083835b6020831061139d578051825260208201915060208101905060208303925061137a565b6001836020036101000a03801982511681845116808217855250505050505090500191505060006040518083038185875af1925050503d80600081146113ff576040519150601f19603f3d011682016040523d82523d6000602084013e611404565b606091505b5091509150611414828286611420565b92505050949350505050565b60608315611430578290506114e5565b6000835111156114435782518084602001fd5b816040517f08c379a00000000000000000000000000000000000000000000000000000000081526004018080602001828103825283818151815260200191508051906020019080838360005b838110156114aa57808201518184015260208101905061148f565b50505050905090810190601f1680156114d75780820380516001836020036101000a031916815260200191505b509250505060405180910390fd5b9392505050565b60006114ff6114fa84611d55565b611d24565b90508281526020810184848401111561151757600080fd5b611522848285611e7e565b509392505050565b600061153d61153884611d85565b611d24565b90508281526020810184848401111561155557600080fd5b611560848285611e8d565b509392505050565b60008135905061157781611ed3565b92915050565b60008151905061158c81611ed3565b92915050565b6000813590506115a181611eea565b92915050565b6000813590506115b681611f01565b92915050565b6000815190506115cb81611f01565b92915050565b600082601f8301126115e257600080fd5b81356115f28482602086016114ec565b91505092915050565b600082601f83011261160c57600080fd5b815161161c84826020860161152a565b91505092915050565b60008135905061163481611f18565b92915050565b60008151905061164981611f18565b92915050565b60006020828403121561166157600080fd5b600061166f84828501611568565b91505092915050565b60006020828403121561168a57600080fd5b60006116988482850161157d565b91505092915050565b600080604083850312156116b457600080fd5b60006116c285828601611568565b92505060206116d385828601611568565b9150509250929050565b6000806000606084860312156116f257600080fd5b600061170086828701611568565b935050602061171186828701611568565b925050604061172286828701611625565b9150509250925092565b6000806000806080858703121561174257600080fd5b600061175087828801611568565b945050602061176187828801611568565b935050604061177287828801611625565b925050606085013567ffffffffffffffff81111561178f57600080fd5b61179b878288016115d1565b91505092959194509250565b600080604083850312156117ba57600080fd5b60006117c885828601611568565b92505060206117d985828601611592565b9150509250929050565b600080604083850312156117f657600080fd5b600061180485828601611568565b925050602061181585828601611625565b9150509250929050565b60006020828403121561183157600080fd5b600061183f848285016115a7565b91505092915050565b60006020828403121561185a57600080fd5b6000611868848285016115bc565b91505092915050565b60006020828403121561188357600080fd5b600082015167ffffffffffffffff81111561189d57600080fd5b6118a9848285016115fb565b91505092915050565b6000602082840312156118c457600080fd5b60006118d284828501611625565b91505092915050565b6000602082840312156118ed57600080fd5b60006118fb8482850161163a565b91505092915050565b61190d81611e0a565b82525050565b61191c81611df8565b82525050565b61192b81611e1c565b82525050565b61193a81611e28565b82525050565b600061194b82611db5565b6119558185611dcb565b9350611965818560208601611e8d565b61196e81611ec2565b840191505092915050565b600061198482611db5565b61198e8185611ddc565b935061199e818560208601611e8d565b80840191505092915050565b60006119b582611dc0565b6119bf8185611de7565b93506119cf818560208601611e8d565b6119d881611ec2565b840191505092915050565b60006119f0603283611de7565b91507f4552433732313a207472616e7366657220746f206e6f6e20455243373231526560008301527f63656976657220696d706c656d656e74657200000000000000000000000000006020830152604082019050919050565b6000611a56602a83611de7565b91507f5375706552617265577261707065723a205472616e73666572206f6620746f6b60008301527f656e206661696c656421000000000000000000000000000000000000000000006020830152604082019050919050565b6000611abc602a83611de7565b91507f4552433732313a2062616c616e636520717565727920666f7220746865207a6560008301527f726f2061646472657373000000000000000000000000000000000000000000006020830152604082019050919050565b6000611b22603183611de7565b91507f4552433732313a207472616e736665722063616c6c6572206973206e6f74206f60008301527f776e6572206e6f7220617070726f7665640000000000000000000000000000006020830152604082019050919050565b611b8481611e74565b82525050565b6000611b968284611979565b915081905092915050565b6000602082019050611bb66000830184611913565b92915050565b6000608082019050611bd16000830187611904565b611bde6020830186611913565b611beb6040830185611b7b565b8181036060830152611bfd8184611940565b905095945050505050565b6000604082019050611c1d6000830185611913565b611c2a6020830184611b7b565b9392505050565b6000602082019050611c466000830184611922565b92915050565b6000602082019050611c616000830184611931565b92915050565b60006020820190508181036000830152611c8181846119aa565b905092915050565b60006020820190508181036000830152611ca2816119e3565b9050919050565b60006020820190508181036000830152611cc281611a49565b9050919050565b60006020820190508181036000830152611ce281611aaf565b9050919050565b60006020820190508181036000830152611d0281611b15565b9050919050565b6000602082019050611d1e6000830184611b7b565b92915050565b6000604051905081810181811067ffffffffffffffff82111715611d4b57611d4a611ec0565b5b8060405250919050565b600067ffffffffffffffff821115611d7057611d6f611ec0565b5b601f19601f8301169050602081019050919050565b600067ffffffffffffffff821115611da057611d9f611ec0565b5b601f19601f8301169050602081019050919050565b600081519050919050565b600081519050919050565b600082825260208201905092915050565b600081905092915050565b600082825260208201905092915050565b6000611e0382611e54565b9050919050565b6000611e1582611e54565b9050919050565b60008115159050919050565b60007fffffffff0000000000000000000000000000000000000000000000000000000082169050919050565b600073ffffffffffffffffffffffffffffffffffffffff82169050919050565b6000819050919050565b82818337600083830152505050565b60005b83811015611eab578082015181840152602081019050611e90565b83811115611eba576000848401525b50505050565bfe5b6000601f19601f8301169050919050565b611edc81611df8565b8114611ee757600080fd5b50565b611ef381611e1c565b8114611efe57600080fd5b50565b611f0a81611e28565b8114611f1557600080fd5b50565b611f2181611e74565b8114611f2c57600080fd5b5056fe4552433732313a207472616e7366657220746f206e6f6e20455243373231526563656976657220696d706c656d656e7465724f776e61626c653a206e6577206f776e657220697320746865207a65726f2061646472657373416464726573733a20696e73756666696369656e742062616c616e636520666f722063616c6ca26469706673582212208de45bd8d505a9b2a8593de96716d7eca976175b0cea16e6324c82e8aa0d829d64736f6c63430007060033",
  "linkReferences": {},
  "deployedLinkReferences": {}
}