{
  "_format": "hh-sol-artifact-1",
  "contractName": "Contract_ERC721",
  "sourceName": "contracts/Contract_ERC721.sol",
  "abi": [
    {
      "inputs": [
        {
          "internalType": "address",
          "name": "SupeRareV1Addr_",
          "type": "address"
        },
        {
          "internalType": "address",
          "name": "SupeRareV2Addr_",
          "type": "address"
        }
      ],
      "stateMutability": "nonpayable",
      "type": "constructor"
    },
    {
      "anonymous": false,
      "inputs": [
        {
          "indexed": true,
          "internalType": "address",
          "name": "owner",
          "type": "address"
        },
        {
          "indexed": true,
          "internalType": "address",
          "name": "approved",
          "type": "address"
        },
        {
          "indexed": true,
          "internalType": "uint256",
          "name": "tokenId",
          "type": "uint256"
        }
      ],
      "name": "Approval",
      "type": "event"
    },
    {
      "anonymous": false,
      "inputs": [
        {
          "indexed": true,
          "internalType": "address",
          "name": "owner",
          "type": "address"
        },
        {
          "indexed": true,
          "internalType": "address",
          "name": "operator",
          "type": "address"
        },
        {
          "indexed": false,
          "internalType": "bool",
          "name": "approved",
          "type": "bool"
        }
      ],
      "name": "ApprovalForAll",
      "type": "event"
    },
    {
      "anonymous": false,
      "inputs": [
        {
          "indexed": true,
          "internalType": "address",
          "name": "v1owner",
          "type": "address"
        },
        {
          "indexed": true,
          "internalType": "uint256",
          "name": "v2tokenId",
          "type": "uint256"
        }
      ],
      "name": "MintV2",
      "type": "event"
    },
    {
      "anonymous": false,
      "inputs": [
        {
          "indexed": true,
          "internalType": "address",
          "name": "previousOwner",
          "type": "address"
        },
        {
          "indexed": true,
          "internalType": "address",
          "name": "newOwner",
          "type": "address"
        }
      ],
      "name": "OwnershipTransferred",
      "type": "event"
    },
    {
      "anonymous": false,
      "inputs": [
        {
          "indexed": true,
          "internalType": "address",
          "name": "from",
          "type": "address"
        },
        {
          "indexed": true,
          "internalType": "address",
          "name": "to",
          "type": "address"
        },
        {
          "indexed": true,
          "internalType": "uint256",
          "name": "tokenId",
          "type": "uint256"
        }
      ],
      "name": "Transfer",
      "type": "event"
    },
    {
      "anonymous": false,
      "inputs": [
        {
          "indexed": true,
          "internalType": "address",
          "name": "account",
          "type": "address"
        },
        {
          "indexed": true,
          "internalType": "uint256",
          "name": "tokenId",
          "type": "uint256"
        }
      ],
      "name": "WithdrawV1",
      "type": "event"
    },
    {
      "anonymous": false,
      "inputs": [
        {
          "indexed": true,
          "internalType": "address",
          "name": "_from",
          "type": "address"
        },
        {
          "indexed": true,
          "internalType": "address",
          "name": "_to",
          "type": "address"
        },
        {
          "indexed": true,
          "internalType": "uint256",
          "name": "_tokenId",
          "type": "uint256"
        }
      ],
      "name": "transferredV1",
      "type": "event"
    },
    {
      "inputs": [
        {
          "internalType": "address",
          "name": "to",
          "type": "address"
        },
        {
          "internalType": "uint256",
          "name": "tokenId",
          "type": "uint256"
        }
      ],
      "name": "approve",
      "outputs": [],
      "stateMutability": "nonpayable",
      "type": "function"
    },
    {
      "inputs": [
        {
          "internalType": "address",
          "name": "owner",
          "type": "address"
        }
      ],
      "name": "balanceOf",
      "outputs": [
        {
          "internalType": "uint256",
          "name": "",
          "type": "uint256"
        }
      ],
      "stateMutability": "view",
      "type": "function"
    },
    {
      "inputs": [],
      "name": "baseURI",
      "outputs": [
        {
          "internalType": "string",
          "name": "",
          "type": "string"
        }
      ],
      "stateMutability": "view",
      "type": "function"
    },
    {
      "inputs": [
        {
          "internalType": "uint256",
          "name": "_tokenId",
          "type": "uint256"
        }
      ],
      "name": "checkV1Ownership",
      "outputs": [
        {
          "internalType": "bool",
          "name": "",
          "type": "bool"
        }
      ],
      "stateMutability": "view",
      "type": "function"
    },
    {
      "inputs": [
        {
          "internalType": "uint256",
          "name": "_tokenId",
          "type": "uint256"
        }
      ],
      "name": "checkV2Ownership",
      "outputs": [
        {
          "internalType": "bool",
          "name": "",
          "type": "bool"
        }
      ],
      "stateMutability": "view",
      "type": "function"
    },
    {
      "inputs": [
        {
          "internalType": "uint256",
          "name": "tokenId",
          "type": "uint256"
        }
      ],
      "name": "getApproved",
      "outputs": [
        {
          "internalType": "address",
          "name": "",
          "type": "address"
        }
      ],
      "stateMutability": "view",
      "type": "function"
    },
    {
      "inputs": [
        {
          "internalType": "uint256",
          "name": "_tokenId",
          "type": "uint256"
        }
      ],
      "name": "getWhiteListed",
      "outputs": [
        {
          "internalType": "bool",
          "name": "",
          "type": "bool"
        }
      ],
      "stateMutability": "nonpayable",
      "type": "function"
    },
    {
      "inputs": [
        {
          "internalType": "address",
          "name": "owner",
          "type": "address"
        },
        {
          "internalType": "address",
          "name": "operator",
          "type": "address"
        }
      ],
      "name": "isApprovedForAll",
      "outputs": [
        {
          "internalType": "bool",
          "name": "",
          "type": "bool"
        }
      ],
      "stateMutability": "view",
      "type": "function"
    },
    {
      "inputs": [
        {
          "internalType": "uint256",
          "name": "_tokenId",
          "type": "uint256"
        }
      ],
      "name": "mintV2",
      "outputs": [
        {
          "internalType": "bool",
          "name": "",
          "type": "bool"
        }
      ],
      "stateMutability": "nonpayable",
      "type": "function"
    },
    {
      "inputs": [],
      "name": "name",
      "outputs": [
        {
          "internalType": "string",
          "name": "",
          "type": "string"
        }
      ],
      "stateMutability": "view",
      "type": "function"
    },
    {
      "inputs": [
        {
          "internalType": "address",
          "name": "",
          "type": "address"
        },
        {
          "internalType": "address",
          "name": "",
          "type": "address"
        },
        {
          "internalType": "uint256",
          "name": "",
          "type": "uint256"
        },
        {
          "internalType": "bytes",
          "name": "",
          "type": "bytes"
        }
      ],
      "name": "onERC721Received",
      "outputs": [
        {
          "internalType": "bytes4",
          "name": "",
          "type": "bytes4"
        }
      ],
      "stateMutability": "pure",
      "type": "function"
    },
    {
      "inputs": [],
      "name": "owner",
      "outputs": [
        {
          "internalType": "address",
          "name": "",
          "type": "address"
        }
      ],
      "stateMutability": "view",
      "type": "function"
    },
    {
      "inputs": [
        {
          "internalType": "uint256",
          "name": "tokenId",
          "type": "uint256"
        }
      ],
      "name": "ownerOf",
      "outputs": [
        {
          "internalType": "address",
          "name": "",
          "type": "address"
        }
      ],
      "stateMutability": "view",
      "type": "function"
    },
    {
      "inputs": [],
      "name": "renounceOwnership",
      "outputs": [],
      "stateMutability": "nonpayable",
      "type": "function"
    },
    {
      "inputs": [
        {
          "internalType": "address",
          "name": "from",
          "type": "address"
        },
        {
          "internalType": "address",
          "name": "to",
          "type": "address"
        },
        {
          "internalType": "uint256",
          "name": "tokenId",
          "type": "uint256"
        }
      ],
      "name": "safeTransfer",
      "outputs": [],
      "stateMutability": "nonpayable",
      "type": "function"
    },
    {
      "inputs": [
        {
          "internalType": "address",
          "name": "from",
          "type": "address"
        },
        {
          "internalType": "address",
          "name": "to",
          "type": "address"
        },
        {
          "internalType": "uint256",
          "name": "tokenId",
          "type": "uint256"
        }
      ],
      "name": "safeTransferFrom",
      "outputs": [],
      "stateMutability": "nonpayable",
      "type": "function"
    },
    {
      "inputs": [
        {
          "internalType": "address",
          "name": "from",
          "type": "address"
        },
        {
          "internalType": "address",
          "name": "to",
          "type": "address"
        },
        {
          "internalType": "uint256",
          "name": "tokenId",
          "type": "uint256"
        },
        {
          "internalType": "bytes",
          "name": "_data",
          "type": "bytes"
        }
      ],
      "name": "safeTransferFrom",
      "outputs": [],
      "stateMutability": "nonpayable",
      "type": "function"
    },
    {
      "inputs": [
        {
          "internalType": "address",
          "name": "operator",
          "type": "address"
        },
        {
          "internalType": "bool",
          "name": "approved",
          "type": "bool"
        }
      ],
      "name": "setApprovalForAll",
      "outputs": [],
      "stateMutability": "nonpayable",
      "type": "function"
    },
    {
      "inputs": [
        {
          "internalType": "bytes4",
          "name": "interfaceId",
          "type": "bytes4"
        }
      ],
      "name": "supportsInterface",
      "outputs": [
        {
          "internalType": "bool",
          "name": "",
          "type": "bool"
        }
      ],
      "stateMutability": "view",
      "type": "function"
    },
    {
      "inputs": [],
      "name": "symbol",
      "outputs": [
        {
          "internalType": "string",
          "name": "",
          "type": "string"
        }
      ],
      "stateMutability": "view",
      "type": "function"
    },
    {
      "inputs": [
        {
          "internalType": "uint256",
          "name": "index",
          "type": "uint256"
        }
      ],
      "name": "tokenByIndex",
      "outputs": [
        {
          "internalType": "uint256",
          "name": "",
          "type": "uint256"
        }
      ],
      "stateMutability": "view",
      "type": "function"
    },
    {
      "inputs": [
        {
          "internalType": "address",
          "name": "owner",
          "type": "address"
        },
        {
          "internalType": "uint256",
          "name": "index",
          "type": "uint256"
        }
      ],
      "name": "tokenOfOwnerByIndex",
      "outputs": [
        {
          "internalType": "uint256",
          "name": "",
          "type": "uint256"
        }
      ],
      "stateMutability": "view",
      "type": "function"
    },
    {
      "inputs": [
        {
          "internalType": "uint256",
          "name": "tokenId",
          "type": "uint256"
        }
      ],
      "name": "tokenURI",
      "outputs": [
        {
          "internalType": "string",
          "name": "",
          "type": "string"
        }
      ],
      "stateMutability": "view",
      "type": "function"
    },
    {
      "inputs": [],
      "name": "totalSupply",
      "outputs": [
        {
          "internalType": "uint256",
          "name": "",
          "type": "uint256"
        }
      ],
      "stateMutability": "view",
      "type": "function"
    },
    {
      "inputs": [
        {
          "internalType": "address",
          "name": "from",
          "type": "address"
        },
        {
          "internalType": "address",
          "name": "to",
          "type": "address"
        },
        {
          "internalType": "uint256",
          "name": "tokenId",
          "type": "uint256"
        }
      ],
      "name": "transferFrom",
      "outputs": [],
      "stateMutability": "nonpayable",
      "type": "function"
    },
    {
      "inputs": [
        {
          "internalType": "address",
          "name": "newOwner",
          "type": "address"
        }
      ],
      "name": "transferOwnership",
      "outputs": [],
      "stateMutability": "nonpayable",
      "type": "function"
    },
    {
      "inputs": [
        {
          "internalType": "address",
          "name": "_to",
          "type": "address"
        },
        {
          "internalType": "uint256",
          "name": "_tokenId",
          "type": "uint256"
        }
      ],
      "name": "transferV1",
      "outputs": [
        {
          "internalType": "bool",
          "name": "",
          "type": "bool"
        }
      ],
      "stateMutability": "nonpayable",
      "type": "function"
    },
    {
      "inputs": [
        {
          "internalType": "uint256",
          "name": "_tokenId",
          "type": "uint256"
        }
      ],
      "name": "withdrawV1",
      "outputs": [
        {
          "internalType": "bool",
          "name": "",
          "type": "bool"
        }
      ],
      "stateMutability": "nonpayable",
      "type": "function"
    }
  ],
  "bytecode": "0x60806040526040518060400160405280600f81526020017f436f6e7472616374204552433732310000000000000000000000000000000000815250600b90805190602001906200005192919062000750565b506040518060400160405280600781526020017f4345524337323100000000000000000000000000000000000000000000000000815250600c90805190602001906200009f92919062000750565b50348015620000ad57600080fd5b50604051620045c1380380620045c183398181016040526040811015620000d357600080fd5b810190808051906020019092919080519060200190929190505050600b8054600181600116156101000203166002900480601f016020809104026020016040519081016040528092919081815260200182805460018160011615610100020316600290048015620001885780601f106200015c5761010080835404028352916020019162000188565b820191906000526020600020905b8154815290600101906020018083116200016a57829003601f168201915b5050505050600c8054600181600116156101000203166002900480601f016020809104026020016040519081016040528092919081815260200182805460018160011615610100020316600290048015620002275780601f10620001fb5761010080835404028352916020019162000227565b820191906000526020600020905b8154815290600101906020018083116200020957829003601f168201915b505050505060006200023e6200063c60201b60201c565b9050806000806101000a81548173ffffffffffffffffffffffffffffffffffffffff021916908373ffffffffffffffffffffffffffffffffffffffff1602179055508073ffffffffffffffffffffffffffffffffffffffff16600073ffffffffffffffffffffffffffffffffffffffff167f8be0079c531659141344cd1fd0a4f28419497f9722a3daafe3b4186f6b6457e060405160405180910390a350620002f46301ffc9a760e01b6200064460201b60201c565b81600790805190602001906200030c92919062000750565b5080600890805190602001906200032592919062000750565b506200033e6380ac58cd60e01b6200064460201b60201c565b62000356635b5e139f60e01b6200064460201b60201c565b6200036e63780e9d6360e01b6200064460201b60201c565b50506200038c67d63d686c199c471a60c01b6200074d60201b60201c565b620003a867e964f3052a39809c60c01b6200074d60201b60201c565b81600e60006101000a81548173ffffffffffffffffffffffffffffffffffffffff021916908373ffffffffffffffffffffffffffffffffffffffff1602179055506200040567b7370cb209fc3eea60c01b6200074d60201b60201c565b80600d60006101000a81548173ffffffffffffffffffffffffffffffffffffffff021916908373ffffffffffffffffffffffffffffffffffffffff16021790555062000462676703b8a85f7c4c5060c01b6200074d60201b60201c565b600e60009054906101000a900473ffffffffffffffffffffffffffffffffffffffff16600f60006101000a81548173ffffffffffffffffffffffffffffffffffffffff021916908373ffffffffffffffffffffffffffffffffffffffff160217905550620004e1675e9e1ce6aa5f456160c01b6200074d60201b60201c565b600d60009054906101000a900473ffffffffffffffffffffffffffffffffffffffff16601060006101000a81548173ffffffffffffffffffffffffffffffffffffffff021916908373ffffffffffffffffffffffffffffffffffffffff160217905550620005606793c3ede0fe2cd3ee60c01b6200074d60201b60201c565b6200057c6733400fc189d420e660c01b6200074d60201b60201c565b620005946380ac58cd60e01b6200064460201b60201c565b620005b06783ebf1207a6d921b60c01b6200074d60201b60201c565b620005cc676023cfcb21a40ab760c01b6200074d60201b60201c565b620005e4635b5e139f60e01b6200064460201b60201c565b6200060067aa56f7d5aed167d760c01b6200074d60201b60201c565b6200061c6755bf4dbe548bd8c360c01b6200074d60201b60201c565b6200063463780e9d6360e01b6200064460201b60201c565b505062000806565b600033905090565b63ffffffff60e01b817bffffffffffffffffffffffffffffffffffffffffffffffffffffffff19161415620006e1576040517f08c379a000000000000000000000000000000000000000000000000000000000815260040180806020018281038252601c8152602001807f4552433136353a20696e76616c696420696e746572666163652069640000000081525060200191505060405180910390fd5b6001806000837bffffffffffffffffffffffffffffffffffffffffffffffffffffffff19167bffffffffffffffffffffffffffffffffffffffffffffffffffffffff1916815260200190815260200160002060006101000a81548160ff02191690831515021790555050565b50565b828054600181600116156101000203166002900490600052602060002090601f016020900481019282620007885760008555620007d4565b82601f10620007a357805160ff1916838001178555620007d4565b82800160010185558215620007d4579182015b82811115620007d3578251825591602001919060010190620007b6565b5b509050620007e39190620007e7565b5090565b5b8082111562000802576000816000905550600101620007e8565b5090565b613dab80620008166000396000f3fe608060405234801561001057600080fd5b50600436106101c45760003560e01c80636de99891116100f9578063a22cb46511610097578063c87b56dd11610071578063c87b56dd14610aea578063d1660f9914610b91578063e985e9c514610bff578063f2fde38b14610c79576101c4565b8063a22cb46514610951578063b88d4fde146109a1578063c01ed11e14610aa6576101c4565b806387d45d01116100d357806387d45d01146108125780638da5cb5b146108565780639484cac41461088a57806395d89b41146108ce576101c4565b80636de998911461076c57806370a08231146107b0578063715018a614610808576101c4565b806323b872dd116101665780634f6ccce7116101405780634f6ccce7146105eb578063565e7e661461062d5780636352211e146106915780636c0360eb146106e9576101c4565b806323b872dd146104ad5780632f745c591461051b57806342842e0e1461057d576101c4565b8063095ea7b3116101a2578063095ea7b314610307578063150b7a021461035557806318160ddd1461044b57806322d72cf914610469576101c4565b806301ffc9a7146101c957806306fdde031461022c578063081812fc146102af575b600080fd5b610214600480360360208110156101df57600080fd5b8101908080357bffffffffffffffffffffffffffffffffffffffffffffffffffffffff19169060200190929190505050610cbd565b60405180821515815260200191505060405180910390f35b610234610d25565b6040518080602001828103825283818151815260200191508051906020019080838360005b83811015610274578082015181840152602081019050610259565b50505050905090810190601f1680156102a15780820380516001836020036101000a031916815260200191505b509250505060405180910390f35b6102db600480360360208110156102c557600080fd5b8101908080359060200190929190505050610e03565b604051808273ffffffffffffffffffffffffffffffffffffffff16815260200191505060405180910390f35b6103536004803603604081101561031d57600080fd5b81019080803573ffffffffffffffffffffffffffffffffffffffff16906020019092919080359060200190929190505050610e9e565b005b6104166004803603608081101561036b57600080fd5b81019080803573ffffffffffffffffffffffffffffffffffffffff169060200190929190803573ffffffffffffffffffffffffffffffffffffffff16906020019092919080359060200190929190803590602001906401000000008111156103d257600080fd5b8201836020820111156103e457600080fd5b8035906020019184600183028401116401000000008311171561040657600080fd5b9091929391929390505050610fe2565b60405180827bffffffffffffffffffffffffffffffffffffffffffffffffffffffff1916815260200191505060405180910390f35b610453611033565b6040518082815260200191505060405180910390f35b6104956004803603602081101561047f57600080fd5b8101908080359060200190929190505050611044565b60405180821515815260200191505060405180910390f35b610519600480360360608110156104c357600080fd5b81019080803573ffffffffffffffffffffffffffffffffffffffff169060200190929190803573ffffffffffffffffffffffffffffffffffffffff169060200190929190803590602001909291905050506112e9565b005b6105676004803603604081101561053157600080fd5b81019080803573ffffffffffffffffffffffffffffffffffffffff1690602001909291908035906020019092919050505061135f565b6040518082815260200191505060405180910390f35b6105e96004803603606081101561059357600080fd5b81019080803573ffffffffffffffffffffffffffffffffffffffff169060200190929190803573ffffffffffffffffffffffffffffffffffffffff169060200190929190803590602001909291905050506113ba565b005b6106176004803603602081101561060157600080fd5b81019080803590602001909291905050506113da565b6040518082815260200191505060405180910390f35b6106796004803603604081101561064357600080fd5b81019080803573ffffffffffffffffffffffffffffffffffffffff169060200190929190803590602001909291905050506113fd565b60405180821515815260200191505060405180910390f35b6106bd600480360360208110156106a757600080fd5b81019080803590602001909291905050506117b7565b604051808273ffffffffffffffffffffffffffffffffffffffff16815260200191505060405180910390f35b6106f16117ee565b6040518080602001828103825283818151815260200191508051906020019080838360005b83811015610731578082015181840152602081019050610716565b50505050905090810190601f16801561075e5780820380516001836020036101000a031916815260200191505b509250505060405180910390f35b6107986004803603602081101561078257600080fd5b8101908080359060200190929190505050611890565b60405180821515815260200191505060405180910390f35b6107f2600480360360208110156107c657600080fd5b81019080803573ffffffffffffffffffffffffffffffffffffffff1690602001909291905050506119b1565b6040518082815260200191505060405180910390f35b610810611a86565b005b61083e6004803603602081101561082857600080fd5b8101908080359060200190929190505050611bf3565b60405180821515815260200191505060405180910390f35b61085e611e56565b604051808273ffffffffffffffffffffffffffffffffffffffff16815260200191505060405180910390f35b6108b6600480360360208110156108a057600080fd5b8101908080359060200190929190505050611e7f565b60405180821515815260200191505060405180910390f35b6108d66120e2565b6040518080602001828103825283818151815260200191508051906020019080838360005b838110156109165780820151818401526020810190506108fb565b50505050905090810190601f1680156109435780820380516001836020036101000a031916815260200191505b509250505060405180910390f35b61099f6004803603604081101561096757600080fd5b81019080803573ffffffffffffffffffffffffffffffffffffffff1690602001909291908035151590602001909291905050506121c0565b005b610aa4600480360360808110156109b757600080fd5b81019080803573ffffffffffffffffffffffffffffffffffffffff169060200190929190803573ffffffffffffffffffffffffffffffffffffffff1690602001909291908035906020019092919080359060200190640100000000811115610a1e57600080fd5b820183602082011115610a3057600080fd5b80359060200191846001830284011164010000000083111715610a5257600080fd5b91908080601f016020809104026020016040519081016040528093929190818152602001838380828437600081840152601f19601f820116905080830192505050505050509192919290505050612376565b005b610ad260048036036020811015610abc57600080fd5b81019080803590602001909291905050506123ee565b60405180821515815260200191505060405180910390f35b610b1660048036036020811015610b0057600080fd5b810190808035906020019092919050505061250f565b6040518080602001828103825283818151815260200191508051906020019080838360005b83811015610b56578082015181840152602081019050610b3b565b50505050905090810190601f168015610b835780820380516001836020036101000a031916815260200191505b509250505060405180910390f35b610bfd60048036036060811015610ba757600080fd5b81019080803573ffffffffffffffffffffffffffffffffffffffff169060200190929190803573ffffffffffffffffffffffffffffffffffffffff169060200190929190803590602001909291905050506127e0565b005b610c6160048036036040811015610c1557600080fd5b81019080803573ffffffffffffffffffffffffffffffffffffffff169060200190929190803573ffffffffffffffffffffffffffffffffffffffff169060200190929190505050612800565b60405180821515815260200191505060405180910390f35b610cbb60048036036020811015610c8f57600080fd5b81019080803573ffffffffffffffffffffffffffffffffffffffff169060200190929190505050612894565b005b600060016000837bffffffffffffffffffffffffffffffffffffffffffffffffffffffff19167bffffffffffffffffffffffffffffffffffffffffffffffffffffffff1916815260200190815260200160002060009054906101000a900460ff169050919050565b6060610d3b6710a8bb5bfb84b08660c01b612a86565b610d4f673f838742014c18c560c01b612a86565b610d6367c5262e3c2337523a60c01b612a86565b600b8054600181600116156101000203166002900480601f016020809104026020016040519081016040528092919081815260200182805460018160011615610100020316600290048015610df95780601f10610dce57610100808354040283529160200191610df9565b820191906000526020600020905b815481529060010190602001808311610ddc57829003601f168201915b5050505050905090565b6000610e0e82612a89565b610e63576040517f08c379a000000000000000000000000000000000000000000000000000000000815260040180806020018281038252602c815260200180613c7d602c913960400191505060405180910390fd5b6005600083815260200190815260200160002060009054906101000a900473ffffffffffffffffffffffffffffffffffffffff169050919050565b6000610ea9826117b7565b90508073ffffffffffffffffffffffffffffffffffffffff168373ffffffffffffffffffffffffffffffffffffffff161415610f30576040517f08c379a0000000000000000000000000000000000000000000000000000000008152600401808060200182810382526021815260200180613d016021913960400191505060405180910390fd5b8073ffffffffffffffffffffffffffffffffffffffff16610f4f612aa6565b73ffffffffffffffffffffffffffffffffffffffff161480610f7e5750610f7d81610f78612aa6565b612800565b5b610fd3576040517f08c379a0000000000000000000000000000000000000000000000000000000008152600401808060200182810382526038815260200180613bd06038913960400191505060405180910390fd5b610fdd8383612aae565b505050565b6000610ff8678a40ceba535d7d4460c01b612a86565b61100c67aa5b6b263011562460c01b612a86565b6110206704c8b90170c757a560c01b612a86565b63150b7a0260e01b905095945050505050565b600061103f6003612b67565b905090565b600061105a6779c0f8ed255aa8aa60c01b612a86565b611062612aa6565b73ffffffffffffffffffffffffffffffffffffffff16611080611e56565b73ffffffffffffffffffffffffffffffffffffffff1614611109576040517f08c379a00000000000000000000000000000000000000000000000000000000081526004018080602001828103825260208152602001807f4f776e61626c653a2063616c6c6572206973206e6f7420746865206f776e657281525060200191505060405180910390fd5b61111d6703773d4ef5df270f60c01b612a86565b61113167a665d0db1d752b2960c01b612a86565b61114567f82fdebba979512a60c01b612a86565b61115967ccbef23ddff5881760c01b612a86565b601060009054906101000a900473ffffffffffffffffffffffffffffffffffffffff1673ffffffffffffffffffffffffffffffffffffffff1663fcb217b5836040518263ffffffff1660e01b815260040180828152602001915050602060405180830381600087803b1580156111ce57600080fd5b505af11580156111e2573d6000803e3d6000fd5b505050506040513d60208110156111f857600080fd5b81019080805190602001909291905050505061121e677eeef06d1e53f8f560c01b612a86565b61123267b50c06ab2f5ecb1560c01b612a86565b601060009054906101000a900473ffffffffffffffffffffffffffffffffffffffff1673ffffffffffffffffffffffffffffffffffffffff1663751b02c2836040518263ffffffff1660e01b815260040180828152602001915050602060405180830381600087803b1580156112a757600080fd5b505af11580156112bb573d6000803e3d6000fd5b505050506040513d60208110156112d157600080fd5b81019080805190602001909291905050509050919050565b6112fa6112f4612aa6565b82612b7c565b61134f576040517f08c379a0000000000000000000000000000000000000000000000000000000008152600401808060200182810382526031815260200180613d226031913960400191505060405180910390fd5b61135a838383612c70565b505050565b60006113b282600260008673ffffffffffffffffffffffffffffffffffffffff1673ffffffffffffffffffffffffffffffffffffffff168152602001908152602001600020612eb390919063ffffffff16565b905092915050565b6113d583838360405180602001604052806000815250612376565b505050565b6000806113f1836003612ecd90919063ffffffff16565b50905080915050919050565b600061141367a0548be5ae153aa560c01b612a86565b61141b612aa6565b73ffffffffffffffffffffffffffffffffffffffff16611439611e56565b73ffffffffffffffffffffffffffffffffffffffff16146114c2576040517f08c379a00000000000000000000000000000000000000000000000000000000081526004018080602001828103825260208152602001807f4f776e61626c653a2063616c6c6572206973206e6f7420746865206f776e657281525060200191505060405180910390fd5b6114d667e984eff71847b22560c01b612a86565b6114ea672011a72047305b5860c01b612a86565b6114fe676a8a62a0859424bb60c01b612a86565b6115126726c5ea3fde084bc360c01b612a86565b611526670bd3aca50d67214860c01b612a86565b600073ffffffffffffffffffffffffffffffffffffffff168373ffffffffffffffffffffffffffffffffffffffff161415801561157357506115726734062c30e714cda360c01b612ef9565b5b806115c657503073ffffffffffffffffffffffffffffffffffffffff168373ffffffffffffffffffffffffffffffffffffffff16141580156115c557506115c4674dabcf0a004e606560c01b612ef9565b5b5b61161b576040517f08c379a0000000000000000000000000000000000000000000000000000000008152600401808060200182810382526023815260200180613d536023913960400191505060405180910390fd5b61162f67ee8da00858d4588760c01b612a86565b61164367512cc8779d2ea90e60c01b612a86565b61165767b6be891114816f9660c01b612a86565b600f60009054906101000a900473ffffffffffffffffffffffffffffffffffffffff1673ffffffffffffffffffffffffffffffffffffffff1663a9059cbb84846040518363ffffffff1660e01b8152600401808373ffffffffffffffffffffffffffffffffffffffff16815260200182815260200192505050600060405180830381600087803b1580156116ea57600080fd5b505af11580156116fe573d6000803e3d6000fd5b5050505061171667a0e3bd192b386a3b60c01b612a86565b61172a67cce3a688f6bce14860c01b612a86565b818373ffffffffffffffffffffffffffffffffffffffff163073ffffffffffffffffffffffffffffffffffffffff167ff65151e33397e8e2a4cc22dfcb4552b68b79961a9532f7db3ee21a4786bea2ea60405160405180910390a461179967d9a7bf824652011660c01b612a86565b6117ad67b1e13f72cfe700dd60c01b612a86565b6001905092915050565b60006117e782604051806060016040528060298152602001613c32602991396003612f049092919063ffffffff16565b9050919050565b6060600a8054600181600116156101000203166002900480601f0160208091040260200160405190810160405280929190818152602001828054600181600116156101000203166002900480156118865780601f1061185b57610100808354040283529160200191611886565b820191906000526020600020905b81548152906001019060200180831161186957829003601f168201915b5050505050905090565b60006118a66708462441e884a8c960c01b612a86565b6118ba6779d0f9ddda96b75560c01b612a86565b6118ce67ee469aad4274db2960c01b612a86565b3073ffffffffffffffffffffffffffffffffffffffff16600d60009054906101000a900473ffffffffffffffffffffffffffffffffffffffff1673ffffffffffffffffffffffffffffffffffffffff16636352211e846040518263ffffffff1660e01b81526004018082815260200191505060206040518083038186803b15801561195857600080fd5b505afa15801561196c573d6000803e3d6000fd5b505050506040513d602081101561198257600080fd5b810190808051906020019092919050505073ffffffffffffffffffffffffffffffffffffffff16149050919050565b60008073ffffffffffffffffffffffffffffffffffffffff168273ffffffffffffffffffffffffffffffffffffffff161415611a38576040517f08c379a000000000000000000000000000000000000000000000000000000000815260040180806020018281038252602a815260200180613c08602a913960400191505060405180910390fd5b611a7f600260008473ffffffffffffffffffffffffffffffffffffffff1673ffffffffffffffffffffffffffffffffffffffff168152602001908152602001600020612f23565b9050919050565b611a8e612aa6565b73ffffffffffffffffffffffffffffffffffffffff16611aac611e56565b73ffffffffffffffffffffffffffffffffffffffff1614611b35576040517f08c379a00000000000000000000000000000000000000000000000000000000081526004018080602001828103825260208152602001807f4f776e61626c653a2063616c6c6572206973206e6f7420746865206f776e657281525060200191505060405180910390fd5b600073ffffffffffffffffffffffffffffffffffffffff1660008054906101000a900473ffffffffffffffffffffffffffffffffffffffff1673ffffffffffffffffffffffffffffffffffffffff167f8be0079c531659141344cd1fd0a4f28419497f9722a3daafe3b4186f6b6457e060405160405180910390a360008060006101000a81548173ffffffffffffffffffffffffffffffffffffffff021916908373ffffffffffffffffffffffffffffffffffffffff160217905550565b6000611c0967ca450a886c8b54e260c01b612a86565b611c11612aa6565b73ffffffffffffffffffffffffffffffffffffffff16611c2f611e56565b73ffffffffffffffffffffffffffffffffffffffff1614611cb8576040517f08c379a00000000000000000000000000000000000000000000000000000000081526004018080602001828103825260208152602001807f4f776e61626c653a2063616c6c6572206973206e6f7420746865206f776e657281525060200191505060405180910390fd5b611ccc674d978226ec3366bc60c01b612a86565b611ce067464eac34e630049060c01b612a86565b611cf46781263ab619bd899260c01b612a86565b611d0867533139fae4c5e69e60c01b612a86565b601060009054906101000a900473ffffffffffffffffffffffffffffffffffffffff1673ffffffffffffffffffffffffffffffffffffffff166387d45d01836040518263ffffffff1660e01b815260040180828152602001915050602060405180830381600087803b158015611d7d57600080fd5b505af1158015611d91573d6000803e3d6000fd5b505050506040513d6020811015611da757600080fd5b810190808051906020019092919050505050611dcd67217f6bc2187cdb8b60c01b612a86565b611de1677970c742e8f672b160c01b612a86565b813073ffffffffffffffffffffffffffffffffffffffff167f3c739b6a95f75f9e762038efa06f6758bbab40ef0b17f9f07cd3476eeac984e460405160405180910390a3611e39674d7dadf463c3cdf560c01b612a86565b611e4d67653df049248d4da560c01b612a86565b60019050919050565b60008060009054906101000a900473ffffffffffffffffffffffffffffffffffffffff16905090565b6000611e95679a01958f0b2f24fe60c01b612a86565b611e9d612aa6565b73ffffffffffffffffffffffffffffffffffffffff16611ebb611e56565b73ffffffffffffffffffffffffffffffffffffffff1614611f44576040517f08c379a00000000000000000000000000000000000000000000000000000000081526004018080602001828103825260208152602001807f4f776e61626c653a2063616c6c6572206973206e6f7420746865206f776e657281525060200191505060405180910390fd5b611f58673789ffe9eb3ba08460c01b612a86565b611f6c6735c48db7d6cd836760c01b612a86565b611f8067776bad2e9a0c386660c01b612a86565b611f9467cd5f7937f0ed008960c01b612a86565b601060009054906101000a900473ffffffffffffffffffffffffffffffffffffffff1673ffffffffffffffffffffffffffffffffffffffff16632e1a7d4d836040518263ffffffff1660e01b815260040180828152602001915050602060405180830381600087803b15801561200957600080fd5b505af115801561201d573d6000803e3d6000fd5b505050506040513d602081101561203357600080fd5b8101908080519060200190929190505050506120596702fd9119233bed8760c01b612a86565b61206d6738eb43db4e6a6a4e60c01b612a86565b813073ffffffffffffffffffffffffffffffffffffffff167f137405ae38c6e13c1dae5b6f5d4eb90010220c7c552dcaccc7b9c038c0177af860405160405180910390a36120c567d0bd696ff69da38860c01b612a86565b6120d9679e3875c32ed32b0b60c01b612a86565b60019050919050565b60606120f8676eee679b7708d2b360c01b612a86565b61210c6786080ad0c0b73d7460c01b612a86565b61212067a1381926c2beb3d560c01b612a86565b600c8054600181600116156101000203166002900480601f0160208091040260200160405190810160405280929190818152602001828054600181600116156101000203166002900480156121b65780601f1061218b576101008083540402835291602001916121b6565b820191906000526020600020905b81548152906001019060200180831161219957829003601f168201915b5050505050905090565b6121c8612aa6565b73ffffffffffffffffffffffffffffffffffffffff168273ffffffffffffffffffffffffffffffffffffffff161415612269576040517f08c379a00000000000000000000000000000000000000000000000000000000081526004018080602001828103825260198152602001807f4552433732313a20617070726f766520746f2063616c6c65720000000000000081525060200191505060405180910390fd5b8060066000612276612aa6565b73ffffffffffffffffffffffffffffffffffffffff1673ffffffffffffffffffffffffffffffffffffffff16815260200190815260200160002060008473ffffffffffffffffffffffffffffffffffffffff1673ffffffffffffffffffffffffffffffffffffffff16815260200190815260200160002060006101000a81548160ff0219169083151502179055508173ffffffffffffffffffffffffffffffffffffffff16612323612aa6565b73ffffffffffffffffffffffffffffffffffffffff167f17307eab39ab6107e8899845ad3d59bd9653f200f220920489ca2b5937696c318360405180821515815260200191505060405180910390a35050565b612387612381612aa6565b83612b7c565b6123dc576040517f08c379a0000000000000000000000000000000000000000000000000000000008152600401808060200182810382526031815260200180613d226031913960400191505060405180910390fd5b6123e884848484612f38565b50505050565b600061240467c17bdd2e1ea7562060c01b612a86565b61241867e28d93894574239f60c01b612a86565b61242c674fdc79acfb035df160c01b612a86565b3073ffffffffffffffffffffffffffffffffffffffff16600e60009054906101000a900473ffffffffffffffffffffffffffffffffffffffff1673ffffffffffffffffffffffffffffffffffffffff16636352211e846040518263ffffffff1660e01b81526004018082815260200191505060206040518083038186803b1580156124b657600080fd5b505afa1580156124ca573d6000803e3d6000fd5b505050506040513d60208110156124e057600080fd5b810190808051906020019092919050505073ffffffffffffffffffffffffffffffffffffffff16149050919050565b606061251a82612a89565b61256f576040517f08c379a000000000000000000000000000000000000000000000000000000000815260040180806020018281038252602f815260200180613cd2602f913960400191505060405180910390fd5b6000600960008481526020019081526020016000208054600181600116156101000203166002900480601f0160208091040260200160405190810160405280929190818152602001828054600181600116156101000203166002900480156126185780601f106125ed57610100808354040283529160200191612618565b820191906000526020600020905b8154815290600101906020018083116125fb57829003601f168201915b5050505050905060006126296117ee565b905060008151141561263f5781925050506127db565b6000825111156127105780826040516020018083805190602001908083835b60208310612681578051825260208201915060208101905060208303925061265e565b6001836020036101000a03801982511681845116808217855250505050505090500182805190602001908083835b602083106126d257805182526020820191506020810190506020830392506126af565b6001836020036101000a03801982511681845116808217855250505050505090500192505050604051602081830303815290604052925050506127db565b8061271a85612faa565b6040516020018083805190602001908083835b60208310612750578051825260208201915060208101905060208303925061272d565b6001836020036101000a03801982511681845116808217855250505050505090500182805190602001908083835b602083106127a1578051825260208201915060208101905060208303925061277e565b6001836020036101000a03801982511681845116808217855250505050505090500192505050604051602081830303815290604052925050505b919050565b6127fb83838360405180602001604052806000815250612376565b505050565b6000600660008473ffffffffffffffffffffffffffffffffffffffff1673ffffffffffffffffffffffffffffffffffffffff16815260200190815260200160002060008373ffffffffffffffffffffffffffffffffffffffff1673ffffffffffffffffffffffffffffffffffffffff16815260200190815260200160002060009054906101000a900460ff16905092915050565b61289c612aa6565b73ffffffffffffffffffffffffffffffffffffffff166128ba611e56565b73ffffffffffffffffffffffffffffffffffffffff1614612943576040517f08c379a00000000000000000000000000000000000000000000000000000000081526004018080602001828103825260208152602001807f4f776e61626c653a2063616c6c6572206973206e6f7420746865206f776e657281525060200191505060405180910390fd5b600073ffffffffffffffffffffffffffffffffffffffff168173ffffffffffffffffffffffffffffffffffffffff1614156129c9576040517f08c379a0000000000000000000000000000000000000000000000000000000008152600401808060200182810382526026815260200180613b346026913960400191505060405180910390fd5b8073ffffffffffffffffffffffffffffffffffffffff1660008054906101000a900473ffffffffffffffffffffffffffffffffffffffff1673ffffffffffffffffffffffffffffffffffffffff167f8be0079c531659141344cd1fd0a4f28419497f9722a3daafe3b4186f6b6457e060405160405180910390a3806000806101000a81548173ffffffffffffffffffffffffffffffffffffffff021916908373ffffffffffffffffffffffffffffffffffffffff16021790555050565b50565b6000612a9f8260036130f190919063ffffffff16565b9050919050565b600033905090565b816005600083815260200190815260200160002060006101000a81548173ffffffffffffffffffffffffffffffffffffffff021916908373ffffffffffffffffffffffffffffffffffffffff160217905550808273ffffffffffffffffffffffffffffffffffffffff16612b21836117b7565b73ffffffffffffffffffffffffffffffffffffffff167f8c5be1e5ebec7d5bd14f71427d1e84f3dd0314c0f7b2291e5b200ac8c7c3b92560405160405180910390a45050565b6000612b758260000161310b565b9050919050565b6000612b8782612a89565b612bdc576040517f08c379a000000000000000000000000000000000000000000000000000000000815260040180806020018281038252602c815260200180613ba4602c913960400191505060405180910390fd5b6000612be7836117b7565b90508073ffffffffffffffffffffffffffffffffffffffff168473ffffffffffffffffffffffffffffffffffffffff161480612c5657508373ffffffffffffffffffffffffffffffffffffffff16612c3e84610e03565b73ffffffffffffffffffffffffffffffffffffffff16145b80612c675750612c668185612800565b5b91505092915050565b8273ffffffffffffffffffffffffffffffffffffffff16612c90826117b7565b73ffffffffffffffffffffffffffffffffffffffff1614612cfc576040517f08c379a0000000000000000000000000000000000000000000000000000000008152600401808060200182810382526029815260200180613ca96029913960400191505060405180910390fd5b600073ffffffffffffffffffffffffffffffffffffffff168273ffffffffffffffffffffffffffffffffffffffff161415612d82576040517f08c379a0000000000000000000000000000000000000000000000000000000008152600401808060200182810382526024815260200180613b5a6024913960400191505060405180910390fd5b612d8d83838361311c565b612d98600082612aae565b612de981600260008673ffffffffffffffffffffffffffffffffffffffff1673ffffffffffffffffffffffffffffffffffffffff16815260200190815260200160002061312190919063ffffffff16565b50612e3b81600260008573ffffffffffffffffffffffffffffffffffffffff1673ffffffffffffffffffffffffffffffffffffffff16815260200190815260200160002061313b90919063ffffffff16565b50612e52818360036131559092919063ffffffff16565b50808273ffffffffffffffffffffffffffffffffffffffff168473ffffffffffffffffffffffffffffffffffffffff167fddf252ad1be2c89b69c2b068fc378daa952ba7f163c4a11628f55a4df523b3ef60405160405180910390a4505050565b6000612ec2836000018361318a565b60001c905092915050565b600080600080612ee0866000018661320d565b915091508160001c8160001c9350935050509250929050565b600060019050919050565b6000612f17846000018460001b846132a6565b60001c90509392505050565b6000612f318260000161339c565b9050919050565b612f43848484612c70565b612f4f848484846133ad565b612fa4576040517f08c379a0000000000000000000000000000000000000000000000000000000008152600401808060200182810382526032815260200180613b026032913960400191505060405180910390fd5b50505050565b60606000821415612ff2576040518060400160405280600181526020017f300000000000000000000000000000000000000000000000000000000000000081525090506130ec565b600082905060005b6000821461301c578080600101915050600a828161301457fe5b049150612ffa565b60008167ffffffffffffffff8111801561303557600080fd5b506040519080825280601f01601f1916602001820160405280156130685781602001600182028036833780820191505090505b50905060006001830390508593505b600084146130e457600a848161308957fe5b0660300160f81b828280600190039350815181106130a357fe5b60200101907effffffffffffffffffffffffffffffffffffffffffffffffffffffffffffff1916908160001a905350600a84816130dc57fe5b049350613077565b819450505050505b919050565b6000613103836000018360001b6135c6565b905092915050565b600081600001805490509050919050565b505050565b6000613133836000018360001b6135e9565b905092915050565b600061314d836000018360001b6136d1565b905092915050565b6000613181846000018460001b8473ffffffffffffffffffffffffffffffffffffffff1660001b613741565b90509392505050565b6000818360000180549050116131eb576040517f08c379a0000000000000000000000000000000000000000000000000000000008152600401808060200182810382526022815260200180613ae06022913960400191505060405180910390fd5b8260000182815481106131fa57fe5b9060005260206000200154905092915050565b6000808284600001805490501161326f576040517f08c379a0000000000000000000000000000000000000000000000000000000008152600401808060200182810382526022815260200180613c5b6022913960400191505060405180910390fd5b600084600001848154811061328057fe5b906000526020600020906002020190508060000154816001015492509250509250929050565b6000808460010160008581526020019081526020016000205490506000811415839061336d576040517f08c379a00000000000000000000000000000000000000000000000000000000081526004018080602001828103825283818151815260200191508051906020019080838360005b83811015613332578082015181840152602081019050613317565b50505050905090810190601f16801561335f5780820380516001836020036101000a031916815260200191505b509250505060405180910390fd5b5084600001600182038154811061338057fe5b9060005260206000209060020201600101549150509392505050565b600081600001805490509050919050565b60006133ce8473ffffffffffffffffffffffffffffffffffffffff1661381d565b6133db57600190506135be565b600061354563150b7a0260e01b6133f0612aa6565b888787604051602401808573ffffffffffffffffffffffffffffffffffffffff1681526020018473ffffffffffffffffffffffffffffffffffffffff16815260200183815260200180602001828103825283818151815260200191508051906020019080838360005b83811015613474578082015181840152602081019050613459565b50505050905090810190601f1680156134a15780820380516001836020036101000a031916815260200191505b5095505050505050604051602081830303815290604052907bffffffffffffffffffffffffffffffffffffffffffffffffffffffff19166020820180517bffffffffffffffffffffffffffffffffffffffffffffffffffffffff8381831617835250505050604051806060016040528060328152602001613b02603291398773ffffffffffffffffffffffffffffffffffffffff166138309092919063ffffffff16565b9050600081806020019051602081101561355e57600080fd5b8101908080519060200190929190505050905063150b7a0260e01b7bffffffffffffffffffffffffffffffffffffffffffffffffffffffff1916817bffffffffffffffffffffffffffffffffffffffffffffffffffffffff191614925050505b949350505050565b600080836001016000848152602001908152602001600020541415905092915050565b600080836001016000848152602001908152602001600020549050600081146136c5576000600182039050600060018660000180549050039050600086600001828154811061363457fe5b906000526020600020015490508087600001848154811061365157fe5b906000526020600020018190555060018301876001016000838152602001908152602001600020819055508660000180548061368957fe5b600190038181906000526020600020016000905590558660010160008781526020019081526020016000206000905560019450505050506136cb565b60009150505b92915050565b60006136dd8383613848565b61373657826000018290806001815401808255809150506001900390600052602060002001600090919091909150558260000180549050836001016000848152602001908152602001600020819055506001905061373b565b600090505b92915050565b60008084600101600085815260200190815260200160002054905060008114156137e857846000016040518060400160405280868152602001858152509080600181540180825580915050600190039060005260206000209060020201600090919091909150600082015181600001556020820151816001015550508460000180549050856001016000868152602001908152602001600020819055506001915050613816565b828560000160018303815481106137fb57fe5b90600052602060002090600202016001018190555060009150505b9392505050565b600080823b905060008111915050919050565b606061383f848460008561386b565b90509392505050565b600080836001016000848152602001908152602001600020541415905092915050565b6060824710156138c6576040517f08c379a0000000000000000000000000000000000000000000000000000000008152600401808060200182810382526026815260200180613b7e6026913960400191505060405180910390fd5b6138cf8561381d565b613941576040517f08c379a000000000000000000000000000000000000000000000000000000000815260040180806020018281038252601d8152602001807f416464726573733a2063616c6c20746f206e6f6e2d636f6e747261637400000081525060200191505060405180910390fd5b6000808673ffffffffffffffffffffffffffffffffffffffff1685876040518082805190602001908083835b60208310613990578051825260208201915060208101905060208303925061396d565b6001836020036101000a03801982511681845116808217855250505050505090500191505060006040518083038185875af1925050503d80600081146139f2576040519150601f19603f3d011682016040523d82523d6000602084013e6139f7565b606091505b5091509150613a07828286613a13565b92505050949350505050565b60608315613a2357829050613ad8565b600083511115613a365782518084602001fd5b816040517f08c379a00000000000000000000000000000000000000000000000000000000081526004018080602001828103825283818151815260200191508051906020019080838360005b83811015613a9d578082015181840152602081019050613a82565b50505050905090810190601f168015613aca5780820380516001836020036101000a031916815260200191505b509250505060405180910390fd5b939250505056fe456e756d657261626c655365743a20696e646578206f7574206f6620626f756e64734552433732313a207472616e7366657220746f206e6f6e20455243373231526563656976657220696d706c656d656e7465724f776e61626c653a206e6577206f776e657220697320746865207a65726f20616464726573734552433732313a207472616e7366657220746f20746865207a65726f2061646472657373416464726573733a20696e73756666696369656e742062616c616e636520666f722063616c6c4552433732313a206f70657261746f7220717565727920666f72206e6f6e6578697374656e7420746f6b656e4552433732313a20617070726f76652063616c6c6572206973206e6f74206f776e6572206e6f7220617070726f76656420666f7220616c6c4552433732313a2062616c616e636520717565727920666f7220746865207a65726f20616464726573734552433732313a206f776e657220717565727920666f72206e6f6e6578697374656e7420746f6b656e456e756d657261626c654d61703a20696e646578206f7574206f6620626f756e64734552433732313a20617070726f76656420717565727920666f72206e6f6e6578697374656e7420746f6b656e4552433732313a207472616e73666572206f6620746f6b656e2074686174206973206e6f74206f776e4552433732314d657461646174613a2055524920717565727920666f72206e6f6e6578697374656e7420746f6b656e4552433732313a20617070726f76616c20746f2063757272656e74206f776e65724552433732313a207472616e736665722063616c6c6572206973206e6f74206f776e6572206e6f7220617070726f766564434f4e5452414354204552433732313a20494e56414c49445f544f5f41444452455353a26469706673582212205ee82e5f61e94a9adc819976db4581ae3cb80cc2a91feaddfd4b96dd673ff07064736f6c63430007060033",
  "linkReferences": {},
  "deployedLinkReferences": {}
}