{
  "_format": "hh-sol-artifact-1",
  "contractName": "Contract_ERC721",
  "sourceName": "contracts/Contract_ERC721.sol",
  "abi": [
    {
      "inputs": [
        {
          "internalType": "address",
          "name": "SupeRareV1Addr_",
          "type": "address"
        },
        {
          "internalType": "address",
          "name": "SupeRareV2Addr_",
          "type": "address"
        }
      ],
      "stateMutability": "nonpayable",
      "type": "constructor"
    },
    {
      "anonymous": false,
      "inputs": [
        {
          "indexed": true,
          "internalType": "address",
          "name": "owner",
          "type": "address"
        },
        {
          "indexed": true,
          "internalType": "address",
          "name": "approved",
          "type": "address"
        },
        {
          "indexed": true,
          "internalType": "uint256",
          "name": "tokenId",
          "type": "uint256"
        }
      ],
      "name": "Approval",
      "type": "event"
    },
    {
      "anonymous": false,
      "inputs": [
        {
          "indexed": true,
          "internalType": "address",
          "name": "owner",
          "type": "address"
        },
        {
          "indexed": true,
          "internalType": "address",
          "name": "operator",
          "type": "address"
        },
        {
          "indexed": false,
          "internalType": "bool",
          "name": "approved",
          "type": "bool"
        }
      ],
      "name": "ApprovalForAll",
      "type": "event"
    },
    {
      "anonymous": false,
      "inputs": [
        {
          "indexed": true,
          "internalType": "address",
          "name": "v1owner",
          "type": "address"
        },
        {
          "indexed": true,
          "internalType": "uint256",
          "name": "v2tokenId",
          "type": "uint256"
        }
      ],
      "name": "MintV2",
      "type": "event"
    },
    {
      "anonymous": false,
      "inputs": [
        {
          "indexed": true,
          "internalType": "address",
          "name": "previousOwner",
          "type": "address"
        },
        {
          "indexed": true,
          "internalType": "address",
          "name": "newOwner",
          "type": "address"
        }
      ],
      "name": "OwnershipTransferred",
      "type": "event"
    },
    {
      "anonymous": false,
      "inputs": [
        {
          "indexed": true,
          "internalType": "address",
          "name": "from",
          "type": "address"
        },
        {
          "indexed": true,
          "internalType": "address",
          "name": "to",
          "type": "address"
        },
        {
          "indexed": true,
          "internalType": "uint256",
          "name": "tokenId",
          "type": "uint256"
        }
      ],
      "name": "Transfer",
      "type": "event"
    },
    {
      "anonymous": false,
      "inputs": [
        {
          "indexed": true,
          "internalType": "address",
          "name": "account",
          "type": "address"
        },
        {
          "indexed": true,
          "internalType": "uint256",
          "name": "tokenId",
          "type": "uint256"
        }
      ],
      "name": "WithdrawV1",
      "type": "event"
    },
    {
      "anonymous": false,
      "inputs": [
        {
          "indexed": true,
          "internalType": "address",
          "name": "_from",
          "type": "address"
        },
        {
          "indexed": true,
          "internalType": "address",
          "name": "_to",
          "type": "address"
        },
        {
          "indexed": true,
          "internalType": "uint256",
          "name": "_tokenId",
          "type": "uint256"
        }
      ],
      "name": "transferredV1",
      "type": "event"
    },
    {
      "inputs": [
        {
          "internalType": "address",
          "name": "to",
          "type": "address"
        },
        {
          "internalType": "uint256",
          "name": "tokenId",
          "type": "uint256"
        }
      ],
      "name": "approve",
      "outputs": [],
      "stateMutability": "nonpayable",
      "type": "function"
    },
    {
      "inputs": [
        {
          "internalType": "address",
          "name": "owner",
          "type": "address"
        }
      ],
      "name": "balanceOf",
      "outputs": [
        {
          "internalType": "uint256",
          "name": "",
          "type": "uint256"
        }
      ],
      "stateMutability": "view",
      "type": "function"
    },
    {
      "inputs": [],
      "name": "baseURI",
      "outputs": [
        {
          "internalType": "string",
          "name": "",
          "type": "string"
        }
      ],
      "stateMutability": "view",
      "type": "function"
    },
    {
      "inputs": [
        {
          "internalType": "uint256",
          "name": "_tokenId",
          "type": "uint256"
        }
      ],
      "name": "checkV1Ownership",
      "outputs": [
        {
          "internalType": "bool",
          "name": "",
          "type": "bool"
        }
      ],
      "stateMutability": "view",
      "type": "function"
    },
    {
      "inputs": [
        {
          "internalType": "uint256",
          "name": "_tokenId",
          "type": "uint256"
        }
      ],
      "name": "checkV2Ownership",
      "outputs": [
        {
          "internalType": "bool",
          "name": "",
          "type": "bool"
        }
      ],
      "stateMutability": "view",
      "type": "function"
    },
    {
      "inputs": [
        {
          "internalType": "uint256",
          "name": "tokenId",
          "type": "uint256"
        }
      ],
      "name": "getApproved",
      "outputs": [
        {
          "internalType": "address",
          "name": "",
          "type": "address"
        }
      ],
      "stateMutability": "view",
      "type": "function"
    },
    {
      "inputs": [
        {
          "internalType": "uint256",
          "name": "_tokenId",
          "type": "uint256"
        }
      ],
      "name": "getWhiteListed",
      "outputs": [
        {
          "internalType": "bool",
          "name": "",
          "type": "bool"
        }
      ],
      "stateMutability": "nonpayable",
      "type": "function"
    },
    {
      "inputs": [
        {
          "internalType": "address",
          "name": "owner",
          "type": "address"
        },
        {
          "internalType": "address",
          "name": "operator",
          "type": "address"
        }
      ],
      "name": "isApprovedForAll",
      "outputs": [
        {
          "internalType": "bool",
          "name": "",
          "type": "bool"
        }
      ],
      "stateMutability": "view",
      "type": "function"
    },
    {
      "inputs": [
        {
          "internalType": "uint256",
          "name": "_tokenId",
          "type": "uint256"
        }
      ],
      "name": "mintV2",
      "outputs": [
        {
          "internalType": "bool",
          "name": "",
          "type": "bool"
        }
      ],
      "stateMutability": "nonpayable",
      "type": "function"
    },
    {
      "inputs": [],
      "name": "name",
      "outputs": [
        {
          "internalType": "string",
          "name": "",
          "type": "string"
        }
      ],
      "stateMutability": "view",
      "type": "function"
    },
    {
      "inputs": [
        {
          "internalType": "address",
          "name": "",
          "type": "address"
        },
        {
          "internalType": "address",
          "name": "",
          "type": "address"
        },
        {
          "internalType": "uint256",
          "name": "",
          "type": "uint256"
        },
        {
          "internalType": "bytes",
          "name": "",
          "type": "bytes"
        }
      ],
      "name": "onERC721Received",
      "outputs": [
        {
          "internalType": "bytes4",
          "name": "",
          "type": "bytes4"
        }
      ],
      "stateMutability": "pure",
      "type": "function"
    },
    {
      "inputs": [],
      "name": "owner",
      "outputs": [
        {
          "internalType": "address",
          "name": "",
          "type": "address"
        }
      ],
      "stateMutability": "view",
      "type": "function"
    },
    {
      "inputs": [
        {
          "internalType": "uint256",
          "name": "tokenId",
          "type": "uint256"
        }
      ],
      "name": "ownerOf",
      "outputs": [
        {
          "internalType": "address",
          "name": "",
          "type": "address"
        }
      ],
      "stateMutability": "view",
      "type": "function"
    },
    {
      "inputs": [],
      "name": "renounceOwnership",
      "outputs": [],
      "stateMutability": "nonpayable",
      "type": "function"
    },
    {
      "inputs": [
        {
          "internalType": "address",
          "name": "from",
          "type": "address"
        },
        {
          "internalType": "address",
          "name": "to",
          "type": "address"
        },
        {
          "internalType": "uint256",
          "name": "tokenId",
          "type": "uint256"
        }
      ],
      "name": "safeTransfer",
      "outputs": [],
      "stateMutability": "nonpayable",
      "type": "function"
    },
    {
      "inputs": [
        {
          "internalType": "address",
          "name": "from",
          "type": "address"
        },
        {
          "internalType": "address",
          "name": "to",
          "type": "address"
        },
        {
          "internalType": "uint256",
          "name": "tokenId",
          "type": "uint256"
        }
      ],
      "name": "safeTransferFrom",
      "outputs": [],
      "stateMutability": "nonpayable",
      "type": "function"
    },
    {
      "inputs": [
        {
          "internalType": "address",
          "name": "from",
          "type": "address"
        },
        {
          "internalType": "address",
          "name": "to",
          "type": "address"
        },
        {
          "internalType": "uint256",
          "name": "tokenId",
          "type": "uint256"
        },
        {
          "internalType": "bytes",
          "name": "_data",
          "type": "bytes"
        }
      ],
      "name": "safeTransferFrom",
      "outputs": [],
      "stateMutability": "nonpayable",
      "type": "function"
    },
    {
      "inputs": [
        {
          "internalType": "address",
          "name": "operator",
          "type": "address"
        },
        {
          "internalType": "bool",
          "name": "approved",
          "type": "bool"
        }
      ],
      "name": "setApprovalForAll",
      "outputs": [],
      "stateMutability": "nonpayable",
      "type": "function"
    },
    {
      "inputs": [
        {
          "internalType": "bytes4",
          "name": "interfaceId",
          "type": "bytes4"
        }
      ],
      "name": "supportsInterface",
      "outputs": [
        {
          "internalType": "bool",
          "name": "",
          "type": "bool"
        }
      ],
      "stateMutability": "view",
      "type": "function"
    },
    {
      "inputs": [],
      "name": "symbol",
      "outputs": [
        {
          "internalType": "string",
          "name": "",
          "type": "string"
        }
      ],
      "stateMutability": "view",
      "type": "function"
    },
    {
      "inputs": [
        {
          "internalType": "uint256",
          "name": "index",
          "type": "uint256"
        }
      ],
      "name": "tokenByIndex",
      "outputs": [
        {
          "internalType": "uint256",
          "name": "",
          "type": "uint256"
        }
      ],
      "stateMutability": "view",
      "type": "function"
    },
    {
      "inputs": [
        {
          "internalType": "address",
          "name": "owner",
          "type": "address"
        },
        {
          "internalType": "uint256",
          "name": "index",
          "type": "uint256"
        }
      ],
      "name": "tokenOfOwnerByIndex",
      "outputs": [
        {
          "internalType": "uint256",
          "name": "",
          "type": "uint256"
        }
      ],
      "stateMutability": "view",
      "type": "function"
    },
    {
      "inputs": [
        {
          "internalType": "uint256",
          "name": "tokenId",
          "type": "uint256"
        }
      ],
      "name": "tokenURI",
      "outputs": [
        {
          "internalType": "string",
          "name": "",
          "type": "string"
        }
      ],
      "stateMutability": "view",
      "type": "function"
    },
    {
      "inputs": [],
      "name": "totalSupply",
      "outputs": [
        {
          "internalType": "uint256",
          "name": "",
          "type": "uint256"
        }
      ],
      "stateMutability": "view",
      "type": "function"
    },
    {
      "inputs": [
        {
          "internalType": "address",
          "name": "from",
          "type": "address"
        },
        {
          "internalType": "address",
          "name": "to",
          "type": "address"
        },
        {
          "internalType": "uint256",
          "name": "tokenId",
          "type": "uint256"
        }
      ],
      "name": "transferFrom",
      "outputs": [],
      "stateMutability": "nonpayable",
      "type": "function"
    },
    {
      "inputs": [
        {
          "internalType": "address",
          "name": "newOwner",
          "type": "address"
        }
      ],
      "name": "transferOwnership",
      "outputs": [],
      "stateMutability": "nonpayable",
      "type": "function"
    },
    {
      "inputs": [
        {
          "internalType": "address",
          "name": "_to",
          "type": "address"
        },
        {
          "internalType": "uint256",
          "name": "_tokenId",
          "type": "uint256"
        }
      ],
      "name": "transferV1",
      "outputs": [
        {
          "internalType": "bool",
          "name": "",
          "type": "bool"
        }
      ],
      "stateMutability": "nonpayable",
      "type": "function"
    },
    {
      "inputs": [
        {
          "internalType": "uint256",
          "name": "_tokenId",
          "type": "uint256"
        }
      ],
      "name": "withdrawV1",
      "outputs": [
        {
          "internalType": "bool",
          "name": "",
          "type": "bool"
        }
      ],
      "stateMutability": "nonpayable",
      "type": "function"
    }
  ],
  "bytecode": "0x60806040526040518060400160405280600f81526020017f436f6e7472616374204552433732310000000000000000000000000000000000815250600b90805190602001906200005192919062000619565b506040518060400160405280600781526020017f4345524337323100000000000000000000000000000000000000000000000000815250600c90805190602001906200009f92919062000619565b50348015620000ad57600080fd5b506040516200426c3803806200426c83398181016040526040811015620000d357600080fd5b810190808051906020019092919080519060200190929190505050600b8054600181600116156101000203166002900480601f016020809104026020016040519081016040528092919081815260200182805460018160011615610100020316600290048015620001885780601f106200015c5761010080835404028352916020019162000188565b820191906000526020600020905b8154815290600101906020018083116200016a57829003601f168201915b5050505050600c8054600181600116156101000203166002900480601f016020809104026020016040519081016040528092919081815260200182805460018160011615610100020316600290048015620002275780601f10620001fb5761010080835404028352916020019162000227565b820191906000526020600020905b8154815290600101906020018083116200020957829003601f168201915b505050505060006200023e6200050860201b60201c565b9050806000806101000a81548173ffffffffffffffffffffffffffffffffffffffff021916908373ffffffffffffffffffffffffffffffffffffffff1602179055508073ffffffffffffffffffffffffffffffffffffffff16600073ffffffffffffffffffffffffffffffffffffffff167f8be0079c531659141344cd1fd0a4f28419497f9722a3daafe3b4186f6b6457e060405160405180910390a350620002f46301ffc9a760e01b6200051060201b60201c565b81600790805190602001906200030c92919062000619565b5080600890805190602001906200032592919062000619565b506200033e6380ac58cd60e01b6200051060201b60201c565b62000356635b5e139f60e01b6200051060201b60201c565b6200036e63780e9d6360e01b6200051060201b60201c565b505081600e60006101000a81548173ffffffffffffffffffffffffffffffffffffffff021916908373ffffffffffffffffffffffffffffffffffffffff16021790555080600d60006101000a81548173ffffffffffffffffffffffffffffffffffffffff021916908373ffffffffffffffffffffffffffffffffffffffff160217905550600e60009054906101000a900473ffffffffffffffffffffffffffffffffffffffff16600f60006101000a81548173ffffffffffffffffffffffffffffffffffffffff021916908373ffffffffffffffffffffffffffffffffffffffff160217905550600d60009054906101000a900473ffffffffffffffffffffffffffffffffffffffff16601060006101000a81548173ffffffffffffffffffffffffffffffffffffffff021916908373ffffffffffffffffffffffffffffffffffffffff160217905550620004d06380ac58cd60e01b6200051060201b60201c565b620004e8635b5e139f60e01b6200051060201b60201c565b6200050063780e9d6360e01b6200051060201b60201c565b5050620006cf565b600033905090565b63ffffffff60e01b817bffffffffffffffffffffffffffffffffffffffffffffffffffffffff19161415620005ad576040517f08c379a000000000000000000000000000000000000000000000000000000000815260040180806020018281038252601c8152602001807f4552433136353a20696e76616c696420696e746572666163652069640000000081525060200191505060405180910390fd5b6001806000837bffffffffffffffffffffffffffffffffffffffffffffffffffffffff19167bffffffffffffffffffffffffffffffffffffffffffffffffffffffff1916815260200190815260200160002060006101000a81548160ff02191690831515021790555050565b828054600181600116156101000203166002900490600052602060002090601f0160209004810192826200065157600085556200069d565b82601f106200066c57805160ff19168380011785556200069d565b828001600101855582156200069d579182015b828111156200069c5782518255916020019190600101906200067f565b5b509050620006ac9190620006b0565b5090565b5b80821115620006cb576000816000905550600101620006b1565b5090565b613b8d80620006df6000396000f3fe608060405234801561001057600080fd5b50600436106101c45760003560e01c80636de99891116100f9578063a22cb46511610097578063c87b56dd11610071578063c87b56dd14610aea578063d1660f9914610b91578063e985e9c514610bff578063f2fde38b14610c79576101c4565b8063a22cb46514610951578063b88d4fde146109a1578063c01ed11e14610aa6576101c4565b806387d45d01116100d357806387d45d01146108125780638da5cb5b146108565780639484cac41461088a57806395d89b41146108ce576101c4565b80636de998911461076c57806370a08231146107b0578063715018a614610808576101c4565b806323b872dd116101665780634f6ccce7116101405780634f6ccce7146105eb578063565e7e661461062d5780636352211e146106915780636c0360eb146106e9576101c4565b806323b872dd146104ad5780632f745c591461051b57806342842e0e1461057d576101c4565b8063095ea7b3116101a2578063095ea7b314610307578063150b7a021461035557806318160ddd1461044b57806322d72cf914610469576101c4565b806301ffc9a7146101c957806306fdde031461022c578063081812fc146102af575b600080fd5b610214600480360360208110156101df57600080fd5b8101908080357bffffffffffffffffffffffffffffffffffffffffffffffffffffffff19169060200190929190505050610cbd565b60405180821515815260200191505060405180910390f35b610234610d25565b6040518080602001828103825283818151815260200191508051906020019080838360005b83811015610274578082015181840152602081019050610259565b50505050905090810190601f1680156102a15780820380516001836020036101000a031916815260200191505b509250505060405180910390f35b6102db600480360360208110156102c557600080fd5b8101908080359060200190929190505050610dc7565b604051808273ffffffffffffffffffffffffffffffffffffffff16815260200191505060405180910390f35b6103536004803603604081101561031d57600080fd5b81019080803573ffffffffffffffffffffffffffffffffffffffff16906020019092919080359060200190929190505050610e62565b005b6104166004803603608081101561036b57600080fd5b81019080803573ffffffffffffffffffffffffffffffffffffffff169060200190929190803573ffffffffffffffffffffffffffffffffffffffff16906020019092919080359060200190929190803590602001906401000000008111156103d257600080fd5b8201836020820111156103e457600080fd5b8035906020019184600183028401116401000000008311171561040657600080fd5b9091929391929390505050610fa6565b60405180827bffffffffffffffffffffffffffffffffffffffffffffffffffffffff1916815260200191505060405180910390f35b610453610fbb565b6040518082815260200191505060405180910390f35b6104956004803603602081101561047f57600080fd5b8101908080359060200190929190505050610fcc565b60405180821515815260200191505060405180910390f35b610519600480360360608110156104c357600080fd5b81019080803573ffffffffffffffffffffffffffffffffffffffff169060200190929190803573ffffffffffffffffffffffffffffffffffffffff169060200190929190803590602001909291905050506111e5565b005b6105676004803603604081101561053157600080fd5b81019080803573ffffffffffffffffffffffffffffffffffffffff1690602001909291908035906020019092919050505061125b565b6040518082815260200191505060405180910390f35b6105e96004803603606081101561059357600080fd5b81019080803573ffffffffffffffffffffffffffffffffffffffff169060200190929190803573ffffffffffffffffffffffffffffffffffffffff169060200190929190803590602001909291905050506112b6565b005b6106176004803603602081101561060157600080fd5b81019080803590602001909291905050506112d6565b6040518082815260200191505060405180910390f35b6106796004803603604081101561064357600080fd5b81019080803573ffffffffffffffffffffffffffffffffffffffff169060200190929190803590602001909291905050506112f9565b60405180821515815260200191505060405180910390f35b6106bd600480360360208110156106a757600080fd5b8101908080359060200190929190505050611577565b604051808273ffffffffffffffffffffffffffffffffffffffff16815260200191505060405180910390f35b6106f16115ae565b6040518080602001828103825283818151815260200191508051906020019080838360005b83811015610731578082015181840152602081019050610716565b50505050905090810190601f16801561075e5780820380516001836020036101000a031916815260200191505b509250505060405180910390f35b6107986004803603602081101561078257600080fd5b8101908080359060200190929190505050611650565b60405180821515815260200191505060405180910390f35b6107f2600480360360208110156107c657600080fd5b81019080803573ffffffffffffffffffffffffffffffffffffffff169060200190929190505050611735565b6040518082815260200191505060405180910390f35b61081061180a565b005b61083e6004803603602081101561082857600080fd5b8101908080359060200190929190505050611977565b60405180821515815260200191505060405180910390f35b61085e611b26565b604051808273ffffffffffffffffffffffffffffffffffffffff16815260200191505060405180910390f35b6108b6600480360360208110156108a057600080fd5b8101908080359060200190929190505050611b4f565b60405180821515815260200191505060405180910390f35b6108d6611e18565b6040518080602001828103825283818151815260200191508051906020019080838360005b838110156109165780820151818401526020810190506108fb565b50505050905090810190601f1680156109435780820380516001836020036101000a031916815260200191505b509250505060405180910390f35b61099f6004803603604081101561096757600080fd5b81019080803573ffffffffffffffffffffffffffffffffffffffff169060200190929190803515159060200190929190505050611eba565b005b610aa4600480360360808110156109b757600080fd5b81019080803573ffffffffffffffffffffffffffffffffffffffff169060200190929190803573ffffffffffffffffffffffffffffffffffffffff1690602001909291908035906020019092919080359060200190640100000000811115610a1e57600080fd5b820183602082011115610a3057600080fd5b80359060200191846001830284011164010000000083111715610a5257600080fd5b91908080601f016020809104026020016040519081016040528093929190818152602001838380828437600081840152601f19601f820116905080830192505050505050509192919290505050612070565b005b610ad260048036036020811015610abc57600080fd5b81019080803590602001909291905050506120e8565b60405180821515815260200191505060405180910390f35b610b1660048036036020811015610b0057600080fd5b81019080803590602001909291905050506121cd565b6040518080602001828103825283818151815260200191508051906020019080838360005b83811015610b56578082015181840152602081019050610b3b565b50505050905090810190601f168015610b835780820380516001836020036101000a031916815260200191505b509250505060405180910390f35b610bfd60048036036060811015610ba757600080fd5b81019080803573ffffffffffffffffffffffffffffffffffffffff169060200190929190803573ffffffffffffffffffffffffffffffffffffffff1690602001909291908035906020019092919050505061249e565b005b610c6160048036036040811015610c1557600080fd5b81019080803573ffffffffffffffffffffffffffffffffffffffff169060200190929190803573ffffffffffffffffffffffffffffffffffffffff1690602001909291905050506124be565b60405180821515815260200191505060405180910390f35b610cbb60048036036020811015610c8f57600080fd5b81019080803573ffffffffffffffffffffffffffffffffffffffff169060200190929190505050612552565b005b600060016000837bffffffffffffffffffffffffffffffffffffffffffffffffffffffff19167bffffffffffffffffffffffffffffffffffffffffffffffffffffffff1916815260200190815260200160002060009054906101000a900460ff169050919050565b6060600b8054600181600116156101000203166002900480601f016020809104026020016040519081016040528092919081815260200182805460018160011615610100020316600290048015610dbd5780601f10610d9257610100808354040283529160200191610dbd565b820191906000526020600020905b815481529060010190602001808311610da057829003601f168201915b5050505050905090565b6000610dd282612744565b610e27576040517f08c379a000000000000000000000000000000000000000000000000000000000815260040180806020018281038252602c815260200180613a5f602c913960400191505060405180910390fd5b6005600083815260200190815260200160002060009054906101000a900473ffffffffffffffffffffffffffffffffffffffff169050919050565b6000610e6d82611577565b90508073ffffffffffffffffffffffffffffffffffffffff168373ffffffffffffffffffffffffffffffffffffffff161415610ef4576040517f08c379a0000000000000000000000000000000000000000000000000000000008152600401808060200182810382526021815260200180613ae36021913960400191505060405180910390fd5b8073ffffffffffffffffffffffffffffffffffffffff16610f13612761565b73ffffffffffffffffffffffffffffffffffffffff161480610f425750610f4181610f3c612761565b6124be565b5b610f97576040517f08c379a00000000000000000000000000000000000000000000000000000000081526004018080602001828103825260388152602001806139b26038913960400191505060405180910390fd5b610fa18383612769565b505050565b600063150b7a0260e01b905095945050505050565b6000610fc76003612822565b905090565b6000610fd6612761565b73ffffffffffffffffffffffffffffffffffffffff16610ff4611b26565b73ffffffffffffffffffffffffffffffffffffffff161461107d576040517f08c379a00000000000000000000000000000000000000000000000000000000081526004018080602001828103825260208152602001807f4f776e61626c653a2063616c6c6572206973206e6f7420746865206f776e657281525060200191505060405180910390fd5b601060009054906101000a900473ffffffffffffffffffffffffffffffffffffffff1673ffffffffffffffffffffffffffffffffffffffff1663fcb217b5836040518263ffffffff1660e01b815260040180828152602001915050602060405180830381600087803b1580156110f257600080fd5b505af1158015611106573d6000803e3d6000fd5b505050506040513d602081101561111c57600080fd5b810190808051906020019092919050505050601060009054906101000a900473ffffffffffffffffffffffffffffffffffffffff1673ffffffffffffffffffffffffffffffffffffffff1663751b02c2836040518263ffffffff1660e01b815260040180828152602001915050602060405180830381600087803b1580156111a357600080fd5b505af11580156111b7573d6000803e3d6000fd5b505050506040513d60208110156111cd57600080fd5b81019080805190602001909291905050509050919050565b6111f66111f0612761565b82612837565b61124b576040517f08c379a0000000000000000000000000000000000000000000000000000000008152600401808060200182810382526031815260200180613b046031913960400191505060405180910390fd5b61125683838361292b565b505050565b60006112ae82600260008673ffffffffffffffffffffffffffffffffffffffff1673ffffffffffffffffffffffffffffffffffffffff168152602001908152602001600020612b6e90919063ffffffff16565b905092915050565b6112d183838360405180602001604052806000815250612070565b505050565b6000806112ed836003612b8890919063ffffffff16565b50905080915050919050565b6000611303612761565b73ffffffffffffffffffffffffffffffffffffffff16611321611b26565b73ffffffffffffffffffffffffffffffffffffffff16146113aa576040517f08c379a00000000000000000000000000000000000000000000000000000000081526004018080602001828103825260208152602001807f4f776e61626c653a2063616c6c6572206973206e6f7420746865206f776e657281525060200191505060405180910390fd5b600073ffffffffffffffffffffffffffffffffffffffff168373ffffffffffffffffffffffffffffffffffffffff1614158061141257503073ffffffffffffffffffffffffffffffffffffffff168373ffffffffffffffffffffffffffffffffffffffff1614155b611467576040517f08c379a0000000000000000000000000000000000000000000000000000000008152600401808060200182810382526023815260200180613b356023913960400191505060405180910390fd5b600f60009054906101000a900473ffffffffffffffffffffffffffffffffffffffff1673ffffffffffffffffffffffffffffffffffffffff1663a9059cbb84846040518363ffffffff1660e01b8152600401808373ffffffffffffffffffffffffffffffffffffffff16815260200182815260200192505050600060405180830381600087803b1580156114fa57600080fd5b505af115801561150e573d6000803e3d6000fd5b50505050818373ffffffffffffffffffffffffffffffffffffffff163073ffffffffffffffffffffffffffffffffffffffff167ff65151e33397e8e2a4cc22dfcb4552b68b79961a9532f7db3ee21a4786bea2ea60405160405180910390a46001905092915050565b60006115a782604051806060016040528060298152602001613a14602991396003612bb49092919063ffffffff16565b9050919050565b6060600a8054600181600116156101000203166002900480601f0160208091040260200160405190810160405280929190818152602001828054600181600116156101000203166002900480156116465780601f1061161b57610100808354040283529160200191611646565b820191906000526020600020905b81548152906001019060200180831161162957829003601f168201915b5050505050905090565b60003073ffffffffffffffffffffffffffffffffffffffff16600d60009054906101000a900473ffffffffffffffffffffffffffffffffffffffff1673ffffffffffffffffffffffffffffffffffffffff16636352211e846040518263ffffffff1660e01b81526004018082815260200191505060206040518083038186803b1580156116dc57600080fd5b505afa1580156116f0573d6000803e3d6000fd5b505050506040513d602081101561170657600080fd5b810190808051906020019092919050505073ffffffffffffffffffffffffffffffffffffffff16149050919050565b60008073ffffffffffffffffffffffffffffffffffffffff168273ffffffffffffffffffffffffffffffffffffffff1614156117bc576040517f08c379a000000000000000000000000000000000000000000000000000000000815260040180806020018281038252602a8152602001806139ea602a913960400191505060405180910390fd5b611803600260008473ffffffffffffffffffffffffffffffffffffffff1673ffffffffffffffffffffffffffffffffffffffff168152602001908152602001600020612bd3565b9050919050565b611812612761565b73ffffffffffffffffffffffffffffffffffffffff16611830611b26565b73ffffffffffffffffffffffffffffffffffffffff16146118b9576040517f08c379a00000000000000000000000000000000000000000000000000000000081526004018080602001828103825260208152602001807f4f776e61626c653a2063616c6c6572206973206e6f7420746865206f776e657281525060200191505060405180910390fd5b600073ffffffffffffffffffffffffffffffffffffffff1660008054906101000a900473ffffffffffffffffffffffffffffffffffffffff1673ffffffffffffffffffffffffffffffffffffffff167f8be0079c531659141344cd1fd0a4f28419497f9722a3daafe3b4186f6b6457e060405160405180910390a360008060006101000a81548173ffffffffffffffffffffffffffffffffffffffff021916908373ffffffffffffffffffffffffffffffffffffffff160217905550565b6000611981612761565b73ffffffffffffffffffffffffffffffffffffffff1661199f611b26565b73ffffffffffffffffffffffffffffffffffffffff1614611a28576040517f08c379a00000000000000000000000000000000000000000000000000000000081526004018080602001828103825260208152602001807f4f776e61626c653a2063616c6c6572206973206e6f7420746865206f776e657281525060200191505060405180910390fd5b601060009054906101000a900473ffffffffffffffffffffffffffffffffffffffff1673ffffffffffffffffffffffffffffffffffffffff166387d45d01836040518263ffffffff1660e01b815260040180828152602001915050602060405180830381600087803b158015611a9d57600080fd5b505af1158015611ab1573d6000803e3d6000fd5b505050506040513d6020811015611ac757600080fd5b810190808051906020019092919050505050813073ffffffffffffffffffffffffffffffffffffffff167f3c739b6a95f75f9e762038efa06f6758bbab40ef0b17f9f07cd3476eeac984e460405160405180910390a360019050919050565b60008060009054906101000a900473ffffffffffffffffffffffffffffffffffffffff16905090565b6000611b59612761565b73ffffffffffffffffffffffffffffffffffffffff16611b77611b26565b73ffffffffffffffffffffffffffffffffffffffff1614611c00576040517f08c379a00000000000000000000000000000000000000000000000000000000081526004018080602001828103825260208152602001807f4f776e61626c653a2063616c6c6572206973206e6f7420746865206f776e657281525060200191505060405180910390fd5b601060009054906101000a900473ffffffffffffffffffffffffffffffffffffffff1673ffffffffffffffffffffffffffffffffffffffff16632e1a7d4d836040518263ffffffff1660e01b815260040180828152602001915050602060405180830381600087803b158015611c7557600080fd5b505af1158015611c89573d6000803e3d6000fd5b505050506040513d6020811015611c9f57600080fd5b810190808051906020019092919050505050611dcb6040518060400160405280600d81526020017f4d75737420626520747275653a000000000000000000000000000000000000008152503073ffffffffffffffffffffffffffffffffffffffff16600f60009054906101000a900473ffffffffffffffffffffffffffffffffffffffff1673ffffffffffffffffffffffffffffffffffffffff16636352211e866040518263ffffffff1660e01b81526004018082815260200191505060206040518083038186803b158015611d7457600080fd5b505afa158015611d88573d6000803e3d6000fd5b505050506040513d6020811015611d9e57600080fd5b810190808051906020019092919050505073ffffffffffffffffffffffffffffffffffffffff1614612be8565b813073ffffffffffffffffffffffffffffffffffffffff167f137405ae38c6e13c1dae5b6f5d4eb90010220c7c552dcaccc7b9c038c0177af860405160405180910390a360019050919050565b6060600c8054600181600116156101000203166002900480601f016020809104026020016040519081016040528092919081815260200182805460018160011615610100020316600290048015611eb05780601f10611e8557610100808354040283529160200191611eb0565b820191906000526020600020905b815481529060010190602001808311611e9357829003601f168201915b5050505050905090565b611ec2612761565b73ffffffffffffffffffffffffffffffffffffffff168273ffffffffffffffffffffffffffffffffffffffff161415611f63576040517f08c379a00000000000000000000000000000000000000000000000000000000081526004018080602001828103825260198152602001807f4552433732313a20617070726f766520746f2063616c6c65720000000000000081525060200191505060405180910390fd5b8060066000611f70612761565b73ffffffffffffffffffffffffffffffffffffffff1673ffffffffffffffffffffffffffffffffffffffff16815260200190815260200160002060008473ffffffffffffffffffffffffffffffffffffffff1673ffffffffffffffffffffffffffffffffffffffff16815260200190815260200160002060006101000a81548160ff0219169083151502179055508173ffffffffffffffffffffffffffffffffffffffff1661201d612761565b73ffffffffffffffffffffffffffffffffffffffff167f17307eab39ab6107e8899845ad3d59bd9653f200f220920489ca2b5937696c318360405180821515815260200191505060405180910390a35050565b61208161207b612761565b83612837565b6120d6576040517f08c379a0000000000000000000000000000000000000000000000000000000008152600401808060200182810382526031815260200180613b046031913960400191505060405180910390fd5b6120e284848484612cf1565b50505050565b60003073ffffffffffffffffffffffffffffffffffffffff16600e60009054906101000a900473ffffffffffffffffffffffffffffffffffffffff1673ffffffffffffffffffffffffffffffffffffffff16636352211e846040518263ffffffff1660e01b81526004018082815260200191505060206040518083038186803b15801561217457600080fd5b505afa158015612188573d6000803e3d6000fd5b505050506040513d602081101561219e57600080fd5b810190808051906020019092919050505073ffffffffffffffffffffffffffffffffffffffff16149050919050565b60606121d882612744565b61222d576040517f08c379a000000000000000000000000000000000000000000000000000000000815260040180806020018281038252602f815260200180613ab4602f913960400191505060405180910390fd5b6000600960008481526020019081526020016000208054600181600116156101000203166002900480601f0160208091040260200160405190810160405280929190818152602001828054600181600116156101000203166002900480156122d65780601f106122ab576101008083540402835291602001916122d6565b820191906000526020600020905b8154815290600101906020018083116122b957829003601f168201915b5050505050905060006122e76115ae565b90506000815114156122fd578192505050612499565b6000825111156123ce5780826040516020018083805190602001908083835b6020831061233f578051825260208201915060208101905060208303925061231c565b6001836020036101000a03801982511681845116808217855250505050505090500182805190602001908083835b60208310612390578051825260208201915060208101905060208303925061236d565b6001836020036101000a0380198251168184511680821785525050505050509050019250505060405160208183030381529060405292505050612499565b806123d885612d63565b6040516020018083805190602001908083835b6020831061240e57805182526020820191506020810190506020830392506123eb565b6001836020036101000a03801982511681845116808217855250505050505090500182805190602001908083835b6020831061245f578051825260208201915060208101905060208303925061243c565b6001836020036101000a03801982511681845116808217855250505050505090500192505050604051602081830303815290604052925050505b919050565b6124b983838360405180602001604052806000815250612070565b505050565b6000600660008473ffffffffffffffffffffffffffffffffffffffff1673ffffffffffffffffffffffffffffffffffffffff16815260200190815260200160002060008373ffffffffffffffffffffffffffffffffffffffff1673ffffffffffffffffffffffffffffffffffffffff16815260200190815260200160002060009054906101000a900460ff16905092915050565b61255a612761565b73ffffffffffffffffffffffffffffffffffffffff16612578611b26565b73ffffffffffffffffffffffffffffffffffffffff1614612601576040517f08c379a00000000000000000000000000000000000000000000000000000000081526004018080602001828103825260208152602001807f4f776e61626c653a2063616c6c6572206973206e6f7420746865206f776e657281525060200191505060405180910390fd5b600073ffffffffffffffffffffffffffffffffffffffff168173ffffffffffffffffffffffffffffffffffffffff161415612687576040517f08c379a00000000000000000000000000000000000000000000000000000000081526004018080602001828103825260268152602001806139166026913960400191505060405180910390fd5b8073ffffffffffffffffffffffffffffffffffffffff1660008054906101000a900473ffffffffffffffffffffffffffffffffffffffff1673ffffffffffffffffffffffffffffffffffffffff167f8be0079c531659141344cd1fd0a4f28419497f9722a3daafe3b4186f6b6457e060405160405180910390a3806000806101000a81548173ffffffffffffffffffffffffffffffffffffffff021916908373ffffffffffffffffffffffffffffffffffffffff16021790555050565b600061275a826003612eaa90919063ffffffff16565b9050919050565b600033905090565b816005600083815260200190815260200160002060006101000a81548173ffffffffffffffffffffffffffffffffffffffff021916908373ffffffffffffffffffffffffffffffffffffffff160217905550808273ffffffffffffffffffffffffffffffffffffffff166127dc83611577565b73ffffffffffffffffffffffffffffffffffffffff167f8c5be1e5ebec7d5bd14f71427d1e84f3dd0314c0f7b2291e5b200ac8c7c3b92560405160405180910390a45050565b600061283082600001612ec4565b9050919050565b600061284282612744565b612897576040517f08c379a000000000000000000000000000000000000000000000000000000000815260040180806020018281038252602c815260200180613986602c913960400191505060405180910390fd5b60006128a283611577565b90508073ffffffffffffffffffffffffffffffffffffffff168473ffffffffffffffffffffffffffffffffffffffff16148061291157508373ffffffffffffffffffffffffffffffffffffffff166128f984610dc7565b73ffffffffffffffffffffffffffffffffffffffff16145b80612922575061292181856124be565b5b91505092915050565b8273ffffffffffffffffffffffffffffffffffffffff1661294b82611577565b73ffffffffffffffffffffffffffffffffffffffff16146129b7576040517f08c379a0000000000000000000000000000000000000000000000000000000008152600401808060200182810382526029815260200180613a8b6029913960400191505060405180910390fd5b600073ffffffffffffffffffffffffffffffffffffffff168273ffffffffffffffffffffffffffffffffffffffff161415612a3d576040517f08c379a000000000000000000000000000000000000000000000000000000000815260040180806020018281038252602481526020018061393c6024913960400191505060405180910390fd5b612a48838383612ed5565b612a53600082612769565b612aa481600260008673ffffffffffffffffffffffffffffffffffffffff1673ffffffffffffffffffffffffffffffffffffffff168152602001908152602001600020612eda90919063ffffffff16565b50612af681600260008573ffffffffffffffffffffffffffffffffffffffff1673ffffffffffffffffffffffffffffffffffffffff168152602001908152602001600020612ef490919063ffffffff16565b50612b0d81836003612f0e9092919063ffffffff16565b50808273ffffffffffffffffffffffffffffffffffffffff168473ffffffffffffffffffffffffffffffffffffffff167fddf252ad1be2c89b69c2b068fc378daa952ba7f163c4a11628f55a4df523b3ef60405160405180910390a4505050565b6000612b7d8360000183612f43565b60001c905092915050565b600080600080612b9b8660000186612fc6565b915091508160001c8160001c9350935050509250929050565b6000612bc7846000018460001b8461305f565b60001c90509392505050565b6000612be182600001613155565b9050919050565b612ced828260405160240180806020018315158152602001828103825284818151815260200191508051906020019080838360005b83811015612c38578082015181840152602081019050612c1d565b50505050905090810190601f168015612c655780820380516001836020036101000a031916815260200191505b5093505050506040516020818303038152906040527fc3b55635000000000000000000000000000000000000000000000000000000007bffffffffffffffffffffffffffffffffffffffffffffffffffffffff19166020820180517bffffffffffffffffffffffffffffffffffffffffffffffffffffffff8381831617835250505050613166565b5050565b612cfc84848461292b565b612d088484848461318f565b612d5d576040517f08c379a00000000000000000000000000000000000000000000000000000000081526004018080602001828103825260328152602001806138e46032913960400191505060405180910390fd5b50505050565b60606000821415612dab576040518060400160405280600181526020017f30000000000000000000000000000000000000000000000000000000000000008152509050612ea5565b600082905060005b60008214612dd5578080600101915050600a8281612dcd57fe5b049150612db3565b60008167ffffffffffffffff81118015612dee57600080fd5b506040519080825280601f01601f191660200182016040528015612e215781602001600182028036833780820191505090505b50905060006001830390508593505b60008414612e9d57600a8481612e4257fe5b0660300160f81b82828060019003935081518110612e5c57fe5b60200101907effffffffffffffffffffffffffffffffffffffffffffffffffffffffffffff1916908160001a905350600a8481612e9557fe5b049350612e30565b819450505050505b919050565b6000612ebc836000018360001b6133a8565b905092915050565b600081600001805490509050919050565b505050565b6000612eec836000018360001b6133cb565b905092915050565b6000612f06836000018360001b6134b3565b905092915050565b6000612f3a846000018460001b8473ffffffffffffffffffffffffffffffffffffffff1660001b613523565b90509392505050565b600081836000018054905011612fa4576040517f08c379a00000000000000000000000000000000000000000000000000000000081526004018080602001828103825260228152602001806138c26022913960400191505060405180910390fd5b826000018281548110612fb357fe5b9060005260206000200154905092915050565b60008082846000018054905011613028576040517f08c379a0000000000000000000000000000000000000000000000000000000008152600401808060200182810382526022815260200180613a3d6022913960400191505060405180910390fd5b600084600001848154811061303957fe5b906000526020600020906002020190508060000154816001015492509250509250929050565b60008084600101600085815260200190815260200160002054905060008114158390613126576040517f08c379a00000000000000000000000000000000000000000000000000000000081526004018080602001828103825283818151815260200191508051906020019080838360005b838110156130eb5780820151818401526020810190506130d0565b50505050905090810190601f1680156131185780820380516001836020036101000a031916815260200191505b509250505060405180910390fd5b5084600001600182038154811061313957fe5b9060005260206000209060020201600101549150509392505050565b600081600001805490509050919050565b60008151905060006a636f6e736f6c652e6c6f679050602083016000808483855afa5050505050565b60006131b08473ffffffffffffffffffffffffffffffffffffffff166135ff565b6131bd57600190506133a0565b600061332763150b7a0260e01b6131d2612761565b888787604051602401808573ffffffffffffffffffffffffffffffffffffffff1681526020018473ffffffffffffffffffffffffffffffffffffffff16815260200183815260200180602001828103825283818151815260200191508051906020019080838360005b8381101561325657808201518184015260208101905061323b565b50505050905090810190601f1680156132835780820380516001836020036101000a031916815260200191505b5095505050505050604051602081830303815290604052907bffffffffffffffffffffffffffffffffffffffffffffffffffffffff19166020820180517bffffffffffffffffffffffffffffffffffffffffffffffffffffffff83818316178352505050506040518060600160405280603281526020016138e4603291398773ffffffffffffffffffffffffffffffffffffffff166136129092919063ffffffff16565b9050600081806020019051602081101561334057600080fd5b8101908080519060200190929190505050905063150b7a0260e01b7bffffffffffffffffffffffffffffffffffffffffffffffffffffffff1916817bffffffffffffffffffffffffffffffffffffffffffffffffffffffff191614925050505b949350505050565b600080836001016000848152602001908152602001600020541415905092915050565b600080836001016000848152602001908152602001600020549050600081146134a7576000600182039050600060018660000180549050039050600086600001828154811061341657fe5b906000526020600020015490508087600001848154811061343357fe5b906000526020600020018190555060018301876001016000838152602001908152602001600020819055508660000180548061346b57fe5b600190038181906000526020600020016000905590558660010160008781526020019081526020016000206000905560019450505050506134ad565b60009150505b92915050565b60006134bf838361362a565b61351857826000018290806001815401808255809150506001900390600052602060002001600090919091909150558260000180549050836001016000848152602001908152602001600020819055506001905061351d565b600090505b92915050565b60008084600101600085815260200190815260200160002054905060008114156135ca578460000160405180604001604052808681526020018581525090806001815401808255809150506001900390600052602060002090600202016000909190919091506000820151816000015560208201518160010155505084600001805490508560010160008681526020019081526020016000208190555060019150506135f8565b828560000160018303815481106135dd57fe5b90600052602060002090600202016001018190555060009150505b9392505050565b600080823b905060008111915050919050565b6060613621848460008561364d565b90509392505050565b600080836001016000848152602001908152602001600020541415905092915050565b6060824710156136a8576040517f08c379a00000000000000000000000000000000000000000000000000000000081526004018080602001828103825260268152602001806139606026913960400191505060405180910390fd5b6136b1856135ff565b613723576040517f08c379a000000000000000000000000000000000000000000000000000000000815260040180806020018281038252601d8152602001807f416464726573733a2063616c6c20746f206e6f6e2d636f6e747261637400000081525060200191505060405180910390fd5b6000808673ffffffffffffffffffffffffffffffffffffffff1685876040518082805190602001908083835b60208310613772578051825260208201915060208101905060208303925061374f565b6001836020036101000a03801982511681845116808217855250505050505090500191505060006040518083038185875af1925050503d80600081146137d4576040519150601f19603f3d011682016040523d82523d6000602084013e6137d9565b606091505b50915091506137e98282866137f5565b92505050949350505050565b60608315613805578290506138ba565b6000835111156138185782518084602001fd5b816040517f08c379a00000000000000000000000000000000000000000000000000000000081526004018080602001828103825283818151815260200191508051906020019080838360005b8381101561387f578082015181840152602081019050613864565b50505050905090810190601f1680156138ac5780820380516001836020036101000a031916815260200191505b509250505060405180910390fd5b939250505056fe456e756d657261626c655365743a20696e646578206f7574206f6620626f756e64734552433732313a207472616e7366657220746f206e6f6e20455243373231526563656976657220696d706c656d656e7465724f776e61626c653a206e6577206f776e657220697320746865207a65726f20616464726573734552433732313a207472616e7366657220746f20746865207a65726f2061646472657373416464726573733a20696e73756666696369656e742062616c616e636520666f722063616c6c4552433732313a206f70657261746f7220717565727920666f72206e6f6e6578697374656e7420746f6b656e4552433732313a20617070726f76652063616c6c6572206973206e6f74206f776e6572206e6f7220617070726f76656420666f7220616c6c4552433732313a2062616c616e636520717565727920666f7220746865207a65726f20616464726573734552433732313a206f776e657220717565727920666f72206e6f6e6578697374656e7420746f6b656e456e756d657261626c654d61703a20696e646578206f7574206f6620626f756e64734552433732313a20617070726f76656420717565727920666f72206e6f6e6578697374656e7420746f6b656e4552433732313a207472616e73666572206f6620746f6b656e2074686174206973206e6f74206f776e4552433732314d657461646174613a2055524920717565727920666f72206e6f6e6578697374656e7420746f6b656e4552433732313a20617070726f76616c20746f2063757272656e74206f776e65724552433732313a207472616e736665722063616c6c6572206973206e6f74206f776e6572206e6f7220617070726f766564434f4e5452414354204552433732313a20494e56414c49445f544f5f41444452455353a2646970667358221220d0f13bb1571e8a317a22210c94051b280f4a9d769e6bc8c354a4cd63d635449e64736f6c63430007060033",
  "linkReferences": {},
  "deployedLinkReferences": {}
}