{
  "_format": "hh-sol-artifact-1",
  "contractName": "SupeRareV2",
  "sourceName": "contracts/SupeRareV2.sol",
  "abi": [
    {
      "inputs": [
        {
          "internalType": "address",
          "name": "OriginalSupeRareAddr__",
          "type": "address"
        }
      ],
      "stateMutability": "nonpayable",
      "type": "constructor"
    },
    {
      "anonymous": false,
      "inputs": [
        {
          "indexed": true,
          "internalType": "address",
          "name": "owner",
          "type": "address"
        },
        {
          "indexed": true,
          "internalType": "address",
          "name": "approved",
          "type": "address"
        },
        {
          "indexed": true,
          "internalType": "uint256",
          "name": "tokenId",
          "type": "uint256"
        }
      ],
      "name": "Approval",
      "type": "event"
    },
    {
      "anonymous": false,
      "inputs": [
        {
          "indexed": true,
          "internalType": "address",
          "name": "owner",
          "type": "address"
        },
        {
          "indexed": true,
          "internalType": "address",
          "name": "operator",
          "type": "address"
        },
        {
          "indexed": false,
          "internalType": "bool",
          "name": "approved",
          "type": "bool"
        }
      ],
      "name": "ApprovalForAll",
      "type": "event"
    },
    {
      "anonymous": false,
      "inputs": [
        {
          "indexed": true,
          "internalType": "address",
          "name": "previousOwner",
          "type": "address"
        },
        {
          "indexed": true,
          "internalType": "address",
          "name": "newOwner",
          "type": "address"
        }
      ],
      "name": "OwnershipTransferred",
      "type": "event"
    },
    {
      "anonymous": false,
      "inputs": [
        {
          "indexed": true,
          "internalType": "address",
          "name": "OrigV1Owner",
          "type": "address"
        },
        {
          "indexed": true,
          "internalType": "address",
          "name": "NewV1Owner",
          "type": "address"
        },
        {
          "indexed": true,
          "internalType": "uint256",
          "name": "v1TokenId",
          "type": "uint256"
        }
      ],
      "name": "OwnershipUpdated",
      "type": "event"
    },
    {
      "anonymous": false,
      "inputs": [
        {
          "indexed": true,
          "internalType": "address",
          "name": "OrigOwner",
          "type": "address"
        },
        {
          "indexed": true,
          "internalType": "uint256",
          "name": "v2TokenID",
          "type": "uint256"
        },
        {
          "indexed": true,
          "internalType": "uint256",
          "name": "v1TokenID",
          "type": "uint256"
        }
      ],
      "name": "PositionCreated",
      "type": "event"
    },
    {
      "anonymous": false,
      "inputs": [
        {
          "indexed": true,
          "internalType": "address",
          "name": "OrigOwner",
          "type": "address"
        },
        {
          "indexed": true,
          "internalType": "uint256",
          "name": "v2TokenID",
          "type": "uint256"
        },
        {
          "indexed": true,
          "internalType": "uint256",
          "name": "v1TokenID",
          "type": "uint256"
        }
      ],
      "name": "PositionDeleted",
      "type": "event"
    },
    {
      "anonymous": false,
      "inputs": [
        {
          "indexed": false,
          "internalType": "bool",
          "name": "",
          "type": "bool"
        }
      ],
      "name": "ToggleStartStop",
      "type": "event"
    },
    {
      "anonymous": false,
      "inputs": [
        {
          "indexed": true,
          "internalType": "address",
          "name": "from",
          "type": "address"
        },
        {
          "indexed": true,
          "internalType": "address",
          "name": "to",
          "type": "address"
        },
        {
          "indexed": true,
          "internalType": "uint256",
          "name": "tokenId",
          "type": "uint256"
        }
      ],
      "name": "Transfer",
      "type": "event"
    },
    {
      "inputs": [],
      "name": "ToggleContract",
      "outputs": [],
      "stateMutability": "nonpayable",
      "type": "function"
    },
    {
      "inputs": [
        {
          "internalType": "uint256",
          "name": "",
          "type": "uint256"
        }
      ],
      "name": "V1Position",
      "outputs": [
        {
          "internalType": "address",
          "name": "v1Owner",
          "type": "address"
        },
        {
          "internalType": "uint256",
          "name": "v1TokenID",
          "type": "uint256"
        },
        {
          "internalType": "uint256",
          "name": "timeStamp",
          "type": "uint256"
        }
      ],
      "stateMutability": "view",
      "type": "function"
    },
    {
      "inputs": [
        {
          "internalType": "address",
          "name": "to",
          "type": "address"
        },
        {
          "internalType": "uint256",
          "name": "tokenId",
          "type": "uint256"
        }
      ],
      "name": "approve",
      "outputs": [],
      "stateMutability": "nonpayable",
      "type": "function"
    },
    {
      "inputs": [
        {
          "internalType": "address",
          "name": "owner",
          "type": "address"
        }
      ],
      "name": "balanceOf",
      "outputs": [
        {
          "internalType": "uint256",
          "name": "",
          "type": "uint256"
        }
      ],
      "stateMutability": "view",
      "type": "function"
    },
    {
      "inputs": [],
      "name": "baseURI",
      "outputs": [
        {
          "internalType": "string",
          "name": "",
          "type": "string"
        }
      ],
      "stateMutability": "view",
      "type": "function"
    },
    {
      "inputs": [],
      "name": "contract_status",
      "outputs": [
        {
          "internalType": "bool",
          "name": "",
          "type": "bool"
        }
      ],
      "stateMutability": "view",
      "type": "function"
    },
    {
      "inputs": [
        {
          "internalType": "uint256",
          "name": "v1tokenId",
          "type": "uint256"
        }
      ],
      "name": "deposit",
      "outputs": [
        {
          "internalType": "uint256",
          "name": "v2tokenId",
          "type": "uint256"
        }
      ],
      "stateMutability": "nonpayable",
      "type": "function"
    },
    {
      "inputs": [
        {
          "internalType": "uint256",
          "name": "tokenId",
          "type": "uint256"
        }
      ],
      "name": "getApproved",
      "outputs": [
        {
          "internalType": "address",
          "name": "",
          "type": "address"
        }
      ],
      "stateMutability": "view",
      "type": "function"
    },
    {
      "inputs": [
        {
          "internalType": "uint256",
          "name": "v2TokenId",
          "type": "uint256"
        }
      ],
      "name": "getOwnerPosition",
      "outputs": [
        {
          "components": [
            {
              "internalType": "address",
              "name": "v1Owner",
              "type": "address"
            },
            {
              "internalType": "uint256",
              "name": "v1TokenID",
              "type": "uint256"
            },
            {
              "internalType": "uint256",
              "name": "timeStamp",
              "type": "uint256"
            }
          ],
          "internalType": "struct ISupeRareV2.Position",
          "name": "",
          "type": "tuple"
        }
      ],
      "stateMutability": "view",
      "type": "function"
    },
    {
      "inputs": [],
      "name": "getSupeRareAddress",
      "outputs": [
        {
          "internalType": "address",
          "name": "",
          "type": "address"
        }
      ],
      "stateMutability": "view",
      "type": "function"
    },
    {
      "inputs": [
        {
          "internalType": "address",
          "name": "owner",
          "type": "address"
        },
        {
          "internalType": "address",
          "name": "operator",
          "type": "address"
        }
      ],
      "name": "isApprovedForAll",
      "outputs": [
        {
          "internalType": "bool",
          "name": "",
          "type": "bool"
        }
      ],
      "stateMutability": "view",
      "type": "function"
    },
    {
      "inputs": [],
      "name": "name",
      "outputs": [
        {
          "internalType": "string",
          "name": "",
          "type": "string"
        }
      ],
      "stateMutability": "view",
      "type": "function"
    },
    {
      "inputs": [],
      "name": "owner",
      "outputs": [
        {
          "internalType": "address",
          "name": "",
          "type": "address"
        }
      ],
      "stateMutability": "view",
      "type": "function"
    },
    {
      "inputs": [
        {
          "internalType": "address",
          "name": "",
          "type": "address"
        },
        {
          "internalType": "uint256",
          "name": "",
          "type": "uint256"
        }
      ],
      "name": "ownerAddrToV1toV2TokenId",
      "outputs": [
        {
          "internalType": "uint256",
          "name": "",
          "type": "uint256"
        }
      ],
      "stateMutability": "view",
      "type": "function"
    },
    {
      "inputs": [
        {
          "internalType": "uint256",
          "name": "tokenId",
          "type": "uint256"
        }
      ],
      "name": "ownerOf",
      "outputs": [
        {
          "internalType": "address",
          "name": "",
          "type": "address"
        }
      ],
      "stateMutability": "view",
      "type": "function"
    },
    {
      "inputs": [],
      "name": "renounceOwnership",
      "outputs": [],
      "stateMutability": "nonpayable",
      "type": "function"
    },
    {
      "inputs": [
        {
          "internalType": "address",
          "name": "from",
          "type": "address"
        },
        {
          "internalType": "address",
          "name": "to",
          "type": "address"
        },
        {
          "internalType": "uint256",
          "name": "tokenId",
          "type": "uint256"
        }
      ],
      "name": "safeTransferFrom",
      "outputs": [],
      "stateMutability": "nonpayable",
      "type": "function"
    },
    {
      "inputs": [
        {
          "internalType": "address",
          "name": "from",
          "type": "address"
        },
        {
          "internalType": "address",
          "name": "to",
          "type": "address"
        },
        {
          "internalType": "uint256",
          "name": "tokenId",
          "type": "uint256"
        },
        {
          "internalType": "bytes",
          "name": "_data",
          "type": "bytes"
        }
      ],
      "name": "safeTransferFrom",
      "outputs": [],
      "stateMutability": "nonpayable",
      "type": "function"
    },
    {
      "inputs": [
        {
          "internalType": "address",
          "name": "operator",
          "type": "address"
        },
        {
          "internalType": "bool",
          "name": "approved",
          "type": "bool"
        }
      ],
      "name": "setApprovalForAll",
      "outputs": [],
      "stateMutability": "nonpayable",
      "type": "function"
    },
    {
      "inputs": [
        {
          "internalType": "bytes4",
          "name": "interfaceId",
          "type": "bytes4"
        }
      ],
      "name": "supportsInterface",
      "outputs": [
        {
          "internalType": "bool",
          "name": "",
          "type": "bool"
        }
      ],
      "stateMutability": "view",
      "type": "function"
    },
    {
      "inputs": [],
      "name": "symbol",
      "outputs": [
        {
          "internalType": "string",
          "name": "",
          "type": "string"
        }
      ],
      "stateMutability": "view",
      "type": "function"
    },
    {
      "inputs": [
        {
          "internalType": "uint256",
          "name": "index",
          "type": "uint256"
        }
      ],
      "name": "tokenByIndex",
      "outputs": [
        {
          "internalType": "uint256",
          "name": "",
          "type": "uint256"
        }
      ],
      "stateMutability": "view",
      "type": "function"
    },
    {
      "inputs": [
        {
          "internalType": "address",
          "name": "owner",
          "type": "address"
        },
        {
          "internalType": "uint256",
          "name": "index",
          "type": "uint256"
        }
      ],
      "name": "tokenOfOwnerByIndex",
      "outputs": [
        {
          "internalType": "uint256",
          "name": "",
          "type": "uint256"
        }
      ],
      "stateMutability": "view",
      "type": "function"
    },
    {
      "inputs": [
        {
          "internalType": "uint256",
          "name": "tokenId",
          "type": "uint256"
        }
      ],
      "name": "tokenURI",
      "outputs": [
        {
          "internalType": "string",
          "name": "",
          "type": "string"
        }
      ],
      "stateMutability": "view",
      "type": "function"
    },
    {
      "inputs": [],
      "name": "totalSupply",
      "outputs": [
        {
          "internalType": "uint256",
          "name": "",
          "type": "uint256"
        }
      ],
      "stateMutability": "view",
      "type": "function"
    },
    {
      "inputs": [
        {
          "internalType": "address",
          "name": "from",
          "type": "address"
        },
        {
          "internalType": "address",
          "name": "to",
          "type": "address"
        },
        {
          "internalType": "uint256",
          "name": "tokenId",
          "type": "uint256"
        }
      ],
      "name": "transferFrom",
      "outputs": [],
      "stateMutability": "nonpayable",
      "type": "function"
    },
    {
      "inputs": [
        {
          "internalType": "address",
          "name": "newOwner",
          "type": "address"
        }
      ],
      "name": "transferOwnership",
      "outputs": [],
      "stateMutability": "nonpayable",
      "type": "function"
    },
    {
      "inputs": [
        {
          "internalType": "uint256",
          "name": "v1tokenId",
          "type": "uint256"
        }
      ],
      "name": "updateOwnership",
      "outputs": [
        {
          "internalType": "bool",
          "name": "",
          "type": "bool"
        }
      ],
      "stateMutability": "nonpayable",
      "type": "function"
    },
    {
      "inputs": [
        {
          "internalType": "uint256",
          "name": "v1TokenId",
          "type": "uint256"
        }
      ],
      "name": "withdraw",
      "outputs": [
        {
          "internalType": "bool",
          "name": "",
          "type": "bool"
        }
      ],
      "stateMutability": "nonpayable",
      "type": "function"
    }
  ],
  "bytecode": "0x60806040526001600e60006101000a81548175ffffffffffffffffffffffffffffffffffffffffffff021916908375ffffffffffffffffffffffffffffffffffffffffffff1602179055503480156200005757600080fd5b50604051620045383803806200453883398181016040528101906200007d9190620004b6565b6040518060400160405280600a81526020017f53757065526172655632000000000000000000000000000000000000000000008152506040518060400160405280600681526020017f53555052563200000000000000000000000000000000000000000000000000008152506000620000fb620002d860201b60201c565b9050806000806101000a81548173ffffffffffffffffffffffffffffffffffffffff021916908373ffffffffffffffffffffffffffffffffffffffff1602179055508073ffffffffffffffffffffffffffffffffffffffff16600073ffffffffffffffffffffffffffffffffffffffff167f8be0079c531659141344cd1fd0a4f28419497f9722a3daafe3b4186f6b6457e060405160405180910390a350620001b16301ffc9a760e01b620002e060201b60201c565b8160079080519060200190620001c9929190620003e9565b508060089080519060200190620001e2929190620003e9565b50620001fb6380ac58cd60e01b620002e060201b60201c565b62000213635b5e139f60e01b620002e060201b60201c565b6200022b63780e9d6360e01b620002e060201b60201c565b505080600b60006101000a81548173ffffffffffffffffffffffffffffffffffffffff021916908373ffffffffffffffffffffffffffffffffffffffff160217905550600b60009054906101000a900473ffffffffffffffffffffffffffffffffffffffff16600c60006101000a81548173ffffffffffffffffffffffffffffffffffffffff021916908373ffffffffffffffffffffffffffffffffffffffff1602179055505062000530565b600033905090565b63ffffffff60e01b817bffffffffffffffffffffffffffffffffffffffffffffffffffffffff191614156200037d576040517f08c379a000000000000000000000000000000000000000000000000000000000815260040180806020018281038252601c8152602001807f4552433136353a20696e76616c696420696e746572666163652069640000000081525060200191505060405180910390fd5b6001806000837bffffffffffffffffffffffffffffffffffffffffffffffffffffffff19167bffffffffffffffffffffffffffffffffffffffffffffffffffffffff1916815260200190815260200160002060006101000a81548160ff02191690831515021790555050565b828054600181600116156101000203166002900490600052602060002090601f0160209004810192826200042157600085556200046d565b82601f106200043c57805160ff19168380011785556200046d565b828001600101855582156200046d579182015b828111156200046c5782518255916020019190600101906200044f565b5b5090506200047c919062000480565b5090565b5b808211156200049b57600081600090555060010162000481565b5090565b600081519050620004b08162000516565b92915050565b600060208284031215620004c957600080fd5b6000620004d9848285016200049f565b91505092915050565b6000620004ef82620004f6565b9050919050565b600073ffffffffffffffffffffffffffffffffffffffff82169050919050565b6200052181620004e2565b81146200052d57600080fd5b50565b613ff880620005406000396000f3fe608060405234801561001057600080fd5b50600436106101cf5760003560e01c80636c0360eb11610104578063a22cb465116100a2578063cfa2e00411610071578063cfa2e0041461057e578063e731493114610588578063e985e9c5146105b8578063f2fde38b146105e8576101cf565b8063a22cb465146104e6578063b6b55f2514610502578063b88d4fde14610532578063c87b56dd1461054e576101cf565b806370a08231116100de57806370a0823114610470578063715018a6146104a05780638da5cb5b146104aa57806395d89b41146104c8576101cf565b80636c0360eb146103f05780636c0e67541461040e5780636d35f9ae1461043e576101cf565b80632b1bf48f11610171578063364647891161014b578063364647891461035657806342842e0e146103745780634f6ccce7146103905780636352211e146103c0576101cf565b80632b1bf48f146102d85780632e1a7d4d146102f65780632f745c5914610326576101cf565b8063095ea7b3116101ad578063095ea7b3146102525780630a4c33811461026e57806318160ddd1461029e57806323b872dd146102bc576101cf565b806301ffc9a7146101d457806306fdde0314610204578063081812fc14610222575b600080fd5b6101ee60048036038101906101e9919061388a565b610604565b6040516101fb9190613ada565b60405180910390f35b61020c61066c565b6040516102199190613af5565b60405180910390f35b61023c600480360381019061023791906138b3565b61070e565b6040516102499190613a88565b60405180910390f35b61026c6004803603810190610267919061384e565b6107a9565b005b610288600480360381019061028391906138b3565b6108ed565b6040516102959190613b77565b60405180910390f35b6102a6610984565b6040516102b39190613b92565b60405180910390f35b6102d660048036038101906102d19190613748565b610995565b005b6102e0610a0b565b6040516102ed9190613ada565b60405180910390f35b610310600480360381019061030b91906138b3565b610a22565b60405161031d9190613ada565b60405180910390f35b610340600480360381019061033b919061384e565b610c09565b60405161034d9190613b92565b60405180910390f35b61035e610c64565b60405161036b9190613a88565b60405180910390f35b61038e60048036038101906103899190613748565b610c8e565b005b6103aa60048036038101906103a591906138b3565b610cae565b6040516103b79190613b92565b60405180910390f35b6103da60048036038101906103d591906138b3565b610cd1565b6040516103e79190613a88565b60405180910390f35b6103f8610d08565b6040516104059190613af5565b60405180910390f35b6104286004803603810190610423919061384e565b610daa565b6040516104359190613b92565b60405180910390f35b610458600480360381019061045391906138b3565b610dcf565b60405161046793929190613aa3565b60405180910390f35b61048a600480360381019061048591906136ba565b610e19565b6040516104979190613b92565b60405180910390f35b6104a8610eee565b005b6104b261105b565b6040516104bf9190613a88565b60405180910390f35b6104d0611084565b6040516104dd9190613af5565b60405180910390f35b61050060048036038101906104fb9190613812565b611126565b005b61051c600480360381019061051791906138b3565b6112dc565b6040516105299190613b92565b60405180910390f35b61054c60048036038101906105479190613797565b61165b565b005b610568600480360381019061056391906138b3565b6116d3565b6040516105759190613af5565b60405180910390f35b6105866119a4565b005b6105a2600480360381019061059d91906138b3565b611ac5565b6040516105af9190613ada565b60405180910390f35b6105d260048036038101906105cd919061370c565b611d59565b6040516105df9190613ada565b60405180910390f35b61060260048036038101906105fd91906136ba565b611ded565b005b600060016000837bffffffffffffffffffffffffffffffffffffffffffffffffffffffff19167bffffffffffffffffffffffffffffffffffffffffffffffffffffffff1916815260200190815260200160002060009054906101000a900460ff169050919050565b606060078054600181600116156101000203166002900480601f0160208091040260200160405190810160405280929190818152602001828054600181600116156101000203166002900480156107045780601f106106d957610100808354040283529160200191610704565b820191906000526020600020905b8154815290600101906020018083116106e757829003601f168201915b5050505050905090565b600061071982611fdf565b61076e576040517f08c379a000000000000000000000000000000000000000000000000000000000815260040180806020018281038252602c815260200180613eed602c913960400191505060405180910390fd5b6005600083815260200190815260200160002060009054906101000a900473ffffffffffffffffffffffffffffffffffffffff169050919050565b60006107b482610cd1565b90508073ffffffffffffffffffffffffffffffffffffffff168373ffffffffffffffffffffffffffffffffffffffff16141561083b576040517f08c379a0000000000000000000000000000000000000000000000000000000008152600401808060200182810382526021815260200180613f716021913960400191505060405180910390fd5b8073ffffffffffffffffffffffffffffffffffffffff1661085a611ffc565b73ffffffffffffffffffffffffffffffffffffffff161480610889575061088881610883611ffc565b611d59565b5b6108de576040517f08c379a0000000000000000000000000000000000000000000000000000000008152600401808060200182810382526038815260200180613e406038913960400191505060405180910390fd5b6108e88383612004565b505050565b6108f561354d565b601060008381526020019081526020016000206040518060600160405290816000820160009054906101000a900473ffffffffffffffffffffffffffffffffffffffff1673ffffffffffffffffffffffffffffffffffffffff1673ffffffffffffffffffffffffffffffffffffffff168152602001600182015481526020016002820154815250509050919050565b600061099060036120bd565b905090565b6109a66109a0611ffc565b826120d2565b6109fb576040517f08c379a0000000000000000000000000000000000000000000000000000000008152600401808060200182810382526031815260200180613f926031913960400191505060405180910390fd5b610a068383836121c6565b505050565b6000600d60149054906101000a900460ff16905090565b600081610a2d611ffc565b73ffffffffffffffffffffffffffffffffffffffff16600c60009054906101000a900473ffffffffffffffffffffffffffffffffffffffff1673ffffffffffffffffffffffffffffffffffffffff16636352211e836040518263ffffffff1660e01b8152600401610a9e9190613b92565b60206040518083038186803b158015610ab657600080fd5b505afa158015610aca573d6000803e3d6000fd5b505050506040513d601f19601f82011682018060405250810190610aee91906136e3565b73ffffffffffffffffffffffffffffffffffffffff1614610b44576040517f08c379a0000000000000000000000000000000000000000000000000000000008152600401610b3b90613b17565b60405180910390fd5b6000600f6000858152602001908152602001600020549050610b6581612409565b60106000858152602001908152602001600020600080820160006101000a81549073ffffffffffffffffffffffffffffffffffffffff02191690556001820160009055600282016000905550508381610bbc611ffc565b73ffffffffffffffffffffffffffffffffffffffff167fd79277f11bea144980bafa77ca965aba93645c81e42b4d49a466097ff270e50160405160405180910390a4600192505050919050565b6000610c5c82600260008673ffffffffffffffffffffffffffffffffffffffff1673ffffffffffffffffffffffffffffffffffffffff16815260200190815260200160002061254390919063ffffffff16565b905092915050565b6000600b60009054906101000a900473ffffffffffffffffffffffffffffffffffffffff16905090565b610ca98383836040518060200160405280600081525061165b565b505050565b600080610cc583600361255d90919063ffffffff16565b50905080915050919050565b6000610d0182604051806060016040528060298152602001613ea26029913960036125899092919063ffffffff16565b9050919050565b6060600a8054600181600116156101000203166002900480601f016020809104026020016040519081016040528092919081815260200182805460018160011615610100020316600290048015610da05780601f10610d7557610100808354040283529160200191610da0565b820191906000526020600020905b815481529060010190602001808311610d8357829003601f168201915b5050505050905090565b6011602052816000526040600020602052806000526040600020600091509150505481565b60106020528060005260406000206000915090508060000160009054906101000a900473ffffffffffffffffffffffffffffffffffffffff16908060010154908060020154905083565b60008073ffffffffffffffffffffffffffffffffffffffff168273ffffffffffffffffffffffffffffffffffffffff161415610ea0576040517f08c379a000000000000000000000000000000000000000000000000000000000815260040180806020018281038252602a815260200180613e78602a913960400191505060405180910390fd5b610ee7600260008473ffffffffffffffffffffffffffffffffffffffff1673ffffffffffffffffffffffffffffffffffffffff1681526020019081526020016000206125a8565b9050919050565b610ef6611ffc565b73ffffffffffffffffffffffffffffffffffffffff16610f1461105b565b73ffffffffffffffffffffffffffffffffffffffff1614610f9d576040517f08c379a00000000000000000000000000000000000000000000000000000000081526004018080602001828103825260208152602001807f4f776e61626c653a2063616c6c6572206973206e6f7420746865206f776e657281525060200191505060405180910390fd5b600073ffffffffffffffffffffffffffffffffffffffff1660008054906101000a900473ffffffffffffffffffffffffffffffffffffffff1673ffffffffffffffffffffffffffffffffffffffff167f8be0079c531659141344cd1fd0a4f28419497f9722a3daafe3b4186f6b6457e060405160405180910390a360008060006101000a81548173ffffffffffffffffffffffffffffffffffffffff021916908373ffffffffffffffffffffffffffffffffffffffff160217905550565b60008060009054906101000a900473ffffffffffffffffffffffffffffffffffffffff16905090565b606060088054600181600116156101000203166002900480601f01602080910402602001604051908101604052809291908181526020018280546001816001161561010002031660029004801561111c5780601f106110f15761010080835404028352916020019161111c565b820191906000526020600020905b8154815290600101906020018083116110ff57829003601f168201915b5050505050905090565b61112e611ffc565b73ffffffffffffffffffffffffffffffffffffffff168273ffffffffffffffffffffffffffffffffffffffff1614156111cf576040517f08c379a00000000000000000000000000000000000000000000000000000000081526004018080602001828103825260198152602001807f4552433732313a20617070726f766520746f2063616c6c65720000000000000081525060200191505060405180910390fd5b80600660006111dc611ffc565b73ffffffffffffffffffffffffffffffffffffffff1673ffffffffffffffffffffffffffffffffffffffff16815260200190815260200160002060008473ffffffffffffffffffffffffffffffffffffffff1673ffffffffffffffffffffffffffffffffffffffff16815260200190815260200160002060006101000a81548160ff0219169083151502179055508173ffffffffffffffffffffffffffffffffffffffff16611289611ffc565b73ffffffffffffffffffffffffffffffffffffffff167f17307eab39ab6107e8899845ad3d59bd9653f200f220920489ca2b5937696c318360405180821515815260200191505060405180910390a35050565b6000600d60149054906101000a900460ff161561132e576040517f08c379a000000000000000000000000000000000000000000000000000000000815260040161132590613b57565b60405180910390fd5b81611337611ffc565b73ffffffffffffffffffffffffffffffffffffffff16600c60009054906101000a900473ffffffffffffffffffffffffffffffffffffffff1673ffffffffffffffffffffffffffffffffffffffff16636352211e836040518263ffffffff1660e01b81526004016113a89190613b92565b60206040518083038186803b1580156113c057600080fd5b505afa1580156113d4573d6000803e3d6000fd5b505050506040513d601f19601f820116820180604052508101906113f891906136e3565b73ffffffffffffffffffffffffffffffffffffffff161461144e576040517f08c379a000000000000000000000000000000000000000000000000000000000815260040161144590613b17565b60405180910390fd5b6000600f600085815260200190815260200160002054146114a4576040517f08c379a000000000000000000000000000000000000000000000000000000000815260040161149b90613b37565b60405180910390fd5b61153f6114af611ffc565b600e600081819054906101000a900475ffffffffffffffffffffffffffffffffffffffffffff168092919060010191906101000a81548175ffffffffffffffffffffffffffffffffffffffffffff021916908375ffffffffffffffffffffffffffffffffffffffffffff16021790555075ffffffffffffffffffffffffffffffffffffffffffff169350836125bd565b611548826127b1565b604051806060016040528061155b611ffc565b73ffffffffffffffffffffffffffffffffffffffff168152602001848152602001428152506010600084815260200190815260200160002060008201518160000160006101000a81548173ffffffffffffffffffffffffffffffffffffffff021916908373ffffffffffffffffffffffffffffffffffffffff160217905550602082015181600101556040820151816002015590505081600f6000858152602001908152602001600020819055508282611613611ffc565b73ffffffffffffffffffffffffffffffffffffffff167f4b82aa16e071a61de1a6b9aeec9edab0356331f8122c78683b469ac8e685dabc60405160405180910390a450919050565b61166c611666611ffc565b836120d2565b6116c1576040517f08c379a0000000000000000000000000000000000000000000000000000000008152600401808060200182810382526031815260200180613f926031913960400191505060405180910390fd5b6116cd8484848461284a565b50505050565b60606116de82611fdf565b611733576040517f08c379a000000000000000000000000000000000000000000000000000000000815260040180806020018281038252602f815260200180613f42602f913960400191505060405180910390fd5b6000600960008481526020019081526020016000208054600181600116156101000203166002900480601f0160208091040260200160405190810160405280929190818152602001828054600181600116156101000203166002900480156117dc5780601f106117b1576101008083540402835291602001916117dc565b820191906000526020600020905b8154815290600101906020018083116117bf57829003601f168201915b5050505050905060006117ed610d08565b905060008151141561180357819250505061199f565b6000825111156118d45780826040516020018083805190602001908083835b602083106118455780518252602082019150602081019050602083039250611822565b6001836020036101000a03801982511681845116808217855250505050505090500182805190602001908083835b602083106118965780518252602082019150602081019050602083039250611873565b6001836020036101000a038019825116818451168082178552505050505050905001925050506040516020818303038152906040529250505061199f565b806118de856128bc565b6040516020018083805190602001908083835b6020831061191457805182526020820191506020810190506020830392506118f1565b6001836020036101000a03801982511681845116808217855250505050505090500182805190602001908083835b602083106119655780518252602082019150602081019050602083039250611942565b6001836020036101000a03801982511681845116808217855250505050505090500192505050604051602081830303815290604052925050505b919050565b6119ac611ffc565b73ffffffffffffffffffffffffffffffffffffffff166119ca61105b565b73ffffffffffffffffffffffffffffffffffffffff1614611a53576040517f08c379a00000000000000000000000000000000000000000000000000000000081526004018080602001828103825260208152602001807f4f776e61626c653a2063616c6c6572206973206e6f7420746865206f776e657281525060200191505060405180910390fd5b600d60149054906101000a900460ff1615600d60146101000a81548160ff0219169083151502179055507f52b85b02b7d21238e828a5c4da635eedf42851c8d1db199f9d414f941e89b650600d60149054906101000a900460ff16604051611abb9190613ada565b60405180910390a1565b600081611ad0611ffc565b73ffffffffffffffffffffffffffffffffffffffff16600c60009054906101000a900473ffffffffffffffffffffffffffffffffffffffff1673ffffffffffffffffffffffffffffffffffffffff16636352211e836040518263ffffffff1660e01b8152600401611b419190613b92565b60206040518083038186803b158015611b5957600080fd5b505afa158015611b6d573d6000803e3d6000fd5b505050506040513d601f19601f82011682018060405250810190611b9191906136e3565b73ffffffffffffffffffffffffffffffffffffffff1614611be7576040517f08c379a0000000000000000000000000000000000000000000000000000000008152600401611bde90613b17565b60405180910390fd5b6000600f600085815260200190815260200160002054905060006010600083815260200190815260200160002060000160009054906101000a900473ffffffffffffffffffffffffffffffffffffffff169050611c42611ffc565b73ffffffffffffffffffffffffffffffffffffffff168173ffffffffffffffffffffffffffffffffffffffff1614611d4d57611c7c611ffc565b6010600084815260200190815260200160002060000160006101000a81548173ffffffffffffffffffffffffffffffffffffffff021916908373ffffffffffffffffffffffffffffffffffffffff160217905550611cd982612409565b611cea611ce4611ffc565b836125bd565b84611cf3611ffc565b73ffffffffffffffffffffffffffffffffffffffff168273ffffffffffffffffffffffffffffffffffffffff167fe675f572dcfc5101e1fe21b48072603841bd2aaa5c26f8bb6ec6bcb843c5e3c060405160405180910390a45b60019350505050919050565b6000600660008473ffffffffffffffffffffffffffffffffffffffff1673ffffffffffffffffffffffffffffffffffffffff16815260200190815260200160002060008373ffffffffffffffffffffffffffffffffffffffff1673ffffffffffffffffffffffffffffffffffffffff16815260200190815260200160002060009054906101000a900460ff16905092915050565b611df5611ffc565b73ffffffffffffffffffffffffffffffffffffffff16611e1361105b565b73ffffffffffffffffffffffffffffffffffffffff1614611e9c576040517f08c379a00000000000000000000000000000000000000000000000000000000081526004018080602001828103825260208152602001807f4f776e61626c653a2063616c6c6572206973206e6f7420746865206f776e657281525060200191505060405180910390fd5b600073ffffffffffffffffffffffffffffffffffffffff168173ffffffffffffffffffffffffffffffffffffffff161415611f22576040517f08c379a0000000000000000000000000000000000000000000000000000000008152600401808060200182810382526026815260200180613da46026913960400191505060405180910390fd5b8073ffffffffffffffffffffffffffffffffffffffff1660008054906101000a900473ffffffffffffffffffffffffffffffffffffffff1673ffffffffffffffffffffffffffffffffffffffff167f8be0079c531659141344cd1fd0a4f28419497f9722a3daafe3b4186f6b6457e060405160405180910390a3806000806101000a81548173ffffffffffffffffffffffffffffffffffffffff021916908373ffffffffffffffffffffffffffffffffffffffff16021790555050565b6000611ff5826003612a0390919063ffffffff16565b9050919050565b600033905090565b816005600083815260200190815260200160002060006101000a81548173ffffffffffffffffffffffffffffffffffffffff021916908373ffffffffffffffffffffffffffffffffffffffff160217905550808273ffffffffffffffffffffffffffffffffffffffff1661207783610cd1565b73ffffffffffffffffffffffffffffffffffffffff167f8c5be1e5ebec7d5bd14f71427d1e84f3dd0314c0f7b2291e5b200ac8c7c3b92560405160405180910390a45050565b60006120cb82600001612a1d565b9050919050565b60006120dd82611fdf565b612132576040517f08c379a000000000000000000000000000000000000000000000000000000000815260040180806020018281038252602c815260200180613e14602c913960400191505060405180910390fd5b600061213d83610cd1565b90508073ffffffffffffffffffffffffffffffffffffffff168473ffffffffffffffffffffffffffffffffffffffff1614806121ac57508373ffffffffffffffffffffffffffffffffffffffff166121948461070e565b73ffffffffffffffffffffffffffffffffffffffff16145b806121bd57506121bc8185611d59565b5b91505092915050565b8273ffffffffffffffffffffffffffffffffffffffff166121e682610cd1565b73ffffffffffffffffffffffffffffffffffffffff1614612252576040517f08c379a0000000000000000000000000000000000000000000000000000000008152600401808060200182810382526029815260200180613f196029913960400191505060405180910390fd5b600073ffffffffffffffffffffffffffffffffffffffff168273ffffffffffffffffffffffffffffffffffffffff1614156122d8576040517f08c379a0000000000000000000000000000000000000000000000000000000008152600401808060200182810382526024815260200180613dca6024913960400191505060405180910390fd5b6122e3838383612a2e565b6122ee600082612004565b61233f81600260008673ffffffffffffffffffffffffffffffffffffffff1673ffffffffffffffffffffffffffffffffffffffff168152602001908152602001600020612a3390919063ffffffff16565b5061239181600260008573ffffffffffffffffffffffffffffffffffffffff1673ffffffffffffffffffffffffffffffffffffffff168152602001908152602001600020612a4d90919063ffffffff16565b506123a881836003612a679092919063ffffffff16565b50808273ffffffffffffffffffffffffffffffffffffffff168473ffffffffffffffffffffffffffffffffffffffff167fddf252ad1be2c89b69c2b068fc378daa952ba7f163c4a11628f55a4df523b3ef60405160405180910390a4505050565b600061241482610cd1565b905061242281600084612a2e565b61242d600083612004565b6000600960008481526020019081526020016000208054600181600116156101000203166002900490501461247c5760096000838152602001908152602001600020600061247b9190613584565b5b6124cd82600260008473ffffffffffffffffffffffffffffffffffffffff1673ffffffffffffffffffffffffffffffffffffffff168152602001908152602001600020612a3390919063ffffffff16565b506124e2826003612a9c90919063ffffffff16565b5081600073ffffffffffffffffffffffffffffffffffffffff168273ffffffffffffffffffffffffffffffffffffffff167fddf252ad1be2c89b69c2b068fc378daa952ba7f163c4a11628f55a4df523b3ef60405160405180910390a45050565b60006125528360000183612ab6565b60001c905092915050565b6000806000806125708660000186612b39565b915091508160001c8160001c9350935050509250929050565b600061259c846000018460001b84612bd2565b60001c90509392505050565b60006125b682600001612cc8565b9050919050565b600073ffffffffffffffffffffffffffffffffffffffff168273ffffffffffffffffffffffffffffffffffffffff161415612660576040517f08c379a00000000000000000000000000000000000000000000000000000000081526004018080602001828103825260208152602001807f4552433732313a206d696e7420746f20746865207a65726f206164647265737381525060200191505060405180910390fd5b61266981611fdf565b156126dc576040517f08c379a000000000000000000000000000000000000000000000000000000000815260040180806020018281038252601c8152602001807f4552433732313a20746f6b656e20616c7265616479206d696e7465640000000081525060200191505060405180910390fd5b6126e860008383612a2e565b61273981600260008573ffffffffffffffffffffffffffffffffffffffff1673ffffffffffffffffffffffffffffffffffffffff168152602001908152602001600020612a4d90919063ffffffff16565b5061275081836003612a679092919063ffffffff16565b50808273ffffffffffffffffffffffffffffffffffffffff16600073ffffffffffffffffffffffffffffffffffffffff167fddf252ad1be2c89b69c2b068fc378daa952ba7f163c4a11628f55a4df523b3ef60405160405180910390a45050565b61284781604051602401808281526020019150506040516020818303038152906040527ff82c50f1000000000000000000000000000000000000000000000000000000007bffffffffffffffffffffffffffffffffffffffffffffffffffffffff19166020820180517bffffffffffffffffffffffffffffffffffffffffffffffffffffffff8381831617835250505050612cd9565b50565b6128558484846121c6565b61286184848484612d02565b6128b6576040517f08c379a0000000000000000000000000000000000000000000000000000000008152600401808060200182810382526032815260200180613d726032913960400191505060405180910390fd5b50505050565b60606000821415612904576040518060400160405280600181526020017f300000000000000000000000000000000000000000000000000000000000000081525090506129fe565b600082905060005b6000821461292e578080600101915050600a828161292657fe5b04915061290c565b60008167ffffffffffffffff8111801561294757600080fd5b506040519080825280601f01601f19166020018201604052801561297a5781602001600182028036833780820191505090505b50905060006001830390508593505b600084146129f657600a848161299b57fe5b0660300160f81b828280600190039350815181106129b557fe5b60200101907effffffffffffffffffffffffffffffffffffffffffffffffffffffffffffff1916908160001a905350600a84816129ee57fe5b049350612989565b819450505050505b919050565b6000612a15836000018360001b612f1b565b905092915050565b600081600001805490509050919050565b505050565b6000612a45836000018360001b612f3e565b905092915050565b6000612a5f836000018360001b613026565b905092915050565b6000612a93846000018460001b8473ffffffffffffffffffffffffffffffffffffffff1660001b613096565b90509392505050565b6000612aae836000018360001b613172565b905092915050565b600081836000018054905011612b17576040517f08c379a0000000000000000000000000000000000000000000000000000000008152600401808060200182810382526022815260200180613d506022913960400191505060405180910390fd5b826000018281548110612b2657fe5b9060005260206000200154905092915050565b60008082846000018054905011612b9b576040517f08c379a0000000000000000000000000000000000000000000000000000000008152600401808060200182810382526022815260200180613ecb6022913960400191505060405180910390fd5b6000846000018481548110612bac57fe5b906000526020600020906002020190508060000154816001015492509250509250929050565b60008084600101600085815260200190815260200160002054905060008114158390612c99576040517f08c379a00000000000000000000000000000000000000000000000000000000081526004018080602001828103825283818151815260200191508051906020019080838360005b83811015612c5e578082015181840152602081019050612c43565b50505050905090810190601f168015612c8b5780820380516001836020036101000a031916815260200191505b509250505060405180910390fd5b50846000016001820381548110612cac57fe5b9060005260206000209060020201600101549150509392505050565b600081600001805490509050919050565b60008151905060006a636f6e736f6c652e6c6f679050602083016000808483855afa5050505050565b6000612d238473ffffffffffffffffffffffffffffffffffffffff1661328b565b612d305760019050612f13565b6000612e9a63150b7a0260e01b612d45611ffc565b888787604051602401808573ffffffffffffffffffffffffffffffffffffffff1681526020018473ffffffffffffffffffffffffffffffffffffffff16815260200183815260200180602001828103825283818151815260200191508051906020019080838360005b83811015612dc9578082015181840152602081019050612dae565b50505050905090810190601f168015612df65780820380516001836020036101000a031916815260200191505b5095505050505050604051602081830303815290604052907bffffffffffffffffffffffffffffffffffffffffffffffffffffffff19166020820180517bffffffffffffffffffffffffffffffffffffffffffffffffffffffff8381831617835250505050604051806060016040528060328152602001613d72603291398773ffffffffffffffffffffffffffffffffffffffff1661329e9092919063ffffffff16565b90506000818060200190516020811015612eb357600080fd5b8101908080519060200190929190505050905063150b7a0260e01b7bffffffffffffffffffffffffffffffffffffffffffffffffffffffff1916817bffffffffffffffffffffffffffffffffffffffffffffffffffffffff191614925050505b949350505050565b600080836001016000848152602001908152602001600020541415905092915050565b6000808360010160008481526020019081526020016000205490506000811461301a5760006001820390506000600186600001805490500390506000866000018281548110612f8957fe5b9060005260206000200154905080876000018481548110612fa657fe5b9060005260206000200181905550600183018760010160008381526020019081526020016000208190555086600001805480612fde57fe5b60019003818190600052602060002001600090559055866001016000878152602001908152602001600020600090556001945050505050613020565b60009150505b92915050565b600061303283836132b6565b61308b578260000182908060018154018082558091505060019003906000526020600020016000909190919091505582600001805490508360010160008481526020019081526020016000208190555060019050613090565b600090505b92915050565b600080846001016000858152602001908152602001600020549050600081141561313d5784600001604051806040016040528086815260200185815250908060018154018082558091505060019003906000526020600020906002020160009091909190915060008201518160000155602082015181600101555050846000018054905085600101600086815260200190815260200160002081905550600191505061316b565b8285600001600183038154811061315057fe5b90600052602060002090600202016001018190555060009150505b9392505050565b6000808360010160008481526020019081526020016000205490506000811461327f57600060018203905060006001866000018054905003905060008660000182815481106131bd57fe5b90600052602060002090600202019050808760000184815481106131dd57fe5b906000526020600020906002020160008201548160000155600182015481600101559050506001830187600101600083600001548152602001908152602001600020819055508660000180548061323057fe5b6001900381819060005260206000209060020201600080820160009055600182016000905550509055866001016000878152602001908152602001600020600090556001945050505050613285565b60009150505b92915050565b600080823b905060008111915050919050565b60606132ad84846000856132d9565b90509392505050565b600080836001016000848152602001908152602001600020541415905092915050565b606082471015613334576040517f08c379a0000000000000000000000000000000000000000000000000000000008152600401808060200182810382526026815260200180613dee6026913960400191505060405180910390fd5b61333d8561328b565b6133af576040517f08c379a000000000000000000000000000000000000000000000000000000000815260040180806020018281038252601d8152602001807f416464726573733a2063616c6c20746f206e6f6e2d636f6e747261637400000081525060200191505060405180910390fd5b6000808673ffffffffffffffffffffffffffffffffffffffff1685876040518082805190602001908083835b602083106133fe57805182526020820191506020810190506020830392506133db565b6001836020036101000a03801982511681845116808217855250505050505090500191505060006040518083038185875af1925050503d8060008114613460576040519150601f19603f3d011682016040523d82523d6000602084013e613465565b606091505b5091509150613475828286613481565b92505050949350505050565b6060831561349157829050613546565b6000835111156134a45782518084602001fd5b816040517f08c379a00000000000000000000000000000000000000000000000000000000081526004018080602001828103825283818151815260200191508051906020019080838360005b8381101561350b5780820151818401526020810190506134f0565b50505050905090810190601f1680156135385780820380516001836020036101000a031916815260200191505b509250505060405180910390fd5b9392505050565b6040518060600160405280600073ffffffffffffffffffffffffffffffffffffffff16815260200160008152602001600081525090565b50805460018160011615610100020316600290046000825580601f106135aa57506135c9565b601f0160209004906000526020600020908101906135c891906135cc565b5b50565b5b808211156135e55760008160009055506001016135cd565b5090565b60006135fc6135f784613bde565b613bad565b90508281526020810184848401111561361457600080fd5b61361f848285613c9e565b509392505050565b60008135905061363681613cf3565b92915050565b60008151905061364b81613cf3565b92915050565b60008135905061366081613d0a565b92915050565b60008135905061367581613d21565b92915050565b600082601f83011261368c57600080fd5b813561369c8482602086016135e9565b91505092915050565b6000813590506136b481613d38565b92915050565b6000602082840312156136cc57600080fd5b60006136da84828501613627565b91505092915050565b6000602082840312156136f557600080fd5b60006137038482850161363c565b91505092915050565b6000806040838503121561371f57600080fd5b600061372d85828601613627565b925050602061373e85828601613627565b9150509250929050565b60008060006060848603121561375d57600080fd5b600061376b86828701613627565b935050602061377c86828701613627565b925050604061378d868287016136a5565b9150509250925092565b600080600080608085870312156137ad57600080fd5b60006137bb87828801613627565b94505060206137cc87828801613627565b93505060406137dd878288016136a5565b925050606085013567ffffffffffffffff8111156137fa57600080fd5b6138068782880161367b565b91505092959194509250565b6000806040838503121561382557600080fd5b600061383385828601613627565b925050602061384485828601613651565b9150509250929050565b6000806040838503121561386157600080fd5b600061386f85828601613627565b9250506020613880858286016136a5565b9150509250929050565b60006020828403121561389c57600080fd5b60006138aa84828501613666565b91505092915050565b6000602082840312156138c557600080fd5b60006138d3848285016136a5565b91505092915050565b6138e581613c2a565b82525050565b6138f481613c2a565b82525050565b61390381613c3c565b82525050565b600061391482613c0e565b61391e8185613c19565b935061392e818560208601613cad565b61393781613ce2565b840191505092915050565b600061394f603283613c19565b91507f537570655261726556323a204e6f7420746865204f776e6572206f662074686560008301527f205375706552617265563120546f6b656e2100000000000000000000000000006020830152604082019050919050565b60006139b5601e83613c19565b91507f53757065526172652056323a204475706c6963617465204465706f73697400006000830152602082019050919050565b60006139f5601183613c19565b91507f4445504f534954535f44495341424c45440000000000000000000000000000006000830152602082019050919050565b606082016000820151613a3e60008501826138dc565b506020820151613a516020850182613a6a565b506040820151613a646040850182613a6a565b50505050565b613a7381613c94565b82525050565b613a8281613c94565b82525050565b6000602082019050613a9d60008301846138eb565b92915050565b6000606082019050613ab860008301866138eb565b613ac56020830185613a79565b613ad26040830184613a79565b949350505050565b6000602082019050613aef60008301846138fa565b92915050565b60006020820190508181036000830152613b0f8184613909565b905092915050565b60006020820190508181036000830152613b3081613942565b9050919050565b60006020820190508181036000830152613b50816139a8565b9050919050565b60006020820190508181036000830152613b70816139e8565b9050919050565b6000606082019050613b8c6000830184613a28565b92915050565b6000602082019050613ba76000830184613a79565b92915050565b6000604051905081810181811067ffffffffffffffff82111715613bd457613bd3613ce0565b5b8060405250919050565b600067ffffffffffffffff821115613bf957613bf8613ce0565b5b601f19601f8301169050602081019050919050565b600081519050919050565b600082825260208201905092915050565b6000613c3582613c74565b9050919050565b60008115159050919050565b60007fffffffff0000000000000000000000000000000000000000000000000000000082169050919050565b600073ffffffffffffffffffffffffffffffffffffffff82169050919050565b6000819050919050565b82818337600083830152505050565b60005b83811015613ccb578082015181840152602081019050613cb0565b83811115613cda576000848401525b50505050565bfe5b6000601f19601f8301169050919050565b613cfc81613c2a565b8114613d0757600080fd5b50565b613d1381613c3c565b8114613d1e57600080fd5b50565b613d2a81613c48565b8114613d3557600080fd5b50565b613d4181613c94565b8114613d4c57600080fd5b5056fe456e756d657261626c655365743a20696e646578206f7574206f6620626f756e64734552433732313a207472616e7366657220746f206e6f6e20455243373231526563656976657220696d706c656d656e7465724f776e61626c653a206e6577206f776e657220697320746865207a65726f20616464726573734552433732313a207472616e7366657220746f20746865207a65726f2061646472657373416464726573733a20696e73756666696369656e742062616c616e636520666f722063616c6c4552433732313a206f70657261746f7220717565727920666f72206e6f6e6578697374656e7420746f6b656e4552433732313a20617070726f76652063616c6c6572206973206e6f74206f776e6572206e6f7220617070726f76656420666f7220616c6c4552433732313a2062616c616e636520717565727920666f7220746865207a65726f20616464726573734552433732313a206f776e657220717565727920666f72206e6f6e6578697374656e7420746f6b656e456e756d657261626c654d61703a20696e646578206f7574206f6620626f756e64734552433732313a20617070726f76656420717565727920666f72206e6f6e6578697374656e7420746f6b656e4552433732313a207472616e73666572206f6620746f6b656e2074686174206973206e6f74206f776e4552433732314d657461646174613a2055524920717565727920666f72206e6f6e6578697374656e7420746f6b656e4552433732313a20617070726f76616c20746f2063757272656e74206f776e65724552433732313a207472616e736665722063616c6c6572206973206e6f74206f776e6572206e6f7220617070726f766564a26469706673582212200913e4b8fb59c7281352555097bdea7df7a51677ea05f454896697a8d587b97364736f6c63430007060033",
  "linkReferences": {},
  "deployedLinkReferences": {}
}