{
  "_format": "hh-sol-artifact-1",
  "contractName": "SupeRareV2",
  "sourceName": "contracts/SupeRareV2.sol",
  "abi": [
    {
      "inputs": [
        {
          "internalType": "address",
          "name": "OriginalSupeRareAddr__",
          "type": "address"
        }
      ],
      "stateMutability": "nonpayable",
      "type": "constructor"
    },
    {
      "anonymous": false,
      "inputs": [
        {
          "indexed": true,
          "internalType": "address",
          "name": "owner",
          "type": "address"
        },
        {
          "indexed": true,
          "internalType": "address",
          "name": "approved",
          "type": "address"
        },
        {
          "indexed": true,
          "internalType": "uint256",
          "name": "tokenId",
          "type": "uint256"
        }
      ],
      "name": "Approval",
      "type": "event"
    },
    {
      "anonymous": false,
      "inputs": [
        {
          "indexed": true,
          "internalType": "address",
          "name": "owner",
          "type": "address"
        },
        {
          "indexed": true,
          "internalType": "address",
          "name": "operator",
          "type": "address"
        },
        {
          "indexed": false,
          "internalType": "bool",
          "name": "approved",
          "type": "bool"
        }
      ],
      "name": "ApprovalForAll",
      "type": "event"
    },
    {
      "anonymous": false,
      "inputs": [
        {
          "indexed": false,
          "internalType": "string",
          "name": "_baseURI",
          "type": "string"
        }
      ],
      "name": "BaseURISet",
      "type": "event"
    },
    {
      "anonymous": false,
      "inputs": [
        {
          "indexed": true,
          "internalType": "address",
          "name": "previousOwner",
          "type": "address"
        },
        {
          "indexed": true,
          "internalType": "address",
          "name": "newOwner",
          "type": "address"
        }
      ],
      "name": "OwnershipTransferred",
      "type": "event"
    },
    {
      "anonymous": false,
      "inputs": [
        {
          "indexed": true,
          "internalType": "address",
          "name": "OrigV1Owner",
          "type": "address"
        },
        {
          "indexed": true,
          "internalType": "address",
          "name": "NewV1Owner",
          "type": "address"
        },
        {
          "indexed": true,
          "internalType": "uint256",
          "name": "v1TokenId",
          "type": "uint256"
        }
      ],
      "name": "OwnershipUpdated",
      "type": "event"
    },
    {
      "anonymous": false,
      "inputs": [
        {
          "indexed": true,
          "internalType": "address",
          "name": "OrigOwner",
          "type": "address"
        },
        {
          "indexed": true,
          "internalType": "uint256",
          "name": "v2TokenID",
          "type": "uint256"
        },
        {
          "indexed": true,
          "internalType": "uint256",
          "name": "v1TokenID",
          "type": "uint256"
        }
      ],
      "name": "PositionCreated",
      "type": "event"
    },
    {
      "anonymous": false,
      "inputs": [
        {
          "indexed": true,
          "internalType": "address",
          "name": "OrigOwner",
          "type": "address"
        },
        {
          "indexed": true,
          "internalType": "uint256",
          "name": "v2TokenID",
          "type": "uint256"
        },
        {
          "indexed": true,
          "internalType": "uint256",
          "name": "v1TokenID",
          "type": "uint256"
        }
      ],
      "name": "PositionDeleted",
      "type": "event"
    },
    {
      "anonymous": false,
      "inputs": [
        {
          "indexed": false,
          "internalType": "bool",
          "name": "",
          "type": "bool"
        }
      ],
      "name": "ToggleStartStop",
      "type": "event"
    },
    {
      "anonymous": false,
      "inputs": [
        {
          "indexed": false,
          "internalType": "uint256",
          "name": "v2tokenId",
          "type": "uint256"
        },
        {
          "indexed": false,
          "internalType": "string",
          "name": "_tokenURI",
          "type": "string"
        }
      ],
      "name": "TokenURISet",
      "type": "event"
    },
    {
      "anonymous": false,
      "inputs": [
        {
          "indexed": true,
          "internalType": "address",
          "name": "from",
          "type": "address"
        },
        {
          "indexed": true,
          "internalType": "address",
          "name": "to",
          "type": "address"
        },
        {
          "indexed": true,
          "internalType": "uint256",
          "name": "tokenId",
          "type": "uint256"
        }
      ],
      "name": "Transfer",
      "type": "event"
    },
    {
      "inputs": [],
      "name": "ToggleContract",
      "outputs": [],
      "stateMutability": "nonpayable",
      "type": "function"
    },
    {
      "inputs": [
        {
          "internalType": "uint256",
          "name": "",
          "type": "uint256"
        }
      ],
      "name": "V1Position",
      "outputs": [
        {
          "internalType": "address",
          "name": "v1Owner",
          "type": "address"
        },
        {
          "internalType": "uint256",
          "name": "v1TokenID",
          "type": "uint256"
        },
        {
          "internalType": "uint256",
          "name": "timeStamp",
          "type": "uint256"
        }
      ],
      "stateMutability": "view",
      "type": "function"
    },
    {
      "inputs": [
        {
          "internalType": "address",
          "name": "to",
          "type": "address"
        },
        {
          "internalType": "uint256",
          "name": "tokenId",
          "type": "uint256"
        }
      ],
      "name": "approve",
      "outputs": [],
      "stateMutability": "nonpayable",
      "type": "function"
    },
    {
      "inputs": [
        {
          "internalType": "address",
          "name": "owner",
          "type": "address"
        }
      ],
      "name": "balanceOf",
      "outputs": [
        {
          "internalType": "uint256",
          "name": "",
          "type": "uint256"
        }
      ],
      "stateMutability": "view",
      "type": "function"
    },
    {
      "inputs": [],
      "name": "baseURI",
      "outputs": [
        {
          "internalType": "string",
          "name": "",
          "type": "string"
        }
      ],
      "stateMutability": "view",
      "type": "function"
    },
    {
      "inputs": [],
      "name": "contract_status",
      "outputs": [
        {
          "internalType": "bool",
          "name": "",
          "type": "bool"
        }
      ],
      "stateMutability": "view",
      "type": "function"
    },
    {
      "inputs": [
        {
          "internalType": "uint256",
          "name": "v1tokenId",
          "type": "uint256"
        }
      ],
      "name": "deposit",
      "outputs": [
        {
          "internalType": "uint256",
          "name": "v2tokenId",
          "type": "uint256"
        }
      ],
      "stateMutability": "nonpayable",
      "type": "function"
    },
    {
      "inputs": [
        {
          "internalType": "uint256",
          "name": "tokenId",
          "type": "uint256"
        }
      ],
      "name": "getApproved",
      "outputs": [
        {
          "internalType": "address",
          "name": "",
          "type": "address"
        }
      ],
      "stateMutability": "view",
      "type": "function"
    },
    {
      "inputs": [
        {
          "internalType": "uint256",
          "name": "v2TokenId",
          "type": "uint256"
        }
      ],
      "name": "getOwnerPosition",
      "outputs": [
        {
          "components": [
            {
              "internalType": "address",
              "name": "v1Owner",
              "type": "address"
            },
            {
              "internalType": "uint256",
              "name": "v1TokenID",
              "type": "uint256"
            },
            {
              "internalType": "uint256",
              "name": "timeStamp",
              "type": "uint256"
            }
          ],
          "internalType": "struct ISupeRareV2.Position",
          "name": "",
          "type": "tuple"
        }
      ],
      "stateMutability": "view",
      "type": "function"
    },
    {
      "inputs": [],
      "name": "getSupeRareAddress",
      "outputs": [
        {
          "internalType": "address",
          "name": "",
          "type": "address"
        }
      ],
      "stateMutability": "view",
      "type": "function"
    },
    {
      "inputs": [
        {
          "internalType": "address",
          "name": "owner",
          "type": "address"
        },
        {
          "internalType": "address",
          "name": "operator",
          "type": "address"
        }
      ],
      "name": "isApprovedForAll",
      "outputs": [
        {
          "internalType": "bool",
          "name": "",
          "type": "bool"
        }
      ],
      "stateMutability": "view",
      "type": "function"
    },
    {
      "inputs": [],
      "name": "name",
      "outputs": [
        {
          "internalType": "string",
          "name": "",
          "type": "string"
        }
      ],
      "stateMutability": "view",
      "type": "function"
    },
    {
      "inputs": [],
      "name": "owner",
      "outputs": [
        {
          "internalType": "address",
          "name": "",
          "type": "address"
        }
      ],
      "stateMutability": "view",
      "type": "function"
    },
    {
      "inputs": [
        {
          "internalType": "address",
          "name": "",
          "type": "address"
        },
        {
          "internalType": "uint256",
          "name": "",
          "type": "uint256"
        }
      ],
      "name": "ownerAddrToV1toV2TokenId",
      "outputs": [
        {
          "internalType": "uint256",
          "name": "",
          "type": "uint256"
        }
      ],
      "stateMutability": "view",
      "type": "function"
    },
    {
      "inputs": [
        {
          "internalType": "uint256",
          "name": "tokenId",
          "type": "uint256"
        }
      ],
      "name": "ownerOf",
      "outputs": [
        {
          "internalType": "address",
          "name": "",
          "type": "address"
        }
      ],
      "stateMutability": "view",
      "type": "function"
    },
    {
      "inputs": [],
      "name": "renounceOwnership",
      "outputs": [],
      "stateMutability": "nonpayable",
      "type": "function"
    },
    {
      "inputs": [
        {
          "internalType": "address",
          "name": "from",
          "type": "address"
        },
        {
          "internalType": "address",
          "name": "to",
          "type": "address"
        },
        {
          "internalType": "uint256",
          "name": "tokenId",
          "type": "uint256"
        }
      ],
      "name": "safeTransferFrom",
      "outputs": [],
      "stateMutability": "nonpayable",
      "type": "function"
    },
    {
      "inputs": [
        {
          "internalType": "address",
          "name": "from",
          "type": "address"
        },
        {
          "internalType": "address",
          "name": "to",
          "type": "address"
        },
        {
          "internalType": "uint256",
          "name": "tokenId",
          "type": "uint256"
        },
        {
          "internalType": "bytes",
          "name": "_data",
          "type": "bytes"
        }
      ],
      "name": "safeTransferFrom",
      "outputs": [],
      "stateMutability": "nonpayable",
      "type": "function"
    },
    {
      "inputs": [
        {
          "internalType": "address",
          "name": "operator",
          "type": "address"
        },
        {
          "internalType": "bool",
          "name": "approved",
          "type": "bool"
        }
      ],
      "name": "setApprovalForAll",
      "outputs": [],
      "stateMutability": "nonpayable",
      "type": "function"
    },
    {
      "inputs": [
        {
          "internalType": "string",
          "name": "baseURI",
          "type": "string"
        }
      ],
      "name": "setBaseURI",
      "outputs": [
        {
          "internalType": "bool",
          "name": "",
          "type": "bool"
        }
      ],
      "stateMutability": "nonpayable",
      "type": "function"
    },
    {
      "inputs": [
        {
          "internalType": "uint256",
          "name": "v2tokenId",
          "type": "uint256"
        },
        {
          "internalType": "string",
          "name": "_tokenURI",
          "type": "string"
        }
      ],
      "name": "setTokenURI",
      "outputs": [
        {
          "internalType": "bool",
          "name": "",
          "type": "bool"
        }
      ],
      "stateMutability": "nonpayable",
      "type": "function"
    },
    {
      "inputs": [
        {
          "internalType": "bytes4",
          "name": "interfaceId",
          "type": "bytes4"
        }
      ],
      "name": "supportsInterface",
      "outputs": [
        {
          "internalType": "bool",
          "name": "",
          "type": "bool"
        }
      ],
      "stateMutability": "view",
      "type": "function"
    },
    {
      "inputs": [],
      "name": "symbol",
      "outputs": [
        {
          "internalType": "string",
          "name": "",
          "type": "string"
        }
      ],
      "stateMutability": "view",
      "type": "function"
    },
    {
      "inputs": [
        {
          "internalType": "uint256",
          "name": "index",
          "type": "uint256"
        }
      ],
      "name": "tokenByIndex",
      "outputs": [
        {
          "internalType": "uint256",
          "name": "",
          "type": "uint256"
        }
      ],
      "stateMutability": "view",
      "type": "function"
    },
    {
      "inputs": [
        {
          "internalType": "address",
          "name": "owner",
          "type": "address"
        },
        {
          "internalType": "uint256",
          "name": "index",
          "type": "uint256"
        }
      ],
      "name": "tokenOfOwnerByIndex",
      "outputs": [
        {
          "internalType": "uint256",
          "name": "",
          "type": "uint256"
        }
      ],
      "stateMutability": "view",
      "type": "function"
    },
    {
      "inputs": [
        {
          "internalType": "uint256",
          "name": "tokenId",
          "type": "uint256"
        }
      ],
      "name": "tokenURI",
      "outputs": [
        {
          "internalType": "string",
          "name": "",
          "type": "string"
        }
      ],
      "stateMutability": "view",
      "type": "function"
    },
    {
      "inputs": [],
      "name": "totalSupply",
      "outputs": [
        {
          "internalType": "uint256",
          "name": "",
          "type": "uint256"
        }
      ],
      "stateMutability": "view",
      "type": "function"
    },
    {
      "inputs": [
        {
          "internalType": "address",
          "name": "from",
          "type": "address"
        },
        {
          "internalType": "address",
          "name": "to",
          "type": "address"
        },
        {
          "internalType": "uint256",
          "name": "tokenId",
          "type": "uint256"
        }
      ],
      "name": "transferFrom",
      "outputs": [],
      "stateMutability": "nonpayable",
      "type": "function"
    },
    {
      "inputs": [
        {
          "internalType": "address",
          "name": "newOwner",
          "type": "address"
        }
      ],
      "name": "transferOwnership",
      "outputs": [],
      "stateMutability": "nonpayable",
      "type": "function"
    },
    {
      "inputs": [
        {
          "internalType": "uint256",
          "name": "v1tokenId",
          "type": "uint256"
        }
      ],
      "name": "updateOwnership",
      "outputs": [
        {
          "internalType": "bool",
          "name": "",
          "type": "bool"
        }
      ],
      "stateMutability": "nonpayable",
      "type": "function"
    },
    {
      "inputs": [
        {
          "internalType": "uint256",
          "name": "v1TokenId",
          "type": "uint256"
        }
      ],
      "name": "withdraw",
      "outputs": [
        {
          "internalType": "bool",
          "name": "",
          "type": "bool"
        }
      ],
      "stateMutability": "nonpayable",
      "type": "function"
    }
  ],
  "bytecode": "0x60806040526001600e60006101000a81548175ffffffffffffffffffffffffffffffffffffffffffff021916908375ffffffffffffffffffffffffffffffffffffffffffff1602179055503480156200005757600080fd5b5060405162004afc38038062004afc83398181016040528101906200007d9190620004b6565b6040518060400160405280600a81526020017f53757065526172655632000000000000000000000000000000000000000000008152506040518060400160405280600681526020017f53555052563200000000000000000000000000000000000000000000000000008152506000620000fb620002d860201b60201c565b9050806000806101000a81548173ffffffffffffffffffffffffffffffffffffffff021916908373ffffffffffffffffffffffffffffffffffffffff1602179055508073ffffffffffffffffffffffffffffffffffffffff16600073ffffffffffffffffffffffffffffffffffffffff167f8be0079c531659141344cd1fd0a4f28419497f9722a3daafe3b4186f6b6457e060405160405180910390a350620001b16301ffc9a760e01b620002e060201b60201c565b8160079080519060200190620001c9929190620003e9565b508060089080519060200190620001e2929190620003e9565b50620001fb6380ac58cd60e01b620002e060201b60201c565b62000213635b5e139f60e01b620002e060201b60201c565b6200022b63780e9d6360e01b620002e060201b60201c565b505080600b60006101000a81548173ffffffffffffffffffffffffffffffffffffffff021916908373ffffffffffffffffffffffffffffffffffffffff160217905550600b60009054906101000a900473ffffffffffffffffffffffffffffffffffffffff16600c60006101000a81548173ffffffffffffffffffffffffffffffffffffffff021916908373ffffffffffffffffffffffffffffffffffffffff1602179055505062000530565b600033905090565b63ffffffff60e01b817bffffffffffffffffffffffffffffffffffffffffffffffffffffffff191614156200037d576040517f08c379a000000000000000000000000000000000000000000000000000000000815260040180806020018281038252601c8152602001807f4552433136353a20696e76616c696420696e746572666163652069640000000081525060200191505060405180910390fd5b6001806000837bffffffffffffffffffffffffffffffffffffffffffffffffffffffff19167bffffffffffffffffffffffffffffffffffffffffffffffffffffffff1916815260200190815260200160002060006101000a81548160ff02191690831515021790555050565b828054600181600116156101000203166002900490600052602060002090601f0160209004810192826200042157600085556200046d565b82601f106200043c57805160ff19168380011785556200046d565b828001600101855582156200046d579182015b828111156200046c5782518255916020019190600101906200044f565b5b5090506200047c919062000480565b5090565b5b808211156200049b57600081600090555060010162000481565b5090565b600081519050620004b08162000516565b92915050565b600060208284031215620004c957600080fd5b6000620004d9848285016200049f565b91505092915050565b6000620004ef82620004f6565b9050919050565b600073ffffffffffffffffffffffffffffffffffffffff82169050919050565b6200052181620004e2565b81146200052d57600080fd5b50565b6145bc80620005406000396000f3fe608060405234801561001057600080fd5b50600436106101e55760003560e01c80636352211e1161010f578063a22cb465116100a2578063cfa2e00411610071578063cfa2e004146105f4578063e7314931146105fe578063e985e9c51461062e578063f2fde38b1461065e576101e5565b8063a22cb4651461055c578063b6b55f2514610578578063b88d4fde146105a8578063c87b56dd146105c4576101e5565b806370a08231116100de57806370a08231146104e6578063715018a6146105165780638da5cb5b1461052057806395d89b411461053e576101e5565b80636352211e146104365780636c0360eb146104665780636c0e6754146104845780636d35f9ae146104b4576101e5565b806323b872dd116101875780633646478911610156578063364647891461039c57806342842e0e146103ba5780634f6ccce7146103d657806355f804b314610406576101e5565b806323b872dd146103025780632b1bf48f1461031e5780632e1a7d4d1461033c5780632f745c591461036c576101e5565b8063095ea7b3116101c3578063095ea7b3146102685780630a4c338114610284578063162094c4146102b457806318160ddd146102e4576101e5565b806301ffc9a7146101ea57806306fdde031461021a578063081812fc14610238575b600080fd5b61020460048036038101906101ff9190613d02565b61067a565b604051610211919061401c565b60405180910390f35b6102226106e2565b60405161022f919061405b565b60405180910390f35b610252600480360381019061024d9190613d70565b610784565b60405161025f9190613fca565b60405180910390f35b610282600480360381019061027d9190613cc6565b61081f565b005b61029e60048036038101906102999190613d70565b610963565b6040516102ab91906140dd565b60405180910390f35b6102ce60048036038101906102c99190613d99565b6109fa565b6040516102db919061401c565b60405180910390f35b6102ec610b3f565b6040516102f991906140f8565b60405180910390f35b61031c60048036038101906103179190613bc0565b610b50565b005b610326610bc6565b604051610333919061401c565b60405180910390f35b61035660048036038101906103519190613d70565b610bdd565b604051610363919061401c565b60405180910390f35b61038660048036038101906103819190613cc6565b610dc4565b60405161039391906140f8565b60405180910390f35b6103a4610e1f565b6040516103b19190613fca565b60405180910390f35b6103d460048036038101906103cf9190613bc0565b610e49565b005b6103f060048036038101906103eb9190613d70565b610e69565b6040516103fd91906140f8565b60405180910390f35b610420600480360381019061041b9190613d2b565b610e8c565b60405161042d919061401c565b60405180910390f35b610450600480360381019061044b9190613d70565b610fcd565b60405161045d9190613fca565b60405180910390f35b61046e611004565b60405161047b919061405b565b60405180910390f35b61049e60048036038101906104999190613cc6565b6110a6565b6040516104ab91906140f8565b60405180910390f35b6104ce60048036038101906104c99190613d70565b6110cb565b6040516104dd93929190613fe5565b60405180910390f35b61050060048036038101906104fb9190613b32565b611115565b60405161050d91906140f8565b60405180910390f35b61051e6111ea565b005b610528611357565b6040516105359190613fca565b60405180910390f35b610546611380565b604051610553919061405b565b60405180910390f35b61057660048036038101906105719190613c8a565b611422565b005b610592600480360381019061058d9190613d70565b6115d8565b60405161059f91906140f8565b60405180910390f35b6105c260048036038101906105bd9190613c0f565b611957565b005b6105de60048036038101906105d99190613d70565b6119cf565b6040516105eb919061405b565b60405180910390f35b6105fc611ca0565b005b61061860048036038101906106139190613d70565b611dc1565b604051610625919061401c565b60405180910390f35b61064860048036038101906106439190613b84565b612055565b604051610655919061401c565b60405180910390f35b61067860048036038101906106739190613b32565b6120e9565b005b600060016000837bffffffffffffffffffffffffffffffffffffffffffffffffffffffff19167bffffffffffffffffffffffffffffffffffffffffffffffffffffffff1916815260200190815260200160002060009054906101000a900460ff169050919050565b606060078054600181600116156101000203166002900480601f01602080910402602001604051908101604052809291908181526020018280546001816001161561010002031660029004801561077a5780601f1061074f5761010080835404028352916020019161077a565b820191906000526020600020905b81548152906001019060200180831161075d57829003601f168201915b5050505050905090565b600061078f826122db565b6107e4576040517f08c379a000000000000000000000000000000000000000000000000000000000815260040180806020018281038252602c815260200180614485602c913960400191505060405180910390fd5b6005600083815260200190815260200160002060009054906101000a900473ffffffffffffffffffffffffffffffffffffffff169050919050565b600061082a82610fcd565b90508073ffffffffffffffffffffffffffffffffffffffff168373ffffffffffffffffffffffffffffffffffffffff1614156108b1576040517f08c379a00000000000000000000000000000000000000000000000000000000081526004018080602001828103825260218152602001806145356021913960400191505060405180910390fd5b8073ffffffffffffffffffffffffffffffffffffffff166108d06122f8565b73ffffffffffffffffffffffffffffffffffffffff1614806108ff57506108fe816108f96122f8565b612055565b5b610954576040517f08c379a00000000000000000000000000000000000000000000000000000000081526004018080602001828103825260388152602001806143d86038913960400191505060405180910390fd5b61095e8383612300565b505050565b61096b6138ed565b601060008381526020019081526020016000206040518060600160405290816000820160009054906101000a900473ffffffffffffffffffffffffffffffffffffffff1673ffffffffffffffffffffffffffffffffffffffff1673ffffffffffffffffffffffffffffffffffffffff168152602001600182015481526020016002820154815250509050919050565b6000610a046122f8565b73ffffffffffffffffffffffffffffffffffffffff16610a22611357565b73ffffffffffffffffffffffffffffffffffffffff1614610aab576040517f08c379a00000000000000000000000000000000000000000000000000000000081526004018080602001828103825260208152602001807f4f776e61626c653a2063616c6c6572206973206e6f7420746865206f776e657281525060200191505060405180910390fd5b610af98484848080601f016020809104026020016040519081016040528093929190818152602001838380828437600081840152601f19601f820116905080830192505050505050506123b9565b7fda84ca2183491f179a603e877b2cb058e42195041c2b9c53d746427e519a34df848484604051610b2c93929190614113565b60405180910390a1600190509392505050565b6000610b4b6003612443565b905090565b610b61610b5b6122f8565b82612458565b610bb6576040517f08c379a00000000000000000000000000000000000000000000000000000000081526004018080602001828103825260318152602001806145566031913960400191505060405180910390fd5b610bc183838361254c565b505050565b6000600d60149054906101000a900460ff16905090565b600081610be86122f8565b73ffffffffffffffffffffffffffffffffffffffff16600c60009054906101000a900473ffffffffffffffffffffffffffffffffffffffff1673ffffffffffffffffffffffffffffffffffffffff16636352211e836040518263ffffffff1660e01b8152600401610c5991906140f8565b60206040518083038186803b158015610c7157600080fd5b505afa158015610c85573d6000803e3d6000fd5b505050506040513d601f19601f82011682018060405250810190610ca99190613b5b565b73ffffffffffffffffffffffffffffffffffffffff1614610cff576040517f08c379a0000000000000000000000000000000000000000000000000000000008152600401610cf69061407d565b60405180910390fd5b6000600f6000858152602001908152602001600020549050610d208161278f565b60106000858152602001908152602001600020600080820160006101000a81549073ffffffffffffffffffffffffffffffffffffffff02191690556001820160009055600282016000905550508381610d776122f8565b73ffffffffffffffffffffffffffffffffffffffff167fd79277f11bea144980bafa77ca965aba93645c81e42b4d49a466097ff270e50160405160405180910390a4600192505050919050565b6000610e1782600260008673ffffffffffffffffffffffffffffffffffffffff1673ffffffffffffffffffffffffffffffffffffffff1681526020019081526020016000206128c990919063ffffffff16565b905092915050565b6000600b60009054906101000a900473ffffffffffffffffffffffffffffffffffffffff16905090565b610e6483838360405180602001604052806000815250611957565b505050565b600080610e808360036128e390919063ffffffff16565b50905080915050919050565b6000610e966122f8565b73ffffffffffffffffffffffffffffffffffffffff16610eb4611357565b73ffffffffffffffffffffffffffffffffffffffff1614610f3d576040517f08c379a00000000000000000000000000000000000000000000000000000000081526004018080602001828103825260208152602001807f4f776e61626c653a2063616c6c6572206973206e6f7420746865206f776e657281525060200191505060405180910390fd5b610f8a83838080601f016020809104026020016040519081016040528093929190818152602001838380828437600081840152601f19601f8201169050808301925050505050505061290f565b7ff9c7803e94e0d3c02900d8a90893a6d5e90dd04d32a4cfe825520f82bf9f32f68383604051610fbb929190614037565b60405180910390a16001905092915050565b6000610ffd8260405180606001604052806029815260200161443a6029913960036129299092919063ffffffff16565b9050919050565b6060600a8054600181600116156101000203166002900480601f01602080910402602001604051908101604052809291908181526020018280546001816001161561010002031660029004801561109c5780601f106110715761010080835404028352916020019161109c565b820191906000526020600020905b81548152906001019060200180831161107f57829003601f168201915b5050505050905090565b6011602052816000526040600020602052806000526040600020600091509150505481565b60106020528060005260406000206000915090508060000160009054906101000a900473ffffffffffffffffffffffffffffffffffffffff16908060010154908060020154905083565b60008073ffffffffffffffffffffffffffffffffffffffff168273ffffffffffffffffffffffffffffffffffffffff16141561119c576040517f08c379a000000000000000000000000000000000000000000000000000000000815260040180806020018281038252602a815260200180614410602a913960400191505060405180910390fd5b6111e3600260008473ffffffffffffffffffffffffffffffffffffffff1673ffffffffffffffffffffffffffffffffffffffff168152602001908152602001600020612948565b9050919050565b6111f26122f8565b73ffffffffffffffffffffffffffffffffffffffff16611210611357565b73ffffffffffffffffffffffffffffffffffffffff1614611299576040517f08c379a00000000000000000000000000000000000000000000000000000000081526004018080602001828103825260208152602001807f4f776e61626c653a2063616c6c6572206973206e6f7420746865206f776e657281525060200191505060405180910390fd5b600073ffffffffffffffffffffffffffffffffffffffff1660008054906101000a900473ffffffffffffffffffffffffffffffffffffffff1673ffffffffffffffffffffffffffffffffffffffff167f8be0079c531659141344cd1fd0a4f28419497f9722a3daafe3b4186f6b6457e060405160405180910390a360008060006101000a81548173ffffffffffffffffffffffffffffffffffffffff021916908373ffffffffffffffffffffffffffffffffffffffff160217905550565b60008060009054906101000a900473ffffffffffffffffffffffffffffffffffffffff16905090565b606060088054600181600116156101000203166002900480601f0160208091040260200160405190810160405280929190818152602001828054600181600116156101000203166002900480156114185780601f106113ed57610100808354040283529160200191611418565b820191906000526020600020905b8154815290600101906020018083116113fb57829003601f168201915b5050505050905090565b61142a6122f8565b73ffffffffffffffffffffffffffffffffffffffff168273ffffffffffffffffffffffffffffffffffffffff1614156114cb576040517f08c379a00000000000000000000000000000000000000000000000000000000081526004018080602001828103825260198152602001807f4552433732313a20617070726f766520746f2063616c6c65720000000000000081525060200191505060405180910390fd5b80600660006114d86122f8565b73ffffffffffffffffffffffffffffffffffffffff1673ffffffffffffffffffffffffffffffffffffffff16815260200190815260200160002060008473ffffffffffffffffffffffffffffffffffffffff1673ffffffffffffffffffffffffffffffffffffffff16815260200190815260200160002060006101000a81548160ff0219169083151502179055508173ffffffffffffffffffffffffffffffffffffffff166115856122f8565b73ffffffffffffffffffffffffffffffffffffffff167f17307eab39ab6107e8899845ad3d59bd9653f200f220920489ca2b5937696c318360405180821515815260200191505060405180910390a35050565b6000600d60149054906101000a900460ff161561162a576040517f08c379a0000000000000000000000000000000000000000000000000000000008152600401611621906140bd565b60405180910390fd5b816116336122f8565b73ffffffffffffffffffffffffffffffffffffffff16600c60009054906101000a900473ffffffffffffffffffffffffffffffffffffffff1673ffffffffffffffffffffffffffffffffffffffff16636352211e836040518263ffffffff1660e01b81526004016116a491906140f8565b60206040518083038186803b1580156116bc57600080fd5b505afa1580156116d0573d6000803e3d6000fd5b505050506040513d601f19601f820116820180604052508101906116f49190613b5b565b73ffffffffffffffffffffffffffffffffffffffff161461174a576040517f08c379a00000000000000000000000000000000000000000000000000000000081526004016117419061407d565b60405180910390fd5b6000600f600085815260200190815260200160002054146117a0576040517f08c379a00000000000000000000000000000000000000000000000000000000081526004016117979061409d565b60405180910390fd5b61183b6117ab6122f8565b600e600081819054906101000a900475ffffffffffffffffffffffffffffffffffffffffffff168092919060010191906101000a81548175ffffffffffffffffffffffffffffffffffffffffffff021916908375ffffffffffffffffffffffffffffffffffffffffffff16021790555075ffffffffffffffffffffffffffffffffffffffffffff1693508361295d565b61184482612b51565b60405180606001604052806118576122f8565b73ffffffffffffffffffffffffffffffffffffffff168152602001848152602001428152506010600084815260200190815260200160002060008201518160000160006101000a81548173ffffffffffffffffffffffffffffffffffffffff021916908373ffffffffffffffffffffffffffffffffffffffff160217905550602082015181600101556040820151816002015590505081600f600085815260200190815260200160002081905550828261190f6122f8565b73ffffffffffffffffffffffffffffffffffffffff167f4b82aa16e071a61de1a6b9aeec9edab0356331f8122c78683b469ac8e685dabc60405160405180910390a450919050565b6119686119626122f8565b83612458565b6119bd576040517f08c379a00000000000000000000000000000000000000000000000000000000081526004018080602001828103825260318152602001806145566031913960400191505060405180910390fd5b6119c984848484612bea565b50505050565b60606119da826122db565b611a2f576040517f08c379a000000000000000000000000000000000000000000000000000000000815260040180806020018281038252602f815260200180614506602f913960400191505060405180910390fd5b6000600960008481526020019081526020016000208054600181600116156101000203166002900480601f016020809104026020016040519081016040528092919081815260200182805460018160011615610100020316600290048015611ad85780601f10611aad57610100808354040283529160200191611ad8565b820191906000526020600020905b815481529060010190602001808311611abb57829003601f168201915b505050505090506000611ae9611004565b9050600081511415611aff578192505050611c9b565b600082511115611bd05780826040516020018083805190602001908083835b60208310611b415780518252602082019150602081019050602083039250611b1e565b6001836020036101000a03801982511681845116808217855250505050505090500182805190602001908083835b60208310611b925780518252602082019150602081019050602083039250611b6f565b6001836020036101000a0380198251168184511680821785525050505050509050019250505060405160208183030381529060405292505050611c9b565b80611bda85612c5c565b6040516020018083805190602001908083835b60208310611c105780518252602082019150602081019050602083039250611bed565b6001836020036101000a03801982511681845116808217855250505050505090500182805190602001908083835b60208310611c615780518252602082019150602081019050602083039250611c3e565b6001836020036101000a03801982511681845116808217855250505050505090500192505050604051602081830303815290604052925050505b919050565b611ca86122f8565b73ffffffffffffffffffffffffffffffffffffffff16611cc6611357565b73ffffffffffffffffffffffffffffffffffffffff1614611d4f576040517f08c379a00000000000000000000000000000000000000000000000000000000081526004018080602001828103825260208152602001807f4f776e61626c653a2063616c6c6572206973206e6f7420746865206f776e657281525060200191505060405180910390fd5b600d60149054906101000a900460ff1615600d60146101000a81548160ff0219169083151502179055507f52b85b02b7d21238e828a5c4da635eedf42851c8d1db199f9d414f941e89b650600d60149054906101000a900460ff16604051611db7919061401c565b60405180910390a1565b600081611dcc6122f8565b73ffffffffffffffffffffffffffffffffffffffff16600c60009054906101000a900473ffffffffffffffffffffffffffffffffffffffff1673ffffffffffffffffffffffffffffffffffffffff16636352211e836040518263ffffffff1660e01b8152600401611e3d91906140f8565b60206040518083038186803b158015611e5557600080fd5b505afa158015611e69573d6000803e3d6000fd5b505050506040513d601f19601f82011682018060405250810190611e8d9190613b5b565b73ffffffffffffffffffffffffffffffffffffffff1614611ee3576040517f08c379a0000000000000000000000000000000000000000000000000000000008152600401611eda9061407d565b60405180910390fd5b6000600f600085815260200190815260200160002054905060006010600083815260200190815260200160002060000160009054906101000a900473ffffffffffffffffffffffffffffffffffffffff169050611f3e6122f8565b73ffffffffffffffffffffffffffffffffffffffff168173ffffffffffffffffffffffffffffffffffffffff161461204957611f786122f8565b6010600084815260200190815260200160002060000160006101000a81548173ffffffffffffffffffffffffffffffffffffffff021916908373ffffffffffffffffffffffffffffffffffffffff160217905550611fd58261278f565b611fe6611fe06122f8565b8361295d565b84611fef6122f8565b73ffffffffffffffffffffffffffffffffffffffff168273ffffffffffffffffffffffffffffffffffffffff167fe675f572dcfc5101e1fe21b48072603841bd2aaa5c26f8bb6ec6bcb843c5e3c060405160405180910390a45b60019350505050919050565b6000600660008473ffffffffffffffffffffffffffffffffffffffff1673ffffffffffffffffffffffffffffffffffffffff16815260200190815260200160002060008373ffffffffffffffffffffffffffffffffffffffff1673ffffffffffffffffffffffffffffffffffffffff16815260200190815260200160002060009054906101000a900460ff16905092915050565b6120f16122f8565b73ffffffffffffffffffffffffffffffffffffffff1661210f611357565b73ffffffffffffffffffffffffffffffffffffffff1614612198576040517f08c379a00000000000000000000000000000000000000000000000000000000081526004018080602001828103825260208152602001807f4f776e61626c653a2063616c6c6572206973206e6f7420746865206f776e657281525060200191505060405180910390fd5b600073ffffffffffffffffffffffffffffffffffffffff168173ffffffffffffffffffffffffffffffffffffffff16141561221e576040517f08c379a000000000000000000000000000000000000000000000000000000000815260040180806020018281038252602681526020018061433c6026913960400191505060405180910390fd5b8073ffffffffffffffffffffffffffffffffffffffff1660008054906101000a900473ffffffffffffffffffffffffffffffffffffffff1673ffffffffffffffffffffffffffffffffffffffff167f8be0079c531659141344cd1fd0a4f28419497f9722a3daafe3b4186f6b6457e060405160405180910390a3806000806101000a81548173ffffffffffffffffffffffffffffffffffffffff021916908373ffffffffffffffffffffffffffffffffffffffff16021790555050565b60006122f1826003612da390919063ffffffff16565b9050919050565b600033905090565b816005600083815260200190815260200160002060006101000a81548173ffffffffffffffffffffffffffffffffffffffff021916908373ffffffffffffffffffffffffffffffffffffffff160217905550808273ffffffffffffffffffffffffffffffffffffffff1661237383610fcd565b73ffffffffffffffffffffffffffffffffffffffff167f8c5be1e5ebec7d5bd14f71427d1e84f3dd0314c0f7b2291e5b200ac8c7c3b92560405160405180910390a45050565b6123c2826122db565b612417576040517f08c379a000000000000000000000000000000000000000000000000000000000815260040180806020018281038252602c8152602001806144b1602c913960400191505060405180910390fd5b8060096000848152602001908152602001600020908051906020019061243e929190613924565b505050565b600061245182600001612dbd565b9050919050565b6000612463826122db565b6124b8576040517f08c379a000000000000000000000000000000000000000000000000000000000815260040180806020018281038252602c8152602001806143ac602c913960400191505060405180910390fd5b60006124c383610fcd565b90508073ffffffffffffffffffffffffffffffffffffffff168473ffffffffffffffffffffffffffffffffffffffff16148061253257508373ffffffffffffffffffffffffffffffffffffffff1661251a84610784565b73ffffffffffffffffffffffffffffffffffffffff16145b8061254357506125428185612055565b5b91505092915050565b8273ffffffffffffffffffffffffffffffffffffffff1661256c82610fcd565b73ffffffffffffffffffffffffffffffffffffffff16146125d8576040517f08c379a00000000000000000000000000000000000000000000000000000000081526004018080602001828103825260298152602001806144dd6029913960400191505060405180910390fd5b600073ffffffffffffffffffffffffffffffffffffffff168273ffffffffffffffffffffffffffffffffffffffff16141561265e576040517f08c379a00000000000000000000000000000000000000000000000000000000081526004018080602001828103825260248152602001806143626024913960400191505060405180910390fd5b612669838383612dce565b612674600082612300565b6126c581600260008673ffffffffffffffffffffffffffffffffffffffff1673ffffffffffffffffffffffffffffffffffffffff168152602001908152602001600020612dd390919063ffffffff16565b5061271781600260008573ffffffffffffffffffffffffffffffffffffffff1673ffffffffffffffffffffffffffffffffffffffff168152602001908152602001600020612ded90919063ffffffff16565b5061272e81836003612e079092919063ffffffff16565b50808273ffffffffffffffffffffffffffffffffffffffff168473ffffffffffffffffffffffffffffffffffffffff167fddf252ad1be2c89b69c2b068fc378daa952ba7f163c4a11628f55a4df523b3ef60405160405180910390a4505050565b600061279a82610fcd565b90506127a881600084612dce565b6127b3600083612300565b600060096000848152602001908152602001600020805460018160011615610100020316600290049050146128025760096000838152602001908152602001600020600061280191906139b2565b5b61285382600260008473ffffffffffffffffffffffffffffffffffffffff1673ffffffffffffffffffffffffffffffffffffffff168152602001908152602001600020612dd390919063ffffffff16565b50612868826003612e3c90919063ffffffff16565b5081600073ffffffffffffffffffffffffffffffffffffffff168273ffffffffffffffffffffffffffffffffffffffff167fddf252ad1be2c89b69c2b068fc378daa952ba7f163c4a11628f55a4df523b3ef60405160405180910390a45050565b60006128d88360000183612e56565b60001c905092915050565b6000806000806128f68660000186612ed9565b915091508160001c8160001c9350935050509250929050565b80600a9080519060200190612925929190613924565b5050565b600061293c846000018460001b84612f72565b60001c90509392505050565b600061295682600001613068565b9050919050565b600073ffffffffffffffffffffffffffffffffffffffff168273ffffffffffffffffffffffffffffffffffffffff161415612a00576040517f08c379a00000000000000000000000000000000000000000000000000000000081526004018080602001828103825260208152602001807f4552433732313a206d696e7420746f20746865207a65726f206164647265737381525060200191505060405180910390fd5b612a09816122db565b15612a7c576040517f08c379a000000000000000000000000000000000000000000000000000000000815260040180806020018281038252601c8152602001807f4552433732313a20746f6b656e20616c7265616479206d696e7465640000000081525060200191505060405180910390fd5b612a8860008383612dce565b612ad981600260008573ffffffffffffffffffffffffffffffffffffffff1673ffffffffffffffffffffffffffffffffffffffff168152602001908152602001600020612ded90919063ffffffff16565b50612af081836003612e079092919063ffffffff16565b50808273ffffffffffffffffffffffffffffffffffffffff16600073ffffffffffffffffffffffffffffffffffffffff167fddf252ad1be2c89b69c2b068fc378daa952ba7f163c4a11628f55a4df523b3ef60405160405180910390a45050565b612be781604051602401808281526020019150506040516020818303038152906040527ff82c50f1000000000000000000000000000000000000000000000000000000007bffffffffffffffffffffffffffffffffffffffffffffffffffffffff19166020820180517bffffffffffffffffffffffffffffffffffffffffffffffffffffffff8381831617835250505050613079565b50565b612bf584848461254c565b612c01848484846130a2565b612c56576040517f08c379a000000000000000000000000000000000000000000000000000000000815260040180806020018281038252603281526020018061430a6032913960400191505060405180910390fd5b50505050565b60606000821415612ca4576040518060400160405280600181526020017f30000000000000000000000000000000000000000000000000000000000000008152509050612d9e565b600082905060005b60008214612cce578080600101915050600a8281612cc657fe5b049150612cac565b60008167ffffffffffffffff81118015612ce757600080fd5b506040519080825280601f01601f191660200182016040528015612d1a5781602001600182028036833780820191505090505b50905060006001830390508593505b60008414612d9657600a8481612d3b57fe5b0660300160f81b82828060019003935081518110612d5557fe5b60200101907effffffffffffffffffffffffffffffffffffffffffffffffffffffffffffff1916908160001a905350600a8481612d8e57fe5b049350612d29565b819450505050505b919050565b6000612db5836000018360001b6132bb565b905092915050565b600081600001805490509050919050565b505050565b6000612de5836000018360001b6132de565b905092915050565b6000612dff836000018360001b6133c6565b905092915050565b6000612e33846000018460001b8473ffffffffffffffffffffffffffffffffffffffff1660001b613436565b90509392505050565b6000612e4e836000018360001b613512565b905092915050565b600081836000018054905011612eb7576040517f08c379a00000000000000000000000000000000000000000000000000000000081526004018080602001828103825260228152602001806142e86022913960400191505060405180910390fd5b826000018281548110612ec657fe5b9060005260206000200154905092915050565b60008082846000018054905011612f3b576040517f08c379a00000000000000000000000000000000000000000000000000000000081526004018080602001828103825260228152602001806144636022913960400191505060405180910390fd5b6000846000018481548110612f4c57fe5b906000526020600020906002020190508060000154816001015492509250509250929050565b60008084600101600085815260200190815260200160002054905060008114158390613039576040517f08c379a00000000000000000000000000000000000000000000000000000000081526004018080602001828103825283818151815260200191508051906020019080838360005b83811015612ffe578082015181840152602081019050612fe3565b50505050905090810190601f16801561302b5780820380516001836020036101000a031916815260200191505b509250505060405180910390fd5b5084600001600182038154811061304c57fe5b9060005260206000209060020201600101549150509392505050565b600081600001805490509050919050565b60008151905060006a636f6e736f6c652e6c6f679050602083016000808483855afa5050505050565b60006130c38473ffffffffffffffffffffffffffffffffffffffff1661362b565b6130d057600190506132b3565b600061323a63150b7a0260e01b6130e56122f8565b888787604051602401808573ffffffffffffffffffffffffffffffffffffffff1681526020018473ffffffffffffffffffffffffffffffffffffffff16815260200183815260200180602001828103825283818151815260200191508051906020019080838360005b8381101561316957808201518184015260208101905061314e565b50505050905090810190601f1680156131965780820380516001836020036101000a031916815260200191505b5095505050505050604051602081830303815290604052907bffffffffffffffffffffffffffffffffffffffffffffffffffffffff19166020820180517bffffffffffffffffffffffffffffffffffffffffffffffffffffffff838183161783525050505060405180606001604052806032815260200161430a603291398773ffffffffffffffffffffffffffffffffffffffff1661363e9092919063ffffffff16565b9050600081806020019051602081101561325357600080fd5b8101908080519060200190929190505050905063150b7a0260e01b7bffffffffffffffffffffffffffffffffffffffffffffffffffffffff1916817bffffffffffffffffffffffffffffffffffffffffffffffffffffffff191614925050505b949350505050565b600080836001016000848152602001908152602001600020541415905092915050565b600080836001016000848152602001908152602001600020549050600081146133ba576000600182039050600060018660000180549050039050600086600001828154811061332957fe5b906000526020600020015490508087600001848154811061334657fe5b906000526020600020018190555060018301876001016000838152602001908152602001600020819055508660000180548061337e57fe5b600190038181906000526020600020016000905590558660010160008781526020019081526020016000206000905560019450505050506133c0565b60009150505b92915050565b60006133d28383613656565b61342b578260000182908060018154018082558091505060019003906000526020600020016000909190919091505582600001805490508360010160008481526020019081526020016000208190555060019050613430565b600090505b92915050565b60008084600101600085815260200190815260200160002054905060008114156134dd5784600001604051806040016040528086815260200185815250908060018154018082558091505060019003906000526020600020906002020160009091909190915060008201518160000155602082015181600101555050846000018054905085600101600086815260200190815260200160002081905550600191505061350b565b828560000160018303815481106134f057fe5b90600052602060002090600202016001018190555060009150505b9392505050565b6000808360010160008481526020019081526020016000205490506000811461361f576000600182039050600060018660000180549050039050600086600001828154811061355d57fe5b906000526020600020906002020190508087600001848154811061357d57fe5b90600052602060002090600202016000820154816000015560018201548160010155905050600183018760010160008360000154815260200190815260200160002081905550866000018054806135d057fe5b6001900381819060005260206000209060020201600080820160009055600182016000905550509055866001016000878152602001908152602001600020600090556001945050505050613625565b60009150505b92915050565b600080823b905060008111915050919050565b606061364d8484600085613679565b90509392505050565b600080836001016000848152602001908152602001600020541415905092915050565b6060824710156136d4576040517f08c379a00000000000000000000000000000000000000000000000000000000081526004018080602001828103825260268152602001806143866026913960400191505060405180910390fd5b6136dd8561362b565b61374f576040517f08c379a000000000000000000000000000000000000000000000000000000000815260040180806020018281038252601d8152602001807f416464726573733a2063616c6c20746f206e6f6e2d636f6e747261637400000081525060200191505060405180910390fd5b6000808673ffffffffffffffffffffffffffffffffffffffff1685876040518082805190602001908083835b6020831061379e578051825260208201915060208101905060208303925061377b565b6001836020036101000a03801982511681845116808217855250505050505090500191505060006040518083038185875af1925050503d8060008114613800576040519150601f19603f3d011682016040523d82523d6000602084013e613805565b606091505b5091509150613815828286613821565b92505050949350505050565b60608315613831578290506138e6565b6000835111156138445782518084602001fd5b816040517f08c379a00000000000000000000000000000000000000000000000000000000081526004018080602001828103825283818151815260200191508051906020019080838360005b838110156138ab578082015181840152602081019050613890565b50505050905090810190601f1680156138d85780820380516001836020036101000a031916815260200191505b509250505060405180910390fd5b9392505050565b6040518060600160405280600073ffffffffffffffffffffffffffffffffffffffff16815260200160008152602001600081525090565b828054600181600116156101000203166002900490600052602060002090601f01602090048101928261395a57600085556139a1565b82601f1061397357805160ff19168380011785556139a1565b828001600101855582156139a1579182015b828111156139a0578251825591602001919060010190613985565b5b5090506139ae91906139fa565b5090565b50805460018160011615610100020316600290046000825580601f106139d857506139f7565b601f0160209004906000526020600020908101906139f691906139fa565b5b50565b5b80821115613a135760008160009055506001016139fb565b5090565b6000613a2a613a2584614176565b614145565b905082815260208101848484011115613a4257600080fd5b613a4d848285614236565b509392505050565b600081359050613a648161428b565b92915050565b600081519050613a798161428b565b92915050565b600081359050613a8e816142a2565b92915050565b600081359050613aa3816142b9565b92915050565b600082601f830112613aba57600080fd5b8135613aca848260208601613a17565b91505092915050565b60008083601f840112613ae557600080fd5b8235905067ffffffffffffffff811115613afe57600080fd5b602083019150836001820283011115613b1657600080fd5b9250929050565b600081359050613b2c816142d0565b92915050565b600060208284031215613b4457600080fd5b6000613b5284828501613a55565b91505092915050565b600060208284031215613b6d57600080fd5b6000613b7b84828501613a6a565b91505092915050565b60008060408385031215613b9757600080fd5b6000613ba585828601613a55565b9250506020613bb685828601613a55565b9150509250929050565b600080600060608486031215613bd557600080fd5b6000613be386828701613a55565b9350506020613bf486828701613a55565b9250506040613c0586828701613b1d565b9150509250925092565b60008060008060808587031215613c2557600080fd5b6000613c3387828801613a55565b9450506020613c4487828801613a55565b9350506040613c5587828801613b1d565b925050606085013567ffffffffffffffff811115613c7257600080fd5b613c7e87828801613aa9565b91505092959194509250565b60008060408385031215613c9d57600080fd5b6000613cab85828601613a55565b9250506020613cbc85828601613a7f565b9150509250929050565b60008060408385031215613cd957600080fd5b6000613ce785828601613a55565b9250506020613cf885828601613b1d565b9150509250929050565b600060208284031215613d1457600080fd5b6000613d2284828501613a94565b91505092915050565b60008060208385031215613d3e57600080fd5b600083013567ffffffffffffffff811115613d5857600080fd5b613d6485828601613ad3565b92509250509250929050565b600060208284031215613d8257600080fd5b6000613d9084828501613b1d565b91505092915050565b600080600060408486031215613dae57600080fd5b6000613dbc86828701613b1d565b935050602084013567ffffffffffffffff811115613dd957600080fd5b613de586828701613ad3565b92509250509250925092565b613dfa816141c2565b82525050565b613e09816141c2565b82525050565b613e18816141d4565b82525050565b6000613e2a83856141b1565b9350613e37838584614236565b613e408361427a565b840190509392505050565b6000613e56826141a6565b613e6081856141b1565b9350613e70818560208601614245565b613e798161427a565b840191505092915050565b6000613e916032836141b1565b91507f537570655261726556323a204e6f7420746865204f776e6572206f662074686560008301527f205375706552617265563120546f6b656e2100000000000000000000000000006020830152604082019050919050565b6000613ef7601e836141b1565b91507f53757065526172652056323a204475706c6963617465204465706f73697400006000830152602082019050919050565b6000613f376011836141b1565b91507f4445504f534954535f44495341424c45440000000000000000000000000000006000830152602082019050919050565b606082016000820151613f806000850182613df1565b506020820151613f936020850182613fac565b506040820151613fa66040850182613fac565b50505050565b613fb58161422c565b82525050565b613fc48161422c565b82525050565b6000602082019050613fdf6000830184613e00565b92915050565b6000606082019050613ffa6000830186613e00565b6140076020830185613fbb565b6140146040830184613fbb565b949350505050565b60006020820190506140316000830184613e0f565b92915050565b60006020820190508181036000830152614052818486613e1e565b90509392505050565b600060208201905081810360008301526140758184613e4b565b905092915050565b6000602082019050818103600083015261409681613e84565b9050919050565b600060208201905081810360008301526140b681613eea565b9050919050565b600060208201905081810360008301526140d681613f2a565b9050919050565b60006060820190506140f26000830184613f6a565b92915050565b600060208201905061410d6000830184613fbb565b92915050565b60006040820190506141286000830186613fbb565b818103602083015261413b818486613e1e565b9050949350505050565b6000604051905081810181811067ffffffffffffffff8211171561416c5761416b614278565b5b8060405250919050565b600067ffffffffffffffff82111561419157614190614278565b5b601f19601f8301169050602081019050919050565b600081519050919050565b600082825260208201905092915050565b60006141cd8261420c565b9050919050565b60008115159050919050565b60007fffffffff0000000000000000000000000000000000000000000000000000000082169050919050565b600073ffffffffffffffffffffffffffffffffffffffff82169050919050565b6000819050919050565b82818337600083830152505050565b60005b83811015614263578082015181840152602081019050614248565b83811115614272576000848401525b50505050565bfe5b6000601f19601f8301169050919050565b614294816141c2565b811461429f57600080fd5b50565b6142ab816141d4565b81146142b657600080fd5b50565b6142c2816141e0565b81146142cd57600080fd5b50565b6142d98161422c565b81146142e457600080fd5b5056fe456e756d657261626c655365743a20696e646578206f7574206f6620626f756e64734552433732313a207472616e7366657220746f206e6f6e20455243373231526563656976657220696d706c656d656e7465724f776e61626c653a206e6577206f776e657220697320746865207a65726f20616464726573734552433732313a207472616e7366657220746f20746865207a65726f2061646472657373416464726573733a20696e73756666696369656e742062616c616e636520666f722063616c6c4552433732313a206f70657261746f7220717565727920666f72206e6f6e6578697374656e7420746f6b656e4552433732313a20617070726f76652063616c6c6572206973206e6f74206f776e6572206e6f7220617070726f76656420666f7220616c6c4552433732313a2062616c616e636520717565727920666f7220746865207a65726f20616464726573734552433732313a206f776e657220717565727920666f72206e6f6e6578697374656e7420746f6b656e456e756d657261626c654d61703a20696e646578206f7574206f6620626f756e64734552433732313a20617070726f76656420717565727920666f72206e6f6e6578697374656e7420746f6b656e4552433732314d657461646174613a2055524920736574206f66206e6f6e6578697374656e7420746f6b656e4552433732313a207472616e73666572206f6620746f6b656e2074686174206973206e6f74206f776e4552433732314d657461646174613a2055524920717565727920666f72206e6f6e6578697374656e7420746f6b656e4552433732313a20617070726f76616c20746f2063757272656e74206f776e65724552433732313a207472616e736665722063616c6c6572206973206e6f74206f776e6572206e6f7220617070726f766564a2646970667358221220ab67220cae2f7e64e632ffaecd2ae5fe7808fe94205c402a28f0feb2acce35d364736f6c63430007060033",
  "linkReferences": {},
  "deployedLinkReferences": {}
}