{
  "_format": "hh-sol-artifact-1",
  "contractName": "SupeRareV2",
  "sourceName": "contracts/SupeRareV2.sol",
  "abi": [
    {
      "inputs": [
        {
          "internalType": "address",
          "name": "OriginalSupeRareAddr_",
          "type": "address"
        }
      ],
      "stateMutability": "nonpayable",
      "type": "constructor"
    },
    {
      "anonymous": false,
      "inputs": [
        {
          "indexed": true,
          "internalType": "address",
          "name": "owner",
          "type": "address"
        },
        {
          "indexed": true,
          "internalType": "address",
          "name": "approved",
          "type": "address"
        },
        {
          "indexed": true,
          "internalType": "uint256",
          "name": "tokenId",
          "type": "uint256"
        }
      ],
      "name": "Approval",
      "type": "event"
    },
    {
      "anonymous": false,
      "inputs": [
        {
          "indexed": true,
          "internalType": "address",
          "name": "owner",
          "type": "address"
        },
        {
          "indexed": true,
          "internalType": "address",
          "name": "operator",
          "type": "address"
        },
        {
          "indexed": false,
          "internalType": "bool",
          "name": "approved",
          "type": "bool"
        }
      ],
      "name": "ApprovalForAll",
      "type": "event"
    },
    {
      "anonymous": false,
      "inputs": [
        {
          "indexed": false,
          "internalType": "string",
          "name": "_baseURI",
          "type": "string"
        }
      ],
      "name": "BaseURISet",
      "type": "event"
    },
    {
      "anonymous": false,
      "inputs": [
        {
          "indexed": true,
          "internalType": "address",
          "name": "v1owner",
          "type": "address"
        },
        {
          "indexed": true,
          "internalType": "uint256",
          "name": "v2tokenId",
          "type": "uint256"
        }
      ],
      "name": "MintV2",
      "type": "event"
    },
    {
      "anonymous": false,
      "inputs": [
        {
          "indexed": true,
          "internalType": "address",
          "name": "v1owner",
          "type": "address"
        },
        {
          "indexed": true,
          "internalType": "uint256",
          "name": "v1tokenId",
          "type": "uint256"
        }
      ],
      "name": "OwnerWhitelisted",
      "type": "event"
    },
    {
      "anonymous": false,
      "inputs": [
        {
          "indexed": true,
          "internalType": "address",
          "name": "previousOwner",
          "type": "address"
        },
        {
          "indexed": true,
          "internalType": "address",
          "name": "newOwner",
          "type": "address"
        }
      ],
      "name": "OwnershipTransferred",
      "type": "event"
    },
    {
      "anonymous": false,
      "inputs": [
        {
          "indexed": true,
          "internalType": "uint256",
          "name": "v1tokenId",
          "type": "uint256"
        }
      ],
      "name": "Pegged",
      "type": "event"
    },
    {
      "anonymous": false,
      "inputs": [
        {
          "indexed": false,
          "internalType": "uint256",
          "name": "_tokenId",
          "type": "uint256"
        },
        {
          "indexed": false,
          "internalType": "string",
          "name": "_tokenURI",
          "type": "string"
        }
      ],
      "name": "TokenURISet",
      "type": "event"
    },
    {
      "anonymous": false,
      "inputs": [
        {
          "indexed": true,
          "internalType": "address",
          "name": "from",
          "type": "address"
        },
        {
          "indexed": true,
          "internalType": "address",
          "name": "to",
          "type": "address"
        },
        {
          "indexed": true,
          "internalType": "uint256",
          "name": "tokenId",
          "type": "uint256"
        }
      ],
      "name": "Transfer",
      "type": "event"
    },
    {
      "anonymous": false,
      "inputs": [
        {
          "indexed": true,
          "internalType": "address",
          "name": "v2owner",
          "type": "address"
        },
        {
          "indexed": true,
          "internalType": "uint256",
          "name": "v2tokenId",
          "type": "uint256"
        }
      ],
      "name": "WithdrawV1",
      "type": "event"
    },
    {
      "inputs": [
        {
          "internalType": "address",
          "name": "to",
          "type": "address"
        },
        {
          "internalType": "uint256",
          "name": "tokenId",
          "type": "uint256"
        }
      ],
      "name": "approve",
      "outputs": [],
      "stateMutability": "nonpayable",
      "type": "function"
    },
    {
      "inputs": [
        {
          "internalType": "address",
          "name": "owner",
          "type": "address"
        }
      ],
      "name": "balanceOf",
      "outputs": [
        {
          "internalType": "uint256",
          "name": "",
          "type": "uint256"
        }
      ],
      "stateMutability": "view",
      "type": "function"
    },
    {
      "inputs": [],
      "name": "baseURI",
      "outputs": [
        {
          "internalType": "string",
          "name": "",
          "type": "string"
        }
      ],
      "stateMutability": "view",
      "type": "function"
    },
    {
      "inputs": [
        {
          "internalType": "uint256",
          "name": "_v1TokenId",
          "type": "uint256"
        }
      ],
      "name": "getAddedToWhitelist",
      "outputs": [
        {
          "internalType": "bool",
          "name": "",
          "type": "bool"
        }
      ],
      "stateMutability": "nonpayable",
      "type": "function"
    },
    {
      "inputs": [
        {
          "internalType": "uint256",
          "name": "tokenId",
          "type": "uint256"
        }
      ],
      "name": "getApproved",
      "outputs": [
        {
          "internalType": "address",
          "name": "",
          "type": "address"
        }
      ],
      "stateMutability": "view",
      "type": "function"
    },
    {
      "inputs": [],
      "name": "getSupeRareAddress",
      "outputs": [
        {
          "internalType": "address",
          "name": "",
          "type": "address"
        }
      ],
      "stateMutability": "view",
      "type": "function"
    },
    {
      "inputs": [
        {
          "internalType": "address",
          "name": "owner",
          "type": "address"
        },
        {
          "internalType": "address",
          "name": "operator",
          "type": "address"
        }
      ],
      "name": "isApprovedForAll",
      "outputs": [
        {
          "internalType": "bool",
          "name": "",
          "type": "bool"
        }
      ],
      "stateMutability": "view",
      "type": "function"
    },
    {
      "inputs": [
        {
          "internalType": "uint256",
          "name": "_tokenId",
          "type": "uint256"
        }
      ],
      "name": "isPegged",
      "outputs": [
        {
          "internalType": "bool",
          "name": "",
          "type": "bool"
        }
      ],
      "stateMutability": "view",
      "type": "function"
    },
    {
      "inputs": [
        {
          "internalType": "uint256",
          "name": "_v1TokenId",
          "type": "uint256"
        }
      ],
      "name": "isWhitelisted",
      "outputs": [
        {
          "internalType": "bool",
          "name": "",
          "type": "bool"
        }
      ],
      "stateMutability": "view",
      "type": "function"
    },
    {
      "inputs": [
        {
          "internalType": "uint256",
          "name": "_tokenId",
          "type": "uint256"
        }
      ],
      "name": "mintV2",
      "outputs": [
        {
          "internalType": "bool",
          "name": "",
          "type": "bool"
        }
      ],
      "stateMutability": "nonpayable",
      "type": "function"
    },
    {
      "inputs": [],
      "name": "name",
      "outputs": [
        {
          "internalType": "string",
          "name": "",
          "type": "string"
        }
      ],
      "stateMutability": "view",
      "type": "function"
    },
    {
      "inputs": [
        {
          "internalType": "address",
          "name": "",
          "type": "address"
        },
        {
          "internalType": "address",
          "name": "",
          "type": "address"
        },
        {
          "internalType": "uint256",
          "name": "",
          "type": "uint256"
        },
        {
          "internalType": "bytes",
          "name": "",
          "type": "bytes"
        }
      ],
      "name": "onERC721Received",
      "outputs": [
        {
          "internalType": "bytes4",
          "name": "",
          "type": "bytes4"
        }
      ],
      "stateMutability": "view",
      "type": "function"
    },
    {
      "inputs": [],
      "name": "owner",
      "outputs": [
        {
          "internalType": "address",
          "name": "",
          "type": "address"
        }
      ],
      "stateMutability": "view",
      "type": "function"
    },
    {
      "inputs": [
        {
          "internalType": "address",
          "name": "",
          "type": "address"
        },
        {
          "internalType": "uint256",
          "name": "",
          "type": "uint256"
        }
      ],
      "name": "ownerAddrToV1toV2TokenId",
      "outputs": [
        {
          "internalType": "uint256",
          "name": "",
          "type": "uint256"
        }
      ],
      "stateMutability": "view",
      "type": "function"
    },
    {
      "inputs": [
        {
          "internalType": "uint256",
          "name": "tokenId",
          "type": "uint256"
        }
      ],
      "name": "ownerOf",
      "outputs": [
        {
          "internalType": "address",
          "name": "",
          "type": "address"
        }
      ],
      "stateMutability": "view",
      "type": "function"
    },
    {
      "inputs": [
        {
          "internalType": "uint256",
          "name": "",
          "type": "uint256"
        }
      ],
      "name": "ownerWhiteList",
      "outputs": [
        {
          "internalType": "address",
          "name": "",
          "type": "address"
        }
      ],
      "stateMutability": "view",
      "type": "function"
    },
    {
      "inputs": [],
      "name": "renounceOwnership",
      "outputs": [],
      "stateMutability": "nonpayable",
      "type": "function"
    },
    {
      "inputs": [
        {
          "internalType": "address",
          "name": "from",
          "type": "address"
        },
        {
          "internalType": "address",
          "name": "to",
          "type": "address"
        },
        {
          "internalType": "uint256",
          "name": "tokenId",
          "type": "uint256"
        }
      ],
      "name": "safeTransfer",
      "outputs": [],
      "stateMutability": "nonpayable",
      "type": "function"
    },
    {
      "inputs": [
        {
          "internalType": "address",
          "name": "from",
          "type": "address"
        },
        {
          "internalType": "address",
          "name": "to",
          "type": "address"
        },
        {
          "internalType": "uint256",
          "name": "tokenId",
          "type": "uint256"
        }
      ],
      "name": "safeTransferFrom",
      "outputs": [],
      "stateMutability": "nonpayable",
      "type": "function"
    },
    {
      "inputs": [
        {
          "internalType": "address",
          "name": "from",
          "type": "address"
        },
        {
          "internalType": "address",
          "name": "to",
          "type": "address"
        },
        {
          "internalType": "uint256",
          "name": "tokenId",
          "type": "uint256"
        },
        {
          "internalType": "bytes",
          "name": "_data",
          "type": "bytes"
        }
      ],
      "name": "safeTransferFrom",
      "outputs": [],
      "stateMutability": "nonpayable",
      "type": "function"
    },
    {
      "inputs": [
        {
          "internalType": "address",
          "name": "from",
          "type": "address"
        },
        {
          "internalType": "address",
          "name": "to",
          "type": "address"
        },
        {
          "internalType": "uint256",
          "name": "tokenId",
          "type": "uint256"
        }
      ],
      "name": "safelyTransfer",
      "outputs": [
        {
          "internalType": "bool",
          "name": "",
          "type": "bool"
        }
      ],
      "stateMutability": "nonpayable",
      "type": "function"
    },
    {
      "inputs": [
        {
          "internalType": "address",
          "name": "operator",
          "type": "address"
        },
        {
          "internalType": "bool",
          "name": "approved",
          "type": "bool"
        }
      ],
      "name": "setApprovalForAll",
      "outputs": [],
      "stateMutability": "nonpayable",
      "type": "function"
    },
    {
      "inputs": [
        {
          "internalType": "string",
          "name": "baseURI",
          "type": "string"
        }
      ],
      "name": "setBaseURI",
      "outputs": [
        {
          "internalType": "bool",
          "name": "",
          "type": "bool"
        }
      ],
      "stateMutability": "nonpayable",
      "type": "function"
    },
    {
      "inputs": [
        {
          "internalType": "uint256",
          "name": "_tokenId",
          "type": "uint256"
        },
        {
          "internalType": "string",
          "name": "_tokenURI",
          "type": "string"
        }
      ],
      "name": "setTokenURI",
      "outputs": [
        {
          "internalType": "bool",
          "name": "",
          "type": "bool"
        }
      ],
      "stateMutability": "nonpayable",
      "type": "function"
    },
    {
      "inputs": [
        {
          "internalType": "bytes4",
          "name": "interfaceId",
          "type": "bytes4"
        }
      ],
      "name": "supportsInterface",
      "outputs": [
        {
          "internalType": "bool",
          "name": "",
          "type": "bool"
        }
      ],
      "stateMutability": "view",
      "type": "function"
    },
    {
      "inputs": [],
      "name": "symbol",
      "outputs": [
        {
          "internalType": "string",
          "name": "",
          "type": "string"
        }
      ],
      "stateMutability": "view",
      "type": "function"
    },
    {
      "inputs": [
        {
          "internalType": "uint256",
          "name": "index",
          "type": "uint256"
        }
      ],
      "name": "tokenByIndex",
      "outputs": [
        {
          "internalType": "uint256",
          "name": "",
          "type": "uint256"
        }
      ],
      "stateMutability": "view",
      "type": "function"
    },
    {
      "inputs": [
        {
          "internalType": "address",
          "name": "owner",
          "type": "address"
        },
        {
          "internalType": "uint256",
          "name": "index",
          "type": "uint256"
        }
      ],
      "name": "tokenOfOwnerByIndex",
      "outputs": [
        {
          "internalType": "uint256",
          "name": "",
          "type": "uint256"
        }
      ],
      "stateMutability": "view",
      "type": "function"
    },
    {
      "inputs": [
        {
          "internalType": "uint256",
          "name": "tokenId",
          "type": "uint256"
        }
      ],
      "name": "tokenURI",
      "outputs": [
        {
          "internalType": "string",
          "name": "",
          "type": "string"
        }
      ],
      "stateMutability": "view",
      "type": "function"
    },
    {
      "inputs": [],
      "name": "totalSupply",
      "outputs": [
        {
          "internalType": "uint256",
          "name": "",
          "type": "uint256"
        }
      ],
      "stateMutability": "view",
      "type": "function"
    },
    {
      "inputs": [
        {
          "internalType": "address",
          "name": "from",
          "type": "address"
        },
        {
          "internalType": "address",
          "name": "to",
          "type": "address"
        },
        {
          "internalType": "uint256",
          "name": "tokenId",
          "type": "uint256"
        }
      ],
      "name": "transferFrom",
      "outputs": [],
      "stateMutability": "nonpayable",
      "type": "function"
    },
    {
      "inputs": [
        {
          "internalType": "address",
          "name": "newOwner",
          "type": "address"
        }
      ],
      "name": "transferOwnership",
      "outputs": [],
      "stateMutability": "nonpayable",
      "type": "function"
    },
    {
      "inputs": [
        {
          "internalType": "uint256",
          "name": "_tokenId",
          "type": "uint256"
        }
      ],
      "name": "withdraw",
      "outputs": [
        {
          "internalType": "bool",
          "name": "",
          "type": "bool"
        }
      ],
      "stateMutability": "nonpayable",
      "type": "function"
    }
  ],
  "bytecode": "0x60806040526040518060400160405280600881526020017f5375706552617265000000000000000000000000000000000000000000000000815250600e908051906020019062000051929190620004f6565b506040518060400160405280600481526020017f5355505200000000000000000000000000000000000000000000000000000000815250600f90805190602001906200009f929190620004f6565b50348015620000ad57600080fd5b506040516200502b3803806200502b8339818101604052810190620000d39190620005c3565b600e8054600181600116156101000203166002900480601f0160208091040260200160405190810160405280929190818152602001828054600181600116156101000203166002900480156200016d5780601f1062000141576101008083540402835291602001916200016d565b820191906000526020600020905b8154815290600101906020018083116200014f57829003601f168201915b5050505050600f8054600181600116156101000203166002900480601f0160208091040260200160405190810160405280929190818152602001828054600181600116156101000203166002900480156200020c5780601f10620001e0576101008083540402835291602001916200020c565b820191906000526020600020905b815481529060010190602001808311620001ee57829003601f168201915b5050505050600062000223620003e560201b60201c565b9050806000806101000a81548173ffffffffffffffffffffffffffffffffffffffff021916908373ffffffffffffffffffffffffffffffffffffffff1602179055508073ffffffffffffffffffffffffffffffffffffffff16600073ffffffffffffffffffffffffffffffffffffffff167f8be0079c531659141344cd1fd0a4f28419497f9722a3daafe3b4186f6b6457e060405160405180910390a350620002d96301ffc9a760e01b620003ed60201b60201c565b8160079080519060200190620002f1929190620004f6565b5080600890805190602001906200030a929190620004f6565b50620003236380ac58cd60e01b620003ed60201b60201c565b6200033b635b5e139f60e01b620003ed60201b60201c565b6200035363780e9d6360e01b620003ed60201b60201c565b505080600c60006101000a81548173ffffffffffffffffffffffffffffffffffffffff021916908373ffffffffffffffffffffffffffffffffffffffff160217905550620003ae6380ac58cd60e01b620003ed60201b60201c565b620003c6635b5e139f60e01b620003ed60201b60201c565b620003de63780e9d6360e01b620003ed60201b60201c565b506200063d565b600033905090565b63ffffffff60e01b817bffffffffffffffffffffffffffffffffffffffffffffffffffffffff191614156200048a576040517f08c379a000000000000000000000000000000000000000000000000000000000815260040180806020018281038252601c8152602001807f4552433136353a20696e76616c696420696e746572666163652069640000000081525060200191505060405180910390fd5b6001806000837bffffffffffffffffffffffffffffffffffffffffffffffffffffffff19167bffffffffffffffffffffffffffffffffffffffffffffffffffffffff1916815260200190815260200160002060006101000a81548160ff02191690831515021790555050565b828054600181600116156101000203166002900490600052602060002090601f0160209004810192826200052e57600085556200057a565b82601f106200054957805160ff19168380011785556200057a565b828001600101855582156200057a579182015b82811115620005795782518255916020019190600101906200055c565b5b5090506200058991906200058d565b5090565b5b80821115620005a85760008160009055506001016200058e565b5090565b600081519050620005bd8162000623565b92915050565b600060208284031215620005d657600080fd5b6000620005e684828501620005ac565b91505092915050565b6000620005fc8262000603565b9050919050565b600073ffffffffffffffffffffffffffffffffffffffff82169050919050565b6200062e81620005ef565b81146200063a57600080fd5b50565b6149de806200064d6000396000f3fe608060405234801561001057600080fd5b50600436106101fb5760003560e01c80636352211e1161011a57806395d89b41116100ad578063c87b56dd1161007c578063c87b56dd1461064a578063d1660f991461067a578063e985e9c514610696578063f2fde38b146106c6578063fcb217b5146106e2576101fb565b806395d89b41146105c45780639ae82406146105e2578063a22cb46514610612578063b88d4fde1461062e576101fb565b8063715018a6116100e9578063715018a61461053c578063751b02c21461054657806387d45d01146105765780638da5cb5b146105a6576101fb565b80636352211e1461048e5780636c0360eb146104be5780636c0e6754146104dc57806370a082311461050c576101fb565b806323b872dd1161019257806342842e0e1161016157806342842e0e146103e25780634f6ccce7146103fe57806355f804b31461042e578063600089431461045e576101fb565b806323b872dd146103485780632e1a7d4d146103645780632f745c591461039457806336464789146103c4576101fb565b8063095ea7b3116101ce578063095ea7b3146102ae578063150b7a02146102ca578063162094c4146102fa57806318160ddd1461032a576101fb565b806301ffc9a71461020057806306fdde031461023057806307e485481461024e578063081812fc1461027e575b600080fd5b61021a60048036038101906102159190613dd1565b610712565b6040516102279190614358565b60405180910390f35b61023861077a565b60405161024591906143b2565b60405180910390f35b61026860048036038101906102639190613e80565b61081c565b6040516102759190614358565b60405180910390f35b61029860048036038101906102939190613e80565b610846565b6040516102a59190614314565b60405180910390f35b6102c860048036038101906102c39190613d95565b6108e1565b005b6102e460048036038101906102df9190613cde565b610a25565b6040516102f19190614373565b60405180910390f35b610314600480360381019061030f9190613ea9565b610a39565b6040516103219190614358565b60405180910390f35b610332610b7e565b60405161033f91906144b4565b60405180910390f35b610362600480360381019061035d9190613c8f565b610b8f565b005b61037e60048036038101906103799190613e80565b610c05565b60405161038b9190614358565b60405180910390f35b6103ae60048036038101906103a99190613d95565b610e5b565b6040516103bb91906144b4565b60405180910390f35b6103cc610eb6565b6040516103d99190614314565b60405180910390f35b6103fc60048036038101906103f79190613c8f565b610ee0565b005b61041860048036038101906104139190613e80565b610f00565b60405161042591906144b4565b60405180910390f35b61044860048036038101906104439190613dfa565b610f23565b6040516104559190614358565b60405180910390f35b61047860048036038101906104739190613e80565b611064565b6040516104859190614314565b60405180910390f35b6104a860048036038101906104a39190613e80565b611097565b6040516104b59190614314565b60405180910390f35b6104c66110ce565b6040516104d391906143b2565b60405180910390f35b6104f660048036038101906104f19190613d95565b611170565b60405161050391906144b4565b60405180910390f35b61052660048036038101906105219190613c01565b611195565b60405161053391906144b4565b60405180910390f35b61054461126a565b005b610560600480360381019061055b9190613e80565b6113d7565b60405161056d9190614358565b60405180910390f35b610590600480360381019061058b9190613e80565b611457565b60405161059d9190614358565b60405180910390f35b6105ae611695565b6040516105bb9190614314565b60405180910390f35b6105cc6116be565b6040516105d991906143b2565b60405180910390f35b6105fc60048036038101906105f79190613c8f565b611760565b6040516106099190614358565b60405180910390f35b61062c60048036038101906106279190613d59565b611788565b005b61064860048036038101906106439190613cde565b61193e565b005b610664600480360381019061065f9190613e80565b6119b6565b60405161067191906143b2565b60405180910390f35b610694600480360381019061068f9190613c8f565b611c87565b005b6106b060048036038101906106ab9190613c53565b611ca7565b6040516106bd9190614358565b60405180910390f35b6106e060048036038101906106db9190613c01565b611d3b565b005b6106fc60048036038101906106f79190613e80565b611f2d565b6040516107099190614358565b60405180910390f35b600060016000837bffffffffffffffffffffffffffffffffffffffffffffffffffffffff19167bffffffffffffffffffffffffffffffffffffffffffffffffffffffff1916815260200190815260200160002060009054906101000a900460ff169050919050565b606060078054600181600116156101000203166002900480601f0160208091040260200160405190810160405280929190818152602001828054600181600116156101000203166002900480156108125780601f106107e757610100808354040283529160200191610812565b820191906000526020600020905b8154815290600101906020018083116107f557829003601f168201915b5050505050905090565b60006012600083815260200190815260200160002060009054906101000a900460ff169050919050565b6000610851826121a6565b6108a6576040517f08c379a000000000000000000000000000000000000000000000000000000000815260040180806020018281038252602c8152602001806148a7602c913960400191505060405180910390fd5b6005600083815260200190815260200160002060009054906101000a900473ffffffffffffffffffffffffffffffffffffffff169050919050565b60006108ec82611097565b90508073ffffffffffffffffffffffffffffffffffffffff168373ffffffffffffffffffffffffffffffffffffffff161415610973576040517f08c379a00000000000000000000000000000000000000000000000000000000081526004018080602001828103825260218152602001806149576021913960400191505060405180910390fd5b8073ffffffffffffffffffffffffffffffffffffffff166109926121c3565b73ffffffffffffffffffffffffffffffffffffffff1614806109c157506109c0816109bb6121c3565b611ca7565b5b610a16576040517f08c379a00000000000000000000000000000000000000000000000000000000081526004018080602001828103825260388152602001806147fa6038913960400191505060405180910390fd5b610a2083836121cb565b505050565b600063150b7a0260e01b9050949350505050565b6000610a436121c3565b73ffffffffffffffffffffffffffffffffffffffff16610a61611695565b73ffffffffffffffffffffffffffffffffffffffff1614610aea576040517f08c379a00000000000000000000000000000000000000000000000000000000081526004018080602001828103825260208152602001807f4f776e61626c653a2063616c6c6572206973206e6f7420746865206f776e657281525060200191505060405180910390fd5b610b388484848080601f016020809104026020016040519081016040528093929190818152602001838380828437600081840152601f19601f82011690508083019250505050505050612284565b7fda84ca2183491f179a603e877b2cb058e42195041c2b9c53d746427e519a34df848484604051610b6b939291906144cf565b60405180910390a1600190509392505050565b6000610b8a600361230e565b905090565b610ba0610b9a6121c3565b82612323565b610bf5576040517f08c379a00000000000000000000000000000000000000000000000000000000081526004018080602001828103825260318152602001806149786031913960400191505060405180910390fd5b610c00838383612417565b505050565b600081610c106121c3565b73ffffffffffffffffffffffffffffffffffffffff16610c2f82611097565b73ffffffffffffffffffffffffffffffffffffffff1614610c85576040517f08c379a0000000000000000000000000000000000000000000000000000000008152600401610c7c90614474565b60405180910390fd5b826012600082815260200190815260200160002060009054906101000a900460ff16610ce6576040517f08c379a0000000000000000000000000000000000000000000000000000000008152600401610cdd906143d4565b60405180910390fd5b600073ffffffffffffffffffffffffffffffffffffffff16610d066121c3565b73ffffffffffffffffffffffffffffffffffffffff161415610d5d576040517f08c379a0000000000000000000000000000000000000000000000000000000008152600401610d5490614454565b60405180910390fd5b610d668461265a565b600c60009054906101000a900473ffffffffffffffffffffffffffffffffffffffff1673ffffffffffffffffffffffffffffffffffffffff1663a9059cbb610dac6121c3565b866040518363ffffffff1660e01b8152600401610dca92919061432f565b600060405180830381600087803b158015610de457600080fd5b505af1158015610df8573d6000803e3d6000fd5b50505050610e0584612794565b83610e0e6121c3565b73ffffffffffffffffffffffffffffffffffffffff167f137405ae38c6e13c1dae5b6f5d4eb90010220c7c552dcaccc7b9c038c0177af860405160405180910390a3600192505050919050565b6000610eae82600260008673ffffffffffffffffffffffffffffffffffffffff1673ffffffffffffffffffffffffffffffffffffffff16815260200190815260200160002061281690919063ffffffff16565b905092915050565b6000600b60009054906101000a900473ffffffffffffffffffffffffffffffffffffffff16905090565b610efb8383836040518060200160405280600081525061193e565b505050565b600080610f1783600361283090919063ffffffff16565b50905080915050919050565b6000610f2d6121c3565b73ffffffffffffffffffffffffffffffffffffffff16610f4b611695565b73ffffffffffffffffffffffffffffffffffffffff1614610fd4576040517f08c379a00000000000000000000000000000000000000000000000000000000081526004018080602001828103825260208152602001807f4f776e61626c653a2063616c6c6572206973206e6f7420746865206f776e657281525060200191505060405180910390fd5b61102183838080601f016020809104026020016040519081016040528093929190818152602001838380828437600081840152601f19601f8201169050808301925050505050505061285c565b7ff9c7803e94e0d3c02900d8a90893a6d5e90dd04d32a4cfe825520f82bf9f32f6838360405161105292919061438e565b60405180910390a16001905092915050565b60116020528060005260406000206000915054906101000a900473ffffffffffffffffffffffffffffffffffffffff1681565b60006110c78260405180606001604052806029815260200161485c6029913960036128769092919063ffffffff16565b9050919050565b6060600a8054600181600116156101000203166002900480601f0160208091040260200160405190810160405280929190818152602001828054600181600116156101000203166002900480156111665780601f1061113b57610100808354040283529160200191611166565b820191906000526020600020905b81548152906001019060200180831161114957829003601f168201915b5050505050905090565b6010602052816000526040600020602052806000526040600020600091509150505481565b60008073ffffffffffffffffffffffffffffffffffffffff168273ffffffffffffffffffffffffffffffffffffffff16141561121c576040517f08c379a000000000000000000000000000000000000000000000000000000000815260040180806020018281038252602a815260200180614832602a913960400191505060405180910390fd5b611263600260008473ffffffffffffffffffffffffffffffffffffffff1673ffffffffffffffffffffffffffffffffffffffff168152602001908152602001600020612895565b9050919050565b6112726121c3565b73ffffffffffffffffffffffffffffffffffffffff16611290611695565b73ffffffffffffffffffffffffffffffffffffffff1614611319576040517f08c379a00000000000000000000000000000000000000000000000000000000081526004018080602001828103825260208152602001807f4f776e61626c653a2063616c6c6572206973206e6f7420746865206f776e657281525060200191505060405180910390fd5b600073ffffffffffffffffffffffffffffffffffffffff1660008054906101000a900473ffffffffffffffffffffffffffffffffffffffff1673ffffffffffffffffffffffffffffffffffffffff167f8be0079c531659141344cd1fd0a4f28419497f9722a3daafe3b4186f6b6457e060405160405180910390a360008060006101000a81548173ffffffffffffffffffffffffffffffffffffffff021916908373ffffffffffffffffffffffffffffffffffffffff160217905550565b60006113e16121c3565b73ffffffffffffffffffffffffffffffffffffffff166011600084815260200190815260200160002060009054906101000a900473ffffffffffffffffffffffffffffffffffffffff1673ffffffffffffffffffffffffffffffffffffffff161461144d576000611450565b60015b9050919050565b6000816114626121c3565b73ffffffffffffffffffffffffffffffffffffffff166011600083815260200190815260200160002060009054906101000a900473ffffffffffffffffffffffffffffffffffffffff1673ffffffffffffffffffffffffffffffffffffffff1614611502576040517f08c379a00000000000000000000000000000000000000000000000000000000081526004016114f9906143f4565b60405180910390fd5b61150b836128aa565b61154a576040517f08c379a000000000000000000000000000000000000000000000000000000000815260040161154190614414565b60405180910390fd5b61155b6115556121c3565b8461293e565b61161483600c60009054906101000a900473ffffffffffffffffffffffffffffffffffffffff1673ffffffffffffffffffffffffffffffffffffffff1663c87b56dd866040518263ffffffff1660e01b81526004016115ba91906144b4565b60006040518083038186803b1580156115d257600080fd5b505afa1580156115e6573d6000803e3d6000fd5b505050506040513d6000823e3d601f19601f8201168201806040525081019061160f9190613e3f565b612284565b60016012600085815260200190815260200160002060006101000a81548160ff021916908315150217905550826116496121c3565b73ffffffffffffffffffffffffffffffffffffffff167f3c739b6a95f75f9e762038efa06f6758bbab40ef0b17f9f07cd3476eeac984e460405160405180910390a36001915050919050565b60008060009054906101000a900473ffffffffffffffffffffffffffffffffffffffff16905090565b606060088054600181600116156101000203166002900480601f0160208091040260200160405190810160405280929190818152602001828054600181600116156101000203166002900480156117565780601f1061172b57610100808354040283529160200191611756565b820191906000526020600020905b81548152906001019060200180831161173957829003601f168201915b5050505050905090565b600061177d8484846040518060200160405280600081525061193e565b600190509392505050565b6117906121c3565b73ffffffffffffffffffffffffffffffffffffffff168273ffffffffffffffffffffffffffffffffffffffff161415611831576040517f08c379a00000000000000000000000000000000000000000000000000000000081526004018080602001828103825260198152602001807f4552433732313a20617070726f766520746f2063616c6c65720000000000000081525060200191505060405180910390fd5b806006600061183e6121c3565b73ffffffffffffffffffffffffffffffffffffffff1673ffffffffffffffffffffffffffffffffffffffff16815260200190815260200160002060008473ffffffffffffffffffffffffffffffffffffffff1673ffffffffffffffffffffffffffffffffffffffff16815260200190815260200160002060006101000a81548160ff0219169083151502179055508173ffffffffffffffffffffffffffffffffffffffff166118eb6121c3565b73ffffffffffffffffffffffffffffffffffffffff167f17307eab39ab6107e8899845ad3d59bd9653f200f220920489ca2b5937696c318360405180821515815260200191505060405180910390a35050565b61194f6119496121c3565b83612323565b6119a4576040517f08c379a00000000000000000000000000000000000000000000000000000000081526004018080602001828103825260318152602001806149786031913960400191505060405180910390fd5b6119b08484848461295c565b50505050565b60606119c1826121a6565b611a16576040517f08c379a000000000000000000000000000000000000000000000000000000000815260040180806020018281038252602f815260200180614928602f913960400191505060405180910390fd5b6000600960008481526020019081526020016000208054600181600116156101000203166002900480601f016020809104026020016040519081016040528092919081815260200182805460018160011615610100020316600290048015611abf5780601f10611a9457610100808354040283529160200191611abf565b820191906000526020600020905b815481529060010190602001808311611aa257829003601f168201915b505050505090506000611ad06110ce565b9050600081511415611ae6578192505050611c82565b600082511115611bb75780826040516020018083805190602001908083835b60208310611b285780518252602082019150602081019050602083039250611b05565b6001836020036101000a03801982511681845116808217855250505050505090500182805190602001908083835b60208310611b795780518252602082019150602081019050602083039250611b56565b6001836020036101000a0380198251168184511680821785525050505050509050019250505060405160208183030381529060405292505050611c82565b80611bc1856129ce565b6040516020018083805190602001908083835b60208310611bf75780518252602082019150602081019050602083039250611bd4565b6001836020036101000a03801982511681845116808217855250505050505090500182805190602001908083835b60208310611c485780518252602082019150602081019050602083039250611c25565b6001836020036101000a03801982511681845116808217855250505050505090500192505050604051602081830303815290604052925050505b919050565b611ca28383836040518060200160405280600081525061193e565b505050565b6000600660008473ffffffffffffffffffffffffffffffffffffffff1673ffffffffffffffffffffffffffffffffffffffff16815260200190815260200160002060008373ffffffffffffffffffffffffffffffffffffffff1673ffffffffffffffffffffffffffffffffffffffff16815260200190815260200160002060009054906101000a900460ff16905092915050565b611d436121c3565b73ffffffffffffffffffffffffffffffffffffffff16611d61611695565b73ffffffffffffffffffffffffffffffffffffffff1614611dea576040517f08c379a00000000000000000000000000000000000000000000000000000000081526004018080602001828103825260208152602001807f4f776e61626c653a2063616c6c6572206973206e6f7420746865206f776e657281525060200191505060405180910390fd5b600073ffffffffffffffffffffffffffffffffffffffff168173ffffffffffffffffffffffffffffffffffffffff161415611e70576040517f08c379a000000000000000000000000000000000000000000000000000000000815260040180806020018281038252602681526020018061475e6026913960400191505060405180910390fd5b8073ffffffffffffffffffffffffffffffffffffffff1660008054906101000a900473ffffffffffffffffffffffffffffffffffffffff1673ffffffffffffffffffffffffffffffffffffffff167f8be0079c531659141344cd1fd0a4f28419497f9722a3daafe3b4186f6b6457e060405160405180910390a3806000806101000a81548173ffffffffffffffffffffffffffffffffffffffff021916908373ffffffffffffffffffffffffffffffffffffffff16021790555050565b600081611f386121c3565b73ffffffffffffffffffffffffffffffffffffffff16600c60009054906101000a900473ffffffffffffffffffffffffffffffffffffffff1673ffffffffffffffffffffffffffffffffffffffff16636352211e836040518263ffffffff1660e01b8152600401611fa991906144b4565b60206040518083038186803b158015611fc157600080fd5b505afa158015611fd5573d6000803e3d6000fd5b505050506040513d601f19601f82011682018060405250810190611ff99190613c2a565b73ffffffffffffffffffffffffffffffffffffffff161461204f576040517f08c379a000000000000000000000000000000000000000000000000000000000815260040161204690614494565b60405180910390fd5b6120576121c3565b73ffffffffffffffffffffffffffffffffffffffff166011600085815260200190815260200160002060009054906101000a900473ffffffffffffffffffffffffffffffffffffffff1673ffffffffffffffffffffffffffffffffffffffff1614156120f8576040517f08c379a00000000000000000000000000000000000000000000000000000000081526004016120ef90614434565b60405180910390fd5b6121006121c3565b6011600085815260200190815260200160002060006101000a81548173ffffffffffffffffffffffffffffffffffffffff021916908373ffffffffffffffffffffffffffffffffffffffff1602179055508261215a6121c3565b73ffffffffffffffffffffffffffffffffffffffff167ff848bf1cacffecd6b9722baff28810b3649ee23fc48863217c908cc260405c8860405160405180910390a36001915050919050565b60006121bc826003612b1590919063ffffffff16565b9050919050565b600033905090565b816005600083815260200190815260200160002060006101000a81548173ffffffffffffffffffffffffffffffffffffffff021916908373ffffffffffffffffffffffffffffffffffffffff160217905550808273ffffffffffffffffffffffffffffffffffffffff1661223e83611097565b73ffffffffffffffffffffffffffffffffffffffff167f8c5be1e5ebec7d5bd14f71427d1e84f3dd0314c0f7b2291e5b200ac8c7c3b92560405160405180910390a45050565b61228d826121a6565b6122e2576040517f08c379a000000000000000000000000000000000000000000000000000000000815260040180806020018281038252602c8152602001806148d3602c913960400191505060405180910390fd5b8060096000848152602001908152602001600020908051906020019061230992919061398b565b505050565b600061231c82600001612b2f565b9050919050565b600061232e826121a6565b612383576040517f08c379a000000000000000000000000000000000000000000000000000000000815260040180806020018281038252602c8152602001806147ce602c913960400191505060405180910390fd5b600061238e83611097565b90508073ffffffffffffffffffffffffffffffffffffffff168473ffffffffffffffffffffffffffffffffffffffff1614806123fd57508373ffffffffffffffffffffffffffffffffffffffff166123e584610846565b73ffffffffffffffffffffffffffffffffffffffff16145b8061240e575061240d8185611ca7565b5b91505092915050565b8273ffffffffffffffffffffffffffffffffffffffff1661243782611097565b73ffffffffffffffffffffffffffffffffffffffff16146124a3576040517f08c379a00000000000000000000000000000000000000000000000000000000081526004018080602001828103825260298152602001806148ff6029913960400191505060405180910390fd5b600073ffffffffffffffffffffffffffffffffffffffff168273ffffffffffffffffffffffffffffffffffffffff161415612529576040517f08c379a00000000000000000000000000000000000000000000000000000000081526004018080602001828103825260248152602001806147846024913960400191505060405180910390fd5b612534838383612b40565b61253f6000826121cb565b61259081600260008673ffffffffffffffffffffffffffffffffffffffff1673ffffffffffffffffffffffffffffffffffffffff168152602001908152602001600020612b4590919063ffffffff16565b506125e281600260008573ffffffffffffffffffffffffffffffffffffffff1673ffffffffffffffffffffffffffffffffffffffff168152602001908152602001600020612b5f90919063ffffffff16565b506125f981836003612b799092919063ffffffff16565b50808273ffffffffffffffffffffffffffffffffffffffff168473ffffffffffffffffffffffffffffffffffffffff167fddf252ad1be2c89b69c2b068fc378daa952ba7f163c4a11628f55a4df523b3ef60405160405180910390a4505050565b600061266582611097565b905061267381600084612b40565b61267e6000836121cb565b600060096000848152602001908152602001600020805460018160011615610100020316600290049050146126cd576009600083815260200190815260200160002060006126cc9190613a19565b5b61271e82600260008473ffffffffffffffffffffffffffffffffffffffff1673ffffffffffffffffffffffffffffffffffffffff168152602001908152602001600020612b4590919063ffffffff16565b50612733826003612bae90919063ffffffff16565b5081600073ffffffffffffffffffffffffffffffffffffffff168273ffffffffffffffffffffffffffffffffffffffff167fddf252ad1be2c89b69c2b068fc378daa952ba7f163c4a11628f55a4df523b3ef60405160405180910390a45050565b60006011600083815260200190815260200160002060006101000a81548173ffffffffffffffffffffffffffffffffffffffff021916908373ffffffffffffffffffffffffffffffffffffffff16021790555060006012600083815260200190815260200160002060006101000a81548160ff02191690831515021790555050565b60006128258360000183612bc8565b60001c905092915050565b6000806000806128438660000186612c4b565b915091508160001c8160001c9350935050509250929050565b80600a908051906020019061287292919061398b565b5050565b6000612889846000018460001b84612ce4565b60001c90509392505050565b60006128a382600001612dda565b9050919050565b60006128b582612deb565b6128e95760006012600084815260200190815260200160002060006101000a81548160ff0219169083151502179055612915565b60016012600084815260200190815260200160002060006101000a81548160ff02191690831515021790555b506012600083815260200190815260200160002060009054906101000a900460ff169050919050565b612958828260405180602001604052806000815250612edb565b5050565b612967848484612417565b61297384848484612f4c565b6129c8576040517f08c379a000000000000000000000000000000000000000000000000000000000815260040180806020018281038252603281526020018061472c6032913960400191505060405180910390fd5b50505050565b60606000821415612a16576040518060400160405280600181526020017f30000000000000000000000000000000000000000000000000000000000000008152509050612b10565b600082905060005b60008214612a40578080600101915050600a8281612a3857fe5b049150612a1e565b60008167ffffffffffffffff81118015612a5957600080fd5b506040519080825280601f01601f191660200182016040528015612a8c5781602001600182028036833780820191505090505b50905060006001830390508593505b60008414612b0857600a8481612aad57fe5b0660300160f81b82828060019003935081518110612ac757fe5b60200101907effffffffffffffffffffffffffffffffffffffffffffffffffffffffffffff1916908160001a905350600a8481612b0057fe5b049350612a9b565b819450505050505b919050565b6000612b27836000018360001b613165565b905092915050565b600081600001805490509050919050565b505050565b6000612b57836000018360001b613188565b905092915050565b6000612b71836000018360001b613270565b905092915050565b6000612ba5846000018460001b8473ffffffffffffffffffffffffffffffffffffffff1660001b6132e0565b90509392505050565b6000612bc0836000018360001b6133bc565b905092915050565b600081836000018054905011612c29576040517f08c379a000000000000000000000000000000000000000000000000000000000815260040180806020018281038252602281526020018061470a6022913960400191505060405180910390fd5b826000018281548110612c3857fe5b9060005260206000200154905092915050565b60008082846000018054905011612cad576040517f08c379a00000000000000000000000000000000000000000000000000000000081526004018080602001828103825260228152602001806148856022913960400191505060405180910390fd5b6000846000018481548110612cbe57fe5b906000526020600020906002020190508060000154816001015492509250509250929050565b60008084600101600085815260200190815260200160002054905060008114158390612dab576040517f08c379a00000000000000000000000000000000000000000000000000000000081526004018080602001828103825283818151815260200191508051906020019080838360005b83811015612d70578082015181840152602081019050612d55565b50505050905090810190601f168015612d9d5780820380516001836020036101000a031916815260200191505b509250505060405180910390fd5b50846000016001820381548110612dbe57fe5b9060005260206000209060020201600101549150509392505050565b600081600001805490509050919050565b60003073ffffffffffffffffffffffffffffffffffffffff16600c60009054906101000a900473ffffffffffffffffffffffffffffffffffffffff1673ffffffffffffffffffffffffffffffffffffffff16636352211e846040518263ffffffff1660e01b8152600401612e5f91906144b4565b60206040518083038186803b158015612e7757600080fd5b505afa158015612e8b573d6000803e3d6000fd5b505050506040513d601f19601f82011682018060405250810190612eaf9190613c2a565b73ffffffffffffffffffffffffffffffffffffffff1614612ed1576000612ed4565b60015b9050919050565b612ee583836134d5565b612ef26000848484612f4c565b612f47576040517f08c379a000000000000000000000000000000000000000000000000000000000815260040180806020018281038252603281526020018061472c6032913960400191505060405180910390fd5b505050565b6000612f6d8473ffffffffffffffffffffffffffffffffffffffff166136c9565b612f7a576001905061315d565b60006130e463150b7a0260e01b612f8f6121c3565b888787604051602401808573ffffffffffffffffffffffffffffffffffffffff1681526020018473ffffffffffffffffffffffffffffffffffffffff16815260200183815260200180602001828103825283818151815260200191508051906020019080838360005b83811015613013578082015181840152602081019050612ff8565b50505050905090810190601f1680156130405780820380516001836020036101000a031916815260200191505b5095505050505050604051602081830303815290604052907bffffffffffffffffffffffffffffffffffffffffffffffffffffffff19166020820180517bffffffffffffffffffffffffffffffffffffffffffffffffffffffff838183161783525050505060405180606001604052806032815260200161472c603291398773ffffffffffffffffffffffffffffffffffffffff166136dc9092919063ffffffff16565b905060008180602001905160208110156130fd57600080fd5b8101908080519060200190929190505050905063150b7a0260e01b7bffffffffffffffffffffffffffffffffffffffffffffffffffffffff1916817bffffffffffffffffffffffffffffffffffffffffffffffffffffffff191614925050505b949350505050565b600080836001016000848152602001908152602001600020541415905092915050565b6000808360010160008481526020019081526020016000205490506000811461326457600060018203905060006001866000018054905003905060008660000182815481106131d357fe5b90600052602060002001549050808760000184815481106131f057fe5b906000526020600020018190555060018301876001016000838152602001908152602001600020819055508660000180548061322857fe5b6001900381819060005260206000200160009055905586600101600087815260200190815260200160002060009055600194505050505061326a565b60009150505b92915050565b600061327c83836136f4565b6132d55782600001829080600181540180825580915050600190039060005260206000200160009091909190915055826000018054905083600101600084815260200190815260200160002081905550600190506132da565b600090505b92915050565b6000808460010160008581526020019081526020016000205490506000811415613387578460000160405180604001604052808681526020018581525090806001815401808255809150506001900390600052602060002090600202016000909190919091506000820151816000015560208201518160010155505084600001805490508560010160008681526020019081526020016000208190555060019150506133b5565b8285600001600183038154811061339a57fe5b90600052602060002090600202016001018190555060009150505b9392505050565b600080836001016000848152602001908152602001600020549050600081146134c9576000600182039050600060018660000180549050039050600086600001828154811061340757fe5b906000526020600020906002020190508087600001848154811061342757fe5b906000526020600020906002020160008201548160000155600182015481600101559050506001830187600101600083600001548152602001908152602001600020819055508660000180548061347a57fe5b60019003818190600052602060002090600202016000808201600090556001820160009055505090558660010160008781526020019081526020016000206000905560019450505050506134cf565b60009150505b92915050565b600073ffffffffffffffffffffffffffffffffffffffff168273ffffffffffffffffffffffffffffffffffffffff161415613578576040517f08c379a00000000000000000000000000000000000000000000000000000000081526004018080602001828103825260208152602001807f4552433732313a206d696e7420746f20746865207a65726f206164647265737381525060200191505060405180910390fd5b613581816121a6565b156135f4576040517f08c379a000000000000000000000000000000000000000000000000000000000815260040180806020018281038252601c8152602001807f4552433732313a20746f6b656e20616c7265616479206d696e7465640000000081525060200191505060405180910390fd5b61360060008383612b40565b61365181600260008573ffffffffffffffffffffffffffffffffffffffff1673ffffffffffffffffffffffffffffffffffffffff168152602001908152602001600020612b5f90919063ffffffff16565b5061366881836003612b799092919063ffffffff16565b50808273ffffffffffffffffffffffffffffffffffffffff16600073ffffffffffffffffffffffffffffffffffffffff167fddf252ad1be2c89b69c2b068fc378daa952ba7f163c4a11628f55a4df523b3ef60405160405180910390a45050565b600080823b905060008111915050919050565b60606136eb8484600085613717565b90509392505050565b600080836001016000848152602001908152602001600020541415905092915050565b606082471015613772576040517f08c379a00000000000000000000000000000000000000000000000000000000081526004018080602001828103825260268152602001806147a86026913960400191505060405180910390fd5b61377b856136c9565b6137ed576040517f08c379a000000000000000000000000000000000000000000000000000000000815260040180806020018281038252601d8152602001807f416464726573733a2063616c6c20746f206e6f6e2d636f6e747261637400000081525060200191505060405180910390fd5b6000808673ffffffffffffffffffffffffffffffffffffffff1685876040518082805190602001908083835b6020831061383c5780518252602082019150602081019050602083039250613819565b6001836020036101000a03801982511681845116808217855250505050505090500191505060006040518083038185875af1925050503d806000811461389e576040519150601f19603f3d011682016040523d82523d6000602084013e6138a3565b606091505b50915091506138b38282866138bf565b92505050949350505050565b606083156138cf57829050613984565b6000835111156138e25782518084602001fd5b816040517f08c379a00000000000000000000000000000000000000000000000000000000081526004018080602001828103825283818151815260200191508051906020019080838360005b8381101561394957808201518184015260208101905061392e565b50505050905090810190601f1680156139765780820380516001836020036101000a031916815260200191505b509250505060405180910390fd5b9392505050565b828054600181600116156101000203166002900490600052602060002090601f0160209004810192826139c15760008555613a08565b82601f106139da57805160ff1916838001178555613a08565b82800160010185558215613a08579182015b82811115613a075782518255916020019190600101906139ec565b5b509050613a159190613a61565b5090565b50805460018160011615610100020316600290046000825580601f10613a3f5750613a5e565b601f016020900490600052602060002090810190613a5d9190613a61565b5b50565b5b80821115613a7a576000816000905550600101613a62565b5090565b6000613a91613a8c84614532565b614501565b905082815260208101848484011115613aa957600080fd5b613ab4848285614658565b509392505050565b6000613acf613aca84614562565b614501565b905082815260208101848484011115613ae757600080fd5b613af2848285614667565b509392505050565b600081359050613b09816146ad565b92915050565b600081519050613b1e816146ad565b92915050565b600081359050613b33816146c4565b92915050565b600081359050613b48816146db565b92915050565b600082601f830112613b5f57600080fd5b8135613b6f848260208601613a7e565b91505092915050565b60008083601f840112613b8a57600080fd5b8235905067ffffffffffffffff811115613ba357600080fd5b602083019150836001820283011115613bbb57600080fd5b9250929050565b600082601f830112613bd357600080fd5b8151613be3848260208601613abc565b91505092915050565b600081359050613bfb816146f2565b92915050565b600060208284031215613c1357600080fd5b6000613c2184828501613afa565b91505092915050565b600060208284031215613c3c57600080fd5b6000613c4a84828501613b0f565b91505092915050565b60008060408385031215613c6657600080fd5b6000613c7485828601613afa565b9250506020613c8585828601613afa565b9150509250929050565b600080600060608486031215613ca457600080fd5b6000613cb286828701613afa565b9350506020613cc386828701613afa565b9250506040613cd486828701613bec565b9150509250925092565b60008060008060808587031215613cf457600080fd5b6000613d0287828801613afa565b9450506020613d1387828801613afa565b9350506040613d2487828801613bec565b925050606085013567ffffffffffffffff811115613d4157600080fd5b613d4d87828801613b4e565b91505092959194509250565b60008060408385031215613d6c57600080fd5b6000613d7a85828601613afa565b9250506020613d8b85828601613b24565b9150509250929050565b60008060408385031215613da857600080fd5b6000613db685828601613afa565b9250506020613dc785828601613bec565b9150509250929050565b600060208284031215613de357600080fd5b6000613df184828501613b39565b91505092915050565b60008060208385031215613e0d57600080fd5b600083013567ffffffffffffffff811115613e2757600080fd5b613e3385828601613b78565b92509250509250929050565b600060208284031215613e5157600080fd5b600082015167ffffffffffffffff811115613e6b57600080fd5b613e7784828501613bc2565b91505092915050565b600060208284031215613e9257600080fd5b6000613ea084828501613bec565b91505092915050565b600080600060408486031215613ebe57600080fd5b6000613ecc86828701613bec565b935050602084013567ffffffffffffffff811115613ee957600080fd5b613ef586828701613b78565b92509250509250925092565b613f0a81614622565b82525050565b613f19816145ae565b82525050565b613f28816145c0565b82525050565b613f37816145cc565b82525050565b6000613f49838561459d565b9350613f56838584614658565b613f5f8361469c565b840190509392505050565b6000613f7582614592565b613f7f818561459d565b9350613f8f818560208601614667565b613f988161469c565b840191505092915050565b6000613fb060388361459d565b91507f537570655261726556323a205468652076313a763220746f6b656e207065672060008301527f6861736e2774206265656e2065737461626c69736865642100000000000000006020830152604082019050919050565b600061401660448361459d565b91507f537570655261726556323a2053656e6465722069736e27742077686974656c6960008301527f73746564206f7220617070726f76656420666f722074686973206f706572617460208301527f696f6e21000000000000000000000000000000000000000000000000000000006040830152606082019050919050565b60006140a260818361459d565b91507f537570655261726556323a20506c656173652061646420796f757273656c662060008301527f746f2074686520776869746c69737420666f6c6c6f776564206279207472616e60208301527f73666572696e6720796f757220563120746f6b656e20746f207468697320636f60408301527f6e7472616374206265666f7265206d696e74696e67206120563220746f6b656e60608301527f2100000000000000000000000000000000000000000000000000000000000000608083015260a082019050919050565b600061417a60288361459d565b91507f537570655261726556323a204163636f756e7420616c7265616479207768697460008301527f656c6973746564210000000000000000000000000000000000000000000000006020830152604082019050919050565b60006141e060268361459d565b91507f537570655261726556323a20496e76616c696420726563697069656e7420616460008301527f64726573732100000000000000000000000000000000000000000000000000006020830152604082019050919050565b600061424660338361459d565b91507f537570655261726556323a2053656e6465722069736e277420746865206f776e60008301527f6572206f662074686520563220746f6b656e21000000000000000000000000006020830152604082019050919050565b60006142ac60338361459d565b91507f537570655261726556323a2053656e6465722069736e277420746865206f776e60008301527f6572206f662074686520563120546f6b656e21000000000000000000000000006020830152604082019050919050565b61430e81614618565b82525050565b60006020820190506143296000830184613f10565b92915050565b60006040820190506143446000830185613f01565b6143516020830184614305565b9392505050565b600060208201905061436d6000830184613f1f565b92915050565b60006020820190506143886000830184613f2e565b92915050565b600060208201905081810360008301526143a9818486613f3d565b90509392505050565b600060208201905081810360008301526143cc8184613f6a565b905092915050565b600060208201905081810360008301526143ed81613fa3565b9050919050565b6000602082019050818103600083015261440d81614009565b9050919050565b6000602082019050818103600083015261442d81614095565b9050919050565b6000602082019050818103600083015261444d8161416d565b9050919050565b6000602082019050818103600083015261446d816141d3565b9050919050565b6000602082019050818103600083015261448d81614239565b9050919050565b600060208201905081810360008301526144ad8161429f565b9050919050565b60006020820190506144c96000830184614305565b92915050565b60006040820190506144e46000830186614305565b81810360208301526144f7818486613f3d565b9050949350505050565b6000604051905081810181811067ffffffffffffffff821117156145285761452761469a565b5b8060405250919050565b600067ffffffffffffffff82111561454d5761454c61469a565b5b601f19601f8301169050602081019050919050565b600067ffffffffffffffff82111561457d5761457c61469a565b5b601f19601f8301169050602081019050919050565b600081519050919050565b600082825260208201905092915050565b60006145b9826145f8565b9050919050565b60008115159050919050565b60007fffffffff0000000000000000000000000000000000000000000000000000000082169050919050565b600073ffffffffffffffffffffffffffffffffffffffff82169050919050565b6000819050919050565b600061462d82614634565b9050919050565b600061463f82614646565b9050919050565b6000614651826145f8565b9050919050565b82818337600083830152505050565b60005b8381101561468557808201518184015260208101905061466a565b83811115614694576000848401525b50505050565bfe5b6000601f19601f8301169050919050565b6146b6816145ae565b81146146c157600080fd5b50565b6146cd816145c0565b81146146d857600080fd5b50565b6146e4816145cc565b81146146ef57600080fd5b50565b6146fb81614618565b811461470657600080fd5b5056fe456e756d657261626c655365743a20696e646578206f7574206f6620626f756e64734552433732313a207472616e7366657220746f206e6f6e20455243373231526563656976657220696d706c656d656e7465724f776e61626c653a206e6577206f776e657220697320746865207a65726f20616464726573734552433732313a207472616e7366657220746f20746865207a65726f2061646472657373416464726573733a20696e73756666696369656e742062616c616e636520666f722063616c6c4552433732313a206f70657261746f7220717565727920666f72206e6f6e6578697374656e7420746f6b656e4552433732313a20617070726f76652063616c6c6572206973206e6f74206f776e6572206e6f7220617070726f76656420666f7220616c6c4552433732313a2062616c616e636520717565727920666f7220746865207a65726f20616464726573734552433732313a206f776e657220717565727920666f72206e6f6e6578697374656e7420746f6b656e456e756d657261626c654d61703a20696e646578206f7574206f6620626f756e64734552433732313a20617070726f76656420717565727920666f72206e6f6e6578697374656e7420746f6b656e4552433732314d657461646174613a2055524920736574206f66206e6f6e6578697374656e7420746f6b656e4552433732313a207472616e73666572206f6620746f6b656e2074686174206973206e6f74206f776e4552433732314d657461646174613a2055524920717565727920666f72206e6f6e6578697374656e7420746f6b656e4552433732313a20617070726f76616c20746f2063757272656e74206f776e65724552433732313a207472616e736665722063616c6c6572206973206e6f74206f776e6572206e6f7220617070726f766564a264697066735822122074b28c0e4c78e176e1fe9f21fb00da748a1913fda82432de21bbc793f5e8461764736f6c63430007060033",
  "linkReferences": {},
  "deployedLinkReferences": {}
}