{
  "_format": "hh-sol-artifact-1",
  "contractName": "SupeRareV2",
  "sourceName": "contracts/SupeRareV2.sol",
  "abi": [
    {
      "inputs": [
        {
          "internalType": "address",
          "name": "OriginalSupeRareAddr_",
          "type": "address"
        }
      ],
      "stateMutability": "nonpayable",
      "type": "constructor"
    },
    {
      "anonymous": false,
      "inputs": [
        {
          "indexed": true,
          "internalType": "address",
          "name": "owner",
          "type": "address"
        },
        {
          "indexed": true,
          "internalType": "address",
          "name": "approved",
          "type": "address"
        },
        {
          "indexed": true,
          "internalType": "uint256",
          "name": "tokenId",
          "type": "uint256"
        }
      ],
      "name": "Approval",
      "type": "event"
    },
    {
      "anonymous": false,
      "inputs": [
        {
          "indexed": true,
          "internalType": "address",
          "name": "owner",
          "type": "address"
        },
        {
          "indexed": true,
          "internalType": "address",
          "name": "operator",
          "type": "address"
        },
        {
          "indexed": false,
          "internalType": "bool",
          "name": "approved",
          "type": "bool"
        }
      ],
      "name": "ApprovalForAll",
      "type": "event"
    },
    {
      "anonymous": false,
      "inputs": [
        {
          "indexed": false,
          "internalType": "string",
          "name": "_baseURI",
          "type": "string"
        }
      ],
      "name": "BaseURISet",
      "type": "event"
    },
    {
      "anonymous": false,
      "inputs": [
        {
          "indexed": true,
          "internalType": "address",
          "name": "v1owner",
          "type": "address"
        },
        {
          "indexed": true,
          "internalType": "uint256",
          "name": "v2tokenId",
          "type": "uint256"
        }
      ],
      "name": "MintV2",
      "type": "event"
    },
    {
      "anonymous": false,
      "inputs": [
        {
          "indexed": true,
          "internalType": "address",
          "name": "v1owner",
          "type": "address"
        },
        {
          "indexed": true,
          "internalType": "uint256",
          "name": "v1tokenId",
          "type": "uint256"
        }
      ],
      "name": "OwnerWhitelisted",
      "type": "event"
    },
    {
      "anonymous": false,
      "inputs": [
        {
          "indexed": true,
          "internalType": "address",
          "name": "previousOwner",
          "type": "address"
        },
        {
          "indexed": true,
          "internalType": "address",
          "name": "newOwner",
          "type": "address"
        }
      ],
      "name": "OwnershipTransferred",
      "type": "event"
    },
    {
      "anonymous": false,
      "inputs": [
        {
          "indexed": true,
          "internalType": "uint256",
          "name": "v1tokenId",
          "type": "uint256"
        }
      ],
      "name": "Pegged",
      "type": "event"
    },
    {
      "anonymous": false,
      "inputs": [
        {
          "indexed": false,
          "internalType": "uint256",
          "name": "_tokenId",
          "type": "uint256"
        },
        {
          "indexed": false,
          "internalType": "string",
          "name": "_tokenURI",
          "type": "string"
        }
      ],
      "name": "TokenURISet",
      "type": "event"
    },
    {
      "anonymous": false,
      "inputs": [
        {
          "indexed": true,
          "internalType": "address",
          "name": "from",
          "type": "address"
        },
        {
          "indexed": true,
          "internalType": "address",
          "name": "to",
          "type": "address"
        },
        {
          "indexed": true,
          "internalType": "uint256",
          "name": "tokenId",
          "type": "uint256"
        }
      ],
      "name": "Transfer",
      "type": "event"
    },
    {
      "anonymous": false,
      "inputs": [
        {
          "indexed": true,
          "internalType": "address",
          "name": "v2owner",
          "type": "address"
        },
        {
          "indexed": true,
          "internalType": "uint256",
          "name": "v2tokenId",
          "type": "uint256"
        }
      ],
      "name": "WithdrawV1",
      "type": "event"
    },
    {
      "inputs": [
        {
          "internalType": "address",
          "name": "to",
          "type": "address"
        },
        {
          "internalType": "uint256",
          "name": "tokenId",
          "type": "uint256"
        }
      ],
      "name": "approve",
      "outputs": [],
      "stateMutability": "nonpayable",
      "type": "function"
    },
    {
      "inputs": [
        {
          "internalType": "address",
          "name": "owner",
          "type": "address"
        }
      ],
      "name": "balanceOf",
      "outputs": [
        {
          "internalType": "uint256",
          "name": "",
          "type": "uint256"
        }
      ],
      "stateMutability": "view",
      "type": "function"
    },
    {
      "inputs": [],
      "name": "baseURI",
      "outputs": [
        {
          "internalType": "string",
          "name": "",
          "type": "string"
        }
      ],
      "stateMutability": "view",
      "type": "function"
    },
    {
      "inputs": [
        {
          "internalType": "uint256",
          "name": "_v1TokenId",
          "type": "uint256"
        }
      ],
      "name": "getAddedToWhitelist",
      "outputs": [
        {
          "internalType": "bool",
          "name": "",
          "type": "bool"
        }
      ],
      "stateMutability": "nonpayable",
      "type": "function"
    },
    {
      "inputs": [
        {
          "internalType": "uint256",
          "name": "tokenId",
          "type": "uint256"
        }
      ],
      "name": "getApproved",
      "outputs": [
        {
          "internalType": "address",
          "name": "",
          "type": "address"
        }
      ],
      "stateMutability": "view",
      "type": "function"
    },
    {
      "inputs": [],
      "name": "getSupeRareAddress",
      "outputs": [
        {
          "internalType": "address",
          "name": "",
          "type": "address"
        }
      ],
      "stateMutability": "view",
      "type": "function"
    },
    {
      "inputs": [
        {
          "internalType": "address",
          "name": "owner",
          "type": "address"
        },
        {
          "internalType": "address",
          "name": "operator",
          "type": "address"
        }
      ],
      "name": "isApprovedForAll",
      "outputs": [
        {
          "internalType": "bool",
          "name": "",
          "type": "bool"
        }
      ],
      "stateMutability": "view",
      "type": "function"
    },
    {
      "inputs": [
        {
          "internalType": "uint256",
          "name": "_tokenId",
          "type": "uint256"
        }
      ],
      "name": "isPegged",
      "outputs": [
        {
          "internalType": "bool",
          "name": "",
          "type": "bool"
        }
      ],
      "stateMutability": "view",
      "type": "function"
    },
    {
      "inputs": [
        {
          "internalType": "uint256",
          "name": "_tokenId",
          "type": "uint256"
        }
      ],
      "name": "mintV2",
      "outputs": [
        {
          "internalType": "bool",
          "name": "",
          "type": "bool"
        }
      ],
      "stateMutability": "nonpayable",
      "type": "function"
    },
    {
      "inputs": [],
      "name": "name",
      "outputs": [
        {
          "internalType": "string",
          "name": "",
          "type": "string"
        }
      ],
      "stateMutability": "view",
      "type": "function"
    },
    {
      "inputs": [
        {
          "internalType": "address",
          "name": "",
          "type": "address"
        },
        {
          "internalType": "address",
          "name": "",
          "type": "address"
        },
        {
          "internalType": "uint256",
          "name": "",
          "type": "uint256"
        },
        {
          "internalType": "bytes",
          "name": "",
          "type": "bytes"
        }
      ],
      "name": "onERC721Received",
      "outputs": [
        {
          "internalType": "bytes4",
          "name": "",
          "type": "bytes4"
        }
      ],
      "stateMutability": "view",
      "type": "function"
    },
    {
      "inputs": [],
      "name": "owner",
      "outputs": [
        {
          "internalType": "address",
          "name": "",
          "type": "address"
        }
      ],
      "stateMutability": "view",
      "type": "function"
    },
    {
      "inputs": [
        {
          "internalType": "address",
          "name": "",
          "type": "address"
        },
        {
          "internalType": "uint256",
          "name": "",
          "type": "uint256"
        }
      ],
      "name": "ownerAddrToV1toV2TokenId",
      "outputs": [
        {
          "internalType": "uint256",
          "name": "",
          "type": "uint256"
        }
      ],
      "stateMutability": "view",
      "type": "function"
    },
    {
      "inputs": [
        {
          "internalType": "uint256",
          "name": "tokenId",
          "type": "uint256"
        }
      ],
      "name": "ownerOf",
      "outputs": [
        {
          "internalType": "address",
          "name": "",
          "type": "address"
        }
      ],
      "stateMutability": "view",
      "type": "function"
    },
    {
      "inputs": [
        {
          "internalType": "uint256",
          "name": "",
          "type": "uint256"
        }
      ],
      "name": "ownerWhiteList",
      "outputs": [
        {
          "internalType": "address",
          "name": "",
          "type": "address"
        }
      ],
      "stateMutability": "view",
      "type": "function"
    },
    {
      "inputs": [],
      "name": "renounceOwnership",
      "outputs": [],
      "stateMutability": "nonpayable",
      "type": "function"
    },
    {
      "inputs": [
        {
          "internalType": "address",
          "name": "from",
          "type": "address"
        },
        {
          "internalType": "address",
          "name": "to",
          "type": "address"
        },
        {
          "internalType": "uint256",
          "name": "tokenId",
          "type": "uint256"
        }
      ],
      "name": "safeTransfer",
      "outputs": [],
      "stateMutability": "nonpayable",
      "type": "function"
    },
    {
      "inputs": [
        {
          "internalType": "address",
          "name": "from",
          "type": "address"
        },
        {
          "internalType": "address",
          "name": "to",
          "type": "address"
        },
        {
          "internalType": "uint256",
          "name": "tokenId",
          "type": "uint256"
        }
      ],
      "name": "safeTransferFrom",
      "outputs": [],
      "stateMutability": "nonpayable",
      "type": "function"
    },
    {
      "inputs": [
        {
          "internalType": "address",
          "name": "from",
          "type": "address"
        },
        {
          "internalType": "address",
          "name": "to",
          "type": "address"
        },
        {
          "internalType": "uint256",
          "name": "tokenId",
          "type": "uint256"
        },
        {
          "internalType": "bytes",
          "name": "_data",
          "type": "bytes"
        }
      ],
      "name": "safeTransferFrom",
      "outputs": [],
      "stateMutability": "nonpayable",
      "type": "function"
    },
    {
      "inputs": [
        {
          "internalType": "address",
          "name": "from",
          "type": "address"
        },
        {
          "internalType": "address",
          "name": "to",
          "type": "address"
        },
        {
          "internalType": "uint256",
          "name": "tokenId",
          "type": "uint256"
        }
      ],
      "name": "safelyTransfer",
      "outputs": [
        {
          "internalType": "bool",
          "name": "",
          "type": "bool"
        }
      ],
      "stateMutability": "nonpayable",
      "type": "function"
    },
    {
      "inputs": [
        {
          "internalType": "address",
          "name": "operator",
          "type": "address"
        },
        {
          "internalType": "bool",
          "name": "approved",
          "type": "bool"
        }
      ],
      "name": "setApprovalForAll",
      "outputs": [],
      "stateMutability": "nonpayable",
      "type": "function"
    },
    {
      "inputs": [
        {
          "internalType": "string",
          "name": "baseURI",
          "type": "string"
        }
      ],
      "name": "setBaseURI",
      "outputs": [
        {
          "internalType": "bool",
          "name": "",
          "type": "bool"
        }
      ],
      "stateMutability": "nonpayable",
      "type": "function"
    },
    {
      "inputs": [
        {
          "internalType": "uint256",
          "name": "_tokenId",
          "type": "uint256"
        },
        {
          "internalType": "string",
          "name": "_tokenURI",
          "type": "string"
        }
      ],
      "name": "setTokenURI",
      "outputs": [
        {
          "internalType": "bool",
          "name": "",
          "type": "bool"
        }
      ],
      "stateMutability": "nonpayable",
      "type": "function"
    },
    {
      "inputs": [
        {
          "internalType": "bytes4",
          "name": "interfaceId",
          "type": "bytes4"
        }
      ],
      "name": "supportsInterface",
      "outputs": [
        {
          "internalType": "bool",
          "name": "",
          "type": "bool"
        }
      ],
      "stateMutability": "view",
      "type": "function"
    },
    {
      "inputs": [],
      "name": "symbol",
      "outputs": [
        {
          "internalType": "string",
          "name": "",
          "type": "string"
        }
      ],
      "stateMutability": "view",
      "type": "function"
    },
    {
      "inputs": [
        {
          "internalType": "uint256",
          "name": "index",
          "type": "uint256"
        }
      ],
      "name": "tokenByIndex",
      "outputs": [
        {
          "internalType": "uint256",
          "name": "",
          "type": "uint256"
        }
      ],
      "stateMutability": "view",
      "type": "function"
    },
    {
      "inputs": [
        {
          "internalType": "address",
          "name": "owner",
          "type": "address"
        },
        {
          "internalType": "uint256",
          "name": "index",
          "type": "uint256"
        }
      ],
      "name": "tokenOfOwnerByIndex",
      "outputs": [
        {
          "internalType": "uint256",
          "name": "",
          "type": "uint256"
        }
      ],
      "stateMutability": "view",
      "type": "function"
    },
    {
      "inputs": [
        {
          "internalType": "uint256",
          "name": "tokenId",
          "type": "uint256"
        }
      ],
      "name": "tokenURI",
      "outputs": [
        {
          "internalType": "string",
          "name": "",
          "type": "string"
        }
      ],
      "stateMutability": "view",
      "type": "function"
    },
    {
      "inputs": [],
      "name": "totalSupply",
      "outputs": [
        {
          "internalType": "uint256",
          "name": "",
          "type": "uint256"
        }
      ],
      "stateMutability": "view",
      "type": "function"
    },
    {
      "inputs": [
        {
          "internalType": "address",
          "name": "from",
          "type": "address"
        },
        {
          "internalType": "address",
          "name": "to",
          "type": "address"
        },
        {
          "internalType": "uint256",
          "name": "tokenId",
          "type": "uint256"
        }
      ],
      "name": "transferFrom",
      "outputs": [],
      "stateMutability": "nonpayable",
      "type": "function"
    },
    {
      "inputs": [
        {
          "internalType": "address",
          "name": "newOwner",
          "type": "address"
        }
      ],
      "name": "transferOwnership",
      "outputs": [],
      "stateMutability": "nonpayable",
      "type": "function"
    },
    {
      "inputs": [
        {
          "internalType": "uint256",
          "name": "_tokenId",
          "type": "uint256"
        }
      ],
      "name": "withdraw",
      "outputs": [
        {
          "internalType": "bool",
          "name": "",
          "type": "bool"
        }
      ],
      "stateMutability": "nonpayable",
      "type": "function"
    }
  ],
  "bytecode": "0x60806040526040518060400160405280600881526020017f5375706552617265000000000000000000000000000000000000000000000000815250600e908051906020019062000051929190620004f6565b506040518060400160405280600481526020017f5355505200000000000000000000000000000000000000000000000000000000815250600f90805190602001906200009f929190620004f6565b50348015620000ad57600080fd5b5060405162005170380380620051708339818101604052810190620000d39190620005c3565b600e8054600181600116156101000203166002900480601f0160208091040260200160405190810160405280929190818152602001828054600181600116156101000203166002900480156200016d5780601f1062000141576101008083540402835291602001916200016d565b820191906000526020600020905b8154815290600101906020018083116200014f57829003601f168201915b5050505050600f8054600181600116156101000203166002900480601f0160208091040260200160405190810160405280929190818152602001828054600181600116156101000203166002900480156200020c5780601f10620001e0576101008083540402835291602001916200020c565b820191906000526020600020905b815481529060010190602001808311620001ee57829003601f168201915b5050505050600062000223620003e560201b60201c565b9050806000806101000a81548173ffffffffffffffffffffffffffffffffffffffff021916908373ffffffffffffffffffffffffffffffffffffffff1602179055508073ffffffffffffffffffffffffffffffffffffffff16600073ffffffffffffffffffffffffffffffffffffffff167f8be0079c531659141344cd1fd0a4f28419497f9722a3daafe3b4186f6b6457e060405160405180910390a350620002d96301ffc9a760e01b620003ed60201b60201c565b8160079080519060200190620002f1929190620004f6565b5080600890805190602001906200030a929190620004f6565b50620003236380ac58cd60e01b620003ed60201b60201c565b6200033b635b5e139f60e01b620003ed60201b60201c565b6200035363780e9d6360e01b620003ed60201b60201c565b505080600c60006101000a81548173ffffffffffffffffffffffffffffffffffffffff021916908373ffffffffffffffffffffffffffffffffffffffff160217905550620003ae6380ac58cd60e01b620003ed60201b60201c565b620003c6635b5e139f60e01b620003ed60201b60201c565b620003de63780e9d6360e01b620003ed60201b60201c565b506200063d565b600033905090565b63ffffffff60e01b817bffffffffffffffffffffffffffffffffffffffffffffffffffffffff191614156200048a576040517f08c379a000000000000000000000000000000000000000000000000000000000815260040180806020018281038252601c8152602001807f4552433136353a20696e76616c696420696e746572666163652069640000000081525060200191505060405180910390fd5b6001806000837bffffffffffffffffffffffffffffffffffffffffffffffffffffffff19167bffffffffffffffffffffffffffffffffffffffffffffffffffffffff1916815260200190815260200160002060006101000a81548160ff02191690831515021790555050565b828054600181600116156101000203166002900490600052602060002090601f0160209004810192826200052e57600085556200057a565b82601f106200054957805160ff19168380011785556200057a565b828001600101855582156200057a579182015b82811115620005795782518255916020019190600101906200055c565b5b5090506200058991906200058d565b5090565b5b80821115620005a85760008160009055506001016200058e565b5090565b600081519050620005bd8162000623565b92915050565b600060208284031215620005d657600080fd5b6000620005e684828501620005ac565b91505092915050565b6000620005fc8262000603565b9050919050565b600073ffffffffffffffffffffffffffffffffffffffff82169050919050565b6200062e81620005ef565b81146200063a57600080fd5b50565b614b23806200064d6000396000f3fe608060405234801561001057600080fd5b50600436106101f05760003560e01c80636352211e1161010f5780639ae82406116100a2578063d1660f9911610071578063d1660f991461063f578063e985e9c51461065b578063f2fde38b1461068b578063fcb217b5146106a7576101f0565b80639ae82406146105a7578063a22cb465146105d7578063b88d4fde146105f3578063c87b56dd1461060f576101f0565b8063715018a6116100de578063715018a61461053157806387d45d011461053b5780638da5cb5b1461056b57806395d89b4114610589576101f0565b80636352211e146104835780636c0360eb146104b35780636c0e6754146104d157806370a0823114610501576101f0565b806323b872dd1161018757806342842e0e1161015657806342842e0e146103d75780634f6ccce7146103f357806355f804b3146104235780636000894314610453576101f0565b806323b872dd1461033d5780632e1a7d4d146103595780632f745c591461038957806336464789146103b9576101f0565b8063095ea7b3116101c3578063095ea7b3146102a3578063150b7a02146102bf578063162094c4146102ef57806318160ddd1461031f576101f0565b806301ffc9a7146101f557806306fdde031461022557806307e4854814610243578063081812fc14610273575b600080fd5b61020f600480360381019061020a9190613edc565b6106d7565b60405161021c919061447d565b60405180910390f35b61022d61073f565b60405161023a91906144d7565b60405180910390f35b61025d60048036038101906102589190613f8b565b6107e1565b60405161026a919061447d565b60405180910390f35b61028d60048036038101906102889190613f8b565b61080b565b60405161029a9190614439565b60405180910390f35b6102bd60048036038101906102b89190613ea0565b6108a6565b005b6102d960048036038101906102d49190613de9565b6109ea565b6040516102e69190614498565b60405180910390f35b61030960048036038101906103049190613fb4565b610a0e565b604051610316919061447d565b60405180910390f35b610327610b53565b60405161033491906145f9565b60405180910390f35b61035760048036038101906103529190613d9a565b610b64565b005b610373600480360381019061036e9190613f8b565b610bda565b604051610380919061447d565b60405180910390f35b6103a3600480360381019061039e9190613ea0565b610e91565b6040516103b091906145f9565b60405180910390f35b6103c1610eec565b6040516103ce9190614439565b60405180910390f35b6103f160048036038101906103ec9190613d9a565b610f16565b005b61040d60048036038101906104089190613f8b565b610f36565b60405161041a91906145f9565b60405180910390f35b61043d60048036038101906104389190613f05565b610f59565b60405161044a919061447d565b60405180910390f35b61046d60048036038101906104689190613f8b565b61109a565b60405161047a9190614439565b60405180910390f35b61049d60048036038101906104989190613f8b565b6110cd565b6040516104aa9190614439565b60405180910390f35b6104bb611104565b6040516104c891906144d7565b60405180910390f35b6104eb60048036038101906104e69190613ea0565b6111a6565b6040516104f891906145f9565b60405180910390f35b61051b60048036038101906105169190613d0c565b6111cb565b60405161052891906145f9565b60405180910390f35b6105396112a0565b005b61055560048036038101906105509190613f8b565b61140d565b604051610562919061447d565b60405180910390f35b61057361164b565b6040516105809190614439565b60405180910390f35b610591611674565b60405161059e91906144d7565b60405180910390f35b6105c160048036038101906105bc9190613d9a565b611716565b6040516105ce919061447d565b60405180910390f35b6105f160048036038101906105ec9190613e64565b61173e565b005b61060d60048036038101906106089190613de9565b6118f4565b005b61062960048036038101906106249190613f8b565b61196c565b60405161063691906144d7565b60405180910390f35b61065960048036038101906106549190613d9a565b611c3d565b005b61067560048036038101906106709190613d5e565b611c5d565b604051610682919061447d565b60405180910390f35b6106a560048036038101906106a09190613d0c565b611cf1565b005b6106c160048036038101906106bc9190613f8b565b611ee3565b6040516106ce919061447d565b60405180910390f35b600060016000837bffffffffffffffffffffffffffffffffffffffffffffffffffffffff19167bffffffffffffffffffffffffffffffffffffffffffffffffffffffff1916815260200190815260200160002060009054906101000a900460ff169050919050565b606060078054600181600116156101000203166002900480601f0160208091040260200160405190810160405280929190818152602001828054600181600116156101000203166002900480156107d75780601f106107ac576101008083540402835291602001916107d7565b820191906000526020600020905b8154815290600101906020018083116107ba57829003601f168201915b5050505050905090565b60006012600083815260200190815260200160002060009054906101000a900460ff169050919050565b60006108168261215c565b61086b576040517f08c379a000000000000000000000000000000000000000000000000000000000815260040180806020018281038252602c8152602001806149ec602c913960400191505060405180910390fd5b6005600083815260200190815260200160002060009054906101000a900473ffffffffffffffffffffffffffffffffffffffff169050919050565b60006108b1826110cd565b90508073ffffffffffffffffffffffffffffffffffffffff168373ffffffffffffffffffffffffffffffffffffffff161415610938576040517f08c379a0000000000000000000000000000000000000000000000000000000008152600401808060200182810382526021815260200180614a9c6021913960400191505060405180910390fd5b8073ffffffffffffffffffffffffffffffffffffffff16610957612179565b73ffffffffffffffffffffffffffffffffffffffff161480610986575061098581610980612179565b611c5d565b5b6109db576040517f08c379a000000000000000000000000000000000000000000000000000000000815260040180806020018281038252603881526020018061493f6038913960400191505060405180910390fd5b6109e58383612181565b505050565b60006109fc63150b7a0260e01b61223a565b63150b7a0260e01b9050949350505050565b6000610a18612179565b73ffffffffffffffffffffffffffffffffffffffff16610a3661164b565b73ffffffffffffffffffffffffffffffffffffffff1614610abf576040517f08c379a00000000000000000000000000000000000000000000000000000000081526004018080602001828103825260208152602001807f4f776e61626c653a2063616c6c6572206973206e6f7420746865206f776e657281525060200191505060405180910390fd5b610b0d8484848080601f016020809104026020016040519081016040528093929190818152602001838380828437600081840152601f19601f820116905080830192505050505050506122f2565b7fda84ca2183491f179a603e877b2cb058e42195041c2b9c53d746427e519a34df848484604051610b4093929190614614565b60405180910390a1600190509392505050565b6000610b5f600361237c565b905090565b610b75610b6f612179565b82612391565b610bca576040517f08c379a0000000000000000000000000000000000000000000000000000000008152600401808060200182810382526031815260200180614abd6031913960400191505060405180910390fd5b610bd5838383612485565b505050565b600081610be5612179565b73ffffffffffffffffffffffffffffffffffffffff16610c04826110cd565b73ffffffffffffffffffffffffffffffffffffffff1614610c5a576040517f08c379a0000000000000000000000000000000000000000000000000000000008152600401610c5190614599565b60405180910390fd5b826012600082815260200190815260200160002060009054906101000a900460ff16610cbb576040517f08c379a0000000000000000000000000000000000000000000000000000000008152600401610cb2906144f9565b60405180910390fd5b610cf96040518060400160405280600481526020017f68657265000000000000000000000000000000000000000000000000000000008152506126c8565b600073ffffffffffffffffffffffffffffffffffffffff16610d19612179565b73ffffffffffffffffffffffffffffffffffffffff161415610d70576040517f08c379a0000000000000000000000000000000000000000000000000000000008152600401610d6790614579565b60405180910390fd5b610d79846127c6565b600c60009054906101000a900473ffffffffffffffffffffffffffffffffffffffff1673ffffffffffffffffffffffffffffffffffffffff1663a9059cbb610dbf612179565b866040518363ffffffff1660e01b8152600401610ddd929190614454565b600060405180830381600087803b158015610df757600080fd5b505af1158015610e0b573d6000803e3d6000fd5b5050505060006012600086815260200190815260200160002060006101000a81548160ff02191690831515021790555083610e44612179565b73ffffffffffffffffffffffffffffffffffffffff167f137405ae38c6e13c1dae5b6f5d4eb90010220c7c552dcaccc7b9c038c0177af860405160405180910390a3600192505050919050565b6000610ee482600260008673ffffffffffffffffffffffffffffffffffffffff1673ffffffffffffffffffffffffffffffffffffffff16815260200190815260200160002061290090919063ffffffff16565b905092915050565b6000600b60009054906101000a900473ffffffffffffffffffffffffffffffffffffffff16905090565b610f31838383604051806020016040528060008152506118f4565b505050565b600080610f4d83600361291a90919063ffffffff16565b50905080915050919050565b6000610f63612179565b73ffffffffffffffffffffffffffffffffffffffff16610f8161164b565b73ffffffffffffffffffffffffffffffffffffffff161461100a576040517f08c379a00000000000000000000000000000000000000000000000000000000081526004018080602001828103825260208152602001807f4f776e61626c653a2063616c6c6572206973206e6f7420746865206f776e657281525060200191505060405180910390fd5b61105783838080601f016020809104026020016040519081016040528093929190818152602001838380828437600081840152601f19601f82011690508083019250505050505050612946565b7ff9c7803e94e0d3c02900d8a90893a6d5e90dd04d32a4cfe825520f82bf9f32f683836040516110889291906144b3565b60405180910390a16001905092915050565b60116020528060005260406000206000915054906101000a900473ffffffffffffffffffffffffffffffffffffffff1681565b60006110fd826040518060600160405280602981526020016149a16029913960036129609092919063ffffffff16565b9050919050565b6060600a8054600181600116156101000203166002900480601f01602080910402602001604051908101604052809291908181526020018280546001816001161561010002031660029004801561119c5780601f106111715761010080835404028352916020019161119c565b820191906000526020600020905b81548152906001019060200180831161117f57829003601f168201915b5050505050905090565b6010602052816000526040600020602052806000526040600020600091509150505481565b60008073ffffffffffffffffffffffffffffffffffffffff168273ffffffffffffffffffffffffffffffffffffffff161415611252576040517f08c379a000000000000000000000000000000000000000000000000000000000815260040180806020018281038252602a815260200180614977602a913960400191505060405180910390fd5b611299600260008473ffffffffffffffffffffffffffffffffffffffff1673ffffffffffffffffffffffffffffffffffffffff16815260200190815260200160002061297f565b9050919050565b6112a8612179565b73ffffffffffffffffffffffffffffffffffffffff166112c661164b565b73ffffffffffffffffffffffffffffffffffffffff161461134f576040517f08c379a00000000000000000000000000000000000000000000000000000000081526004018080602001828103825260208152602001807f4f776e61626c653a2063616c6c6572206973206e6f7420746865206f776e657281525060200191505060405180910390fd5b600073ffffffffffffffffffffffffffffffffffffffff1660008054906101000a900473ffffffffffffffffffffffffffffffffffffffff1673ffffffffffffffffffffffffffffffffffffffff167f8be0079c531659141344cd1fd0a4f28419497f9722a3daafe3b4186f6b6457e060405160405180910390a360008060006101000a81548173ffffffffffffffffffffffffffffffffffffffff021916908373ffffffffffffffffffffffffffffffffffffffff160217905550565b600081611418612179565b73ffffffffffffffffffffffffffffffffffffffff166011600083815260200190815260200160002060009054906101000a900473ffffffffffffffffffffffffffffffffffffffff1673ffffffffffffffffffffffffffffffffffffffff16146114b8576040517f08c379a00000000000000000000000000000000000000000000000000000000081526004016114af90614519565b60405180910390fd5b6114c183612994565b611500576040517f08c379a00000000000000000000000000000000000000000000000000000000081526004016114f7906145b9565b60405180910390fd5b61151161150b612179565b84612b10565b6115ca83600c60009054906101000a900473ffffffffffffffffffffffffffffffffffffffff1673ffffffffffffffffffffffffffffffffffffffff1663c87b56dd866040518263ffffffff1660e01b815260040161157091906145f9565b60006040518083038186803b15801561158857600080fd5b505afa15801561159c573d6000803e3d6000fd5b505050506040513d6000823e3d601f19601f820116820180604052508101906115c59190613f4a565b6122f2565b60016012600085815260200190815260200160002060006101000a81548160ff021916908315150217905550826115ff612179565b73ffffffffffffffffffffffffffffffffffffffff167f3c739b6a95f75f9e762038efa06f6758bbab40ef0b17f9f07cd3476eeac984e460405160405180910390a36001915050919050565b60008060009054906101000a900473ffffffffffffffffffffffffffffffffffffffff16905090565b606060088054600181600116156101000203166002900480601f01602080910402602001604051908101604052809291908181526020018280546001816001161561010002031660029004801561170c5780601f106116e15761010080835404028352916020019161170c565b820191906000526020600020905b8154815290600101906020018083116116ef57829003601f168201915b5050505050905090565b6000611733848484604051806020016040528060008152506118f4565b600190509392505050565b611746612179565b73ffffffffffffffffffffffffffffffffffffffff168273ffffffffffffffffffffffffffffffffffffffff1614156117e7576040517f08c379a00000000000000000000000000000000000000000000000000000000081526004018080602001828103825260198152602001807f4552433732313a20617070726f766520746f2063616c6c65720000000000000081525060200191505060405180910390fd5b80600660006117f4612179565b73ffffffffffffffffffffffffffffffffffffffff1673ffffffffffffffffffffffffffffffffffffffff16815260200190815260200160002060008473ffffffffffffffffffffffffffffffffffffffff1673ffffffffffffffffffffffffffffffffffffffff16815260200190815260200160002060006101000a81548160ff0219169083151502179055508173ffffffffffffffffffffffffffffffffffffffff166118a1612179565b73ffffffffffffffffffffffffffffffffffffffff167f17307eab39ab6107e8899845ad3d59bd9653f200f220920489ca2b5937696c318360405180821515815260200191505060405180910390a35050565b6119056118ff612179565b83612391565b61195a576040517f08c379a0000000000000000000000000000000000000000000000000000000008152600401808060200182810382526031815260200180614abd6031913960400191505060405180910390fd5b61196684848484612b2e565b50505050565b60606119778261215c565b6119cc576040517f08c379a000000000000000000000000000000000000000000000000000000000815260040180806020018281038252602f815260200180614a6d602f913960400191505060405180910390fd5b6000600960008481526020019081526020016000208054600181600116156101000203166002900480601f016020809104026020016040519081016040528092919081815260200182805460018160011615610100020316600290048015611a755780601f10611a4a57610100808354040283529160200191611a75565b820191906000526020600020905b815481529060010190602001808311611a5857829003601f168201915b505050505090506000611a86611104565b9050600081511415611a9c578192505050611c38565b600082511115611b6d5780826040516020018083805190602001908083835b60208310611ade5780518252602082019150602081019050602083039250611abb565b6001836020036101000a03801982511681845116808217855250505050505090500182805190602001908083835b60208310611b2f5780518252602082019150602081019050602083039250611b0c565b6001836020036101000a0380198251168184511680821785525050505050509050019250505060405160208183030381529060405292505050611c38565b80611b7785612ba0565b6040516020018083805190602001908083835b60208310611bad5780518252602082019150602081019050602083039250611b8a565b6001836020036101000a03801982511681845116808217855250505050505090500182805190602001908083835b60208310611bfe5780518252602082019150602081019050602083039250611bdb565b6001836020036101000a03801982511681845116808217855250505050505090500192505050604051602081830303815290604052925050505b919050565b611c58838383604051806020016040528060008152506118f4565b505050565b6000600660008473ffffffffffffffffffffffffffffffffffffffff1673ffffffffffffffffffffffffffffffffffffffff16815260200190815260200160002060008373ffffffffffffffffffffffffffffffffffffffff1673ffffffffffffffffffffffffffffffffffffffff16815260200190815260200160002060009054906101000a900460ff16905092915050565b611cf9612179565b73ffffffffffffffffffffffffffffffffffffffff16611d1761164b565b73ffffffffffffffffffffffffffffffffffffffff1614611da0576040517f08c379a00000000000000000000000000000000000000000000000000000000081526004018080602001828103825260208152602001807f4f776e61626c653a2063616c6c6572206973206e6f7420746865206f776e657281525060200191505060405180910390fd5b600073ffffffffffffffffffffffffffffffffffffffff168173ffffffffffffffffffffffffffffffffffffffff161415611e26576040517f08c379a00000000000000000000000000000000000000000000000000000000081526004018080602001828103825260268152602001806148a36026913960400191505060405180910390fd5b8073ffffffffffffffffffffffffffffffffffffffff1660008054906101000a900473ffffffffffffffffffffffffffffffffffffffff1673ffffffffffffffffffffffffffffffffffffffff167f8be0079c531659141344cd1fd0a4f28419497f9722a3daafe3b4186f6b6457e060405160405180910390a3806000806101000a81548173ffffffffffffffffffffffffffffffffffffffff021916908373ffffffffffffffffffffffffffffffffffffffff16021790555050565b600081611eee612179565b73ffffffffffffffffffffffffffffffffffffffff16600c60009054906101000a900473ffffffffffffffffffffffffffffffffffffffff1673ffffffffffffffffffffffffffffffffffffffff16636352211e836040518263ffffffff1660e01b8152600401611f5f91906145f9565b60206040518083038186803b158015611f7757600080fd5b505afa158015611f8b573d6000803e3d6000fd5b505050506040513d601f19601f82011682018060405250810190611faf9190613d35565b73ffffffffffffffffffffffffffffffffffffffff1614612005576040517f08c379a0000000000000000000000000000000000000000000000000000000008152600401611ffc906145d9565b60405180910390fd5b61200d612179565b73ffffffffffffffffffffffffffffffffffffffff166011600085815260200190815260200160002060009054906101000a900473ffffffffffffffffffffffffffffffffffffffff1673ffffffffffffffffffffffffffffffffffffffff1614156120ae576040517f08c379a00000000000000000000000000000000000000000000000000000000081526004016120a590614539565b60405180910390fd5b6120b6612179565b6011600085815260200190815260200160002060006101000a81548173ffffffffffffffffffffffffffffffffffffffff021916908373ffffffffffffffffffffffffffffffffffffffff16021790555082612110612179565b73ffffffffffffffffffffffffffffffffffffffff167ff848bf1cacffecd6b9722baff28810b3649ee23fc48863217c908cc260405c8860405160405180910390a36001915050919050565b6000612172826003612ce790919063ffffffff16565b9050919050565b600033905090565b816005600083815260200190815260200160002060006101000a81548173ffffffffffffffffffffffffffffffffffffffff021916908373ffffffffffffffffffffffffffffffffffffffff160217905550808273ffffffffffffffffffffffffffffffffffffffff166121f4836110cd565b73ffffffffffffffffffffffffffffffffffffffff167f8c5be1e5ebec7d5bd14f71427d1e84f3dd0314c0f7b2291e5b200ac8c7c3b92560405160405180910390a45050565b6122ef8160405160240180827bffffffffffffffffffffffffffffffffffffffffffffffffffffffff191681526020019150506040516020818303038152906040527fe05f48d1000000000000000000000000000000000000000000000000000000007bffffffffffffffffffffffffffffffffffffffffffffffffffffffff19166020820180517bffffffffffffffffffffffffffffffffffffffffffffffffffffffff8381831617835250505050612d01565b50565b6122fb8261215c565b612350576040517f08c379a000000000000000000000000000000000000000000000000000000000815260040180806020018281038252602c815260200180614a18602c913960400191505060405180910390fd5b80600960008481526020019081526020016000209080519060200190612377929190613a96565b505050565b600061238a82600001612d2a565b9050919050565b600061239c8261215c565b6123f1576040517f08c379a000000000000000000000000000000000000000000000000000000000815260040180806020018281038252602c815260200180614913602c913960400191505060405180910390fd5b60006123fc836110cd565b90508073ffffffffffffffffffffffffffffffffffffffff168473ffffffffffffffffffffffffffffffffffffffff16148061246b57508373ffffffffffffffffffffffffffffffffffffffff166124538461080b565b73ffffffffffffffffffffffffffffffffffffffff16145b8061247c575061247b8185611c5d565b5b91505092915050565b8273ffffffffffffffffffffffffffffffffffffffff166124a5826110cd565b73ffffffffffffffffffffffffffffffffffffffff1614612511576040517f08c379a0000000000000000000000000000000000000000000000000000000008152600401808060200182810382526029815260200180614a446029913960400191505060405180910390fd5b600073ffffffffffffffffffffffffffffffffffffffff168273ffffffffffffffffffffffffffffffffffffffff161415612597576040517f08c379a00000000000000000000000000000000000000000000000000000000081526004018080602001828103825260248152602001806148c96024913960400191505060405180910390fd5b6125a2838383612d3b565b6125ad600082612181565b6125fe81600260008673ffffffffffffffffffffffffffffffffffffffff1673ffffffffffffffffffffffffffffffffffffffff168152602001908152602001600020612d4090919063ffffffff16565b5061265081600260008573ffffffffffffffffffffffffffffffffffffffff1673ffffffffffffffffffffffffffffffffffffffff168152602001908152602001600020612d5a90919063ffffffff16565b5061266781836003612d749092919063ffffffff16565b50808273ffffffffffffffffffffffffffffffffffffffff168473ffffffffffffffffffffffffffffffffffffffff167fddf252ad1be2c89b69c2b068fc378daa952ba7f163c4a11628f55a4df523b3ef60405160405180910390a4505050565b6127c3816040516024018080602001828103825283818151815260200191508051906020019080838360005b8381101561270f5780820151818401526020810190506126f4565b50505050905090810190601f16801561273c5780820380516001836020036101000a031916815260200191505b50925050506040516020818303038152906040527f41304fac000000000000000000000000000000000000000000000000000000007bffffffffffffffffffffffffffffffffffffffffffffffffffffffff19166020820180517bffffffffffffffffffffffffffffffffffffffffffffffffffffffff8381831617835250505050612d01565b50565b60006127d1826110cd565b90506127df81600084612d3b565b6127ea600083612181565b60006009600084815260200190815260200160002080546001816001161561010002031660029004905014612839576009600083815260200190815260200160002060006128389190613b24565b5b61288a82600260008473ffffffffffffffffffffffffffffffffffffffff1673ffffffffffffffffffffffffffffffffffffffff168152602001908152602001600020612d4090919063ffffffff16565b5061289f826003612da990919063ffffffff16565b5081600073ffffffffffffffffffffffffffffffffffffffff168273ffffffffffffffffffffffffffffffffffffffff167fddf252ad1be2c89b69c2b068fc378daa952ba7f163c4a11628f55a4df523b3ef60405160405180910390a45050565b600061290f8360000183612dc3565b60001c905092915050565b60008060008061292d8660000186612e46565b915091508160001c8160001c9350935050509250929050565b80600a908051906020019061295c929190613a96565b5050565b6000612973846000018460001b84612edf565b60001c90509392505050565b600061298d82600001612fd5565b9050919050565b60003073ffffffffffffffffffffffffffffffffffffffff16600c60009054906101000a900473ffffffffffffffffffffffffffffffffffffffff1673ffffffffffffffffffffffffffffffffffffffff16636352211e846040518263ffffffff1660e01b8152600401612a0891906145f9565b60206040518083038186803b158015612a2057600080fd5b505afa158015612a34573d6000803e3d6000fd5b505050506040513d601f19601f82011682018060405250810190612a589190613d35565b73ffffffffffffffffffffffffffffffffffffffff1614612aae576040517f08c379a0000000000000000000000000000000000000000000000000000000008152600401612aa590614559565b60405180910390fd5b60016012600084815260200190815260200160002060006101000a81548160ff021916908315150217905550817fdcaec8df21007fb0cc76407b9c2be183d4cc30cfc0d5bc22a533e61b0279577160405160405180910390a260019050919050565b612b2a828260405180602001604052806000815250612fe6565b5050565b612b39848484612485565b612b4584848484613057565b612b9a576040517f08c379a00000000000000000000000000000000000000000000000000000000081526004018080602001828103825260328152602001806148716032913960400191505060405180910390fd5b50505050565b60606000821415612be8576040518060400160405280600181526020017f30000000000000000000000000000000000000000000000000000000000000008152509050612ce2565b600082905060005b60008214612c12578080600101915050600a8281612c0a57fe5b049150612bf0565b60008167ffffffffffffffff81118015612c2b57600080fd5b506040519080825280601f01601f191660200182016040528015612c5e5781602001600182028036833780820191505090505b50905060006001830390508593505b60008414612cda57600a8481612c7f57fe5b0660300160f81b82828060019003935081518110612c9957fe5b60200101907effffffffffffffffffffffffffffffffffffffffffffffffffffffffffffff1916908160001a905350600a8481612cd257fe5b049350612c6d565b819450505050505b919050565b6000612cf9836000018360001b613270565b905092915050565b60008151905060006a636f6e736f6c652e6c6f679050602083016000808483855afa5050505050565b600081600001805490509050919050565b505050565b6000612d52836000018360001b613293565b905092915050565b6000612d6c836000018360001b61337b565b905092915050565b6000612da0846000018460001b8473ffffffffffffffffffffffffffffffffffffffff1660001b6133eb565b90509392505050565b6000612dbb836000018360001b6134c7565b905092915050565b600081836000018054905011612e24576040517f08c379a000000000000000000000000000000000000000000000000000000000815260040180806020018281038252602281526020018061484f6022913960400191505060405180910390fd5b826000018281548110612e3357fe5b9060005260206000200154905092915050565b60008082846000018054905011612ea8576040517f08c379a00000000000000000000000000000000000000000000000000000000081526004018080602001828103825260228152602001806149ca6022913960400191505060405180910390fd5b6000846000018481548110612eb957fe5b906000526020600020906002020190508060000154816001015492509250509250929050565b60008084600101600085815260200190815260200160002054905060008114158390612fa6576040517f08c379a00000000000000000000000000000000000000000000000000000000081526004018080602001828103825283818151815260200191508051906020019080838360005b83811015612f6b578082015181840152602081019050612f50565b50505050905090810190601f168015612f985780820380516001836020036101000a031916815260200191505b509250505060405180910390fd5b50846000016001820381548110612fb957fe5b9060005260206000209060020201600101549150509392505050565b600081600001805490509050919050565b612ff083836135e0565b612ffd6000848484613057565b613052576040517f08c379a00000000000000000000000000000000000000000000000000000000081526004018080602001828103825260328152602001806148716032913960400191505060405180910390fd5b505050565b60006130788473ffffffffffffffffffffffffffffffffffffffff166137d4565b6130855760019050613268565b60006131ef63150b7a0260e01b61309a612179565b888787604051602401808573ffffffffffffffffffffffffffffffffffffffff1681526020018473ffffffffffffffffffffffffffffffffffffffff16815260200183815260200180602001828103825283818151815260200191508051906020019080838360005b8381101561311e578082015181840152602081019050613103565b50505050905090810190601f16801561314b5780820380516001836020036101000a031916815260200191505b5095505050505050604051602081830303815290604052907bffffffffffffffffffffffffffffffffffffffffffffffffffffffff19166020820180517bffffffffffffffffffffffffffffffffffffffffffffffffffffffff8381831617835250505050604051806060016040528060328152602001614871603291398773ffffffffffffffffffffffffffffffffffffffff166137e79092919063ffffffff16565b9050600081806020019051602081101561320857600080fd5b8101908080519060200190929190505050905063150b7a0260e01b7bffffffffffffffffffffffffffffffffffffffffffffffffffffffff1916817bffffffffffffffffffffffffffffffffffffffffffffffffffffffff191614925050505b949350505050565b600080836001016000848152602001908152602001600020541415905092915050565b6000808360010160008481526020019081526020016000205490506000811461336f57600060018203905060006001866000018054905003905060008660000182815481106132de57fe5b90600052602060002001549050808760000184815481106132fb57fe5b906000526020600020018190555060018301876001016000838152602001908152602001600020819055508660000180548061333357fe5b60019003818190600052602060002001600090559055866001016000878152602001908152602001600020600090556001945050505050613375565b60009150505b92915050565b600061338783836137ff565b6133e05782600001829080600181540180825580915050600190039060005260206000200160009091909190915055826000018054905083600101600084815260200190815260200160002081905550600190506133e5565b600090505b92915050565b6000808460010160008581526020019081526020016000205490506000811415613492578460000160405180604001604052808681526020018581525090806001815401808255809150506001900390600052602060002090600202016000909190919091506000820151816000015560208201518160010155505084600001805490508560010160008681526020019081526020016000208190555060019150506134c0565b828560000160018303815481106134a557fe5b90600052602060002090600202016001018190555060009150505b9392505050565b600080836001016000848152602001908152602001600020549050600081146135d4576000600182039050600060018660000180549050039050600086600001828154811061351257fe5b906000526020600020906002020190508087600001848154811061353257fe5b906000526020600020906002020160008201548160000155600182015481600101559050506001830187600101600083600001548152602001908152602001600020819055508660000180548061358557fe5b60019003818190600052602060002090600202016000808201600090556001820160009055505090558660010160008781526020019081526020016000206000905560019450505050506135da565b60009150505b92915050565b600073ffffffffffffffffffffffffffffffffffffffff168273ffffffffffffffffffffffffffffffffffffffff161415613683576040517f08c379a00000000000000000000000000000000000000000000000000000000081526004018080602001828103825260208152602001807f4552433732313a206d696e7420746f20746865207a65726f206164647265737381525060200191505060405180910390fd5b61368c8161215c565b156136ff576040517f08c379a000000000000000000000000000000000000000000000000000000000815260040180806020018281038252601c8152602001807f4552433732313a20746f6b656e20616c7265616479206d696e7465640000000081525060200191505060405180910390fd5b61370b60008383612d3b565b61375c81600260008573ffffffffffffffffffffffffffffffffffffffff1673ffffffffffffffffffffffffffffffffffffffff168152602001908152602001600020612d5a90919063ffffffff16565b5061377381836003612d749092919063ffffffff16565b50808273ffffffffffffffffffffffffffffffffffffffff16600073ffffffffffffffffffffffffffffffffffffffff167fddf252ad1be2c89b69c2b068fc378daa952ba7f163c4a11628f55a4df523b3ef60405160405180910390a45050565b600080823b905060008111915050919050565b60606137f68484600085613822565b90509392505050565b600080836001016000848152602001908152602001600020541415905092915050565b60608247101561387d576040517f08c379a00000000000000000000000000000000000000000000000000000000081526004018080602001828103825260268152602001806148ed6026913960400191505060405180910390fd5b613886856137d4565b6138f8576040517f08c379a000000000000000000000000000000000000000000000000000000000815260040180806020018281038252601d8152602001807f416464726573733a2063616c6c20746f206e6f6e2d636f6e747261637400000081525060200191505060405180910390fd5b6000808673ffffffffffffffffffffffffffffffffffffffff1685876040518082805190602001908083835b602083106139475780518252602082019150602081019050602083039250613924565b6001836020036101000a03801982511681845116808217855250505050505090500191505060006040518083038185875af1925050503d80600081146139a9576040519150601f19603f3d011682016040523d82523d6000602084013e6139ae565b606091505b50915091506139be8282866139ca565b92505050949350505050565b606083156139da57829050613a8f565b6000835111156139ed5782518084602001fd5b816040517f08c379a00000000000000000000000000000000000000000000000000000000081526004018080602001828103825283818151815260200191508051906020019080838360005b83811015613a54578082015181840152602081019050613a39565b50505050905090810190601f168015613a815780820380516001836020036101000a031916815260200191505b509250505060405180910390fd5b9392505050565b828054600181600116156101000203166002900490600052602060002090601f016020900481019282613acc5760008555613b13565b82601f10613ae557805160ff1916838001178555613b13565b82800160010185558215613b13579182015b82811115613b12578251825591602001919060010190613af7565b5b509050613b209190613b6c565b5090565b50805460018160011615610100020316600290046000825580601f10613b4a5750613b69565b601f016020900490600052602060002090810190613b689190613b6c565b5b50565b5b80821115613b85576000816000905550600101613b6d565b5090565b6000613b9c613b9784614677565b614646565b905082815260208101848484011115613bb457600080fd5b613bbf84828561479d565b509392505050565b6000613bda613bd5846146a7565b614646565b905082815260208101848484011115613bf257600080fd5b613bfd8482856147ac565b509392505050565b600081359050613c14816147f2565b92915050565b600081519050613c29816147f2565b92915050565b600081359050613c3e81614809565b92915050565b600081359050613c5381614820565b92915050565b600082601f830112613c6a57600080fd5b8135613c7a848260208601613b89565b91505092915050565b60008083601f840112613c9557600080fd5b8235905067ffffffffffffffff811115613cae57600080fd5b602083019150836001820283011115613cc657600080fd5b9250929050565b600082601f830112613cde57600080fd5b8151613cee848260208601613bc7565b91505092915050565b600081359050613d0681614837565b92915050565b600060208284031215613d1e57600080fd5b6000613d2c84828501613c05565b91505092915050565b600060208284031215613d4757600080fd5b6000613d5584828501613c1a565b91505092915050565b60008060408385031215613d7157600080fd5b6000613d7f85828601613c05565b9250506020613d9085828601613c05565b9150509250929050565b600080600060608486031215613daf57600080fd5b6000613dbd86828701613c05565b9350506020613dce86828701613c05565b9250506040613ddf86828701613cf7565b9150509250925092565b60008060008060808587031215613dff57600080fd5b6000613e0d87828801613c05565b9450506020613e1e87828801613c05565b9350506040613e2f87828801613cf7565b925050606085013567ffffffffffffffff811115613e4c57600080fd5b613e5887828801613c59565b91505092959194509250565b60008060408385031215613e7757600080fd5b6000613e8585828601613c05565b9250506020613e9685828601613c2f565b9150509250929050565b60008060408385031215613eb357600080fd5b6000613ec185828601613c05565b9250506020613ed285828601613cf7565b9150509250929050565b600060208284031215613eee57600080fd5b6000613efc84828501613c44565b91505092915050565b60008060208385031215613f1857600080fd5b600083013567ffffffffffffffff811115613f3257600080fd5b613f3e85828601613c83565b92509250509250929050565b600060208284031215613f5c57600080fd5b600082015167ffffffffffffffff811115613f7657600080fd5b613f8284828501613ccd565b91505092915050565b600060208284031215613f9d57600080fd5b6000613fab84828501613cf7565b91505092915050565b600080600060408486031215613fc957600080fd5b6000613fd786828701613cf7565b935050602084013567ffffffffffffffff811115613ff457600080fd5b61400086828701613c83565b92509250509250925092565b61401581614767565b82525050565b614024816146f3565b82525050565b61403381614705565b82525050565b61404281614711565b82525050565b600061405483856146e2565b935061406183858461479d565b61406a836147e1565b840190509392505050565b6000614080826146d7565b61408a81856146e2565b935061409a8185602086016147ac565b6140a3816147e1565b840191505092915050565b60006140bb6038836146e2565b91507f537570655261726556323a205468652076313a763220746f6b656e207065672060008301527f6861736e2774206265656e2065737461626c69736865642100000000000000006020830152604082019050919050565b60006141216044836146e2565b91507f537570655261726556323a2053656e6465722069736e27742077686974656c6960008301527f73746564206f7220617070726f76656420666f722074686973206f706572617460208301527f696f6e21000000000000000000000000000000000000000000000000000000006040830152606082019050919050565b60006141ad6028836146e2565b91507f537570655261726556323a204163636f756e7420616c7265616479207768697460008301527f656c6973746564210000000000000000000000000000000000000000000000006020830152604082019050919050565b60006142136027836146e2565b91507f537570655261726556323a20556e61626c6520746f207065672074686520563160008301527f20746f6b656e21000000000000000000000000000000000000000000000000006020830152604082019050919050565b60006142796026836146e2565b91507f537570655261726556323a20496e76616c696420726563697069656e7420616460008301527f64726573732100000000000000000000000000000000000000000000000000006020830152604082019050919050565b60006142df6033836146e2565b91507f537570655261726556323a2053656e6465722069736e277420746865206f776e60008301527f6572206f662074686520563220746f6b656e21000000000000000000000000006020830152604082019050919050565b6000614345605d836146e2565b91507f537570655261726556323a2047657420616464656420746f2077686974656c6960008301527f73742c207472616e736665722074686520563120746f6b656e20746f2074686960208301527f7320636f6e74726163742c207468656e2063616c6c206d696e745632210000006040830152606082019050919050565b60006143d16033836146e2565b91507f537570655261726556323a2053656e6465722069736e277420746865206f776e60008301527f6572206f662074686520563120546f6b656e21000000000000000000000000006020830152604082019050919050565b6144338161475d565b82525050565b600060208201905061444e600083018461401b565b92915050565b6000604082019050614469600083018561400c565b614476602083018461442a565b9392505050565b6000602082019050614492600083018461402a565b92915050565b60006020820190506144ad6000830184614039565b92915050565b600060208201905081810360008301526144ce818486614048565b90509392505050565b600060208201905081810360008301526144f18184614075565b905092915050565b60006020820190508181036000830152614512816140ae565b9050919050565b6000602082019050818103600083015261453281614114565b9050919050565b60006020820190508181036000830152614552816141a0565b9050919050565b6000602082019050818103600083015261457281614206565b9050919050565b600060208201905081810360008301526145928161426c565b9050919050565b600060208201905081810360008301526145b2816142d2565b9050919050565b600060208201905081810360008301526145d281614338565b9050919050565b600060208201905081810360008301526145f2816143c4565b9050919050565b600060208201905061460e600083018461442a565b92915050565b6000604082019050614629600083018661442a565b818103602083015261463c818486614048565b9050949350505050565b6000604051905081810181811067ffffffffffffffff8211171561466d5761466c6147df565b5b8060405250919050565b600067ffffffffffffffff821115614692576146916147df565b5b601f19601f8301169050602081019050919050565b600067ffffffffffffffff8211156146c2576146c16147df565b5b601f19601f8301169050602081019050919050565b600081519050919050565b600082825260208201905092915050565b60006146fe8261473d565b9050919050565b60008115159050919050565b60007fffffffff0000000000000000000000000000000000000000000000000000000082169050919050565b600073ffffffffffffffffffffffffffffffffffffffff82169050919050565b6000819050919050565b600061477282614779565b9050919050565b60006147848261478b565b9050919050565b60006147968261473d565b9050919050565b82818337600083830152505050565b60005b838110156147ca5780820151818401526020810190506147af565b838111156147d9576000848401525b50505050565bfe5b6000601f19601f8301169050919050565b6147fb816146f3565b811461480657600080fd5b50565b61481281614705565b811461481d57600080fd5b50565b61482981614711565b811461483457600080fd5b50565b6148408161475d565b811461484b57600080fd5b5056fe456e756d657261626c655365743a20696e646578206f7574206f6620626f756e64734552433732313a207472616e7366657220746f206e6f6e20455243373231526563656976657220696d706c656d656e7465724f776e61626c653a206e6577206f776e657220697320746865207a65726f20616464726573734552433732313a207472616e7366657220746f20746865207a65726f2061646472657373416464726573733a20696e73756666696369656e742062616c616e636520666f722063616c6c4552433732313a206f70657261746f7220717565727920666f72206e6f6e6578697374656e7420746f6b656e4552433732313a20617070726f76652063616c6c6572206973206e6f74206f776e6572206e6f7220617070726f76656420666f7220616c6c4552433732313a2062616c616e636520717565727920666f7220746865207a65726f20616464726573734552433732313a206f776e657220717565727920666f72206e6f6e6578697374656e7420746f6b656e456e756d657261626c654d61703a20696e646578206f7574206f6620626f756e64734552433732313a20617070726f76656420717565727920666f72206e6f6e6578697374656e7420746f6b656e4552433732314d657461646174613a2055524920736574206f66206e6f6e6578697374656e7420746f6b656e4552433732313a207472616e73666572206f6620746f6b656e2074686174206973206e6f74206f776e4552433732314d657461646174613a2055524920717565727920666f72206e6f6e6578697374656e7420746f6b656e4552433732313a20617070726f76616c20746f2063757272656e74206f776e65724552433732313a207472616e736665722063616c6c6572206973206e6f74206f776e6572206e6f7220617070726f766564a2646970667358221220c779a8307d2c04ff43ca0cc68233d5b18f14d5e0be22a4b56c706a2fa64d3c1064736f6c63430007060033",
  "linkReferences": {},
  "deployedLinkReferences": {}
}