{
  "_format": "hh-sol-artifact-1",
  "contractName": "SupeRareV2",
  "sourceName": "contracts/SupeRareV2.sol",
  "abi": [
    {
      "inputs": [
        {
          "internalType": "address",
          "name": "OriginalSupeRareAddr__",
          "type": "address"
        }
      ],
      "stateMutability": "nonpayable",
      "type": "constructor"
    },
    {
      "anonymous": false,
      "inputs": [
        {
          "indexed": true,
          "internalType": "address",
          "name": "owner",
          "type": "address"
        },
        {
          "indexed": true,
          "internalType": "address",
          "name": "approved",
          "type": "address"
        },
        {
          "indexed": true,
          "internalType": "uint256",
          "name": "tokenId",
          "type": "uint256"
        }
      ],
      "name": "Approval",
      "type": "event"
    },
    {
      "anonymous": false,
      "inputs": [
        {
          "indexed": true,
          "internalType": "address",
          "name": "owner",
          "type": "address"
        },
        {
          "indexed": true,
          "internalType": "address",
          "name": "operator",
          "type": "address"
        },
        {
          "indexed": false,
          "internalType": "bool",
          "name": "approved",
          "type": "bool"
        }
      ],
      "name": "ApprovalForAll",
      "type": "event"
    },
    {
      "anonymous": false,
      "inputs": [
        {
          "indexed": true,
          "internalType": "address",
          "name": "previousOwner",
          "type": "address"
        },
        {
          "indexed": true,
          "internalType": "address",
          "name": "newOwner",
          "type": "address"
        }
      ],
      "name": "OwnershipTransferred",
      "type": "event"
    },
    {
      "anonymous": false,
      "inputs": [
        {
          "indexed": true,
          "internalType": "address",
          "name": "OrigV1Owner",
          "type": "address"
        },
        {
          "indexed": true,
          "internalType": "address",
          "name": "NewV1Owner",
          "type": "address"
        },
        {
          "indexed": true,
          "internalType": "uint256",
          "name": "v1TokenId",
          "type": "uint256"
        }
      ],
      "name": "OwnershipUpdated",
      "type": "event"
    },
    {
      "anonymous": false,
      "inputs": [
        {
          "indexed": true,
          "internalType": "address",
          "name": "OrigOwner",
          "type": "address"
        },
        {
          "indexed": true,
          "internalType": "uint256",
          "name": "v2TokenID",
          "type": "uint256"
        },
        {
          "indexed": true,
          "internalType": "uint256",
          "name": "v1TokenID",
          "type": "uint256"
        }
      ],
      "name": "PositionCreated",
      "type": "event"
    },
    {
      "anonymous": false,
      "inputs": [
        {
          "indexed": true,
          "internalType": "address",
          "name": "OrigOwner",
          "type": "address"
        },
        {
          "indexed": true,
          "internalType": "uint256",
          "name": "v2TokenID",
          "type": "uint256"
        },
        {
          "indexed": true,
          "internalType": "uint256",
          "name": "v1TokenID",
          "type": "uint256"
        }
      ],
      "name": "PositionDeleted",
      "type": "event"
    },
    {
      "anonymous": false,
      "inputs": [
        {
          "indexed": false,
          "internalType": "bool",
          "name": "",
          "type": "bool"
        }
      ],
      "name": "ToggleStartStop",
      "type": "event"
    },
    {
      "anonymous": false,
      "inputs": [
        {
          "indexed": true,
          "internalType": "address",
          "name": "from",
          "type": "address"
        },
        {
          "indexed": true,
          "internalType": "address",
          "name": "to",
          "type": "address"
        },
        {
          "indexed": true,
          "internalType": "uint256",
          "name": "tokenId",
          "type": "uint256"
        }
      ],
      "name": "Transfer",
      "type": "event"
    },
    {
      "inputs": [],
      "name": "ToggleContract",
      "outputs": [],
      "stateMutability": "nonpayable",
      "type": "function"
    },
    {
      "inputs": [
        {
          "internalType": "uint256",
          "name": "",
          "type": "uint256"
        }
      ],
      "name": "V1Position",
      "outputs": [
        {
          "internalType": "address",
          "name": "v1Owner",
          "type": "address"
        },
        {
          "internalType": "uint256",
          "name": "v1TokenID",
          "type": "uint256"
        },
        {
          "internalType": "uint256",
          "name": "timeStamp",
          "type": "uint256"
        }
      ],
      "stateMutability": "view",
      "type": "function"
    },
    {
      "inputs": [
        {
          "internalType": "address",
          "name": "to",
          "type": "address"
        },
        {
          "internalType": "uint256",
          "name": "tokenId",
          "type": "uint256"
        }
      ],
      "name": "approve",
      "outputs": [],
      "stateMutability": "nonpayable",
      "type": "function"
    },
    {
      "inputs": [
        {
          "internalType": "address",
          "name": "owner",
          "type": "address"
        }
      ],
      "name": "balanceOf",
      "outputs": [
        {
          "internalType": "uint256",
          "name": "",
          "type": "uint256"
        }
      ],
      "stateMutability": "view",
      "type": "function"
    },
    {
      "inputs": [],
      "name": "baseURI",
      "outputs": [
        {
          "internalType": "string",
          "name": "",
          "type": "string"
        }
      ],
      "stateMutability": "view",
      "type": "function"
    },
    {
      "inputs": [],
      "name": "contract_status",
      "outputs": [
        {
          "internalType": "bool",
          "name": "",
          "type": "bool"
        }
      ],
      "stateMutability": "view",
      "type": "function"
    },
    {
      "inputs": [
        {
          "internalType": "uint256",
          "name": "v1tokenId",
          "type": "uint256"
        }
      ],
      "name": "deposit",
      "outputs": [
        {
          "internalType": "uint256",
          "name": "v2tokenId",
          "type": "uint256"
        }
      ],
      "stateMutability": "nonpayable",
      "type": "function"
    },
    {
      "inputs": [
        {
          "internalType": "uint256",
          "name": "tokenId",
          "type": "uint256"
        }
      ],
      "name": "getApproved",
      "outputs": [
        {
          "internalType": "address",
          "name": "",
          "type": "address"
        }
      ],
      "stateMutability": "view",
      "type": "function"
    },
    {
      "inputs": [
        {
          "internalType": "uint256",
          "name": "v2TokenId",
          "type": "uint256"
        }
      ],
      "name": "getOwnerPosition",
      "outputs": [
        {
          "components": [
            {
              "internalType": "address",
              "name": "v1Owner",
              "type": "address"
            },
            {
              "internalType": "uint256",
              "name": "v1TokenID",
              "type": "uint256"
            },
            {
              "internalType": "uint256",
              "name": "timeStamp",
              "type": "uint256"
            }
          ],
          "internalType": "struct ISupeRareV2.Position",
          "name": "",
          "type": "tuple"
        }
      ],
      "stateMutability": "view",
      "type": "function"
    },
    {
      "inputs": [],
      "name": "getSupeRareAddress",
      "outputs": [
        {
          "internalType": "address",
          "name": "",
          "type": "address"
        }
      ],
      "stateMutability": "view",
      "type": "function"
    },
    {
      "inputs": [
        {
          "internalType": "address",
          "name": "owner",
          "type": "address"
        },
        {
          "internalType": "address",
          "name": "operator",
          "type": "address"
        }
      ],
      "name": "isApprovedForAll",
      "outputs": [
        {
          "internalType": "bool",
          "name": "",
          "type": "bool"
        }
      ],
      "stateMutability": "view",
      "type": "function"
    },
    {
      "inputs": [],
      "name": "name",
      "outputs": [
        {
          "internalType": "string",
          "name": "",
          "type": "string"
        }
      ],
      "stateMutability": "view",
      "type": "function"
    },
    {
      "inputs": [],
      "name": "owner",
      "outputs": [
        {
          "internalType": "address",
          "name": "",
          "type": "address"
        }
      ],
      "stateMutability": "view",
      "type": "function"
    },
    {
      "inputs": [
        {
          "internalType": "address",
          "name": "",
          "type": "address"
        },
        {
          "internalType": "uint256",
          "name": "",
          "type": "uint256"
        }
      ],
      "name": "ownerAddrToV1toV2TokenId",
      "outputs": [
        {
          "internalType": "uint256",
          "name": "",
          "type": "uint256"
        }
      ],
      "stateMutability": "view",
      "type": "function"
    },
    {
      "inputs": [
        {
          "internalType": "uint256",
          "name": "tokenId",
          "type": "uint256"
        }
      ],
      "name": "ownerOf",
      "outputs": [
        {
          "internalType": "address",
          "name": "",
          "type": "address"
        }
      ],
      "stateMutability": "view",
      "type": "function"
    },
    {
      "inputs": [],
      "name": "renounceOwnership",
      "outputs": [],
      "stateMutability": "nonpayable",
      "type": "function"
    },
    {
      "inputs": [
        {
          "internalType": "address",
          "name": "from",
          "type": "address"
        },
        {
          "internalType": "address",
          "name": "to",
          "type": "address"
        },
        {
          "internalType": "uint256",
          "name": "tokenId",
          "type": "uint256"
        }
      ],
      "name": "safeTransferFrom",
      "outputs": [],
      "stateMutability": "nonpayable",
      "type": "function"
    },
    {
      "inputs": [
        {
          "internalType": "address",
          "name": "from",
          "type": "address"
        },
        {
          "internalType": "address",
          "name": "to",
          "type": "address"
        },
        {
          "internalType": "uint256",
          "name": "tokenId",
          "type": "uint256"
        },
        {
          "internalType": "bytes",
          "name": "_data",
          "type": "bytes"
        }
      ],
      "name": "safeTransferFrom",
      "outputs": [],
      "stateMutability": "nonpayable",
      "type": "function"
    },
    {
      "inputs": [
        {
          "internalType": "address",
          "name": "operator",
          "type": "address"
        },
        {
          "internalType": "bool",
          "name": "approved",
          "type": "bool"
        }
      ],
      "name": "setApprovalForAll",
      "outputs": [],
      "stateMutability": "nonpayable",
      "type": "function"
    },
    {
      "inputs": [
        {
          "internalType": "bytes4",
          "name": "interfaceId",
          "type": "bytes4"
        }
      ],
      "name": "supportsInterface",
      "outputs": [
        {
          "internalType": "bool",
          "name": "",
          "type": "bool"
        }
      ],
      "stateMutability": "view",
      "type": "function"
    },
    {
      "inputs": [],
      "name": "symbol",
      "outputs": [
        {
          "internalType": "string",
          "name": "",
          "type": "string"
        }
      ],
      "stateMutability": "view",
      "type": "function"
    },
    {
      "inputs": [
        {
          "internalType": "uint256",
          "name": "index",
          "type": "uint256"
        }
      ],
      "name": "tokenByIndex",
      "outputs": [
        {
          "internalType": "uint256",
          "name": "",
          "type": "uint256"
        }
      ],
      "stateMutability": "view",
      "type": "function"
    },
    {
      "inputs": [
        {
          "internalType": "address",
          "name": "owner",
          "type": "address"
        },
        {
          "internalType": "uint256",
          "name": "index",
          "type": "uint256"
        }
      ],
      "name": "tokenOfOwnerByIndex",
      "outputs": [
        {
          "internalType": "uint256",
          "name": "",
          "type": "uint256"
        }
      ],
      "stateMutability": "view",
      "type": "function"
    },
    {
      "inputs": [
        {
          "internalType": "uint256",
          "name": "tokenId",
          "type": "uint256"
        }
      ],
      "name": "tokenURI",
      "outputs": [
        {
          "internalType": "string",
          "name": "",
          "type": "string"
        }
      ],
      "stateMutability": "view",
      "type": "function"
    },
    {
      "inputs": [],
      "name": "totalSupply",
      "outputs": [
        {
          "internalType": "uint256",
          "name": "",
          "type": "uint256"
        }
      ],
      "stateMutability": "view",
      "type": "function"
    },
    {
      "inputs": [
        {
          "internalType": "address",
          "name": "from",
          "type": "address"
        },
        {
          "internalType": "address",
          "name": "to",
          "type": "address"
        },
        {
          "internalType": "uint256",
          "name": "tokenId",
          "type": "uint256"
        }
      ],
      "name": "transferFrom",
      "outputs": [],
      "stateMutability": "nonpayable",
      "type": "function"
    },
    {
      "inputs": [
        {
          "internalType": "address",
          "name": "newOwner",
          "type": "address"
        }
      ],
      "name": "transferOwnership",
      "outputs": [],
      "stateMutability": "nonpayable",
      "type": "function"
    },
    {
      "inputs": [
        {
          "internalType": "uint256",
          "name": "v1tokenId",
          "type": "uint256"
        }
      ],
      "name": "updateOwnership",
      "outputs": [
        {
          "internalType": "bool",
          "name": "",
          "type": "bool"
        }
      ],
      "stateMutability": "nonpayable",
      "type": "function"
    },
    {
      "inputs": [
        {
          "internalType": "uint256",
          "name": "v1TokenId",
          "type": "uint256"
        }
      ],
      "name": "withdraw",
      "outputs": [
        {
          "internalType": "bool",
          "name": "",
          "type": "bool"
        }
      ],
      "stateMutability": "nonpayable",
      "type": "function"
    }
  ],
  "bytecode": "0x60806040526001600e60006101000a81548175ffffffffffffffffffffffffffffffffffffffffffff021916908375ffffffffffffffffffffffffffffffffffffffffffff1602179055503480156200005757600080fd5b506040516200439d3803806200439d83398181016040528101906200007d9190620004b6565b6040518060400160405280600a81526020017f53757065526172655632000000000000000000000000000000000000000000008152506040518060400160405280600681526020017f53555052563200000000000000000000000000000000000000000000000000008152506000620000fb620002d860201b60201c565b9050806000806101000a81548173ffffffffffffffffffffffffffffffffffffffff021916908373ffffffffffffffffffffffffffffffffffffffff1602179055508073ffffffffffffffffffffffffffffffffffffffff16600073ffffffffffffffffffffffffffffffffffffffff167f8be0079c531659141344cd1fd0a4f28419497f9722a3daafe3b4186f6b6457e060405160405180910390a350620001b16301ffc9a760e01b620002e060201b60201c565b8160079080519060200190620001c9929190620003e9565b508060089080519060200190620001e2929190620003e9565b50620001fb6380ac58cd60e01b620002e060201b60201c565b62000213635b5e139f60e01b620002e060201b60201c565b6200022b63780e9d6360e01b620002e060201b60201c565b505080600b60006101000a81548173ffffffffffffffffffffffffffffffffffffffff021916908373ffffffffffffffffffffffffffffffffffffffff160217905550600b60009054906101000a900473ffffffffffffffffffffffffffffffffffffffff16600c60006101000a81548173ffffffffffffffffffffffffffffffffffffffff021916908373ffffffffffffffffffffffffffffffffffffffff1602179055505062000530565b600033905090565b63ffffffff60e01b817bffffffffffffffffffffffffffffffffffffffffffffffffffffffff191614156200037d576040517f08c379a000000000000000000000000000000000000000000000000000000000815260040180806020018281038252601c8152602001807f4552433136353a20696e76616c696420696e746572666163652069640000000081525060200191505060405180910390fd5b6001806000837bffffffffffffffffffffffffffffffffffffffffffffffffffffffff19167bffffffffffffffffffffffffffffffffffffffffffffffffffffffff1916815260200190815260200160002060006101000a81548160ff02191690831515021790555050565b828054600181600116156101000203166002900490600052602060002090601f0160209004810192826200042157600085556200046d565b82601f106200043c57805160ff19168380011785556200046d565b828001600101855582156200046d579182015b828111156200046c5782518255916020019190600101906200044f565b5b5090506200047c919062000480565b5090565b5b808211156200049b57600081600090555060010162000481565b5090565b600081519050620004b08162000516565b92915050565b600060208284031215620004c957600080fd5b6000620004d9848285016200049f565b91505092915050565b6000620004ef82620004f6565b9050919050565b600073ffffffffffffffffffffffffffffffffffffffff82169050919050565b6200052181620004e2565b81146200052d57600080fd5b50565b613e5d80620005406000396000f3fe608060405234801561001057600080fd5b50600436106101cf5760003560e01c80636c0360eb11610104578063a22cb465116100a2578063cfa2e00411610071578063cfa2e0041461057e578063e731493114610588578063e985e9c5146105b8578063f2fde38b146105e8576101cf565b8063a22cb465146104e6578063b6b55f2514610502578063b88d4fde14610532578063c87b56dd1461054e576101cf565b806370a08231116100de57806370a0823114610470578063715018a6146104a05780638da5cb5b146104aa57806395d89b41146104c8576101cf565b80636c0360eb146103f05780636c0e67541461040e5780636d35f9ae1461043e576101cf565b80632b1bf48f11610171578063364647891161014b578063364647891461035657806342842e0e146103745780634f6ccce7146103905780636352211e146103c0576101cf565b80632b1bf48f146102d85780632e1a7d4d146102f65780632f745c5914610326576101cf565b8063095ea7b3116101ad578063095ea7b3146102525780630a4c33811461026e57806318160ddd1461029e57806323b872dd146102bc576101cf565b806301ffc9a7146101d457806306fdde0314610204578063081812fc14610222575b600080fd5b6101ee60048036038101906101e9919061374f565b610604565b6040516101fb919061395f565b60405180910390f35b61020c61066c565b604051610219919061397a565b60405180910390f35b61023c60048036038101906102379190613778565b61070e565b604051610249919061390d565b60405180910390f35b61026c60048036038101906102679190613713565b6107a9565b005b61028860048036038101906102839190613778565b6108ed565b60405161029591906139dc565b60405180910390f35b6102a6610984565b6040516102b391906139f7565b60405180910390f35b6102d660048036038101906102d1919061360d565b610995565b005b6102e0610a0b565b6040516102ed919061395f565b60405180910390f35b610310600480360381019061030b9190613778565b610a22565b60405161031d919061395f565b60405180910390f35b610340600480360381019061033b9190613713565b610c09565b60405161034d91906139f7565b60405180910390f35b61035e610c64565b60405161036b919061390d565b60405180910390f35b61038e6004803603810190610389919061360d565b610c8e565b005b6103aa60048036038101906103a59190613778565b610cae565b6040516103b791906139f7565b60405180910390f35b6103da60048036038101906103d59190613778565b610cd1565b6040516103e7919061390d565b60405180910390f35b6103f8610d08565b604051610405919061397a565b60405180910390f35b61042860048036038101906104239190613713565b610daa565b60405161043591906139f7565b60405180910390f35b61045860048036038101906104539190613778565b610dcf565b60405161046793929190613928565b60405180910390f35b61048a6004803603810190610485919061357f565b610e19565b60405161049791906139f7565b60405180910390f35b6104a8610eee565b005b6104b261105b565b6040516104bf919061390d565b60405180910390f35b6104d0611084565b6040516104dd919061397a565b60405180910390f35b61050060048036038101906104fb91906136d7565b611126565b005b61051c60048036038101906105179190613778565b6112dc565b60405161052991906139f7565b60405180910390f35b61054c6004803603810190610547919061365c565b6115fc565b005b61056860048036038101906105639190613778565b611674565b604051610575919061397a565b60405180910390f35b610586611945565b005b6105a2600480360381019061059d9190613778565b611a66565b6040516105af919061395f565b60405180910390f35b6105d260048036038101906105cd91906135d1565b611ce0565b6040516105df919061395f565b60405180910390f35b61060260048036038101906105fd919061357f565b611d74565b005b600060016000837bffffffffffffffffffffffffffffffffffffffffffffffffffffffff19167bffffffffffffffffffffffffffffffffffffffffffffffffffffffff1916815260200190815260200160002060009054906101000a900460ff169050919050565b606060078054600181600116156101000203166002900480601f0160208091040260200160405190810160405280929190818152602001828054600181600116156101000203166002900480156107045780601f106106d957610100808354040283529160200191610704565b820191906000526020600020905b8154815290600101906020018083116106e757829003601f168201915b5050505050905090565b600061071982611f66565b61076e576040517f08c379a000000000000000000000000000000000000000000000000000000000815260040180806020018281038252602c815260200180613d52602c913960400191505060405180910390fd5b6005600083815260200190815260200160002060009054906101000a900473ffffffffffffffffffffffffffffffffffffffff169050919050565b60006107b482610cd1565b90508073ffffffffffffffffffffffffffffffffffffffff168373ffffffffffffffffffffffffffffffffffffffff16141561083b576040517f08c379a0000000000000000000000000000000000000000000000000000000008152600401808060200182810382526021815260200180613dd66021913960400191505060405180910390fd5b8073ffffffffffffffffffffffffffffffffffffffff1661085a611f83565b73ffffffffffffffffffffffffffffffffffffffff161480610889575061088881610883611f83565b611ce0565b5b6108de576040517f08c379a0000000000000000000000000000000000000000000000000000000008152600401808060200182810382526038815260200180613ca56038913960400191505060405180910390fd5b6108e88383611f8b565b505050565b6108f5613412565b601060008381526020019081526020016000206040518060600160405290816000820160009054906101000a900473ffffffffffffffffffffffffffffffffffffffff1673ffffffffffffffffffffffffffffffffffffffff1673ffffffffffffffffffffffffffffffffffffffff168152602001600182015481526020016002820154815250509050919050565b60006109906003612044565b905090565b6109a66109a0611f83565b82612059565b6109fb576040517f08c379a0000000000000000000000000000000000000000000000000000000008152600401808060200182810382526031815260200180613df76031913960400191505060405180910390fd5b610a0683838361214d565b505050565b6000600d60149054906101000a900460ff16905090565b600081610a2d611f83565b73ffffffffffffffffffffffffffffffffffffffff16600c60009054906101000a900473ffffffffffffffffffffffffffffffffffffffff1673ffffffffffffffffffffffffffffffffffffffff16636352211e836040518263ffffffff1660e01b8152600401610a9e91906139f7565b60206040518083038186803b158015610ab657600080fd5b505afa158015610aca573d6000803e3d6000fd5b505050506040513d601f19601f82011682018060405250810190610aee91906135a8565b73ffffffffffffffffffffffffffffffffffffffff1614610b44576040517f08c379a0000000000000000000000000000000000000000000000000000000008152600401610b3b9061399c565b60405180910390fd5b6000600f6000858152602001908152602001600020549050610b6581612390565b60106000858152602001908152602001600020600080820160006101000a81549073ffffffffffffffffffffffffffffffffffffffff02191690556001820160009055600282016000905550508381610bbc611f83565b73ffffffffffffffffffffffffffffffffffffffff167fd79277f11bea144980bafa77ca965aba93645c81e42b4d49a466097ff270e50160405160405180910390a4600192505050919050565b6000610c5c82600260008673ffffffffffffffffffffffffffffffffffffffff1673ffffffffffffffffffffffffffffffffffffffff1681526020019081526020016000206124ca90919063ffffffff16565b905092915050565b6000600b60009054906101000a900473ffffffffffffffffffffffffffffffffffffffff16905090565b610ca9838383604051806020016040528060008152506115fc565b505050565b600080610cc58360036124e490919063ffffffff16565b50905080915050919050565b6000610d0182604051806060016040528060298152602001613d076029913960036125109092919063ffffffff16565b9050919050565b6060600a8054600181600116156101000203166002900480601f016020809104026020016040519081016040528092919081815260200182805460018160011615610100020316600290048015610da05780601f10610d7557610100808354040283529160200191610da0565b820191906000526020600020905b815481529060010190602001808311610d8357829003601f168201915b5050505050905090565b6011602052816000526040600020602052806000526040600020600091509150505481565b60106020528060005260406000206000915090508060000160009054906101000a900473ffffffffffffffffffffffffffffffffffffffff16908060010154908060020154905083565b60008073ffffffffffffffffffffffffffffffffffffffff168273ffffffffffffffffffffffffffffffffffffffff161415610ea0576040517f08c379a000000000000000000000000000000000000000000000000000000000815260040180806020018281038252602a815260200180613cdd602a913960400191505060405180910390fd5b610ee7600260008473ffffffffffffffffffffffffffffffffffffffff1673ffffffffffffffffffffffffffffffffffffffff16815260200190815260200160002061252f565b9050919050565b610ef6611f83565b73ffffffffffffffffffffffffffffffffffffffff16610f1461105b565b73ffffffffffffffffffffffffffffffffffffffff1614610f9d576040517f08c379a00000000000000000000000000000000000000000000000000000000081526004018080602001828103825260208152602001807f4f776e61626c653a2063616c6c6572206973206e6f7420746865206f776e657281525060200191505060405180910390fd5b600073ffffffffffffffffffffffffffffffffffffffff1660008054906101000a900473ffffffffffffffffffffffffffffffffffffffff1673ffffffffffffffffffffffffffffffffffffffff167f8be0079c531659141344cd1fd0a4f28419497f9722a3daafe3b4186f6b6457e060405160405180910390a360008060006101000a81548173ffffffffffffffffffffffffffffffffffffffff021916908373ffffffffffffffffffffffffffffffffffffffff160217905550565b60008060009054906101000a900473ffffffffffffffffffffffffffffffffffffffff16905090565b606060088054600181600116156101000203166002900480601f01602080910402602001604051908101604052809291908181526020018280546001816001161561010002031660029004801561111c5780601f106110f15761010080835404028352916020019161111c565b820191906000526020600020905b8154815290600101906020018083116110ff57829003601f168201915b5050505050905090565b61112e611f83565b73ffffffffffffffffffffffffffffffffffffffff168273ffffffffffffffffffffffffffffffffffffffff1614156111cf576040517f08c379a00000000000000000000000000000000000000000000000000000000081526004018080602001828103825260198152602001807f4552433732313a20617070726f766520746f2063616c6c65720000000000000081525060200191505060405180910390fd5b80600660006111dc611f83565b73ffffffffffffffffffffffffffffffffffffffff1673ffffffffffffffffffffffffffffffffffffffff16815260200190815260200160002060008473ffffffffffffffffffffffffffffffffffffffff1673ffffffffffffffffffffffffffffffffffffffff16815260200190815260200160002060006101000a81548160ff0219169083151502179055508173ffffffffffffffffffffffffffffffffffffffff16611289611f83565b73ffffffffffffffffffffffffffffffffffffffff167f17307eab39ab6107e8899845ad3d59bd9653f200f220920489ca2b5937696c318360405180821515815260200191505060405180910390a35050565b6000600d60149054906101000a900460ff161561132e576040517f08c379a0000000000000000000000000000000000000000000000000000000008152600401611325906139bc565b60405180910390fd5b81611337611f83565b73ffffffffffffffffffffffffffffffffffffffff16600c60009054906101000a900473ffffffffffffffffffffffffffffffffffffffff1673ffffffffffffffffffffffffffffffffffffffff16636352211e836040518263ffffffff1660e01b81526004016113a891906139f7565b60206040518083038186803b1580156113c057600080fd5b505afa1580156113d4573d6000803e3d6000fd5b505050506040513d601f19601f820116820180604052508101906113f891906135a8565b73ffffffffffffffffffffffffffffffffffffffff161461144e576040517f08c379a00000000000000000000000000000000000000000000000000000000081526004016114459061399c565b60405180910390fd5b6114e9611459611f83565b600e600081819054906101000a900475ffffffffffffffffffffffffffffffffffffffffffff168092919060010191906101000a81548175ffffffffffffffffffffffffffffffffffffffffffff021916908375ffffffffffffffffffffffffffffffffffffffffffff16021790555075ffffffffffffffffffffffffffffffffffffffffffff16935083612544565b60405180606001604052806114fc611f83565b73ffffffffffffffffffffffffffffffffffffffff168152602001848152602001428152506010600084815260200190815260200160002060008201518160000160006101000a81548173ffffffffffffffffffffffffffffffffffffffff021916908373ffffffffffffffffffffffffffffffffffffffff160217905550602082015181600101556040820151816002015590505081600f60008581526020019081526020016000208190555082826115b4611f83565b73ffffffffffffffffffffffffffffffffffffffff167f4b82aa16e071a61de1a6b9aeec9edab0356331f8122c78683b469ac8e685dabc60405160405180910390a450919050565b61160d611607611f83565b83612059565b611662576040517f08c379a0000000000000000000000000000000000000000000000000000000008152600401808060200182810382526031815260200180613df76031913960400191505060405180910390fd5b61166e84848484612738565b50505050565b606061167f82611f66565b6116d4576040517f08c379a000000000000000000000000000000000000000000000000000000000815260040180806020018281038252602f815260200180613da7602f913960400191505060405180910390fd5b6000600960008481526020019081526020016000208054600181600116156101000203166002900480601f01602080910402602001604051908101604052809291908181526020018280546001816001161561010002031660029004801561177d5780601f106117525761010080835404028352916020019161177d565b820191906000526020600020905b81548152906001019060200180831161176057829003601f168201915b50505050509050600061178e610d08565b90506000815114156117a4578192505050611940565b6000825111156118755780826040516020018083805190602001908083835b602083106117e657805182526020820191506020810190506020830392506117c3565b6001836020036101000a03801982511681845116808217855250505050505090500182805190602001908083835b602083106118375780518252602082019150602081019050602083039250611814565b6001836020036101000a0380198251168184511680821785525050505050509050019250505060405160208183030381529060405292505050611940565b8061187f856127aa565b6040516020018083805190602001908083835b602083106118b55780518252602082019150602081019050602083039250611892565b6001836020036101000a03801982511681845116808217855250505050505090500182805190602001908083835b6020831061190657805182526020820191506020810190506020830392506118e3565b6001836020036101000a03801982511681845116808217855250505050505090500192505050604051602081830303815290604052925050505b919050565b61194d611f83565b73ffffffffffffffffffffffffffffffffffffffff1661196b61105b565b73ffffffffffffffffffffffffffffffffffffffff16146119f4576040517f08c379a00000000000000000000000000000000000000000000000000000000081526004018080602001828103825260208152602001807f4f776e61626c653a2063616c6c6572206973206e6f7420746865206f776e657281525060200191505060405180910390fd5b600d60149054906101000a900460ff1615600d60146101000a81548160ff0219169083151502179055507f52b85b02b7d21238e828a5c4da635eedf42851c8d1db199f9d414f941e89b650600d60149054906101000a900460ff16604051611a5c919061395f565b60405180910390a1565b600081611a71611f83565b73ffffffffffffffffffffffffffffffffffffffff16600c60009054906101000a900473ffffffffffffffffffffffffffffffffffffffff1673ffffffffffffffffffffffffffffffffffffffff16636352211e836040518263ffffffff1660e01b8152600401611ae291906139f7565b60206040518083038186803b158015611afa57600080fd5b505afa158015611b0e573d6000803e3d6000fd5b505050506040513d601f19601f82011682018060405250810190611b3291906135a8565b73ffffffffffffffffffffffffffffffffffffffff1614611b88576040517f08c379a0000000000000000000000000000000000000000000000000000000008152600401611b7f9061399c565b60405180910390fd5b6000600f600085815260200190815260200160002054905060006010600083815260200190815260200160002060000160009054906101000a900473ffffffffffffffffffffffffffffffffffffffff169050611be3611f83565b73ffffffffffffffffffffffffffffffffffffffff168173ffffffffffffffffffffffffffffffffffffffff1614611cd457611c1d611f83565b6010600084815260200190815260200160002060000160006101000a81548173ffffffffffffffffffffffffffffffffffffffff021916908373ffffffffffffffffffffffffffffffffffffffff16021790555084611c7a611f83565b73ffffffffffffffffffffffffffffffffffffffff168273ffffffffffffffffffffffffffffffffffffffff167fe675f572dcfc5101e1fe21b48072603841bd2aaa5c26f8bb6ec6bcb843c5e3c060405160405180910390a45b60019350505050919050565b6000600660008473ffffffffffffffffffffffffffffffffffffffff1673ffffffffffffffffffffffffffffffffffffffff16815260200190815260200160002060008373ffffffffffffffffffffffffffffffffffffffff1673ffffffffffffffffffffffffffffffffffffffff16815260200190815260200160002060009054906101000a900460ff16905092915050565b611d7c611f83565b73ffffffffffffffffffffffffffffffffffffffff16611d9a61105b565b73ffffffffffffffffffffffffffffffffffffffff1614611e23576040517f08c379a00000000000000000000000000000000000000000000000000000000081526004018080602001828103825260208152602001807f4f776e61626c653a2063616c6c6572206973206e6f7420746865206f776e657281525060200191505060405180910390fd5b600073ffffffffffffffffffffffffffffffffffffffff168173ffffffffffffffffffffffffffffffffffffffff161415611ea9576040517f08c379a0000000000000000000000000000000000000000000000000000000008152600401808060200182810382526026815260200180613c096026913960400191505060405180910390fd5b8073ffffffffffffffffffffffffffffffffffffffff1660008054906101000a900473ffffffffffffffffffffffffffffffffffffffff1673ffffffffffffffffffffffffffffffffffffffff167f8be0079c531659141344cd1fd0a4f28419497f9722a3daafe3b4186f6b6457e060405160405180910390a3806000806101000a81548173ffffffffffffffffffffffffffffffffffffffff021916908373ffffffffffffffffffffffffffffffffffffffff16021790555050565b6000611f7c8260036128f190919063ffffffff16565b9050919050565b600033905090565b816005600083815260200190815260200160002060006101000a81548173ffffffffffffffffffffffffffffffffffffffff021916908373ffffffffffffffffffffffffffffffffffffffff160217905550808273ffffffffffffffffffffffffffffffffffffffff16611ffe83610cd1565b73ffffffffffffffffffffffffffffffffffffffff167f8c5be1e5ebec7d5bd14f71427d1e84f3dd0314c0f7b2291e5b200ac8c7c3b92560405160405180910390a45050565b60006120528260000161290b565b9050919050565b600061206482611f66565b6120b9576040517f08c379a000000000000000000000000000000000000000000000000000000000815260040180806020018281038252602c815260200180613c79602c913960400191505060405180910390fd5b60006120c483610cd1565b90508073ffffffffffffffffffffffffffffffffffffffff168473ffffffffffffffffffffffffffffffffffffffff16148061213357508373ffffffffffffffffffffffffffffffffffffffff1661211b8461070e565b73ffffffffffffffffffffffffffffffffffffffff16145b8061214457506121438185611ce0565b5b91505092915050565b8273ffffffffffffffffffffffffffffffffffffffff1661216d82610cd1565b73ffffffffffffffffffffffffffffffffffffffff16146121d9576040517f08c379a0000000000000000000000000000000000000000000000000000000008152600401808060200182810382526029815260200180613d7e6029913960400191505060405180910390fd5b600073ffffffffffffffffffffffffffffffffffffffff168273ffffffffffffffffffffffffffffffffffffffff16141561225f576040517f08c379a0000000000000000000000000000000000000000000000000000000008152600401808060200182810382526024815260200180613c2f6024913960400191505060405180910390fd5b61226a83838361291c565b612275600082611f8b565b6122c681600260008673ffffffffffffffffffffffffffffffffffffffff1673ffffffffffffffffffffffffffffffffffffffff16815260200190815260200160002061292190919063ffffffff16565b5061231881600260008573ffffffffffffffffffffffffffffffffffffffff1673ffffffffffffffffffffffffffffffffffffffff16815260200190815260200160002061293b90919063ffffffff16565b5061232f818360036129559092919063ffffffff16565b50808273ffffffffffffffffffffffffffffffffffffffff168473ffffffffffffffffffffffffffffffffffffffff167fddf252ad1be2c89b69c2b068fc378daa952ba7f163c4a11628f55a4df523b3ef60405160405180910390a4505050565b600061239b82610cd1565b90506123a98160008461291c565b6123b4600083611f8b565b60006009600084815260200190815260200160002080546001816001161561010002031660029004905014612403576009600083815260200190815260200160002060006124029190613449565b5b61245482600260008473ffffffffffffffffffffffffffffffffffffffff1673ffffffffffffffffffffffffffffffffffffffff16815260200190815260200160002061292190919063ffffffff16565b5061246982600361298a90919063ffffffff16565b5081600073ffffffffffffffffffffffffffffffffffffffff168273ffffffffffffffffffffffffffffffffffffffff167fddf252ad1be2c89b69c2b068fc378daa952ba7f163c4a11628f55a4df523b3ef60405160405180910390a45050565b60006124d983600001836129a4565b60001c905092915050565b6000806000806124f78660000186612a27565b915091508160001c8160001c9350935050509250929050565b6000612523846000018460001b84612ac0565b60001c90509392505050565b600061253d82600001612bb6565b9050919050565b600073ffffffffffffffffffffffffffffffffffffffff168273ffffffffffffffffffffffffffffffffffffffff1614156125e7576040517f08c379a00000000000000000000000000000000000000000000000000000000081526004018080602001828103825260208152602001807f4552433732313a206d696e7420746f20746865207a65726f206164647265737381525060200191505060405180910390fd5b6125f081611f66565b15612663576040517f08c379a000000000000000000000000000000000000000000000000000000000815260040180806020018281038252601c8152602001807f4552433732313a20746f6b656e20616c7265616479206d696e7465640000000081525060200191505060405180910390fd5b61266f6000838361291c565b6126c081600260008573ffffffffffffffffffffffffffffffffffffffff1673ffffffffffffffffffffffffffffffffffffffff16815260200190815260200160002061293b90919063ffffffff16565b506126d7818360036129559092919063ffffffff16565b50808273ffffffffffffffffffffffffffffffffffffffff16600073ffffffffffffffffffffffffffffffffffffffff167fddf252ad1be2c89b69c2b068fc378daa952ba7f163c4a11628f55a4df523b3ef60405160405180910390a45050565b61274384848461214d565b61274f84848484612bc7565b6127a4576040517f08c379a0000000000000000000000000000000000000000000000000000000008152600401808060200182810382526032815260200180613bd76032913960400191505060405180910390fd5b50505050565b606060008214156127f2576040518060400160405280600181526020017f300000000000000000000000000000000000000000000000000000000000000081525090506128ec565b600082905060005b6000821461281c578080600101915050600a828161281457fe5b0491506127fa565b60008167ffffffffffffffff8111801561283557600080fd5b506040519080825280601f01601f1916602001820160405280156128685781602001600182028036833780820191505090505b50905060006001830390508593505b600084146128e457600a848161288957fe5b0660300160f81b828280600190039350815181106128a357fe5b60200101907effffffffffffffffffffffffffffffffffffffffffffffffffffffffffffff1916908160001a905350600a84816128dc57fe5b049350612877565b819450505050505b919050565b6000612903836000018360001b612de0565b905092915050565b600081600001805490509050919050565b505050565b6000612933836000018360001b612e03565b905092915050565b600061294d836000018360001b612eeb565b905092915050565b6000612981846000018460001b8473ffffffffffffffffffffffffffffffffffffffff1660001b612f5b565b90509392505050565b600061299c836000018360001b613037565b905092915050565b600081836000018054905011612a05576040517f08c379a0000000000000000000000000000000000000000000000000000000008152600401808060200182810382526022815260200180613bb56022913960400191505060405180910390fd5b826000018281548110612a1457fe5b9060005260206000200154905092915050565b60008082846000018054905011612a89576040517f08c379a0000000000000000000000000000000000000000000000000000000008152600401808060200182810382526022815260200180613d306022913960400191505060405180910390fd5b6000846000018481548110612a9a57fe5b906000526020600020906002020190508060000154816001015492509250509250929050565b60008084600101600085815260200190815260200160002054905060008114158390612b87576040517f08c379a00000000000000000000000000000000000000000000000000000000081526004018080602001828103825283818151815260200191508051906020019080838360005b83811015612b4c578082015181840152602081019050612b31565b50505050905090810190601f168015612b795780820380516001836020036101000a031916815260200191505b509250505060405180910390fd5b50846000016001820381548110612b9a57fe5b9060005260206000209060020201600101549150509392505050565b600081600001805490509050919050565b6000612be88473ffffffffffffffffffffffffffffffffffffffff16613150565b612bf55760019050612dd8565b6000612d5f63150b7a0260e01b612c0a611f83565b888787604051602401808573ffffffffffffffffffffffffffffffffffffffff1681526020018473ffffffffffffffffffffffffffffffffffffffff16815260200183815260200180602001828103825283818151815260200191508051906020019080838360005b83811015612c8e578082015181840152602081019050612c73565b50505050905090810190601f168015612cbb5780820380516001836020036101000a031916815260200191505b5095505050505050604051602081830303815290604052907bffffffffffffffffffffffffffffffffffffffffffffffffffffffff19166020820180517bffffffffffffffffffffffffffffffffffffffffffffffffffffffff8381831617835250505050604051806060016040528060328152602001613bd7603291398773ffffffffffffffffffffffffffffffffffffffff166131639092919063ffffffff16565b90506000818060200190516020811015612d7857600080fd5b8101908080519060200190929190505050905063150b7a0260e01b7bffffffffffffffffffffffffffffffffffffffffffffffffffffffff1916817bffffffffffffffffffffffffffffffffffffffffffffffffffffffff191614925050505b949350505050565b600080836001016000848152602001908152602001600020541415905092915050565b60008083600101600084815260200190815260200160002054905060008114612edf5760006001820390506000600186600001805490500390506000866000018281548110612e4e57fe5b9060005260206000200154905080876000018481548110612e6b57fe5b9060005260206000200181905550600183018760010160008381526020019081526020016000208190555086600001805480612ea357fe5b60019003818190600052602060002001600090559055866001016000878152602001908152602001600020600090556001945050505050612ee5565b60009150505b92915050565b6000612ef7838361317b565b612f50578260000182908060018154018082558091505060019003906000526020600020016000909190919091505582600001805490508360010160008481526020019081526020016000208190555060019050612f55565b600090505b92915050565b600080846001016000858152602001908152602001600020549050600081141561300257846000016040518060400160405280868152602001858152509080600181540180825580915050600190039060005260206000209060020201600090919091909150600082015181600001556020820151816001015550508460000180549050856001016000868152602001908152602001600020819055506001915050613030565b8285600001600183038154811061301557fe5b90600052602060002090600202016001018190555060009150505b9392505050565b60008083600101600084815260200190815260200160002054905060008114613144576000600182039050600060018660000180549050039050600086600001828154811061308257fe5b90600052602060002090600202019050808760000184815481106130a257fe5b90600052602060002090600202016000820154816000015560018201548160010155905050600183018760010160008360000154815260200190815260200160002081905550866000018054806130f557fe5b600190038181906000526020600020906002020160008082016000905560018201600090555050905586600101600087815260200190815260200160002060009055600194505050505061314a565b60009150505b92915050565b600080823b905060008111915050919050565b6060613172848460008561319e565b90509392505050565b600080836001016000848152602001908152602001600020541415905092915050565b6060824710156131f9576040517f08c379a0000000000000000000000000000000000000000000000000000000008152600401808060200182810382526026815260200180613c536026913960400191505060405180910390fd5b61320285613150565b613274576040517f08c379a000000000000000000000000000000000000000000000000000000000815260040180806020018281038252601d8152602001807f416464726573733a2063616c6c20746f206e6f6e2d636f6e747261637400000081525060200191505060405180910390fd5b6000808673ffffffffffffffffffffffffffffffffffffffff1685876040518082805190602001908083835b602083106132c357805182526020820191506020810190506020830392506132a0565b6001836020036101000a03801982511681845116808217855250505050505090500191505060006040518083038185875af1925050503d8060008114613325576040519150601f19603f3d011682016040523d82523d6000602084013e61332a565b606091505b509150915061333a828286613346565b92505050949350505050565b606083156133565782905061340b565b6000835111156133695782518084602001fd5b816040517f08c379a00000000000000000000000000000000000000000000000000000000081526004018080602001828103825283818151815260200191508051906020019080838360005b838110156133d05780820151818401526020810190506133b5565b50505050905090810190601f1680156133fd5780820380516001836020036101000a031916815260200191505b509250505060405180910390fd5b9392505050565b6040518060600160405280600073ffffffffffffffffffffffffffffffffffffffff16815260200160008152602001600081525090565b50805460018160011615610100020316600290046000825580601f1061346f575061348e565b601f01602090049060005260206000209081019061348d9190613491565b5b50565b5b808211156134aa576000816000905550600101613492565b5090565b60006134c16134bc84613a43565b613a12565b9050828152602081018484840111156134d957600080fd5b6134e4848285613b03565b509392505050565b6000813590506134fb81613b58565b92915050565b60008151905061351081613b58565b92915050565b60008135905061352581613b6f565b92915050565b60008135905061353a81613b86565b92915050565b600082601f83011261355157600080fd5b81356135618482602086016134ae565b91505092915050565b60008135905061357981613b9d565b92915050565b60006020828403121561359157600080fd5b600061359f848285016134ec565b91505092915050565b6000602082840312156135ba57600080fd5b60006135c884828501613501565b91505092915050565b600080604083850312156135e457600080fd5b60006135f2858286016134ec565b9250506020613603858286016134ec565b9150509250929050565b60008060006060848603121561362257600080fd5b6000613630868287016134ec565b9350506020613641868287016134ec565b92505060406136528682870161356a565b9150509250925092565b6000806000806080858703121561367257600080fd5b6000613680878288016134ec565b9450506020613691878288016134ec565b93505060406136a28782880161356a565b925050606085013567ffffffffffffffff8111156136bf57600080fd5b6136cb87828801613540565b91505092959194509250565b600080604083850312156136ea57600080fd5b60006136f8858286016134ec565b925050602061370985828601613516565b9150509250929050565b6000806040838503121561372657600080fd5b6000613734858286016134ec565b92505060206137458582860161356a565b9150509250929050565b60006020828403121561376157600080fd5b600061376f8482850161352b565b91505092915050565b60006020828403121561378a57600080fd5b60006137988482850161356a565b91505092915050565b6137aa81613a8f565b82525050565b6137b981613a8f565b82525050565b6137c881613aa1565b82525050565b60006137d982613a73565b6137e38185613a7e565b93506137f3818560208601613b12565b6137fc81613b47565b840191505092915050565b6000613814603283613a7e565b91507f537570655261726556323a204e6f7420746865204f776e6572206f662074686560008301527f205375706552617265563120546f6b656e2100000000000000000000000000006020830152604082019050919050565b600061387a601183613a7e565b91507f4445504f534954535f44495341424c45440000000000000000000000000000006000830152602082019050919050565b6060820160008201516138c360008501826137a1565b5060208201516138d660208501826138ef565b5060408201516138e960408501826138ef565b50505050565b6138f881613af9565b82525050565b61390781613af9565b82525050565b600060208201905061392260008301846137b0565b92915050565b600060608201905061393d60008301866137b0565b61394a60208301856138fe565b61395760408301846138fe565b949350505050565b600060208201905061397460008301846137bf565b92915050565b6000602082019050818103600083015261399481846137ce565b905092915050565b600060208201905081810360008301526139b581613807565b9050919050565b600060208201905081810360008301526139d58161386d565b9050919050565b60006060820190506139f160008301846138ad565b92915050565b6000602082019050613a0c60008301846138fe565b92915050565b6000604051905081810181811067ffffffffffffffff82111715613a3957613a38613b45565b5b8060405250919050565b600067ffffffffffffffff821115613a5e57613a5d613b45565b5b601f19601f8301169050602081019050919050565b600081519050919050565b600082825260208201905092915050565b6000613a9a82613ad9565b9050919050565b60008115159050919050565b60007fffffffff0000000000000000000000000000000000000000000000000000000082169050919050565b600073ffffffffffffffffffffffffffffffffffffffff82169050919050565b6000819050919050565b82818337600083830152505050565b60005b83811015613b30578082015181840152602081019050613b15565b83811115613b3f576000848401525b50505050565bfe5b6000601f19601f8301169050919050565b613b6181613a8f565b8114613b6c57600080fd5b50565b613b7881613aa1565b8114613b8357600080fd5b50565b613b8f81613aad565b8114613b9a57600080fd5b50565b613ba681613af9565b8114613bb157600080fd5b5056fe456e756d657261626c655365743a20696e646578206f7574206f6620626f756e64734552433732313a207472616e7366657220746f206e6f6e20455243373231526563656976657220696d706c656d656e7465724f776e61626c653a206e6577206f776e657220697320746865207a65726f20616464726573734552433732313a207472616e7366657220746f20746865207a65726f2061646472657373416464726573733a20696e73756666696369656e742062616c616e636520666f722063616c6c4552433732313a206f70657261746f7220717565727920666f72206e6f6e6578697374656e7420746f6b656e4552433732313a20617070726f76652063616c6c6572206973206e6f74206f776e6572206e6f7220617070726f76656420666f7220616c6c4552433732313a2062616c616e636520717565727920666f7220746865207a65726f20616464726573734552433732313a206f776e657220717565727920666f72206e6f6e6578697374656e7420746f6b656e456e756d657261626c654d61703a20696e646578206f7574206f6620626f756e64734552433732313a20617070726f76656420717565727920666f72206e6f6e6578697374656e7420746f6b656e4552433732313a207472616e73666572206f6620746f6b656e2074686174206973206e6f74206f776e4552433732314d657461646174613a2055524920717565727920666f72206e6f6e6578697374656e7420746f6b656e4552433732313a20617070726f76616c20746f2063757272656e74206f776e65724552433732313a207472616e736665722063616c6c6572206973206e6f74206f776e6572206e6f7220617070726f766564a2646970667358221220f87d0607d2642f6c7e21f152e360f5dc3166c5a80f309c6adb6e5fcfa7190c2364736f6c63430007060033",
  "linkReferences": {},
  "deployedLinkReferences": {}
}