{
  "_format": "hh-sol-artifact-1",
  "contractName": "SupeRareV2",
  "sourceName": "contracts/SupeRareV2.sol",
  "abi": [
    {
      "inputs": [
        {
          "internalType": "address",
          "name": "OriginalSupeRareAddr__",
          "type": "address"
        }
      ],
      "stateMutability": "nonpayable",
      "type": "constructor"
    },
    {
      "anonymous": false,
      "inputs": [
        {
          "indexed": true,
          "internalType": "address",
          "name": "owner",
          "type": "address"
        },
        {
          "indexed": true,
          "internalType": "address",
          "name": "approved",
          "type": "address"
        },
        {
          "indexed": true,
          "internalType": "uint256",
          "name": "tokenId",
          "type": "uint256"
        }
      ],
      "name": "Approval",
      "type": "event"
    },
    {
      "anonymous": false,
      "inputs": [
        {
          "indexed": true,
          "internalType": "address",
          "name": "owner",
          "type": "address"
        },
        {
          "indexed": true,
          "internalType": "address",
          "name": "operator",
          "type": "address"
        },
        {
          "indexed": false,
          "internalType": "bool",
          "name": "approved",
          "type": "bool"
        }
      ],
      "name": "ApprovalForAll",
      "type": "event"
    },
    {
      "anonymous": false,
      "inputs": [
        {
          "indexed": false,
          "internalType": "string",
          "name": "_baseURI",
          "type": "string"
        }
      ],
      "name": "BaseURISet",
      "type": "event"
    },
    {
      "anonymous": false,
      "inputs": [
        {
          "indexed": true,
          "internalType": "address",
          "name": "v1owner",
          "type": "address"
        },
        {
          "indexed": true,
          "internalType": "uint256",
          "name": "v2tokenId",
          "type": "uint256"
        }
      ],
      "name": "MintV2",
      "type": "event"
    },
    {
      "anonymous": false,
      "inputs": [
        {
          "indexed": true,
          "internalType": "address",
          "name": "v1owner",
          "type": "address"
        },
        {
          "indexed": true,
          "internalType": "uint256",
          "name": "v1tokenId",
          "type": "uint256"
        }
      ],
      "name": "OwnerWhitelisted",
      "type": "event"
    },
    {
      "anonymous": false,
      "inputs": [
        {
          "indexed": true,
          "internalType": "address",
          "name": "previousOwner",
          "type": "address"
        },
        {
          "indexed": true,
          "internalType": "address",
          "name": "newOwner",
          "type": "address"
        }
      ],
      "name": "OwnershipTransferred",
      "type": "event"
    },
    {
      "anonymous": false,
      "inputs": [
        {
          "indexed": true,
          "internalType": "uint256",
          "name": "v1tokenId",
          "type": "uint256"
        }
      ],
      "name": "Pegged",
      "type": "event"
    },
    {
      "anonymous": false,
      "inputs": [
        {
          "indexed": false,
          "internalType": "uint256",
          "name": "_tokenId",
          "type": "uint256"
        },
        {
          "indexed": false,
          "internalType": "string",
          "name": "_tokenURI",
          "type": "string"
        }
      ],
      "name": "TokenURISet",
      "type": "event"
    },
    {
      "anonymous": false,
      "inputs": [
        {
          "indexed": true,
          "internalType": "address",
          "name": "from",
          "type": "address"
        },
        {
          "indexed": true,
          "internalType": "address",
          "name": "to",
          "type": "address"
        },
        {
          "indexed": true,
          "internalType": "uint256",
          "name": "tokenId",
          "type": "uint256"
        }
      ],
      "name": "Transfer",
      "type": "event"
    },
    {
      "anonymous": false,
      "inputs": [
        {
          "indexed": true,
          "internalType": "address",
          "name": "v2owner",
          "type": "address"
        },
        {
          "indexed": true,
          "internalType": "uint256",
          "name": "v2tokenId",
          "type": "uint256"
        }
      ],
      "name": "WithdrawV1",
      "type": "event"
    },
    {
      "inputs": [
        {
          "internalType": "address",
          "name": "to",
          "type": "address"
        },
        {
          "internalType": "uint256",
          "name": "tokenId",
          "type": "uint256"
        }
      ],
      "name": "approve",
      "outputs": [],
      "stateMutability": "nonpayable",
      "type": "function"
    },
    {
      "inputs": [
        {
          "internalType": "address",
          "name": "owner",
          "type": "address"
        }
      ],
      "name": "balanceOf",
      "outputs": [
        {
          "internalType": "uint256",
          "name": "",
          "type": "uint256"
        }
      ],
      "stateMutability": "view",
      "type": "function"
    },
    {
      "inputs": [],
      "name": "baseURI",
      "outputs": [
        {
          "internalType": "string",
          "name": "",
          "type": "string"
        }
      ],
      "stateMutability": "view",
      "type": "function"
    },
    {
      "inputs": [
        {
          "internalType": "uint256",
          "name": "_v1TokenId",
          "type": "uint256"
        }
      ],
      "name": "getAddedToWhitelist",
      "outputs": [
        {
          "internalType": "bool",
          "name": "",
          "type": "bool"
        }
      ],
      "stateMutability": "nonpayable",
      "type": "function"
    },
    {
      "inputs": [
        {
          "internalType": "uint256",
          "name": "tokenId",
          "type": "uint256"
        }
      ],
      "name": "getApproved",
      "outputs": [
        {
          "internalType": "address",
          "name": "",
          "type": "address"
        }
      ],
      "stateMutability": "view",
      "type": "function"
    },
    {
      "inputs": [],
      "name": "getSupeRareAddress",
      "outputs": [
        {
          "internalType": "address",
          "name": "",
          "type": "address"
        }
      ],
      "stateMutability": "view",
      "type": "function"
    },
    {
      "inputs": [
        {
          "internalType": "address",
          "name": "owner",
          "type": "address"
        },
        {
          "internalType": "address",
          "name": "operator",
          "type": "address"
        }
      ],
      "name": "isApprovedForAll",
      "outputs": [
        {
          "internalType": "bool",
          "name": "",
          "type": "bool"
        }
      ],
      "stateMutability": "view",
      "type": "function"
    },
    {
      "inputs": [
        {
          "internalType": "uint256",
          "name": "_tokenId",
          "type": "uint256"
        }
      ],
      "name": "isPegged",
      "outputs": [
        {
          "internalType": "bool",
          "name": "",
          "type": "bool"
        }
      ],
      "stateMutability": "view",
      "type": "function"
    },
    {
      "inputs": [
        {
          "internalType": "uint256",
          "name": "_tokenId",
          "type": "uint256"
        }
      ],
      "name": "mintV2",
      "outputs": [
        {
          "internalType": "bool",
          "name": "",
          "type": "bool"
        }
      ],
      "stateMutability": "nonpayable",
      "type": "function"
    },
    {
      "inputs": [],
      "name": "name",
      "outputs": [
        {
          "internalType": "string",
          "name": "",
          "type": "string"
        }
      ],
      "stateMutability": "view",
      "type": "function"
    },
    {
      "inputs": [
        {
          "internalType": "address",
          "name": "",
          "type": "address"
        },
        {
          "internalType": "address",
          "name": "",
          "type": "address"
        },
        {
          "internalType": "uint256",
          "name": "",
          "type": "uint256"
        },
        {
          "internalType": "bytes",
          "name": "",
          "type": "bytes"
        }
      ],
      "name": "onERC721Received",
      "outputs": [
        {
          "internalType": "bytes4",
          "name": "",
          "type": "bytes4"
        }
      ],
      "stateMutability": "view",
      "type": "function"
    },
    {
      "inputs": [],
      "name": "owner",
      "outputs": [
        {
          "internalType": "address",
          "name": "",
          "type": "address"
        }
      ],
      "stateMutability": "view",
      "type": "function"
    },
    {
      "inputs": [
        {
          "internalType": "address",
          "name": "",
          "type": "address"
        },
        {
          "internalType": "uint256",
          "name": "",
          "type": "uint256"
        }
      ],
      "name": "ownerAddrToV1toV2TokenId",
      "outputs": [
        {
          "internalType": "uint256",
          "name": "",
          "type": "uint256"
        }
      ],
      "stateMutability": "view",
      "type": "function"
    },
    {
      "inputs": [
        {
          "internalType": "uint256",
          "name": "tokenId",
          "type": "uint256"
        }
      ],
      "name": "ownerOf",
      "outputs": [
        {
          "internalType": "address",
          "name": "",
          "type": "address"
        }
      ],
      "stateMutability": "view",
      "type": "function"
    },
    {
      "inputs": [
        {
          "internalType": "uint256",
          "name": "",
          "type": "uint256"
        }
      ],
      "name": "ownerWhiteList",
      "outputs": [
        {
          "internalType": "address",
          "name": "",
          "type": "address"
        }
      ],
      "stateMutability": "view",
      "type": "function"
    },
    {
      "inputs": [],
      "name": "renounceOwnership",
      "outputs": [],
      "stateMutability": "nonpayable",
      "type": "function"
    },
    {
      "inputs": [
        {
          "internalType": "address",
          "name": "from",
          "type": "address"
        },
        {
          "internalType": "address",
          "name": "to",
          "type": "address"
        },
        {
          "internalType": "uint256",
          "name": "tokenId",
          "type": "uint256"
        }
      ],
      "name": "safeTransferFrom",
      "outputs": [],
      "stateMutability": "nonpayable",
      "type": "function"
    },
    {
      "inputs": [
        {
          "internalType": "address",
          "name": "from",
          "type": "address"
        },
        {
          "internalType": "address",
          "name": "to",
          "type": "address"
        },
        {
          "internalType": "uint256",
          "name": "tokenId",
          "type": "uint256"
        },
        {
          "internalType": "bytes",
          "name": "_data",
          "type": "bytes"
        }
      ],
      "name": "safeTransferFrom",
      "outputs": [],
      "stateMutability": "nonpayable",
      "type": "function"
    },
    {
      "inputs": [
        {
          "internalType": "address",
          "name": "operator",
          "type": "address"
        },
        {
          "internalType": "bool",
          "name": "approved",
          "type": "bool"
        }
      ],
      "name": "setApprovalForAll",
      "outputs": [],
      "stateMutability": "nonpayable",
      "type": "function"
    },
    {
      "inputs": [
        {
          "internalType": "string",
          "name": "baseURI",
          "type": "string"
        }
      ],
      "name": "setBaseURI",
      "outputs": [
        {
          "internalType": "bool",
          "name": "",
          "type": "bool"
        }
      ],
      "stateMutability": "nonpayable",
      "type": "function"
    },
    {
      "inputs": [
        {
          "internalType": "uint256",
          "name": "_tokenId",
          "type": "uint256"
        },
        {
          "internalType": "string",
          "name": "_tokenURI",
          "type": "string"
        }
      ],
      "name": "setTokenURI",
      "outputs": [
        {
          "internalType": "bool",
          "name": "",
          "type": "bool"
        }
      ],
      "stateMutability": "nonpayable",
      "type": "function"
    },
    {
      "inputs": [
        {
          "internalType": "bytes4",
          "name": "interfaceId",
          "type": "bytes4"
        }
      ],
      "name": "supportsInterface",
      "outputs": [
        {
          "internalType": "bool",
          "name": "",
          "type": "bool"
        }
      ],
      "stateMutability": "view",
      "type": "function"
    },
    {
      "inputs": [],
      "name": "symbol",
      "outputs": [
        {
          "internalType": "string",
          "name": "",
          "type": "string"
        }
      ],
      "stateMutability": "view",
      "type": "function"
    },
    {
      "inputs": [
        {
          "internalType": "uint256",
          "name": "index",
          "type": "uint256"
        }
      ],
      "name": "tokenByIndex",
      "outputs": [
        {
          "internalType": "uint256",
          "name": "",
          "type": "uint256"
        }
      ],
      "stateMutability": "view",
      "type": "function"
    },
    {
      "inputs": [
        {
          "internalType": "address",
          "name": "owner",
          "type": "address"
        },
        {
          "internalType": "uint256",
          "name": "index",
          "type": "uint256"
        }
      ],
      "name": "tokenOfOwnerByIndex",
      "outputs": [
        {
          "internalType": "uint256",
          "name": "",
          "type": "uint256"
        }
      ],
      "stateMutability": "view",
      "type": "function"
    },
    {
      "inputs": [
        {
          "internalType": "uint256",
          "name": "tokenId",
          "type": "uint256"
        }
      ],
      "name": "tokenURI",
      "outputs": [
        {
          "internalType": "string",
          "name": "",
          "type": "string"
        }
      ],
      "stateMutability": "view",
      "type": "function"
    },
    {
      "inputs": [],
      "name": "totalSupply",
      "outputs": [
        {
          "internalType": "uint256",
          "name": "",
          "type": "uint256"
        }
      ],
      "stateMutability": "view",
      "type": "function"
    },
    {
      "inputs": [
        {
          "internalType": "address",
          "name": "from",
          "type": "address"
        },
        {
          "internalType": "address",
          "name": "to",
          "type": "address"
        },
        {
          "internalType": "uint256",
          "name": "tokenId",
          "type": "uint256"
        }
      ],
      "name": "transferFrom",
      "outputs": [],
      "stateMutability": "nonpayable",
      "type": "function"
    },
    {
      "inputs": [
        {
          "internalType": "address",
          "name": "newOwner",
          "type": "address"
        }
      ],
      "name": "transferOwnership",
      "outputs": [],
      "stateMutability": "nonpayable",
      "type": "function"
    },
    {
      "inputs": [
        {
          "internalType": "uint256",
          "name": "_tokenId",
          "type": "uint256"
        }
      ],
      "name": "withdraw",
      "outputs": [
        {
          "internalType": "bool",
          "name": "",
          "type": "bool"
        }
      ],
      "stateMutability": "nonpayable",
      "type": "function"
    }
  ],
  "bytecode": "0x60806040526040518060400160405280600881526020017f5375706552617265000000000000000000000000000000000000000000000000815250600e90805190602001906200005192919062000559565b506040518060400160405280600481526020017f5355505200000000000000000000000000000000000000000000000000000000815250600f90805190602001906200009f92919062000559565b50348015620000ad57600080fd5b506040516200517d3803806200517d8339818101604052810190620000d3919062000626565b600e8054600181600116156101000203166002900480601f0160208091040260200160405190810160405280929190818152602001828054600181600116156101000203166002900480156200016d5780601f1062000141576101008083540402835291602001916200016d565b820191906000526020600020905b8154815290600101906020018083116200014f57829003601f168201915b5050505050600f8054600181600116156101000203166002900480601f0160208091040260200160405190810160405280929190818152602001828054600181600116156101000203166002900480156200020c5780601f10620001e0576101008083540402835291602001916200020c565b820191906000526020600020905b815481529060010190602001808311620001ee57829003601f168201915b50505050506000620002236200044860201b60201c565b9050806000806101000a81548173ffffffffffffffffffffffffffffffffffffffff021916908373ffffffffffffffffffffffffffffffffffffffff1602179055508073ffffffffffffffffffffffffffffffffffffffff16600073ffffffffffffffffffffffffffffffffffffffff167f8be0079c531659141344cd1fd0a4f28419497f9722a3daafe3b4186f6b6457e060405160405180910390a350620002d96301ffc9a760e01b6200045060201b60201c565b8160079080519060200190620002f192919062000559565b5080600890805190602001906200030a92919062000559565b50620003236380ac58cd60e01b6200045060201b60201c565b6200033b635b5e139f60e01b6200045060201b60201c565b6200035363780e9d6360e01b6200045060201b60201c565b505080600b60006101000a81548173ffffffffffffffffffffffffffffffffffffffff021916908373ffffffffffffffffffffffffffffffffffffffff160217905550600b60009054906101000a900473ffffffffffffffffffffffffffffffffffffffff16600c60006101000a81548173ffffffffffffffffffffffffffffffffffffffff021916908373ffffffffffffffffffffffffffffffffffffffff160217905550620004116380ac58cd60e01b6200045060201b60201c565b62000429635b5e139f60e01b6200045060201b60201c565b6200044163780e9d6360e01b6200045060201b60201c565b50620006a0565b600033905090565b63ffffffff60e01b817bffffffffffffffffffffffffffffffffffffffffffffffffffffffff19161415620004ed576040517f08c379a000000000000000000000000000000000000000000000000000000000815260040180806020018281038252601c8152602001807f4552433136353a20696e76616c696420696e746572666163652069640000000081525060200191505060405180910390fd5b6001806000837bffffffffffffffffffffffffffffffffffffffffffffffffffffffff19167bffffffffffffffffffffffffffffffffffffffffffffffffffffffff1916815260200190815260200160002060006101000a81548160ff02191690831515021790555050565b828054600181600116156101000203166002900490600052602060002090601f016020900481019282620005915760008555620005dd565b82601f10620005ac57805160ff1916838001178555620005dd565b82800160010185558215620005dd579182015b82811115620005dc578251825591602001919060010190620005bf565b5b509050620005ec9190620005f0565b5090565b5b808211156200060b576000816000905550600101620005f1565b5090565b600081519050620006208162000686565b92915050565b6000602082840312156200063957600080fd5b600062000649848285016200060f565b91505092915050565b60006200065f8262000666565b9050919050565b600073ffffffffffffffffffffffffffffffffffffffff82169050919050565b620006918162000652565b81146200069d57600080fd5b50565b614acd80620006b06000396000f3fe608060405234801561001057600080fd5b50600436106101da5760003560e01c806360008943116101045780638da5cb5b116100a2578063c87b56dd11610071578063c87b56dd146105c9578063e985e9c5146105f9578063f2fde38b14610629578063fcb217b514610645576101da565b80638da5cb5b1461055557806395d89b4114610573578063a22cb46514610591578063b88d4fde146105ad576101da565b80636c0e6754116100de5780636c0e6754146104bb57806370a08231146104eb578063715018a61461051b57806387d45d0114610525576101da565b8063600089431461043d5780636352211e1461046d5780636c0360eb1461049d576101da565b806318160ddd1161017c578063364647891161014b57806336464789146103a357806342842e0e146103c15780634f6ccce7146103dd57806355f804b31461040d576101da565b806318160ddd1461030957806323b872dd146103275780632e1a7d4d146103435780632f745c5914610373576101da565b8063081812fc116101b8578063081812fc1461025d578063095ea7b31461028d578063150b7a02146102a9578063162094c4146102d9576101da565b806301ffc9a7146101df57806306fdde031461020f57806307e485481461022d575b600080fd5b6101f960048036038101906101f49190613dc6565b610675565b6040516102069190614415565b60405180910390f35b6102176106dd565b604051610224919061446f565b60405180910390f35b61024760048036038101906102429190613e75565b61077f565b6040516102549190614415565b60405180910390f35b61027760048036038101906102729190613e75565b6107a9565b60405161028491906143d1565b60405180910390f35b6102a760048036038101906102a29190613d8a565b610844565b005b6102c360048036038101906102be9190613cd3565b610988565b6040516102d09190614430565b60405180910390f35b6102f360048036038101906102ee9190613e9e565b6109ac565b6040516103009190614415565b60405180910390f35b610311610af1565b60405161031e91906145b1565b60405180910390f35b610341600480360381019061033c9190613c84565b610b02565b005b61035d60048036038101906103589190613e75565b610b78565b60405161036a9190614415565b60405180910390f35b61038d60048036038101906103889190613d8a565b610ec1565b60405161039a91906145b1565b60405180910390f35b6103ab610f1c565b6040516103b891906143d1565b60405180910390f35b6103db60048036038101906103d69190613c84565b610f46565b005b6103f760048036038101906103f29190613e75565b610f66565b60405161040491906145b1565b60405180910390f35b61042760048036038101906104229190613def565b610f89565b6040516104349190614415565b60405180910390f35b61045760048036038101906104529190613e75565b6110ca565b60405161046491906143d1565b60405180910390f35b61048760048036038101906104829190613e75565b6110fd565b60405161049491906143d1565b60405180910390f35b6104a5611134565b6040516104b2919061446f565b60405180910390f35b6104d560048036038101906104d09190613d8a565b6111d6565b6040516104e291906145b1565b60405180910390f35b61050560048036038101906105009190613bf6565b6111fb565b60405161051291906145b1565b60405180910390f35b6105236112d0565b005b61053f600480360381019061053a9190613e75565b61143d565b60405161054c9190614415565b60405180910390f35b61055d61167b565b60405161056a91906143d1565b60405180910390f35b61057b6116a4565b604051610588919061446f565b60405180910390f35b6105ab60048036038101906105a69190613d4e565b611746565b005b6105c760048036038101906105c29190613cd3565b6118fc565b005b6105e360048036038101906105de9190613e75565b611974565b6040516105f0919061446f565b60405180910390f35b610613600480360381019061060e9190613c48565b611c45565b6040516106209190614415565b60405180910390f35b610643600480360381019061063e9190613bf6565b611cd9565b005b61065f600480360381019061065a9190613e75565b611ecb565b60405161066c9190614415565b60405180910390f35b600060016000837bffffffffffffffffffffffffffffffffffffffffffffffffffffffff19167bffffffffffffffffffffffffffffffffffffffffffffffffffffffff1916815260200190815260200160002060009054906101000a900460ff169050919050565b606060078054600181600116156101000203166002900480601f0160208091040260200160405190810160405280929190818152602001828054600181600116156101000203166002900480156107755780601f1061074a57610100808354040283529160200191610775565b820191906000526020600020905b81548152906001019060200180831161075857829003601f168201915b5050505050905090565b60006012600083815260200190815260200160002060009054906101000a900460ff169050919050565b60006107b482612144565b610809576040517f08c379a000000000000000000000000000000000000000000000000000000000815260040180806020018281038252602c815260200180614996602c913960400191505060405180910390fd5b6005600083815260200190815260200160002060009054906101000a900473ffffffffffffffffffffffffffffffffffffffff169050919050565b600061084f826110fd565b90508073ffffffffffffffffffffffffffffffffffffffff168373ffffffffffffffffffffffffffffffffffffffff1614156108d6576040517f08c379a0000000000000000000000000000000000000000000000000000000008152600401808060200182810382526021815260200180614a466021913960400191505060405180910390fd5b8073ffffffffffffffffffffffffffffffffffffffff166108f5612161565b73ffffffffffffffffffffffffffffffffffffffff16148061092457506109238161091e612161565b611c45565b5b610979576040517f08c379a00000000000000000000000000000000000000000000000000000000081526004018080602001828103825260388152602001806148e96038913960400191505060405180910390fd5b6109838383612169565b505050565b600061099a63150b7a0260e01b612222565b63150b7a0260e01b9050949350505050565b60006109b6612161565b73ffffffffffffffffffffffffffffffffffffffff166109d461167b565b73ffffffffffffffffffffffffffffffffffffffff1614610a5d576040517f08c379a00000000000000000000000000000000000000000000000000000000081526004018080602001828103825260208152602001807f4f776e61626c653a2063616c6c6572206973206e6f7420746865206f776e657281525060200191505060405180910390fd5b610aab8484848080601f016020809104026020016040519081016040528093929190818152602001838380828437600081840152601f19601f820116905080830192505050505050506122da565b7fda84ca2183491f179a603e877b2cb058e42195041c2b9c53d746427e519a34df848484604051610ade939291906145cc565b60405180910390a1600190509392505050565b6000610afd6003612364565b905090565b610b13610b0d612161565b82612379565b610b68576040517f08c379a0000000000000000000000000000000000000000000000000000000008152600401808060200182810382526031815260200180614a676031913960400191505060405180910390fd5b610b7383838361246d565b505050565b600081610b83612161565b73ffffffffffffffffffffffffffffffffffffffff16610ba2826110fd565b73ffffffffffffffffffffffffffffffffffffffff1614610bf8576040517f08c379a0000000000000000000000000000000000000000000000000000000008152600401610bef90614531565b60405180910390fd5b826012600082815260200190815260200160002060009054906101000a900460ff16610c59576040517f08c379a0000000000000000000000000000000000000000000000000000000008152600401610c5090614491565b60405180910390fd5b600073ffffffffffffffffffffffffffffffffffffffff16610c79612161565b73ffffffffffffffffffffffffffffffffffffffff161415610cd0576040517f08c379a0000000000000000000000000000000000000000000000000000000008152600401610cc790614511565b60405180910390fd5b610cd9846126b0565b6000600b60009054906101000a900473ffffffffffffffffffffffffffffffffffffffff1673ffffffffffffffffffffffffffffffffffffffff16610d1c612161565b86604051602401610d2e9291906143ec565b6040516020818303038152906040527fa9059cbb000000000000000000000000000000000000000000000000000000007bffffffffffffffffffffffffffffffffffffffffffffffffffffffff19166020820180517bffffffffffffffffffffffffffffffffffffffffffffffffffffffff8381831617835250505050604051610db891906143ba565b6000604051808303816000865af19150503d8060008114610df5576040519150601f19603f3d011682016040523d82523d6000602084013e610dfa565b606091505b5050905080610e3e576040517f08c379a0000000000000000000000000000000000000000000000000000000008152600401610e3590614591565b60405180910390fd5b60006012600087815260200190815260200160002060006101000a81548160ff02191690831515021790555084610e73612161565b73ffffffffffffffffffffffffffffffffffffffff167f137405ae38c6e13c1dae5b6f5d4eb90010220c7c552dcaccc7b9c038c0177af860405160405180910390a360019350505050919050565b6000610f1482600260008673ffffffffffffffffffffffffffffffffffffffff1673ffffffffffffffffffffffffffffffffffffffff1681526020019081526020016000206127ea90919063ffffffff16565b905092915050565b6000600b60009054906101000a900473ffffffffffffffffffffffffffffffffffffffff16905090565b610f61838383604051806020016040528060008152506118fc565b505050565b600080610f7d83600361280490919063ffffffff16565b50905080915050919050565b6000610f93612161565b73ffffffffffffffffffffffffffffffffffffffff16610fb161167b565b73ffffffffffffffffffffffffffffffffffffffff161461103a576040517f08c379a00000000000000000000000000000000000000000000000000000000081526004018080602001828103825260208152602001807f4f776e61626c653a2063616c6c6572206973206e6f7420746865206f776e657281525060200191505060405180910390fd5b61108783838080601f016020809104026020016040519081016040528093929190818152602001838380828437600081840152601f19601f82011690508083019250505050505050612830565b7ff9c7803e94e0d3c02900d8a90893a6d5e90dd04d32a4cfe825520f82bf9f32f683836040516110b892919061444b565b60405180910390a16001905092915050565b60116020528060005260406000206000915054906101000a900473ffffffffffffffffffffffffffffffffffffffff1681565b600061112d8260405180606001604052806029815260200161494b60299139600361284a9092919063ffffffff16565b9050919050565b6060600a8054600181600116156101000203166002900480601f0160208091040260200160405190810160405280929190818152602001828054600181600116156101000203166002900480156111cc5780601f106111a1576101008083540402835291602001916111cc565b820191906000526020600020905b8154815290600101906020018083116111af57829003601f168201915b5050505050905090565b6010602052816000526040600020602052806000526040600020600091509150505481565b60008073ffffffffffffffffffffffffffffffffffffffff168273ffffffffffffffffffffffffffffffffffffffff161415611282576040517f08c379a000000000000000000000000000000000000000000000000000000000815260040180806020018281038252602a815260200180614921602a913960400191505060405180910390fd5b6112c9600260008473ffffffffffffffffffffffffffffffffffffffff1673ffffffffffffffffffffffffffffffffffffffff168152602001908152602001600020612869565b9050919050565b6112d8612161565b73ffffffffffffffffffffffffffffffffffffffff166112f661167b565b73ffffffffffffffffffffffffffffffffffffffff161461137f576040517f08c379a00000000000000000000000000000000000000000000000000000000081526004018080602001828103825260208152602001807f4f776e61626c653a2063616c6c6572206973206e6f7420746865206f776e657281525060200191505060405180910390fd5b600073ffffffffffffffffffffffffffffffffffffffff1660008054906101000a900473ffffffffffffffffffffffffffffffffffffffff1673ffffffffffffffffffffffffffffffffffffffff167f8be0079c531659141344cd1fd0a4f28419497f9722a3daafe3b4186f6b6457e060405160405180910390a360008060006101000a81548173ffffffffffffffffffffffffffffffffffffffff021916908373ffffffffffffffffffffffffffffffffffffffff160217905550565b600081611448612161565b73ffffffffffffffffffffffffffffffffffffffff166011600083815260200190815260200160002060009054906101000a900473ffffffffffffffffffffffffffffffffffffffff1673ffffffffffffffffffffffffffffffffffffffff16146114e8576040517f08c379a00000000000000000000000000000000000000000000000000000000081526004016114df906144b1565b60405180910390fd5b6114f18361287e565b611530576040517f08c379a000000000000000000000000000000000000000000000000000000000815260040161152790614551565b60405180910390fd5b61154161153b612161565b846129fa565b6115fa83600c60009054906101000a900473ffffffffffffffffffffffffffffffffffffffff1673ffffffffffffffffffffffffffffffffffffffff1663c87b56dd866040518263ffffffff1660e01b81526004016115a091906145b1565b60006040518083038186803b1580156115b857600080fd5b505afa1580156115cc573d6000803e3d6000fd5b505050506040513d6000823e3d601f19601f820116820180604052508101906115f59190613e34565b6122da565b60016012600085815260200190815260200160002060006101000a81548160ff0219169083151502179055508261162f612161565b73ffffffffffffffffffffffffffffffffffffffff167f3c739b6a95f75f9e762038efa06f6758bbab40ef0b17f9f07cd3476eeac984e460405160405180910390a36001915050919050565b60008060009054906101000a900473ffffffffffffffffffffffffffffffffffffffff16905090565b606060088054600181600116156101000203166002900480601f01602080910402602001604051908101604052809291908181526020018280546001816001161561010002031660029004801561173c5780601f106117115761010080835404028352916020019161173c565b820191906000526020600020905b81548152906001019060200180831161171f57829003601f168201915b5050505050905090565b61174e612161565b73ffffffffffffffffffffffffffffffffffffffff168273ffffffffffffffffffffffffffffffffffffffff1614156117ef576040517f08c379a00000000000000000000000000000000000000000000000000000000081526004018080602001828103825260198152602001807f4552433732313a20617070726f766520746f2063616c6c65720000000000000081525060200191505060405180910390fd5b80600660006117fc612161565b73ffffffffffffffffffffffffffffffffffffffff1673ffffffffffffffffffffffffffffffffffffffff16815260200190815260200160002060008473ffffffffffffffffffffffffffffffffffffffff1673ffffffffffffffffffffffffffffffffffffffff16815260200190815260200160002060006101000a81548160ff0219169083151502179055508173ffffffffffffffffffffffffffffffffffffffff166118a9612161565b73ffffffffffffffffffffffffffffffffffffffff167f17307eab39ab6107e8899845ad3d59bd9653f200f220920489ca2b5937696c318360405180821515815260200191505060405180910390a35050565b61190d611907612161565b83612379565b611962576040517f08c379a0000000000000000000000000000000000000000000000000000000008152600401808060200182810382526031815260200180614a676031913960400191505060405180910390fd5b61196e84848484612a18565b50505050565b606061197f82612144565b6119d4576040517f08c379a000000000000000000000000000000000000000000000000000000000815260040180806020018281038252602f815260200180614a17602f913960400191505060405180910390fd5b6000600960008481526020019081526020016000208054600181600116156101000203166002900480601f016020809104026020016040519081016040528092919081815260200182805460018160011615610100020316600290048015611a7d5780601f10611a5257610100808354040283529160200191611a7d565b820191906000526020600020905b815481529060010190602001808311611a6057829003601f168201915b505050505090506000611a8e611134565b9050600081511415611aa4578192505050611c40565b600082511115611b755780826040516020018083805190602001908083835b60208310611ae65780518252602082019150602081019050602083039250611ac3565b6001836020036101000a03801982511681845116808217855250505050505090500182805190602001908083835b60208310611b375780518252602082019150602081019050602083039250611b14565b6001836020036101000a0380198251168184511680821785525050505050509050019250505060405160208183030381529060405292505050611c40565b80611b7f85612a8a565b6040516020018083805190602001908083835b60208310611bb55780518252602082019150602081019050602083039250611b92565b6001836020036101000a03801982511681845116808217855250505050505090500182805190602001908083835b60208310611c065780518252602082019150602081019050602083039250611be3565b6001836020036101000a03801982511681845116808217855250505050505090500192505050604051602081830303815290604052925050505b919050565b6000600660008473ffffffffffffffffffffffffffffffffffffffff1673ffffffffffffffffffffffffffffffffffffffff16815260200190815260200160002060008373ffffffffffffffffffffffffffffffffffffffff1673ffffffffffffffffffffffffffffffffffffffff16815260200190815260200160002060009054906101000a900460ff16905092915050565b611ce1612161565b73ffffffffffffffffffffffffffffffffffffffff16611cff61167b565b73ffffffffffffffffffffffffffffffffffffffff1614611d88576040517f08c379a00000000000000000000000000000000000000000000000000000000081526004018080602001828103825260208152602001807f4f776e61626c653a2063616c6c6572206973206e6f7420746865206f776e657281525060200191505060405180910390fd5b600073ffffffffffffffffffffffffffffffffffffffff168173ffffffffffffffffffffffffffffffffffffffff161415611e0e576040517f08c379a000000000000000000000000000000000000000000000000000000000815260040180806020018281038252602681526020018061484d6026913960400191505060405180910390fd5b8073ffffffffffffffffffffffffffffffffffffffff1660008054906101000a900473ffffffffffffffffffffffffffffffffffffffff1673ffffffffffffffffffffffffffffffffffffffff167f8be0079c531659141344cd1fd0a4f28419497f9722a3daafe3b4186f6b6457e060405160405180910390a3806000806101000a81548173ffffffffffffffffffffffffffffffffffffffff021916908373ffffffffffffffffffffffffffffffffffffffff16021790555050565b600081611ed6612161565b73ffffffffffffffffffffffffffffffffffffffff16600c60009054906101000a900473ffffffffffffffffffffffffffffffffffffffff1673ffffffffffffffffffffffffffffffffffffffff16636352211e836040518263ffffffff1660e01b8152600401611f4791906145b1565b60206040518083038186803b158015611f5f57600080fd5b505afa158015611f73573d6000803e3d6000fd5b505050506040513d601f19601f82011682018060405250810190611f979190613c1f565b73ffffffffffffffffffffffffffffffffffffffff1614611fed576040517f08c379a0000000000000000000000000000000000000000000000000000000008152600401611fe490614571565b60405180910390fd5b611ff5612161565b73ffffffffffffffffffffffffffffffffffffffff166011600085815260200190815260200160002060009054906101000a900473ffffffffffffffffffffffffffffffffffffffff1673ffffffffffffffffffffffffffffffffffffffff161415612096576040517f08c379a000000000000000000000000000000000000000000000000000000000815260040161208d906144d1565b60405180910390fd5b61209e612161565b6011600085815260200190815260200160002060006101000a81548173ffffffffffffffffffffffffffffffffffffffff021916908373ffffffffffffffffffffffffffffffffffffffff160217905550826120f8612161565b73ffffffffffffffffffffffffffffffffffffffff167ff848bf1cacffecd6b9722baff28810b3649ee23fc48863217c908cc260405c8860405160405180910390a36001915050919050565b600061215a826003612bd190919063ffffffff16565b9050919050565b600033905090565b816005600083815260200190815260200160002060006101000a81548173ffffffffffffffffffffffffffffffffffffffff021916908373ffffffffffffffffffffffffffffffffffffffff160217905550808273ffffffffffffffffffffffffffffffffffffffff166121dc836110fd565b73ffffffffffffffffffffffffffffffffffffffff167f8c5be1e5ebec7d5bd14f71427d1e84f3dd0314c0f7b2291e5b200ac8c7c3b92560405160405180910390a45050565b6122d78160405160240180827bffffffffffffffffffffffffffffffffffffffffffffffffffffffff191681526020019150506040516020818303038152906040527fe05f48d1000000000000000000000000000000000000000000000000000000007bffffffffffffffffffffffffffffffffffffffffffffffffffffffff19166020820180517bffffffffffffffffffffffffffffffffffffffffffffffffffffffff8381831617835250505050612beb565b50565b6122e382612144565b612338576040517f08c379a000000000000000000000000000000000000000000000000000000000815260040180806020018281038252602c8152602001806149c2602c913960400191505060405180910390fd5b8060096000848152602001908152602001600020908051906020019061235f929190613980565b505050565b600061237282600001612c14565b9050919050565b600061238482612144565b6123d9576040517f08c379a000000000000000000000000000000000000000000000000000000000815260040180806020018281038252602c8152602001806148bd602c913960400191505060405180910390fd5b60006123e4836110fd565b90508073ffffffffffffffffffffffffffffffffffffffff168473ffffffffffffffffffffffffffffffffffffffff16148061245357508373ffffffffffffffffffffffffffffffffffffffff1661243b846107a9565b73ffffffffffffffffffffffffffffffffffffffff16145b8061246457506124638185611c45565b5b91505092915050565b8273ffffffffffffffffffffffffffffffffffffffff1661248d826110fd565b73ffffffffffffffffffffffffffffffffffffffff16146124f9576040517f08c379a00000000000000000000000000000000000000000000000000000000081526004018080602001828103825260298152602001806149ee6029913960400191505060405180910390fd5b600073ffffffffffffffffffffffffffffffffffffffff168273ffffffffffffffffffffffffffffffffffffffff16141561257f576040517f08c379a00000000000000000000000000000000000000000000000000000000081526004018080602001828103825260248152602001806148736024913960400191505060405180910390fd5b61258a838383612c25565b612595600082612169565b6125e681600260008673ffffffffffffffffffffffffffffffffffffffff1673ffffffffffffffffffffffffffffffffffffffff168152602001908152602001600020612c2a90919063ffffffff16565b5061263881600260008573ffffffffffffffffffffffffffffffffffffffff1673ffffffffffffffffffffffffffffffffffffffff168152602001908152602001600020612c4490919063ffffffff16565b5061264f81836003612c5e9092919063ffffffff16565b50808273ffffffffffffffffffffffffffffffffffffffff168473ffffffffffffffffffffffffffffffffffffffff167fddf252ad1be2c89b69c2b068fc378daa952ba7f163c4a11628f55a4df523b3ef60405160405180910390a4505050565b60006126bb826110fd565b90506126c981600084612c25565b6126d4600083612169565b60006009600084815260200190815260200160002080546001816001161561010002031660029004905014612723576009600083815260200190815260200160002060006127229190613a0e565b5b61277482600260008473ffffffffffffffffffffffffffffffffffffffff1673ffffffffffffffffffffffffffffffffffffffff168152602001908152602001600020612c2a90919063ffffffff16565b50612789826003612c9390919063ffffffff16565b5081600073ffffffffffffffffffffffffffffffffffffffff168273ffffffffffffffffffffffffffffffffffffffff167fddf252ad1be2c89b69c2b068fc378daa952ba7f163c4a11628f55a4df523b3ef60405160405180910390a45050565b60006127f98360000183612cad565b60001c905092915050565b6000806000806128178660000186612d30565b915091508160001c8160001c9350935050509250929050565b80600a9080519060200190612846929190613980565b5050565b600061285d846000018460001b84612dc9565b60001c90509392505050565b600061287782600001612ebf565b9050919050565b60003073ffffffffffffffffffffffffffffffffffffffff16600c60009054906101000a900473ffffffffffffffffffffffffffffffffffffffff1673ffffffffffffffffffffffffffffffffffffffff16636352211e846040518263ffffffff1660e01b81526004016128f291906145b1565b60206040518083038186803b15801561290a57600080fd5b505afa15801561291e573d6000803e3d6000fd5b505050506040513d601f19601f820116820180604052508101906129429190613c1f565b73ffffffffffffffffffffffffffffffffffffffff1614612998576040517f08c379a000000000000000000000000000000000000000000000000000000000815260040161298f906144f1565b60405180910390fd5b60016012600084815260200190815260200160002060006101000a81548160ff021916908315150217905550817fdcaec8df21007fb0cc76407b9c2be183d4cc30cfc0d5bc22a533e61b0279577160405160405180910390a260019050919050565b612a14828260405180602001604052806000815250612ed0565b5050565b612a2384848461246d565b612a2f84848484612f41565b612a84576040517f08c379a000000000000000000000000000000000000000000000000000000000815260040180806020018281038252603281526020018061481b6032913960400191505060405180910390fd5b50505050565b60606000821415612ad2576040518060400160405280600181526020017f30000000000000000000000000000000000000000000000000000000000000008152509050612bcc565b600082905060005b60008214612afc578080600101915050600a8281612af457fe5b049150612ada565b60008167ffffffffffffffff81118015612b1557600080fd5b506040519080825280601f01601f191660200182016040528015612b485781602001600182028036833780820191505090505b50905060006001830390508593505b60008414612bc457600a8481612b6957fe5b0660300160f81b82828060019003935081518110612b8357fe5b60200101907effffffffffffffffffffffffffffffffffffffffffffffffffffffffffffff1916908160001a905350600a8481612bbc57fe5b049350612b57565b819450505050505b919050565b6000612be3836000018360001b61315a565b905092915050565b60008151905060006a636f6e736f6c652e6c6f679050602083016000808483855afa5050505050565b600081600001805490509050919050565b505050565b6000612c3c836000018360001b61317d565b905092915050565b6000612c56836000018360001b613265565b905092915050565b6000612c8a846000018460001b8473ffffffffffffffffffffffffffffffffffffffff1660001b6132d5565b90509392505050565b6000612ca5836000018360001b6133b1565b905092915050565b600081836000018054905011612d0e576040517f08c379a00000000000000000000000000000000000000000000000000000000081526004018080602001828103825260228152602001806147f96022913960400191505060405180910390fd5b826000018281548110612d1d57fe5b9060005260206000200154905092915050565b60008082846000018054905011612d92576040517f08c379a00000000000000000000000000000000000000000000000000000000081526004018080602001828103825260228152602001806149746022913960400191505060405180910390fd5b6000846000018481548110612da357fe5b906000526020600020906002020190508060000154816001015492509250509250929050565b60008084600101600085815260200190815260200160002054905060008114158390612e90576040517f08c379a00000000000000000000000000000000000000000000000000000000081526004018080602001828103825283818151815260200191508051906020019080838360005b83811015612e55578082015181840152602081019050612e3a565b50505050905090810190601f168015612e825780820380516001836020036101000a031916815260200191505b509250505060405180910390fd5b50846000016001820381548110612ea357fe5b9060005260206000209060020201600101549150509392505050565b600081600001805490509050919050565b612eda83836134ca565b612ee76000848484612f41565b612f3c576040517f08c379a000000000000000000000000000000000000000000000000000000000815260040180806020018281038252603281526020018061481b6032913960400191505060405180910390fd5b505050565b6000612f628473ffffffffffffffffffffffffffffffffffffffff166136be565b612f6f5760019050613152565b60006130d963150b7a0260e01b612f84612161565b888787604051602401808573ffffffffffffffffffffffffffffffffffffffff1681526020018473ffffffffffffffffffffffffffffffffffffffff16815260200183815260200180602001828103825283818151815260200191508051906020019080838360005b83811015613008578082015181840152602081019050612fed565b50505050905090810190601f1680156130355780820380516001836020036101000a031916815260200191505b5095505050505050604051602081830303815290604052907bffffffffffffffffffffffffffffffffffffffffffffffffffffffff19166020820180517bffffffffffffffffffffffffffffffffffffffffffffffffffffffff838183161783525050505060405180606001604052806032815260200161481b603291398773ffffffffffffffffffffffffffffffffffffffff166136d19092919063ffffffff16565b905060008180602001905160208110156130f257600080fd5b8101908080519060200190929190505050905063150b7a0260e01b7bffffffffffffffffffffffffffffffffffffffffffffffffffffffff1916817bffffffffffffffffffffffffffffffffffffffffffffffffffffffff191614925050505b949350505050565b600080836001016000848152602001908152602001600020541415905092915050565b6000808360010160008481526020019081526020016000205490506000811461325957600060018203905060006001866000018054905003905060008660000182815481106131c857fe5b90600052602060002001549050808760000184815481106131e557fe5b906000526020600020018190555060018301876001016000838152602001908152602001600020819055508660000180548061321d57fe5b6001900381819060005260206000200160009055905586600101600087815260200190815260200160002060009055600194505050505061325f565b60009150505b92915050565b600061327183836136e9565b6132ca5782600001829080600181540180825580915050600190039060005260206000200160009091909190915055826000018054905083600101600084815260200190815260200160002081905550600190506132cf565b600090505b92915050565b600080846001016000858152602001908152602001600020549050600081141561337c578460000160405180604001604052808681526020018581525090806001815401808255809150506001900390600052602060002090600202016000909190919091506000820151816000015560208201518160010155505084600001805490508560010160008681526020019081526020016000208190555060019150506133aa565b8285600001600183038154811061338f57fe5b90600052602060002090600202016001018190555060009150505b9392505050565b600080836001016000848152602001908152602001600020549050600081146134be57600060018203905060006001866000018054905003905060008660000182815481106133fc57fe5b906000526020600020906002020190508087600001848154811061341c57fe5b906000526020600020906002020160008201548160000155600182015481600101559050506001830187600101600083600001548152602001908152602001600020819055508660000180548061346f57fe5b60019003818190600052602060002090600202016000808201600090556001820160009055505090558660010160008781526020019081526020016000206000905560019450505050506134c4565b60009150505b92915050565b600073ffffffffffffffffffffffffffffffffffffffff168273ffffffffffffffffffffffffffffffffffffffff16141561356d576040517f08c379a00000000000000000000000000000000000000000000000000000000081526004018080602001828103825260208152602001807f4552433732313a206d696e7420746f20746865207a65726f206164647265737381525060200191505060405180910390fd5b61357681612144565b156135e9576040517f08c379a000000000000000000000000000000000000000000000000000000000815260040180806020018281038252601c8152602001807f4552433732313a20746f6b656e20616c7265616479206d696e7465640000000081525060200191505060405180910390fd5b6135f560008383612c25565b61364681600260008573ffffffffffffffffffffffffffffffffffffffff1673ffffffffffffffffffffffffffffffffffffffff168152602001908152602001600020612c4490919063ffffffff16565b5061365d81836003612c5e9092919063ffffffff16565b50808273ffffffffffffffffffffffffffffffffffffffff16600073ffffffffffffffffffffffffffffffffffffffff167fddf252ad1be2c89b69c2b068fc378daa952ba7f163c4a11628f55a4df523b3ef60405160405180910390a45050565b600080823b905060008111915050919050565b60606136e0848460008561370c565b90509392505050565b600080836001016000848152602001908152602001600020541415905092915050565b606082471015613767576040517f08c379a00000000000000000000000000000000000000000000000000000000081526004018080602001828103825260268152602001806148976026913960400191505060405180910390fd5b613770856136be565b6137e2576040517f08c379a000000000000000000000000000000000000000000000000000000000815260040180806020018281038252601d8152602001807f416464726573733a2063616c6c20746f206e6f6e2d636f6e747261637400000081525060200191505060405180910390fd5b6000808673ffffffffffffffffffffffffffffffffffffffff1685876040518082805190602001908083835b60208310613831578051825260208201915060208101905060208303925061380e565b6001836020036101000a03801982511681845116808217855250505050505090500191505060006040518083038185875af1925050503d8060008114613893576040519150601f19603f3d011682016040523d82523d6000602084013e613898565b606091505b50915091506138a88282866138b4565b92505050949350505050565b606083156138c457829050613979565b6000835111156138d75782518084602001fd5b816040517f08c379a00000000000000000000000000000000000000000000000000000000081526004018080602001828103825283818151815260200191508051906020019080838360005b8381101561393e578082015181840152602081019050613923565b50505050905090810190601f16801561396b5780820380516001836020036101000a031916815260200191505b509250505060405180910390fd5b9392505050565b828054600181600116156101000203166002900490600052602060002090601f0160209004810192826139b657600085556139fd565b82601f106139cf57805160ff19168380011785556139fd565b828001600101855582156139fd579182015b828111156139fc5782518255916020019190600101906139e1565b5b509050613a0a9190613a56565b5090565b50805460018160011615610100020316600290046000825580601f10613a345750613a53565b601f016020900490600052602060002090810190613a529190613a56565b5b50565b5b80821115613a6f576000816000905550600101613a57565b5090565b6000613a86613a818461462f565b6145fe565b905082815260208101848484011115613a9e57600080fd5b613aa9848285614747565b509392505050565b6000613ac4613abf8461465f565b6145fe565b905082815260208101848484011115613adc57600080fd5b613ae7848285614756565b509392505050565b600081359050613afe8161479c565b92915050565b600081519050613b138161479c565b92915050565b600081359050613b28816147b3565b92915050565b600081359050613b3d816147ca565b92915050565b600082601f830112613b5457600080fd5b8135613b64848260208601613a73565b91505092915050565b60008083601f840112613b7f57600080fd5b8235905067ffffffffffffffff811115613b9857600080fd5b602083019150836001820283011115613bb057600080fd5b9250929050565b600082601f830112613bc857600080fd5b8151613bd8848260208601613ab1565b91505092915050565b600081359050613bf0816147e1565b92915050565b600060208284031215613c0857600080fd5b6000613c1684828501613aef565b91505092915050565b600060208284031215613c3157600080fd5b6000613c3f84828501613b04565b91505092915050565b60008060408385031215613c5b57600080fd5b6000613c6985828601613aef565b9250506020613c7a85828601613aef565b9150509250929050565b600080600060608486031215613c9957600080fd5b6000613ca786828701613aef565b9350506020613cb886828701613aef565b9250506040613cc986828701613be1565b9150509250925092565b60008060008060808587031215613ce957600080fd5b6000613cf787828801613aef565b9450506020613d0887828801613aef565b9350506040613d1987828801613be1565b925050606085013567ffffffffffffffff811115613d3657600080fd5b613d4287828801613b43565b91505092959194509250565b60008060408385031215613d6157600080fd5b6000613d6f85828601613aef565b9250506020613d8085828601613b19565b9150509250929050565b60008060408385031215613d9d57600080fd5b6000613dab85828601613aef565b9250506020613dbc85828601613be1565b9150509250929050565b600060208284031215613dd857600080fd5b6000613de684828501613b2e565b91505092915050565b60008060208385031215613e0257600080fd5b600083013567ffffffffffffffff811115613e1c57600080fd5b613e2885828601613b6d565b92509250509250929050565b600060208284031215613e4657600080fd5b600082015167ffffffffffffffff811115613e6057600080fd5b613e6c84828501613bb7565b91505092915050565b600060208284031215613e8757600080fd5b6000613e9584828501613be1565b91505092915050565b600080600060408486031215613eb357600080fd5b6000613ec186828701613be1565b935050602084013567ffffffffffffffff811115613ede57600080fd5b613eea86828701613b6d565b92509250509250925092565b613eff816146d3565b82525050565b613f0e816146c1565b82525050565b613f1d816146e5565b82525050565b613f2c816146f1565b82525050565b6000613f3d8261468f565b613f4781856146a5565b9350613f57818560208601614756565b80840191505092915050565b6000613f6f83856146b0565b9350613f7c838584614747565b613f858361478b565b840190509392505050565b6000613f9b8261469a565b613fa581856146b0565b9350613fb5818560208601614756565b613fbe8161478b565b840191505092915050565b6000613fd66038836146b0565b91507f537570655261726556323a205468652076313a763220746f6b656e207065672060008301527f6861736e2774206265656e2065737461626c69736865642100000000000000006020830152604082019050919050565b600061403c6044836146b0565b91507f537570655261726556323a2053656e6465722069736e27742077686974656c6960008301527f73746564206f7220617070726f76656420666f722074686973206f706572617460208301527f696f6e21000000000000000000000000000000000000000000000000000000006040830152606082019050919050565b60006140c86028836146b0565b91507f537570655261726556323a204163636f756e7420616c7265616479207768697460008301527f656c6973746564210000000000000000000000000000000000000000000000006020830152604082019050919050565b600061412e6027836146b0565b91507f537570655261726556323a20556e61626c6520746f207065672074686520563160008301527f20746f6b656e21000000000000000000000000000000000000000000000000006020830152604082019050919050565b60006141946026836146b0565b91507f537570655261726556323a20496e76616c696420726563697069656e7420616460008301527f64726573732100000000000000000000000000000000000000000000000000006020830152604082019050919050565b60006141fa6033836146b0565b91507f537570655261726556323a2053656e6465722069736e277420746865206f776e60008301527f6572206f662074686520563220746f6b656e21000000000000000000000000006020830152604082019050919050565b6000614260605d836146b0565b91507f537570655261726556323a2047657420616464656420746f2077686974656c6960008301527f73742c207472616e736665722074686520563120746f6b656e20746f2074686960208301527f7320636f6e74726163742c207468656e2063616c6c206d696e745632210000006040830152606082019050919050565b60006142ec6033836146b0565b91507f537570655261726556323a2053656e6465722069736e277420746865206f776e60008301527f6572206f662074686520563120546f6b656e21000000000000000000000000006020830152604082019050919050565b60006143526028836146b0565b91507f537570655261726556323a20556e61626c6520746f207769746864726177205660008301527f3120746f6b656e210000000000000000000000000000000000000000000000006020830152604082019050919050565b6143b48161473d565b82525050565b60006143c68284613f32565b915081905092915050565b60006020820190506143e66000830184613f05565b92915050565b60006040820190506144016000830185613ef6565b61440e60208301846143ab565b9392505050565b600060208201905061442a6000830184613f14565b92915050565b60006020820190506144456000830184613f23565b92915050565b60006020820190508181036000830152614466818486613f63565b90509392505050565b600060208201905081810360008301526144898184613f90565b905092915050565b600060208201905081810360008301526144aa81613fc9565b9050919050565b600060208201905081810360008301526144ca8161402f565b9050919050565b600060208201905081810360008301526144ea816140bb565b9050919050565b6000602082019050818103600083015261450a81614121565b9050919050565b6000602082019050818103600083015261452a81614187565b9050919050565b6000602082019050818103600083015261454a816141ed565b9050919050565b6000602082019050818103600083015261456a81614253565b9050919050565b6000602082019050818103600083015261458a816142df565b9050919050565b600060208201905081810360008301526145aa81614345565b9050919050565b60006020820190506145c660008301846143ab565b92915050565b60006040820190506145e160008301866143ab565b81810360208301526145f4818486613f63565b9050949350505050565b6000604051905081810181811067ffffffffffffffff8211171561462557614624614789565b5b8060405250919050565b600067ffffffffffffffff82111561464a57614649614789565b5b601f19601f8301169050602081019050919050565b600067ffffffffffffffff82111561467a57614679614789565b5b601f19601f8301169050602081019050919050565b600081519050919050565b600081519050919050565b600081905092915050565b600082825260208201905092915050565b60006146cc8261471d565b9050919050565b60006146de8261471d565b9050919050565b60008115159050919050565b60007fffffffff0000000000000000000000000000000000000000000000000000000082169050919050565b600073ffffffffffffffffffffffffffffffffffffffff82169050919050565b6000819050919050565b82818337600083830152505050565b60005b83811015614774578082015181840152602081019050614759565b83811115614783576000848401525b50505050565bfe5b6000601f19601f8301169050919050565b6147a5816146c1565b81146147b057600080fd5b50565b6147bc816146e5565b81146147c757600080fd5b50565b6147d3816146f1565b81146147de57600080fd5b50565b6147ea8161473d565b81146147f557600080fd5b5056fe456e756d657261626c655365743a20696e646578206f7574206f6620626f756e64734552433732313a207472616e7366657220746f206e6f6e20455243373231526563656976657220696d706c656d656e7465724f776e61626c653a206e6577206f776e657220697320746865207a65726f20616464726573734552433732313a207472616e7366657220746f20746865207a65726f2061646472657373416464726573733a20696e73756666696369656e742062616c616e636520666f722063616c6c4552433732313a206f70657261746f7220717565727920666f72206e6f6e6578697374656e7420746f6b656e4552433732313a20617070726f76652063616c6c6572206973206e6f74206f776e6572206e6f7220617070726f76656420666f7220616c6c4552433732313a2062616c616e636520717565727920666f7220746865207a65726f20616464726573734552433732313a206f776e657220717565727920666f72206e6f6e6578697374656e7420746f6b656e456e756d657261626c654d61703a20696e646578206f7574206f6620626f756e64734552433732313a20617070726f76656420717565727920666f72206e6f6e6578697374656e7420746f6b656e4552433732314d657461646174613a2055524920736574206f66206e6f6e6578697374656e7420746f6b656e4552433732313a207472616e73666572206f6620746f6b656e2074686174206973206e6f74206f776e4552433732314d657461646174613a2055524920717565727920666f72206e6f6e6578697374656e7420746f6b656e4552433732313a20617070726f76616c20746f2063757272656e74206f776e65724552433732313a207472616e736665722063616c6c6572206973206e6f74206f776e6572206e6f7220617070726f766564a2646970667358221220f9fe54f70fc3583645d185e637c7752d471211febbcf6396a9a371037a3f483064736f6c63430007060033",
  "linkReferences": {},
  "deployedLinkReferences": {}
}