{
  "_format": "hh-sol-artifact-1",
  "contractName": "SupeRareV2",
  "sourceName": "contracts/SupeRareV2.sol",
  "abi": [
    {
      "inputs": [
        {
          "internalType": "address",
          "name": "OriginalSupeRareAddr__",
          "type": "address"
        }
      ],
      "stateMutability": "nonpayable",
      "type": "constructor"
    },
    {
      "anonymous": false,
      "inputs": [
        {
          "indexed": true,
          "internalType": "address",
          "name": "owner",
          "type": "address"
        },
        {
          "indexed": true,
          "internalType": "address",
          "name": "approved",
          "type": "address"
        },
        {
          "indexed": true,
          "internalType": "uint256",
          "name": "tokenId",
          "type": "uint256"
        }
      ],
      "name": "Approval",
      "type": "event"
    },
    {
      "anonymous": false,
      "inputs": [
        {
          "indexed": true,
          "internalType": "address",
          "name": "owner",
          "type": "address"
        },
        {
          "indexed": true,
          "internalType": "address",
          "name": "operator",
          "type": "address"
        },
        {
          "indexed": false,
          "internalType": "bool",
          "name": "approved",
          "type": "bool"
        }
      ],
      "name": "ApprovalForAll",
      "type": "event"
    },
    {
      "anonymous": false,
      "inputs": [
        {
          "indexed": false,
          "internalType": "string",
          "name": "_baseURI",
          "type": "string"
        }
      ],
      "name": "BaseURISet",
      "type": "event"
    },
    {
      "anonymous": false,
      "inputs": [
        {
          "indexed": true,
          "internalType": "address",
          "name": "previousOwner",
          "type": "address"
        },
        {
          "indexed": true,
          "internalType": "address",
          "name": "newOwner",
          "type": "address"
        }
      ],
      "name": "OwnershipTransferred",
      "type": "event"
    },
    {
      "anonymous": false,
      "inputs": [
        {
          "indexed": true,
          "internalType": "address",
          "name": "OrigV1Owner",
          "type": "address"
        },
        {
          "indexed": true,
          "internalType": "address",
          "name": "NewV1Owner",
          "type": "address"
        },
        {
          "indexed": true,
          "internalType": "uint256",
          "name": "v1TokenId",
          "type": "uint256"
        }
      ],
      "name": "OwnershipUpdated",
      "type": "event"
    },
    {
      "anonymous": false,
      "inputs": [
        {
          "indexed": true,
          "internalType": "address",
          "name": "tokenOwner",
          "type": "address"
        },
        {
          "indexed": true,
          "internalType": "uint256",
          "name": "_tokenId",
          "type": "uint256"
        },
        {
          "indexed": true,
          "internalType": "string",
          "name": "tokenURI",
          "type": "string"
        }
      ],
      "name": "PositionCreated",
      "type": "event"
    },
    {
      "anonymous": false,
      "inputs": [
        {
          "indexed": true,
          "internalType": "address",
          "name": "OrigOwner",
          "type": "address"
        },
        {
          "indexed": true,
          "internalType": "uint256",
          "name": "_tokenId",
          "type": "uint256"
        }
      ],
      "name": "PositionDeleted",
      "type": "event"
    },
    {
      "anonymous": false,
      "inputs": [
        {
          "indexed": false,
          "internalType": "bool",
          "name": "",
          "type": "bool"
        }
      ],
      "name": "ToggleStartStop",
      "type": "event"
    },
    {
      "anonymous": false,
      "inputs": [
        {
          "indexed": false,
          "internalType": "uint256",
          "name": "_tokenId",
          "type": "uint256"
        },
        {
          "indexed": false,
          "internalType": "string",
          "name": "_tokenURI",
          "type": "string"
        }
      ],
      "name": "TokenURISet",
      "type": "event"
    },
    {
      "anonymous": false,
      "inputs": [
        {
          "indexed": true,
          "internalType": "address",
          "name": "from",
          "type": "address"
        },
        {
          "indexed": true,
          "internalType": "address",
          "name": "to",
          "type": "address"
        },
        {
          "indexed": true,
          "internalType": "uint256",
          "name": "tokenId",
          "type": "uint256"
        }
      ],
      "name": "Transfer",
      "type": "event"
    },
    {
      "inputs": [],
      "name": "ToggleContract",
      "outputs": [],
      "stateMutability": "nonpayable",
      "type": "function"
    },
    {
      "inputs": [
        {
          "internalType": "uint256",
          "name": "",
          "type": "uint256"
        }
      ],
      "name": "V1Position",
      "outputs": [
        {
          "internalType": "address",
          "name": "tokenOwner",
          "type": "address"
        },
        {
          "internalType": "uint256",
          "name": "tokenID",
          "type": "uint256"
        },
        {
          "internalType": "string",
          "name": "tokenURI",
          "type": "string"
        },
        {
          "internalType": "uint256",
          "name": "timeStamp",
          "type": "uint256"
        }
      ],
      "stateMutability": "view",
      "type": "function"
    },
    {
      "inputs": [
        {
          "internalType": "address",
          "name": "to",
          "type": "address"
        },
        {
          "internalType": "uint256",
          "name": "tokenId",
          "type": "uint256"
        }
      ],
      "name": "approve",
      "outputs": [],
      "stateMutability": "nonpayable",
      "type": "function"
    },
    {
      "inputs": [
        {
          "internalType": "address",
          "name": "owner",
          "type": "address"
        }
      ],
      "name": "balanceOf",
      "outputs": [
        {
          "internalType": "uint256",
          "name": "",
          "type": "uint256"
        }
      ],
      "stateMutability": "view",
      "type": "function"
    },
    {
      "inputs": [],
      "name": "baseURI",
      "outputs": [
        {
          "internalType": "string",
          "name": "",
          "type": "string"
        }
      ],
      "stateMutability": "view",
      "type": "function"
    },
    {
      "inputs": [],
      "name": "contract_status",
      "outputs": [
        {
          "internalType": "bool",
          "name": "",
          "type": "bool"
        }
      ],
      "stateMutability": "view",
      "type": "function"
    },
    {
      "inputs": [
        {
          "internalType": "uint256",
          "name": "_tokenId",
          "type": "uint256"
        }
      ],
      "name": "deposit",
      "outputs": [
        {
          "internalType": "bool",
          "name": "",
          "type": "bool"
        }
      ],
      "stateMutability": "nonpayable",
      "type": "function"
    },
    {
      "inputs": [
        {
          "internalType": "uint256",
          "name": "tokenId",
          "type": "uint256"
        }
      ],
      "name": "getApproved",
      "outputs": [
        {
          "internalType": "address",
          "name": "",
          "type": "address"
        }
      ],
      "stateMutability": "view",
      "type": "function"
    },
    {
      "inputs": [
        {
          "internalType": "uint256",
          "name": "_tokenId",
          "type": "uint256"
        }
      ],
      "name": "getOwnerPosition",
      "outputs": [
        {
          "components": [
            {
              "internalType": "address",
              "name": "tokenOwner",
              "type": "address"
            },
            {
              "internalType": "uint256",
              "name": "tokenID",
              "type": "uint256"
            },
            {
              "internalType": "string",
              "name": "tokenURI",
              "type": "string"
            },
            {
              "internalType": "uint256",
              "name": "timeStamp",
              "type": "uint256"
            }
          ],
          "internalType": "struct ISupeRareV2.Position",
          "name": "",
          "type": "tuple"
        }
      ],
      "stateMutability": "view",
      "type": "function"
    },
    {
      "inputs": [],
      "name": "getSupeRareAddress",
      "outputs": [
        {
          "internalType": "address",
          "name": "",
          "type": "address"
        }
      ],
      "stateMutability": "view",
      "type": "function"
    },
    {
      "inputs": [
        {
          "internalType": "address",
          "name": "owner",
          "type": "address"
        },
        {
          "internalType": "address",
          "name": "operator",
          "type": "address"
        }
      ],
      "name": "isApprovedForAll",
      "outputs": [
        {
          "internalType": "bool",
          "name": "",
          "type": "bool"
        }
      ],
      "stateMutability": "view",
      "type": "function"
    },
    {
      "inputs": [],
      "name": "name",
      "outputs": [
        {
          "internalType": "string",
          "name": "",
          "type": "string"
        }
      ],
      "stateMutability": "view",
      "type": "function"
    },
    {
      "inputs": [],
      "name": "owner",
      "outputs": [
        {
          "internalType": "address",
          "name": "",
          "type": "address"
        }
      ],
      "stateMutability": "view",
      "type": "function"
    },
    {
      "inputs": [
        {
          "internalType": "address",
          "name": "",
          "type": "address"
        },
        {
          "internalType": "uint256",
          "name": "",
          "type": "uint256"
        }
      ],
      "name": "ownerAddrToV1toV2TokenId",
      "outputs": [
        {
          "internalType": "uint256",
          "name": "",
          "type": "uint256"
        }
      ],
      "stateMutability": "view",
      "type": "function"
    },
    {
      "inputs": [
        {
          "internalType": "uint256",
          "name": "tokenId",
          "type": "uint256"
        }
      ],
      "name": "ownerOf",
      "outputs": [
        {
          "internalType": "address",
          "name": "",
          "type": "address"
        }
      ],
      "stateMutability": "view",
      "type": "function"
    },
    {
      "inputs": [],
      "name": "renounceOwnership",
      "outputs": [],
      "stateMutability": "nonpayable",
      "type": "function"
    },
    {
      "inputs": [
        {
          "internalType": "address",
          "name": "from",
          "type": "address"
        },
        {
          "internalType": "address",
          "name": "to",
          "type": "address"
        },
        {
          "internalType": "uint256",
          "name": "tokenId",
          "type": "uint256"
        }
      ],
      "name": "safeTransferFrom",
      "outputs": [],
      "stateMutability": "nonpayable",
      "type": "function"
    },
    {
      "inputs": [
        {
          "internalType": "address",
          "name": "from",
          "type": "address"
        },
        {
          "internalType": "address",
          "name": "to",
          "type": "address"
        },
        {
          "internalType": "uint256",
          "name": "tokenId",
          "type": "uint256"
        },
        {
          "internalType": "bytes",
          "name": "_data",
          "type": "bytes"
        }
      ],
      "name": "safeTransferFrom",
      "outputs": [],
      "stateMutability": "nonpayable",
      "type": "function"
    },
    {
      "inputs": [
        {
          "internalType": "address",
          "name": "operator",
          "type": "address"
        },
        {
          "internalType": "bool",
          "name": "approved",
          "type": "bool"
        }
      ],
      "name": "setApprovalForAll",
      "outputs": [],
      "stateMutability": "nonpayable",
      "type": "function"
    },
    {
      "inputs": [
        {
          "internalType": "string",
          "name": "baseURI",
          "type": "string"
        }
      ],
      "name": "setBaseURI",
      "outputs": [
        {
          "internalType": "bool",
          "name": "",
          "type": "bool"
        }
      ],
      "stateMutability": "nonpayable",
      "type": "function"
    },
    {
      "inputs": [
        {
          "internalType": "uint256",
          "name": "_tokenId",
          "type": "uint256"
        },
        {
          "internalType": "string",
          "name": "_tokenURI",
          "type": "string"
        }
      ],
      "name": "setTokenURI",
      "outputs": [
        {
          "internalType": "bool",
          "name": "",
          "type": "bool"
        }
      ],
      "stateMutability": "nonpayable",
      "type": "function"
    },
    {
      "inputs": [
        {
          "internalType": "bytes4",
          "name": "interfaceId",
          "type": "bytes4"
        }
      ],
      "name": "supportsInterface",
      "outputs": [
        {
          "internalType": "bool",
          "name": "",
          "type": "bool"
        }
      ],
      "stateMutability": "view",
      "type": "function"
    },
    {
      "inputs": [],
      "name": "symbol",
      "outputs": [
        {
          "internalType": "string",
          "name": "",
          "type": "string"
        }
      ],
      "stateMutability": "view",
      "type": "function"
    },
    {
      "inputs": [
        {
          "internalType": "uint256",
          "name": "index",
          "type": "uint256"
        }
      ],
      "name": "tokenByIndex",
      "outputs": [
        {
          "internalType": "uint256",
          "name": "",
          "type": "uint256"
        }
      ],
      "stateMutability": "view",
      "type": "function"
    },
    {
      "inputs": [
        {
          "internalType": "address",
          "name": "owner",
          "type": "address"
        },
        {
          "internalType": "uint256",
          "name": "index",
          "type": "uint256"
        }
      ],
      "name": "tokenOfOwnerByIndex",
      "outputs": [
        {
          "internalType": "uint256",
          "name": "",
          "type": "uint256"
        }
      ],
      "stateMutability": "view",
      "type": "function"
    },
    {
      "inputs": [
        {
          "internalType": "uint256",
          "name": "tokenId",
          "type": "uint256"
        }
      ],
      "name": "tokenURI",
      "outputs": [
        {
          "internalType": "string",
          "name": "",
          "type": "string"
        }
      ],
      "stateMutability": "view",
      "type": "function"
    },
    {
      "inputs": [],
      "name": "totalSupply",
      "outputs": [
        {
          "internalType": "uint256",
          "name": "",
          "type": "uint256"
        }
      ],
      "stateMutability": "view",
      "type": "function"
    },
    {
      "inputs": [
        {
          "internalType": "address",
          "name": "from",
          "type": "address"
        },
        {
          "internalType": "address",
          "name": "to",
          "type": "address"
        },
        {
          "internalType": "uint256",
          "name": "tokenId",
          "type": "uint256"
        }
      ],
      "name": "transferFrom",
      "outputs": [],
      "stateMutability": "nonpayable",
      "type": "function"
    },
    {
      "inputs": [
        {
          "internalType": "address",
          "name": "newOwner",
          "type": "address"
        }
      ],
      "name": "transferOwnership",
      "outputs": [],
      "stateMutability": "nonpayable",
      "type": "function"
    },
    {
      "inputs": [
        {
          "internalType": "uint256",
          "name": "_tokenId",
          "type": "uint256"
        }
      ],
      "name": "withdraw",
      "outputs": [
        {
          "internalType": "bool",
          "name": "",
          "type": "bool"
        }
      ],
      "stateMutability": "nonpayable",
      "type": "function"
    }
  ],
  "bytecode": "0x60806040523480156200001157600080fd5b5060405162004b1d38038062004b1d833981810160405281019062000037919062000470565b6040518060400160405280600a81526020017f53757065526172655632000000000000000000000000000000000000000000008152506040518060400160405280600681526020017f53555052563200000000000000000000000000000000000000000000000000008152506000620000b56200029260201b60201c565b9050806000806101000a81548173ffffffffffffffffffffffffffffffffffffffff021916908373ffffffffffffffffffffffffffffffffffffffff1602179055508073ffffffffffffffffffffffffffffffffffffffff16600073ffffffffffffffffffffffffffffffffffffffff167f8be0079c531659141344cd1fd0a4f28419497f9722a3daafe3b4186f6b6457e060405160405180910390a3506200016b6301ffc9a760e01b6200029a60201b60201c565b816007908051906020019062000183929190620003a3565b5080600890805190602001906200019c929190620003a3565b50620001b56380ac58cd60e01b6200029a60201b60201c565b620001cd635b5e139f60e01b6200029a60201b60201c565b620001e563780e9d6360e01b6200029a60201b60201c565b505080600b60006101000a81548173ffffffffffffffffffffffffffffffffffffffff021916908373ffffffffffffffffffffffffffffffffffffffff160217905550600b60009054906101000a900473ffffffffffffffffffffffffffffffffffffffff16600c60006101000a81548173ffffffffffffffffffffffffffffffffffffffff021916908373ffffffffffffffffffffffffffffffffffffffff16021790555050620004ea565b600033905090565b63ffffffff60e01b817bffffffffffffffffffffffffffffffffffffffffffffffffffffffff1916141562000337576040517f08c379a000000000000000000000000000000000000000000000000000000000815260040180806020018281038252601c8152602001807f4552433136353a20696e76616c696420696e746572666163652069640000000081525060200191505060405180910390fd5b6001806000837bffffffffffffffffffffffffffffffffffffffffffffffffffffffff19167bffffffffffffffffffffffffffffffffffffffffffffffffffffffff1916815260200190815260200160002060006101000a81548160ff02191690831515021790555050565b828054600181600116156101000203166002900490600052602060002090601f016020900481019282620003db576000855562000427565b82601f10620003f657805160ff191683800117855562000427565b8280016001018555821562000427579182015b828111156200042657825182559160200191906001019062000409565b5b5090506200043691906200043a565b5090565b5b80821115620004555760008160009055506001016200043b565b5090565b6000815190506200046a81620004d0565b92915050565b6000602082840312156200048357600080fd5b6000620004938482850162000459565b91505092915050565b6000620004a982620004b0565b9050919050565b600073ffffffffffffffffffffffffffffffffffffffff82169050919050565b620004db816200049c565b8114620004e757600080fd5b50565b61462380620004fa6000396000f3fe608060405234801561001057600080fd5b50600436106101da5760003560e01c80636352211e1161010457806395d89b41116100a2578063c87b56dd11610071578063c87b56dd146105ba578063cfa2e004146105ea578063e985e9c5146105f4578063f2fde38b14610624576101da565b806395d89b4114610534578063a22cb46514610552578063b6b55f251461056e578063b88d4fde1461059e576101da565b80636d35f9ae116100de5780636d35f9ae146104a957806370a08231146104dc578063715018a61461050c5780638da5cb5b14610516576101da565b80636352211e1461042b5780636c0360eb1461045b5780636c0e675414610479576101da565b806323b872dd1161017c578063364647891161014b578063364647891461039157806342842e0e146103af5780634f6ccce7146103cb57806355f804b3146103fb576101da565b806323b872dd146102f75780632b1bf48f146103135780632e1a7d4d146103315780632f745c5914610361576101da565b8063095ea7b3116101b8578063095ea7b31461025d5780630a4c338114610279578063162094c4146102a957806318160ddd146102d9576101da565b806301ffc9a7146101df57806306fdde031461020f578063081812fc1461022d575b600080fd5b6101f960048036038101906101f49190613bf8565b610640565b6040516102069190614030565b60405180910390f35b6102176106a8565b604051610224919061406f565b60405180910390f35b61024760048036038101906102429190613ca7565b61074a565b6040516102549190613fc9565b60405180910390f35b61027760048036038101906102729190613bbc565b6107e5565b005b610293600480360381019061028e9190613ca7565b610929565b6040516102a091906140f1565b60405180910390f35b6102c360048036038101906102be9190613cd0565b610aaa565b6040516102d09190614030565b60405180910390f35b6102e1610bef565b6040516102ee9190614113565b60405180910390f35b610311600480360381019061030c9190613ab6565b610c00565b005b61031b610c76565b6040516103289190614030565b60405180910390f35b61034b60048036038101906103469190613ca7565b610c8d565b6040516103589190614030565b60405180910390f35b61037b60048036038101906103769190613bbc565b610e6a565b6040516103889190614113565b60405180910390f35b610399610ec5565b6040516103a69190613fc9565b60405180910390f35b6103c960048036038101906103c49190613ab6565b610eef565b005b6103e560048036038101906103e09190613ca7565b610f0f565b6040516103f29190614113565b60405180910390f35b61041560048036038101906104109190613c21565b610f32565b6040516104229190614030565b60405180910390f35b61044560048036038101906104409190613ca7565b611073565b6040516104529190613fc9565b60405180910390f35b6104636110aa565b604051610470919061406f565b60405180910390f35b610493600480360381019061048e9190613bbc565b61114c565b6040516104a09190614113565b60405180910390f35b6104c360048036038101906104be9190613ca7565b611171565b6040516104d39493929190613fe4565b60405180910390f35b6104f660048036038101906104f19190613a28565b611259565b6040516105039190614113565b60405180910390f35b61051461132e565b005b61051e61149b565b60405161052b9190613fc9565b60405180910390f35b61053c6114c4565b604051610549919061406f565b60405180910390f35b61056c60048036038101906105679190613b80565b611566565b005b61058860048036038101906105839190613ca7565b61171c565b6040516105959190614030565b60405180910390f35b6105b860048036038101906105b39190613b05565b611b34565b005b6105d460048036038101906105cf9190613ca7565b611bac565b6040516105e1919061406f565b60405180910390f35b6105f2611e7d565b005b61060e60048036038101906106099190613a7a565b611f9e565b60405161061b9190614030565b60405180910390f35b61063e60048036038101906106399190613a28565b612032565b005b600060016000837bffffffffffffffffffffffffffffffffffffffffffffffffffffffff19167bffffffffffffffffffffffffffffffffffffffffffffffffffffffff1916815260200190815260200160002060009054906101000a900460ff169050919050565b606060078054600181600116156101000203166002900480601f0160208091040260200160405190810160405280929190818152602001828054600181600116156101000203166002900480156107405780601f1061071557610100808354040283529160200191610740565b820191906000526020600020905b81548152906001019060200180831161072357829003601f168201915b5050505050905090565b600061075582612224565b6107aa576040517f08c379a000000000000000000000000000000000000000000000000000000000815260040180806020018281038252602c8152602001806144ec602c913960400191505060405180910390fd5b6005600083815260200190815260200160002060009054906101000a900473ffffffffffffffffffffffffffffffffffffffff169050919050565b60006107f082611073565b90508073ffffffffffffffffffffffffffffffffffffffff168373ffffffffffffffffffffffffffffffffffffffff161415610877576040517f08c379a000000000000000000000000000000000000000000000000000000000815260040180806020018281038252602181526020018061459c6021913960400191505060405180910390fd5b8073ffffffffffffffffffffffffffffffffffffffff16610896612241565b73ffffffffffffffffffffffffffffffffffffffff1614806108c557506108c4816108bf612241565b611f9e565b5b61091a576040517f08c379a000000000000000000000000000000000000000000000000000000000815260040180806020018281038252603881526020018061443f6038913960400191505060405180910390fd5b6109248383612249565b505050565b610931613774565b61093a82612224565b610979576040517f08c379a0000000000000000000000000000000000000000000000000000000008152600401610970906140b1565b60405180910390fd5b600e60008381526020019081526020016000206040518060800160405290816000820160009054906101000a900473ffffffffffffffffffffffffffffffffffffffff1673ffffffffffffffffffffffffffffffffffffffff1673ffffffffffffffffffffffffffffffffffffffff16815260200160018201548152602001600282018054600181600116156101000203166002900480601f016020809104026020016040519081016040528092919081815260200182805460018160011615610100020316600290048015610a905780601f10610a6557610100808354040283529160200191610a90565b820191906000526020600020905b815481529060010190602001808311610a7357829003601f168201915b505050505081526020016003820154815250509050919050565b6000610ab4612241565b73ffffffffffffffffffffffffffffffffffffffff16610ad261149b565b73ffffffffffffffffffffffffffffffffffffffff1614610b5b576040517f08c379a00000000000000000000000000000000000000000000000000000000081526004018080602001828103825260208152602001807f4f776e61626c653a2063616c6c6572206973206e6f7420746865206f776e657281525060200191505060405180910390fd5b610ba98484848080601f016020809104026020016040519081016040528093929190818152602001838380828437600081840152601f19601f82011690508083019250505050505050612302565b7fda84ca2183491f179a603e877b2cb058e42195041c2b9c53d746427e519a34df848484604051610bdc9392919061412e565b60405180910390a1600190509392505050565b6000610bfb600361238c565b905090565b610c11610c0b612241565b826123a1565b610c66576040517f08c379a00000000000000000000000000000000000000000000000000000000081526004018080602001828103825260318152602001806145bd6031913960400191505060405180910390fd5b610c71838383612495565b505050565b6000600d60149054906101000a900460ff16905090565b600081610c98612241565b73ffffffffffffffffffffffffffffffffffffffff16600c60009054906101000a900473ffffffffffffffffffffffffffffffffffffffff1673ffffffffffffffffffffffffffffffffffffffff16636352211e836040518263ffffffff1660e01b8152600401610d099190614113565b60206040518083038186803b158015610d2157600080fd5b505afa158015610d35573d6000803e3d6000fd5b505050506040513d601f19601f82011682018060405250810190610d599190613a51565b73ffffffffffffffffffffffffffffffffffffffff1614610daf576040517f08c379a0000000000000000000000000000000000000000000000000000000008152600401610da690614091565b60405180910390fd5b610db8836126d8565b600e6000848152602001908152602001600020600080820160006101000a81549073ffffffffffffffffffffffffffffffffffffffff02191690556001820160009055600282016000610e0b91906137b2565b6003820160009055505082610e1e612241565b73ffffffffffffffffffffffffffffffffffffffff167f17b1a50cb1d8fb4414f164aeaf06785afbeeb2c4e4c08a7ecca69bcfb9ff968560405160405180910390a36001915050919050565b6000610ebd82600260008673ffffffffffffffffffffffffffffffffffffffff1673ffffffffffffffffffffffffffffffffffffffff16815260200190815260200160002061281290919063ffffffff16565b905092915050565b6000600b60009054906101000a900473ffffffffffffffffffffffffffffffffffffffff16905090565b610f0a83838360405180602001604052806000815250611b34565b505050565b600080610f2683600361282c90919063ffffffff16565b50905080915050919050565b6000610f3c612241565b73ffffffffffffffffffffffffffffffffffffffff16610f5a61149b565b73ffffffffffffffffffffffffffffffffffffffff1614610fe3576040517f08c379a00000000000000000000000000000000000000000000000000000000081526004018080602001828103825260208152602001807f4f776e61626c653a2063616c6c6572206973206e6f7420746865206f776e657281525060200191505060405180910390fd5b61103083838080601f016020809104026020016040519081016040528093929190818152602001838380828437600081840152601f19601f82011690508083019250505050505050612858565b7ff9c7803e94e0d3c02900d8a90893a6d5e90dd04d32a4cfe825520f82bf9f32f6838360405161106192919061404b565b60405180910390a16001905092915050565b60006110a3826040518060600160405280602981526020016144a16029913960036128729092919063ffffffff16565b9050919050565b6060600a8054600181600116156101000203166002900480601f0160208091040260200160405190810160405280929190818152602001828054600181600116156101000203166002900480156111425780601f1061111757610100808354040283529160200191611142565b820191906000526020600020905b81548152906001019060200180831161112557829003601f168201915b5050505050905090565b600f602052816000526040600020602052806000526040600020600091509150505481565b600e6020528060005260406000206000915090508060000160009054906101000a900473ffffffffffffffffffffffffffffffffffffffff1690806001015490806002018054600181600116156101000203166002900480601f0160208091040260200160405190810160405280929190818152602001828054600181600116156101000203166002900480156112495780601f1061121e57610100808354040283529160200191611249565b820191906000526020600020905b81548152906001019060200180831161122c57829003601f168201915b5050505050908060030154905084565b60008073ffffffffffffffffffffffffffffffffffffffff168273ffffffffffffffffffffffffffffffffffffffff1614156112e0576040517f08c379a000000000000000000000000000000000000000000000000000000000815260040180806020018281038252602a815260200180614477602a913960400191505060405180910390fd5b611327600260008473ffffffffffffffffffffffffffffffffffffffff1673ffffffffffffffffffffffffffffffffffffffff168152602001908152602001600020612891565b9050919050565b611336612241565b73ffffffffffffffffffffffffffffffffffffffff1661135461149b565b73ffffffffffffffffffffffffffffffffffffffff16146113dd576040517f08c379a00000000000000000000000000000000000000000000000000000000081526004018080602001828103825260208152602001807f4f776e61626c653a2063616c6c6572206973206e6f7420746865206f776e657281525060200191505060405180910390fd5b600073ffffffffffffffffffffffffffffffffffffffff1660008054906101000a900473ffffffffffffffffffffffffffffffffffffffff1673ffffffffffffffffffffffffffffffffffffffff167f8be0079c531659141344cd1fd0a4f28419497f9722a3daafe3b4186f6b6457e060405160405180910390a360008060006101000a81548173ffffffffffffffffffffffffffffffffffffffff021916908373ffffffffffffffffffffffffffffffffffffffff160217905550565b60008060009054906101000a900473ffffffffffffffffffffffffffffffffffffffff16905090565b606060088054600181600116156101000203166002900480601f01602080910402602001604051908101604052809291908181526020018280546001816001161561010002031660029004801561155c5780601f106115315761010080835404028352916020019161155c565b820191906000526020600020905b81548152906001019060200180831161153f57829003601f168201915b5050505050905090565b61156e612241565b73ffffffffffffffffffffffffffffffffffffffff168273ffffffffffffffffffffffffffffffffffffffff16141561160f576040517f08c379a00000000000000000000000000000000000000000000000000000000081526004018080602001828103825260198152602001807f4552433732313a20617070726f766520746f2063616c6c65720000000000000081525060200191505060405180910390fd5b806006600061161c612241565b73ffffffffffffffffffffffffffffffffffffffff1673ffffffffffffffffffffffffffffffffffffffff16815260200190815260200160002060008473ffffffffffffffffffffffffffffffffffffffff1673ffffffffffffffffffffffffffffffffffffffff16815260200190815260200160002060006101000a81548160ff0219169083151502179055508173ffffffffffffffffffffffffffffffffffffffff166116c9612241565b73ffffffffffffffffffffffffffffffffffffffff167f17307eab39ab6107e8899845ad3d59bd9653f200f220920489ca2b5937696c318360405180821515815260200191505060405180910390a35050565b6000600d60149054906101000a900460ff161561176e576040517f08c379a0000000000000000000000000000000000000000000000000000000008152600401611765906140d1565b60405180910390fd5b81611777612241565b73ffffffffffffffffffffffffffffffffffffffff16600c60009054906101000a900473ffffffffffffffffffffffffffffffffffffffff1673ffffffffffffffffffffffffffffffffffffffff16636352211e836040518263ffffffff1660e01b81526004016117e89190614113565b60206040518083038186803b15801561180057600080fd5b505afa158015611814573d6000803e3d6000fd5b505050506040513d601f19601f820116820180604052508101906118389190613a51565b73ffffffffffffffffffffffffffffffffffffffff161461188e576040517f08c379a000000000000000000000000000000000000000000000000000000000815260040161188590614091565b60405180910390fd5b61189f611899612241565b846128a6565b60405180608001604052806118b2612241565b73ffffffffffffffffffffffffffffffffffffffff168152602001848152602001600c60009054906101000a900473ffffffffffffffffffffffffffffffffffffffff1673ffffffffffffffffffffffffffffffffffffffff1663c87b56dd866040518263ffffffff1660e01b815260040161192e9190614113565b60006040518083038186803b15801561194657600080fd5b505afa15801561195a573d6000803e3d6000fd5b505050506040513d6000823e3d601f19601f820116820180604052508101906119839190613c66565b815260200142815250600e600085815260200190815260200160002060008201518160000160006101000a81548173ffffffffffffffffffffffffffffffffffffffff021916908373ffffffffffffffffffffffffffffffffffffffff160217905550602082015181600101556040820151816002019080519060200190611a0c9291906137fa565b5060608201518160030155905050600c60009054906101000a900473ffffffffffffffffffffffffffffffffffffffff1673ffffffffffffffffffffffffffffffffffffffff1663c87b56dd846040518263ffffffff1660e01b8152600401611a759190614113565b60006040518083038186803b158015611a8d57600080fd5b505afa158015611aa1573d6000803e3d6000fd5b505050506040513d6000823e3d601f19601f82011682018060405250810190611aca9190613c66565b604051611ad79190613fb2565b604051809103902083611ae8612241565b73ffffffffffffffffffffffffffffffffffffffff167f5363bd182ff275819df0124c7369ca70b3da0413cb807a6050926baf82c9a7c560405160405180910390a46001915050919050565b611b45611b3f612241565b836123a1565b611b9a576040517f08c379a00000000000000000000000000000000000000000000000000000000081526004018080602001828103825260318152602001806145bd6031913960400191505060405180910390fd5b611ba684848484612a9a565b50505050565b6060611bb782612224565b611c0c576040517f08c379a000000000000000000000000000000000000000000000000000000000815260040180806020018281038252602f81526020018061456d602f913960400191505060405180910390fd5b6000600960008481526020019081526020016000208054600181600116156101000203166002900480601f016020809104026020016040519081016040528092919081815260200182805460018160011615610100020316600290048015611cb55780601f10611c8a57610100808354040283529160200191611cb5565b820191906000526020600020905b815481529060010190602001808311611c9857829003601f168201915b505050505090506000611cc66110aa565b9050600081511415611cdc578192505050611e78565b600082511115611dad5780826040516020018083805190602001908083835b60208310611d1e5780518252602082019150602081019050602083039250611cfb565b6001836020036101000a03801982511681845116808217855250505050505090500182805190602001908083835b60208310611d6f5780518252602082019150602081019050602083039250611d4c565b6001836020036101000a0380198251168184511680821785525050505050509050019250505060405160208183030381529060405292505050611e78565b80611db785612b0c565b6040516020018083805190602001908083835b60208310611ded5780518252602082019150602081019050602083039250611dca565b6001836020036101000a03801982511681845116808217855250505050505090500182805190602001908083835b60208310611e3e5780518252602082019150602081019050602083039250611e1b565b6001836020036101000a03801982511681845116808217855250505050505090500192505050604051602081830303815290604052925050505b919050565b611e85612241565b73ffffffffffffffffffffffffffffffffffffffff16611ea361149b565b73ffffffffffffffffffffffffffffffffffffffff1614611f2c576040517f08c379a00000000000000000000000000000000000000000000000000000000081526004018080602001828103825260208152602001807f4f776e61626c653a2063616c6c6572206973206e6f7420746865206f776e657281525060200191505060405180910390fd5b600d60149054906101000a900460ff1615600d60146101000a81548160ff0219169083151502179055507f52b85b02b7d21238e828a5c4da635eedf42851c8d1db199f9d414f941e89b650600d60149054906101000a900460ff16604051611f949190614030565b60405180910390a1565b6000600660008473ffffffffffffffffffffffffffffffffffffffff1673ffffffffffffffffffffffffffffffffffffffff16815260200190815260200160002060008373ffffffffffffffffffffffffffffffffffffffff1673ffffffffffffffffffffffffffffffffffffffff16815260200190815260200160002060009054906101000a900460ff16905092915050565b61203a612241565b73ffffffffffffffffffffffffffffffffffffffff1661205861149b565b73ffffffffffffffffffffffffffffffffffffffff16146120e1576040517f08c379a00000000000000000000000000000000000000000000000000000000081526004018080602001828103825260208152602001807f4f776e61626c653a2063616c6c6572206973206e6f7420746865206f776e657281525060200191505060405180910390fd5b600073ffffffffffffffffffffffffffffffffffffffff168173ffffffffffffffffffffffffffffffffffffffff161415612167576040517f08c379a00000000000000000000000000000000000000000000000000000000081526004018080602001828103825260268152602001806143a36026913960400191505060405180910390fd5b8073ffffffffffffffffffffffffffffffffffffffff1660008054906101000a900473ffffffffffffffffffffffffffffffffffffffff1673ffffffffffffffffffffffffffffffffffffffff167f8be0079c531659141344cd1fd0a4f28419497f9722a3daafe3b4186f6b6457e060405160405180910390a3806000806101000a81548173ffffffffffffffffffffffffffffffffffffffff021916908373ffffffffffffffffffffffffffffffffffffffff16021790555050565b600061223a826003612c5390919063ffffffff16565b9050919050565b600033905090565b816005600083815260200190815260200160002060006101000a81548173ffffffffffffffffffffffffffffffffffffffff021916908373ffffffffffffffffffffffffffffffffffffffff160217905550808273ffffffffffffffffffffffffffffffffffffffff166122bc83611073565b73ffffffffffffffffffffffffffffffffffffffff167f8c5be1e5ebec7d5bd14f71427d1e84f3dd0314c0f7b2291e5b200ac8c7c3b92560405160405180910390a45050565b61230b82612224565b612360576040517f08c379a000000000000000000000000000000000000000000000000000000000815260040180806020018281038252602c815260200180614518602c913960400191505060405180910390fd5b806009600084815260200190815260200160002090805190602001906123879291906137fa565b505050565b600061239a82600001612c6d565b9050919050565b60006123ac82612224565b612401576040517f08c379a000000000000000000000000000000000000000000000000000000000815260040180806020018281038252602c815260200180614413602c913960400191505060405180910390fd5b600061240c83611073565b90508073ffffffffffffffffffffffffffffffffffffffff168473ffffffffffffffffffffffffffffffffffffffff16148061247b57508373ffffffffffffffffffffffffffffffffffffffff166124638461074a565b73ffffffffffffffffffffffffffffffffffffffff16145b8061248c575061248b8185611f9e565b5b91505092915050565b8273ffffffffffffffffffffffffffffffffffffffff166124b582611073565b73ffffffffffffffffffffffffffffffffffffffff1614612521576040517f08c379a00000000000000000000000000000000000000000000000000000000081526004018080602001828103825260298152602001806145446029913960400191505060405180910390fd5b600073ffffffffffffffffffffffffffffffffffffffff168273ffffffffffffffffffffffffffffffffffffffff1614156125a7576040517f08c379a00000000000000000000000000000000000000000000000000000000081526004018080602001828103825260248152602001806143c96024913960400191505060405180910390fd5b6125b2838383612c7e565b6125bd600082612249565b61260e81600260008673ffffffffffffffffffffffffffffffffffffffff1673ffffffffffffffffffffffffffffffffffffffff168152602001908152602001600020612c8390919063ffffffff16565b5061266081600260008573ffffffffffffffffffffffffffffffffffffffff1673ffffffffffffffffffffffffffffffffffffffff168152602001908152602001600020612c9d90919063ffffffff16565b5061267781836003612cb79092919063ffffffff16565b50808273ffffffffffffffffffffffffffffffffffffffff168473ffffffffffffffffffffffffffffffffffffffff167fddf252ad1be2c89b69c2b068fc378daa952ba7f163c4a11628f55a4df523b3ef60405160405180910390a4505050565b60006126e382611073565b90506126f181600084612c7e565b6126fc600083612249565b6000600960008481526020019081526020016000208054600181600116156101000203166002900490501461274b5760096000838152602001908152602001600020600061274a91906137b2565b5b61279c82600260008473ffffffffffffffffffffffffffffffffffffffff1673ffffffffffffffffffffffffffffffffffffffff168152602001908152602001600020612c8390919063ffffffff16565b506127b1826003612cec90919063ffffffff16565b5081600073ffffffffffffffffffffffffffffffffffffffff168273ffffffffffffffffffffffffffffffffffffffff167fddf252ad1be2c89b69c2b068fc378daa952ba7f163c4a11628f55a4df523b3ef60405160405180910390a45050565b60006128218360000183612d06565b60001c905092915050565b60008060008061283f8660000186612d89565b915091508160001c8160001c9350935050509250929050565b80600a908051906020019061286e9291906137fa565b5050565b6000612885846000018460001b84612e22565b60001c90509392505050565b600061289f82600001612f18565b9050919050565b600073ffffffffffffffffffffffffffffffffffffffff168273ffffffffffffffffffffffffffffffffffffffff161415612949576040517f08c379a00000000000000000000000000000000000000000000000000000000081526004018080602001828103825260208152602001807f4552433732313a206d696e7420746f20746865207a65726f206164647265737381525060200191505060405180910390fd5b61295281612224565b156129c5576040517f08c379a000000000000000000000000000000000000000000000000000000000815260040180806020018281038252601c8152602001807f4552433732313a20746f6b656e20616c7265616479206d696e7465640000000081525060200191505060405180910390fd5b6129d160008383612c7e565b612a2281600260008573ffffffffffffffffffffffffffffffffffffffff1673ffffffffffffffffffffffffffffffffffffffff168152602001908152602001600020612c9d90919063ffffffff16565b50612a3981836003612cb79092919063ffffffff16565b50808273ffffffffffffffffffffffffffffffffffffffff16600073ffffffffffffffffffffffffffffffffffffffff167fddf252ad1be2c89b69c2b068fc378daa952ba7f163c4a11628f55a4df523b3ef60405160405180910390a45050565b612aa5848484612495565b612ab184848484612f29565b612b06576040517f08c379a00000000000000000000000000000000000000000000000000000000081526004018080602001828103825260328152602001806143716032913960400191505060405180910390fd5b50505050565b60606000821415612b54576040518060400160405280600181526020017f30000000000000000000000000000000000000000000000000000000000000008152509050612c4e565b600082905060005b60008214612b7e578080600101915050600a8281612b7657fe5b049150612b5c565b60008167ffffffffffffffff81118015612b9757600080fd5b506040519080825280601f01601f191660200182016040528015612bca5781602001600182028036833780820191505090505b50905060006001830390508593505b60008414612c4657600a8481612beb57fe5b0660300160f81b82828060019003935081518110612c0557fe5b60200101907effffffffffffffffffffffffffffffffffffffffffffffffffffffffffffff1916908160001a905350600a8481612c3e57fe5b049350612bd9565b819450505050505b919050565b6000612c65836000018360001b613142565b905092915050565b600081600001805490509050919050565b505050565b6000612c95836000018360001b613165565b905092915050565b6000612caf836000018360001b61324d565b905092915050565b6000612ce3846000018460001b8473ffffffffffffffffffffffffffffffffffffffff1660001b6132bd565b90509392505050565b6000612cfe836000018360001b613399565b905092915050565b600081836000018054905011612d67576040517f08c379a000000000000000000000000000000000000000000000000000000000815260040180806020018281038252602281526020018061434f6022913960400191505060405180910390fd5b826000018281548110612d7657fe5b9060005260206000200154905092915050565b60008082846000018054905011612deb576040517f08c379a00000000000000000000000000000000000000000000000000000000081526004018080602001828103825260228152602001806144ca6022913960400191505060405180910390fd5b6000846000018481548110612dfc57fe5b906000526020600020906002020190508060000154816001015492509250509250929050565b60008084600101600085815260200190815260200160002054905060008114158390612ee9576040517f08c379a00000000000000000000000000000000000000000000000000000000081526004018080602001828103825283818151815260200191508051906020019080838360005b83811015612eae578082015181840152602081019050612e93565b50505050905090810190601f168015612edb5780820380516001836020036101000a031916815260200191505b509250505060405180910390fd5b50846000016001820381548110612efc57fe5b9060005260206000209060020201600101549150509392505050565b600081600001805490509050919050565b6000612f4a8473ffffffffffffffffffffffffffffffffffffffff166134b2565b612f57576001905061313a565b60006130c163150b7a0260e01b612f6c612241565b888787604051602401808573ffffffffffffffffffffffffffffffffffffffff1681526020018473ffffffffffffffffffffffffffffffffffffffff16815260200183815260200180602001828103825283818151815260200191508051906020019080838360005b83811015612ff0578082015181840152602081019050612fd5565b50505050905090810190601f16801561301d5780820380516001836020036101000a031916815260200191505b5095505050505050604051602081830303815290604052907bffffffffffffffffffffffffffffffffffffffffffffffffffffffff19166020820180517bffffffffffffffffffffffffffffffffffffffffffffffffffffffff8381831617835250505050604051806060016040528060328152602001614371603291398773ffffffffffffffffffffffffffffffffffffffff166134c59092919063ffffffff16565b905060008180602001905160208110156130da57600080fd5b8101908080519060200190929190505050905063150b7a0260e01b7bffffffffffffffffffffffffffffffffffffffffffffffffffffffff1916817bffffffffffffffffffffffffffffffffffffffffffffffffffffffff191614925050505b949350505050565b600080836001016000848152602001908152602001600020541415905092915050565b6000808360010160008481526020019081526020016000205490506000811461324157600060018203905060006001866000018054905003905060008660000182815481106131b057fe5b90600052602060002001549050808760000184815481106131cd57fe5b906000526020600020018190555060018301876001016000838152602001908152602001600020819055508660000180548061320557fe5b60019003818190600052602060002001600090559055866001016000878152602001908152602001600020600090556001945050505050613247565b60009150505b92915050565b600061325983836134dd565b6132b25782600001829080600181540180825580915050600190039060005260206000200160009091909190915055826000018054905083600101600084815260200190815260200160002081905550600190506132b7565b600090505b92915050565b600080846001016000858152602001908152602001600020549050600081141561336457846000016040518060400160405280868152602001858152509080600181540180825580915050600190039060005260206000209060020201600090919091909150600082015181600001556020820151816001015550508460000180549050856001016000868152602001908152602001600020819055506001915050613392565b8285600001600183038154811061337757fe5b90600052602060002090600202016001018190555060009150505b9392505050565b600080836001016000848152602001908152602001600020549050600081146134a657600060018203905060006001866000018054905003905060008660000182815481106133e457fe5b906000526020600020906002020190508087600001848154811061340457fe5b906000526020600020906002020160008201548160000155600182015481600101559050506001830187600101600083600001548152602001908152602001600020819055508660000180548061345757fe5b60019003818190600052602060002090600202016000808201600090556001820160009055505090558660010160008781526020019081526020016000206000905560019450505050506134ac565b60009150505b92915050565b600080823b905060008111915050919050565b60606134d48484600085613500565b90509392505050565b600080836001016000848152602001908152602001600020541415905092915050565b60608247101561355b576040517f08c379a00000000000000000000000000000000000000000000000000000000081526004018080602001828103825260268152602001806143ed6026913960400191505060405180910390fd5b613564856134b2565b6135d6576040517f08c379a000000000000000000000000000000000000000000000000000000000815260040180806020018281038252601d8152602001807f416464726573733a2063616c6c20746f206e6f6e2d636f6e747261637400000081525060200191505060405180910390fd5b6000808673ffffffffffffffffffffffffffffffffffffffff1685876040518082805190602001908083835b602083106136255780518252602082019150602081019050602083039250613602565b6001836020036101000a03801982511681845116808217855250505050505090500191505060006040518083038185875af1925050503d8060008114613687576040519150601f19603f3d011682016040523d82523d6000602084013e61368c565b606091505b509150915061369c8282866136a8565b92505050949350505050565b606083156136b85782905061376d565b6000835111156136cb5782518084602001fd5b816040517f08c379a00000000000000000000000000000000000000000000000000000000081526004018080602001828103825283818151815260200191508051906020019080838360005b83811015613732578082015181840152602081019050613717565b50505050905090810190601f16801561375f5780820380516001836020036101000a031916815260200191505b509250505060405180910390fd5b9392505050565b6040518060800160405280600073ffffffffffffffffffffffffffffffffffffffff1681526020016000815260200160608152602001600081525090565b50805460018160011615610100020316600290046000825580601f106137d857506137f7565b601f0160209004906000526020600020908101906137f69190613888565b5b50565b828054600181600116156101000203166002900490600052602060002090601f0160209004810192826138305760008555613877565b82601f1061384957805160ff1916838001178555613877565b82800160010185558215613877579182015b8281111561387657825182559160200191906001019061385b565b5b5090506138849190613888565b5090565b5b808211156138a1576000816000905550600101613889565b5090565b60006138b86138b384614191565b614160565b9050828152602081018484840111156138d057600080fd5b6138db84828561429d565b509392505050565b60006138f66138f1846141c1565b614160565b90508281526020810184848401111561390e57600080fd5b6139198482856142ac565b509392505050565b600081359050613930816142f2565b92915050565b600081519050613945816142f2565b92915050565b60008135905061395a81614309565b92915050565b60008135905061396f81614320565b92915050565b600082601f83011261398657600080fd5b81356139968482602086016138a5565b91505092915050565b60008083601f8401126139b157600080fd5b8235905067ffffffffffffffff8111156139ca57600080fd5b6020830191508360018202830111156139e257600080fd5b9250929050565b600082601f8301126139fa57600080fd5b8151613a0a8482602086016138e3565b91505092915050565b600081359050613a2281614337565b92915050565b600060208284031215613a3a57600080fd5b6000613a4884828501613921565b91505092915050565b600060208284031215613a6357600080fd5b6000613a7184828501613936565b91505092915050565b60008060408385031215613a8d57600080fd5b6000613a9b85828601613921565b9250506020613aac85828601613921565b9150509250929050565b600080600060608486031215613acb57600080fd5b6000613ad986828701613921565b9350506020613aea86828701613921565b9250506040613afb86828701613a13565b9150509250925092565b60008060008060808587031215613b1b57600080fd5b6000613b2987828801613921565b9450506020613b3a87828801613921565b9350506040613b4b87828801613a13565b925050606085013567ffffffffffffffff811115613b6857600080fd5b613b7487828801613975565b91505092959194509250565b60008060408385031215613b9357600080fd5b6000613ba185828601613921565b9250506020613bb28582860161394b565b9150509250929050565b60008060408385031215613bcf57600080fd5b6000613bdd85828601613921565b9250506020613bee85828601613a13565b9150509250929050565b600060208284031215613c0a57600080fd5b6000613c1884828501613960565b91505092915050565b60008060208385031215613c3457600080fd5b600083013567ffffffffffffffff811115613c4e57600080fd5b613c5a8582860161399f565b92509250509250929050565b600060208284031215613c7857600080fd5b600082015167ffffffffffffffff811115613c9257600080fd5b613c9e848285016139e9565b91505092915050565b600060208284031215613cb957600080fd5b6000613cc784828501613a13565b91505092915050565b600080600060408486031215613ce557600080fd5b6000613cf386828701613a13565b935050602084013567ffffffffffffffff811115613d1057600080fd5b613d1c8682870161399f565b92509250509250925092565b613d3181614229565b82525050565b613d4081614229565b82525050565b613d4f8161423b565b82525050565b6000613d61838561420d565b9350613d6e83858461429d565b613d77836142e1565b840190509392505050565b6000613d8d826141f1565b613d9781856141fc565b9350613da78185602086016142ac565b613db0816142e1565b840191505092915050565b6000613dc6826141f1565b613dd0818561420d565b9350613de08185602086016142ac565b613de9816142e1565b840191505092915050565b6000613dff826141f1565b613e09818561421e565b9350613e198185602086016142ac565b80840191505092915050565b6000613e3260328361420d565b91507f537570655261726556323a204e6f7420746865204f776e6572206f662074686560008301527f205375706552617265563120546f6b656e2100000000000000000000000000006020830152604082019050919050565b6000613e9860228361420d565b91507f53757065526172652056323a20746f6b656e494420646f65736e27742065786960008301527f73740000000000000000000000000000000000000000000000000000000000006020830152604082019050919050565b6000613efe60118361420d565b91507f4445504f534954535f44495341424c45440000000000000000000000000000006000830152602082019050919050565b6000608083016000830151613f496000860182613d28565b506020830151613f5c6020860182613f94565b5060408301518482036040860152613f748282613d82565b9150506060830151613f896060860182613f94565b508091505092915050565b613f9d81614293565b82525050565b613fac81614293565b82525050565b6000613fbe8284613df4565b915081905092915050565b6000602082019050613fde6000830184613d37565b92915050565b6000608082019050613ff96000830187613d37565b6140066020830186613fa3565b81810360408301526140188185613dbb565b90506140276060830184613fa3565b95945050505050565b60006020820190506140456000830184613d46565b92915050565b60006020820190508181036000830152614066818486613d55565b90509392505050565b600060208201905081810360008301526140898184613dbb565b905092915050565b600060208201905081810360008301526140aa81613e25565b9050919050565b600060208201905081810360008301526140ca81613e8b565b9050919050565b600060208201905081810360008301526140ea81613ef1565b9050919050565b6000602082019050818103600083015261410b8184613f31565b905092915050565b60006020820190506141286000830184613fa3565b92915050565b60006040820190506141436000830186613fa3565b8181036020830152614156818486613d55565b9050949350505050565b6000604051905081810181811067ffffffffffffffff82111715614187576141866142df565b5b8060405250919050565b600067ffffffffffffffff8211156141ac576141ab6142df565b5b601f19601f8301169050602081019050919050565b600067ffffffffffffffff8211156141dc576141db6142df565b5b601f19601f8301169050602081019050919050565b600081519050919050565b600082825260208201905092915050565b600082825260208201905092915050565b600081905092915050565b600061423482614273565b9050919050565b60008115159050919050565b60007fffffffff0000000000000000000000000000000000000000000000000000000082169050919050565b600073ffffffffffffffffffffffffffffffffffffffff82169050919050565b6000819050919050565b82818337600083830152505050565b60005b838110156142ca5780820151818401526020810190506142af565b838111156142d9576000848401525b50505050565bfe5b6000601f19601f8301169050919050565b6142fb81614229565b811461430657600080fd5b50565b6143128161423b565b811461431d57600080fd5b50565b61432981614247565b811461433457600080fd5b50565b61434081614293565b811461434b57600080fd5b5056fe456e756d657261626c655365743a20696e646578206f7574206f6620626f756e64734552433732313a207472616e7366657220746f206e6f6e20455243373231526563656976657220696d706c656d656e7465724f776e61626c653a206e6577206f776e657220697320746865207a65726f20616464726573734552433732313a207472616e7366657220746f20746865207a65726f2061646472657373416464726573733a20696e73756666696369656e742062616c616e636520666f722063616c6c4552433732313a206f70657261746f7220717565727920666f72206e6f6e6578697374656e7420746f6b656e4552433732313a20617070726f76652063616c6c6572206973206e6f74206f776e6572206e6f7220617070726f76656420666f7220616c6c4552433732313a2062616c616e636520717565727920666f7220746865207a65726f20616464726573734552433732313a206f776e657220717565727920666f72206e6f6e6578697374656e7420746f6b656e456e756d657261626c654d61703a20696e646578206f7574206f6620626f756e64734552433732313a20617070726f76656420717565727920666f72206e6f6e6578697374656e7420746f6b656e4552433732314d657461646174613a2055524920736574206f66206e6f6e6578697374656e7420746f6b656e4552433732313a207472616e73666572206f6620746f6b656e2074686174206973206e6f74206f776e4552433732314d657461646174613a2055524920717565727920666f72206e6f6e6578697374656e7420746f6b656e4552433732313a20617070726f76616c20746f2063757272656e74206f776e65724552433732313a207472616e736665722063616c6c6572206973206e6f74206f776e6572206e6f7220617070726f766564a2646970667358221220f71f484fcc53cddb034104537738a4a0f910163db57e73089531c6b1e70e0f1464736f6c63430007060033",
  "linkReferences": {},
  "deployedLinkReferences": {}
}