{
  "_format": "hh-sol-artifact-1",
  "contractName": "SupeRareV2",
  "sourceName": "contracts/SupeRareV2.sol",
  "abi": [
    {
      "inputs": [
        {
          "internalType": "address",
          "name": "OriginalSupeRareAddr__",
          "type": "address"
        }
      ],
      "stateMutability": "nonpayable",
      "type": "constructor"
    },
    {
      "anonymous": false,
      "inputs": [
        {
          "indexed": true,
          "internalType": "address",
          "name": "owner",
          "type": "address"
        },
        {
          "indexed": true,
          "internalType": "address",
          "name": "approved",
          "type": "address"
        },
        {
          "indexed": true,
          "internalType": "uint256",
          "name": "tokenId",
          "type": "uint256"
        }
      ],
      "name": "Approval",
      "type": "event"
    },
    {
      "anonymous": false,
      "inputs": [
        {
          "indexed": true,
          "internalType": "address",
          "name": "owner",
          "type": "address"
        },
        {
          "indexed": true,
          "internalType": "address",
          "name": "operator",
          "type": "address"
        },
        {
          "indexed": false,
          "internalType": "bool",
          "name": "approved",
          "type": "bool"
        }
      ],
      "name": "ApprovalForAll",
      "type": "event"
    },
    {
      "anonymous": false,
      "inputs": [
        {
          "indexed": false,
          "internalType": "string",
          "name": "_baseURI",
          "type": "string"
        }
      ],
      "name": "BaseURISet",
      "type": "event"
    },
    {
      "anonymous": false,
      "inputs": [
        {
          "indexed": true,
          "internalType": "address",
          "name": "previousOwner",
          "type": "address"
        },
        {
          "indexed": true,
          "internalType": "address",
          "name": "newOwner",
          "type": "address"
        }
      ],
      "name": "OwnershipTransferred",
      "type": "event"
    },
    {
      "anonymous": false,
      "inputs": [
        {
          "indexed": true,
          "internalType": "address",
          "name": "OrigV1Owner",
          "type": "address"
        },
        {
          "indexed": true,
          "internalType": "address",
          "name": "NewV1Owner",
          "type": "address"
        },
        {
          "indexed": true,
          "internalType": "uint256",
          "name": "v1TokenId",
          "type": "uint256"
        }
      ],
      "name": "OwnershipUpdated",
      "type": "event"
    },
    {
      "anonymous": false,
      "inputs": [
        {
          "indexed": true,
          "internalType": "address",
          "name": "tokenOwner",
          "type": "address"
        },
        {
          "indexed": true,
          "internalType": "uint256",
          "name": "_tokenId",
          "type": "uint256"
        },
        {
          "indexed": true,
          "internalType": "string",
          "name": "tokenURI",
          "type": "string"
        }
      ],
      "name": "PositionCreated",
      "type": "event"
    },
    {
      "anonymous": false,
      "inputs": [
        {
          "indexed": true,
          "internalType": "address",
          "name": "OrigOwner",
          "type": "address"
        },
        {
          "indexed": true,
          "internalType": "uint256",
          "name": "_tokenId",
          "type": "uint256"
        }
      ],
      "name": "PositionDeleted",
      "type": "event"
    },
    {
      "anonymous": false,
      "inputs": [
        {
          "indexed": false,
          "internalType": "bool",
          "name": "",
          "type": "bool"
        }
      ],
      "name": "ToggleStartStop",
      "type": "event"
    },
    {
      "anonymous": false,
      "inputs": [
        {
          "indexed": false,
          "internalType": "uint256",
          "name": "_tokenId",
          "type": "uint256"
        },
        {
          "indexed": false,
          "internalType": "string",
          "name": "_tokenURI",
          "type": "string"
        }
      ],
      "name": "TokenURISet",
      "type": "event"
    },
    {
      "anonymous": false,
      "inputs": [
        {
          "indexed": true,
          "internalType": "address",
          "name": "from",
          "type": "address"
        },
        {
          "indexed": true,
          "internalType": "address",
          "name": "to",
          "type": "address"
        },
        {
          "indexed": true,
          "internalType": "uint256",
          "name": "tokenId",
          "type": "uint256"
        }
      ],
      "name": "Transfer",
      "type": "event"
    },
    {
      "anonymous": false,
      "inputs": [
        {
          "indexed": true,
          "internalType": "address",
          "name": "tokenOwner",
          "type": "address"
        },
        {
          "indexed": true,
          "internalType": "uint256",
          "name": "_tokenId",
          "type": "uint256"
        }
      ],
      "name": "V1TokenDeposited",
      "type": "event"
    },
    {
      "stateMutability": "nonpayable",
      "type": "fallback"
    },
    {
      "inputs": [],
      "name": "ToggleContract",
      "outputs": [],
      "stateMutability": "nonpayable",
      "type": "function"
    },
    {
      "inputs": [
        {
          "internalType": "uint256",
          "name": "",
          "type": "uint256"
        }
      ],
      "name": "V1Position",
      "outputs": [
        {
          "internalType": "address",
          "name": "tokenOwner",
          "type": "address"
        },
        {
          "internalType": "uint256",
          "name": "tokenID",
          "type": "uint256"
        },
        {
          "internalType": "string",
          "name": "tokenURI",
          "type": "string"
        },
        {
          "internalType": "uint256",
          "name": "timeStamp",
          "type": "uint256"
        }
      ],
      "stateMutability": "view",
      "type": "function"
    },
    {
      "inputs": [
        {
          "internalType": "address",
          "name": "to",
          "type": "address"
        },
        {
          "internalType": "uint256",
          "name": "tokenId",
          "type": "uint256"
        }
      ],
      "name": "approve",
      "outputs": [],
      "stateMutability": "nonpayable",
      "type": "function"
    },
    {
      "inputs": [
        {
          "internalType": "address",
          "name": "account",
          "type": "address"
        }
      ],
      "name": "balanceOf",
      "outputs": [
        {
          "internalType": "uint256",
          "name": "",
          "type": "uint256"
        }
      ],
      "stateMutability": "view",
      "type": "function"
    },
    {
      "inputs": [],
      "name": "baseURI",
      "outputs": [
        {
          "internalType": "string",
          "name": "",
          "type": "string"
        }
      ],
      "stateMutability": "view",
      "type": "function"
    },
    {
      "inputs": [],
      "name": "contract_status",
      "outputs": [
        {
          "internalType": "bool",
          "name": "",
          "type": "bool"
        }
      ],
      "stateMutability": "view",
      "type": "function"
    },
    {
      "inputs": [
        {
          "internalType": "uint256",
          "name": "tokenId",
          "type": "uint256"
        }
      ],
      "name": "getApproved",
      "outputs": [
        {
          "internalType": "address",
          "name": "",
          "type": "address"
        }
      ],
      "stateMutability": "view",
      "type": "function"
    },
    {
      "inputs": [
        {
          "internalType": "uint256",
          "name": "tokenId",
          "type": "uint256"
        }
      ],
      "name": "getOwnerDeposit",
      "outputs": [
        {
          "internalType": "address",
          "name": "",
          "type": "address"
        }
      ],
      "stateMutability": "view",
      "type": "function"
    },
    {
      "inputs": [
        {
          "internalType": "uint256",
          "name": "_tokenId",
          "type": "uint256"
        }
      ],
      "name": "getOwnerPosition",
      "outputs": [
        {
          "components": [
            {
              "internalType": "address",
              "name": "tokenOwner",
              "type": "address"
            },
            {
              "internalType": "uint256",
              "name": "tokenID",
              "type": "uint256"
            },
            {
              "internalType": "string",
              "name": "tokenURI",
              "type": "string"
            },
            {
              "internalType": "uint256",
              "name": "timeStamp",
              "type": "uint256"
            }
          ],
          "internalType": "struct SupeRareV2.Position",
          "name": "",
          "type": "tuple"
        }
      ],
      "stateMutability": "view",
      "type": "function"
    },
    {
      "inputs": [],
      "name": "getSupeRareAddress",
      "outputs": [
        {
          "internalType": "address",
          "name": "",
          "type": "address"
        }
      ],
      "stateMutability": "view",
      "type": "function"
    },
    {
      "inputs": [
        {
          "internalType": "address",
          "name": "owner",
          "type": "address"
        },
        {
          "internalType": "address",
          "name": "operator",
          "type": "address"
        }
      ],
      "name": "isApprovedForAll",
      "outputs": [
        {
          "internalType": "bool",
          "name": "",
          "type": "bool"
        }
      ],
      "stateMutability": "view",
      "type": "function"
    },
    {
      "inputs": [
        {
          "internalType": "uint256",
          "name": "_tokenId",
          "type": "uint256"
        }
      ],
      "name": "mintV2",
      "outputs": [
        {
          "internalType": "bool",
          "name": "",
          "type": "bool"
        }
      ],
      "stateMutability": "nonpayable",
      "type": "function"
    },
    {
      "inputs": [],
      "name": "name",
      "outputs": [
        {
          "internalType": "string",
          "name": "",
          "type": "string"
        }
      ],
      "stateMutability": "view",
      "type": "function"
    },
    {
      "inputs": [
        {
          "internalType": "address",
          "name": "",
          "type": "address"
        },
        {
          "internalType": "address",
          "name": "",
          "type": "address"
        },
        {
          "internalType": "uint256",
          "name": "",
          "type": "uint256"
        },
        {
          "internalType": "bytes",
          "name": "",
          "type": "bytes"
        }
      ],
      "name": "onERC721Received",
      "outputs": [
        {
          "internalType": "bytes4",
          "name": "",
          "type": "bytes4"
        }
      ],
      "stateMutability": "view",
      "type": "function"
    },
    {
      "inputs": [],
      "name": "owner",
      "outputs": [
        {
          "internalType": "address",
          "name": "",
          "type": "address"
        }
      ],
      "stateMutability": "view",
      "type": "function"
    },
    {
      "inputs": [
        {
          "internalType": "address",
          "name": "",
          "type": "address"
        },
        {
          "internalType": "uint256",
          "name": "",
          "type": "uint256"
        }
      ],
      "name": "ownerAddrToV1toV2TokenId",
      "outputs": [
        {
          "internalType": "uint256",
          "name": "",
          "type": "uint256"
        }
      ],
      "stateMutability": "view",
      "type": "function"
    },
    {
      "inputs": [
        {
          "internalType": "uint256",
          "name": "tokenId",
          "type": "uint256"
        }
      ],
      "name": "ownerOf",
      "outputs": [
        {
          "internalType": "address",
          "name": "",
          "type": "address"
        }
      ],
      "stateMutability": "view",
      "type": "function"
    },
    {
      "inputs": [],
      "name": "renounceOwnership",
      "outputs": [],
      "stateMutability": "nonpayable",
      "type": "function"
    },
    {
      "inputs": [
        {
          "internalType": "address",
          "name": "from",
          "type": "address"
        },
        {
          "internalType": "address",
          "name": "to",
          "type": "address"
        },
        {
          "internalType": "uint256",
          "name": "tokenId",
          "type": "uint256"
        }
      ],
      "name": "safeTransferFrom",
      "outputs": [],
      "stateMutability": "nonpayable",
      "type": "function"
    },
    {
      "inputs": [
        {
          "internalType": "address",
          "name": "from",
          "type": "address"
        },
        {
          "internalType": "address",
          "name": "to",
          "type": "address"
        },
        {
          "internalType": "uint256",
          "name": "tokenId",
          "type": "uint256"
        },
        {
          "internalType": "bytes",
          "name": "_data",
          "type": "bytes"
        }
      ],
      "name": "safeTransferFrom",
      "outputs": [],
      "stateMutability": "nonpayable",
      "type": "function"
    },
    {
      "inputs": [
        {
          "internalType": "address",
          "name": "operator",
          "type": "address"
        },
        {
          "internalType": "bool",
          "name": "approved",
          "type": "bool"
        }
      ],
      "name": "setApprovalForAll",
      "outputs": [],
      "stateMutability": "nonpayable",
      "type": "function"
    },
    {
      "inputs": [
        {
          "internalType": "string",
          "name": "baseURI",
          "type": "string"
        }
      ],
      "name": "setBaseURI",
      "outputs": [
        {
          "internalType": "bool",
          "name": "",
          "type": "bool"
        }
      ],
      "stateMutability": "nonpayable",
      "type": "function"
    },
    {
      "inputs": [
        {
          "internalType": "uint256",
          "name": "_tokenId",
          "type": "uint256"
        },
        {
          "internalType": "string",
          "name": "_tokenURI",
          "type": "string"
        }
      ],
      "name": "setTokenURI",
      "outputs": [
        {
          "internalType": "bool",
          "name": "",
          "type": "bool"
        }
      ],
      "stateMutability": "nonpayable",
      "type": "function"
    },
    {
      "inputs": [
        {
          "internalType": "bytes4",
          "name": "interfaceId",
          "type": "bytes4"
        }
      ],
      "name": "supportsInterface",
      "outputs": [
        {
          "internalType": "bool",
          "name": "",
          "type": "bool"
        }
      ],
      "stateMutability": "view",
      "type": "function"
    },
    {
      "inputs": [],
      "name": "symbol",
      "outputs": [
        {
          "internalType": "string",
          "name": "",
          "type": "string"
        }
      ],
      "stateMutability": "view",
      "type": "function"
    },
    {
      "inputs": [
        {
          "internalType": "uint256",
          "name": "index",
          "type": "uint256"
        }
      ],
      "name": "tokenByIndex",
      "outputs": [
        {
          "internalType": "uint256",
          "name": "",
          "type": "uint256"
        }
      ],
      "stateMutability": "view",
      "type": "function"
    },
    {
      "inputs": [
        {
          "internalType": "address",
          "name": "owner",
          "type": "address"
        },
        {
          "internalType": "uint256",
          "name": "index",
          "type": "uint256"
        }
      ],
      "name": "tokenOfOwnerByIndex",
      "outputs": [
        {
          "internalType": "uint256",
          "name": "",
          "type": "uint256"
        }
      ],
      "stateMutability": "view",
      "type": "function"
    },
    {
      "inputs": [
        {
          "internalType": "uint256",
          "name": "tokenId",
          "type": "uint256"
        }
      ],
      "name": "tokenURI",
      "outputs": [
        {
          "internalType": "string",
          "name": "",
          "type": "string"
        }
      ],
      "stateMutability": "view",
      "type": "function"
    },
    {
      "inputs": [],
      "name": "totalSupply",
      "outputs": [
        {
          "internalType": "uint256",
          "name": "",
          "type": "uint256"
        }
      ],
      "stateMutability": "view",
      "type": "function"
    },
    {
      "inputs": [
        {
          "internalType": "address",
          "name": "from",
          "type": "address"
        },
        {
          "internalType": "address",
          "name": "to",
          "type": "address"
        },
        {
          "internalType": "uint256",
          "name": "tokenId",
          "type": "uint256"
        }
      ],
      "name": "transferFrom",
      "outputs": [],
      "stateMutability": "nonpayable",
      "type": "function"
    },
    {
      "inputs": [
        {
          "internalType": "address",
          "name": "newOwner",
          "type": "address"
        }
      ],
      "name": "transferOwnership",
      "outputs": [],
      "stateMutability": "nonpayable",
      "type": "function"
    },
    {
      "inputs": [
        {
          "internalType": "uint256",
          "name": "",
          "type": "uint256"
        }
      ],
      "name": "v1_v2_peg",
      "outputs": [
        {
          "internalType": "uint256",
          "name": "",
          "type": "uint256"
        }
      ],
      "stateMutability": "view",
      "type": "function"
    },
    {
      "inputs": [
        {
          "internalType": "uint256",
          "name": "_tokenId",
          "type": "uint256"
        }
      ],
      "name": "withdraw",
      "outputs": [
        {
          "internalType": "bool",
          "name": "",
          "type": "bool"
        }
      ],
      "stateMutability": "nonpayable",
      "type": "function"
    },
    {
      "stateMutability": "payable",
      "type": "receive"
    }
  ],
  "bytecode": "0x60806040526040518060400160405280600881526020017f5375706552617265000000000000000000000000000000000000000000000000815250600e90805190602001906200005192919062000559565b506040518060400160405280600481526020017f5355505200000000000000000000000000000000000000000000000000000000815250600f90805190602001906200009f92919062000559565b50348015620000ad57600080fd5b5060405162004e7338038062004e738339818101604052810190620000d3919062000626565b600e8054600181600116156101000203166002900480601f0160208091040260200160405190810160405280929190818152602001828054600181600116156101000203166002900480156200016d5780601f1062000141576101008083540402835291602001916200016d565b820191906000526020600020905b8154815290600101906020018083116200014f57829003601f168201915b5050505050600f8054600181600116156101000203166002900480601f0160208091040260200160405190810160405280929190818152602001828054600181600116156101000203166002900480156200020c5780601f10620001e0576101008083540402835291602001916200020c565b820191906000526020600020905b815481529060010190602001808311620001ee57829003601f168201915b50505050506000620002236200044860201b60201c565b9050806000806101000a81548173ffffffffffffffffffffffffffffffffffffffff021916908373ffffffffffffffffffffffffffffffffffffffff1602179055508073ffffffffffffffffffffffffffffffffffffffff16600073ffffffffffffffffffffffffffffffffffffffff167f8be0079c531659141344cd1fd0a4f28419497f9722a3daafe3b4186f6b6457e060405160405180910390a350620002d96301ffc9a760e01b6200045060201b60201c565b8160079080519060200190620002f192919062000559565b5080600890805190602001906200030a92919062000559565b50620003236380ac58cd60e01b6200045060201b60201c565b6200033b635b5e139f60e01b6200045060201b60201c565b6200035363780e9d6360e01b6200045060201b60201c565b505080600b60006101000a81548173ffffffffffffffffffffffffffffffffffffffff021916908373ffffffffffffffffffffffffffffffffffffffff160217905550600b60009054906101000a900473ffffffffffffffffffffffffffffffffffffffff16600c60006101000a81548173ffffffffffffffffffffffffffffffffffffffff021916908373ffffffffffffffffffffffffffffffffffffffff160217905550620004116380ac58cd60e01b6200045060201b60201c565b62000429635b5e139f60e01b6200045060201b60201c565b6200044163780e9d6360e01b6200045060201b60201c565b50620006a0565b600033905090565b63ffffffff60e01b817bffffffffffffffffffffffffffffffffffffffffffffffffffffffff19161415620004ed576040517f08c379a000000000000000000000000000000000000000000000000000000000815260040180806020018281038252601c8152602001807f4552433136353a20696e76616c696420696e746572666163652069640000000081525060200191505060405180910390fd5b6001806000837bffffffffffffffffffffffffffffffffffffffffffffffffffffffff19167bffffffffffffffffffffffffffffffffffffffffffffffffffffffff1916815260200190815260200160002060006101000a81548160ff02191690831515021790555050565b828054600181600116156101000203166002900490600052602060002090601f016020900481019282620005915760008555620005dd565b82601f10620005ac57805160ff1916838001178555620005dd565b82800160010185558215620005dd579182015b82811115620005dc578251825591602001919060010190620005bf565b5b509050620005ec9190620005f0565b5090565b5b808211156200060b576000816000905550600101620005f1565b5090565b600081519050620006208162000686565b92915050565b6000602082840312156200063957600080fd5b600062000649848285016200060f565b91505092915050565b60006200065f8262000666565b9050919050565b600073ffffffffffffffffffffffffffffffffffffffff82169050919050565b620006918162000652565b81146200069d57600080fd5b50565b6147c380620006b06000396000f3fe6080604052600436106101f25760003560e01c80636352211e1161010d57806395d89b41116100a0578063b88d4fde1161006f578063b88d4fde146109f7578063c87b56dd14610a20578063cfa2e00414610a5d578063e985e9c514610a74578063f2fde38b14610ab157610318565b806395d89b41146109295780639c1c8ac814610954578063a22cb46514610991578063ad360f58146109ba57610318565b806370a08231116100dc57806370a082311461086d578063715018a6146108aa57806387d45d01146108c15780638da5cb5b146108fe57610318565b80636352211e146107885780636c0360eb146107c55780636c0e6754146107f05780636d35f9ae1461082d57610318565b806323b872dd11610185578063364647891161015457806336464789146106ba57806342842e0e146106e55780634f6ccce71461070e57806355f804b31461074b57610318565b806323b872dd146105ec5780632b1bf48f146106155780632e1a7d4d146106405780632f745c591461067d57610318565b80630a4c3381116101c15780630a4c33811461050a578063150b7a0214610547578063162094c41461058457806318160ddd146105c157610318565b806301ffc9a71461043c57806306fdde0314610479578063081812fc146104a4578063095ea7b3146104e157610318565b36610318576102356040518060400160405280601b81526020017f66616c6c6261636b2066756e6374696f6e206163746976617465640000000000815250610ada565b366000803691509150818160049080926102519392919061439c565b915091506000808383600490809261026b9392919061439c565b8101906102789190613bb4565b91509150816011600083815260200190815260200160002060006101000a81548173ffffffffffffffffffffffffffffffffffffffff021916908373ffffffffffffffffffffffffffffffffffffffff160217905550808273ffffffffffffffffffffffffffffffffffffffff167f2cc9d3480e6264a02023c772677c639a7b97809a46bfc0c9d2eaa7e897d07ca060405160405180910390a350505050005b34801561032457600080fd5b5060003660606103686040518060400160405280601b81526020017f66616c6c6261636b2066756e6374696f6e206163746976617465640000000000815250610ada565b6000808484600490809261037e9392919061439c565b81019061038b9190613bb4565b91509150816011600083815260200190815260200160002060006101000a81548173ffffffffffffffffffffffffffffffffffffffff021916908373ffffffffffffffffffffffffffffffffffffffff160217905550808273ffffffffffffffffffffffffffffffffffffffff167f2cc9d3480e6264a02023c772677c639a7b97809a46bfc0c9d2eaa7e897d07ca060405160405180910390a361042d610bd8565b92505050915050805190602001f35b34801561044857600080fd5b50610463600480360381019061045e9190613d6e565b610c25565b6040516104709190614193565b60405180910390f35b34801561048557600080fd5b5061048e610c8d565b60405161049b91906141ed565b60405180910390f35b3480156104b057600080fd5b506104cb60048036038101906104c69190613e1d565b610d2f565b6040516104d8919061412c565b60405180910390f35b3480156104ed57600080fd5b5061050860048036038101906105039190613d32565b610dca565b005b34801561051657600080fd5b50610531600480360381019061052c9190613e1d565b610f0e565b60405161053e919061426f565b60405180910390f35b34801561055357600080fd5b5061056e60048036038101906105699190613c7b565b61108f565b60405161057b91906141ae565b60405180910390f35b34801561059057600080fd5b506105ab60048036038101906105a69190613e46565b6110b3565b6040516105b89190614193565b60405180910390f35b3480156105cd57600080fd5b506105d66111f8565b6040516105e39190614291565b60405180910390f35b3480156105f857600080fd5b50610613600480360381019061060e9190613c2c565b611209565b005b34801561062157600080fd5b5061062a61127f565b6040516106379190614193565b60405180910390f35b34801561064c57600080fd5b5061066760048036038101906106629190613e1d565b611296565b6040516106749190614193565b60405180910390f35b34801561068957600080fd5b506106a4600480360381019061069f9190613d32565b6113fc565b6040516106b19190614291565b60405180910390f35b3480156106c657600080fd5b506106cf611457565b6040516106dc919061412c565b60405180910390f35b3480156106f157600080fd5b5061070c60048036038101906107079190613c2c565b611481565b005b34801561071a57600080fd5b5061073560048036038101906107309190613e1d565b6114a1565b6040516107429190614291565b60405180910390f35b34801561075757600080fd5b50610772600480360381019061076d9190613d97565b6114c4565b60405161077f9190614193565b60405180910390f35b34801561079457600080fd5b506107af60048036038101906107aa9190613e1d565b611605565b6040516107bc919061412c565b60405180910390f35b3480156107d157600080fd5b506107da611617565b6040516107e791906141ed565b60405180910390f35b3480156107fc57600080fd5b5061081760048036038101906108129190613d32565b6116b9565b6040516108249190614291565b60405180910390f35b34801561083957600080fd5b50610854600480360381019061084f9190613e1d565b6116de565b6040516108649493929190614147565b60405180910390f35b34801561087957600080fd5b50610894600480360381019061088f9190613b8b565b6117c6565b6040516108a19190614291565b60405180910390f35b3480156108b657600080fd5b506108bf611847565b005b3480156108cd57600080fd5b506108e860048036038101906108e39190613e1d565b6119b4565b6040516108f59190614193565b60405180910390f35b34801561090a57600080fd5b50610913611b33565b604051610920919061412c565b60405180910390f35b34801561093557600080fd5b5061093e611b5c565b60405161094b91906141ed565b60405180910390f35b34801561096057600080fd5b5061097b60048036038101906109769190613e1d565b611bfe565b604051610988919061412c565b60405180910390f35b34801561099d57600080fd5b506109b860048036038101906109b39190613cf6565b611c3b565b005b3480156109c657600080fd5b506109e160048036038101906109dc9190613e1d565b611df1565b6040516109ee9190614291565b60405180910390f35b348015610a0357600080fd5b50610a1e6004803603810190610a199190613c7b565b611e09565b005b348015610a2c57600080fd5b50610a476004803603810190610a429190613e1d565b611e81565b604051610a5491906141ed565b60405180910390f35b348015610a6957600080fd5b50610a72611f3a565b005b348015610a8057600080fd5b50610a9b6004803603810190610a969190613bf0565b61205b565b604051610aa89190614193565b60405180910390f35b348015610abd57600080fd5b50610ad86004803603810190610ad39190613b8b565b6120ef565b005b610bd5816040516024018080602001828103825283818151815260200191508051906020019080838360005b83811015610b21578082015181840152602081019050610b06565b50505050905090810190601f168015610b4e5780820380516001836020036101000a031916815260200191505b50925050506040516020818303038152906040527f41304fac000000000000000000000000000000000000000000000000000000007bffffffffffffffffffffffffffffffffffffffffffffffffffffffff19166020820180517bffffffffffffffffffffffffffffffffffffffffffffffffffffffff83818316178352505050506122e1565b50565b60606000368080601f016020809104026020016040519081016040528093929190818152602001838380828437600081840152601f19601f82011690508083019250505050505050905090565b600060016000837bffffffffffffffffffffffffffffffffffffffffffffffffffffffff19167bffffffffffffffffffffffffffffffffffffffffffffffffffffffff1916815260200190815260200160002060009054906101000a900460ff169050919050565b6060600e8054600181600116156101000203166002900480601f016020809104026020016040519081016040528092919081815260200182805460018160011615610100020316600290048015610d255780601f10610cfa57610100808354040283529160200191610d25565b820191906000526020600020905b815481529060010190602001808311610d0857829003601f168201915b5050505050905090565b6000610d3a8261230a565b610d8f576040517f08c379a000000000000000000000000000000000000000000000000000000000815260040180806020018281038252602c8152602001806146bb602c913960400191505060405180910390fd5b6005600083815260200190815260200160002060009054906101000a900473ffffffffffffffffffffffffffffffffffffffff169050919050565b6000610dd582612327565b90508073ffffffffffffffffffffffffffffffffffffffff168373ffffffffffffffffffffffffffffffffffffffff161415610e5c576040517f08c379a000000000000000000000000000000000000000000000000000000000815260040180806020018281038252602181526020018061473c6021913960400191505060405180910390fd5b8073ffffffffffffffffffffffffffffffffffffffff16610e7b61235e565b73ffffffffffffffffffffffffffffffffffffffff161480610eaa5750610ea981610ea461235e565b61205b565b5b610eff576040517f08c379a000000000000000000000000000000000000000000000000000000000815260040180806020018281038252603881526020018061460e6038913960400191505060405180910390fd5b610f098383612366565b505050565b610f166138d7565b610f1f8261230a565b610f5e576040517f08c379a0000000000000000000000000000000000000000000000000000000008152600401610f559061422f565b60405180910390fd5b601060008381526020019081526020016000206040518060800160405290816000820160009054906101000a900473ffffffffffffffffffffffffffffffffffffffff1673ffffffffffffffffffffffffffffffffffffffff1673ffffffffffffffffffffffffffffffffffffffff16815260200160018201548152602001600282018054600181600116156101000203166002900480601f0160208091040260200160405190810160405280929190818152602001828054600181600116156101000203166002900480156110755780601f1061104a57610100808354040283529160200191611075565b820191906000526020600020905b81548152906001019060200180831161105857829003601f168201915b505050505081526020016003820154815250509050919050565b60006110a163150b7a0260e01b61241f565b63150b7a0260e01b9050949350505050565b60006110bd61235e565b73ffffffffffffffffffffffffffffffffffffffff166110db611b33565b73ffffffffffffffffffffffffffffffffffffffff1614611164576040517f08c379a00000000000000000000000000000000000000000000000000000000081526004018080602001828103825260208152602001807f4f776e61626c653a2063616c6c6572206973206e6f7420746865206f776e657281525060200191505060405180910390fd5b6111b28484848080601f016020809104026020016040519081016040528093929190818152602001838380828437600081840152601f19601f820116905080830192505050505050506124d7565b7fda84ca2183491f179a603e877b2cb058e42195041c2b9c53d746427e519a34df8484846040516111e5939291906142ac565b60405180910390a1600190509392505050565b60006112046003612561565b905090565b61121a61121461235e565b82612576565b61126f576040517f08c379a000000000000000000000000000000000000000000000000000000000815260040180806020018281038252603181526020018061475d6031913960400191505060405180910390fd5b61127a83838361266a565b505050565b6000600d60149054906101000a900460ff16905090565b6000816112a161235e565b73ffffffffffffffffffffffffffffffffffffffff166011600083815260200190815260200160002060009054906101000a900473ffffffffffffffffffffffffffffffffffffffff1673ffffffffffffffffffffffffffffffffffffffff1614611341576040517f08c379a00000000000000000000000000000000000000000000000000000000081526004016113389061420f565b60405180910390fd5b61134a836128ad565b60106000848152602001908152602001600020600080820160006101000a81549073ffffffffffffffffffffffffffffffffffffffff0219169055600182016000905560028201600061139d9190613915565b60038201600090555050826113b061235e565b73ffffffffffffffffffffffffffffffffffffffff167f17b1a50cb1d8fb4414f164aeaf06785afbeeb2c4e4c08a7ecca69bcfb9ff968560405160405180910390a36001915050919050565b600061144f82600260008673ffffffffffffffffffffffffffffffffffffffff1673ffffffffffffffffffffffffffffffffffffffff1681526020019081526020016000206129e790919063ffffffff16565b905092915050565b6000600b60009054906101000a900473ffffffffffffffffffffffffffffffffffffffff16905090565b61149c83838360405180602001604052806000815250611e09565b505050565b6000806114b8836003612a0190919063ffffffff16565b50905080915050919050565b60006114ce61235e565b73ffffffffffffffffffffffffffffffffffffffff166114ec611b33565b73ffffffffffffffffffffffffffffffffffffffff1614611575576040517f08c379a00000000000000000000000000000000000000000000000000000000081526004018080602001828103825260208152602001807f4f776e61626c653a2063616c6c6572206973206e6f7420746865206f776e657281525060200191505060405180910390fd5b6115c283838080601f016020809104026020016040519081016040528093929190818152602001838380828437600081840152601f19601f82011690508083019250505050505050612a2d565b7ff9c7803e94e0d3c02900d8a90893a6d5e90dd04d32a4cfe825520f82bf9f32f683836040516115f39291906141c9565b60405180910390a16001905092915050565b600061161082612327565b9050919050565b6060600a8054600181600116156101000203166002900480601f0160208091040260200160405190810160405280929190818152602001828054600181600116156101000203166002900480156116af5780601f10611684576101008083540402835291602001916116af565b820191906000526020600020905b81548152906001019060200180831161169257829003601f168201915b5050505050905090565b6012602052816000526040600020602052806000526040600020600091509150505481565b60106020528060005260406000206000915090508060000160009054906101000a900473ffffffffffffffffffffffffffffffffffffffff1690806001015490806002018054600181600116156101000203166002900480601f0160208091040260200160405190810160405280929190818152602001828054600181600116156101000203166002900480156117b65780601f1061178b576101008083540402835291602001916117b6565b820191906000526020600020905b81548152906001019060200180831161179957829003601f168201915b5050505050908060030154905084565b60008073ffffffffffffffffffffffffffffffffffffffff168273ffffffffffffffffffffffffffffffffffffffff161415611837576040517f08c379a000000000000000000000000000000000000000000000000000000000815260040161182e9061424f565b60405180910390fd5b61184082612a47565b9050919050565b61184f61235e565b73ffffffffffffffffffffffffffffffffffffffff1661186d611b33565b73ffffffffffffffffffffffffffffffffffffffff16146118f6576040517f08c379a00000000000000000000000000000000000000000000000000000000081526004018080602001828103825260208152602001807f4f776e61626c653a2063616c6c6572206973206e6f7420746865206f776e657281525060200191505060405180910390fd5b600073ffffffffffffffffffffffffffffffffffffffff1660008054906101000a900473ffffffffffffffffffffffffffffffffffffffff1673ffffffffffffffffffffffffffffffffffffffff167f8be0079c531659141344cd1fd0a4f28419497f9722a3daafe3b4186f6b6457e060405160405180910390a360008060006101000a81548173ffffffffffffffffffffffffffffffffffffffff021916908373ffffffffffffffffffffffffffffffffffffffff160217905550565b6000816119bf61235e565b73ffffffffffffffffffffffffffffffffffffffff166011600083815260200190815260200160002060009054906101000a900473ffffffffffffffffffffffffffffffffffffffff1673ffffffffffffffffffffffffffffffffffffffff1614611a5f576040517f08c379a0000000000000000000000000000000000000000000000000000000008152600401611a569061420f565b60405180910390fd5b611a70611a6a61235e565b84612b1c565b611b2983600c60009054906101000a900473ffffffffffffffffffffffffffffffffffffffff1673ffffffffffffffffffffffffffffffffffffffff1663c87b56dd866040518263ffffffff1660e01b8152600401611acf9190614291565b60006040518083038186803b158015611ae757600080fd5b505afa158015611afb573d6000803e3d6000fd5b505050506040513d6000823e3d601f19601f82011682018060405250810190611b249190613ddc565b6124d7565b6001915050919050565b60008060009054906101000a900473ffffffffffffffffffffffffffffffffffffffff16905090565b6060600f8054600181600116156101000203166002900480601f016020809104026020016040519081016040528092919081815260200182805460018160011615610100020316600290048015611bf45780601f10611bc957610100808354040283529160200191611bf4565b820191906000526020600020905b815481529060010190602001808311611bd757829003601f168201915b5050505050905090565b60006011600083815260200190815260200160002060009054906101000a900473ffffffffffffffffffffffffffffffffffffffff169050919050565b611c4361235e565b73ffffffffffffffffffffffffffffffffffffffff168273ffffffffffffffffffffffffffffffffffffffff161415611ce4576040517f08c379a00000000000000000000000000000000000000000000000000000000081526004018080602001828103825260198152602001807f4552433732313a20617070726f766520746f2063616c6c65720000000000000081525060200191505060405180910390fd5b8060066000611cf161235e565b73ffffffffffffffffffffffffffffffffffffffff1673ffffffffffffffffffffffffffffffffffffffff16815260200190815260200160002060008473ffffffffffffffffffffffffffffffffffffffff1673ffffffffffffffffffffffffffffffffffffffff16815260200190815260200160002060006101000a81548160ff0219169083151502179055508173ffffffffffffffffffffffffffffffffffffffff16611d9e61235e565b73ffffffffffffffffffffffffffffffffffffffff167f17307eab39ab6107e8899845ad3d59bd9653f200f220920489ca2b5937696c318360405180821515815260200191505060405180910390a35050565b60136020528060005260406000206000915090505481565b611e1a611e1461235e565b83612576565b611e6f576040517f08c379a000000000000000000000000000000000000000000000000000000000815260040180806020018281038252603181526020018061475d6031913960400191505060405180910390fd5b611e7b84848484612d10565b50505050565b6060600c60009054906101000a900473ffffffffffffffffffffffffffffffffffffffff1673ffffffffffffffffffffffffffffffffffffffff1663c87b56dd836040518263ffffffff1660e01b8152600401611ede9190614291565b60006040518083038186803b158015611ef657600080fd5b505afa158015611f0a573d6000803e3d6000fd5b505050506040513d6000823e3d601f19601f82011682018060405250810190611f339190613ddc565b9050919050565b611f4261235e565b73ffffffffffffffffffffffffffffffffffffffff16611f60611b33565b73ffffffffffffffffffffffffffffffffffffffff1614611fe9576040517f08c379a00000000000000000000000000000000000000000000000000000000081526004018080602001828103825260208152602001807f4f776e61626c653a2063616c6c6572206973206e6f7420746865206f776e657281525060200191505060405180910390fd5b600d60149054906101000a900460ff1615600d60146101000a81548160ff0219169083151502179055507f52b85b02b7d21238e828a5c4da635eedf42851c8d1db199f9d414f941e89b650600d60149054906101000a900460ff166040516120519190614193565b60405180910390a1565b6000600660008473ffffffffffffffffffffffffffffffffffffffff1673ffffffffffffffffffffffffffffffffffffffff16815260200190815260200160002060008373ffffffffffffffffffffffffffffffffffffffff1673ffffffffffffffffffffffffffffffffffffffff16815260200190815260200160002060009054906101000a900460ff16905092915050565b6120f761235e565b73ffffffffffffffffffffffffffffffffffffffff16612115611b33565b73ffffffffffffffffffffffffffffffffffffffff161461219e576040517f08c379a00000000000000000000000000000000000000000000000000000000081526004018080602001828103825260208152602001807f4f776e61626c653a2063616c6c6572206973206e6f7420746865206f776e657281525060200191505060405180910390fd5b600073ffffffffffffffffffffffffffffffffffffffff168173ffffffffffffffffffffffffffffffffffffffff161415612224576040517f08c379a00000000000000000000000000000000000000000000000000000000081526004018080602001828103825260268152602001806145726026913960400191505060405180910390fd5b8073ffffffffffffffffffffffffffffffffffffffff1660008054906101000a900473ffffffffffffffffffffffffffffffffffffffff1673ffffffffffffffffffffffffffffffffffffffff167f8be0079c531659141344cd1fd0a4f28419497f9722a3daafe3b4186f6b6457e060405160405180910390a3806000806101000a81548173ffffffffffffffffffffffffffffffffffffffff021916908373ffffffffffffffffffffffffffffffffffffffff16021790555050565b60008151905060006a636f6e736f6c652e6c6f679050602083016000808483855afa5050505050565b6000612320826003612d8290919063ffffffff16565b9050919050565b600061235782604051806060016040528060298152602001614670602991396003612d9c9092919063ffffffff16565b9050919050565b600033905090565b816005600083815260200190815260200160002060006101000a81548173ffffffffffffffffffffffffffffffffffffffff021916908373ffffffffffffffffffffffffffffffffffffffff160217905550808273ffffffffffffffffffffffffffffffffffffffff166123d983612327565b73ffffffffffffffffffffffffffffffffffffffff167f8c5be1e5ebec7d5bd14f71427d1e84f3dd0314c0f7b2291e5b200ac8c7c3b92560405160405180910390a45050565b6124d48160405160240180827bffffffffffffffffffffffffffffffffffffffffffffffffffffffff191681526020019150506040516020818303038152906040527fe05f48d1000000000000000000000000000000000000000000000000000000007bffffffffffffffffffffffffffffffffffffffffffffffffffffffff19166020820180517bffffffffffffffffffffffffffffffffffffffffffffffffffffffff83818316178352505050506122e1565b50565b6124e08261230a565b612535576040517f08c379a000000000000000000000000000000000000000000000000000000000815260040180806020018281038252602c8152602001806146e7602c913960400191505060405180910390fd5b8060096000848152602001908152602001600020908051906020019061255c92919061395d565b505050565b600061256f82600001612dbb565b9050919050565b60006125818261230a565b6125d6576040517f08c379a000000000000000000000000000000000000000000000000000000000815260040180806020018281038252602c8152602001806145e2602c913960400191505060405180910390fd5b60006125e183612327565b90508073ffffffffffffffffffffffffffffffffffffffff168473ffffffffffffffffffffffffffffffffffffffff16148061265057508373ffffffffffffffffffffffffffffffffffffffff1661263884610d2f565b73ffffffffffffffffffffffffffffffffffffffff16145b806126615750612660818561205b565b5b91505092915050565b8273ffffffffffffffffffffffffffffffffffffffff1661268a82612327565b73ffffffffffffffffffffffffffffffffffffffff16146126f6576040517f08c379a00000000000000000000000000000000000000000000000000000000081526004018080602001828103825260298152602001806147136029913960400191505060405180910390fd5b600073ffffffffffffffffffffffffffffffffffffffff168273ffffffffffffffffffffffffffffffffffffffff16141561277c576040517f08c379a00000000000000000000000000000000000000000000000000000000081526004018080602001828103825260248152602001806145986024913960400191505060405180910390fd5b612787838383612dcc565b612792600082612366565b6127e381600260008673ffffffffffffffffffffffffffffffffffffffff1673ffffffffffffffffffffffffffffffffffffffff168152602001908152602001600020612dd190919063ffffffff16565b5061283581600260008573ffffffffffffffffffffffffffffffffffffffff1673ffffffffffffffffffffffffffffffffffffffff168152602001908152602001600020612deb90919063ffffffff16565b5061284c81836003612e059092919063ffffffff16565b50808273ffffffffffffffffffffffffffffffffffffffff168473ffffffffffffffffffffffffffffffffffffffff167fddf252ad1be2c89b69c2b068fc378daa952ba7f163c4a11628f55a4df523b3ef60405160405180910390a4505050565b60006128b882612327565b90506128c681600084612dcc565b6128d1600083612366565b600060096000848152602001908152602001600020805460018160011615610100020316600290049050146129205760096000838152602001908152602001600020600061291f9190613915565b5b61297182600260008473ffffffffffffffffffffffffffffffffffffffff1673ffffffffffffffffffffffffffffffffffffffff168152602001908152602001600020612dd190919063ffffffff16565b50612986826003612e3a90919063ffffffff16565b5081600073ffffffffffffffffffffffffffffffffffffffff168273ffffffffffffffffffffffffffffffffffffffff167fddf252ad1be2c89b69c2b068fc378daa952ba7f163c4a11628f55a4df523b3ef60405160405180910390a45050565b60006129f68360000183612e54565b60001c905092915050565b600080600080612a148660000186612ed7565b915091508160001c8160001c9350935050509250929050565b80600a9080519060200190612a4392919061395d565b5050565b60008073ffffffffffffffffffffffffffffffffffffffff168273ffffffffffffffffffffffffffffffffffffffff161415612ace576040517f08c379a000000000000000000000000000000000000000000000000000000000815260040180806020018281038252602a815260200180614646602a913960400191505060405180910390fd5b612b15600260008473ffffffffffffffffffffffffffffffffffffffff1673ffffffffffffffffffffffffffffffffffffffff168152602001908152602001600020612f70565b9050919050565b600073ffffffffffffffffffffffffffffffffffffffff168273ffffffffffffffffffffffffffffffffffffffff161415612bbf576040517f08c379a00000000000000000000000000000000000000000000000000000000081526004018080602001828103825260208152602001807f4552433732313a206d696e7420746f20746865207a65726f206164647265737381525060200191505060405180910390fd5b612bc88161230a565b15612c3b576040517f08c379a000000000000000000000000000000000000000000000000000000000815260040180806020018281038252601c8152602001807f4552433732313a20746f6b656e20616c7265616479206d696e7465640000000081525060200191505060405180910390fd5b612c4760008383612dcc565b612c9881600260008573ffffffffffffffffffffffffffffffffffffffff1673ffffffffffffffffffffffffffffffffffffffff168152602001908152602001600020612deb90919063ffffffff16565b50612caf81836003612e059092919063ffffffff16565b50808273ffffffffffffffffffffffffffffffffffffffff16600073ffffffffffffffffffffffffffffffffffffffff167fddf252ad1be2c89b69c2b068fc378daa952ba7f163c4a11628f55a4df523b3ef60405160405180910390a45050565b612d1b84848461266a565b612d2784848484612f85565b612d7c576040517f08c379a00000000000000000000000000000000000000000000000000000000081526004018080602001828103825260328152602001806145406032913960400191505060405180910390fd5b50505050565b6000612d94836000018360001b61319e565b905092915050565b6000612daf846000018460001b846131c1565b60001c90509392505050565b600081600001805490509050919050565b505050565b6000612de3836000018360001b6132b7565b905092915050565b6000612dfd836000018360001b61339f565b905092915050565b6000612e31846000018460001b8473ffffffffffffffffffffffffffffffffffffffff1660001b61340f565b90509392505050565b6000612e4c836000018360001b6134eb565b905092915050565b600081836000018054905011612eb5576040517f08c379a000000000000000000000000000000000000000000000000000000000815260040180806020018281038252602281526020018061451e6022913960400191505060405180910390fd5b826000018281548110612ec457fe5b9060005260206000200154905092915050565b60008082846000018054905011612f39576040517f08c379a00000000000000000000000000000000000000000000000000000000081526004018080602001828103825260228152602001806146996022913960400191505060405180910390fd5b6000846000018481548110612f4a57fe5b906000526020600020906002020190508060000154816001015492509250509250929050565b6000612f7e82600001613604565b9050919050565b6000612fa68473ffffffffffffffffffffffffffffffffffffffff16613615565b612fb35760019050613196565b600061311d63150b7a0260e01b612fc861235e565b888787604051602401808573ffffffffffffffffffffffffffffffffffffffff1681526020018473ffffffffffffffffffffffffffffffffffffffff16815260200183815260200180602001828103825283818151815260200191508051906020019080838360005b8381101561304c578082015181840152602081019050613031565b50505050905090810190601f1680156130795780820380516001836020036101000a031916815260200191505b5095505050505050604051602081830303815290604052907bffffffffffffffffffffffffffffffffffffffffffffffffffffffff19166020820180517bffffffffffffffffffffffffffffffffffffffffffffffffffffffff8381831617835250505050604051806060016040528060328152602001614540603291398773ffffffffffffffffffffffffffffffffffffffff166136289092919063ffffffff16565b9050600081806020019051602081101561313657600080fd5b8101908080519060200190929190505050905063150b7a0260e01b7bffffffffffffffffffffffffffffffffffffffffffffffffffffffff1916817bffffffffffffffffffffffffffffffffffffffffffffffffffffffff191614925050505b949350505050565b600080836001016000848152602001908152602001600020541415905092915050565b60008084600101600085815260200190815260200160002054905060008114158390613288576040517f08c379a00000000000000000000000000000000000000000000000000000000081526004018080602001828103825283818151815260200191508051906020019080838360005b8381101561324d578082015181840152602081019050613232565b50505050905090810190601f16801561327a5780820380516001836020036101000a031916815260200191505b509250505060405180910390fd5b5084600001600182038154811061329b57fe5b9060005260206000209060020201600101549150509392505050565b60008083600101600084815260200190815260200160002054905060008114613393576000600182039050600060018660000180549050039050600086600001828154811061330257fe5b906000526020600020015490508087600001848154811061331f57fe5b906000526020600020018190555060018301876001016000838152602001908152602001600020819055508660000180548061335757fe5b60019003818190600052602060002001600090559055866001016000878152602001908152602001600020600090556001945050505050613399565b60009150505b92915050565b60006133ab8383613640565b613404578260000182908060018154018082558091505060019003906000526020600020016000909190919091505582600001805490508360010160008481526020019081526020016000208190555060019050613409565b600090505b92915050565b60008084600101600085815260200190815260200160002054905060008114156134b6578460000160405180604001604052808681526020018581525090806001815401808255809150506001900390600052602060002090600202016000909190919091506000820151816000015560208201518160010155505084600001805490508560010160008681526020019081526020016000208190555060019150506134e4565b828560000160018303815481106134c957fe5b90600052602060002090600202016001018190555060009150505b9392505050565b600080836001016000848152602001908152602001600020549050600081146135f8576000600182039050600060018660000180549050039050600086600001828154811061353657fe5b906000526020600020906002020190508087600001848154811061355657fe5b90600052602060002090600202016000820154816000015560018201548160010155905050600183018760010160008360000154815260200190815260200160002081905550866000018054806135a957fe5b60019003818190600052602060002090600202016000808201600090556001820160009055505090558660010160008781526020019081526020016000206000905560019450505050506135fe565b60009150505b92915050565b600081600001805490509050919050565b600080823b905060008111915050919050565b60606136378484600085613663565b90509392505050565b600080836001016000848152602001908152602001600020541415905092915050565b6060824710156136be576040517f08c379a00000000000000000000000000000000000000000000000000000000081526004018080602001828103825260268152602001806145bc6026913960400191505060405180910390fd5b6136c785613615565b613739576040517f08c379a000000000000000000000000000000000000000000000000000000000815260040180806020018281038252601d8152602001807f416464726573733a2063616c6c20746f206e6f6e2d636f6e747261637400000081525060200191505060405180910390fd5b6000808673ffffffffffffffffffffffffffffffffffffffff1685876040518082805190602001908083835b602083106137885780518252602082019150602081019050602083039250613765565b6001836020036101000a03801982511681845116808217855250505050505090500191505060006040518083038185875af1925050503d80600081146137ea576040519150601f19603f3d011682016040523d82523d6000602084013e6137ef565b606091505b50915091506137ff82828661380b565b92505050949350505050565b6060831561381b578290506138d0565b60008351111561382e5782518084602001fd5b816040517f08c379a00000000000000000000000000000000000000000000000000000000081526004018080602001828103825283818151815260200191508051906020019080838360005b8381101561389557808201518184015260208101905061387a565b50505050905090810190601f1680156138c25780820380516001836020036101000a031916815260200191505b509250505060405180910390fd5b9392505050565b6040518060800160405280600073ffffffffffffffffffffffffffffffffffffffff1681526020016000815260200160608152602001600081525090565b50805460018160011615610100020316600290046000825580601f1061393b575061395a565b601f01602090049060005260206000209081019061395991906139eb565b5b50565b828054600181600116156101000203166002900490600052602060002090601f01602090048101928261399357600085556139da565b82601f106139ac57805160ff19168380011785556139da565b828001600101855582156139da579182015b828111156139d95782518255916020019190600101906139be565b5b5090506139e791906139eb565b5090565b5b80821115613a045760008160009055506001016139ec565b5090565b6000613a1b613a168461430f565b6142de565b905082815260208101848484011115613a3357600080fd5b613a3e848285614455565b509392505050565b6000613a59613a548461433f565b6142de565b905082815260208101848484011115613a7157600080fd5b613a7c848285614464565b509392505050565b600081359050613a93816144aa565b92915050565b600081359050613aa8816144c1565b92915050565b600081359050613abd816144d8565b92915050565b600081359050613ad2816144ef565b92915050565b600082601f830112613ae957600080fd5b8135613af9848260208601613a08565b91505092915050565b60008083601f840112613b1457600080fd5b8235905067ffffffffffffffff811115613b2d57600080fd5b602083019150836001820283011115613b4557600080fd5b9250929050565b600082601f830112613b5d57600080fd5b8151613b6d848260208601613a46565b91505092915050565b600081359050613b8581614506565b92915050565b600060208284031215613b9d57600080fd5b6000613bab84828501613a84565b91505092915050565b60008060408385031215613bc757600080fd5b6000613bd585828601613a99565b9250506020613be685828601613b76565b9150509250929050565b60008060408385031215613c0357600080fd5b6000613c1185828601613a84565b9250506020613c2285828601613a84565b9150509250929050565b600080600060608486031215613c4157600080fd5b6000613c4f86828701613a84565b9350506020613c6086828701613a84565b9250506040613c7186828701613b76565b9150509250925092565b60008060008060808587031215613c9157600080fd5b6000613c9f87828801613a84565b9450506020613cb087828801613a84565b9350506040613cc187828801613b76565b925050606085013567ffffffffffffffff811115613cde57600080fd5b613cea87828801613ad8565b91505092959194509250565b60008060408385031215613d0957600080fd5b6000613d1785828601613a84565b9250506020613d2885828601613aae565b9150509250929050565b60008060408385031215613d4557600080fd5b6000613d5385828601613a84565b9250506020613d6485828601613b76565b9150509250929050565b600060208284031215613d8057600080fd5b6000613d8e84828501613ac3565b91505092915050565b60008060208385031215613daa57600080fd5b600083013567ffffffffffffffff811115613dc457600080fd5b613dd085828601613b02565b92509250509250929050565b600060208284031215613dee57600080fd5b600082015167ffffffffffffffff811115613e0857600080fd5b613e1484828501613b4c565b91505092915050565b600060208284031215613e2f57600080fd5b6000613e3d84828501613b76565b91505092915050565b600080600060408486031215613e5b57600080fd5b6000613e6986828701613b76565b935050602084013567ffffffffffffffff811115613e8657600080fd5b613e9286828701613b02565b92509250509250925092565b613ea7816143cf565b82525050565b613eb6816143cf565b82525050565b613ec5816143f3565b82525050565b613ed4816143ff565b82525050565b6000613ee6838561438b565b9350613ef3838584614455565b613efc83614499565b840190509392505050565b6000613f128261436f565b613f1c818561437a565b9350613f2c818560208601614464565b613f3581614499565b840191505092915050565b6000613f4b8261436f565b613f55818561438b565b9350613f65818560208601614464565b613f6e81614499565b840191505092915050565b6000613f8660328361438b565b91507f537570655261726556323a204e6f7420746865204f776e6572206f662074686560008301527f205375706552617265563120546f6b656e2100000000000000000000000000006020830152604082019050919050565b6000613fec60228361438b565b91507f53757065526172652056323a20746f6b656e494420646f65736e27742065786960008301527f73740000000000000000000000000000000000000000000000000000000000006020830152604082019050919050565b6000614052602a8361438b565b91507f4552433732313a2062616c616e636520717565727920666f7220746865207a6560008301527f726f2061646472657373000000000000000000000000000000000000000000006020830152604082019050919050565b60006080830160008301516140c36000860182613e9e565b5060208301516140d6602086018261410e565b50604083015184820360408601526140ee8282613f07565b9150506060830151614103606086018261410e565b508091505092915050565b6141178161444b565b82525050565b6141268161444b565b82525050565b60006020820190506141416000830184613ead565b92915050565b600060808201905061415c6000830187613ead565b614169602083018661411d565b818103604083015261417b8185613f40565b905061418a606083018461411d565b95945050505050565b60006020820190506141a86000830184613ebc565b92915050565b60006020820190506141c36000830184613ecb565b92915050565b600060208201905081810360008301526141e4818486613eda565b90509392505050565b600060208201905081810360008301526142078184613f40565b905092915050565b6000602082019050818103600083015261422881613f79565b9050919050565b6000602082019050818103600083015261424881613fdf565b9050919050565b6000602082019050818103600083015261426881614045565b9050919050565b6000602082019050818103600083015261428981846140ab565b905092915050565b60006020820190506142a6600083018461411d565b92915050565b60006040820190506142c1600083018661411d565b81810360208301526142d4818486613eda565b9050949350505050565b6000604051905081810181811067ffffffffffffffff8211171561430557614304614497565b5b8060405250919050565b600067ffffffffffffffff82111561432a57614329614497565b5b601f19601f8301169050602081019050919050565b600067ffffffffffffffff82111561435a57614359614497565b5b601f19601f8301169050602081019050919050565b600081519050919050565b600082825260208201905092915050565b600082825260208201905092915050565b600080858511156143ac57600080fd5b838611156143b957600080fd5b6001850283019150848603905094509492505050565b60006143da8261442b565b9050919050565b60006143ec8261442b565b9050919050565b60008115159050919050565b60007fffffffff0000000000000000000000000000000000000000000000000000000082169050919050565b600073ffffffffffffffffffffffffffffffffffffffff82169050919050565b6000819050919050565b82818337600083830152505050565b60005b83811015614482578082015181840152602081019050614467565b83811115614491576000848401525b50505050565bfe5b6000601f19601f8301169050919050565b6144b3816143cf565b81146144be57600080fd5b50565b6144ca816143e1565b81146144d557600080fd5b50565b6144e1816143f3565b81146144ec57600080fd5b50565b6144f8816143ff565b811461450357600080fd5b50565b61450f8161444b565b811461451a57600080fd5b5056fe456e756d657261626c655365743a20696e646578206f7574206f6620626f756e64734552433732313a207472616e7366657220746f206e6f6e20455243373231526563656976657220696d706c656d656e7465724f776e61626c653a206e6577206f776e657220697320746865207a65726f20616464726573734552433732313a207472616e7366657220746f20746865207a65726f2061646472657373416464726573733a20696e73756666696369656e742062616c616e636520666f722063616c6c4552433732313a206f70657261746f7220717565727920666f72206e6f6e6578697374656e7420746f6b656e4552433732313a20617070726f76652063616c6c6572206973206e6f74206f776e6572206e6f7220617070726f76656420666f7220616c6c4552433732313a2062616c616e636520717565727920666f7220746865207a65726f20616464726573734552433732313a206f776e657220717565727920666f72206e6f6e6578697374656e7420746f6b656e456e756d657261626c654d61703a20696e646578206f7574206f6620626f756e64734552433732313a20617070726f76656420717565727920666f72206e6f6e6578697374656e7420746f6b656e4552433732314d657461646174613a2055524920736574206f66206e6f6e6578697374656e7420746f6b656e4552433732313a207472616e73666572206f6620746f6b656e2074686174206973206e6f74206f776e4552433732313a20617070726f76616c20746f2063757272656e74206f776e65724552433732313a207472616e736665722063616c6c6572206973206e6f74206f776e6572206e6f7220617070726f766564a26469706673582212207f1d094469f2d5cd34c4eac1eb29dfb606c8ee69cd99f3db737cdf7ed63546df64736f6c63430007060033",
  "linkReferences": {},
  "deployedLinkReferences": {}
}