{
  "_format": "hh-sol-artifact-1",
  "contractName": "SupeRareV2",
  "sourceName": "contracts/SupeRareV2.sol",
  "abi": [
    {
      "inputs": [
        {
          "internalType": "address",
          "name": "OriginalSupeRareAddr__",
          "type": "address"
        }
      ],
      "stateMutability": "nonpayable",
      "type": "constructor"
    },
    {
      "anonymous": false,
      "inputs": [
        {
          "indexed": true,
          "internalType": "address",
          "name": "owner",
          "type": "address"
        },
        {
          "indexed": true,
          "internalType": "address",
          "name": "approved",
          "type": "address"
        },
        {
          "indexed": true,
          "internalType": "uint256",
          "name": "tokenId",
          "type": "uint256"
        }
      ],
      "name": "Approval",
      "type": "event"
    },
    {
      "anonymous": false,
      "inputs": [
        {
          "indexed": true,
          "internalType": "address",
          "name": "owner",
          "type": "address"
        },
        {
          "indexed": true,
          "internalType": "address",
          "name": "operator",
          "type": "address"
        },
        {
          "indexed": false,
          "internalType": "bool",
          "name": "approved",
          "type": "bool"
        }
      ],
      "name": "ApprovalForAll",
      "type": "event"
    },
    {
      "anonymous": false,
      "inputs": [
        {
          "indexed": true,
          "internalType": "address",
          "name": "previousOwner",
          "type": "address"
        },
        {
          "indexed": true,
          "internalType": "address",
          "name": "newOwner",
          "type": "address"
        }
      ],
      "name": "OwnershipTransferred",
      "type": "event"
    },
    {
      "anonymous": false,
      "inputs": [
        {
          "indexed": true,
          "internalType": "address",
          "name": "OrigOwner",
          "type": "address"
        },
        {
          "indexed": true,
          "internalType": "uint256",
          "name": "v1TokenID",
          "type": "uint256"
        },
        {
          "indexed": true,
          "internalType": "uint256",
          "name": "timeStamp",
          "type": "uint256"
        }
      ],
      "name": "PositionCreated",
      "type": "event"
    },
    {
      "anonymous": false,
      "inputs": [
        {
          "indexed": true,
          "internalType": "address",
          "name": "OrigOwner",
          "type": "address"
        },
        {
          "indexed": true,
          "internalType": "uint256",
          "name": "v1TokenID",
          "type": "uint256"
        },
        {
          "indexed": true,
          "internalType": "uint256",
          "name": "timeStamp",
          "type": "uint256"
        }
      ],
      "name": "PositionDeleted",
      "type": "event"
    },
    {
      "anonymous": false,
      "inputs": [
        {
          "indexed": false,
          "internalType": "bool",
          "name": "",
          "type": "bool"
        }
      ],
      "name": "ToggleStartStop",
      "type": "event"
    },
    {
      "anonymous": false,
      "inputs": [
        {
          "indexed": true,
          "internalType": "address",
          "name": "from",
          "type": "address"
        },
        {
          "indexed": true,
          "internalType": "address",
          "name": "to",
          "type": "address"
        },
        {
          "indexed": true,
          "internalType": "uint256",
          "name": "tokenId",
          "type": "uint256"
        }
      ],
      "name": "Transfer",
      "type": "event"
    },
    {
      "inputs": [],
      "name": "ToggleContract",
      "outputs": [],
      "stateMutability": "nonpayable",
      "type": "function"
    },
    {
      "inputs": [
        {
          "internalType": "uint256",
          "name": "",
          "type": "uint256"
        }
      ],
      "name": "V2tokenToV1Position",
      "outputs": [
        {
          "internalType": "address",
          "name": "OrigOwner",
          "type": "address"
        },
        {
          "internalType": "uint256",
          "name": "v1TokenID",
          "type": "uint256"
        },
        {
          "internalType": "uint256",
          "name": "timeStamp",
          "type": "uint256"
        }
      ],
      "stateMutability": "view",
      "type": "function"
    },
    {
      "inputs": [
        {
          "internalType": "address",
          "name": "to",
          "type": "address"
        },
        {
          "internalType": "uint256",
          "name": "tokenId",
          "type": "uint256"
        }
      ],
      "name": "approve",
      "outputs": [],
      "stateMutability": "nonpayable",
      "type": "function"
    },
    {
      "inputs": [
        {
          "internalType": "address",
          "name": "owner",
          "type": "address"
        }
      ],
      "name": "balanceOf",
      "outputs": [
        {
          "internalType": "uint256",
          "name": "",
          "type": "uint256"
        }
      ],
      "stateMutability": "view",
      "type": "function"
    },
    {
      "inputs": [],
      "name": "baseURI",
      "outputs": [
        {
          "internalType": "string",
          "name": "",
          "type": "string"
        }
      ],
      "stateMutability": "view",
      "type": "function"
    },
    {
      "inputs": [],
      "name": "contract_status",
      "outputs": [
        {
          "internalType": "bool",
          "name": "",
          "type": "bool"
        }
      ],
      "stateMutability": "view",
      "type": "function"
    },
    {
      "inputs": [
        {
          "internalType": "uint256",
          "name": "v1TokenId",
          "type": "uint256"
        }
      ],
      "name": "deposit",
      "outputs": [
        {
          "internalType": "bool",
          "name": "",
          "type": "bool"
        }
      ],
      "stateMutability": "nonpayable",
      "type": "function"
    },
    {
      "inputs": [
        {
          "internalType": "uint256",
          "name": "tokenId",
          "type": "uint256"
        }
      ],
      "name": "getApproved",
      "outputs": [
        {
          "internalType": "address",
          "name": "",
          "type": "address"
        }
      ],
      "stateMutability": "view",
      "type": "function"
    },
    {
      "inputs": [
        {
          "internalType": "uint256",
          "name": "v2TokenId",
          "type": "uint256"
        }
      ],
      "name": "getOwnerPosition",
      "outputs": [
        {
          "components": [
            {
              "internalType": "address",
              "name": "OrigOwner",
              "type": "address"
            },
            {
              "internalType": "uint256",
              "name": "v1TokenID",
              "type": "uint256"
            },
            {
              "internalType": "uint256",
              "name": "timeStamp",
              "type": "uint256"
            }
          ],
          "internalType": "struct ISupeRareV2.Position",
          "name": "",
          "type": "tuple"
        }
      ],
      "stateMutability": "view",
      "type": "function"
    },
    {
      "inputs": [],
      "name": "getSupeRareAddress",
      "outputs": [
        {
          "internalType": "address",
          "name": "",
          "type": "address"
        }
      ],
      "stateMutability": "view",
      "type": "function"
    },
    {
      "inputs": [
        {
          "internalType": "address",
          "name": "owner",
          "type": "address"
        },
        {
          "internalType": "address",
          "name": "operator",
          "type": "address"
        }
      ],
      "name": "isApprovedForAll",
      "outputs": [
        {
          "internalType": "bool",
          "name": "",
          "type": "bool"
        }
      ],
      "stateMutability": "view",
      "type": "function"
    },
    {
      "inputs": [],
      "name": "name",
      "outputs": [
        {
          "internalType": "string",
          "name": "",
          "type": "string"
        }
      ],
      "stateMutability": "view",
      "type": "function"
    },
    {
      "inputs": [],
      "name": "owner",
      "outputs": [
        {
          "internalType": "address",
          "name": "",
          "type": "address"
        }
      ],
      "stateMutability": "view",
      "type": "function"
    },
    {
      "inputs": [
        {
          "internalType": "address",
          "name": "",
          "type": "address"
        },
        {
          "internalType": "uint256",
          "name": "",
          "type": "uint256"
        }
      ],
      "name": "ownerAddrToV1toV2TokenId",
      "outputs": [
        {
          "internalType": "uint256",
          "name": "",
          "type": "uint256"
        }
      ],
      "stateMutability": "view",
      "type": "function"
    },
    {
      "inputs": [
        {
          "internalType": "uint256",
          "name": "tokenId",
          "type": "uint256"
        }
      ],
      "name": "ownerOf",
      "outputs": [
        {
          "internalType": "address",
          "name": "",
          "type": "address"
        }
      ],
      "stateMutability": "view",
      "type": "function"
    },
    {
      "inputs": [],
      "name": "renounceOwnership",
      "outputs": [],
      "stateMutability": "nonpayable",
      "type": "function"
    },
    {
      "inputs": [
        {
          "internalType": "address",
          "name": "from",
          "type": "address"
        },
        {
          "internalType": "address",
          "name": "to",
          "type": "address"
        },
        {
          "internalType": "uint256",
          "name": "tokenId",
          "type": "uint256"
        }
      ],
      "name": "safeTransferFrom",
      "outputs": [],
      "stateMutability": "nonpayable",
      "type": "function"
    },
    {
      "inputs": [
        {
          "internalType": "address",
          "name": "from",
          "type": "address"
        },
        {
          "internalType": "address",
          "name": "to",
          "type": "address"
        },
        {
          "internalType": "uint256",
          "name": "tokenId",
          "type": "uint256"
        },
        {
          "internalType": "bytes",
          "name": "_data",
          "type": "bytes"
        }
      ],
      "name": "safeTransferFrom",
      "outputs": [],
      "stateMutability": "nonpayable",
      "type": "function"
    },
    {
      "inputs": [
        {
          "internalType": "address",
          "name": "operator",
          "type": "address"
        },
        {
          "internalType": "bool",
          "name": "approved",
          "type": "bool"
        }
      ],
      "name": "setApprovalForAll",
      "outputs": [],
      "stateMutability": "nonpayable",
      "type": "function"
    },
    {
      "inputs": [
        {
          "internalType": "bytes4",
          "name": "interfaceId",
          "type": "bytes4"
        }
      ],
      "name": "supportsInterface",
      "outputs": [
        {
          "internalType": "bool",
          "name": "",
          "type": "bool"
        }
      ],
      "stateMutability": "view",
      "type": "function"
    },
    {
      "inputs": [],
      "name": "symbol",
      "outputs": [
        {
          "internalType": "string",
          "name": "",
          "type": "string"
        }
      ],
      "stateMutability": "view",
      "type": "function"
    },
    {
      "inputs": [
        {
          "internalType": "uint256",
          "name": "index",
          "type": "uint256"
        }
      ],
      "name": "tokenByIndex",
      "outputs": [
        {
          "internalType": "uint256",
          "name": "",
          "type": "uint256"
        }
      ],
      "stateMutability": "view",
      "type": "function"
    },
    {
      "inputs": [
        {
          "internalType": "address",
          "name": "owner",
          "type": "address"
        },
        {
          "internalType": "uint256",
          "name": "index",
          "type": "uint256"
        }
      ],
      "name": "tokenOfOwnerByIndex",
      "outputs": [
        {
          "internalType": "uint256",
          "name": "",
          "type": "uint256"
        }
      ],
      "stateMutability": "view",
      "type": "function"
    },
    {
      "inputs": [
        {
          "internalType": "uint256",
          "name": "tokenId",
          "type": "uint256"
        }
      ],
      "name": "tokenURI",
      "outputs": [
        {
          "internalType": "string",
          "name": "",
          "type": "string"
        }
      ],
      "stateMutability": "view",
      "type": "function"
    },
    {
      "inputs": [],
      "name": "totalSupply",
      "outputs": [
        {
          "internalType": "uint256",
          "name": "",
          "type": "uint256"
        }
      ],
      "stateMutability": "view",
      "type": "function"
    },
    {
      "inputs": [
        {
          "internalType": "address",
          "name": "from",
          "type": "address"
        },
        {
          "internalType": "address",
          "name": "to",
          "type": "address"
        },
        {
          "internalType": "uint256",
          "name": "tokenId",
          "type": "uint256"
        }
      ],
      "name": "transferFrom",
      "outputs": [],
      "stateMutability": "nonpayable",
      "type": "function"
    },
    {
      "inputs": [
        {
          "internalType": "address",
          "name": "newOwner",
          "type": "address"
        }
      ],
      "name": "transferOwnership",
      "outputs": [],
      "stateMutability": "nonpayable",
      "type": "function"
    },
    {
      "inputs": [
        {
          "internalType": "uint256",
          "name": "v1TokenId",
          "type": "uint256"
        }
      ],
      "name": "withdraw",
      "outputs": [
        {
          "internalType": "bool",
          "name": "",
          "type": "bool"
        }
      ],
      "stateMutability": "nonpayable",
      "type": "function"
    }
  ],
  "bytecode": "0x60806040523480156200001157600080fd5b50604051620040de380380620040de833981810160405281019062000037919062000470565b6040518060400160405280600a81526020017f53757065526172655632000000000000000000000000000000000000000000008152506040518060400160405280600681526020017f53555052563200000000000000000000000000000000000000000000000000008152506000620000b56200029260201b60201c565b9050806000806101000a81548173ffffffffffffffffffffffffffffffffffffffff021916908373ffffffffffffffffffffffffffffffffffffffff1602179055508073ffffffffffffffffffffffffffffffffffffffff16600073ffffffffffffffffffffffffffffffffffffffff167f8be0079c531659141344cd1fd0a4f28419497f9722a3daafe3b4186f6b6457e060405160405180910390a3506200016b6301ffc9a760e01b6200029a60201b60201c565b816007908051906020019062000183929190620003a3565b5080600890805190602001906200019c929190620003a3565b50620001b56380ac58cd60e01b6200029a60201b60201c565b620001cd635b5e139f60e01b6200029a60201b60201c565b620001e563780e9d6360e01b6200029a60201b60201c565b505080600b60006101000a81548173ffffffffffffffffffffffffffffffffffffffff021916908373ffffffffffffffffffffffffffffffffffffffff160217905550600b60009054906101000a900473ffffffffffffffffffffffffffffffffffffffff16600c60006101000a81548173ffffffffffffffffffffffffffffffffffffffff021916908373ffffffffffffffffffffffffffffffffffffffff16021790555050620004ea565b600033905090565b63ffffffff60e01b817bffffffffffffffffffffffffffffffffffffffffffffffffffffffff1916141562000337576040517f08c379a000000000000000000000000000000000000000000000000000000000815260040180806020018281038252601c8152602001807f4552433136353a20696e76616c696420696e746572666163652069640000000081525060200191505060405180910390fd5b6001806000837bffffffffffffffffffffffffffffffffffffffffffffffffffffffff19167bffffffffffffffffffffffffffffffffffffffffffffffffffffffff1916815260200190815260200160002060006101000a81548160ff02191690831515021790555050565b828054600181600116156101000203166002900490600052602060002090601f016020900481019282620003db576000855562000427565b82601f10620003f657805160ff191683800117855562000427565b8280016001018555821562000427579182015b828111156200042657825182559160200191906001019062000409565b5b5090506200043691906200043a565b5090565b5b80821115620004555760008160009055506001016200043b565b5090565b6000815190506200046a81620004d0565b92915050565b6000602082840312156200048357600080fd5b6000620004938482850162000459565b91505092915050565b6000620004a982620004b0565b9050919050565b600073ffffffffffffffffffffffffffffffffffffffff82169050919050565b620004db816200049c565b8114620004e757600080fd5b50565b613be480620004fa6000396000f3fe608060405234801561001057600080fd5b50600436106101c45760003560e01c80636352211e116100f9578063a22cb46511610097578063c87b56dd11610071578063c87b56dd14610543578063cfa2e00414610573578063e985e9c51461057d578063f2fde38b146105ad576101c4565b8063a22cb465146104db578063b6b55f25146104f7578063b88d4fde14610527576101c4565b806370a08231116100d357806370a0823114610465578063715018a6146104955780638da5cb5b1461049f57806395d89b41146104bd576101c4565b80636352211e146103e75780636c0360eb146104175780636c0e675414610435576101c4565b806323b872dd116101665780632f745c59116101405780632f745c591461034d578063364647891461037d57806342842e0e1461039b5780634f6ccce7146103b7576101c4565b806323b872dd146102e35780632b1bf48f146102ff5780632e1a7d4d1461031d576101c4565b8063081812fc116101a2578063081812fc14610249578063095ea7b3146102795780630a4c33811461029557806318160ddd146102c5576101c4565b806301f9e24e146101c957806301ffc9a7146101fb57806306fdde031461022b575b600080fd5b6101e360048036038101906101de9190613479565b6105c9565b6040516101f29392919061368f565b60405180910390f35b61021560048036038101906102109190613450565b610613565b60405161022291906136c6565b60405180910390f35b61023361067b565b60405161024091906136e1565b60405180910390f35b610263600480360381019061025e9190613479565b61071d565b6040516102709190613674565b60405180910390f35b610293600480360381019061028e9190613414565b6107b8565b005b6102af60048036038101906102aa9190613479565b6108fc565b6040516102bc9190613763565b60405180910390f35b6102cd610993565b6040516102da919061377e565b60405180910390f35b6102fd60048036038101906102f8919061330e565b6109a4565b005b610307610a1a565b60405161031491906136c6565b60405180910390f35b61033760048036038101906103329190613479565b610a31565b60405161034491906136c6565b60405180910390f35b61036760048036038101906103629190613414565b610c75565b604051610374919061377e565b60405180910390f35b610385610cd0565b6040516103929190613674565b60405180910390f35b6103b560048036038101906103b0919061330e565b610cfa565b005b6103d160048036038101906103cc9190613479565b610d1a565b6040516103de919061377e565b60405180910390f35b61040160048036038101906103fc9190613479565b610d3d565b60405161040e9190613674565b60405180910390f35b61041f610d74565b60405161042c91906136e1565b60405180910390f35b61044f600480360381019061044a9190613414565b610e16565b60405161045c919061377e565b60405180910390f35b61047f600480360381019061047a9190613280565b610e3b565b60405161048c919061377e565b60405180910390f35b61049d610f10565b005b6104a761107d565b6040516104b49190613674565b60405180910390f35b6104c56110a6565b6040516104d291906136e1565b60405180910390f35b6104f560048036038101906104f091906133d8565b611148565b005b610511600480360381019061050c9190613479565b6112fe565b60405161051e91906136c6565b60405180910390f35b610541600480360381019061053c919061335d565b611577565b005b61055d60048036038101906105589190613479565b6115ef565b60405161056a91906136e1565b60405180910390f35b61057b6118c0565b005b610597600480360381019061059291906132d2565b6119e1565b6040516105a491906136c6565b60405180910390f35b6105c760048036038101906105c29190613280565b611a75565b005b600e6020528060005260406000206000915090508060000160009054906101000a900473ffffffffffffffffffffffffffffffffffffffff16908060010154908060020154905083565b600060016000837bffffffffffffffffffffffffffffffffffffffffffffffffffffffff19167bffffffffffffffffffffffffffffffffffffffffffffffffffffffff1916815260200190815260200160002060009054906101000a900460ff169050919050565b606060078054600181600116156101000203166002900480601f0160208091040260200160405190810160405280929190818152602001828054600181600116156101000203166002900480156107135780601f106106e857610100808354040283529160200191610713565b820191906000526020600020905b8154815290600101906020018083116106f657829003601f168201915b5050505050905090565b600061072882611c67565b61077d576040517f08c379a000000000000000000000000000000000000000000000000000000000815260040180806020018281038252602c815260200180613ad9602c913960400191505060405180910390fd5b6005600083815260200190815260200160002060009054906101000a900473ffffffffffffffffffffffffffffffffffffffff169050919050565b60006107c382610d3d565b90508073ffffffffffffffffffffffffffffffffffffffff168373ffffffffffffffffffffffffffffffffffffffff16141561084a576040517f08c379a0000000000000000000000000000000000000000000000000000000008152600401808060200182810382526021815260200180613b5d6021913960400191505060405180910390fd5b8073ffffffffffffffffffffffffffffffffffffffff16610869611c84565b73ffffffffffffffffffffffffffffffffffffffff161480610898575061089781610892611c84565b6119e1565b5b6108ed576040517f08c379a0000000000000000000000000000000000000000000000000000000008152600401808060200182810382526038815260200180613a2c6038913960400191505060405180910390fd5b6108f78383611c8c565b505050565b610904613113565b600e60008381526020019081526020016000206040518060600160405290816000820160009054906101000a900473ffffffffffffffffffffffffffffffffffffffff1673ffffffffffffffffffffffffffffffffffffffff1673ffffffffffffffffffffffffffffffffffffffff168152602001600182015481526020016002820154815250509050919050565b600061099f6003611d45565b905090565b6109b56109af611c84565b82611d5a565b610a0a576040517f08c379a0000000000000000000000000000000000000000000000000000000008152600401808060200182810382526031815260200180613b7e6031913960400191505060405180910390fd5b610a15838383611e4e565b505050565b6000600d60149054906101000a900460ff16905090565b600081610a3c611c84565b73ffffffffffffffffffffffffffffffffffffffff16610a5b82610d3d565b73ffffffffffffffffffffffffffffffffffffffff1614610a7b57600080fd5b600e600084815260200190815260200160002060000160009054906101000a900473ffffffffffffffffffffffffffffffffffffffff1673ffffffffffffffffffffffffffffffffffffffff16600c60009054906101000a900473ffffffffffffffffffffffffffffffffffffffff1673ffffffffffffffffffffffffffffffffffffffff16636352211e856040518263ffffffff1660e01b8152600401610b23919061377e565b60206040518083038186803b158015610b3b57600080fd5b505afa158015610b4f573d6000803e3d6000fd5b505050506040513d601f19601f82011682018060405250810190610b7391906132a9565b73ffffffffffffffffffffffffffffffffffffffff1614610bc9576040517f08c379a0000000000000000000000000000000000000000000000000000000008152600401610bc090613703565b60405180910390fd5b610bd283612091565b600e6000848152602001908152602001600020600080820160006101000a81549073ffffffffffffffffffffffffffffffffffffffff02191690556001820160009055600282016000905550504283610c29611c84565b73ffffffffffffffffffffffffffffffffffffffff167fd79277f11bea144980bafa77ca965aba93645c81e42b4d49a466097ff270e50160405160405180910390a46001915050919050565b6000610cc882600260008673ffffffffffffffffffffffffffffffffffffffff1673ffffffffffffffffffffffffffffffffffffffff1681526020019081526020016000206121cb90919063ffffffff16565b905092915050565b6000600b60009054906101000a900473ffffffffffffffffffffffffffffffffffffffff16905090565b610d1583838360405180602001604052806000815250611577565b505050565b600080610d318360036121e590919063ffffffff16565b50905080915050919050565b6000610d6d82604051806060016040528060298152602001613a8e6029913960036122119092919063ffffffff16565b9050919050565b6060600a8054600181600116156101000203166002900480601f016020809104026020016040519081016040528092919081815260200182805460018160011615610100020316600290048015610e0c5780601f10610de157610100808354040283529160200191610e0c565b820191906000526020600020905b815481529060010190602001808311610def57829003601f168201915b5050505050905090565b600f602052816000526040600020602052806000526040600020600091509150505481565b60008073ffffffffffffffffffffffffffffffffffffffff168273ffffffffffffffffffffffffffffffffffffffff161415610ec2576040517f08c379a000000000000000000000000000000000000000000000000000000000815260040180806020018281038252602a815260200180613a64602a913960400191505060405180910390fd5b610f09600260008473ffffffffffffffffffffffffffffffffffffffff1673ffffffffffffffffffffffffffffffffffffffff168152602001908152602001600020612230565b9050919050565b610f18611c84565b73ffffffffffffffffffffffffffffffffffffffff16610f3661107d565b73ffffffffffffffffffffffffffffffffffffffff1614610fbf576040517f08c379a00000000000000000000000000000000000000000000000000000000081526004018080602001828103825260208152602001807f4f776e61626c653a2063616c6c6572206973206e6f7420746865206f776e657281525060200191505060405180910390fd5b600073ffffffffffffffffffffffffffffffffffffffff1660008054906101000a900473ffffffffffffffffffffffffffffffffffffffff1673ffffffffffffffffffffffffffffffffffffffff167f8be0079c531659141344cd1fd0a4f28419497f9722a3daafe3b4186f6b6457e060405160405180910390a360008060006101000a81548173ffffffffffffffffffffffffffffffffffffffff021916908373ffffffffffffffffffffffffffffffffffffffff160217905550565b60008060009054906101000a900473ffffffffffffffffffffffffffffffffffffffff16905090565b606060088054600181600116156101000203166002900480601f01602080910402602001604051908101604052809291908181526020018280546001816001161561010002031660029004801561113e5780601f106111135761010080835404028352916020019161113e565b820191906000526020600020905b81548152906001019060200180831161112157829003601f168201915b5050505050905090565b611150611c84565b73ffffffffffffffffffffffffffffffffffffffff168273ffffffffffffffffffffffffffffffffffffffff1614156111f1576040517f08c379a00000000000000000000000000000000000000000000000000000000081526004018080602001828103825260198152602001807f4552433732313a20617070726f766520746f2063616c6c65720000000000000081525060200191505060405180910390fd5b80600660006111fe611c84565b73ffffffffffffffffffffffffffffffffffffffff1673ffffffffffffffffffffffffffffffffffffffff16815260200190815260200160002060008473ffffffffffffffffffffffffffffffffffffffff1673ffffffffffffffffffffffffffffffffffffffff16815260200190815260200160002060006101000a81548160ff0219169083151502179055508173ffffffffffffffffffffffffffffffffffffffff166112ab611c84565b73ffffffffffffffffffffffffffffffffffffffff167f17307eab39ab6107e8899845ad3d59bd9653f200f220920489ca2b5937696c318360405180821515815260200191505060405180910390a35050565b6000600d60149054906101000a900460ff1615611350576040517f08c379a000000000000000000000000000000000000000000000000000000000815260040161134790613743565b60405180910390fd5b611358611c84565b73ffffffffffffffffffffffffffffffffffffffff16600c60009054906101000a900473ffffffffffffffffffffffffffffffffffffffff1673ffffffffffffffffffffffffffffffffffffffff16636352211e846040518263ffffffff1660e01b81526004016113c9919061377e565b60206040518083038186803b1580156113e157600080fd5b505afa1580156113f5573d6000803e3d6000fd5b505050506040513d601f19601f8201168201806040525081019061141991906132a9565b73ffffffffffffffffffffffffffffffffffffffff161461146f576040517f08c379a000000000000000000000000000000000000000000000000000000000815260040161146690613723565b60405180910390fd5b60405180606001604052803373ffffffffffffffffffffffffffffffffffffffff16815260200183815260200142815250600e600084815260200190815260200160002060008201518160000160006101000a81548173ffffffffffffffffffffffffffffffffffffffff021916908373ffffffffffffffffffffffffffffffffffffffff160217905550602082015181600101556040820151816002015590505061152261151c611c84565b83612245565b428261152c611c84565b73ffffffffffffffffffffffffffffffffffffffff167f4b82aa16e071a61de1a6b9aeec9edab0356331f8122c78683b469ac8e685dabc60405160405180910390a460019050919050565b611588611582611c84565b83611d5a565b6115dd576040517f08c379a0000000000000000000000000000000000000000000000000000000008152600401808060200182810382526031815260200180613b7e6031913960400191505060405180910390fd5b6115e984848484612439565b50505050565b60606115fa82611c67565b61164f576040517f08c379a000000000000000000000000000000000000000000000000000000000815260040180806020018281038252602f815260200180613b2e602f913960400191505060405180910390fd5b6000600960008481526020019081526020016000208054600181600116156101000203166002900480601f0160208091040260200160405190810160405280929190818152602001828054600181600116156101000203166002900480156116f85780601f106116cd576101008083540402835291602001916116f8565b820191906000526020600020905b8154815290600101906020018083116116db57829003601f168201915b505050505090506000611709610d74565b905060008151141561171f5781925050506118bb565b6000825111156117f05780826040516020018083805190602001908083835b60208310611761578051825260208201915060208101905060208303925061173e565b6001836020036101000a03801982511681845116808217855250505050505090500182805190602001908083835b602083106117b2578051825260208201915060208101905060208303925061178f565b6001836020036101000a03801982511681845116808217855250505050505090500192505050604051602081830303815290604052925050506118bb565b806117fa856124ab565b6040516020018083805190602001908083835b60208310611830578051825260208201915060208101905060208303925061180d565b6001836020036101000a03801982511681845116808217855250505050505090500182805190602001908083835b60208310611881578051825260208201915060208101905060208303925061185e565b6001836020036101000a03801982511681845116808217855250505050505090500192505050604051602081830303815290604052925050505b919050565b6118c8611c84565b73ffffffffffffffffffffffffffffffffffffffff166118e661107d565b73ffffffffffffffffffffffffffffffffffffffff161461196f576040517f08c379a00000000000000000000000000000000000000000000000000000000081526004018080602001828103825260208152602001807f4f776e61626c653a2063616c6c6572206973206e6f7420746865206f776e657281525060200191505060405180910390fd5b600d60149054906101000a900460ff1615600d60146101000a81548160ff0219169083151502179055507f52b85b02b7d21238e828a5c4da635eedf42851c8d1db199f9d414f941e89b650600d60149054906101000a900460ff166040516119d791906136c6565b60405180910390a1565b6000600660008473ffffffffffffffffffffffffffffffffffffffff1673ffffffffffffffffffffffffffffffffffffffff16815260200190815260200160002060008373ffffffffffffffffffffffffffffffffffffffff1673ffffffffffffffffffffffffffffffffffffffff16815260200190815260200160002060009054906101000a900460ff16905092915050565b611a7d611c84565b73ffffffffffffffffffffffffffffffffffffffff16611a9b61107d565b73ffffffffffffffffffffffffffffffffffffffff1614611b24576040517f08c379a00000000000000000000000000000000000000000000000000000000081526004018080602001828103825260208152602001807f4f776e61626c653a2063616c6c6572206973206e6f7420746865206f776e657281525060200191505060405180910390fd5b600073ffffffffffffffffffffffffffffffffffffffff168173ffffffffffffffffffffffffffffffffffffffff161415611baa576040517f08c379a00000000000000000000000000000000000000000000000000000000081526004018080602001828103825260268152602001806139906026913960400191505060405180910390fd5b8073ffffffffffffffffffffffffffffffffffffffff1660008054906101000a900473ffffffffffffffffffffffffffffffffffffffff1673ffffffffffffffffffffffffffffffffffffffff167f8be0079c531659141344cd1fd0a4f28419497f9722a3daafe3b4186f6b6457e060405160405180910390a3806000806101000a81548173ffffffffffffffffffffffffffffffffffffffff021916908373ffffffffffffffffffffffffffffffffffffffff16021790555050565b6000611c7d8260036125f290919063ffffffff16565b9050919050565b600033905090565b816005600083815260200190815260200160002060006101000a81548173ffffffffffffffffffffffffffffffffffffffff021916908373ffffffffffffffffffffffffffffffffffffffff160217905550808273ffffffffffffffffffffffffffffffffffffffff16611cff83610d3d565b73ffffffffffffffffffffffffffffffffffffffff167f8c5be1e5ebec7d5bd14f71427d1e84f3dd0314c0f7b2291e5b200ac8c7c3b92560405160405180910390a45050565b6000611d538260000161260c565b9050919050565b6000611d6582611c67565b611dba576040517f08c379a000000000000000000000000000000000000000000000000000000000815260040180806020018281038252602c815260200180613a00602c913960400191505060405180910390fd5b6000611dc583610d3d565b90508073ffffffffffffffffffffffffffffffffffffffff168473ffffffffffffffffffffffffffffffffffffffff161480611e3457508373ffffffffffffffffffffffffffffffffffffffff16611e1c8461071d565b73ffffffffffffffffffffffffffffffffffffffff16145b80611e455750611e4481856119e1565b5b91505092915050565b8273ffffffffffffffffffffffffffffffffffffffff16611e6e82610d3d565b73ffffffffffffffffffffffffffffffffffffffff1614611eda576040517f08c379a0000000000000000000000000000000000000000000000000000000008152600401808060200182810382526029815260200180613b056029913960400191505060405180910390fd5b600073ffffffffffffffffffffffffffffffffffffffff168273ffffffffffffffffffffffffffffffffffffffff161415611f60576040517f08c379a00000000000000000000000000000000000000000000000000000000081526004018080602001828103825260248152602001806139b66024913960400191505060405180910390fd5b611f6b83838361261d565b611f76600082611c8c565b611fc781600260008673ffffffffffffffffffffffffffffffffffffffff1673ffffffffffffffffffffffffffffffffffffffff16815260200190815260200160002061262290919063ffffffff16565b5061201981600260008573ffffffffffffffffffffffffffffffffffffffff1673ffffffffffffffffffffffffffffffffffffffff16815260200190815260200160002061263c90919063ffffffff16565b50612030818360036126569092919063ffffffff16565b50808273ffffffffffffffffffffffffffffffffffffffff168473ffffffffffffffffffffffffffffffffffffffff167fddf252ad1be2c89b69c2b068fc378daa952ba7f163c4a11628f55a4df523b3ef60405160405180910390a4505050565b600061209c82610d3d565b90506120aa8160008461261d565b6120b5600083611c8c565b6000600960008481526020019081526020016000208054600181600116156101000203166002900490501461210457600960008381526020019081526020016000206000612103919061314a565b5b61215582600260008473ffffffffffffffffffffffffffffffffffffffff1673ffffffffffffffffffffffffffffffffffffffff16815260200190815260200160002061262290919063ffffffff16565b5061216a82600361268b90919063ffffffff16565b5081600073ffffffffffffffffffffffffffffffffffffffff168273ffffffffffffffffffffffffffffffffffffffff167fddf252ad1be2c89b69c2b068fc378daa952ba7f163c4a11628f55a4df523b3ef60405160405180910390a45050565b60006121da83600001836126a5565b60001c905092915050565b6000806000806121f88660000186612728565b915091508160001c8160001c9350935050509250929050565b6000612224846000018460001b846127c1565b60001c90509392505050565b600061223e826000016128b7565b9050919050565b600073ffffffffffffffffffffffffffffffffffffffff168273ffffffffffffffffffffffffffffffffffffffff1614156122e8576040517f08c379a00000000000000000000000000000000000000000000000000000000081526004018080602001828103825260208152602001807f4552433732313a206d696e7420746f20746865207a65726f206164647265737381525060200191505060405180910390fd5b6122f181611c67565b15612364576040517f08c379a000000000000000000000000000000000000000000000000000000000815260040180806020018281038252601c8152602001807f4552433732313a20746f6b656e20616c7265616479206d696e7465640000000081525060200191505060405180910390fd5b6123706000838361261d565b6123c181600260008573ffffffffffffffffffffffffffffffffffffffff1673ffffffffffffffffffffffffffffffffffffffff16815260200190815260200160002061263c90919063ffffffff16565b506123d8818360036126569092919063ffffffff16565b50808273ffffffffffffffffffffffffffffffffffffffff16600073ffffffffffffffffffffffffffffffffffffffff167fddf252ad1be2c89b69c2b068fc378daa952ba7f163c4a11628f55a4df523b3ef60405160405180910390a45050565b612444848484611e4e565b612450848484846128c8565b6124a5576040517f08c379a000000000000000000000000000000000000000000000000000000000815260040180806020018281038252603281526020018061395e6032913960400191505060405180910390fd5b50505050565b606060008214156124f3576040518060400160405280600181526020017f300000000000000000000000000000000000000000000000000000000000000081525090506125ed565b600082905060005b6000821461251d578080600101915050600a828161251557fe5b0491506124fb565b60008167ffffffffffffffff8111801561253657600080fd5b506040519080825280601f01601f1916602001820160405280156125695781602001600182028036833780820191505090505b50905060006001830390508593505b600084146125e557600a848161258a57fe5b0660300160f81b828280600190039350815181106125a457fe5b60200101907effffffffffffffffffffffffffffffffffffffffffffffffffffffffffffff1916908160001a905350600a84816125dd57fe5b049350612578565b819450505050505b919050565b6000612604836000018360001b612ae1565b905092915050565b600081600001805490509050919050565b505050565b6000612634836000018360001b612b04565b905092915050565b600061264e836000018360001b612bec565b905092915050565b6000612682846000018460001b8473ffffffffffffffffffffffffffffffffffffffff1660001b612c5c565b90509392505050565b600061269d836000018360001b612d38565b905092915050565b600081836000018054905011612706576040517f08c379a000000000000000000000000000000000000000000000000000000000815260040180806020018281038252602281526020018061393c6022913960400191505060405180910390fd5b82600001828154811061271557fe5b9060005260206000200154905092915050565b6000808284600001805490501161278a576040517f08c379a0000000000000000000000000000000000000000000000000000000008152600401808060200182810382526022815260200180613ab76022913960400191505060405180910390fd5b600084600001848154811061279b57fe5b906000526020600020906002020190508060000154816001015492509250509250929050565b60008084600101600085815260200190815260200160002054905060008114158390612888576040517f08c379a00000000000000000000000000000000000000000000000000000000081526004018080602001828103825283818151815260200191508051906020019080838360005b8381101561284d578082015181840152602081019050612832565b50505050905090810190601f16801561287a5780820380516001836020036101000a031916815260200191505b509250505060405180910390fd5b5084600001600182038154811061289b57fe5b9060005260206000209060020201600101549150509392505050565b600081600001805490509050919050565b60006128e98473ffffffffffffffffffffffffffffffffffffffff16612e51565b6128f65760019050612ad9565b6000612a6063150b7a0260e01b61290b611c84565b888787604051602401808573ffffffffffffffffffffffffffffffffffffffff1681526020018473ffffffffffffffffffffffffffffffffffffffff16815260200183815260200180602001828103825283818151815260200191508051906020019080838360005b8381101561298f578082015181840152602081019050612974565b50505050905090810190601f1680156129bc5780820380516001836020036101000a031916815260200191505b5095505050505050604051602081830303815290604052907bffffffffffffffffffffffffffffffffffffffffffffffffffffffff19166020820180517bffffffffffffffffffffffffffffffffffffffffffffffffffffffff838183161783525050505060405180606001604052806032815260200161395e603291398773ffffffffffffffffffffffffffffffffffffffff16612e649092919063ffffffff16565b90506000818060200190516020811015612a7957600080fd5b8101908080519060200190929190505050905063150b7a0260e01b7bffffffffffffffffffffffffffffffffffffffffffffffffffffffff1916817bffffffffffffffffffffffffffffffffffffffffffffffffffffffff191614925050505b949350505050565b600080836001016000848152602001908152602001600020541415905092915050565b60008083600101600084815260200190815260200160002054905060008114612be05760006001820390506000600186600001805490500390506000866000018281548110612b4f57fe5b9060005260206000200154905080876000018481548110612b6c57fe5b9060005260206000200181905550600183018760010160008381526020019081526020016000208190555086600001805480612ba457fe5b60019003818190600052602060002001600090559055866001016000878152602001908152602001600020600090556001945050505050612be6565b60009150505b92915050565b6000612bf88383612e7c565b612c51578260000182908060018154018082558091505060019003906000526020600020016000909190919091505582600001805490508360010160008481526020019081526020016000208190555060019050612c56565b600090505b92915050565b6000808460010160008581526020019081526020016000205490506000811415612d0357846000016040518060400160405280868152602001858152509080600181540180825580915050600190039060005260206000209060020201600090919091909150600082015181600001556020820151816001015550508460000180549050856001016000868152602001908152602001600020819055506001915050612d31565b82856000016001830381548110612d1657fe5b90600052602060002090600202016001018190555060009150505b9392505050565b60008083600101600084815260200190815260200160002054905060008114612e455760006001820390506000600186600001805490500390506000866000018281548110612d8357fe5b9060005260206000209060020201905080876000018481548110612da357fe5b9060005260206000209060020201600082015481600001556001820154816001015590505060018301876001016000836000015481526020019081526020016000208190555086600001805480612df657fe5b6001900381819060005260206000209060020201600080820160009055600182016000905550509055866001016000878152602001908152602001600020600090556001945050505050612e4b565b60009150505b92915050565b600080823b905060008111915050919050565b6060612e738484600085612e9f565b90509392505050565b600080836001016000848152602001908152602001600020541415905092915050565b606082471015612efa576040517f08c379a00000000000000000000000000000000000000000000000000000000081526004018080602001828103825260268152602001806139da6026913960400191505060405180910390fd5b612f0385612e51565b612f75576040517f08c379a000000000000000000000000000000000000000000000000000000000815260040180806020018281038252601d8152602001807f416464726573733a2063616c6c20746f206e6f6e2d636f6e747261637400000081525060200191505060405180910390fd5b6000808673ffffffffffffffffffffffffffffffffffffffff1685876040518082805190602001908083835b60208310612fc45780518252602082019150602081019050602083039250612fa1565b6001836020036101000a03801982511681845116808217855250505050505090500191505060006040518083038185875af1925050503d8060008114613026576040519150601f19603f3d011682016040523d82523d6000602084013e61302b565b606091505b509150915061303b828286613047565b92505050949350505050565b606083156130575782905061310c565b60008351111561306a5782518084602001fd5b816040517f08c379a00000000000000000000000000000000000000000000000000000000081526004018080602001828103825283818151815260200191508051906020019080838360005b838110156130d15780820151818401526020810190506130b6565b50505050905090810190601f1680156130fe5780820380516001836020036101000a031916815260200191505b509250505060405180910390fd5b9392505050565b6040518060600160405280600073ffffffffffffffffffffffffffffffffffffffff16815260200160008152602001600081525090565b50805460018160011615610100020316600290046000825580601f10613170575061318f565b601f01602090049060005260206000209081019061318e9190613192565b5b50565b5b808211156131ab576000816000905550600101613193565b5090565b60006131c26131bd846137ca565b613799565b9050828152602081018484840111156131da57600080fd5b6131e584828561388a565b509392505050565b6000813590506131fc816138df565b92915050565b600081519050613211816138df565b92915050565b600081359050613226816138f6565b92915050565b60008135905061323b8161390d565b92915050565b600082601f83011261325257600080fd5b81356132628482602086016131af565b91505092915050565b60008135905061327a81613924565b92915050565b60006020828403121561329257600080fd5b60006132a0848285016131ed565b91505092915050565b6000602082840312156132bb57600080fd5b60006132c984828501613202565b91505092915050565b600080604083850312156132e557600080fd5b60006132f3858286016131ed565b9250506020613304858286016131ed565b9150509250929050565b60008060006060848603121561332357600080fd5b6000613331868287016131ed565b9350506020613342868287016131ed565b92505060406133538682870161326b565b9150509250925092565b6000806000806080858703121561337357600080fd5b6000613381878288016131ed565b9450506020613392878288016131ed565b93505060406133a38782880161326b565b925050606085013567ffffffffffffffff8111156133c057600080fd5b6133cc87828801613241565b91505092959194509250565b600080604083850312156133eb57600080fd5b60006133f9858286016131ed565b925050602061340a85828601613217565b9150509250929050565b6000806040838503121561342757600080fd5b6000613435858286016131ed565b92505060206134468582860161326b565b9150509250929050565b60006020828403121561346257600080fd5b60006134708482850161322c565b91505092915050565b60006020828403121561348b57600080fd5b60006134998482850161326b565b91505092915050565b6134ab81613816565b82525050565b6134ba81613816565b82525050565b6134c981613828565b82525050565b60006134da826137fa565b6134e48185613805565b93506134f4818560208601613899565b6134fd816138ce565b840191505092915050565b6000613515603b83613805565b91507f537570655261726556323a204e6f7420746865204f776e6572206f662074686560008301527f204f726967696e616c205375706552617265563120546f6b656e2100000000006020830152604082019050919050565b600061357b603283613805565b91507f537570655261726556323a204e6f7420746865204f776e6572206f662074686560008301527f205375706552617265563120546f6b656e2100000000000000000000000000006020830152604082019050919050565b60006135e1601183613805565b91507f4445504f534954535f44495341424c45440000000000000000000000000000006000830152602082019050919050565b60608201600082015161362a60008501826134a2565b50602082015161363d6020850182613656565b5060408201516136506040850182613656565b50505050565b61365f81613880565b82525050565b61366e81613880565b82525050565b600060208201905061368960008301846134b1565b92915050565b60006060820190506136a460008301866134b1565b6136b16020830185613665565b6136be6040830184613665565b949350505050565b60006020820190506136db60008301846134c0565b92915050565b600060208201905081810360008301526136fb81846134cf565b905092915050565b6000602082019050818103600083015261371c81613508565b9050919050565b6000602082019050818103600083015261373c8161356e565b9050919050565b6000602082019050818103600083015261375c816135d4565b9050919050565b60006060820190506137786000830184613614565b92915050565b60006020820190506137936000830184613665565b92915050565b6000604051905081810181811067ffffffffffffffff821117156137c0576137bf6138cc565b5b8060405250919050565b600067ffffffffffffffff8211156137e5576137e46138cc565b5b601f19601f8301169050602081019050919050565b600081519050919050565b600082825260208201905092915050565b600061382182613860565b9050919050565b60008115159050919050565b60007fffffffff0000000000000000000000000000000000000000000000000000000082169050919050565b600073ffffffffffffffffffffffffffffffffffffffff82169050919050565b6000819050919050565b82818337600083830152505050565b60005b838110156138b757808201518184015260208101905061389c565b838111156138c6576000848401525b50505050565bfe5b6000601f19601f8301169050919050565b6138e881613816565b81146138f357600080fd5b50565b6138ff81613828565b811461390a57600080fd5b50565b61391681613834565b811461392157600080fd5b50565b61392d81613880565b811461393857600080fd5b5056fe456e756d657261626c655365743a20696e646578206f7574206f6620626f756e64734552433732313a207472616e7366657220746f206e6f6e20455243373231526563656976657220696d706c656d656e7465724f776e61626c653a206e6577206f776e657220697320746865207a65726f20616464726573734552433732313a207472616e7366657220746f20746865207a65726f2061646472657373416464726573733a20696e73756666696369656e742062616c616e636520666f722063616c6c4552433732313a206f70657261746f7220717565727920666f72206e6f6e6578697374656e7420746f6b656e4552433732313a20617070726f76652063616c6c6572206973206e6f74206f776e6572206e6f7220617070726f76656420666f7220616c6c4552433732313a2062616c616e636520717565727920666f7220746865207a65726f20616464726573734552433732313a206f776e657220717565727920666f72206e6f6e6578697374656e7420746f6b656e456e756d657261626c654d61703a20696e646578206f7574206f6620626f756e64734552433732313a20617070726f76656420717565727920666f72206e6f6e6578697374656e7420746f6b656e4552433732313a207472616e73666572206f6620746f6b656e2074686174206973206e6f74206f776e4552433732314d657461646174613a2055524920717565727920666f72206e6f6e6578697374656e7420746f6b656e4552433732313a20617070726f76616c20746f2063757272656e74206f776e65724552433732313a207472616e736665722063616c6c6572206973206e6f74206f776e6572206e6f7220617070726f766564a2646970667358221220335add6cdbce7878bde4852425e7d0928c367f8e3e52706434caf5ff33632c1f64736f6c63430007060033",
  "linkReferences": {},
  "deployedLinkReferences": {}
}