{
  "_format": "hh-sol-artifact-1",
  "contractName": "SupeRareV2",
  "sourceName": "contracts/SupeRareV2.sol",
  "abi": [
    {
      "inputs": [
        {
          "internalType": "address",
          "name": "OriginalSupeRareAddr__",
          "type": "address"
        }
      ],
      "stateMutability": "nonpayable",
      "type": "constructor"
    },
    {
      "anonymous": false,
      "inputs": [
        {
          "indexed": true,
          "internalType": "address",
          "name": "owner",
          "type": "address"
        },
        {
          "indexed": true,
          "internalType": "address",
          "name": "approved",
          "type": "address"
        },
        {
          "indexed": true,
          "internalType": "uint256",
          "name": "tokenId",
          "type": "uint256"
        }
      ],
      "name": "Approval",
      "type": "event"
    },
    {
      "anonymous": false,
      "inputs": [
        {
          "indexed": true,
          "internalType": "address",
          "name": "owner",
          "type": "address"
        },
        {
          "indexed": true,
          "internalType": "address",
          "name": "operator",
          "type": "address"
        },
        {
          "indexed": false,
          "internalType": "bool",
          "name": "approved",
          "type": "bool"
        }
      ],
      "name": "ApprovalForAll",
      "type": "event"
    },
    {
      "anonymous": false,
      "inputs": [
        {
          "indexed": true,
          "internalType": "address",
          "name": "previousOwner",
          "type": "address"
        },
        {
          "indexed": true,
          "internalType": "address",
          "name": "newOwner",
          "type": "address"
        }
      ],
      "name": "OwnershipTransferred",
      "type": "event"
    },
    {
      "anonymous": false,
      "inputs": [
        {
          "indexed": false,
          "internalType": "bool",
          "name": "",
          "type": "bool"
        }
      ],
      "name": "ToggleStartStop",
      "type": "event"
    },
    {
      "anonymous": false,
      "inputs": [
        {
          "indexed": true,
          "internalType": "address",
          "name": "from",
          "type": "address"
        },
        {
          "indexed": true,
          "internalType": "address",
          "name": "to",
          "type": "address"
        },
        {
          "indexed": true,
          "internalType": "uint256",
          "name": "tokenId",
          "type": "uint256"
        }
      ],
      "name": "Transfer",
      "type": "event"
    },
    {
      "inputs": [],
      "name": "ToggleContract",
      "outputs": [],
      "stateMutability": "nonpayable",
      "type": "function"
    },
    {
      "inputs": [
        {
          "internalType": "uint256",
          "name": "v1TokenId",
          "type": "uint256"
        }
      ],
      "name": "Withdraw_V1",
      "outputs": [
        {
          "internalType": "uint256",
          "name": "",
          "type": "uint256"
        }
      ],
      "stateMutability": "nonpayable",
      "type": "function"
    },
    {
      "inputs": [
        {
          "internalType": "address",
          "name": "to",
          "type": "address"
        },
        {
          "internalType": "uint256",
          "name": "tokenId",
          "type": "uint256"
        }
      ],
      "name": "approve",
      "outputs": [],
      "stateMutability": "nonpayable",
      "type": "function"
    },
    {
      "inputs": [
        {
          "internalType": "address",
          "name": "owner",
          "type": "address"
        }
      ],
      "name": "balanceOf",
      "outputs": [
        {
          "internalType": "uint256",
          "name": "",
          "type": "uint256"
        }
      ],
      "stateMutability": "view",
      "type": "function"
    },
    {
      "inputs": [],
      "name": "baseURI",
      "outputs": [
        {
          "internalType": "string",
          "name": "",
          "type": "string"
        }
      ],
      "stateMutability": "view",
      "type": "function"
    },
    {
      "inputs": [],
      "name": "contract_status",
      "outputs": [
        {
          "internalType": "bool",
          "name": "",
          "type": "bool"
        }
      ],
      "stateMutability": "view",
      "type": "function"
    },
    {
      "inputs": [
        {
          "internalType": "uint256",
          "name": "v1TokenId",
          "type": "uint256"
        }
      ],
      "name": "deposit_V1",
      "outputs": [
        {
          "internalType": "uint256",
          "name": "",
          "type": "uint256"
        }
      ],
      "stateMutability": "nonpayable",
      "type": "function"
    },
    {
      "inputs": [
        {
          "internalType": "uint256",
          "name": "tokenId",
          "type": "uint256"
        }
      ],
      "name": "getApproved",
      "outputs": [
        {
          "internalType": "address",
          "name": "",
          "type": "address"
        }
      ],
      "stateMutability": "view",
      "type": "function"
    },
    {
      "inputs": [],
      "name": "getSupeRareAddress",
      "outputs": [
        {
          "internalType": "address",
          "name": "",
          "type": "address"
        }
      ],
      "stateMutability": "view",
      "type": "function"
    },
    {
      "inputs": [
        {
          "internalType": "address",
          "name": "owner",
          "type": "address"
        },
        {
          "internalType": "address",
          "name": "operator",
          "type": "address"
        }
      ],
      "name": "isApprovedForAll",
      "outputs": [
        {
          "internalType": "bool",
          "name": "",
          "type": "bool"
        }
      ],
      "stateMutability": "view",
      "type": "function"
    },
    {
      "inputs": [],
      "name": "name",
      "outputs": [
        {
          "internalType": "string",
          "name": "",
          "type": "string"
        }
      ],
      "stateMutability": "view",
      "type": "function"
    },
    {
      "inputs": [],
      "name": "owner",
      "outputs": [
        {
          "internalType": "address",
          "name": "",
          "type": "address"
        }
      ],
      "stateMutability": "view",
      "type": "function"
    },
    {
      "inputs": [
        {
          "internalType": "address",
          "name": "",
          "type": "address"
        },
        {
          "internalType": "uint256",
          "name": "",
          "type": "uint256"
        }
      ],
      "name": "ownerAddrToV1toV2TokenId",
      "outputs": [
        {
          "internalType": "uint256",
          "name": "",
          "type": "uint256"
        }
      ],
      "stateMutability": "view",
      "type": "function"
    },
    {
      "inputs": [
        {
          "internalType": "uint256",
          "name": "tokenId",
          "type": "uint256"
        }
      ],
      "name": "ownerOf",
      "outputs": [
        {
          "internalType": "address",
          "name": "",
          "type": "address"
        }
      ],
      "stateMutability": "view",
      "type": "function"
    },
    {
      "inputs": [],
      "name": "renounceOwnership",
      "outputs": [],
      "stateMutability": "nonpayable",
      "type": "function"
    },
    {
      "inputs": [
        {
          "internalType": "address",
          "name": "from",
          "type": "address"
        },
        {
          "internalType": "address",
          "name": "to",
          "type": "address"
        },
        {
          "internalType": "uint256",
          "name": "tokenId",
          "type": "uint256"
        }
      ],
      "name": "safeTransferFrom",
      "outputs": [],
      "stateMutability": "nonpayable",
      "type": "function"
    },
    {
      "inputs": [
        {
          "internalType": "address",
          "name": "from",
          "type": "address"
        },
        {
          "internalType": "address",
          "name": "to",
          "type": "address"
        },
        {
          "internalType": "uint256",
          "name": "tokenId",
          "type": "uint256"
        },
        {
          "internalType": "bytes",
          "name": "_data",
          "type": "bytes"
        }
      ],
      "name": "safeTransferFrom",
      "outputs": [],
      "stateMutability": "nonpayable",
      "type": "function"
    },
    {
      "inputs": [
        {
          "internalType": "address",
          "name": "from",
          "type": "address"
        },
        {
          "internalType": "address",
          "name": "to",
          "type": "address"
        },
        {
          "internalType": "uint256",
          "name": "tokenId",
          "type": "uint256"
        },
        {
          "internalType": "bytes",
          "name": "_data",
          "type": "bytes"
        }
      ],
      "name": "safeTransferToEschrow",
      "outputs": [],
      "stateMutability": "nonpayable",
      "type": "function"
    },
    {
      "inputs": [
        {
          "internalType": "address",
          "name": "operator",
          "type": "address"
        },
        {
          "internalType": "bool",
          "name": "approved",
          "type": "bool"
        }
      ],
      "name": "setApprovalForAll",
      "outputs": [],
      "stateMutability": "nonpayable",
      "type": "function"
    },
    {
      "inputs": [
        {
          "internalType": "bytes4",
          "name": "interfaceId",
          "type": "bytes4"
        }
      ],
      "name": "supportsInterface",
      "outputs": [
        {
          "internalType": "bool",
          "name": "",
          "type": "bool"
        }
      ],
      "stateMutability": "view",
      "type": "function"
    },
    {
      "inputs": [],
      "name": "symbol",
      "outputs": [
        {
          "internalType": "string",
          "name": "",
          "type": "string"
        }
      ],
      "stateMutability": "view",
      "type": "function"
    },
    {
      "inputs": [
        {
          "internalType": "uint256",
          "name": "index",
          "type": "uint256"
        }
      ],
      "name": "tokenByIndex",
      "outputs": [
        {
          "internalType": "uint256",
          "name": "",
          "type": "uint256"
        }
      ],
      "stateMutability": "view",
      "type": "function"
    },
    {
      "inputs": [
        {
          "internalType": "address",
          "name": "owner",
          "type": "address"
        },
        {
          "internalType": "uint256",
          "name": "index",
          "type": "uint256"
        }
      ],
      "name": "tokenOfOwnerByIndex",
      "outputs": [
        {
          "internalType": "uint256",
          "name": "",
          "type": "uint256"
        }
      ],
      "stateMutability": "view",
      "type": "function"
    },
    {
      "inputs": [
        {
          "internalType": "uint256",
          "name": "tokenId",
          "type": "uint256"
        }
      ],
      "name": "tokenURI",
      "outputs": [
        {
          "internalType": "string",
          "name": "",
          "type": "string"
        }
      ],
      "stateMutability": "view",
      "type": "function"
    },
    {
      "inputs": [],
      "name": "totalSupply",
      "outputs": [
        {
          "internalType": "uint256",
          "name": "",
          "type": "uint256"
        }
      ],
      "stateMutability": "view",
      "type": "function"
    },
    {
      "inputs": [
        {
          "internalType": "address",
          "name": "from",
          "type": "address"
        },
        {
          "internalType": "address",
          "name": "to",
          "type": "address"
        },
        {
          "internalType": "uint256",
          "name": "tokenId",
          "type": "uint256"
        }
      ],
      "name": "transferFrom",
      "outputs": [],
      "stateMutability": "nonpayable",
      "type": "function"
    },
    {
      "inputs": [
        {
          "internalType": "address",
          "name": "newOwner",
          "type": "address"
        }
      ],
      "name": "transferOwnership",
      "outputs": [],
      "stateMutability": "nonpayable",
      "type": "function"
    }
  ],
  "bytecode": "0x60806040523480156200001157600080fd5b50604051620042c2380380620042c2833981810160405260208110156200003757600080fd5b81019080805190602001909291905050506040518060400160405280600a81526020017f53757065526172655632000000000000000000000000000000000000000000008152506040518060400160405280600681526020017f53555052563200000000000000000000000000000000000000000000000000008152506000620000c6620002a360201b60201c565b9050806000806101000a81548173ffffffffffffffffffffffffffffffffffffffff021916908373ffffffffffffffffffffffffffffffffffffffff1602179055508073ffffffffffffffffffffffffffffffffffffffff16600073ffffffffffffffffffffffffffffffffffffffff167f8be0079c531659141344cd1fd0a4f28419497f9722a3daafe3b4186f6b6457e060405160405180910390a3506200017c6301ffc9a760e01b620002ab60201b60201c565b816007908051906020019062000194929190620003b4565b508060089080519060200190620001ad929190620003b4565b50620001c66380ac58cd60e01b620002ab60201b60201c565b620001de635b5e139f60e01b620002ab60201b60201c565b620001f663780e9d6360e01b620002ab60201b60201c565b505080600b60006101000a81548173ffffffffffffffffffffffffffffffffffffffff021916908373ffffffffffffffffffffffffffffffffffffffff160217905550600b60009054906101000a900473ffffffffffffffffffffffffffffffffffffffff16600c60006101000a81548173ffffffffffffffffffffffffffffffffffffffff021916908373ffffffffffffffffffffffffffffffffffffffff160217905550506200046a565b600033905090565b63ffffffff60e01b817bffffffffffffffffffffffffffffffffffffffffffffffffffffffff1916141562000348576040517f08c379a000000000000000000000000000000000000000000000000000000000815260040180806020018281038252601c8152602001807f4552433136353a20696e76616c696420696e746572666163652069640000000081525060200191505060405180910390fd5b6001806000837bffffffffffffffffffffffffffffffffffffffffffffffffffffffff19167bffffffffffffffffffffffffffffffffffffffffffffffffffffffff1916815260200190815260200160002060006101000a81548160ff02191690831515021790555050565b828054600181600116156101000203166002900490600052602060002090601f016020900481019282620003ec576000855562000438565b82601f106200040757805160ff191683800117855562000438565b8280016001018555821562000438579182015b82811115620004375782518255916020019190600101906200041a565b5b5090506200044791906200044b565b5090565b5b80821115620004665760008160009055506001016200044c565b5090565b613e48806200047a6000396000f3fe608060405234801561001057600080fd5b50600436106101a95760003560e01c80636352211e116100f9578063a22cb46511610097578063c87b56dd11610071578063c87b56dd14610a60578063cfa2e00414610b07578063e985e9c514610b11578063f2fde38b14610b8b576101a9565b8063a22cb465146108c9578063a6ff545a14610919578063b88d4fde1461095b576101a9565b806370a08231116100d357806370a08231146107b0578063715018a6146108085780638da5cb5b1461081257806395d89b4114610846576101a9565b80636352211e146106735780636c0360eb146106cb5780636c0e67541461074e576101a9565b80632b1bf48f1161016657806342842e0e1161014057806342842e0e1461047c57806345a326b8146104ea5780634f6ccce71461052c578063510f86fa1461056e576101a9565b80632b1bf48f146103c65780632f745c59146103e65780633646478914610448576101a9565b806301ffc9a7146101ae57806306fdde0314610211578063081812fc14610294578063095ea7b3146102ec57806318160ddd1461033a57806323b872dd14610358575b600080fd5b6101f9600480360360208110156101c457600080fd5b8101908080357bffffffffffffffffffffffffffffffffffffffffffffffffffffffff19169060200190929190505050610bcf565b60405180821515815260200191505060405180910390f35b610219610c37565b6040518080602001828103825283818151815260200191508051906020019080838360005b8381101561025957808201518184015260208101905061023e565b50505050905090810190601f1680156102865780820380516001836020036101000a031916815260200191505b509250505060405180910390f35b6102c0600480360360208110156102aa57600080fd5b8101908080359060200190929190505050610cd9565b604051808273ffffffffffffffffffffffffffffffffffffffff16815260200191505060405180910390f35b6103386004803603604081101561030257600080fd5b81019080803573ffffffffffffffffffffffffffffffffffffffff16906020019092919080359060200190929190505050610d74565b005b610342610eb8565b6040518082815260200191505060405180910390f35b6103c46004803603606081101561036e57600080fd5b81019080803573ffffffffffffffffffffffffffffffffffffffff169060200190929190803573ffffffffffffffffffffffffffffffffffffffff16906020019092919080359060200190929190505050610ec9565b005b6103ce610f3f565b60405180821515815260200191505060405180910390f35b610432600480360360408110156103fc57600080fd5b81019080803573ffffffffffffffffffffffffffffffffffffffff16906020019092919080359060200190929190505050610f56565b6040518082815260200191505060405180910390f35b610450610fb1565b604051808273ffffffffffffffffffffffffffffffffffffffff16815260200191505060405180910390f35b6104e86004803603606081101561049257600080fd5b81019080803573ffffffffffffffffffffffffffffffffffffffff169060200190929190803573ffffffffffffffffffffffffffffffffffffffff16906020019092919080359060200190929190505050610fdb565b005b6105166004803603602081101561050057600080fd5b8101908080359060200190929190505050610ffb565b6040518082815260200191505060405180910390f35b6105586004803603602081101561054257600080fd5b8101908080359060200190929190505050611538565b6040518082815260200191505060405180910390f35b6106716004803603608081101561058457600080fd5b81019080803573ffffffffffffffffffffffffffffffffffffffff169060200190929190803573ffffffffffffffffffffffffffffffffffffffff16906020019092919080359060200190929190803590602001906401000000008111156105eb57600080fd5b8201836020820111156105fd57600080fd5b8035906020019184600183028401116401000000008311171561061f57600080fd5b91908080601f016020809104026020016040519081016040528093929190818152602001838380828437600081840152601f19601f82011690508083019250505050505050919291929050505061155b565b005b61069f6004803603602081101561068957600080fd5b810190808035906020019092919050505061170b565b604051808273ffffffffffffffffffffffffffffffffffffffff16815260200191505060405180910390f35b6106d3611742565b6040518080602001828103825283818151815260200191508051906020019080838360005b838110156107135780820151818401526020810190506106f8565b50505050905090810190601f1680156107405780820380516001836020036101000a031916815260200191505b509250505060405180910390f35b61079a6004803603604081101561076457600080fd5b81019080803573ffffffffffffffffffffffffffffffffffffffff169060200190929190803590602001909291905050506117e4565b6040518082815260200191505060405180910390f35b6107f2600480360360208110156107c657600080fd5b81019080803573ffffffffffffffffffffffffffffffffffffffff169060200190929190505050611809565b6040518082815260200191505060405180910390f35b6108106118de565b005b61081a611a4b565b604051808273ffffffffffffffffffffffffffffffffffffffff16815260200191505060405180910390f35b61084e611a74565b6040518080602001828103825283818151815260200191508051906020019080838360005b8381101561088e578082015181840152602081019050610873565b50505050905090810190601f1680156108bb5780820380516001836020036101000a031916815260200191505b509250505060405180910390f35b610917600480360360408110156108df57600080fd5b81019080803573ffffffffffffffffffffffffffffffffffffffff169060200190929190803515159060200190929190505050611b16565b005b6109456004803603602081101561092f57600080fd5b8101908080359060200190929190505050611ccc565b6040518082815260200191505060405180910390f35b610a5e6004803603608081101561097157600080fd5b81019080803573ffffffffffffffffffffffffffffffffffffffff169060200190929190803573ffffffffffffffffffffffffffffffffffffffff16906020019092919080359060200190929190803590602001906401000000008111156109d857600080fd5b8201836020820111156109ea57600080fd5b80359060200191846001830284011164010000000083111715610a0c57600080fd5b91908080601f016020809104026020016040519081016040528093929190818152602001838380828437600081840152601f19601f820116905080830192505050505050509192919290505050611e26565b005b610a8c60048036036020811015610a7657600080fd5b8101908080359060200190929190505050611e9e565b6040518080602001828103825283818151815260200191508051906020019080838360005b83811015610acc578082015181840152602081019050610ab1565b50505050905090810190601f168015610af95780820380516001836020036101000a031916815260200191505b509250505060405180910390f35b610b0f61216f565b005b610b7360048036036040811015610b2757600080fd5b81019080803573ffffffffffffffffffffffffffffffffffffffff169060200190929190803573ffffffffffffffffffffffffffffffffffffffff169060200190929190505050612292565b60405180821515815260200191505060405180910390f35b610bcd60048036036020811015610ba157600080fd5b81019080803573ffffffffffffffffffffffffffffffffffffffff169060200190929190505050612326565b005b600060016000837bffffffffffffffffffffffffffffffffffffffffffffffffffffffff19167bffffffffffffffffffffffffffffffffffffffffffffffffffffffff1916815260200190815260200160002060009054906101000a900460ff169050919050565b606060078054600181600116156101000203166002900480601f016020809104026020016040519081016040528092919081815260200182805460018160011615610100020316600290048015610ccf5780601f10610ca457610100808354040283529160200191610ccf565b820191906000526020600020905b815481529060010190602001808311610cb257829003601f168201915b5050505050905090565b6000610ce482612518565b610d39576040517f08c379a000000000000000000000000000000000000000000000000000000000815260040180806020018281038252602c815260200180613d11602c913960400191505060405180910390fd5b6005600083815260200190815260200160002060009054906101000a900473ffffffffffffffffffffffffffffffffffffffff169050919050565b6000610d7f8261170b565b90508073ffffffffffffffffffffffffffffffffffffffff168373ffffffffffffffffffffffffffffffffffffffff161415610e06576040517f08c379a0000000000000000000000000000000000000000000000000000000008152600401808060200182810382526021815260200180613dc16021913960400191505060405180910390fd5b8073ffffffffffffffffffffffffffffffffffffffff16610e25612535565b73ffffffffffffffffffffffffffffffffffffffff161480610e545750610e5381610e4e612535565b612292565b5b610ea9576040517f08c379a0000000000000000000000000000000000000000000000000000000008152600401808060200182810382526038815260200180613c646038913960400191505060405180910390fd5b610eb3838361253d565b505050565b6000610ec460036125f6565b905090565b610eda610ed4612535565b8261260b565b610f2f576040517f08c379a0000000000000000000000000000000000000000000000000000000008152600401808060200182810382526031815260200180613de26031913960400191505060405180910390fd5b610f3a8383836126ff565b505050565b6000600d60149054906101000a900460ff16905090565b6000610fa982600260008673ffffffffffffffffffffffffffffffffffffffff1673ffffffffffffffffffffffffffffffffffffffff16815260200190815260200160002061294290919063ffffffff16565b905092915050565b6000600b60009054906101000a900473ffffffffffffffffffffffffffffffffffffffff16905090565b610ff683838360405180602001604052806000815250611e26565b505050565b6000600d60149054906101000a900460ff1615611080576040517f08c379a00000000000000000000000000000000000000000000000000000000081526004018080602001828103825260118152602001807f4445504f534954535f44495341424c454400000000000000000000000000000081525060200191505060405180910390fd5b611088612535565b73ffffffffffffffffffffffffffffffffffffffff16600c60009054906101000a900473ffffffffffffffffffffffffffffffffffffffff1673ffffffffffffffffffffffffffffffffffffffff16636352211e846040518263ffffffff1660e01b81526004018082815260200191505060206040518083038186803b15801561111157600080fd5b505afa158015611125573d6000803e3d6000fd5b505050506040513d602081101561113b57600080fd5b810190808051906020019092919050505073ffffffffffffffffffffffffffffffffffffffff16146111b8576040517f08c379a0000000000000000000000000000000000000000000000000000000008152600401808060200182810382526032815260200180613b966032913960400191505060405180910390fd5b6000600c60009054906101000a900473ffffffffffffffffffffffffffffffffffffffff1673ffffffffffffffffffffffffffffffffffffffff1663c87b56dd846040518263ffffffff1660e01b81526004018082815260200191505060006040518083038186803b15801561122d57600080fd5b505afa158015611241573d6000803e3d6000fd5b505050506040513d6000823e3d601f19601f82011682018060405250602081101561126b57600080fd5b810190808051604051939291908464010000000082111561128b57600080fd5b838201915060208201858111156112a157600080fd5b82518660018202830111640100000000821117156112be57600080fd5b8083526020830192505050908051906020019080838360005b838110156112f25780820151818401526020810190506112d7565b50505050905090810190601f16801561131f5780820380516001836020036101000a031916815260200191505b5060405250505051141561139b576040517f08c379a00000000000000000000000000000000000000000000000000000000081526004018080602001828103825260208152602001807f537570655261726556323a20496e76616c696420563120546f6b656e5552492181525060200191505060405180910390fd5b6113ac6113a6612535565b8361295c565b61152182600c60009054906101000a900473ffffffffffffffffffffffffffffffffffffffff1673ffffffffffffffffffffffffffffffffffffffff1663c87b56dd856040518263ffffffff1660e01b81526004018082815260200191505060006040518083038186803b15801561142357600080fd5b505afa158015611437573d6000803e3d6000fd5b505050506040513d6000823e3d601f19601f82011682018060405250602081101561146157600080fd5b810190808051604051939291908464010000000082111561148157600080fd5b8382019150602082018581111561149757600080fd5b82518660018202830111640100000000821117156114b457600080fd5b8083526020830192505050908051906020019080838360005b838110156114e85780820151818401526020810190506114cd565b50505050905090810190601f1680156115155780820380516001836020036101000a031916815260200191505b50604052505050612b50565b61153161152c612535565b611809565b9050919050565b60008061154f836003612bda90919063ffffffff16565b50905080915050919050565b61156482612518565b6115b9576040517f08c379a000000000000000000000000000000000000000000000000000000000815260040180806020018281038252602c815260200180613c38602c913960400191505060405180910390fd5b60006115c48361170b565b90508073ffffffffffffffffffffffffffffffffffffffff168473ffffffffffffffffffffffffffffffffffffffff16141561164b576040517f08c379a0000000000000000000000000000000000000000000000000000000008152600401808060200182810382526021815260200180613dc16021913960400191505060405180910390fd5b8073ffffffffffffffffffffffffffffffffffffffff1661166a612535565b73ffffffffffffffffffffffffffffffffffffffff161480611699575061169881611693612535565b612292565b5b6116ee576040517f08c379a0000000000000000000000000000000000000000000000000000000008152600401808060200182810382526038815260200180613c646038913960400191505060405180910390fd5b6116f8848461253d565b61170485858585612c06565b5050505050565b600061173b82604051806060016040528060298152602001613cc6602991396003612c789092919063ffffffff16565b9050919050565b6060600a8054600181600116156101000203166002900480601f0160208091040260200160405190810160405280929190818152602001828054600181600116156101000203166002900480156117da5780601f106117af576101008083540402835291602001916117da565b820191906000526020600020905b8154815290600101906020018083116117bd57829003601f168201915b5050505050905090565b600e602052816000526040600020602052806000526040600020600091509150505481565b60008073ffffffffffffffffffffffffffffffffffffffff168273ffffffffffffffffffffffffffffffffffffffff161415611890576040517f08c379a000000000000000000000000000000000000000000000000000000000815260040180806020018281038252602a815260200180613c9c602a913960400191505060405180910390fd5b6118d7600260008473ffffffffffffffffffffffffffffffffffffffff1673ffffffffffffffffffffffffffffffffffffffff168152602001908152602001600020612c97565b9050919050565b6118e6612535565b73ffffffffffffffffffffffffffffffffffffffff16611904611a4b565b73ffffffffffffffffffffffffffffffffffffffff161461198d576040517f08c379a00000000000000000000000000000000000000000000000000000000081526004018080602001828103825260208152602001807f4f776e61626c653a2063616c6c6572206973206e6f7420746865206f776e657281525060200191505060405180910390fd5b600073ffffffffffffffffffffffffffffffffffffffff1660008054906101000a900473ffffffffffffffffffffffffffffffffffffffff1673ffffffffffffffffffffffffffffffffffffffff167f8be0079c531659141344cd1fd0a4f28419497f9722a3daafe3b4186f6b6457e060405160405180910390a360008060006101000a81548173ffffffffffffffffffffffffffffffffffffffff021916908373ffffffffffffffffffffffffffffffffffffffff160217905550565b60008060009054906101000a900473ffffffffffffffffffffffffffffffffffffffff16905090565b606060088054600181600116156101000203166002900480601f016020809104026020016040519081016040528092919081815260200182805460018160011615610100020316600290048015611b0c5780601f10611ae157610100808354040283529160200191611b0c565b820191906000526020600020905b815481529060010190602001808311611aef57829003601f168201915b5050505050905090565b611b1e612535565b73ffffffffffffffffffffffffffffffffffffffff168273ffffffffffffffffffffffffffffffffffffffff161415611bbf576040517f08c379a00000000000000000000000000000000000000000000000000000000081526004018080602001828103825260198152602001807f4552433732313a20617070726f766520746f2063616c6c65720000000000000081525060200191505060405180910390fd5b8060066000611bcc612535565b73ffffffffffffffffffffffffffffffffffffffff1673ffffffffffffffffffffffffffffffffffffffff16815260200190815260200160002060008473ffffffffffffffffffffffffffffffffffffffff1673ffffffffffffffffffffffffffffffffffffffff16815260200190815260200160002060006101000a81548160ff0219169083151502179055508173ffffffffffffffffffffffffffffffffffffffff16611c79612535565b73ffffffffffffffffffffffffffffffffffffffff167f17307eab39ab6107e8899845ad3d59bd9653f200f220920489ca2b5937696c318360405180821515815260200191505060405180910390a35050565b6000611cd6612535565b73ffffffffffffffffffffffffffffffffffffffff16600c60009054906101000a900473ffffffffffffffffffffffffffffffffffffffff1673ffffffffffffffffffffffffffffffffffffffff16636352211e846040518263ffffffff1660e01b81526004018082815260200191505060206040518083038186803b158015611d5f57600080fd5b505afa158015611d73573d6000803e3d6000fd5b505050506040513d6020811015611d8957600080fd5b810190808051906020019092919050505073ffffffffffffffffffffffffffffffffffffffff1614611e06576040517f08c379a0000000000000000000000000000000000000000000000000000000008152600401808060200182810382526032815260200180613b966032913960400191505060405180910390fd5b611e0f82612cac565b611e1f611e1a612535565b611809565b9050919050565b611e37611e31612535565b8361260b565b611e8c576040517f08c379a0000000000000000000000000000000000000000000000000000000008152600401808060200182810382526031815260200180613de26031913960400191505060405180910390fd5b611e9884848484612c06565b50505050565b6060611ea982612518565b611efe576040517f08c379a000000000000000000000000000000000000000000000000000000000815260040180806020018281038252602f815260200180613d92602f913960400191505060405180910390fd5b6000600960008481526020019081526020016000208054600181600116156101000203166002900480601f016020809104026020016040519081016040528092919081815260200182805460018160011615610100020316600290048015611fa75780601f10611f7c57610100808354040283529160200191611fa7565b820191906000526020600020905b815481529060010190602001808311611f8a57829003601f168201915b505050505090506000611fb8611742565b9050600081511415611fce57819250505061216a565b60008251111561209f5780826040516020018083805190602001908083835b602083106120105780518252602082019150602081019050602083039250611fed565b6001836020036101000a03801982511681845116808217855250505050505090500182805190602001908083835b60208310612061578051825260208201915060208101905060208303925061203e565b6001836020036101000a038019825116818451168082178552505050505050905001925050506040516020818303038152906040529250505061216a565b806120a985612de6565b6040516020018083805190602001908083835b602083106120df57805182526020820191506020810190506020830392506120bc565b6001836020036101000a03801982511681845116808217855250505050505090500182805190602001908083835b60208310612130578051825260208201915060208101905060208303925061210d565b6001836020036101000a03801982511681845116808217855250505050505090500192505050604051602081830303815290604052925050505b919050565b612177612535565b73ffffffffffffffffffffffffffffffffffffffff16612195611a4b565b73ffffffffffffffffffffffffffffffffffffffff161461221e576040517f08c379a00000000000000000000000000000000000000000000000000000000081526004018080602001828103825260208152602001807f4f776e61626c653a2063616c6c6572206973206e6f7420746865206f776e657281525060200191505060405180910390fd5b600d60149054906101000a900460ff1615600d60146101000a81548160ff0219169083151502179055507f52b85b02b7d21238e828a5c4da635eedf42851c8d1db199f9d414f941e89b650600d60149054906101000a900460ff1660405180821515815260200191505060405180910390a1565b6000600660008473ffffffffffffffffffffffffffffffffffffffff1673ffffffffffffffffffffffffffffffffffffffff16815260200190815260200160002060008373ffffffffffffffffffffffffffffffffffffffff1673ffffffffffffffffffffffffffffffffffffffff16815260200190815260200160002060009054906101000a900460ff16905092915050565b61232e612535565b73ffffffffffffffffffffffffffffffffffffffff1661234c611a4b565b73ffffffffffffffffffffffffffffffffffffffff16146123d5576040517f08c379a00000000000000000000000000000000000000000000000000000000081526004018080602001828103825260208152602001807f4f776e61626c653a2063616c6c6572206973206e6f7420746865206f776e657281525060200191505060405180910390fd5b600073ffffffffffffffffffffffffffffffffffffffff168173ffffffffffffffffffffffffffffffffffffffff16141561245b576040517f08c379a0000000000000000000000000000000000000000000000000000000008152600401808060200182810382526026815260200180613bc86026913960400191505060405180910390fd5b8073ffffffffffffffffffffffffffffffffffffffff1660008054906101000a900473ffffffffffffffffffffffffffffffffffffffff1673ffffffffffffffffffffffffffffffffffffffff167f8be0079c531659141344cd1fd0a4f28419497f9722a3daafe3b4186f6b6457e060405160405180910390a3806000806101000a81548173ffffffffffffffffffffffffffffffffffffffff021916908373ffffffffffffffffffffffffffffffffffffffff16021790555050565b600061252e826003612f2d90919063ffffffff16565b9050919050565b600033905090565b816005600083815260200190815260200160002060006101000a81548173ffffffffffffffffffffffffffffffffffffffff021916908373ffffffffffffffffffffffffffffffffffffffff160217905550808273ffffffffffffffffffffffffffffffffffffffff166125b08361170b565b73ffffffffffffffffffffffffffffffffffffffff167f8c5be1e5ebec7d5bd14f71427d1e84f3dd0314c0f7b2291e5b200ac8c7c3b92560405160405180910390a45050565b600061260482600001612f47565b9050919050565b600061261682612518565b61266b576040517f08c379a000000000000000000000000000000000000000000000000000000000815260040180806020018281038252602c815260200180613c38602c913960400191505060405180910390fd5b60006126768361170b565b90508073ffffffffffffffffffffffffffffffffffffffff168473ffffffffffffffffffffffffffffffffffffffff1614806126e557508373ffffffffffffffffffffffffffffffffffffffff166126cd84610cd9565b73ffffffffffffffffffffffffffffffffffffffff16145b806126f657506126f58185612292565b5b91505092915050565b8273ffffffffffffffffffffffffffffffffffffffff1661271f8261170b565b73ffffffffffffffffffffffffffffffffffffffff161461278b576040517f08c379a0000000000000000000000000000000000000000000000000000000008152600401808060200182810382526029815260200180613d696029913960400191505060405180910390fd5b600073ffffffffffffffffffffffffffffffffffffffff168273ffffffffffffffffffffffffffffffffffffffff161415612811576040517f08c379a0000000000000000000000000000000000000000000000000000000008152600401808060200182810382526024815260200180613bee6024913960400191505060405180910390fd5b61281c838383612f58565b61282760008261253d565b61287881600260008673ffffffffffffffffffffffffffffffffffffffff1673ffffffffffffffffffffffffffffffffffffffff168152602001908152602001600020612f5d90919063ffffffff16565b506128ca81600260008573ffffffffffffffffffffffffffffffffffffffff1673ffffffffffffffffffffffffffffffffffffffff168152602001908152602001600020612f7790919063ffffffff16565b506128e181836003612f919092919063ffffffff16565b50808273ffffffffffffffffffffffffffffffffffffffff168473ffffffffffffffffffffffffffffffffffffffff167fddf252ad1be2c89b69c2b068fc378daa952ba7f163c4a11628f55a4df523b3ef60405160405180910390a4505050565b60006129518360000183612fc6565b60001c905092915050565b600073ffffffffffffffffffffffffffffffffffffffff168273ffffffffffffffffffffffffffffffffffffffff1614156129ff576040517f08c379a00000000000000000000000000000000000000000000000000000000081526004018080602001828103825260208152602001807f4552433732313a206d696e7420746f20746865207a65726f206164647265737381525060200191505060405180910390fd5b612a0881612518565b15612a7b576040517f08c379a000000000000000000000000000000000000000000000000000000000815260040180806020018281038252601c8152602001807f4552433732313a20746f6b656e20616c7265616479206d696e7465640000000081525060200191505060405180910390fd5b612a8760008383612f58565b612ad881600260008573ffffffffffffffffffffffffffffffffffffffff1673ffffffffffffffffffffffffffffffffffffffff168152602001908152602001600020612f7790919063ffffffff16565b50612aef81836003612f919092919063ffffffff16565b50808273ffffffffffffffffffffffffffffffffffffffff16600073ffffffffffffffffffffffffffffffffffffffff167fddf252ad1be2c89b69c2b068fc378daa952ba7f163c4a11628f55a4df523b3ef60405160405180910390a45050565b612b5982612518565b612bae576040517f08c379a000000000000000000000000000000000000000000000000000000000815260040180806020018281038252602c815260200180613d3d602c913960400191505060405180910390fd5b80600960008481526020019081526020016000209080519060200190612bd5929190613a4e565b505050565b600080600080612bed8660000186613049565b915091508160001c8160001c9350935050509250929050565b612c118484846126ff565b612c1d848484846130e2565b612c72576040517f08c379a0000000000000000000000000000000000000000000000000000000008152600401808060200182810382526032815260200180613b646032913960400191505060405180910390fd5b50505050565b6000612c8b846000018460001b846132fb565b60001c90509392505050565b6000612ca5826000016133f1565b9050919050565b6000612cb78261170b565b9050612cc581600084612f58565b612cd060008361253d565b60006009600084815260200190815260200160002080546001816001161561010002031660029004905014612d1f57600960008381526020019081526020016000206000612d1e9190613adc565b5b612d7082600260008473ffffffffffffffffffffffffffffffffffffffff1673ffffffffffffffffffffffffffffffffffffffff168152602001908152602001600020612f5d90919063ffffffff16565b50612d8582600361340290919063ffffffff16565b5081600073ffffffffffffffffffffffffffffffffffffffff168273ffffffffffffffffffffffffffffffffffffffff167fddf252ad1be2c89b69c2b068fc378daa952ba7f163c4a11628f55a4df523b3ef60405160405180910390a45050565b60606000821415612e2e576040518060400160405280600181526020017f30000000000000000000000000000000000000000000000000000000000000008152509050612f28565b600082905060005b60008214612e58578080600101915050600a8281612e5057fe5b049150612e36565b60008167ffffffffffffffff81118015612e7157600080fd5b506040519080825280601f01601f191660200182016040528015612ea45781602001600182028036833780820191505090505b50905060006001830390508593505b60008414612f2057600a8481612ec557fe5b0660300160f81b82828060019003935081518110612edf57fe5b60200101907effffffffffffffffffffffffffffffffffffffffffffffffffffffffffffff1916908160001a905350600a8481612f1857fe5b049350612eb3565b819450505050505b919050565b6000612f3f836000018360001b61341c565b905092915050565b600081600001805490509050919050565b505050565b6000612f6f836000018360001b61343f565b905092915050565b6000612f89836000018360001b613527565b905092915050565b6000612fbd846000018460001b8473ffffffffffffffffffffffffffffffffffffffff1660001b613597565b90509392505050565b600081836000018054905011613027576040517f08c379a0000000000000000000000000000000000000000000000000000000008152600401808060200182810382526022815260200180613b426022913960400191505060405180910390fd5b82600001828154811061303657fe5b9060005260206000200154905092915050565b600080828460000180549050116130ab576040517f08c379a0000000000000000000000000000000000000000000000000000000008152600401808060200182810382526022815260200180613cef6022913960400191505060405180910390fd5b60008460000184815481106130bc57fe5b906000526020600020906002020190508060000154816001015492509250509250929050565b60006131038473ffffffffffffffffffffffffffffffffffffffff16613673565b61311057600190506132f3565b600061327a63150b7a0260e01b613125612535565b888787604051602401808573ffffffffffffffffffffffffffffffffffffffff1681526020018473ffffffffffffffffffffffffffffffffffffffff16815260200183815260200180602001828103825283818151815260200191508051906020019080838360005b838110156131a957808201518184015260208101905061318e565b50505050905090810190601f1680156131d65780820380516001836020036101000a031916815260200191505b5095505050505050604051602081830303815290604052907bffffffffffffffffffffffffffffffffffffffffffffffffffffffff19166020820180517bffffffffffffffffffffffffffffffffffffffffffffffffffffffff8381831617835250505050604051806060016040528060328152602001613b64603291398773ffffffffffffffffffffffffffffffffffffffff166136869092919063ffffffff16565b9050600081806020019051602081101561329357600080fd5b8101908080519060200190929190505050905063150b7a0260e01b7bffffffffffffffffffffffffffffffffffffffffffffffffffffffff1916817bffffffffffffffffffffffffffffffffffffffffffffffffffffffff191614925050505b949350505050565b600080846001016000858152602001908152602001600020549050600081141583906133c2576040517f08c379a00000000000000000000000000000000000000000000000000000000081526004018080602001828103825283818151815260200191508051906020019080838360005b8381101561338757808201518184015260208101905061336c565b50505050905090810190601f1680156133b45780820380516001836020036101000a031916815260200191505b509250505060405180910390fd5b508460000160018203815481106133d557fe5b9060005260206000209060020201600101549150509392505050565b600081600001805490509050919050565b6000613414836000018360001b61369e565b905092915050565b600080836001016000848152602001908152602001600020541415905092915050565b6000808360010160008481526020019081526020016000205490506000811461351b576000600182039050600060018660000180549050039050600086600001828154811061348a57fe5b90600052602060002001549050808760000184815481106134a757fe5b90600052602060002001819055506001830187600101600083815260200190815260200160002081905550866000018054806134df57fe5b60019003818190600052602060002001600090559055866001016000878152602001908152602001600020600090556001945050505050613521565b60009150505b92915050565b600061353383836137b7565b61358c578260000182908060018154018082558091505060019003906000526020600020016000909190919091505582600001805490508360010160008481526020019081526020016000208190555060019050613591565b600090505b92915050565b600080846001016000858152602001908152602001600020549050600081141561363e5784600001604051806040016040528086815260200185815250908060018154018082558091505060019003906000526020600020906002020160009091909190915060008201518160000155602082015181600101555050846000018054905085600101600086815260200190815260200160002081905550600191505061366c565b8285600001600183038154811061365157fe5b90600052602060002090600202016001018190555060009150505b9392505050565b600080823b905060008111915050919050565b606061369584846000856137da565b90509392505050565b600080836001016000848152602001908152602001600020549050600081146137ab57600060018203905060006001866000018054905003905060008660000182815481106136e957fe5b906000526020600020906002020190508087600001848154811061370957fe5b906000526020600020906002020160008201548160000155600182015481600101559050506001830187600101600083600001548152602001908152602001600020819055508660000180548061375c57fe5b60019003818190600052602060002090600202016000808201600090556001820160009055505090558660010160008781526020019081526020016000206000905560019450505050506137b1565b60009150505b92915050565b600080836001016000848152602001908152602001600020541415905092915050565b606082471015613835576040517f08c379a0000000000000000000000000000000000000000000000000000000008152600401808060200182810382526026815260200180613c126026913960400191505060405180910390fd5b61383e85613673565b6138b0576040517f08c379a000000000000000000000000000000000000000000000000000000000815260040180806020018281038252601d8152602001807f416464726573733a2063616c6c20746f206e6f6e2d636f6e747261637400000081525060200191505060405180910390fd5b6000808673ffffffffffffffffffffffffffffffffffffffff1685876040518082805190602001908083835b602083106138ff57805182526020820191506020810190506020830392506138dc565b6001836020036101000a03801982511681845116808217855250505050505090500191505060006040518083038185875af1925050503d8060008114613961576040519150601f19603f3d011682016040523d82523d6000602084013e613966565b606091505b5091509150613976828286613982565b92505050949350505050565b6060831561399257829050613a47565b6000835111156139a55782518084602001fd5b816040517f08c379a00000000000000000000000000000000000000000000000000000000081526004018080602001828103825283818151815260200191508051906020019080838360005b83811015613a0c5780820151818401526020810190506139f1565b50505050905090810190601f168015613a395780820380516001836020036101000a031916815260200191505b509250505060405180910390fd5b9392505050565b828054600181600116156101000203166002900490600052602060002090601f016020900481019282613a845760008555613acb565b82601f10613a9d57805160ff1916838001178555613acb565b82800160010185558215613acb579182015b82811115613aca578251825591602001919060010190613aaf565b5b509050613ad89190613b24565b5090565b50805460018160011615610100020316600290046000825580601f10613b025750613b21565b601f016020900490600052602060002090810190613b209190613b24565b5b50565b5b80821115613b3d576000816000905550600101613b25565b509056fe456e756d657261626c655365743a20696e646578206f7574206f6620626f756e64734552433732313a207472616e7366657220746f206e6f6e20455243373231526563656976657220696d706c656d656e746572537570655261726556323a204e6f7420746865204f776e6572206f6620746865205375706552617265563120546f6b656e214f776e61626c653a206e6577206f776e657220697320746865207a65726f20616464726573734552433732313a207472616e7366657220746f20746865207a65726f2061646472657373416464726573733a20696e73756666696369656e742062616c616e636520666f722063616c6c4552433732313a206f70657261746f7220717565727920666f72206e6f6e6578697374656e7420746f6b656e4552433732313a20617070726f76652063616c6c6572206973206e6f74206f776e6572206e6f7220617070726f76656420666f7220616c6c4552433732313a2062616c616e636520717565727920666f7220746865207a65726f20616464726573734552433732313a206f776e657220717565727920666f72206e6f6e6578697374656e7420746f6b656e456e756d657261626c654d61703a20696e646578206f7574206f6620626f756e64734552433732313a20617070726f76656420717565727920666f72206e6f6e6578697374656e7420746f6b656e4552433732314d657461646174613a2055524920736574206f66206e6f6e6578697374656e7420746f6b656e4552433732313a207472616e73666572206f6620746f6b656e2074686174206973206e6f74206f776e4552433732314d657461646174613a2055524920717565727920666f72206e6f6e6578697374656e7420746f6b656e4552433732313a20617070726f76616c20746f2063757272656e74206f776e65724552433732313a207472616e736665722063616c6c6572206973206e6f74206f776e6572206e6f7220617070726f766564a26469706673582212208097936d501403590e2596ce6d70bee3483c7595207dcd7c857241e4fd06b13764736f6c63430007060033",
  "linkReferences": {},
  "deployedLinkReferences": {}
}