{
  "_format": "hh-sol-artifact-1",
  "contractName": "SupeRareV2",
  "sourceName": "contracts/SupeRareV2.sol",
  "abi": [
    {
      "inputs": [
        {
          "internalType": "address",
          "name": "OriginalSupeRareAddr_",
          "type": "address"
        }
      ],
      "stateMutability": "nonpayable",
      "type": "constructor"
    },
    {
      "anonymous": false,
      "inputs": [
        {
          "indexed": true,
          "internalType": "address",
          "name": "owner",
          "type": "address"
        },
        {
          "indexed": true,
          "internalType": "address",
          "name": "approved",
          "type": "address"
        },
        {
          "indexed": true,
          "internalType": "uint256",
          "name": "tokenId",
          "type": "uint256"
        }
      ],
      "name": "Approval",
      "type": "event"
    },
    {
      "anonymous": false,
      "inputs": [
        {
          "indexed": true,
          "internalType": "address",
          "name": "owner",
          "type": "address"
        },
        {
          "indexed": true,
          "internalType": "address",
          "name": "operator",
          "type": "address"
        },
        {
          "indexed": false,
          "internalType": "bool",
          "name": "approved",
          "type": "bool"
        }
      ],
      "name": "ApprovalForAll",
      "type": "event"
    },
    {
      "anonymous": false,
      "inputs": [
        {
          "indexed": false,
          "internalType": "string",
          "name": "_baseURI",
          "type": "string"
        }
      ],
      "name": "BaseURISet",
      "type": "event"
    },
    {
      "anonymous": false,
      "inputs": [
        {
          "indexed": true,
          "internalType": "address",
          "name": "v1owner",
          "type": "address"
        },
        {
          "indexed": true,
          "internalType": "uint256",
          "name": "v2tokenId",
          "type": "uint256"
        }
      ],
      "name": "MintV2",
      "type": "event"
    },
    {
      "anonymous": false,
      "inputs": [
        {
          "indexed": true,
          "internalType": "address",
          "name": "v1owner",
          "type": "address"
        },
        {
          "indexed": true,
          "internalType": "uint256",
          "name": "v1tokenId",
          "type": "uint256"
        }
      ],
      "name": "OwnerWhitelisted",
      "type": "event"
    },
    {
      "anonymous": false,
      "inputs": [
        {
          "indexed": true,
          "internalType": "address",
          "name": "previousOwner",
          "type": "address"
        },
        {
          "indexed": true,
          "internalType": "address",
          "name": "newOwner",
          "type": "address"
        }
      ],
      "name": "OwnershipTransferred",
      "type": "event"
    },
    {
      "anonymous": false,
      "inputs": [
        {
          "indexed": true,
          "internalType": "uint256",
          "name": "v1tokenId",
          "type": "uint256"
        }
      ],
      "name": "Pegged",
      "type": "event"
    },
    {
      "anonymous": false,
      "inputs": [
        {
          "indexed": false,
          "internalType": "uint256",
          "name": "_tokenId",
          "type": "uint256"
        },
        {
          "indexed": false,
          "internalType": "string",
          "name": "_tokenURI",
          "type": "string"
        }
      ],
      "name": "TokenURISet",
      "type": "event"
    },
    {
      "anonymous": false,
      "inputs": [
        {
          "indexed": true,
          "internalType": "address",
          "name": "from",
          "type": "address"
        },
        {
          "indexed": true,
          "internalType": "address",
          "name": "to",
          "type": "address"
        },
        {
          "indexed": true,
          "internalType": "uint256",
          "name": "tokenId",
          "type": "uint256"
        }
      ],
      "name": "Transfer",
      "type": "event"
    },
    {
      "anonymous": false,
      "inputs": [
        {
          "indexed": true,
          "internalType": "address",
          "name": "v2owner",
          "type": "address"
        },
        {
          "indexed": true,
          "internalType": "uint256",
          "name": "v2tokenId",
          "type": "uint256"
        }
      ],
      "name": "WithdrawV1",
      "type": "event"
    },
    {
      "inputs": [
        {
          "internalType": "address",
          "name": "to",
          "type": "address"
        },
        {
          "internalType": "uint256",
          "name": "tokenId",
          "type": "uint256"
        }
      ],
      "name": "approve",
      "outputs": [],
      "stateMutability": "nonpayable",
      "type": "function"
    },
    {
      "inputs": [
        {
          "internalType": "address",
          "name": "owner",
          "type": "address"
        }
      ],
      "name": "balanceOf",
      "outputs": [
        {
          "internalType": "uint256",
          "name": "",
          "type": "uint256"
        }
      ],
      "stateMutability": "view",
      "type": "function"
    },
    {
      "inputs": [],
      "name": "baseURI",
      "outputs": [
        {
          "internalType": "string",
          "name": "",
          "type": "string"
        }
      ],
      "stateMutability": "view",
      "type": "function"
    },
    {
      "inputs": [
        {
          "internalType": "uint256",
          "name": "_v1TokenId",
          "type": "uint256"
        }
      ],
      "name": "getAddedToWhitelist",
      "outputs": [
        {
          "internalType": "bool",
          "name": "",
          "type": "bool"
        }
      ],
      "stateMutability": "nonpayable",
      "type": "function"
    },
    {
      "inputs": [
        {
          "internalType": "uint256",
          "name": "tokenId",
          "type": "uint256"
        }
      ],
      "name": "getApproved",
      "outputs": [
        {
          "internalType": "address",
          "name": "",
          "type": "address"
        }
      ],
      "stateMutability": "view",
      "type": "function"
    },
    {
      "inputs": [],
      "name": "getSupeRareAddress",
      "outputs": [
        {
          "internalType": "address",
          "name": "",
          "type": "address"
        }
      ],
      "stateMutability": "view",
      "type": "function"
    },
    {
      "inputs": [
        {
          "internalType": "address",
          "name": "owner",
          "type": "address"
        },
        {
          "internalType": "address",
          "name": "operator",
          "type": "address"
        }
      ],
      "name": "isApprovedForAll",
      "outputs": [
        {
          "internalType": "bool",
          "name": "",
          "type": "bool"
        }
      ],
      "stateMutability": "view",
      "type": "function"
    },
    {
      "inputs": [
        {
          "internalType": "uint256",
          "name": "_tokenId",
          "type": "uint256"
        }
      ],
      "name": "isPegged",
      "outputs": [
        {
          "internalType": "bool",
          "name": "",
          "type": "bool"
        }
      ],
      "stateMutability": "view",
      "type": "function"
    },
    {
      "inputs": [
        {
          "internalType": "uint256",
          "name": "_tokenId",
          "type": "uint256"
        }
      ],
      "name": "mintV2",
      "outputs": [
        {
          "internalType": "bool",
          "name": "",
          "type": "bool"
        }
      ],
      "stateMutability": "nonpayable",
      "type": "function"
    },
    {
      "inputs": [],
      "name": "name",
      "outputs": [
        {
          "internalType": "string",
          "name": "",
          "type": "string"
        }
      ],
      "stateMutability": "view",
      "type": "function"
    },
    {
      "inputs": [
        {
          "internalType": "address",
          "name": "",
          "type": "address"
        },
        {
          "internalType": "address",
          "name": "",
          "type": "address"
        },
        {
          "internalType": "uint256",
          "name": "",
          "type": "uint256"
        },
        {
          "internalType": "bytes",
          "name": "",
          "type": "bytes"
        }
      ],
      "name": "onERC721Received",
      "outputs": [
        {
          "internalType": "bytes4",
          "name": "",
          "type": "bytes4"
        }
      ],
      "stateMutability": "view",
      "type": "function"
    },
    {
      "inputs": [],
      "name": "owner",
      "outputs": [
        {
          "internalType": "address",
          "name": "",
          "type": "address"
        }
      ],
      "stateMutability": "view",
      "type": "function"
    },
    {
      "inputs": [
        {
          "internalType": "address",
          "name": "",
          "type": "address"
        },
        {
          "internalType": "uint256",
          "name": "",
          "type": "uint256"
        }
      ],
      "name": "ownerAddrToV1toV2TokenId",
      "outputs": [
        {
          "internalType": "uint256",
          "name": "",
          "type": "uint256"
        }
      ],
      "stateMutability": "view",
      "type": "function"
    },
    {
      "inputs": [
        {
          "internalType": "uint256",
          "name": "tokenId",
          "type": "uint256"
        }
      ],
      "name": "ownerOf",
      "outputs": [
        {
          "internalType": "address",
          "name": "",
          "type": "address"
        }
      ],
      "stateMutability": "view",
      "type": "function"
    },
    {
      "inputs": [
        {
          "internalType": "uint256",
          "name": "",
          "type": "uint256"
        }
      ],
      "name": "ownerWhiteList",
      "outputs": [
        {
          "internalType": "address",
          "name": "",
          "type": "address"
        }
      ],
      "stateMutability": "view",
      "type": "function"
    },
    {
      "inputs": [],
      "name": "renounceOwnership",
      "outputs": [],
      "stateMutability": "nonpayable",
      "type": "function"
    },
    {
      "inputs": [
        {
          "internalType": "address",
          "name": "from",
          "type": "address"
        },
        {
          "internalType": "address",
          "name": "to",
          "type": "address"
        },
        {
          "internalType": "uint256",
          "name": "tokenId",
          "type": "uint256"
        }
      ],
      "name": "safeTransfer",
      "outputs": [],
      "stateMutability": "nonpayable",
      "type": "function"
    },
    {
      "inputs": [
        {
          "internalType": "address",
          "name": "from",
          "type": "address"
        },
        {
          "internalType": "address",
          "name": "to",
          "type": "address"
        },
        {
          "internalType": "uint256",
          "name": "tokenId",
          "type": "uint256"
        }
      ],
      "name": "safeTransferFrom",
      "outputs": [],
      "stateMutability": "nonpayable",
      "type": "function"
    },
    {
      "inputs": [
        {
          "internalType": "address",
          "name": "from",
          "type": "address"
        },
        {
          "internalType": "address",
          "name": "to",
          "type": "address"
        },
        {
          "internalType": "uint256",
          "name": "tokenId",
          "type": "uint256"
        },
        {
          "internalType": "bytes",
          "name": "_data",
          "type": "bytes"
        }
      ],
      "name": "safeTransferFrom",
      "outputs": [],
      "stateMutability": "nonpayable",
      "type": "function"
    },
    {
      "inputs": [
        {
          "internalType": "address",
          "name": "from",
          "type": "address"
        },
        {
          "internalType": "address",
          "name": "to",
          "type": "address"
        },
        {
          "internalType": "uint256",
          "name": "tokenId",
          "type": "uint256"
        }
      ],
      "name": "safelyTransfer",
      "outputs": [
        {
          "internalType": "bool",
          "name": "",
          "type": "bool"
        }
      ],
      "stateMutability": "nonpayable",
      "type": "function"
    },
    {
      "inputs": [
        {
          "internalType": "address",
          "name": "operator",
          "type": "address"
        },
        {
          "internalType": "bool",
          "name": "approved",
          "type": "bool"
        }
      ],
      "name": "setApprovalForAll",
      "outputs": [],
      "stateMutability": "nonpayable",
      "type": "function"
    },
    {
      "inputs": [
        {
          "internalType": "string",
          "name": "baseURI",
          "type": "string"
        }
      ],
      "name": "setBaseURI",
      "outputs": [
        {
          "internalType": "bool",
          "name": "",
          "type": "bool"
        }
      ],
      "stateMutability": "nonpayable",
      "type": "function"
    },
    {
      "inputs": [
        {
          "internalType": "uint256",
          "name": "_tokenId",
          "type": "uint256"
        },
        {
          "internalType": "string",
          "name": "_tokenURI",
          "type": "string"
        }
      ],
      "name": "setTokenURI",
      "outputs": [
        {
          "internalType": "bool",
          "name": "",
          "type": "bool"
        }
      ],
      "stateMutability": "nonpayable",
      "type": "function"
    },
    {
      "inputs": [
        {
          "internalType": "bytes4",
          "name": "interfaceId",
          "type": "bytes4"
        }
      ],
      "name": "supportsInterface",
      "outputs": [
        {
          "internalType": "bool",
          "name": "",
          "type": "bool"
        }
      ],
      "stateMutability": "view",
      "type": "function"
    },
    {
      "inputs": [],
      "name": "symbol",
      "outputs": [
        {
          "internalType": "string",
          "name": "",
          "type": "string"
        }
      ],
      "stateMutability": "view",
      "type": "function"
    },
    {
      "inputs": [
        {
          "internalType": "uint256",
          "name": "index",
          "type": "uint256"
        }
      ],
      "name": "tokenByIndex",
      "outputs": [
        {
          "internalType": "uint256",
          "name": "",
          "type": "uint256"
        }
      ],
      "stateMutability": "view",
      "type": "function"
    },
    {
      "inputs": [
        {
          "internalType": "address",
          "name": "owner",
          "type": "address"
        },
        {
          "internalType": "uint256",
          "name": "index",
          "type": "uint256"
        }
      ],
      "name": "tokenOfOwnerByIndex",
      "outputs": [
        {
          "internalType": "uint256",
          "name": "",
          "type": "uint256"
        }
      ],
      "stateMutability": "view",
      "type": "function"
    },
    {
      "inputs": [
        {
          "internalType": "uint256",
          "name": "tokenId",
          "type": "uint256"
        }
      ],
      "name": "tokenURI",
      "outputs": [
        {
          "internalType": "string",
          "name": "",
          "type": "string"
        }
      ],
      "stateMutability": "view",
      "type": "function"
    },
    {
      "inputs": [],
      "name": "totalSupply",
      "outputs": [
        {
          "internalType": "uint256",
          "name": "",
          "type": "uint256"
        }
      ],
      "stateMutability": "view",
      "type": "function"
    },
    {
      "inputs": [
        {
          "internalType": "address",
          "name": "from",
          "type": "address"
        },
        {
          "internalType": "address",
          "name": "to",
          "type": "address"
        },
        {
          "internalType": "uint256",
          "name": "tokenId",
          "type": "uint256"
        }
      ],
      "name": "transferFrom",
      "outputs": [],
      "stateMutability": "nonpayable",
      "type": "function"
    },
    {
      "inputs": [
        {
          "internalType": "address",
          "name": "newOwner",
          "type": "address"
        }
      ],
      "name": "transferOwnership",
      "outputs": [],
      "stateMutability": "nonpayable",
      "type": "function"
    },
    {
      "inputs": [
        {
          "internalType": "uint256",
          "name": "_tokenId",
          "type": "uint256"
        }
      ],
      "name": "withdraw",
      "outputs": [
        {
          "internalType": "bool",
          "name": "",
          "type": "bool"
        }
      ],
      "stateMutability": "nonpayable",
      "type": "function"
    }
  ],
  "bytecode": "0x60806040526040518060400160405280600881526020017f5375706552617265000000000000000000000000000000000000000000000000815250600e908051906020019062000051929190620005f5565b506040518060400160405280600481526020017f5355505200000000000000000000000000000000000000000000000000000000815250600f90805190602001906200009f929190620005f5565b50348015620000ad57600080fd5b5060405162005a1e38038062005a1e8339818101604052810190620000d39190620006c2565b600e8054600181600116156101000203166002900480601f0160208091040260200160405190810160405280929190818152602001828054600181600116156101000203166002900480156200016d5780601f1062000141576101008083540402835291602001916200016d565b820191906000526020600020905b8154815290600101906020018083116200014f57829003601f168201915b5050505050600f8054600181600116156101000203166002900480601f0160208091040260200160405190810160405280929190818152602001828054600181600116156101000203166002900480156200020c5780601f10620001e0576101008083540402835291602001916200020c565b820191906000526020600020905b815481529060010190602001808311620001ee57829003601f168201915b5050505050600062000223620004e160201b60201c565b9050806000806101000a81548173ffffffffffffffffffffffffffffffffffffffff021916908373ffffffffffffffffffffffffffffffffffffffff1602179055508073ffffffffffffffffffffffffffffffffffffffff16600073ffffffffffffffffffffffffffffffffffffffff167f8be0079c531659141344cd1fd0a4f28419497f9722a3daafe3b4186f6b6457e060405160405180910390a350620002d96301ffc9a760e01b620004e960201b60201c565b8160079080519060200190620002f1929190620005f5565b5080600890805190602001906200030a929190620005f5565b50620003236380ac58cd60e01b620004e960201b60201c565b6200033b635b5e139f60e01b620004e960201b60201c565b6200035363780e9d6360e01b620004e960201b60201c565b5050620003716756aa9963df82ea0360c01b620005f260201b60201c565b6200038d6719c0b72a26227d0f60c01b620005f260201b60201c565b620003a967100292712c70b23560c01b620005f260201b60201c565b80600c60006101000a81548173ffffffffffffffffffffffffffffffffffffffff021916908373ffffffffffffffffffffffffffffffffffffffff1602179055506200040667cbaa0520dcd065f260c01b620005f260201b60201c565b6200042267d49f414eb3f74c9560c01b620005f260201b60201c565b6200043a6380ac58cd60e01b620004e960201b60201c565b62000456671cae09e1088f57c360c01b620005f260201b60201c565b620004726768df22c20f05bb4060c01b620005f260201b60201c565b6200048a635b5e139f60e01b620004e960201b60201c565b620004a667e9abaa23deb93cb360c01b620005f260201b60201c565b620004c267dffcb34a5714b70760c01b620005f260201b60201c565b620004da63780e9d6360e01b620004e960201b60201c565b506200073c565b600033905090565b63ffffffff60e01b817bffffffffffffffffffffffffffffffffffffffffffffffffffffffff1916141562000586576040517f08c379a000000000000000000000000000000000000000000000000000000000815260040180806020018281038252601c8152602001807f4552433136353a20696e76616c696420696e746572666163652069640000000081525060200191505060405180910390fd5b6001806000837bffffffffffffffffffffffffffffffffffffffffffffffffffffffff19167bffffffffffffffffffffffffffffffffffffffffffffffffffffffff1916815260200190815260200160002060006101000a81548160ff02191690831515021790555050565b50565b828054600181600116156101000203166002900490600052602060002090601f0160209004810192826200062d576000855562000679565b82601f106200064857805160ff191683800117855562000679565b8280016001018555821562000679579182015b82811115620006785782518255916020019190600101906200065b565b5b5090506200068891906200068c565b5090565b5b80821115620006a75760008160009055506001016200068d565b5090565b600081519050620006bc8162000722565b92915050565b600060208284031215620006d557600080fd5b6000620006e584828501620006ab565b91505092915050565b6000620006fb8262000702565b9050919050565b600073ffffffffffffffffffffffffffffffffffffffff82169050919050565b6200072d81620006ee565b81146200073957600080fd5b50565b6152d2806200074c6000396000f3fe608060405234801561001057600080fd5b50600436106101f05760003560e01c80636352211e1161010f5780639ae82406116100a2578063d1660f9911610071578063d1660f991461063f578063e985e9c51461065b578063f2fde38b1461068b578063fcb217b5146106a7576101f0565b80639ae82406146105a7578063a22cb465146105d7578063b88d4fde146105f3578063c87b56dd1461060f576101f0565b8063715018a6116100de578063715018a61461053157806387d45d011461053b5780638da5cb5b1461056b57806395d89b4114610589576101f0565b80636352211e146104835780636c0360eb146104b35780636c0e6754146104d157806370a0823114610501576101f0565b806323b872dd1161018757806342842e0e1161015657806342842e0e146103d75780634f6ccce7146103f357806355f804b3146104235780636000894314610453576101f0565b806323b872dd1461033d5780632e1a7d4d146103595780632f745c591461038957806336464789146103b9576101f0565b8063095ea7b3116101c3578063095ea7b3146102a3578063150b7a02146102bf578063162094c4146102ef57806318160ddd1461031f576101f0565b806301ffc9a7146101f557806306fdde031461022557806307e4854814610243578063081812fc14610273575b600080fd5b61020f600480360381019061020a919061468b565b6106d7565b60405161021c9190614c2c565b60405180910390f35b61022d61073f565b60405161023a9190614c86565b60405180910390f35b61025d6004803603810190610258919061473a565b6107e1565b60405161026a9190614c2c565b60405180910390f35b61028d6004803603810190610288919061473a565b610847565b60405161029a9190614be8565b60405180910390f35b6102bd60048036038101906102b8919061464f565b6108e2565b005b6102d960048036038101906102d49190614598565b610a26565b6040516102e69190614c47565b60405180910390f35b61030960048036038101906103049190614763565b610aae565b6040516103169190614c2c565b60405180910390f35b610327610ca7565b6040516103349190614da8565b60405180910390f35b61035760048036038101906103529190614549565b610cb8565b005b610373600480360381019061036e919061473a565b610d2e565b6040516103809190614c2c565b60405180910390f35b6103a3600480360381019061039e919061464f565b6111ff565b6040516103b09190614da8565b60405180910390f35b6103c161125a565b6040516103ce9190614be8565b60405180910390f35b6103f160048036038101906103ec9190614549565b6112c0565b005b61040d6004803603810190610408919061473a565b6112e0565b60405161041a9190614da8565b60405180910390f35b61043d600480360381019061043891906146b4565b611303565b60405161044a9190614c2c565b60405180910390f35b61046d6004803603810190610468919061473a565b6114f8565b60405161047a9190614be8565b60405180910390f35b61049d6004803603810190610498919061473a565b61152b565b6040516104aa9190614be8565b60405180910390f35b6104bb611562565b6040516104c89190614c86565b60405180910390f35b6104eb60048036038101906104e6919061464f565b611604565b6040516104f89190614da8565b60405180910390f35b61051b600480360381019061051691906144bb565b611629565b6040516105289190614da8565b60405180910390f35b6105396116fe565b005b6105556004803603810190610550919061473a565b61186b565b6040516105629190614c2c565b60405180910390f35b610573611c61565b6040516105809190614be8565b60405180910390f35b610591611c8a565b60405161059e9190614c86565b60405180910390f35b6105c160048036038101906105bc9190614549565b611d2c565b6040516105ce9190614c2c565b60405180910390f35b6105f160048036038101906105ec9190614613565b611db8565b005b61060d60048036038101906106089190614598565b611f6e565b005b6106296004803603810190610624919061473a565b611fe6565b6040516106369190614c86565b60405180910390f35b61065960048036038101906106549190614549565b6122b7565b005b6106756004803603810190610670919061450d565b6122d7565b6040516106829190614c2c565b60405180910390f35b6106a560048036038101906106a091906144bb565b61236b565b005b6106c160048036038101906106bc919061473a565b61255d565b6040516106ce9190614c2c565b60405180910390f35b600060016000837bffffffffffffffffffffffffffffffffffffffffffffffffffffffff19167bffffffffffffffffffffffffffffffffffffffffffffffffffffffff1916815260200190815260200160002060009054906101000a900460ff169050919050565b606060078054600181600116156101000203166002900480601f0160208091040260200160405190810160405280929190818152602001828054600181600116156101000203166002900480156107d75780601f106107ac576101008083540402835291602001916107d7565b820191906000526020600020905b8154815290600101906020018083116107ba57829003601f168201915b5050505050905090565b60006107f76789983acd89f32b0260c01b61293e565b61080b6710c62ea2c16ed34560c01b61293e565b61081f67cd86071d50811c2e60c01b61293e565b6012600083815260200190815260200160002060009054906101000a900460ff169050919050565b600061085282612941565b6108a7576040517f08c379a000000000000000000000000000000000000000000000000000000000815260040180806020018281038252602c81526020018061519b602c913960400191505060405180910390fd5b6005600083815260200190815260200160002060009054906101000a900473ffffffffffffffffffffffffffffffffffffffff169050919050565b60006108ed8261152b565b90508073ffffffffffffffffffffffffffffffffffffffff168373ffffffffffffffffffffffffffffffffffffffff161415610974576040517f08c379a000000000000000000000000000000000000000000000000000000000815260040180806020018281038252602181526020018061524b6021913960400191505060405180910390fd5b8073ffffffffffffffffffffffffffffffffffffffff1661099361295e565b73ffffffffffffffffffffffffffffffffffffffff1614806109c257506109c1816109bc61295e565b6122d7565b5b610a17576040517f08c379a00000000000000000000000000000000000000000000000000000000081526004018080602001828103825260388152602001806150ee6038913960400191505060405180910390fd5b610a218383612966565b505050565b6000610a3c675d55211ed68e1b9260c01b61293e565b610a5067c308c47cf7bad98e60c01b61293e565b610a64672b8e4891be97facc60c01b61293e565b610a7463150b7a0260e01b612a1f565b610a8867df01aab43d20cfb060c01b61293e565b610a9c6763c68ab29965b8d460c01b61293e565b63150b7a0260e01b9050949350505050565b6000610ac467969804d9e52467cc60c01b61293e565b610acc61295e565b73ffffffffffffffffffffffffffffffffffffffff16610aea611c61565b73ffffffffffffffffffffffffffffffffffffffff1614610b73576040517f08c379a00000000000000000000000000000000000000000000000000000000081526004018080602001828103825260208152602001807f4f776e61626c653a2063616c6c6572206973206e6f7420746865206f776e657281525060200191505060405180910390fd5b610b876750195585ee7a4d8460c01b61293e565b610b9b67622d6d15952f4e5160c01b61293e565b610baf673373c4ca6ecd174c60c01b61293e565b610bc3678c9a661732b3c0bf60c01b61293e565b610c118484848080601f016020809104026020016040519081016040528093929190818152602001838380828437600081840152601f19601f82011690508083019250505050505050612ad7565b610c25678fc5c9fb53d571a860c01b61293e565b610c39673cf81c28587e9ee460c01b61293e565b7fda84ca2183491f179a603e877b2cb058e42195041c2b9c53d746427e519a34df848484604051610c6c93929190614dc3565b60405180910390a1610c886753fb63b5eeb827d160c01b61293e565b610c9c67c90cf1fd7884dfb760c01b61293e565b600190509392505050565b6000610cb36003612b61565b905090565b610cc9610cc361295e565b82612b76565b610d1e576040517f08c379a000000000000000000000000000000000000000000000000000000000815260040180806020018281038252603181526020018061526c6031913960400191505060405180910390fd5b610d29838383612c6a565b505050565b6000610d44670b4b5b5ba67932a260c01b61293e565b81610d5967c859e2e6cd103ee760c01b61293e565b610d6d67426492ca0f84a41c60c01b61293e565b610d8167fe82550881c4602660c01b61293e565b610d9567588caeef6fd2084e60c01b61293e565b610d9d61295e565b73ffffffffffffffffffffffffffffffffffffffff16610dbc8261152b565b73ffffffffffffffffffffffffffffffffffffffff1614610e12576040517f08c379a0000000000000000000000000000000000000000000000000000000008152600401610e0990614d48565b60405180910390fd5b610e2667d6b31dcfe556789f60c01b61293e565b610e3a67ef7a73862075e74560c01b61293e565b610e4e67cac15d2fdd82092d60c01b61293e565b610e6267ed1a848a0cd4f09060c01b61293e565b82610e7767aca5dea172a7986260c01b61293e565b610e8b67ddfa938f13b1699f60c01b61293e565b610e9f670a15c2c2842b040060c01b61293e565b610eb36706a0ca552ce22bce60c01b61293e565b6012600082815260200190815260200160002060009054906101000a900460ff16610f13576040517f08c379a0000000000000000000000000000000000000000000000000000000008152600401610f0a90614ca8565b60405180910390fd5b610f2767af47bd46f485abbc60c01b61293e565b610f3b67a2100ecd62f9c77f60c01b61293e565b610f4f674542c5d2cc3079da60c01b61293e565b610f636727c243fa18ae91d960c01b61293e565b610f7767cdc3c1d55865df2060c01b61293e565b610f8b67676bac3a9fadba1160c01b61293e565b610f9f67248e0943d0265a6760c01b61293e565b600073ffffffffffffffffffffffffffffffffffffffff16610fbf61295e565b73ffffffffffffffffffffffffffffffffffffffff161415611016576040517f08c379a000000000000000000000000000000000000000000000000000000000815260040161100d90614d28565b60405180910390fd5b61102a67b1e03f21a7d7b2ce60c01b61293e565b61103e679c0934ede881dc9a60c01b61293e565b6110526762abb0218d2a968460c01b61293e565b61105b84612ead565b61106f67f1164c4c0770931760c01b61293e565b6110836708fcbbe5b0b6996e60c01b61293e565b600c60009054906101000a900473ffffffffffffffffffffffffffffffffffffffff1673ffffffffffffffffffffffffffffffffffffffff1663a9059cbb6110c961295e565b866040518363ffffffff1660e01b81526004016110e7929190614c03565b600060405180830381600087803b15801561110157600080fd5b505af1158015611115573d6000803e3d6000fd5b5050505061112d67569fcdea0f659a6860c01b61293e565b60006012600086815260200190815260200160002060006101000a81548160ff02191690831515021790555061116d67dd10c7881c962df260c01b61293e565b61118167862560795e9bb60f60c01b61293e565b8361118a61295e565b73ffffffffffffffffffffffffffffffffffffffff167f137405ae38c6e13c1dae5b6f5d4eb90010220c7c552dcaccc7b9c038c0177af860405160405180910390a36111e06758aa9984e435d32760c01b61293e565b6111f467e70ced41e94f3c4360c01b61293e565b600192505050919050565b600061125282600260008673ffffffffffffffffffffffffffffffffffffffff1673ffffffffffffffffffffffffffffffffffffffff168152602001908152602001600020612fe790919063ffffffff16565b905092915050565b6000611270670b02cb93df0080b160c01b61293e565b61128467b2e943c28fb269ba60c01b61293e565b611298674810581c3765c16c60c01b61293e565b600b60009054906101000a900473ffffffffffffffffffffffffffffffffffffffff16905090565b6112db83838360405180602001604052806000815250611f6e565b505050565b6000806112f783600361300190919063ffffffff16565b50905080915050919050565b60006113196734ac8934c8fef2af60c01b61293e565b61132161295e565b73ffffffffffffffffffffffffffffffffffffffff1661133f611c61565b73ffffffffffffffffffffffffffffffffffffffff16146113c8576040517f08c379a00000000000000000000000000000000000000000000000000000000081526004018080602001828103825260208152602001807f4f776e61626c653a2063616c6c6572206973206e6f7420746865206f776e657281525060200191505060405180910390fd5b6113dc67b2d71a528f5cd82660c01b61293e565b6113f067155e3905db03493560c01b61293e565b611404673c0c37ff8bf27da760c01b61293e565b61141867faebd9188ed8756e60c01b61293e565b61146583838080601f016020809104026020016040519081016040528093929190818152602001838380828437600081840152601f19601f8201169050808301925050505050505061302d565b6114796706a14ac2aac0490f60c01b61293e565b61148d67557877ec3a3284b060c01b61293e565b7ff9c7803e94e0d3c02900d8a90893a6d5e90dd04d32a4cfe825520f82bf9f32f683836040516114be929190614c62565b60405180910390a16114da67e4659ee20ff5971c60c01b61293e565b6114ee675868db01c71d7a0760c01b61293e565b6001905092915050565b60116020528060005260406000206000915054906101000a900473ffffffffffffffffffffffffffffffffffffffff1681565b600061155b826040518060600160405280602981526020016151506029913960036130479092919063ffffffff16565b9050919050565b6060600a8054600181600116156101000203166002900480601f0160208091040260200160405190810160405280929190818152602001828054600181600116156101000203166002900480156115fa5780601f106115cf576101008083540402835291602001916115fa565b820191906000526020600020905b8154815290600101906020018083116115dd57829003601f168201915b5050505050905090565b6010602052816000526040600020602052806000526040600020600091509150505481565b60008073ffffffffffffffffffffffffffffffffffffffff168273ffffffffffffffffffffffffffffffffffffffff1614156116b0576040517f08c379a000000000000000000000000000000000000000000000000000000000815260040180806020018281038252602a815260200180615126602a913960400191505060405180910390fd5b6116f7600260008473ffffffffffffffffffffffffffffffffffffffff1673ffffffffffffffffffffffffffffffffffffffff168152602001908152602001600020613066565b9050919050565b61170661295e565b73ffffffffffffffffffffffffffffffffffffffff16611724611c61565b73ffffffffffffffffffffffffffffffffffffffff16146117ad576040517f08c379a00000000000000000000000000000000000000000000000000000000081526004018080602001828103825260208152602001807f4f776e61626c653a2063616c6c6572206973206e6f7420746865206f776e657281525060200191505060405180910390fd5b600073ffffffffffffffffffffffffffffffffffffffff1660008054906101000a900473ffffffffffffffffffffffffffffffffffffffff1673ffffffffffffffffffffffffffffffffffffffff167f8be0079c531659141344cd1fd0a4f28419497f9722a3daafe3b4186f6b6457e060405160405180910390a360008060006101000a81548173ffffffffffffffffffffffffffffffffffffffff021916908373ffffffffffffffffffffffffffffffffffffffff160217905550565b600061188167a0d75895bc834a8860c01b61293e565b8161189667b06ab7dd5e2cf1e160c01b61293e565b6118aa67d283ad06ec9329fc60c01b61293e565b6118be67567b13a1b38f830f60c01b61293e565b6118d267288495147b90104360c01b61293e565b6118da61295e565b73ffffffffffffffffffffffffffffffffffffffff166011600083815260200190815260200160002060009054906101000a900473ffffffffffffffffffffffffffffffffffffffff1673ffffffffffffffffffffffffffffffffffffffff161461197a576040517f08c379a000000000000000000000000000000000000000000000000000000000815260040161197190614cc8565b60405180910390fd5b61198e67e897a2d638b504aa60c01b61293e565b6119a2679338f75c953584ad60c01b61293e565b6119b667f3b21200408c343a60c01b61293e565b6119ca6789dfcbdaa1e3a59960c01b61293e565b6119de6740be6ac76576e5d860c01b61293e565b6119f2679e39283ded1ef60860c01b61293e565b611a0667ad5950cbefdb6a0160c01b61293e565b611a0f8361307b565b611a4e576040517f08c379a0000000000000000000000000000000000000000000000000000000008152600401611a4590614d68565b60405180910390fd5b611a6267fe38123c337d0c7560c01b61293e565b611a76676ad5ecf40df435fd60c01b61293e565b611a8a67140378fa9ad98cd060c01b61293e565b611a9b611a9561295e565b846132bf565b611aaf67cb1b7182134471ac60c01b61293e565b611ac3679e1be0ffcb8794aa60c01b61293e565b611b7c83600c60009054906101000a900473ffffffffffffffffffffffffffffffffffffffff1673ffffffffffffffffffffffffffffffffffffffff1663c87b56dd866040518263ffffffff1660e01b8152600401611b229190614da8565b60006040518083038186803b158015611b3a57600080fd5b505afa158015611b4e573d6000803e3d6000fd5b505050506040513d6000823e3d601f19601f82011682018060405250810190611b7791906146f9565b612ad7565b611b90679235b3f8b66ef0d060c01b61293e565b60016012600085815260200190815260200160002060006101000a81548160ff021916908315150217905550611bd0671b5ef2d80f7c99eb60c01b61293e565b611be467033b704b6bd3838960c01b61293e565b82611bed61295e565b73ffffffffffffffffffffffffffffffffffffffff167f3c739b6a95f75f9e762038efa06f6758bbab40ef0b17f9f07cd3476eeac984e460405160405180910390a3611c4367ceb28cd07f77ba9960c01b61293e565b611c576793caaf958071e61160c01b61293e565b6001915050919050565b60008060009054906101000a900473ffffffffffffffffffffffffffffffffffffffff16905090565b606060088054600181600116156101000203166002900480601f016020809104026020016040519081016040528092919081815260200182805460018160011615610100020316600290048015611d225780601f10611cf757610100808354040283529160200191611d22565b820191906000526020600020905b815481529060010190602001808311611d0557829003601f168201915b5050505050905090565b6000611d4267b16af5a0304293b560c01b61293e565b611d566769936335d3245e9860c01b61293e565b611d6a67705507e53eeff44460c01b61293e565b611d8584848460405180602001604052806000815250611f6e565b611d9967bbf256b2406ae6be60c01b61293e565b611dad6780e43ef40b1d6f2060c01b61293e565b600190509392505050565b611dc061295e565b73ffffffffffffffffffffffffffffffffffffffff168273ffffffffffffffffffffffffffffffffffffffff161415611e61576040517f08c379a00000000000000000000000000000000000000000000000000000000081526004018080602001828103825260198152602001807f4552433732313a20617070726f766520746f2063616c6c65720000000000000081525060200191505060405180910390fd5b8060066000611e6e61295e565b73ffffffffffffffffffffffffffffffffffffffff1673ffffffffffffffffffffffffffffffffffffffff16815260200190815260200160002060008473ffffffffffffffffffffffffffffffffffffffff1673ffffffffffffffffffffffffffffffffffffffff16815260200190815260200160002060006101000a81548160ff0219169083151502179055508173ffffffffffffffffffffffffffffffffffffffff16611f1b61295e565b73ffffffffffffffffffffffffffffffffffffffff167f17307eab39ab6107e8899845ad3d59bd9653f200f220920489ca2b5937696c318360405180821515815260200191505060405180910390a35050565b611f7f611f7961295e565b83612b76565b611fd4576040517f08c379a000000000000000000000000000000000000000000000000000000000815260040180806020018281038252603181526020018061526c6031913960400191505060405180910390fd5b611fe0848484846132dd565b50505050565b6060611ff182612941565b612046576040517f08c379a000000000000000000000000000000000000000000000000000000000815260040180806020018281038252602f81526020018061521c602f913960400191505060405180910390fd5b6000600960008481526020019081526020016000208054600181600116156101000203166002900480601f0160208091040260200160405190810160405280929190818152602001828054600181600116156101000203166002900480156120ef5780601f106120c4576101008083540402835291602001916120ef565b820191906000526020600020905b8154815290600101906020018083116120d257829003601f168201915b505050505090506000612100611562565b90506000815114156121165781925050506122b2565b6000825111156121e75780826040516020018083805190602001908083835b602083106121585780518252602082019150602081019050602083039250612135565b6001836020036101000a03801982511681845116808217855250505050505090500182805190602001908083835b602083106121a95780518252602082019150602081019050602083039250612186565b6001836020036101000a03801982511681845116808217855250505050505090500192505050604051602081830303815290604052925050506122b2565b806121f18561334f565b6040516020018083805190602001908083835b602083106122275780518252602082019150602081019050602083039250612204565b6001836020036101000a03801982511681845116808217855250505050505090500182805190602001908083835b602083106122785780518252602082019150602081019050602083039250612255565b6001836020036101000a03801982511681845116808217855250505050505090500192505050604051602081830303815290604052925050505b919050565b6122d283838360405180602001604052806000815250611f6e565b505050565b6000600660008473ffffffffffffffffffffffffffffffffffffffff1673ffffffffffffffffffffffffffffffffffffffff16815260200190815260200160002060008373ffffffffffffffffffffffffffffffffffffffff1673ffffffffffffffffffffffffffffffffffffffff16815260200190815260200160002060009054906101000a900460ff16905092915050565b61237361295e565b73ffffffffffffffffffffffffffffffffffffffff16612391611c61565b73ffffffffffffffffffffffffffffffffffffffff161461241a576040517f08c379a00000000000000000000000000000000000000000000000000000000081526004018080602001828103825260208152602001807f4f776e61626c653a2063616c6c6572206973206e6f7420746865206f776e657281525060200191505060405180910390fd5b600073ffffffffffffffffffffffffffffffffffffffff168173ffffffffffffffffffffffffffffffffffffffff1614156124a0576040517f08c379a00000000000000000000000000000000000000000000000000000000081526004018080602001828103825260268152602001806150526026913960400191505060405180910390fd5b8073ffffffffffffffffffffffffffffffffffffffff1660008054906101000a900473ffffffffffffffffffffffffffffffffffffffff1673ffffffffffffffffffffffffffffffffffffffff167f8be0079c531659141344cd1fd0a4f28419497f9722a3daafe3b4186f6b6457e060405160405180910390a3806000806101000a81548173ffffffffffffffffffffffffffffffffffffffff021916908373ffffffffffffffffffffffffffffffffffffffff16021790555050565b60006125736777b66486e99b8c0960c01b61293e565b8161258867940967b94f2c346b60c01b61293e565b61259c6725fffc339613373860c01b61293e565b6125b0677840f0190d56b54460c01b61293e565b6125c467343e1b31a87a4e3360c01b61293e565b6125cc61295e565b73ffffffffffffffffffffffffffffffffffffffff16600c60009054906101000a900473ffffffffffffffffffffffffffffffffffffffff1673ffffffffffffffffffffffffffffffffffffffff16636352211e836040518263ffffffff1660e01b815260040161263d9190614da8565b60206040518083038186803b15801561265557600080fd5b505afa158015612669573d6000803e3d6000fd5b505050506040513d601f19601f8201168201806040525081019061268d91906144e4565b73ffffffffffffffffffffffffffffffffffffffff16146126e3576040517f08c379a00000000000000000000000000000000000000000000000000000000081526004016126da90614d88565b60405180910390fd5b6126f7679172511e6fef19f460c01b61293e565b61270b67ff914d771763627b60c01b61293e565b61271f674b808f53cdd0b8b060c01b61293e565b61273367148ffd0dbd1d37ed60c01b61293e565b612747676da362fafa8cf13960c01b61293e565b61275b6780a386278ce88b5d60c01b61293e565b61276f67c372bd6c71bbb81e60c01b61293e565b61277761295e565b73ffffffffffffffffffffffffffffffffffffffff166011600085815260200190815260200160002060009054906101000a900473ffffffffffffffffffffffffffffffffffffffff1673ffffffffffffffffffffffffffffffffffffffff161415612818576040517f08c379a000000000000000000000000000000000000000000000000000000000815260040161280f90614ce8565b60405180910390fd5b61282c672d57c77c86c37c2260c01b61293e565b61284067aebe54af6befc97f60c01b61293e565b61284861295e565b6011600085815260200190815260200160002060006101000a81548173ffffffffffffffffffffffffffffffffffffffff021916908373ffffffffffffffffffffffffffffffffffffffff1602179055506128ad67a765c25960e7e30560c01b61293e565b6128c16707b254619490765760c01b61293e565b826128ca61295e565b73ffffffffffffffffffffffffffffffffffffffff167ff848bf1cacffecd6b9722baff28810b3649ee23fc48863217c908cc260405c8860405160405180910390a361292067ba87c608843cdcd860c01b61293e565b6129346776e9c73f2619611160c01b61293e565b6001915050919050565b50565b600061295782600361349690919063ffffffff16565b9050919050565b600033905090565b816005600083815260200190815260200160002060006101000a81548173ffffffffffffffffffffffffffffffffffffffff021916908373ffffffffffffffffffffffffffffffffffffffff160217905550808273ffffffffffffffffffffffffffffffffffffffff166129d98361152b565b73ffffffffffffffffffffffffffffffffffffffff167f8c5be1e5ebec7d5bd14f71427d1e84f3dd0314c0f7b2291e5b200ac8c7c3b92560405160405180910390a45050565b612ad48160405160240180827bffffffffffffffffffffffffffffffffffffffffffffffffffffffff191681526020019150506040516020818303038152906040527fe05f48d1000000000000000000000000000000000000000000000000000000007bffffffffffffffffffffffffffffffffffffffffffffffffffffffff19166020820180517bffffffffffffffffffffffffffffffffffffffffffffffffffffffff83818316178352505050506134b0565b50565b612ae082612941565b612b35576040517f08c379a000000000000000000000000000000000000000000000000000000000815260040180806020018281038252602c8152602001806151c7602c913960400191505060405180910390fd5b80600960008481526020019081526020016000209080519060200190612b5c929190614245565b505050565b6000612b6f826000016134d9565b9050919050565b6000612b8182612941565b612bd6576040517f08c379a000000000000000000000000000000000000000000000000000000000815260040180806020018281038252602c8152602001806150c2602c913960400191505060405180910390fd5b6000612be18361152b565b90508073ffffffffffffffffffffffffffffffffffffffff168473ffffffffffffffffffffffffffffffffffffffff161480612c5057508373ffffffffffffffffffffffffffffffffffffffff16612c3884610847565b73ffffffffffffffffffffffffffffffffffffffff16145b80612c615750612c6081856122d7565b5b91505092915050565b8273ffffffffffffffffffffffffffffffffffffffff16612c8a8261152b565b73ffffffffffffffffffffffffffffffffffffffff1614612cf6576040517f08c379a00000000000000000000000000000000000000000000000000000000081526004018080602001828103825260298152602001806151f36029913960400191505060405180910390fd5b600073ffffffffffffffffffffffffffffffffffffffff168273ffffffffffffffffffffffffffffffffffffffff161415612d7c576040517f08c379a00000000000000000000000000000000000000000000000000000000081526004018080602001828103825260248152602001806150786024913960400191505060405180910390fd5b612d878383836134ea565b612d92600082612966565b612de381600260008673ffffffffffffffffffffffffffffffffffffffff1673ffffffffffffffffffffffffffffffffffffffff1681526020019081526020016000206134ef90919063ffffffff16565b50612e3581600260008573ffffffffffffffffffffffffffffffffffffffff1673ffffffffffffffffffffffffffffffffffffffff16815260200190815260200160002061350990919063ffffffff16565b50612e4c818360036135239092919063ffffffff16565b50808273ffffffffffffffffffffffffffffffffffffffff168473ffffffffffffffffffffffffffffffffffffffff167fddf252ad1be2c89b69c2b068fc378daa952ba7f163c4a11628f55a4df523b3ef60405160405180910390a4505050565b6000612eb88261152b565b9050612ec6816000846134ea565b612ed1600083612966565b60006009600084815260200190815260200160002080546001816001161561010002031660029004905014612f2057600960008381526020019081526020016000206000612f1f91906142d3565b5b612f7182600260008473ffffffffffffffffffffffffffffffffffffffff1673ffffffffffffffffffffffffffffffffffffffff1681526020019081526020016000206134ef90919063ffffffff16565b50612f8682600361355890919063ffffffff16565b5081600073ffffffffffffffffffffffffffffffffffffffff168273ffffffffffffffffffffffffffffffffffffffff167fddf252ad1be2c89b69c2b068fc378daa952ba7f163c4a11628f55a4df523b3ef60405160405180910390a45050565b6000612ff68360000183613572565b60001c905092915050565b60008060008061301486600001866135f5565b915091508160001c8160001c9350935050509250929050565b80600a9080519060200190613043929190614245565b5050565b600061305a846000018460001b8461368e565b60001c90509392505050565b600061307482600001613784565b9050919050565b600061309167920bc83ebe70bffd60c01b61293e565b6130a5674978296adf04d7fc60c01b61293e565b6130b967f3b3f00e78c54ef060c01b61293e565b6130cd6735978d31e3df3b5d60c01b61293e565b3073ffffffffffffffffffffffffffffffffffffffff16600c60009054906101000a900473ffffffffffffffffffffffffffffffffffffffff1673ffffffffffffffffffffffffffffffffffffffff16636352211e846040518263ffffffff1660e01b815260040161313f9190614da8565b60206040518083038186803b15801561315757600080fd5b505afa15801561316b573d6000803e3d6000fd5b505050506040513d601f19601f8201168201806040525081019061318f91906144e4565b73ffffffffffffffffffffffffffffffffffffffff16146131e5576040517f08c379a00000000000000000000000000000000000000000000000000000000081526004016131dc90614d08565b60405180910390fd5b6131f967944c3fa300cb319660c01b61293e565b61320d675e0aa2ccded7f85360c01b61293e565b60016012600084815260200190815260200160002060006101000a81548160ff02191690831515021790555061324d67fb4422d20cd9d48c60c01b61293e565b61326167ad57d4df297854bd60c01b61293e565b817fdcaec8df21007fb0cc76407b9c2be183d4cc30cfc0d5bc22a533e61b0279577160405160405180910390a26132a2672d909e2f95ca244c60c01b61293e565b6132b667f0ef993910ad867760c01b61293e565b60019050919050565b6132d9828260405180602001604052806000815250613795565b5050565b6132e8848484612c6a565b6132f484848484613806565b613349576040517f08c379a00000000000000000000000000000000000000000000000000000000081526004018080602001828103825260328152602001806150206032913960400191505060405180910390fd5b50505050565b60606000821415613397576040518060400160405280600181526020017f30000000000000000000000000000000000000000000000000000000000000008152509050613491565b600082905060005b600082146133c1578080600101915050600a82816133b957fe5b04915061339f565b60008167ffffffffffffffff811180156133da57600080fd5b506040519080825280601f01601f19166020018201604052801561340d5781602001600182028036833780820191505090505b50905060006001830390508593505b6000841461348957600a848161342e57fe5b0660300160f81b8282806001900393508151811061344857fe5b60200101907effffffffffffffffffffffffffffffffffffffffffffffffffffffffffffff1916908160001a905350600a848161348157fe5b04935061341c565b819450505050505b919050565b60006134a8836000018360001b613a1f565b905092915050565b60008151905060006a636f6e736f6c652e6c6f679050602083016000808483855afa5050505050565b600081600001805490509050919050565b505050565b6000613501836000018360001b613a42565b905092915050565b600061351b836000018360001b613b2a565b905092915050565b600061354f846000018460001b8473ffffffffffffffffffffffffffffffffffffffff1660001b613b9a565b90509392505050565b600061356a836000018360001b613c76565b905092915050565b6000818360000180549050116135d3576040517f08c379a0000000000000000000000000000000000000000000000000000000008152600401808060200182810382526022815260200180614ffe6022913960400191505060405180910390fd5b8260000182815481106135e257fe5b9060005260206000200154905092915050565b60008082846000018054905011613657576040517f08c379a00000000000000000000000000000000000000000000000000000000081526004018080602001828103825260228152602001806151796022913960400191505060405180910390fd5b600084600001848154811061366857fe5b906000526020600020906002020190508060000154816001015492509250509250929050565b60008084600101600085815260200190815260200160002054905060008114158390613755576040517f08c379a00000000000000000000000000000000000000000000000000000000081526004018080602001828103825283818151815260200191508051906020019080838360005b8381101561371a5780820151818401526020810190506136ff565b50505050905090810190601f1680156137475780820380516001836020036101000a031916815260200191505b509250505060405180910390fd5b5084600001600182038154811061376857fe5b9060005260206000209060020201600101549150509392505050565b600081600001805490509050919050565b61379f8383613d8f565b6137ac6000848484613806565b613801576040517f08c379a00000000000000000000000000000000000000000000000000000000081526004018080602001828103825260328152602001806150206032913960400191505060405180910390fd5b505050565b60006138278473ffffffffffffffffffffffffffffffffffffffff16613f83565b6138345760019050613a17565b600061399e63150b7a0260e01b61384961295e565b888787604051602401808573ffffffffffffffffffffffffffffffffffffffff1681526020018473ffffffffffffffffffffffffffffffffffffffff16815260200183815260200180602001828103825283818151815260200191508051906020019080838360005b838110156138cd5780820151818401526020810190506138b2565b50505050905090810190601f1680156138fa5780820380516001836020036101000a031916815260200191505b5095505050505050604051602081830303815290604052907bffffffffffffffffffffffffffffffffffffffffffffffffffffffff19166020820180517bffffffffffffffffffffffffffffffffffffffffffffffffffffffff8381831617835250505050604051806060016040528060328152602001615020603291398773ffffffffffffffffffffffffffffffffffffffff16613f969092919063ffffffff16565b905060008180602001905160208110156139b757600080fd5b8101908080519060200190929190505050905063150b7a0260e01b7bffffffffffffffffffffffffffffffffffffffffffffffffffffffff1916817bffffffffffffffffffffffffffffffffffffffffffffffffffffffff191614925050505b949350505050565b600080836001016000848152602001908152602001600020541415905092915050565b60008083600101600084815260200190815260200160002054905060008114613b1e5760006001820390506000600186600001805490500390506000866000018281548110613a8d57fe5b9060005260206000200154905080876000018481548110613aaa57fe5b9060005260206000200181905550600183018760010160008381526020019081526020016000208190555086600001805480613ae257fe5b60019003818190600052602060002001600090559055866001016000878152602001908152602001600020600090556001945050505050613b24565b60009150505b92915050565b6000613b368383613fae565b613b8f578260000182908060018154018082558091505060019003906000526020600020016000909190919091505582600001805490508360010160008481526020019081526020016000208190555060019050613b94565b600090505b92915050565b6000808460010160008581526020019081526020016000205490506000811415613c4157846000016040518060400160405280868152602001858152509080600181540180825580915050600190039060005260206000209060020201600090919091909150600082015181600001556020820151816001015550508460000180549050856001016000868152602001908152602001600020819055506001915050613c6f565b82856000016001830381548110613c5457fe5b90600052602060002090600202016001018190555060009150505b9392505050565b60008083600101600084815260200190815260200160002054905060008114613d835760006001820390506000600186600001805490500390506000866000018281548110613cc157fe5b9060005260206000209060020201905080876000018481548110613ce157fe5b9060005260206000209060020201600082015481600001556001820154816001015590505060018301876001016000836000015481526020019081526020016000208190555086600001805480613d3457fe5b6001900381819060005260206000209060020201600080820160009055600182016000905550509055866001016000878152602001908152602001600020600090556001945050505050613d89565b60009150505b92915050565b600073ffffffffffffffffffffffffffffffffffffffff168273ffffffffffffffffffffffffffffffffffffffff161415613e32576040517f08c379a00000000000000000000000000000000000000000000000000000000081526004018080602001828103825260208152602001807f4552433732313a206d696e7420746f20746865207a65726f206164647265737381525060200191505060405180910390fd5b613e3b81612941565b15613eae576040517f08c379a000000000000000000000000000000000000000000000000000000000815260040180806020018281038252601c8152602001807f4552433732313a20746f6b656e20616c7265616479206d696e7465640000000081525060200191505060405180910390fd5b613eba600083836134ea565b613f0b81600260008573ffffffffffffffffffffffffffffffffffffffff1673ffffffffffffffffffffffffffffffffffffffff16815260200190815260200160002061350990919063ffffffff16565b50613f22818360036135239092919063ffffffff16565b50808273ffffffffffffffffffffffffffffffffffffffff16600073ffffffffffffffffffffffffffffffffffffffff167fddf252ad1be2c89b69c2b068fc378daa952ba7f163c4a11628f55a4df523b3ef60405160405180910390a45050565b600080823b905060008111915050919050565b6060613fa58484600085613fd1565b90509392505050565b600080836001016000848152602001908152602001600020541415905092915050565b60608247101561402c576040517f08c379a000000000000000000000000000000000000000000000000000000000815260040180806020018281038252602681526020018061509c6026913960400191505060405180910390fd5b61403585613f83565b6140a7576040517f08c379a000000000000000000000000000000000000000000000000000000000815260040180806020018281038252601d8152602001807f416464726573733a2063616c6c20746f206e6f6e2d636f6e747261637400000081525060200191505060405180910390fd5b6000808673ffffffffffffffffffffffffffffffffffffffff1685876040518082805190602001908083835b602083106140f657805182526020820191506020810190506020830392506140d3565b6001836020036101000a03801982511681845116808217855250505050505090500191505060006040518083038185875af1925050503d8060008114614158576040519150601f19603f3d011682016040523d82523d6000602084013e61415d565b606091505b509150915061416d828286614179565b92505050949350505050565b606083156141895782905061423e565b60008351111561419c5782518084602001fd5b816040517f08c379a00000000000000000000000000000000000000000000000000000000081526004018080602001828103825283818151815260200191508051906020019080838360005b838110156142035780820151818401526020810190506141e8565b50505050905090810190601f1680156142305780820380516001836020036101000a031916815260200191505b509250505060405180910390fd5b9392505050565b828054600181600116156101000203166002900490600052602060002090601f01602090048101928261427b57600085556142c2565b82601f1061429457805160ff19168380011785556142c2565b828001600101855582156142c2579182015b828111156142c15782518255916020019190600101906142a6565b5b5090506142cf919061431b565b5090565b50805460018160011615610100020316600290046000825580601f106142f95750614318565b601f016020900490600052602060002090810190614317919061431b565b5b50565b5b8082111561433457600081600090555060010161431c565b5090565b600061434b61434684614e26565b614df5565b90508281526020810184848401111561436357600080fd5b61436e848285614f4c565b509392505050565b600061438961438484614e56565b614df5565b9050828152602081018484840111156143a157600080fd5b6143ac848285614f5b565b509392505050565b6000813590506143c381614fa1565b92915050565b6000815190506143d881614fa1565b92915050565b6000813590506143ed81614fb8565b92915050565b60008135905061440281614fcf565b92915050565b600082601f83011261441957600080fd5b8135614429848260208601614338565b91505092915050565b60008083601f84011261444457600080fd5b8235905067ffffffffffffffff81111561445d57600080fd5b60208301915083600182028301111561447557600080fd5b9250929050565b600082601f83011261448d57600080fd5b815161449d848260208601614376565b91505092915050565b6000813590506144b581614fe6565b92915050565b6000602082840312156144cd57600080fd5b60006144db848285016143b4565b91505092915050565b6000602082840312156144f657600080fd5b6000614504848285016143c9565b91505092915050565b6000806040838503121561452057600080fd5b600061452e858286016143b4565b925050602061453f858286016143b4565b9150509250929050565b60008060006060848603121561455e57600080fd5b600061456c868287016143b4565b935050602061457d868287016143b4565b925050604061458e868287016144a6565b9150509250925092565b600080600080608085870312156145ae57600080fd5b60006145bc878288016143b4565b94505060206145cd878288016143b4565b93505060406145de878288016144a6565b925050606085013567ffffffffffffffff8111156145fb57600080fd5b61460787828801614408565b91505092959194509250565b6000806040838503121561462657600080fd5b6000614634858286016143b4565b9250506020614645858286016143de565b9150509250929050565b6000806040838503121561466257600080fd5b6000614670858286016143b4565b9250506020614681858286016144a6565b9150509250929050565b60006020828403121561469d57600080fd5b60006146ab848285016143f3565b91505092915050565b600080602083850312156146c757600080fd5b600083013567ffffffffffffffff8111156146e157600080fd5b6146ed85828601614432565b92509250509250929050565b60006020828403121561470b57600080fd5b600082015167ffffffffffffffff81111561472557600080fd5b6147318482850161447c565b91505092915050565b60006020828403121561474c57600080fd5b600061475a848285016144a6565b91505092915050565b60008060006040848603121561477857600080fd5b6000614786868287016144a6565b935050602084013567ffffffffffffffff8111156147a357600080fd5b6147af86828701614432565b92509250509250925092565b6147c481614f16565b82525050565b6147d381614ea2565b82525050565b6147e281614eb4565b82525050565b6147f181614ec0565b82525050565b60006148038385614e91565b9350614810838584614f4c565b61481983614f90565b840190509392505050565b600061482f82614e86565b6148398185614e91565b9350614849818560208601614f5b565b61485281614f90565b840191505092915050565b600061486a603883614e91565b91507f537570655261726556323a205468652076313a763220746f6b656e207065672060008301527f6861736e2774206265656e2065737461626c69736865642100000000000000006020830152604082019050919050565b60006148d0604483614e91565b91507f537570655261726556323a2053656e6465722069736e27742077686974656c6960008301527f73746564206f7220617070726f76656420666f722074686973206f706572617460208301527f696f6e21000000000000000000000000000000000000000000000000000000006040830152606082019050919050565b600061495c602883614e91565b91507f537570655261726556323a204163636f756e7420616c7265616479207768697460008301527f656c6973746564210000000000000000000000000000000000000000000000006020830152604082019050919050565b60006149c2602783614e91565b91507f537570655261726556323a20556e61626c6520746f207065672074686520563160008301527f20746f6b656e21000000000000000000000000000000000000000000000000006020830152604082019050919050565b6000614a28602683614e91565b91507f537570655261726556323a20496e76616c696420726563697069656e7420616460008301527f64726573732100000000000000000000000000000000000000000000000000006020830152604082019050919050565b6000614a8e603383614e91565b91507f537570655261726556323a2053656e6465722069736e277420746865206f776e60008301527f6572206f662074686520563220746f6b656e21000000000000000000000000006020830152604082019050919050565b6000614af4605d83614e91565b91507f537570655261726556323a2047657420616464656420746f2077686974656c6960008301527f73742c207472616e736665722074686520563120746f6b656e20746f2074686960208301527f7320636f6e74726163742c207468656e2063616c6c206d696e745632210000006040830152606082019050919050565b6000614b80603383614e91565b91507f537570655261726556323a2053656e6465722069736e277420746865206f776e60008301527f6572206f662074686520563120546f6b656e21000000000000000000000000006020830152604082019050919050565b614be281614f0c565b82525050565b6000602082019050614bfd60008301846147ca565b92915050565b6000604082019050614c1860008301856147bb565b614c256020830184614bd9565b9392505050565b6000602082019050614c4160008301846147d9565b92915050565b6000602082019050614c5c60008301846147e8565b92915050565b60006020820190508181036000830152614c7d8184866147f7565b90509392505050565b60006020820190508181036000830152614ca08184614824565b905092915050565b60006020820190508181036000830152614cc18161485d565b9050919050565b60006020820190508181036000830152614ce1816148c3565b9050919050565b60006020820190508181036000830152614d018161494f565b9050919050565b60006020820190508181036000830152614d21816149b5565b9050919050565b60006020820190508181036000830152614d4181614a1b565b9050919050565b60006020820190508181036000830152614d6181614a81565b9050919050565b60006020820190508181036000830152614d8181614ae7565b9050919050565b60006020820190508181036000830152614da181614b73565b9050919050565b6000602082019050614dbd6000830184614bd9565b92915050565b6000604082019050614dd86000830186614bd9565b8181036020830152614deb8184866147f7565b9050949350505050565b6000604051905081810181811067ffffffffffffffff82111715614e1c57614e1b614f8e565b5b8060405250919050565b600067ffffffffffffffff821115614e4157614e40614f8e565b5b601f19601f8301169050602081019050919050565b600067ffffffffffffffff821115614e7157614e70614f8e565b5b601f19601f8301169050602081019050919050565b600081519050919050565b600082825260208201905092915050565b6000614ead82614eec565b9050919050565b60008115159050919050565b60007fffffffff0000000000000000000000000000000000000000000000000000000082169050919050565b600073ffffffffffffffffffffffffffffffffffffffff82169050919050565b6000819050919050565b6000614f2182614f28565b9050919050565b6000614f3382614f3a565b9050919050565b6000614f4582614eec565b9050919050565b82818337600083830152505050565b60005b83811015614f79578082015181840152602081019050614f5e565b83811115614f88576000848401525b50505050565bfe5b6000601f19601f8301169050919050565b614faa81614ea2565b8114614fb557600080fd5b50565b614fc181614eb4565b8114614fcc57600080fd5b50565b614fd881614ec0565b8114614fe357600080fd5b50565b614fef81614f0c565b8114614ffa57600080fd5b5056fe456e756d657261626c655365743a20696e646578206f7574206f6620626f756e64734552433732313a207472616e7366657220746f206e6f6e20455243373231526563656976657220696d706c656d656e7465724f776e61626c653a206e6577206f776e657220697320746865207a65726f20616464726573734552433732313a207472616e7366657220746f20746865207a65726f2061646472657373416464726573733a20696e73756666696369656e742062616c616e636520666f722063616c6c4552433732313a206f70657261746f7220717565727920666f72206e6f6e6578697374656e7420746f6b656e4552433732313a20617070726f76652063616c6c6572206973206e6f74206f776e6572206e6f7220617070726f76656420666f7220616c6c4552433732313a2062616c616e636520717565727920666f7220746865207a65726f20616464726573734552433732313a206f776e657220717565727920666f72206e6f6e6578697374656e7420746f6b656e456e756d657261626c654d61703a20696e646578206f7574206f6620626f756e64734552433732313a20617070726f76656420717565727920666f72206e6f6e6578697374656e7420746f6b656e4552433732314d657461646174613a2055524920736574206f66206e6f6e6578697374656e7420746f6b656e4552433732313a207472616e73666572206f6620746f6b656e2074686174206973206e6f74206f776e4552433732314d657461646174613a2055524920717565727920666f72206e6f6e6578697374656e7420746f6b656e4552433732313a20617070726f76616c20746f2063757272656e74206f776e65724552433732313a207472616e736665722063616c6c6572206973206e6f74206f776e6572206e6f7220617070726f766564a2646970667358221220227127821a89219817f86490f635fe66a9f2399cdf18b9a9de851dd05b8bfebb64736f6c63430007060033",
  "linkReferences": {},
  "deployedLinkReferences": {}
}