{
  "_format": "hh-sol-artifact-1",
  "contractName": "SupeRareV2",
  "sourceName": "contracts/SupeRareV2.sol",
  "abi": [
    {
      "inputs": [
        {
          "internalType": "address",
          "name": "OriginalSupeRareAddr_",
          "type": "address"
        }
      ],
      "stateMutability": "nonpayable",
      "type": "constructor"
    },
    {
      "anonymous": false,
      "inputs": [
        {
          "indexed": true,
          "internalType": "address",
          "name": "owner",
          "type": "address"
        },
        {
          "indexed": true,
          "internalType": "address",
          "name": "approved",
          "type": "address"
        },
        {
          "indexed": true,
          "internalType": "uint256",
          "name": "tokenId",
          "type": "uint256"
        }
      ],
      "name": "Approval",
      "type": "event"
    },
    {
      "anonymous": false,
      "inputs": [
        {
          "indexed": true,
          "internalType": "address",
          "name": "owner",
          "type": "address"
        },
        {
          "indexed": true,
          "internalType": "address",
          "name": "operator",
          "type": "address"
        },
        {
          "indexed": false,
          "internalType": "bool",
          "name": "approved",
          "type": "bool"
        }
      ],
      "name": "ApprovalForAll",
      "type": "event"
    },
    {
      "anonymous": false,
      "inputs": [
        {
          "indexed": false,
          "internalType": "string",
          "name": "_baseURI",
          "type": "string"
        }
      ],
      "name": "BaseURISet",
      "type": "event"
    },
    {
      "anonymous": false,
      "inputs": [
        {
          "indexed": true,
          "internalType": "address",
          "name": "v1owner",
          "type": "address"
        },
        {
          "indexed": true,
          "internalType": "uint256",
          "name": "v2tokenId",
          "type": "uint256"
        }
      ],
      "name": "MintV2",
      "type": "event"
    },
    {
      "anonymous": false,
      "inputs": [
        {
          "indexed": true,
          "internalType": "address",
          "name": "v1owner",
          "type": "address"
        },
        {
          "indexed": true,
          "internalType": "uint256",
          "name": "v1tokenId",
          "type": "uint256"
        }
      ],
      "name": "OwnerWhitelisted",
      "type": "event"
    },
    {
      "anonymous": false,
      "inputs": [
        {
          "indexed": true,
          "internalType": "address",
          "name": "previousOwner",
          "type": "address"
        },
        {
          "indexed": true,
          "internalType": "address",
          "name": "newOwner",
          "type": "address"
        }
      ],
      "name": "OwnershipTransferred",
      "type": "event"
    },
    {
      "anonymous": false,
      "inputs": [
        {
          "indexed": true,
          "internalType": "uint256",
          "name": "v1tokenId",
          "type": "uint256"
        }
      ],
      "name": "Pegged",
      "type": "event"
    },
    {
      "anonymous": false,
      "inputs": [
        {
          "indexed": false,
          "internalType": "uint256",
          "name": "_tokenId",
          "type": "uint256"
        },
        {
          "indexed": false,
          "internalType": "string",
          "name": "_tokenURI",
          "type": "string"
        }
      ],
      "name": "TokenURISet",
      "type": "event"
    },
    {
      "anonymous": false,
      "inputs": [
        {
          "indexed": true,
          "internalType": "address",
          "name": "from",
          "type": "address"
        },
        {
          "indexed": true,
          "internalType": "address",
          "name": "to",
          "type": "address"
        },
        {
          "indexed": true,
          "internalType": "uint256",
          "name": "tokenId",
          "type": "uint256"
        }
      ],
      "name": "Transfer",
      "type": "event"
    },
    {
      "anonymous": false,
      "inputs": [
        {
          "indexed": true,
          "internalType": "address",
          "name": "v2owner",
          "type": "address"
        },
        {
          "indexed": true,
          "internalType": "uint256",
          "name": "v2tokenId",
          "type": "uint256"
        }
      ],
      "name": "WithdrawV1",
      "type": "event"
    },
    {
      "inputs": [
        {
          "internalType": "address",
          "name": "to",
          "type": "address"
        },
        {
          "internalType": "uint256",
          "name": "tokenId",
          "type": "uint256"
        }
      ],
      "name": "approve",
      "outputs": [],
      "stateMutability": "nonpayable",
      "type": "function"
    },
    {
      "inputs": [
        {
          "internalType": "address",
          "name": "owner",
          "type": "address"
        }
      ],
      "name": "balanceOf",
      "outputs": [
        {
          "internalType": "uint256",
          "name": "",
          "type": "uint256"
        }
      ],
      "stateMutability": "view",
      "type": "function"
    },
    {
      "inputs": [],
      "name": "baseURI",
      "outputs": [
        {
          "internalType": "string",
          "name": "",
          "type": "string"
        }
      ],
      "stateMutability": "view",
      "type": "function"
    },
    {
      "inputs": [
        {
          "internalType": "uint256",
          "name": "_v1TokenId",
          "type": "uint256"
        }
      ],
      "name": "getAddedToWhitelist",
      "outputs": [
        {
          "internalType": "bool",
          "name": "",
          "type": "bool"
        }
      ],
      "stateMutability": "nonpayable",
      "type": "function"
    },
    {
      "inputs": [
        {
          "internalType": "uint256",
          "name": "tokenId",
          "type": "uint256"
        }
      ],
      "name": "getApproved",
      "outputs": [
        {
          "internalType": "address",
          "name": "",
          "type": "address"
        }
      ],
      "stateMutability": "view",
      "type": "function"
    },
    {
      "inputs": [],
      "name": "getSupeRareAddress",
      "outputs": [
        {
          "internalType": "address",
          "name": "",
          "type": "address"
        }
      ],
      "stateMutability": "view",
      "type": "function"
    },
    {
      "inputs": [
        {
          "internalType": "address",
          "name": "owner",
          "type": "address"
        },
        {
          "internalType": "address",
          "name": "operator",
          "type": "address"
        }
      ],
      "name": "isApprovedForAll",
      "outputs": [
        {
          "internalType": "bool",
          "name": "",
          "type": "bool"
        }
      ],
      "stateMutability": "view",
      "type": "function"
    },
    {
      "inputs": [
        {
          "internalType": "uint256",
          "name": "_tokenId",
          "type": "uint256"
        }
      ],
      "name": "isPegged",
      "outputs": [
        {
          "internalType": "bool",
          "name": "",
          "type": "bool"
        }
      ],
      "stateMutability": "view",
      "type": "function"
    },
    {
      "inputs": [
        {
          "internalType": "uint256",
          "name": "_v1TokenId",
          "type": "uint256"
        }
      ],
      "name": "isWhitelisted",
      "outputs": [
        {
          "internalType": "bool",
          "name": "",
          "type": "bool"
        }
      ],
      "stateMutability": "view",
      "type": "function"
    },
    {
      "inputs": [
        {
          "internalType": "uint256",
          "name": "_tokenId",
          "type": "uint256"
        }
      ],
      "name": "mintV2",
      "outputs": [
        {
          "internalType": "bool",
          "name": "",
          "type": "bool"
        }
      ],
      "stateMutability": "nonpayable",
      "type": "function"
    },
    {
      "inputs": [],
      "name": "name",
      "outputs": [
        {
          "internalType": "string",
          "name": "",
          "type": "string"
        }
      ],
      "stateMutability": "view",
      "type": "function"
    },
    {
      "inputs": [
        {
          "internalType": "address",
          "name": "",
          "type": "address"
        },
        {
          "internalType": "address",
          "name": "",
          "type": "address"
        },
        {
          "internalType": "uint256",
          "name": "",
          "type": "uint256"
        },
        {
          "internalType": "bytes",
          "name": "",
          "type": "bytes"
        }
      ],
      "name": "onERC721Received",
      "outputs": [
        {
          "internalType": "bytes4",
          "name": "",
          "type": "bytes4"
        }
      ],
      "stateMutability": "view",
      "type": "function"
    },
    {
      "inputs": [],
      "name": "owner",
      "outputs": [
        {
          "internalType": "address",
          "name": "",
          "type": "address"
        }
      ],
      "stateMutability": "view",
      "type": "function"
    },
    {
      "inputs": [
        {
          "internalType": "address",
          "name": "",
          "type": "address"
        },
        {
          "internalType": "uint256",
          "name": "",
          "type": "uint256"
        }
      ],
      "name": "ownerAddrToV1toV2TokenId",
      "outputs": [
        {
          "internalType": "uint256",
          "name": "",
          "type": "uint256"
        }
      ],
      "stateMutability": "view",
      "type": "function"
    },
    {
      "inputs": [
        {
          "internalType": "uint256",
          "name": "tokenId",
          "type": "uint256"
        }
      ],
      "name": "ownerOf",
      "outputs": [
        {
          "internalType": "address",
          "name": "",
          "type": "address"
        }
      ],
      "stateMutability": "view",
      "type": "function"
    },
    {
      "inputs": [
        {
          "internalType": "uint256",
          "name": "",
          "type": "uint256"
        }
      ],
      "name": "ownerWhiteList",
      "outputs": [
        {
          "internalType": "address",
          "name": "",
          "type": "address"
        }
      ],
      "stateMutability": "view",
      "type": "function"
    },
    {
      "inputs": [],
      "name": "renounceOwnership",
      "outputs": [],
      "stateMutability": "nonpayable",
      "type": "function"
    },
    {
      "inputs": [
        {
          "internalType": "address",
          "name": "from",
          "type": "address"
        },
        {
          "internalType": "address",
          "name": "to",
          "type": "address"
        },
        {
          "internalType": "uint256",
          "name": "tokenId",
          "type": "uint256"
        }
      ],
      "name": "safeTransfer",
      "outputs": [],
      "stateMutability": "nonpayable",
      "type": "function"
    },
    {
      "inputs": [
        {
          "internalType": "address",
          "name": "from",
          "type": "address"
        },
        {
          "internalType": "address",
          "name": "to",
          "type": "address"
        },
        {
          "internalType": "uint256",
          "name": "tokenId",
          "type": "uint256"
        }
      ],
      "name": "safeTransferFrom",
      "outputs": [],
      "stateMutability": "nonpayable",
      "type": "function"
    },
    {
      "inputs": [
        {
          "internalType": "address",
          "name": "from",
          "type": "address"
        },
        {
          "internalType": "address",
          "name": "to",
          "type": "address"
        },
        {
          "internalType": "uint256",
          "name": "tokenId",
          "type": "uint256"
        },
        {
          "internalType": "bytes",
          "name": "_data",
          "type": "bytes"
        }
      ],
      "name": "safeTransferFrom",
      "outputs": [],
      "stateMutability": "nonpayable",
      "type": "function"
    },
    {
      "inputs": [
        {
          "internalType": "address",
          "name": "from",
          "type": "address"
        },
        {
          "internalType": "address",
          "name": "to",
          "type": "address"
        },
        {
          "internalType": "uint256",
          "name": "tokenId",
          "type": "uint256"
        }
      ],
      "name": "safelyTransfer",
      "outputs": [
        {
          "internalType": "bool",
          "name": "",
          "type": "bool"
        }
      ],
      "stateMutability": "nonpayable",
      "type": "function"
    },
    {
      "inputs": [
        {
          "internalType": "address",
          "name": "operator",
          "type": "address"
        },
        {
          "internalType": "bool",
          "name": "approved",
          "type": "bool"
        }
      ],
      "name": "setApprovalForAll",
      "outputs": [],
      "stateMutability": "nonpayable",
      "type": "function"
    },
    {
      "inputs": [
        {
          "internalType": "string",
          "name": "baseURI",
          "type": "string"
        }
      ],
      "name": "setBaseURI",
      "outputs": [
        {
          "internalType": "bool",
          "name": "",
          "type": "bool"
        }
      ],
      "stateMutability": "nonpayable",
      "type": "function"
    },
    {
      "inputs": [
        {
          "internalType": "uint256",
          "name": "_tokenId",
          "type": "uint256"
        },
        {
          "internalType": "string",
          "name": "_tokenURI",
          "type": "string"
        }
      ],
      "name": "setTokenURI",
      "outputs": [
        {
          "internalType": "bool",
          "name": "",
          "type": "bool"
        }
      ],
      "stateMutability": "nonpayable",
      "type": "function"
    },
    {
      "inputs": [
        {
          "internalType": "bytes4",
          "name": "interfaceId",
          "type": "bytes4"
        }
      ],
      "name": "supportsInterface",
      "outputs": [
        {
          "internalType": "bool",
          "name": "",
          "type": "bool"
        }
      ],
      "stateMutability": "view",
      "type": "function"
    },
    {
      "inputs": [],
      "name": "symbol",
      "outputs": [
        {
          "internalType": "string",
          "name": "",
          "type": "string"
        }
      ],
      "stateMutability": "view",
      "type": "function"
    },
    {
      "inputs": [
        {
          "internalType": "uint256",
          "name": "index",
          "type": "uint256"
        }
      ],
      "name": "tokenByIndex",
      "outputs": [
        {
          "internalType": "uint256",
          "name": "",
          "type": "uint256"
        }
      ],
      "stateMutability": "view",
      "type": "function"
    },
    {
      "inputs": [
        {
          "internalType": "address",
          "name": "owner",
          "type": "address"
        },
        {
          "internalType": "uint256",
          "name": "index",
          "type": "uint256"
        }
      ],
      "name": "tokenOfOwnerByIndex",
      "outputs": [
        {
          "internalType": "uint256",
          "name": "",
          "type": "uint256"
        }
      ],
      "stateMutability": "view",
      "type": "function"
    },
    {
      "inputs": [
        {
          "internalType": "uint256",
          "name": "tokenId",
          "type": "uint256"
        }
      ],
      "name": "tokenURI",
      "outputs": [
        {
          "internalType": "string",
          "name": "",
          "type": "string"
        }
      ],
      "stateMutability": "view",
      "type": "function"
    },
    {
      "inputs": [],
      "name": "totalSupply",
      "outputs": [
        {
          "internalType": "uint256",
          "name": "",
          "type": "uint256"
        }
      ],
      "stateMutability": "view",
      "type": "function"
    },
    {
      "inputs": [
        {
          "internalType": "address",
          "name": "from",
          "type": "address"
        },
        {
          "internalType": "address",
          "name": "to",
          "type": "address"
        },
        {
          "internalType": "uint256",
          "name": "tokenId",
          "type": "uint256"
        }
      ],
      "name": "transferFrom",
      "outputs": [],
      "stateMutability": "nonpayable",
      "type": "function"
    },
    {
      "inputs": [
        {
          "internalType": "address",
          "name": "newOwner",
          "type": "address"
        }
      ],
      "name": "transferOwnership",
      "outputs": [],
      "stateMutability": "nonpayable",
      "type": "function"
    },
    {
      "inputs": [
        {
          "internalType": "uint256",
          "name": "_tokenId",
          "type": "uint256"
        }
      ],
      "name": "withdraw",
      "outputs": [
        {
          "internalType": "bool",
          "name": "",
          "type": "bool"
        }
      ],
      "stateMutability": "nonpayable",
      "type": "function"
    }
  ],
  "bytecode": "0x60806040526040518060400160405280600881526020017f5375706552617265000000000000000000000000000000000000000000000000815250600e908051906020019062000051929190620004f6565b506040518060400160405280600481526020017f5355505200000000000000000000000000000000000000000000000000000000815250600f90805190602001906200009f929190620004f6565b50348015620000ad57600080fd5b50604051620054b4380380620054b48339818101604052810190620000d39190620005c3565b600e8054600181600116156101000203166002900480601f0160208091040260200160405190810160405280929190818152602001828054600181600116156101000203166002900480156200016d5780601f1062000141576101008083540402835291602001916200016d565b820191906000526020600020905b8154815290600101906020018083116200014f57829003601f168201915b5050505050600f8054600181600116156101000203166002900480601f0160208091040260200160405190810160405280929190818152602001828054600181600116156101000203166002900480156200020c5780601f10620001e0576101008083540402835291602001916200020c565b820191906000526020600020905b815481529060010190602001808311620001ee57829003601f168201915b5050505050600062000223620003e560201b60201c565b9050806000806101000a81548173ffffffffffffffffffffffffffffffffffffffff021916908373ffffffffffffffffffffffffffffffffffffffff1602179055508073ffffffffffffffffffffffffffffffffffffffff16600073ffffffffffffffffffffffffffffffffffffffff167f8be0079c531659141344cd1fd0a4f28419497f9722a3daafe3b4186f6b6457e060405160405180910390a350620002d96301ffc9a760e01b620003ed60201b60201c565b8160079080519060200190620002f1929190620004f6565b5080600890805190602001906200030a929190620004f6565b50620003236380ac58cd60e01b620003ed60201b60201c565b6200033b635b5e139f60e01b620003ed60201b60201c565b6200035363780e9d6360e01b620003ed60201b60201c565b505080600c60006101000a81548173ffffffffffffffffffffffffffffffffffffffff021916908373ffffffffffffffffffffffffffffffffffffffff160217905550620003ae6380ac58cd60e01b620003ed60201b60201c565b620003c6635b5e139f60e01b620003ed60201b60201c565b620003de63780e9d6360e01b620003ed60201b60201c565b506200063d565b600033905090565b63ffffffff60e01b817bffffffffffffffffffffffffffffffffffffffffffffffffffffffff191614156200048a576040517f08c379a000000000000000000000000000000000000000000000000000000000815260040180806020018281038252601c8152602001807f4552433136353a20696e76616c696420696e746572666163652069640000000081525060200191505060405180910390fd5b6001806000837bffffffffffffffffffffffffffffffffffffffffffffffffffffffff19167bffffffffffffffffffffffffffffffffffffffffffffffffffffffff1916815260200190815260200160002060006101000a81548160ff02191690831515021790555050565b828054600181600116156101000203166002900490600052602060002090601f0160209004810192826200052e57600085556200057a565b82601f106200054957805160ff19168380011785556200057a565b828001600101855582156200057a579182015b82811115620005795782518255916020019190600101906200055c565b5b5090506200058991906200058d565b5090565b5b80821115620005a85760008160009055506001016200058e565b5090565b600081519050620005bd8162000623565b92915050565b600060208284031215620005d657600080fd5b6000620005e684828501620005ac565b91505092915050565b6000620005fc8262000603565b9050919050565b600073ffffffffffffffffffffffffffffffffffffffff82169050919050565b6200062e81620005ef565b81146200063a57600080fd5b50565b614e67806200064d6000396000f3fe608060405234801561001057600080fd5b50600436106101fb5760003560e01c80636352211e1161011a57806395d89b41116100ad578063c87b56dd1161007c578063c87b56dd1461064a578063d1660f991461067a578063e985e9c514610696578063f2fde38b146106c6578063fcb217b5146106e2576101fb565b806395d89b41146105c45780639ae82406146105e2578063a22cb46514610612578063b88d4fde1461062e576101fb565b8063715018a6116100e9578063715018a61461053c578063751b02c21461054657806387d45d01146105765780638da5cb5b146105a6576101fb565b80636352211e1461048e5780636c0360eb146104be5780636c0e6754146104dc57806370a082311461050c576101fb565b806323b872dd1161019257806342842e0e1161016157806342842e0e146103e25780634f6ccce7146103fe57806355f804b31461042e578063600089431461045e576101fb565b806323b872dd146103485780632e1a7d4d146103645780632f745c591461039457806336464789146103c4576101fb565b8063095ea7b3116101ce578063095ea7b3146102ae578063150b7a02146102ca578063162094c4146102fa57806318160ddd1461032a576101fb565b806301ffc9a71461020057806306fdde031461023057806307e485481461024e578063081812fc1461027e575b600080fd5b61021a60048036038101906102159190614220565b610712565b60405161022791906147c1565b60405180910390f35b61023861077a565b604051610245919061481b565b60405180910390f35b610268600480360381019061026391906142cf565b61081c565b60405161027591906147c1565b60405180910390f35b610298600480360381019061029391906142cf565b610846565b6040516102a5919061477d565b60405180910390f35b6102c860048036038101906102c391906141e4565b6108e1565b005b6102e460048036038101906102df919061412d565b610a25565b6040516102f191906147dc565b60405180910390f35b610314600480360381019061030f91906142f8565b610a49565b60405161032191906147c1565b60405180910390f35b610332610b8e565b60405161033f919061493d565b60405180910390f35b610362600480360381019061035d91906140de565b610b9f565b005b61037e600480360381019061037991906142cf565b610c15565b60405161038b91906147c1565b60405180910390f35b6103ae60048036038101906103a991906141e4565b610ecc565b6040516103bb919061493d565b60405180910390f35b6103cc610f27565b6040516103d9919061477d565b60405180910390f35b6103fc60048036038101906103f791906140de565b610f51565b005b610418600480360381019061041391906142cf565b610f71565b604051610425919061493d565b60405180910390f35b61044860048036038101906104439190614249565b610f94565b60405161045591906147c1565b60405180910390f35b610478600480360381019061047391906142cf565b6110d5565b604051610485919061477d565b60405180910390f35b6104a860048036038101906104a391906142cf565b611108565b6040516104b5919061477d565b60405180910390f35b6104c661113f565b6040516104d3919061481b565b60405180910390f35b6104f660048036038101906104f191906141e4565b6111e1565b604051610503919061493d565b60405180910390f35b61052660048036038101906105219190614050565b611206565b604051610533919061493d565b60405180910390f35b6105446112db565b005b610560600480360381019061055b91906142cf565b611448565b60405161056d91906147c1565b60405180910390f35b610590600480360381019061058b91906142cf565b6115bb565b60405161059d91906147c1565b60405180910390f35b6105ae6117f9565b6040516105bb919061477d565b60405180910390f35b6105cc611822565b6040516105d9919061481b565b60405180910390f35b6105fc60048036038101906105f791906140de565b6118c4565b60405161060991906147c1565b60405180910390f35b61062c600480360381019061062791906141a8565b6118ec565b005b6106486004803603810190610643919061412d565b611aa2565b005b610664600480360381019061065f91906142cf565b611b1a565b604051610671919061481b565b60405180910390f35b610694600480360381019061068f91906140de565b611deb565b005b6106b060048036038101906106ab91906140a2565b611e0b565b6040516106bd91906147c1565b60405180910390f35b6106e060048036038101906106db9190614050565b611e9f565b005b6106fc60048036038101906106f791906142cf565b612091565b60405161070991906147c1565b60405180910390f35b600060016000837bffffffffffffffffffffffffffffffffffffffffffffffffffffffff19167bffffffffffffffffffffffffffffffffffffffffffffffffffffffff1916815260200190815260200160002060009054906101000a900460ff169050919050565b606060078054600181600116156101000203166002900480601f0160208091040260200160405190810160405280929190818152602001828054600181600116156101000203166002900480156108125780601f106107e757610100808354040283529160200191610812565b820191906000526020600020905b8154815290600101906020018083116107f557829003601f168201915b5050505050905090565b60006012600083815260200190815260200160002060009054906101000a900460ff169050919050565b60006108518261230a565b6108a6576040517f08c379a000000000000000000000000000000000000000000000000000000000815260040180806020018281038252602c815260200180614d30602c913960400191505060405180910390fd5b6005600083815260200190815260200160002060009054906101000a900473ffffffffffffffffffffffffffffffffffffffff169050919050565b60006108ec82611108565b90508073ffffffffffffffffffffffffffffffffffffffff168373ffffffffffffffffffffffffffffffffffffffff161415610973576040517f08c379a0000000000000000000000000000000000000000000000000000000008152600401808060200182810382526021815260200180614de06021913960400191505060405180910390fd5b8073ffffffffffffffffffffffffffffffffffffffff16610992612327565b73ffffffffffffffffffffffffffffffffffffffff1614806109c157506109c0816109bb612327565b611e0b565b5b610a16576040517f08c379a0000000000000000000000000000000000000000000000000000000008152600401808060200182810382526038815260200180614c836038913960400191505060405180910390fd5b610a20838361232f565b505050565b6000610a3763150b7a0260e01b6123e8565b63150b7a0260e01b9050949350505050565b6000610a53612327565b73ffffffffffffffffffffffffffffffffffffffff16610a716117f9565b73ffffffffffffffffffffffffffffffffffffffff1614610afa576040517f08c379a00000000000000000000000000000000000000000000000000000000081526004018080602001828103825260208152602001807f4f776e61626c653a2063616c6c6572206973206e6f7420746865206f776e657281525060200191505060405180910390fd5b610b488484848080601f016020809104026020016040519081016040528093929190818152602001838380828437600081840152601f19601f820116905080830192505050505050506124a0565b7fda84ca2183491f179a603e877b2cb058e42195041c2b9c53d746427e519a34df848484604051610b7b93929190614958565b60405180910390a1600190509392505050565b6000610b9a600361252a565b905090565b610bb0610baa612327565b8261253f565b610c05576040517f08c379a0000000000000000000000000000000000000000000000000000000008152600401808060200182810382526031815260200180614e016031913960400191505060405180910390fd5b610c10838383612633565b505050565b600081610c20612327565b73ffffffffffffffffffffffffffffffffffffffff16610c3f82611108565b73ffffffffffffffffffffffffffffffffffffffff1614610c95576040517f08c379a0000000000000000000000000000000000000000000000000000000008152600401610c8c906148dd565b60405180910390fd5b826012600082815260200190815260200160002060009054906101000a900460ff16610cf6576040517f08c379a0000000000000000000000000000000000000000000000000000000008152600401610ced9061483d565b60405180910390fd5b610d346040518060400160405280600481526020017f6865726500000000000000000000000000000000000000000000000000000000815250612876565b600073ffffffffffffffffffffffffffffffffffffffff16610d54612327565b73ffffffffffffffffffffffffffffffffffffffff161415610dab576040517f08c379a0000000000000000000000000000000000000000000000000000000008152600401610da2906148bd565b60405180910390fd5b610db484612974565b600c60009054906101000a900473ffffffffffffffffffffffffffffffffffffffff1673ffffffffffffffffffffffffffffffffffffffff1663a9059cbb610dfa612327565b866040518363ffffffff1660e01b8152600401610e18929190614798565b600060405180830381600087803b158015610e3257600080fd5b505af1158015610e46573d6000803e3d6000fd5b5050505060006012600086815260200190815260200160002060006101000a81548160ff02191690831515021790555083610e7f612327565b73ffffffffffffffffffffffffffffffffffffffff167f137405ae38c6e13c1dae5b6f5d4eb90010220c7c552dcaccc7b9c038c0177af860405160405180910390a3600192505050919050565b6000610f1f82600260008673ffffffffffffffffffffffffffffffffffffffff1673ffffffffffffffffffffffffffffffffffffffff168152602001908152602001600020612aae90919063ffffffff16565b905092915050565b6000600b60009054906101000a900473ffffffffffffffffffffffffffffffffffffffff16905090565b610f6c83838360405180602001604052806000815250611aa2565b505050565b600080610f88836003612ac890919063ffffffff16565b50905080915050919050565b6000610f9e612327565b73ffffffffffffffffffffffffffffffffffffffff16610fbc6117f9565b73ffffffffffffffffffffffffffffffffffffffff1614611045576040517f08c379a00000000000000000000000000000000000000000000000000000000081526004018080602001828103825260208152602001807f4f776e61626c653a2063616c6c6572206973206e6f7420746865206f776e657281525060200191505060405180910390fd5b61109283838080601f016020809104026020016040519081016040528093929190818152602001838380828437600081840152601f19601f82011690508083019250505050505050612af4565b7ff9c7803e94e0d3c02900d8a90893a6d5e90dd04d32a4cfe825520f82bf9f32f683836040516110c39291906147f7565b60405180910390a16001905092915050565b60116020528060005260406000206000915054906101000a900473ffffffffffffffffffffffffffffffffffffffff1681565b600061113882604051806060016040528060298152602001614ce5602991396003612b0e9092919063ffffffff16565b9050919050565b6060600a8054600181600116156101000203166002900480601f0160208091040260200160405190810160405280929190818152602001828054600181600116156101000203166002900480156111d75780601f106111ac576101008083540402835291602001916111d7565b820191906000526020600020905b8154815290600101906020018083116111ba57829003601f168201915b5050505050905090565b6010602052816000526040600020602052806000526040600020600091509150505481565b60008073ffffffffffffffffffffffffffffffffffffffff168273ffffffffffffffffffffffffffffffffffffffff16141561128d576040517f08c379a000000000000000000000000000000000000000000000000000000000815260040180806020018281038252602a815260200180614cbb602a913960400191505060405180910390fd5b6112d4600260008473ffffffffffffffffffffffffffffffffffffffff1673ffffffffffffffffffffffffffffffffffffffff168152602001908152602001600020612b2d565b9050919050565b6112e3612327565b73ffffffffffffffffffffffffffffffffffffffff166113016117f9565b73ffffffffffffffffffffffffffffffffffffffff161461138a576040517f08c379a00000000000000000000000000000000000000000000000000000000081526004018080602001828103825260208152602001807f4f776e61626c653a2063616c6c6572206973206e6f7420746865206f776e657281525060200191505060405180910390fd5b600073ffffffffffffffffffffffffffffffffffffffff1660008054906101000a900473ffffffffffffffffffffffffffffffffffffffff1673ffffffffffffffffffffffffffffffffffffffff167f8be0079c531659141344cd1fd0a4f28419497f9722a3daafe3b4186f6b6457e060405160405180910390a360008060006101000a81548173ffffffffffffffffffffffffffffffffffffffff021916908373ffffffffffffffffffffffffffffffffffffffff160217905550565b600061153d6040518060400160405280600681526020017f53656e646572000000000000000000000000000000000000000000000000000081525061148b612327565b6040518060400160405280601981526020017f2077686974656c697374656420747275652f66616c73653a20000000000000008152506114c9612327565b73ffffffffffffffffffffffffffffffffffffffff166011600088815260200190815260200160002060009054906101000a900473ffffffffffffffffffffffffffffffffffffffff1673ffffffffffffffffffffffffffffffffffffffff1614611535576000611538565b60015b612b42565b611545612327565b73ffffffffffffffffffffffffffffffffffffffff166011600084815260200190815260200160002060009054906101000a900473ffffffffffffffffffffffffffffffffffffffff1673ffffffffffffffffffffffffffffffffffffffff16146115b15760006115b4565b60015b9050919050565b6000816115c6612327565b73ffffffffffffffffffffffffffffffffffffffff166011600083815260200190815260200160002060009054906101000a900473ffffffffffffffffffffffffffffffffffffffff1673ffffffffffffffffffffffffffffffffffffffff1614611666576040517f08c379a000000000000000000000000000000000000000000000000000000000815260040161165d9061485d565b60405180910390fd5b61166f83612cd8565b6116ae576040517f08c379a00000000000000000000000000000000000000000000000000000000081526004016116a5906148fd565b60405180910390fd5b6116bf6116b9612327565b84612e54565b61177883600c60009054906101000a900473ffffffffffffffffffffffffffffffffffffffff1673ffffffffffffffffffffffffffffffffffffffff1663c87b56dd866040518263ffffffff1660e01b815260040161171e919061493d565b60006040518083038186803b15801561173657600080fd5b505afa15801561174a573d6000803e3d6000fd5b505050506040513d6000823e3d601f19601f82011682018060405250810190611773919061428e565b6124a0565b60016012600085815260200190815260200160002060006101000a81548160ff021916908315150217905550826117ad612327565b73ffffffffffffffffffffffffffffffffffffffff167f3c739b6a95f75f9e762038efa06f6758bbab40ef0b17f9f07cd3476eeac984e460405160405180910390a36001915050919050565b60008060009054906101000a900473ffffffffffffffffffffffffffffffffffffffff16905090565b606060088054600181600116156101000203166002900480601f0160208091040260200160405190810160405280929190818152602001828054600181600116156101000203166002900480156118ba5780601f1061188f576101008083540402835291602001916118ba565b820191906000526020600020905b81548152906001019060200180831161189d57829003601f168201915b5050505050905090565b60006118e184848460405180602001604052806000815250611aa2565b600190509392505050565b6118f4612327565b73ffffffffffffffffffffffffffffffffffffffff168273ffffffffffffffffffffffffffffffffffffffff161415611995576040517f08c379a00000000000000000000000000000000000000000000000000000000081526004018080602001828103825260198152602001807f4552433732313a20617070726f766520746f2063616c6c65720000000000000081525060200191505060405180910390fd5b80600660006119a2612327565b73ffffffffffffffffffffffffffffffffffffffff1673ffffffffffffffffffffffffffffffffffffffff16815260200190815260200160002060008473ffffffffffffffffffffffffffffffffffffffff1673ffffffffffffffffffffffffffffffffffffffff16815260200190815260200160002060006101000a81548160ff0219169083151502179055508173ffffffffffffffffffffffffffffffffffffffff16611a4f612327565b73ffffffffffffffffffffffffffffffffffffffff167f17307eab39ab6107e8899845ad3d59bd9653f200f220920489ca2b5937696c318360405180821515815260200191505060405180910390a35050565b611ab3611aad612327565b8361253f565b611b08576040517f08c379a0000000000000000000000000000000000000000000000000000000008152600401808060200182810382526031815260200180614e016031913960400191505060405180910390fd5b611b1484848484612e72565b50505050565b6060611b258261230a565b611b7a576040517f08c379a000000000000000000000000000000000000000000000000000000000815260040180806020018281038252602f815260200180614db1602f913960400191505060405180910390fd5b6000600960008481526020019081526020016000208054600181600116156101000203166002900480601f016020809104026020016040519081016040528092919081815260200182805460018160011615610100020316600290048015611c235780601f10611bf857610100808354040283529160200191611c23565b820191906000526020600020905b815481529060010190602001808311611c0657829003601f168201915b505050505090506000611c3461113f565b9050600081511415611c4a578192505050611de6565b600082511115611d1b5780826040516020018083805190602001908083835b60208310611c8c5780518252602082019150602081019050602083039250611c69565b6001836020036101000a03801982511681845116808217855250505050505090500182805190602001908083835b60208310611cdd5780518252602082019150602081019050602083039250611cba565b6001836020036101000a0380198251168184511680821785525050505050509050019250505060405160208183030381529060405292505050611de6565b80611d2585612ee4565b6040516020018083805190602001908083835b60208310611d5b5780518252602082019150602081019050602083039250611d38565b6001836020036101000a03801982511681845116808217855250505050505090500182805190602001908083835b60208310611dac5780518252602082019150602081019050602083039250611d89565b6001836020036101000a03801982511681845116808217855250505050505090500192505050604051602081830303815290604052925050505b919050565b611e0683838360405180602001604052806000815250611aa2565b505050565b6000600660008473ffffffffffffffffffffffffffffffffffffffff1673ffffffffffffffffffffffffffffffffffffffff16815260200190815260200160002060008373ffffffffffffffffffffffffffffffffffffffff1673ffffffffffffffffffffffffffffffffffffffff16815260200190815260200160002060009054906101000a900460ff16905092915050565b611ea7612327565b73ffffffffffffffffffffffffffffffffffffffff16611ec56117f9565b73ffffffffffffffffffffffffffffffffffffffff1614611f4e576040517f08c379a00000000000000000000000000000000000000000000000000000000081526004018080602001828103825260208152602001807f4f776e61626c653a2063616c6c6572206973206e6f7420746865206f776e657281525060200191505060405180910390fd5b600073ffffffffffffffffffffffffffffffffffffffff168173ffffffffffffffffffffffffffffffffffffffff161415611fd4576040517f08c379a0000000000000000000000000000000000000000000000000000000008152600401808060200182810382526026815260200180614be76026913960400191505060405180910390fd5b8073ffffffffffffffffffffffffffffffffffffffff1660008054906101000a900473ffffffffffffffffffffffffffffffffffffffff1673ffffffffffffffffffffffffffffffffffffffff167f8be0079c531659141344cd1fd0a4f28419497f9722a3daafe3b4186f6b6457e060405160405180910390a3806000806101000a81548173ffffffffffffffffffffffffffffffffffffffff021916908373ffffffffffffffffffffffffffffffffffffffff16021790555050565b60008161209c612327565b73ffffffffffffffffffffffffffffffffffffffff16600c60009054906101000a900473ffffffffffffffffffffffffffffffffffffffff1673ffffffffffffffffffffffffffffffffffffffff16636352211e836040518263ffffffff1660e01b815260040161210d919061493d565b60206040518083038186803b15801561212557600080fd5b505afa158015612139573d6000803e3d6000fd5b505050506040513d601f19601f8201168201806040525081019061215d9190614079565b73ffffffffffffffffffffffffffffffffffffffff16146121b3576040517f08c379a00000000000000000000000000000000000000000000000000000000081526004016121aa9061491d565b60405180910390fd5b6121bb612327565b73ffffffffffffffffffffffffffffffffffffffff166011600085815260200190815260200160002060009054906101000a900473ffffffffffffffffffffffffffffffffffffffff1673ffffffffffffffffffffffffffffffffffffffff16141561225c576040517f08c379a00000000000000000000000000000000000000000000000000000000081526004016122539061487d565b60405180910390fd5b612264612327565b6011600085815260200190815260200160002060006101000a81548173ffffffffffffffffffffffffffffffffffffffff021916908373ffffffffffffffffffffffffffffffffffffffff160217905550826122be612327565b73ffffffffffffffffffffffffffffffffffffffff167ff848bf1cacffecd6b9722baff28810b3649ee23fc48863217c908cc260405c8860405160405180910390a36001915050919050565b600061232082600361302b90919063ffffffff16565b9050919050565b600033905090565b816005600083815260200190815260200160002060006101000a81548173ffffffffffffffffffffffffffffffffffffffff021916908373ffffffffffffffffffffffffffffffffffffffff160217905550808273ffffffffffffffffffffffffffffffffffffffff166123a283611108565b73ffffffffffffffffffffffffffffffffffffffff167f8c5be1e5ebec7d5bd14f71427d1e84f3dd0314c0f7b2291e5b200ac8c7c3b92560405160405180910390a45050565b61249d8160405160240180827bffffffffffffffffffffffffffffffffffffffffffffffffffffffff191681526020019150506040516020818303038152906040527fe05f48d1000000000000000000000000000000000000000000000000000000007bffffffffffffffffffffffffffffffffffffffffffffffffffffffff19166020820180517bffffffffffffffffffffffffffffffffffffffffffffffffffffffff8381831617835250505050613045565b50565b6124a98261230a565b6124fe576040517f08c379a000000000000000000000000000000000000000000000000000000000815260040180806020018281038252602c815260200180614d5c602c913960400191505060405180910390fd5b80600960008481526020019081526020016000209080519060200190612525929190613dda565b505050565b60006125388260000161306e565b9050919050565b600061254a8261230a565b61259f576040517f08c379a000000000000000000000000000000000000000000000000000000000815260040180806020018281038252602c815260200180614c57602c913960400191505060405180910390fd5b60006125aa83611108565b90508073ffffffffffffffffffffffffffffffffffffffff168473ffffffffffffffffffffffffffffffffffffffff16148061261957508373ffffffffffffffffffffffffffffffffffffffff1661260184610846565b73ffffffffffffffffffffffffffffffffffffffff16145b8061262a57506126298185611e0b565b5b91505092915050565b8273ffffffffffffffffffffffffffffffffffffffff1661265382611108565b73ffffffffffffffffffffffffffffffffffffffff16146126bf576040517f08c379a0000000000000000000000000000000000000000000000000000000008152600401808060200182810382526029815260200180614d886029913960400191505060405180910390fd5b600073ffffffffffffffffffffffffffffffffffffffff168273ffffffffffffffffffffffffffffffffffffffff161415612745576040517f08c379a0000000000000000000000000000000000000000000000000000000008152600401808060200182810382526024815260200180614c0d6024913960400191505060405180910390fd5b61275083838361307f565b61275b60008261232f565b6127ac81600260008673ffffffffffffffffffffffffffffffffffffffff1673ffffffffffffffffffffffffffffffffffffffff16815260200190815260200160002061308490919063ffffffff16565b506127fe81600260008573ffffffffffffffffffffffffffffffffffffffff1673ffffffffffffffffffffffffffffffffffffffff16815260200190815260200160002061309e90919063ffffffff16565b50612815818360036130b89092919063ffffffff16565b50808273ffffffffffffffffffffffffffffffffffffffff168473ffffffffffffffffffffffffffffffffffffffff167fddf252ad1be2c89b69c2b068fc378daa952ba7f163c4a11628f55a4df523b3ef60405160405180910390a4505050565b612971816040516024018080602001828103825283818151815260200191508051906020019080838360005b838110156128bd5780820151818401526020810190506128a2565b50505050905090810190601f1680156128ea5780820380516001836020036101000a031916815260200191505b50925050506040516020818303038152906040527f41304fac000000000000000000000000000000000000000000000000000000007bffffffffffffffffffffffffffffffffffffffffffffffffffffffff19166020820180517bffffffffffffffffffffffffffffffffffffffffffffffffffffffff8381831617835250505050613045565b50565b600061297f82611108565b905061298d8160008461307f565b61299860008361232f565b600060096000848152602001908152602001600020805460018160011615610100020316600290049050146129e7576009600083815260200190815260200160002060006129e69190613e68565b5b612a3882600260008473ffffffffffffffffffffffffffffffffffffffff1673ffffffffffffffffffffffffffffffffffffffff16815260200190815260200160002061308490919063ffffffff16565b50612a4d8260036130ed90919063ffffffff16565b5081600073ffffffffffffffffffffffffffffffffffffffff168273ffffffffffffffffffffffffffffffffffffffff167fddf252ad1be2c89b69c2b068fc378daa952ba7f163c4a11628f55a4df523b3ef60405160405180910390a45050565b6000612abd8360000183613107565b60001c905092915050565b600080600080612adb866000018661318a565b915091508160001c8160001c9350935050509250929050565b80600a9080519060200190612b0a929190613dda565b5050565b6000612b21846000018460001b84613223565b60001c90509392505050565b6000612b3b82600001613319565b9050919050565b612cd28484848460405160240180806020018573ffffffffffffffffffffffffffffffffffffffff168152602001806020018415158152602001838103835287818151815260200191508051906020019080838360005b83811015612bb4578082015181840152602081019050612b99565b50505050905090810190601f168015612be15780820380516001836020036101000a031916815260200191505b50838103825285818151815260200191508051906020019080838360005b83811015612c1a578082015181840152602081019050612bff565b50505050905090810190601f168015612c475780820380516001836020036101000a031916815260200191505b5096505050505050506040516020818303038152906040527f5f15d28c000000000000000000000000000000000000000000000000000000007bffffffffffffffffffffffffffffffffffffffffffffffffffffffff19166020820180517bffffffffffffffffffffffffffffffffffffffffffffffffffffffff8381831617835250505050613045565b50505050565b60003073ffffffffffffffffffffffffffffffffffffffff16600c60009054906101000a900473ffffffffffffffffffffffffffffffffffffffff1673ffffffffffffffffffffffffffffffffffffffff16636352211e846040518263ffffffff1660e01b8152600401612d4c919061493d565b60206040518083038186803b158015612d6457600080fd5b505afa158015612d78573d6000803e3d6000fd5b505050506040513d601f19601f82011682018060405250810190612d9c9190614079565b73ffffffffffffffffffffffffffffffffffffffff1614612df2576040517f08c379a0000000000000000000000000000000000000000000000000000000008152600401612de99061489d565b60405180910390fd5b60016012600084815260200190815260200160002060006101000a81548160ff021916908315150217905550817fdcaec8df21007fb0cc76407b9c2be183d4cc30cfc0d5bc22a533e61b0279577160405160405180910390a260019050919050565b612e6e82826040518060200160405280600081525061332a565b5050565b612e7d848484612633565b612e898484848461339b565b612ede576040517f08c379a0000000000000000000000000000000000000000000000000000000008152600401808060200182810382526032815260200180614bb56032913960400191505060405180910390fd5b50505050565b60606000821415612f2c576040518060400160405280600181526020017f30000000000000000000000000000000000000000000000000000000000000008152509050613026565b600082905060005b60008214612f56578080600101915050600a8281612f4e57fe5b049150612f34565b60008167ffffffffffffffff81118015612f6f57600080fd5b506040519080825280601f01601f191660200182016040528015612fa25781602001600182028036833780820191505090505b50905060006001830390508593505b6000841461301e57600a8481612fc357fe5b0660300160f81b82828060019003935081518110612fdd57fe5b60200101907effffffffffffffffffffffffffffffffffffffffffffffffffffffffffffff1916908160001a905350600a848161301657fe5b049350612fb1565b819450505050505b919050565b600061303d836000018360001b6135b4565b905092915050565b60008151905060006a636f6e736f6c652e6c6f679050602083016000808483855afa5050505050565b600081600001805490509050919050565b505050565b6000613096836000018360001b6135d7565b905092915050565b60006130b0836000018360001b6136bf565b905092915050565b60006130e4846000018460001b8473ffffffffffffffffffffffffffffffffffffffff1660001b61372f565b90509392505050565b60006130ff836000018360001b61380b565b905092915050565b600081836000018054905011613168576040517f08c379a0000000000000000000000000000000000000000000000000000000008152600401808060200182810382526022815260200180614b936022913960400191505060405180910390fd5b82600001828154811061317757fe5b9060005260206000200154905092915050565b600080828460000180549050116131ec576040517f08c379a0000000000000000000000000000000000000000000000000000000008152600401808060200182810382526022815260200180614d0e6022913960400191505060405180910390fd5b60008460000184815481106131fd57fe5b906000526020600020906002020190508060000154816001015492509250509250929050565b600080846001016000858152602001908152602001600020549050600081141583906132ea576040517f08c379a00000000000000000000000000000000000000000000000000000000081526004018080602001828103825283818151815260200191508051906020019080838360005b838110156132af578082015181840152602081019050613294565b50505050905090810190601f1680156132dc5780820380516001836020036101000a031916815260200191505b509250505060405180910390fd5b508460000160018203815481106132fd57fe5b9060005260206000209060020201600101549150509392505050565b600081600001805490509050919050565b6133348383613924565b613341600084848461339b565b613396576040517f08c379a0000000000000000000000000000000000000000000000000000000008152600401808060200182810382526032815260200180614bb56032913960400191505060405180910390fd5b505050565b60006133bc8473ffffffffffffffffffffffffffffffffffffffff16613b18565b6133c957600190506135ac565b600061353363150b7a0260e01b6133de612327565b888787604051602401808573ffffffffffffffffffffffffffffffffffffffff1681526020018473ffffffffffffffffffffffffffffffffffffffff16815260200183815260200180602001828103825283818151815260200191508051906020019080838360005b83811015613462578082015181840152602081019050613447565b50505050905090810190601f16801561348f5780820380516001836020036101000a031916815260200191505b5095505050505050604051602081830303815290604052907bffffffffffffffffffffffffffffffffffffffffffffffffffffffff19166020820180517bffffffffffffffffffffffffffffffffffffffffffffffffffffffff8381831617835250505050604051806060016040528060328152602001614bb5603291398773ffffffffffffffffffffffffffffffffffffffff16613b2b9092919063ffffffff16565b9050600081806020019051602081101561354c57600080fd5b8101908080519060200190929190505050905063150b7a0260e01b7bffffffffffffffffffffffffffffffffffffffffffffffffffffffff1916817bffffffffffffffffffffffffffffffffffffffffffffffffffffffff191614925050505b949350505050565b600080836001016000848152602001908152602001600020541415905092915050565b600080836001016000848152602001908152602001600020549050600081146136b3576000600182039050600060018660000180549050039050600086600001828154811061362257fe5b906000526020600020015490508087600001848154811061363f57fe5b906000526020600020018190555060018301876001016000838152602001908152602001600020819055508660000180548061367757fe5b600190038181906000526020600020016000905590558660010160008781526020019081526020016000206000905560019450505050506136b9565b60009150505b92915050565b60006136cb8383613b43565b613724578260000182908060018154018082558091505060019003906000526020600020016000909190919091505582600001805490508360010160008481526020019081526020016000208190555060019050613729565b600090505b92915050565b60008084600101600085815260200190815260200160002054905060008114156137d657846000016040518060400160405280868152602001858152509080600181540180825580915050600190039060005260206000209060020201600090919091909150600082015181600001556020820151816001015550508460000180549050856001016000868152602001908152602001600020819055506001915050613804565b828560000160018303815481106137e957fe5b90600052602060002090600202016001018190555060009150505b9392505050565b60008083600101600084815260200190815260200160002054905060008114613918576000600182039050600060018660000180549050039050600086600001828154811061385657fe5b906000526020600020906002020190508087600001848154811061387657fe5b90600052602060002090600202016000820154816000015560018201548160010155905050600183018760010160008360000154815260200190815260200160002081905550866000018054806138c957fe5b600190038181906000526020600020906002020160008082016000905560018201600090555050905586600101600087815260200190815260200160002060009055600194505050505061391e565b60009150505b92915050565b600073ffffffffffffffffffffffffffffffffffffffff168273ffffffffffffffffffffffffffffffffffffffff1614156139c7576040517f08c379a00000000000000000000000000000000000000000000000000000000081526004018080602001828103825260208152602001807f4552433732313a206d696e7420746f20746865207a65726f206164647265737381525060200191505060405180910390fd5b6139d08161230a565b15613a43576040517f08c379a000000000000000000000000000000000000000000000000000000000815260040180806020018281038252601c8152602001807f4552433732313a20746f6b656e20616c7265616479206d696e7465640000000081525060200191505060405180910390fd5b613a4f6000838361307f565b613aa081600260008573ffffffffffffffffffffffffffffffffffffffff1673ffffffffffffffffffffffffffffffffffffffff16815260200190815260200160002061309e90919063ffffffff16565b50613ab7818360036130b89092919063ffffffff16565b50808273ffffffffffffffffffffffffffffffffffffffff16600073ffffffffffffffffffffffffffffffffffffffff167fddf252ad1be2c89b69c2b068fc378daa952ba7f163c4a11628f55a4df523b3ef60405160405180910390a45050565b600080823b905060008111915050919050565b6060613b3a8484600085613b66565b90509392505050565b600080836001016000848152602001908152602001600020541415905092915050565b606082471015613bc1576040517f08c379a0000000000000000000000000000000000000000000000000000000008152600401808060200182810382526026815260200180614c316026913960400191505060405180910390fd5b613bca85613b18565b613c3c576040517f08c379a000000000000000000000000000000000000000000000000000000000815260040180806020018281038252601d8152602001807f416464726573733a2063616c6c20746f206e6f6e2d636f6e747261637400000081525060200191505060405180910390fd5b6000808673ffffffffffffffffffffffffffffffffffffffff1685876040518082805190602001908083835b60208310613c8b5780518252602082019150602081019050602083039250613c68565b6001836020036101000a03801982511681845116808217855250505050505090500191505060006040518083038185875af1925050503d8060008114613ced576040519150601f19603f3d011682016040523d82523d6000602084013e613cf2565b606091505b5091509150613d02828286613d0e565b92505050949350505050565b60608315613d1e57829050613dd3565b600083511115613d315782518084602001fd5b816040517f08c379a00000000000000000000000000000000000000000000000000000000081526004018080602001828103825283818151815260200191508051906020019080838360005b83811015613d98578082015181840152602081019050613d7d565b50505050905090810190601f168015613dc55780820380516001836020036101000a031916815260200191505b509250505060405180910390fd5b9392505050565b828054600181600116156101000203166002900490600052602060002090601f016020900481019282613e105760008555613e57565b82601f10613e2957805160ff1916838001178555613e57565b82800160010185558215613e57579182015b82811115613e56578251825591602001919060010190613e3b565b5b509050613e649190613eb0565b5090565b50805460018160011615610100020316600290046000825580601f10613e8e5750613ead565b601f016020900490600052602060002090810190613eac9190613eb0565b5b50565b5b80821115613ec9576000816000905550600101613eb1565b5090565b6000613ee0613edb846149bb565b61498a565b905082815260208101848484011115613ef857600080fd5b613f03848285614ae1565b509392505050565b6000613f1e613f19846149eb565b61498a565b905082815260208101848484011115613f3657600080fd5b613f41848285614af0565b509392505050565b600081359050613f5881614b36565b92915050565b600081519050613f6d81614b36565b92915050565b600081359050613f8281614b4d565b92915050565b600081359050613f9781614b64565b92915050565b600082601f830112613fae57600080fd5b8135613fbe848260208601613ecd565b91505092915050565b60008083601f840112613fd957600080fd5b8235905067ffffffffffffffff811115613ff257600080fd5b60208301915083600182028301111561400a57600080fd5b9250929050565b600082601f83011261402257600080fd5b8151614032848260208601613f0b565b91505092915050565b60008135905061404a81614b7b565b92915050565b60006020828403121561406257600080fd5b600061407084828501613f49565b91505092915050565b60006020828403121561408b57600080fd5b600061409984828501613f5e565b91505092915050565b600080604083850312156140b557600080fd5b60006140c385828601613f49565b92505060206140d485828601613f49565b9150509250929050565b6000806000606084860312156140f357600080fd5b600061410186828701613f49565b935050602061411286828701613f49565b92505060406141238682870161403b565b9150509250925092565b6000806000806080858703121561414357600080fd5b600061415187828801613f49565b945050602061416287828801613f49565b93505060406141738782880161403b565b925050606085013567ffffffffffffffff81111561419057600080fd5b61419c87828801613f9d565b91505092959194509250565b600080604083850312156141bb57600080fd5b60006141c985828601613f49565b92505060206141da85828601613f73565b9150509250929050565b600080604083850312156141f757600080fd5b600061420585828601613f49565b92505060206142168582860161403b565b9150509250929050565b60006020828403121561423257600080fd5b600061424084828501613f88565b91505092915050565b6000806020838503121561425c57600080fd5b600083013567ffffffffffffffff81111561427657600080fd5b61428285828601613fc7565b92509250509250929050565b6000602082840312156142a057600080fd5b600082015167ffffffffffffffff8111156142ba57600080fd5b6142c684828501614011565b91505092915050565b6000602082840312156142e157600080fd5b60006142ef8482850161403b565b91505092915050565b60008060006040848603121561430d57600080fd5b600061431b8682870161403b565b935050602084013567ffffffffffffffff81111561433857600080fd5b61434486828701613fc7565b92509250509250925092565b61435981614aab565b82525050565b61436881614a37565b82525050565b61437781614a49565b82525050565b61438681614a55565b82525050565b60006143988385614a26565b93506143a5838584614ae1565b6143ae83614b25565b840190509392505050565b60006143c482614a1b565b6143ce8185614a26565b93506143de818560208601614af0565b6143e781614b25565b840191505092915050565b60006143ff603883614a26565b91507f537570655261726556323a205468652076313a763220746f6b656e207065672060008301527f6861736e2774206265656e2065737461626c69736865642100000000000000006020830152604082019050919050565b6000614465604483614a26565b91507f537570655261726556323a2053656e6465722069736e27742077686974656c6960008301527f73746564206f7220617070726f76656420666f722074686973206f706572617460208301527f696f6e21000000000000000000000000000000000000000000000000000000006040830152606082019050919050565b60006144f1602883614a26565b91507f537570655261726556323a204163636f756e7420616c7265616479207768697460008301527f656c6973746564210000000000000000000000000000000000000000000000006020830152604082019050919050565b6000614557602783614a26565b91507f537570655261726556323a20556e61626c6520746f207065672074686520563160008301527f20746f6b656e21000000000000000000000000000000000000000000000000006020830152604082019050919050565b60006145bd602683614a26565b91507f537570655261726556323a20496e76616c696420726563697069656e7420616460008301527f64726573732100000000000000000000000000000000000000000000000000006020830152604082019050919050565b6000614623603383614a26565b91507f537570655261726556323a2053656e6465722069736e277420746865206f776e60008301527f6572206f662074686520563220746f6b656e21000000000000000000000000006020830152604082019050919050565b6000614689605d83614a26565b91507f537570655261726556323a2047657420616464656420746f2077686974656c6960008301527f73742c207472616e736665722074686520563120746f6b656e20746f2074686960208301527f7320636f6e74726163742c207468656e2063616c6c206d696e745632210000006040830152606082019050919050565b6000614715603383614a26565b91507f537570655261726556323a2053656e6465722069736e277420746865206f776e60008301527f6572206f662074686520563120546f6b656e21000000000000000000000000006020830152604082019050919050565b61477781614aa1565b82525050565b6000602082019050614792600083018461435f565b92915050565b60006040820190506147ad6000830185614350565b6147ba602083018461476e565b9392505050565b60006020820190506147d6600083018461436e565b92915050565b60006020820190506147f1600083018461437d565b92915050565b6000602082019050818103600083015261481281848661438c565b90509392505050565b6000602082019050818103600083015261483581846143b9565b905092915050565b60006020820190508181036000830152614856816143f2565b9050919050565b6000602082019050818103600083015261487681614458565b9050919050565b60006020820190508181036000830152614896816144e4565b9050919050565b600060208201905081810360008301526148b68161454a565b9050919050565b600060208201905081810360008301526148d6816145b0565b9050919050565b600060208201905081810360008301526148f681614616565b9050919050565b600060208201905081810360008301526149168161467c565b9050919050565b6000602082019050818103600083015261493681614708565b9050919050565b6000602082019050614952600083018461476e565b92915050565b600060408201905061496d600083018661476e565b818103602083015261498081848661438c565b9050949350505050565b6000604051905081810181811067ffffffffffffffff821117156149b1576149b0614b23565b5b8060405250919050565b600067ffffffffffffffff8211156149d6576149d5614b23565b5b601f19601f8301169050602081019050919050565b600067ffffffffffffffff821115614a0657614a05614b23565b5b601f19601f8301169050602081019050919050565b600081519050919050565b600082825260208201905092915050565b6000614a4282614a81565b9050919050565b60008115159050919050565b60007fffffffff0000000000000000000000000000000000000000000000000000000082169050919050565b600073ffffffffffffffffffffffffffffffffffffffff82169050919050565b6000819050919050565b6000614ab682614abd565b9050919050565b6000614ac882614acf565b9050919050565b6000614ada82614a81565b9050919050565b82818337600083830152505050565b60005b83811015614b0e578082015181840152602081019050614af3565b83811115614b1d576000848401525b50505050565bfe5b6000601f19601f8301169050919050565b614b3f81614a37565b8114614b4a57600080fd5b50565b614b5681614a49565b8114614b6157600080fd5b50565b614b6d81614a55565b8114614b7857600080fd5b50565b614b8481614aa1565b8114614b8f57600080fd5b5056fe456e756d657261626c655365743a20696e646578206f7574206f6620626f756e64734552433732313a207472616e7366657220746f206e6f6e20455243373231526563656976657220696d706c656d656e7465724f776e61626c653a206e6577206f776e657220697320746865207a65726f20616464726573734552433732313a207472616e7366657220746f20746865207a65726f2061646472657373416464726573733a20696e73756666696369656e742062616c616e636520666f722063616c6c4552433732313a206f70657261746f7220717565727920666f72206e6f6e6578697374656e7420746f6b656e4552433732313a20617070726f76652063616c6c6572206973206e6f74206f776e6572206e6f7220617070726f76656420666f7220616c6c4552433732313a2062616c616e636520717565727920666f7220746865207a65726f20616464726573734552433732313a206f776e657220717565727920666f72206e6f6e6578697374656e7420746f6b656e456e756d657261626c654d61703a20696e646578206f7574206f6620626f756e64734552433732313a20617070726f76656420717565727920666f72206e6f6e6578697374656e7420746f6b656e4552433732314d657461646174613a2055524920736574206f66206e6f6e6578697374656e7420746f6b656e4552433732313a207472616e73666572206f6620746f6b656e2074686174206973206e6f74206f776e4552433732314d657461646174613a2055524920717565727920666f72206e6f6e6578697374656e7420746f6b656e4552433732313a20617070726f76616c20746f2063757272656e74206f776e65724552433732313a207472616e736665722063616c6c6572206973206e6f74206f776e6572206e6f7220617070726f766564a2646970667358221220dad1f83334dd50eaacc14530e26b4fbff761949aa304da19dfd6ae089f49bac664736f6c63430007060033",
  "linkReferences": {},
  "deployedLinkReferences": {}
}