{
  "_format": "hh-sol-artifact-1",
  "contractName": "SupeRareV2",
  "sourceName": "contracts/SupeRareV2.sol",
  "abi": [
    {
      "inputs": [
        {
          "internalType": "address",
          "name": "OriginalSupeRareAddr__",
          "type": "address"
        }
      ],
      "stateMutability": "nonpayable",
      "type": "constructor"
    },
    {
      "anonymous": false,
      "inputs": [
        {
          "indexed": true,
          "internalType": "address",
          "name": "owner",
          "type": "address"
        },
        {
          "indexed": true,
          "internalType": "address",
          "name": "approved",
          "type": "address"
        },
        {
          "indexed": true,
          "internalType": "uint256",
          "name": "tokenId",
          "type": "uint256"
        }
      ],
      "name": "Approval",
      "type": "event"
    },
    {
      "anonymous": false,
      "inputs": [
        {
          "indexed": true,
          "internalType": "address",
          "name": "owner",
          "type": "address"
        },
        {
          "indexed": true,
          "internalType": "address",
          "name": "operator",
          "type": "address"
        },
        {
          "indexed": false,
          "internalType": "bool",
          "name": "approved",
          "type": "bool"
        }
      ],
      "name": "ApprovalForAll",
      "type": "event"
    },
    {
      "anonymous": false,
      "inputs": [
        {
          "indexed": false,
          "internalType": "string",
          "name": "_baseURI",
          "type": "string"
        }
      ],
      "name": "BaseURISet",
      "type": "event"
    },
    {
      "anonymous": false,
      "inputs": [
        {
          "indexed": true,
          "internalType": "address",
          "name": "v1owner",
          "type": "address"
        },
        {
          "indexed": true,
          "internalType": "uint256",
          "name": "v2tokenId",
          "type": "uint256"
        }
      ],
      "name": "MintV2",
      "type": "event"
    },
    {
      "anonymous": false,
      "inputs": [
        {
          "indexed": true,
          "internalType": "address",
          "name": "v1owner",
          "type": "address"
        },
        {
          "indexed": true,
          "internalType": "uint256",
          "name": "v1tokenId",
          "type": "uint256"
        }
      ],
      "name": "OwnerWhitelisted",
      "type": "event"
    },
    {
      "anonymous": false,
      "inputs": [
        {
          "indexed": true,
          "internalType": "address",
          "name": "previousOwner",
          "type": "address"
        },
        {
          "indexed": true,
          "internalType": "address",
          "name": "newOwner",
          "type": "address"
        }
      ],
      "name": "OwnershipTransferred",
      "type": "event"
    },
    {
      "anonymous": false,
      "inputs": [
        {
          "indexed": true,
          "internalType": "uint256",
          "name": "v1tokenId",
          "type": "uint256"
        }
      ],
      "name": "Pegged",
      "type": "event"
    },
    {
      "anonymous": false,
      "inputs": [
        {
          "indexed": false,
          "internalType": "uint256",
          "name": "_tokenId",
          "type": "uint256"
        },
        {
          "indexed": false,
          "internalType": "string",
          "name": "_tokenURI",
          "type": "string"
        }
      ],
      "name": "TokenURISet",
      "type": "event"
    },
    {
      "anonymous": false,
      "inputs": [
        {
          "indexed": true,
          "internalType": "address",
          "name": "from",
          "type": "address"
        },
        {
          "indexed": true,
          "internalType": "address",
          "name": "to",
          "type": "address"
        },
        {
          "indexed": true,
          "internalType": "uint256",
          "name": "tokenId",
          "type": "uint256"
        }
      ],
      "name": "Transfer",
      "type": "event"
    },
    {
      "anonymous": false,
      "inputs": [
        {
          "indexed": true,
          "internalType": "address",
          "name": "v2owner",
          "type": "address"
        },
        {
          "indexed": true,
          "internalType": "uint256",
          "name": "v2tokenId",
          "type": "uint256"
        }
      ],
      "name": "WithdrawV1",
      "type": "event"
    },
    {
      "inputs": [
        {
          "internalType": "address",
          "name": "to",
          "type": "address"
        },
        {
          "internalType": "uint256",
          "name": "tokenId",
          "type": "uint256"
        }
      ],
      "name": "approve",
      "outputs": [],
      "stateMutability": "nonpayable",
      "type": "function"
    },
    {
      "inputs": [
        {
          "internalType": "address",
          "name": "owner",
          "type": "address"
        }
      ],
      "name": "balanceOf",
      "outputs": [
        {
          "internalType": "uint256",
          "name": "",
          "type": "uint256"
        }
      ],
      "stateMutability": "view",
      "type": "function"
    },
    {
      "inputs": [],
      "name": "baseURI",
      "outputs": [
        {
          "internalType": "string",
          "name": "",
          "type": "string"
        }
      ],
      "stateMutability": "view",
      "type": "function"
    },
    {
      "inputs": [
        {
          "internalType": "uint256",
          "name": "_v1TokenId",
          "type": "uint256"
        }
      ],
      "name": "getAddedToWhitelist",
      "outputs": [
        {
          "internalType": "bool",
          "name": "",
          "type": "bool"
        }
      ],
      "stateMutability": "nonpayable",
      "type": "function"
    },
    {
      "inputs": [
        {
          "internalType": "uint256",
          "name": "tokenId",
          "type": "uint256"
        }
      ],
      "name": "getApproved",
      "outputs": [
        {
          "internalType": "address",
          "name": "",
          "type": "address"
        }
      ],
      "stateMutability": "view",
      "type": "function"
    },
    {
      "inputs": [],
      "name": "getSupeRareAddress",
      "outputs": [
        {
          "internalType": "address",
          "name": "",
          "type": "address"
        }
      ],
      "stateMutability": "view",
      "type": "function"
    },
    {
      "inputs": [
        {
          "internalType": "address",
          "name": "owner",
          "type": "address"
        },
        {
          "internalType": "address",
          "name": "operator",
          "type": "address"
        }
      ],
      "name": "isApprovedForAll",
      "outputs": [
        {
          "internalType": "bool",
          "name": "",
          "type": "bool"
        }
      ],
      "stateMutability": "view",
      "type": "function"
    },
    {
      "inputs": [
        {
          "internalType": "uint256",
          "name": "_tokenId",
          "type": "uint256"
        }
      ],
      "name": "isPeggedToV1",
      "outputs": [
        {
          "internalType": "bool",
          "name": "",
          "type": "bool"
        }
      ],
      "stateMutability": "view",
      "type": "function"
    },
    {
      "inputs": [
        {
          "internalType": "uint256",
          "name": "_tokenId",
          "type": "uint256"
        }
      ],
      "name": "mintV2",
      "outputs": [
        {
          "internalType": "bool",
          "name": "",
          "type": "bool"
        }
      ],
      "stateMutability": "nonpayable",
      "type": "function"
    },
    {
      "inputs": [],
      "name": "name",
      "outputs": [
        {
          "internalType": "string",
          "name": "",
          "type": "string"
        }
      ],
      "stateMutability": "view",
      "type": "function"
    },
    {
      "inputs": [
        {
          "internalType": "address",
          "name": "",
          "type": "address"
        },
        {
          "internalType": "address",
          "name": "",
          "type": "address"
        },
        {
          "internalType": "uint256",
          "name": "",
          "type": "uint256"
        },
        {
          "internalType": "bytes",
          "name": "",
          "type": "bytes"
        }
      ],
      "name": "onERC721Received",
      "outputs": [
        {
          "internalType": "bytes4",
          "name": "",
          "type": "bytes4"
        }
      ],
      "stateMutability": "view",
      "type": "function"
    },
    {
      "inputs": [],
      "name": "owner",
      "outputs": [
        {
          "internalType": "address",
          "name": "",
          "type": "address"
        }
      ],
      "stateMutability": "view",
      "type": "function"
    },
    {
      "inputs": [
        {
          "internalType": "address",
          "name": "",
          "type": "address"
        },
        {
          "internalType": "uint256",
          "name": "",
          "type": "uint256"
        }
      ],
      "name": "ownerAddrToV1toV2TokenId",
      "outputs": [
        {
          "internalType": "uint256",
          "name": "",
          "type": "uint256"
        }
      ],
      "stateMutability": "view",
      "type": "function"
    },
    {
      "inputs": [
        {
          "internalType": "uint256",
          "name": "tokenId",
          "type": "uint256"
        }
      ],
      "name": "ownerOf",
      "outputs": [
        {
          "internalType": "address",
          "name": "",
          "type": "address"
        }
      ],
      "stateMutability": "view",
      "type": "function"
    },
    {
      "inputs": [
        {
          "internalType": "uint256",
          "name": "",
          "type": "uint256"
        }
      ],
      "name": "ownerWhiteList",
      "outputs": [
        {
          "internalType": "address",
          "name": "",
          "type": "address"
        }
      ],
      "stateMutability": "view",
      "type": "function"
    },
    {
      "inputs": [],
      "name": "renounceOwnership",
      "outputs": [],
      "stateMutability": "nonpayable",
      "type": "function"
    },
    {
      "inputs": [
        {
          "internalType": "address",
          "name": "from",
          "type": "address"
        },
        {
          "internalType": "address",
          "name": "to",
          "type": "address"
        },
        {
          "internalType": "uint256",
          "name": "tokenId",
          "type": "uint256"
        }
      ],
      "name": "safeTransferFrom",
      "outputs": [],
      "stateMutability": "nonpayable",
      "type": "function"
    },
    {
      "inputs": [
        {
          "internalType": "address",
          "name": "from",
          "type": "address"
        },
        {
          "internalType": "address",
          "name": "to",
          "type": "address"
        },
        {
          "internalType": "uint256",
          "name": "tokenId",
          "type": "uint256"
        },
        {
          "internalType": "bytes",
          "name": "_data",
          "type": "bytes"
        }
      ],
      "name": "safeTransferFrom",
      "outputs": [],
      "stateMutability": "nonpayable",
      "type": "function"
    },
    {
      "inputs": [
        {
          "internalType": "address",
          "name": "operator",
          "type": "address"
        },
        {
          "internalType": "bool",
          "name": "approved",
          "type": "bool"
        }
      ],
      "name": "setApprovalForAll",
      "outputs": [],
      "stateMutability": "nonpayable",
      "type": "function"
    },
    {
      "inputs": [
        {
          "internalType": "string",
          "name": "baseURI",
          "type": "string"
        }
      ],
      "name": "setBaseURI",
      "outputs": [
        {
          "internalType": "bool",
          "name": "",
          "type": "bool"
        }
      ],
      "stateMutability": "nonpayable",
      "type": "function"
    },
    {
      "inputs": [
        {
          "internalType": "uint256",
          "name": "_tokenId",
          "type": "uint256"
        }
      ],
      "name": "setPeg",
      "outputs": [
        {
          "internalType": "bool",
          "name": "",
          "type": "bool"
        }
      ],
      "stateMutability": "nonpayable",
      "type": "function"
    },
    {
      "inputs": [
        {
          "internalType": "uint256",
          "name": "_tokenId",
          "type": "uint256"
        },
        {
          "internalType": "string",
          "name": "_tokenURI",
          "type": "string"
        }
      ],
      "name": "setTokenURI",
      "outputs": [
        {
          "internalType": "bool",
          "name": "",
          "type": "bool"
        }
      ],
      "stateMutability": "nonpayable",
      "type": "function"
    },
    {
      "inputs": [
        {
          "internalType": "bytes4",
          "name": "interfaceId",
          "type": "bytes4"
        }
      ],
      "name": "supportsInterface",
      "outputs": [
        {
          "internalType": "bool",
          "name": "",
          "type": "bool"
        }
      ],
      "stateMutability": "view",
      "type": "function"
    },
    {
      "inputs": [],
      "name": "symbol",
      "outputs": [
        {
          "internalType": "string",
          "name": "",
          "type": "string"
        }
      ],
      "stateMutability": "view",
      "type": "function"
    },
    {
      "inputs": [
        {
          "internalType": "uint256",
          "name": "index",
          "type": "uint256"
        }
      ],
      "name": "tokenByIndex",
      "outputs": [
        {
          "internalType": "uint256",
          "name": "",
          "type": "uint256"
        }
      ],
      "stateMutability": "view",
      "type": "function"
    },
    {
      "inputs": [
        {
          "internalType": "address",
          "name": "owner",
          "type": "address"
        },
        {
          "internalType": "uint256",
          "name": "index",
          "type": "uint256"
        }
      ],
      "name": "tokenOfOwnerByIndex",
      "outputs": [
        {
          "internalType": "uint256",
          "name": "",
          "type": "uint256"
        }
      ],
      "stateMutability": "view",
      "type": "function"
    },
    {
      "inputs": [
        {
          "internalType": "uint256",
          "name": "tokenId",
          "type": "uint256"
        }
      ],
      "name": "tokenURI",
      "outputs": [
        {
          "internalType": "string",
          "name": "",
          "type": "string"
        }
      ],
      "stateMutability": "view",
      "type": "function"
    },
    {
      "inputs": [],
      "name": "totalSupply",
      "outputs": [
        {
          "internalType": "uint256",
          "name": "",
          "type": "uint256"
        }
      ],
      "stateMutability": "view",
      "type": "function"
    },
    {
      "inputs": [
        {
          "internalType": "address",
          "name": "from",
          "type": "address"
        },
        {
          "internalType": "address",
          "name": "to",
          "type": "address"
        },
        {
          "internalType": "uint256",
          "name": "tokenId",
          "type": "uint256"
        }
      ],
      "name": "transferFrom",
      "outputs": [],
      "stateMutability": "nonpayable",
      "type": "function"
    },
    {
      "inputs": [
        {
          "internalType": "address",
          "name": "newOwner",
          "type": "address"
        }
      ],
      "name": "transferOwnership",
      "outputs": [],
      "stateMutability": "nonpayable",
      "type": "function"
    },
    {
      "inputs": [
        {
          "internalType": "uint256",
          "name": "_tokenId",
          "type": "uint256"
        }
      ],
      "name": "withdraw",
      "outputs": [
        {
          "internalType": "bool",
          "name": "",
          "type": "bool"
        }
      ],
      "stateMutability": "nonpayable",
      "type": "function"
    }
  ],
  "bytecode": "0x60806040526040518060400160405280600881526020017f5375706552617265000000000000000000000000000000000000000000000000815250600e90805190602001906200005192919062000559565b506040518060400160405280600481526020017f5355505200000000000000000000000000000000000000000000000000000000815250600f90805190602001906200009f92919062000559565b50348015620000ad57600080fd5b506040516200524f3803806200524f8339818101604052810190620000d3919062000626565b600e8054600181600116156101000203166002900480601f0160208091040260200160405190810160405280929190818152602001828054600181600116156101000203166002900480156200016d5780601f1062000141576101008083540402835291602001916200016d565b820191906000526020600020905b8154815290600101906020018083116200014f57829003601f168201915b5050505050600f8054600181600116156101000203166002900480601f0160208091040260200160405190810160405280929190818152602001828054600181600116156101000203166002900480156200020c5780601f10620001e0576101008083540402835291602001916200020c565b820191906000526020600020905b815481529060010190602001808311620001ee57829003601f168201915b50505050506000620002236200044860201b60201c565b9050806000806101000a81548173ffffffffffffffffffffffffffffffffffffffff021916908373ffffffffffffffffffffffffffffffffffffffff1602179055508073ffffffffffffffffffffffffffffffffffffffff16600073ffffffffffffffffffffffffffffffffffffffff167f8be0079c531659141344cd1fd0a4f28419497f9722a3daafe3b4186f6b6457e060405160405180910390a350620002d96301ffc9a760e01b6200045060201b60201c565b8160079080519060200190620002f192919062000559565b5080600890805190602001906200030a92919062000559565b50620003236380ac58cd60e01b6200045060201b60201c565b6200033b635b5e139f60e01b6200045060201b60201c565b6200035363780e9d6360e01b6200045060201b60201c565b505080600b60006101000a81548173ffffffffffffffffffffffffffffffffffffffff021916908373ffffffffffffffffffffffffffffffffffffffff160217905550600b60009054906101000a900473ffffffffffffffffffffffffffffffffffffffff16600c60006101000a81548173ffffffffffffffffffffffffffffffffffffffff021916908373ffffffffffffffffffffffffffffffffffffffff160217905550620004116380ac58cd60e01b6200045060201b60201c565b62000429635b5e139f60e01b6200045060201b60201c565b6200044163780e9d6360e01b6200045060201b60201c565b50620006a0565b600033905090565b63ffffffff60e01b817bffffffffffffffffffffffffffffffffffffffffffffffffffffffff19161415620004ed576040517f08c379a000000000000000000000000000000000000000000000000000000000815260040180806020018281038252601c8152602001807f4552433136353a20696e76616c696420696e746572666163652069640000000081525060200191505060405180910390fd5b6001806000837bffffffffffffffffffffffffffffffffffffffffffffffffffffffff19167bffffffffffffffffffffffffffffffffffffffffffffffffffffffff1916815260200190815260200160002060006101000a81548160ff02191690831515021790555050565b828054600181600116156101000203166002900490600052602060002090601f016020900481019282620005915760008555620005dd565b82601f10620005ac57805160ff1916838001178555620005dd565b82800160010185558215620005dd579182015b82811115620005dc578251825591602001919060010190620005bf565b5b509050620005ec9190620005f0565b5090565b5b808211156200060b576000816000905550600101620005f1565b5090565b600081519050620006208162000686565b92915050565b6000602082840312156200063957600080fd5b600062000649848285016200060f565b91505092915050565b60006200065f8262000666565b9050919050565b600073ffffffffffffffffffffffffffffffffffffffff82169050919050565b620006918162000652565b81146200069d57600080fd5b50565b614b9f80620006b06000396000f3fe608060405234801561001057600080fd5b50600436106101e55760003560e01c8063600089431161010f57806395d89b41116100a2578063c87b56dd11610071578063c87b56dd14610604578063e985e9c514610634578063f2fde38b14610664578063fcb217b514610680576101e5565b806395d89b411461057e57806395f211851461059c578063a22cb465146105cc578063b88d4fde146105e8576101e5565b806370a08231116100de57806370a08231146104f6578063715018a61461052657806387d45d01146105305780638da5cb5b14610560576101e5565b806360008943146104485780636352211e146104785780636c0360eb146104a85780636c0e6754146104c6576101e5565b806323b872dd11610187578063364647891161015657806336464789146103ae57806342842e0e146103cc5780634f6ccce7146103e857806355f804b314610418576101e5565b806323b872dd146103025780632439725a1461031e5780632e1a7d4d1461034e5780632f745c591461037e576101e5565b8063095ea7b3116101c3578063095ea7b314610268578063150b7a0214610284578063162094c4146102b457806318160ddd146102e4576101e5565b806301ffc9a7146101ea57806306fdde031461021a578063081812fc14610238575b600080fd5b61020460048036038101906101ff9190613f1e565b6106b0565b6040516102119190614507565b60405180910390f35b610222610718565b60405161022f9190614561565b60405180910390f35b610252600480360381019061024d9190613fcd565b6107ba565b60405161025f91906144c3565b60405180910390f35b610282600480360381019061027d9190613ee2565b610855565b005b61029e60048036038101906102999190613e2b565b610999565b6040516102ab9190614522565b60405180910390f35b6102ce60048036038101906102c99190613ff6565b6109bd565b6040516102db9190614507565b60405180910390f35b6102ec610b02565b6040516102f99190614683565b60405180910390f35b61031c60048036038101906103179190613ddc565b610b13565b005b61033860048036038101906103339190613fcd565b610b89565b6040516103459190614507565b60405180910390f35b61036860048036038101906103639190613fcd565b610db4565b6040516103759190614507565b60405180910390f35b61039860048036038101906103939190613ee2565b61109b565b6040516103a59190614683565b60405180910390f35b6103b66110f6565b6040516103c391906144c3565b60405180910390f35b6103e660048036038101906103e19190613ddc565b611120565b005b61040260048036038101906103fd9190613fcd565b611140565b60405161040f9190614683565b60405180910390f35b610432600480360381019061042d9190613f47565b611163565b60405161043f9190614507565b60405180910390f35b610462600480360381019061045d9190613fcd565b6112a4565b60405161046f91906144c3565b60405180910390f35b610492600480360381019061048d9190613fcd565b6112d7565b60405161049f91906144c3565b60405180910390f35b6104b061130e565b6040516104bd9190614561565b60405180910390f35b6104e060048036038101906104db9190613ee2565b6113b0565b6040516104ed9190614683565b60405180910390f35b610510600480360381019061050b9190613d4e565b6113d5565b60405161051d9190614683565b60405180910390f35b61052e6114aa565b005b61054a60048036038101906105459190613fcd565b611617565b6040516105579190614507565b60405180910390f35b610568611925565b60405161057591906144c3565b60405180910390f35b61058661194e565b6040516105939190614561565b60405180910390f35b6105b660048036038101906105b19190613fcd565b6119f0565b6040516105c39190614507565b60405180910390f35b6105e660048036038101906105e19190613ea6565b611a1a565b005b61060260048036038101906105fd9190613e2b565b611bd0565b005b61061e60048036038101906106199190613fcd565b611c48565b60405161062b9190614561565b60405180910390f35b61064e60048036038101906106499190613da0565b611f19565b60405161065b9190614507565b60405180910390f35b61067e60048036038101906106799190613d4e565b611fad565b005b61069a60048036038101906106959190613fcd565b61219f565b6040516106a79190614507565b60405180910390f35b600060016000837bffffffffffffffffffffffffffffffffffffffffffffffffffffffff19167bffffffffffffffffffffffffffffffffffffffffffffffffffffffff1916815260200190815260200160002060009054906101000a900460ff169050919050565b606060078054600181600116156101000203166002900480601f0160208091040260200160405190810160405280929190818152602001828054600181600116156101000203166002900480156107b05780601f10610785576101008083540402835291602001916107b0565b820191906000526020600020905b81548152906001019060200180831161079357829003601f168201915b5050505050905090565b60006107c582612418565b61081a576040517f08c379a000000000000000000000000000000000000000000000000000000000815260040180806020018281038252602c815260200180614a68602c913960400191505060405180910390fd5b6005600083815260200190815260200160002060009054906101000a900473ffffffffffffffffffffffffffffffffffffffff169050919050565b6000610860826112d7565b90508073ffffffffffffffffffffffffffffffffffffffff168373ffffffffffffffffffffffffffffffffffffffff1614156108e7576040517f08c379a0000000000000000000000000000000000000000000000000000000008152600401808060200182810382526021815260200180614b186021913960400191505060405180910390fd5b8073ffffffffffffffffffffffffffffffffffffffff16610906612435565b73ffffffffffffffffffffffffffffffffffffffff16148061093557506109348161092f612435565b611f19565b5b61098a576040517f08c379a00000000000000000000000000000000000000000000000000000000081526004018080602001828103825260388152602001806149bb6038913960400191505060405180910390fd5b610994838361243d565b505050565b60006109ab63150b7a0260e01b6124f6565b63150b7a0260e01b9050949350505050565b60006109c7612435565b73ffffffffffffffffffffffffffffffffffffffff166109e5611925565b73ffffffffffffffffffffffffffffffffffffffff1614610a6e576040517f08c379a00000000000000000000000000000000000000000000000000000000081526004018080602001828103825260208152602001807f4f776e61626c653a2063616c6c6572206973206e6f7420746865206f776e657281525060200191505060405180910390fd5b610abc8484848080601f016020809104026020016040519081016040528093929190818152602001838380828437600081840152601f19601f820116905080830192505050505050506125ae565b7fda84ca2183491f179a603e877b2cb058e42195041c2b9c53d746427e519a34df848484604051610aef9392919061469e565b60405180910390a1600190509392505050565b6000610b0e6003612638565b905090565b610b24610b1e612435565b8261264d565b610b79576040517f08c379a0000000000000000000000000000000000000000000000000000000008152600401808060200182810382526031815260200180614b396031913960400191505060405180910390fd5b610b84838383612741565b505050565b6000610b93612435565b73ffffffffffffffffffffffffffffffffffffffff16610bb1611925565b73ffffffffffffffffffffffffffffffffffffffff1614610c3a576040517f08c379a00000000000000000000000000000000000000000000000000000000081526004018080602001828103825260208152602001807f4f776e61626c653a2063616c6c6572206973206e6f7420746865206f776e657281525060200191505060405180910390fd5b3073ffffffffffffffffffffffffffffffffffffffff16600c60009054906101000a900473ffffffffffffffffffffffffffffffffffffffff1673ffffffffffffffffffffffffffffffffffffffff16636352211e846040518263ffffffff1660e01b8152600401610cac9190614683565b60206040518083038186803b158015610cc457600080fd5b505afa158015610cd8573d6000803e3d6000fd5b505050506040513d601f19601f82011682018060405250810190610cfc9190613d77565b73ffffffffffffffffffffffffffffffffffffffff1614610d52576040517f08c379a0000000000000000000000000000000000000000000000000000000008152600401610d49906145c3565b60405180910390fd5b60016012600084815260200190815260200160002060006101000a81548160ff021916908315150217905550817fdcaec8df21007fb0cc76407b9c2be183d4cc30cfc0d5bc22a533e61b0279577160405160405180910390a260019050919050565b600081610dbf612435565b73ffffffffffffffffffffffffffffffffffffffff16610dde826112d7565b73ffffffffffffffffffffffffffffffffffffffff1614610e34576040517f08c379a0000000000000000000000000000000000000000000000000000000008152600401610e2b90614603565b60405180910390fd5b600073ffffffffffffffffffffffffffffffffffffffff16610e54612435565b73ffffffffffffffffffffffffffffffffffffffff161415610eab576040517f08c379a0000000000000000000000000000000000000000000000000000000008152600401610ea2906145e3565b60405180910390fd5b610eb483612984565b6000600b60009054906101000a900473ffffffffffffffffffffffffffffffffffffffff1673ffffffffffffffffffffffffffffffffffffffff16610ef7612435565b85604051602401610f099291906144de565b6040516020818303038152906040527fa9059cbb000000000000000000000000000000000000000000000000000000007bffffffffffffffffffffffffffffffffffffffffffffffffffffffff19166020820180517bffffffffffffffffffffffffffffffffffffffffffffffffffffffff8381831617835250505050604051610f9391906144ac565b6000604051808303816000865af19150503d8060008114610fd0576040519150601f19603f3d011682016040523d82523d6000602084013e610fd5565b606091505b5050905080611019576040517f08c379a000000000000000000000000000000000000000000000000000000000815260040161101090614663565b60405180910390fd5b60006012600086815260200190815260200160002060006101000a81548160ff0219169083151502179055508361104e612435565b73ffffffffffffffffffffffffffffffffffffffff167f137405ae38c6e13c1dae5b6f5d4eb90010220c7c552dcaccc7b9c038c0177af860405160405180910390a3600192505050919050565b60006110ee82600260008673ffffffffffffffffffffffffffffffffffffffff1673ffffffffffffffffffffffffffffffffffffffff168152602001908152602001600020612abe90919063ffffffff16565b905092915050565b6000600b60009054906101000a900473ffffffffffffffffffffffffffffffffffffffff16905090565b61113b83838360405180602001604052806000815250611bd0565b505050565b600080611157836003612ad890919063ffffffff16565b50905080915050919050565b600061116d612435565b73ffffffffffffffffffffffffffffffffffffffff1661118b611925565b73ffffffffffffffffffffffffffffffffffffffff1614611214576040517f08c379a00000000000000000000000000000000000000000000000000000000081526004018080602001828103825260208152602001807f4f776e61626c653a2063616c6c6572206973206e6f7420746865206f776e657281525060200191505060405180910390fd5b61126183838080601f016020809104026020016040519081016040528093929190818152602001838380828437600081840152601f19601f82011690508083019250505050505050612b04565b7ff9c7803e94e0d3c02900d8a90893a6d5e90dd04d32a4cfe825520f82bf9f32f6838360405161129292919061453d565b60405180910390a16001905092915050565b60116020528060005260406000206000915054906101000a900473ffffffffffffffffffffffffffffffffffffffff1681565b600061130782604051806060016040528060298152602001614a1d602991396003612b1e9092919063ffffffff16565b9050919050565b6060600a8054600181600116156101000203166002900480601f0160208091040260200160405190810160405280929190818152602001828054600181600116156101000203166002900480156113a65780601f1061137b576101008083540402835291602001916113a6565b820191906000526020600020905b81548152906001019060200180831161138957829003601f168201915b5050505050905090565b6010602052816000526040600020602052806000526040600020600091509150505481565b60008073ffffffffffffffffffffffffffffffffffffffff168273ffffffffffffffffffffffffffffffffffffffff16141561145c576040517f08c379a000000000000000000000000000000000000000000000000000000000815260040180806020018281038252602a8152602001806149f3602a913960400191505060405180910390fd5b6114a3600260008473ffffffffffffffffffffffffffffffffffffffff1673ffffffffffffffffffffffffffffffffffffffff168152602001908152602001600020612b3d565b9050919050565b6114b2612435565b73ffffffffffffffffffffffffffffffffffffffff166114d0611925565b73ffffffffffffffffffffffffffffffffffffffff1614611559576040517f08c379a00000000000000000000000000000000000000000000000000000000081526004018080602001828103825260208152602001807f4f776e61626c653a2063616c6c6572206973206e6f7420746865206f776e657281525060200191505060405180910390fd5b600073ffffffffffffffffffffffffffffffffffffffff1660008054906101000a900473ffffffffffffffffffffffffffffffffffffffff1673ffffffffffffffffffffffffffffffffffffffff167f8be0079c531659141344cd1fd0a4f28419497f9722a3daafe3b4186f6b6457e060405160405180910390a360008060006101000a81548173ffffffffffffffffffffffffffffffffffffffff021916908373ffffffffffffffffffffffffffffffffffffffff160217905550565b600081611622612435565b73ffffffffffffffffffffffffffffffffffffffff166011600083815260200190815260200160002060009054906101000a900473ffffffffffffffffffffffffffffffffffffffff1673ffffffffffffffffffffffffffffffffffffffff16146116c2576040517f08c379a00000000000000000000000000000000000000000000000000000000081526004016116b990614583565b60405180910390fd5b3073ffffffffffffffffffffffffffffffffffffffff16600c60009054906101000a900473ffffffffffffffffffffffffffffffffffffffff1673ffffffffffffffffffffffffffffffffffffffff16636352211e856040518263ffffffff1660e01b81526004016117349190614683565b60206040518083038186803b15801561174c57600080fd5b505afa158015611760573d6000803e3d6000fd5b505050506040513d601f19601f820116820180604052508101906117849190613d77565b73ffffffffffffffffffffffffffffffffffffffff16146117da576040517f08c379a00000000000000000000000000000000000000000000000000000000081526004016117d190614623565b60405180910390fd5b6117eb6117e5612435565b84612b52565b6118a483600c60009054906101000a900473ffffffffffffffffffffffffffffffffffffffff1673ffffffffffffffffffffffffffffffffffffffff1663c87b56dd866040518263ffffffff1660e01b815260040161184a9190614683565b60006040518083038186803b15801561186257600080fd5b505afa158015611876573d6000803e3d6000fd5b505050506040513d6000823e3d601f19601f8201168201806040525081019061189f9190613f8c565b6125ae565b60016012600085815260200190815260200160002060006101000a81548160ff021916908315150217905550826118d9612435565b73ffffffffffffffffffffffffffffffffffffffff167f3c739b6a95f75f9e762038efa06f6758bbab40ef0b17f9f07cd3476eeac984e460405160405180910390a36001915050919050565b60008060009054906101000a900473ffffffffffffffffffffffffffffffffffffffff16905090565b606060088054600181600116156101000203166002900480601f0160208091040260200160405190810160405280929190818152602001828054600181600116156101000203166002900480156119e65780601f106119bb576101008083540402835291602001916119e6565b820191906000526020600020905b8154815290600101906020018083116119c957829003601f168201915b5050505050905090565b60006012600083815260200190815260200160002060009054906101000a900460ff169050919050565b611a22612435565b73ffffffffffffffffffffffffffffffffffffffff168273ffffffffffffffffffffffffffffffffffffffff161415611ac3576040517f08c379a00000000000000000000000000000000000000000000000000000000081526004018080602001828103825260198152602001807f4552433732313a20617070726f766520746f2063616c6c65720000000000000081525060200191505060405180910390fd5b8060066000611ad0612435565b73ffffffffffffffffffffffffffffffffffffffff1673ffffffffffffffffffffffffffffffffffffffff16815260200190815260200160002060008473ffffffffffffffffffffffffffffffffffffffff1673ffffffffffffffffffffffffffffffffffffffff16815260200190815260200160002060006101000a81548160ff0219169083151502179055508173ffffffffffffffffffffffffffffffffffffffff16611b7d612435565b73ffffffffffffffffffffffffffffffffffffffff167f17307eab39ab6107e8899845ad3d59bd9653f200f220920489ca2b5937696c318360405180821515815260200191505060405180910390a35050565b611be1611bdb612435565b8361264d565b611c36576040517f08c379a0000000000000000000000000000000000000000000000000000000008152600401808060200182810382526031815260200180614b396031913960400191505060405180910390fd5b611c4284848484612b70565b50505050565b6060611c5382612418565b611ca8576040517f08c379a000000000000000000000000000000000000000000000000000000000815260040180806020018281038252602f815260200180614ae9602f913960400191505060405180910390fd5b6000600960008481526020019081526020016000208054600181600116156101000203166002900480601f016020809104026020016040519081016040528092919081815260200182805460018160011615610100020316600290048015611d515780601f10611d2657610100808354040283529160200191611d51565b820191906000526020600020905b815481529060010190602001808311611d3457829003601f168201915b505050505090506000611d6261130e565b9050600081511415611d78578192505050611f14565b600082511115611e495780826040516020018083805190602001908083835b60208310611dba5780518252602082019150602081019050602083039250611d97565b6001836020036101000a03801982511681845116808217855250505050505090500182805190602001908083835b60208310611e0b5780518252602082019150602081019050602083039250611de8565b6001836020036101000a0380198251168184511680821785525050505050509050019250505060405160208183030381529060405292505050611f14565b80611e5385612be2565b6040516020018083805190602001908083835b60208310611e895780518252602082019150602081019050602083039250611e66565b6001836020036101000a03801982511681845116808217855250505050505090500182805190602001908083835b60208310611eda5780518252602082019150602081019050602083039250611eb7565b6001836020036101000a03801982511681845116808217855250505050505090500192505050604051602081830303815290604052925050505b919050565b6000600660008473ffffffffffffffffffffffffffffffffffffffff1673ffffffffffffffffffffffffffffffffffffffff16815260200190815260200160002060008373ffffffffffffffffffffffffffffffffffffffff1673ffffffffffffffffffffffffffffffffffffffff16815260200190815260200160002060009054906101000a900460ff16905092915050565b611fb5612435565b73ffffffffffffffffffffffffffffffffffffffff16611fd3611925565b73ffffffffffffffffffffffffffffffffffffffff161461205c576040517f08c379a00000000000000000000000000000000000000000000000000000000081526004018080602001828103825260208152602001807f4f776e61626c653a2063616c6c6572206973206e6f7420746865206f776e657281525060200191505060405180910390fd5b600073ffffffffffffffffffffffffffffffffffffffff168173ffffffffffffffffffffffffffffffffffffffff1614156120e2576040517f08c379a000000000000000000000000000000000000000000000000000000000815260040180806020018281038252602681526020018061491f6026913960400191505060405180910390fd5b8073ffffffffffffffffffffffffffffffffffffffff1660008054906101000a900473ffffffffffffffffffffffffffffffffffffffff1673ffffffffffffffffffffffffffffffffffffffff167f8be0079c531659141344cd1fd0a4f28419497f9722a3daafe3b4186f6b6457e060405160405180910390a3806000806101000a81548173ffffffffffffffffffffffffffffffffffffffff021916908373ffffffffffffffffffffffffffffffffffffffff16021790555050565b6000816121aa612435565b73ffffffffffffffffffffffffffffffffffffffff16600c60009054906101000a900473ffffffffffffffffffffffffffffffffffffffff1673ffffffffffffffffffffffffffffffffffffffff16636352211e836040518263ffffffff1660e01b815260040161221b9190614683565b60206040518083038186803b15801561223357600080fd5b505afa158015612247573d6000803e3d6000fd5b505050506040513d601f19601f8201168201806040525081019061226b9190613d77565b73ffffffffffffffffffffffffffffffffffffffff16146122c1576040517f08c379a00000000000000000000000000000000000000000000000000000000081526004016122b890614643565b60405180910390fd5b6122c9612435565b73ffffffffffffffffffffffffffffffffffffffff166011600085815260200190815260200160002060009054906101000a900473ffffffffffffffffffffffffffffffffffffffff1673ffffffffffffffffffffffffffffffffffffffff16141561236a576040517f08c379a0000000000000000000000000000000000000000000000000000000008152600401612361906145a3565b60405180910390fd5b612372612435565b6011600085815260200190815260200160002060006101000a81548173ffffffffffffffffffffffffffffffffffffffff021916908373ffffffffffffffffffffffffffffffffffffffff160217905550826123cc612435565b73ffffffffffffffffffffffffffffffffffffffff167ff848bf1cacffecd6b9722baff28810b3649ee23fc48863217c908cc260405c8860405160405180910390a36001915050919050565b600061242e826003612d2990919063ffffffff16565b9050919050565b600033905090565b816005600083815260200190815260200160002060006101000a81548173ffffffffffffffffffffffffffffffffffffffff021916908373ffffffffffffffffffffffffffffffffffffffff160217905550808273ffffffffffffffffffffffffffffffffffffffff166124b0836112d7565b73ffffffffffffffffffffffffffffffffffffffff167f8c5be1e5ebec7d5bd14f71427d1e84f3dd0314c0f7b2291e5b200ac8c7c3b92560405160405180910390a45050565b6125ab8160405160240180827bffffffffffffffffffffffffffffffffffffffffffffffffffffffff191681526020019150506040516020818303038152906040527fe05f48d1000000000000000000000000000000000000000000000000000000007bffffffffffffffffffffffffffffffffffffffffffffffffffffffff19166020820180517bffffffffffffffffffffffffffffffffffffffffffffffffffffffff8381831617835250505050612d43565b50565b6125b782612418565b61260c576040517f08c379a000000000000000000000000000000000000000000000000000000000815260040180806020018281038252602c815260200180614a94602c913960400191505060405180910390fd5b80600960008481526020019081526020016000209080519060200190612633929190613ad8565b505050565b600061264682600001612d6c565b9050919050565b600061265882612418565b6126ad576040517f08c379a000000000000000000000000000000000000000000000000000000000815260040180806020018281038252602c81526020018061498f602c913960400191505060405180910390fd5b60006126b8836112d7565b90508073ffffffffffffffffffffffffffffffffffffffff168473ffffffffffffffffffffffffffffffffffffffff16148061272757508373ffffffffffffffffffffffffffffffffffffffff1661270f846107ba565b73ffffffffffffffffffffffffffffffffffffffff16145b8061273857506127378185611f19565b5b91505092915050565b8273ffffffffffffffffffffffffffffffffffffffff16612761826112d7565b73ffffffffffffffffffffffffffffffffffffffff16146127cd576040517f08c379a0000000000000000000000000000000000000000000000000000000008152600401808060200182810382526029815260200180614ac06029913960400191505060405180910390fd5b600073ffffffffffffffffffffffffffffffffffffffff168273ffffffffffffffffffffffffffffffffffffffff161415612853576040517f08c379a00000000000000000000000000000000000000000000000000000000081526004018080602001828103825260248152602001806149456024913960400191505060405180910390fd5b61285e838383612d7d565b61286960008261243d565b6128ba81600260008673ffffffffffffffffffffffffffffffffffffffff1673ffffffffffffffffffffffffffffffffffffffff168152602001908152602001600020612d8290919063ffffffff16565b5061290c81600260008573ffffffffffffffffffffffffffffffffffffffff1673ffffffffffffffffffffffffffffffffffffffff168152602001908152602001600020612d9c90919063ffffffff16565b5061292381836003612db69092919063ffffffff16565b50808273ffffffffffffffffffffffffffffffffffffffff168473ffffffffffffffffffffffffffffffffffffffff167fddf252ad1be2c89b69c2b068fc378daa952ba7f163c4a11628f55a4df523b3ef60405160405180910390a4505050565b600061298f826112d7565b905061299d81600084612d7d565b6129a860008361243d565b600060096000848152602001908152602001600020805460018160011615610100020316600290049050146129f7576009600083815260200190815260200160002060006129f69190613b66565b5b612a4882600260008473ffffffffffffffffffffffffffffffffffffffff1673ffffffffffffffffffffffffffffffffffffffff168152602001908152602001600020612d8290919063ffffffff16565b50612a5d826003612deb90919063ffffffff16565b5081600073ffffffffffffffffffffffffffffffffffffffff168273ffffffffffffffffffffffffffffffffffffffff167fddf252ad1be2c89b69c2b068fc378daa952ba7f163c4a11628f55a4df523b3ef60405160405180910390a45050565b6000612acd8360000183612e05565b60001c905092915050565b600080600080612aeb8660000186612e88565b915091508160001c8160001c9350935050509250929050565b80600a9080519060200190612b1a929190613ad8565b5050565b6000612b31846000018460001b84612f21565b60001c90509392505050565b6000612b4b82600001613017565b9050919050565b612b6c828260405180602001604052806000815250613028565b5050565b612b7b848484612741565b612b8784848484613099565b612bdc576040517f08c379a00000000000000000000000000000000000000000000000000000000081526004018080602001828103825260328152602001806148ed6032913960400191505060405180910390fd5b50505050565b60606000821415612c2a576040518060400160405280600181526020017f30000000000000000000000000000000000000000000000000000000000000008152509050612d24565b600082905060005b60008214612c54578080600101915050600a8281612c4c57fe5b049150612c32565b60008167ffffffffffffffff81118015612c6d57600080fd5b506040519080825280601f01601f191660200182016040528015612ca05781602001600182028036833780820191505090505b50905060006001830390508593505b60008414612d1c57600a8481612cc157fe5b0660300160f81b82828060019003935081518110612cdb57fe5b60200101907effffffffffffffffffffffffffffffffffffffffffffffffffffffffffffff1916908160001a905350600a8481612d1457fe5b049350612caf565b819450505050505b919050565b6000612d3b836000018360001b6132b2565b905092915050565b60008151905060006a636f6e736f6c652e6c6f679050602083016000808483855afa5050505050565b600081600001805490509050919050565b505050565b6000612d94836000018360001b6132d5565b905092915050565b6000612dae836000018360001b6133bd565b905092915050565b6000612de2846000018460001b8473ffffffffffffffffffffffffffffffffffffffff1660001b61342d565b90509392505050565b6000612dfd836000018360001b613509565b905092915050565b600081836000018054905011612e66576040517f08c379a00000000000000000000000000000000000000000000000000000000081526004018080602001828103825260228152602001806148cb6022913960400191505060405180910390fd5b826000018281548110612e7557fe5b9060005260206000200154905092915050565b60008082846000018054905011612eea576040517f08c379a0000000000000000000000000000000000000000000000000000000008152600401808060200182810382526022815260200180614a466022913960400191505060405180910390fd5b6000846000018481548110612efb57fe5b906000526020600020906002020190508060000154816001015492509250509250929050565b60008084600101600085815260200190815260200160002054905060008114158390612fe8576040517f08c379a00000000000000000000000000000000000000000000000000000000081526004018080602001828103825283818151815260200191508051906020019080838360005b83811015612fad578082015181840152602081019050612f92565b50505050905090810190601f168015612fda5780820380516001836020036101000a031916815260200191505b509250505060405180910390fd5b50846000016001820381548110612ffb57fe5b9060005260206000209060020201600101549150509392505050565b600081600001805490509050919050565b6130328383613622565b61303f6000848484613099565b613094576040517f08c379a00000000000000000000000000000000000000000000000000000000081526004018080602001828103825260328152602001806148ed6032913960400191505060405180910390fd5b505050565b60006130ba8473ffffffffffffffffffffffffffffffffffffffff16613816565b6130c757600190506132aa565b600061323163150b7a0260e01b6130dc612435565b888787604051602401808573ffffffffffffffffffffffffffffffffffffffff1681526020018473ffffffffffffffffffffffffffffffffffffffff16815260200183815260200180602001828103825283818151815260200191508051906020019080838360005b83811015613160578082015181840152602081019050613145565b50505050905090810190601f16801561318d5780820380516001836020036101000a031916815260200191505b5095505050505050604051602081830303815290604052907bffffffffffffffffffffffffffffffffffffffffffffffffffffffff19166020820180517bffffffffffffffffffffffffffffffffffffffffffffffffffffffff83818316178352505050506040518060600160405280603281526020016148ed603291398773ffffffffffffffffffffffffffffffffffffffff166138299092919063ffffffff16565b9050600081806020019051602081101561324a57600080fd5b8101908080519060200190929190505050905063150b7a0260e01b7bffffffffffffffffffffffffffffffffffffffffffffffffffffffff1916817bffffffffffffffffffffffffffffffffffffffffffffffffffffffff191614925050505b949350505050565b600080836001016000848152602001908152602001600020541415905092915050565b600080836001016000848152602001908152602001600020549050600081146133b1576000600182039050600060018660000180549050039050600086600001828154811061332057fe5b906000526020600020015490508087600001848154811061333d57fe5b906000526020600020018190555060018301876001016000838152602001908152602001600020819055508660000180548061337557fe5b600190038181906000526020600020016000905590558660010160008781526020019081526020016000206000905560019450505050506133b7565b60009150505b92915050565b60006133c98383613841565b613422578260000182908060018154018082558091505060019003906000526020600020016000909190919091505582600001805490508360010160008481526020019081526020016000208190555060019050613427565b600090505b92915050565b60008084600101600085815260200190815260200160002054905060008114156134d457846000016040518060400160405280868152602001858152509080600181540180825580915050600190039060005260206000209060020201600090919091909150600082015181600001556020820151816001015550508460000180549050856001016000868152602001908152602001600020819055506001915050613502565b828560000160018303815481106134e757fe5b90600052602060002090600202016001018190555060009150505b9392505050565b60008083600101600084815260200190815260200160002054905060008114613616576000600182039050600060018660000180549050039050600086600001828154811061355457fe5b906000526020600020906002020190508087600001848154811061357457fe5b90600052602060002090600202016000820154816000015560018201548160010155905050600183018760010160008360000154815260200190815260200160002081905550866000018054806135c757fe5b600190038181906000526020600020906002020160008082016000905560018201600090555050905586600101600087815260200190815260200160002060009055600194505050505061361c565b60009150505b92915050565b600073ffffffffffffffffffffffffffffffffffffffff168273ffffffffffffffffffffffffffffffffffffffff1614156136c5576040517f08c379a00000000000000000000000000000000000000000000000000000000081526004018080602001828103825260208152602001807f4552433732313a206d696e7420746f20746865207a65726f206164647265737381525060200191505060405180910390fd5b6136ce81612418565b15613741576040517f08c379a000000000000000000000000000000000000000000000000000000000815260040180806020018281038252601c8152602001807f4552433732313a20746f6b656e20616c7265616479206d696e7465640000000081525060200191505060405180910390fd5b61374d60008383612d7d565b61379e81600260008573ffffffffffffffffffffffffffffffffffffffff1673ffffffffffffffffffffffffffffffffffffffff168152602001908152602001600020612d9c90919063ffffffff16565b506137b581836003612db69092919063ffffffff16565b50808273ffffffffffffffffffffffffffffffffffffffff16600073ffffffffffffffffffffffffffffffffffffffff167fddf252ad1be2c89b69c2b068fc378daa952ba7f163c4a11628f55a4df523b3ef60405160405180910390a45050565b600080823b905060008111915050919050565b60606138388484600085613864565b90509392505050565b600080836001016000848152602001908152602001600020541415905092915050565b6060824710156138bf576040517f08c379a00000000000000000000000000000000000000000000000000000000081526004018080602001828103825260268152602001806149696026913960400191505060405180910390fd5b6138c885613816565b61393a576040517f08c379a000000000000000000000000000000000000000000000000000000000815260040180806020018281038252601d8152602001807f416464726573733a2063616c6c20746f206e6f6e2d636f6e747261637400000081525060200191505060405180910390fd5b6000808673ffffffffffffffffffffffffffffffffffffffff1685876040518082805190602001908083835b602083106139895780518252602082019150602081019050602083039250613966565b6001836020036101000a03801982511681845116808217855250505050505090500191505060006040518083038185875af1925050503d80600081146139eb576040519150601f19603f3d011682016040523d82523d6000602084013e6139f0565b606091505b5091509150613a00828286613a0c565b92505050949350505050565b60608315613a1c57829050613ad1565b600083511115613a2f5782518084602001fd5b816040517f08c379a00000000000000000000000000000000000000000000000000000000081526004018080602001828103825283818151815260200191508051906020019080838360005b83811015613a96578082015181840152602081019050613a7b565b50505050905090810190601f168015613ac35780820380516001836020036101000a031916815260200191505b509250505060405180910390fd5b9392505050565b828054600181600116156101000203166002900490600052602060002090601f016020900481019282613b0e5760008555613b55565b82601f10613b2757805160ff1916838001178555613b55565b82800160010185558215613b55579182015b82811115613b54578251825591602001919060010190613b39565b5b509050613b629190613bae565b5090565b50805460018160011615610100020316600290046000825580601f10613b8c5750613bab565b601f016020900490600052602060002090810190613baa9190613bae565b5b50565b5b80821115613bc7576000816000905550600101613baf565b5090565b6000613bde613bd984614701565b6146d0565b905082815260208101848484011115613bf657600080fd5b613c01848285614819565b509392505050565b6000613c1c613c1784614731565b6146d0565b905082815260208101848484011115613c3457600080fd5b613c3f848285614828565b509392505050565b600081359050613c568161486e565b92915050565b600081519050613c6b8161486e565b92915050565b600081359050613c8081614885565b92915050565b600081359050613c958161489c565b92915050565b600082601f830112613cac57600080fd5b8135613cbc848260208601613bcb565b91505092915050565b60008083601f840112613cd757600080fd5b8235905067ffffffffffffffff811115613cf057600080fd5b602083019150836001820283011115613d0857600080fd5b9250929050565b600082601f830112613d2057600080fd5b8151613d30848260208601613c09565b91505092915050565b600081359050613d48816148b3565b92915050565b600060208284031215613d6057600080fd5b6000613d6e84828501613c47565b91505092915050565b600060208284031215613d8957600080fd5b6000613d9784828501613c5c565b91505092915050565b60008060408385031215613db357600080fd5b6000613dc185828601613c47565b9250506020613dd285828601613c47565b9150509250929050565b600080600060608486031215613df157600080fd5b6000613dff86828701613c47565b9350506020613e1086828701613c47565b9250506040613e2186828701613d39565b9150509250925092565b60008060008060808587031215613e4157600080fd5b6000613e4f87828801613c47565b9450506020613e6087828801613c47565b9350506040613e7187828801613d39565b925050606085013567ffffffffffffffff811115613e8e57600080fd5b613e9a87828801613c9b565b91505092959194509250565b60008060408385031215613eb957600080fd5b6000613ec785828601613c47565b9250506020613ed885828601613c71565b9150509250929050565b60008060408385031215613ef557600080fd5b6000613f0385828601613c47565b9250506020613f1485828601613d39565b9150509250929050565b600060208284031215613f3057600080fd5b6000613f3e84828501613c86565b91505092915050565b60008060208385031215613f5a57600080fd5b600083013567ffffffffffffffff811115613f7457600080fd5b613f8085828601613cc5565b92509250509250929050565b600060208284031215613f9e57600080fd5b600082015167ffffffffffffffff811115613fb857600080fd5b613fc484828501613d0f565b91505092915050565b600060208284031215613fdf57600080fd5b6000613fed84828501613d39565b91505092915050565b60008060006040848603121561400b57600080fd5b600061401986828701613d39565b935050602084013567ffffffffffffffff81111561403657600080fd5b61404286828701613cc5565b92509250509250925092565b614057816147a5565b82525050565b61406681614793565b82525050565b614075816147b7565b82525050565b614084816147c3565b82525050565b600061409582614761565b61409f8185614777565b93506140af818560208601614828565b80840191505092915050565b60006140c78385614782565b93506140d4838584614819565b6140dd8361485d565b840190509392505050565b60006140f38261476c565b6140fd8185614782565b935061410d818560208601614828565b6141168161485d565b840191505092915050565b600061412e604483614782565b91507f537570655261726556323a2053656e6465722069736e27742077686974656c6960008301527f73746564206f7220617070726f76656420666f722074686973206f706572617460208301527f696f6e21000000000000000000000000000000000000000000000000000000006040830152606082019050919050565b60006141ba602883614782565b91507f537570655261726556323a204163636f756e7420616c7265616479207768697460008301527f656c6973746564210000000000000000000000000000000000000000000000006020830152604082019050919050565b6000614220602783614782565b91507f537570655261726556323a20556e61626c6520746f207065672074686520563160008301527f20746f6b656e21000000000000000000000000000000000000000000000000006020830152604082019050919050565b6000614286602683614782565b91507f537570655261726556323a20496e76616c696420726563697069656e7420616460008301527f64726573732100000000000000000000000000000000000000000000000000006020830152604082019050919050565b60006142ec603383614782565b91507f537570655261726556323a2053656e6465722069736e277420746865206f776e60008301527f6572206f662074686520563220746f6b656e21000000000000000000000000006020830152604082019050919050565b6000614352605d83614782565b91507f537570655261726556323a2047657420616464656420746f2077686974656c6960008301527f73742c207472616e736665722074686520563120746f6b656e20746f2074686960208301527f7320636f6e74726163742c207468656e2063616c6c206d696e745632210000006040830152606082019050919050565b60006143de603383614782565b91507f537570655261726556323a2053656e6465722069736e277420746865206f776e60008301527f6572206f662074686520563120546f6b656e21000000000000000000000000006020830152604082019050919050565b6000614444602883614782565b91507f537570655261726556323a20556e61626c6520746f207769746864726177205660008301527f3120746f6b656e210000000000000000000000000000000000000000000000006020830152604082019050919050565b6144a68161480f565b82525050565b60006144b8828461408a565b915081905092915050565b60006020820190506144d8600083018461405d565b92915050565b60006040820190506144f3600083018561404e565b614500602083018461449d565b9392505050565b600060208201905061451c600083018461406c565b92915050565b6000602082019050614537600083018461407b565b92915050565b600060208201905081810360008301526145588184866140bb565b90509392505050565b6000602082019050818103600083015261457b81846140e8565b905092915050565b6000602082019050818103600083015261459c81614121565b9050919050565b600060208201905081810360008301526145bc816141ad565b9050919050565b600060208201905081810360008301526145dc81614213565b9050919050565b600060208201905081810360008301526145fc81614279565b9050919050565b6000602082019050818103600083015261461c816142df565b9050919050565b6000602082019050818103600083015261463c81614345565b9050919050565b6000602082019050818103600083015261465c816143d1565b9050919050565b6000602082019050818103600083015261467c81614437565b9050919050565b6000602082019050614698600083018461449d565b92915050565b60006040820190506146b3600083018661449d565b81810360208301526146c68184866140bb565b9050949350505050565b6000604051905081810181811067ffffffffffffffff821117156146f7576146f661485b565b5b8060405250919050565b600067ffffffffffffffff82111561471c5761471b61485b565b5b601f19601f8301169050602081019050919050565b600067ffffffffffffffff82111561474c5761474b61485b565b5b601f19601f8301169050602081019050919050565b600081519050919050565b600081519050919050565b600081905092915050565b600082825260208201905092915050565b600061479e826147ef565b9050919050565b60006147b0826147ef565b9050919050565b60008115159050919050565b60007fffffffff0000000000000000000000000000000000000000000000000000000082169050919050565b600073ffffffffffffffffffffffffffffffffffffffff82169050919050565b6000819050919050565b82818337600083830152505050565b60005b8381101561484657808201518184015260208101905061482b565b83811115614855576000848401525b50505050565bfe5b6000601f19601f8301169050919050565b61487781614793565b811461488257600080fd5b50565b61488e816147b7565b811461489957600080fd5b50565b6148a5816147c3565b81146148b057600080fd5b50565b6148bc8161480f565b81146148c757600080fd5b5056fe456e756d657261626c655365743a20696e646578206f7574206f6620626f756e64734552433732313a207472616e7366657220746f206e6f6e20455243373231526563656976657220696d706c656d656e7465724f776e61626c653a206e6577206f776e657220697320746865207a65726f20616464726573734552433732313a207472616e7366657220746f20746865207a65726f2061646472657373416464726573733a20696e73756666696369656e742062616c616e636520666f722063616c6c4552433732313a206f70657261746f7220717565727920666f72206e6f6e6578697374656e7420746f6b656e4552433732313a20617070726f76652063616c6c6572206973206e6f74206f776e6572206e6f7220617070726f76656420666f7220616c6c4552433732313a2062616c616e636520717565727920666f7220746865207a65726f20616464726573734552433732313a206f776e657220717565727920666f72206e6f6e6578697374656e7420746f6b656e456e756d657261626c654d61703a20696e646578206f7574206f6620626f756e64734552433732313a20617070726f76656420717565727920666f72206e6f6e6578697374656e7420746f6b656e4552433732314d657461646174613a2055524920736574206f66206e6f6e6578697374656e7420746f6b656e4552433732313a207472616e73666572206f6620746f6b656e2074686174206973206e6f74206f776e4552433732314d657461646174613a2055524920717565727920666f72206e6f6e6578697374656e7420746f6b656e4552433732313a20617070726f76616c20746f2063757272656e74206f776e65724552433732313a207472616e736665722063616c6c6572206973206e6f74206f776e6572206e6f7220617070726f766564a26469706673582212202b359b8bb848343bd305bea79f69a86d31608d7aeb08eab31339b22ec5d8043664736f6c63430007060033",
  "linkReferences": {},
  "deployedLinkReferences": {}
}