{
  "_format": "hh-sol-artifact-1",
  "contractName": "SupeRareWrapper",
  "sourceName": "contracts/SupeRareWrapper.sol",
  "abi": [
    {
      "inputs": [
        {
          "internalType": "address",
          "name": "OriginalSupeRareAddr__",
          "type": "address"
        }
      ],
      "stateMutability": "nonpayable",
      "type": "constructor"
    },
    {
      "anonymous": false,
      "inputs": [
        {
          "indexed": true,
          "internalType": "address",
          "name": "previousOwner",
          "type": "address"
        },
        {
          "indexed": true,
          "internalType": "address",
          "name": "newOwner",
          "type": "address"
        }
      ],
      "name": "OwnershipTransferred",
      "type": "event"
    },
    {
      "anonymous": false,
      "inputs": [
        {
          "indexed": true,
          "internalType": "address",
          "name": "from",
          "type": "address"
        },
        {
          "indexed": true,
          "internalType": "address",
          "name": "to",
          "type": "address"
        },
        {
          "indexed": true,
          "internalType": "uint256",
          "name": "tokenId",
          "type": "uint256"
        }
      ],
      "name": "Transfer",
      "type": "event"
    },
    {
      "inputs": [
        {
          "internalType": "address",
          "name": "newOwner",
          "type": "address"
        }
      ],
      "name": "changeOwner",
      "outputs": [],
      "stateMutability": "nonpayable",
      "type": "function"
    },
    {
      "inputs": [],
      "name": "getOwner",
      "outputs": [
        {
          "internalType": "address",
          "name": "",
          "type": "address"
        }
      ],
      "stateMutability": "view",
      "type": "function"
    },
    {
      "inputs": [],
      "name": "getSupeRareAddress",
      "outputs": [
        {
          "internalType": "address",
          "name": "",
          "type": "address"
        }
      ],
      "stateMutability": "view",
      "type": "function"
    },
    {
      "inputs": [
        {
          "internalType": "address",
          "name": "",
          "type": "address"
        },
        {
          "internalType": "address",
          "name": "",
          "type": "address"
        },
        {
          "internalType": "uint256",
          "name": "",
          "type": "uint256"
        },
        {
          "internalType": "bytes",
          "name": "",
          "type": "bytes"
        }
      ],
      "name": "onERC721Received",
      "outputs": [
        {
          "internalType": "bytes4",
          "name": "",
          "type": "bytes4"
        }
      ],
      "stateMutability": "pure",
      "type": "function"
    },
    {
      "inputs": [
        {
          "internalType": "address",
          "name": "from",
          "type": "address"
        },
        {
          "internalType": "address",
          "name": "to",
          "type": "address"
        },
        {
          "internalType": "uint256",
          "name": "tokenId",
          "type": "uint256"
        },
        {
          "internalType": "bytes",
          "name": "_data",
          "type": "bytes"
        }
      ],
      "name": "safeTransferFrom",
      "outputs": [],
      "stateMutability": "nonpayable",
      "type": "function"
    }
  ],
  "bytecode": "0x608060405234801561001057600080fd5b506040516200175d3803806200175d8339818101604052602081101561003557600080fd5b8101908080519060200190929190505050610060671f18f0d339b0188560c01b61019660201b60201c565b61007a679bbb0180e7b4ba7060c01b61019660201b60201c565b806000806101000a81548173ffffffffffffffffffffffffffffffffffffffff021916908373ffffffffffffffffffffffffffffffffffffffff1602179055506100d467c0660557108b2fc860c01b61019660201b60201c565b60008054906101000a900473ffffffffffffffffffffffffffffffffffffffff16600160006101000a81548173ffffffffffffffffffffffffffffffffffffffff021916908373ffffffffffffffffffffffffffffffffffffffff16021790555061014f67eee538068e412a8e60c01b61019660201b60201c565b33600260006101000a81548173ffffffffffffffffffffffffffffffffffffffff021916908373ffffffffffffffffffffffffffffffffffffffff16021790555050610199565b50565b6115b480620001a96000396000f3fe608060405234801561001057600080fd5b50600436106100575760003560e01c8063150b7a021461005c5780633646478914610152578063893d20e814610186578063a6f9dae1146101ba578063b88d4fde146101fe575b600080fd5b61011d6004803603608081101561007257600080fd5b81019080803573ffffffffffffffffffffffffffffffffffffffff169060200190929190803573ffffffffffffffffffffffffffffffffffffffff16906020019092919080359060200190929190803590602001906401000000008111156100d957600080fd5b8201836020820111156100eb57600080fd5b8035906020019184600183028401116401000000008311171561010d57600080fd5b9091929391929390505050610303565b60405180827bffffffffffffffffffffffffffffffffffffffffffffffffffffffff1916815260200191505060405180910390f35b61015a610354565b604051808273ffffffffffffffffffffffffffffffffffffffff16815260200191505060405180910390f35b61018e6103b8565b604051808273ffffffffffffffffffffffffffffffffffffffff16815260200191505060405180910390f35b6101fc600480360360208110156101d057600080fd5b81019080803573ffffffffffffffffffffffffffffffffffffffff16906020019092919050505061041e565b005b6103016004803603608081101561021457600080fd5b81019080803573ffffffffffffffffffffffffffffffffffffffff169060200190929190803573ffffffffffffffffffffffffffffffffffffffff169060200190929190803590602001909291908035906020019064010000000081111561027b57600080fd5b82018360208201111561028d57600080fd5b803590602001918460018302840111640100000000831117156102af57600080fd5b91908080601f016020809104026020016040519081016040528093929190818152602001838380828437600081840152601f19601f82011690508083019250505050505050919291929050505061071b565b005b6000610319679fd4b458bde496d360c01b610a6a565b61032d67d842a567b074678c60c01b610a6a565b6103416740082c015a36b59160c01b610a6a565b63150b7a0260e01b905095945050505050565b600061036a67cc80cbc9b9def77b60c01b610a6a565b61037e67baa741afa6fd630060c01b610a6a565b61039267c3c660dc2288def260c01b610a6a565b60008054906101000a900473ffffffffffffffffffffffffffffffffffffffff16905090565b60006103ce675c223afb98f6138d60c01b610a6a565b6103e2678c28349e419dcdfb60c01b610a6a565b6103f6673c30d1a0cdf3b9e160c01b610a6a565b600260009054906101000a900473ffffffffffffffffffffffffffffffffffffffff16905090565b61043267a7547557c60d3dbb60c01b610a6a565b61044667efb8f79a74c4555f60c01b610a6a565b61045a679b8c8f16672077e360c01b610a6a565b61046e67e68b02c332d0da0f60c01b610a6a565b61048267cfb17fbff1a210ec60c01b610a6a565b600260009054906101000a900473ffffffffffffffffffffffffffffffffffffffff1673ffffffffffffffffffffffffffffffffffffffff163373ffffffffffffffffffffffffffffffffffffffff1614610545576040517f08c379a000000000000000000000000000000000000000000000000000000000815260040180806020018281038252600a8152602001807f4f4e4c595f4f574e45520000000000000000000000000000000000000000000081525060200191505060405180910390fd5b61055967782d0514bd4aff9360c01b610a6a565b61056d675c8e7a51714067a060c01b610a6a565b6105816758021074f3062a4660c01b610a6a565b61059567cf591fbea180046c60c01b610a6a565b6105a96744be7a5882e954e760c01b610a6a565b6105bd6777c7c1ba3dc6430860c01b610a6a565b6105d1675380ff9750c329e160c01b610a6a565b600073ffffffffffffffffffffffffffffffffffffffff168173ffffffffffffffffffffffffffffffffffffffff16141561060b57600080fd5b61061f676cdd386c480f277760c01b610a6a565b61063367d018c2d308c983a460c01b610a6a565b61064767d71740169efac82660c01b610a6a565b8073ffffffffffffffffffffffffffffffffffffffff16600260009054906101000a900473ffffffffffffffffffffffffffffffffffffffff1673ffffffffffffffffffffffffffffffffffffffff167f8be0079c531659141344cd1fd0a4f28419497f9722a3daafe3b4186f6b6457e060405160405180910390a36106d767f00bbafe37d9bf1460c01b610a6a565b80600260006101000a81548173ffffffffffffffffffffffffffffffffffffffff021916908373ffffffffffffffffffffffffffffffffffffffff16021790555050565b61072f677d510c734c64eb4f60c01b610a6a565b61074367efb8f79a74c4555f60c01b610a6a565b610757679b8c8f16672077e360c01b610a6a565b61076b67e68b02c332d0da0f60c01b610a6a565b61077f67cfb17fbff1a210ec60c01b610a6a565b600260009054906101000a900473ffffffffffffffffffffffffffffffffffffffff1673ffffffffffffffffffffffffffffffffffffffff163373ffffffffffffffffffffffffffffffffffffffff1614610842576040517f08c379a000000000000000000000000000000000000000000000000000000000815260040180806020018281038252600a8152602001807f4f4e4c595f4f574e45520000000000000000000000000000000000000000000081525060200191505060405180910390fd5b61085667782d0514bd4aff9360c01b610a6a565b61086a675c8e7a51714067a060c01b610a6a565b61087e675491d67ff2caa88060c01b610a6a565b610892673c9aeb0c9d07761060c01b610a6a565b6108a66770807ea99ed2b68e60c01b610a6a565b6108ba6767d56145d4a7505c60c01b610a6a565b6108ce67b2c6be2b50669b1b60c01b610a6a565b600160009054906101000a900473ffffffffffffffffffffffffffffffffffffffff1673ffffffffffffffffffffffffffffffffffffffff16636352211e836040518263ffffffff1660e01b81526004018082815260200191505060206040518083038186803b15801561094157600080fd5b505afa158015610955573d6000803e3d6000fd5b505050506040513d602081101561096b57600080fd5b810190808051906020019092919050505073ffffffffffffffffffffffffffffffffffffffff168473ffffffffffffffffffffffffffffffffffffffff1614610a1c576040517f08c379a000000000000000000000000000000000000000000000000000000000815260040180806020018281038252600d8152602001807f4e4f545f4e46545f4f574e45520000000000000000000000000000000000000081525060200191505060405180910390fd5b610a30679a5a1db77c58f4af60c01b610a6a565b610a4467fda8cb7ad5b12f3f60c01b610a6a565b610a586706e0b793290dee3b60c01b610a6a565b610a6484848484610a6d565b50505050565b50565b610a81674595544f0feaa35560c01b610a6a565b610a956707c41db795ccd7fb60c01b610a6a565b610aa967c44502c8e6a8c85560c01b610a6a565b610ab4848484610b6b565b610ac867e97b6e47b06ff59960c01b610a6a565b610adc67a7c732ce58f8858260c01b610a6a565b610af067c8732947999150b660c01b610a6a565b610afc84848484610f4d565b610b51576040517f08c379a00000000000000000000000000000000000000000000000000000000081526004018080602001828103825260328152602001806115036032913960400191505060405180910390fd5b610b65675d8a3a08201dfcbc60c01b610a6a565b50505050565b610b7f67e60294fcd6d6bd6860c01b610a6a565b610b9367c92445e87100892760c01b610a6a565b610ba7678be554ac287deff360c01b610a6a565b610bbb6736670176993b8c7c60c01b610a6a565b600073ffffffffffffffffffffffffffffffffffffffff168273ffffffffffffffffffffffffffffffffffffffff161415610c41576040517f08c379a00000000000000000000000000000000000000000000000000000000081526004018080602001828103825260248152602001806115356024913960400191505060405180910390fd5b610c55679ac3cc18584d05ca60c01b610a6a565b610c6967eac9c8cee262163d60c01b610a6a565b610c7d6754da412a68ab4a6a60c01b610a6a565b60008060009054906101000a900473ffffffffffffffffffffffffffffffffffffffff1673ffffffffffffffffffffffffffffffffffffffff168383604051602401808373ffffffffffffffffffffffffffffffffffffffff168152602001828152602001925050506040516020818303038152906040527fa9059cbb000000000000000000000000000000000000000000000000000000007bffffffffffffffffffffffffffffffffffffffffffffffffffffffff19166020820180517bffffffffffffffffffffffffffffffffffffffffffffffffffffffff83818316178352505050506040518082805190602001908083835b60208310610d965780518252602082019150602081019050602083039250610d73565b6001836020036101000a0380198251168184511680821785525050505050509050019150506000604051808303816000865af19150503d8060008114610df8576040519150601f19603f3d011682016040523d82523d6000602084013e610dfd565b606091505b50509050610e15676609bc59441f664060c01b610a6a565b610e2967af4fbb36ae73dfe260c01b610a6a565b610e3d675765bfbc33b0e87d60c01b610a6a565b80610eb0576040517f08c379a000000000000000000000000000000000000000000000000000000000815260040180806020018281038252600d8152602001807f526566756e64206661696c65640000000000000000000000000000000000000081525060200191505060405180910390fd5b610ec4672ec45c582614b2b760c01b610a6a565b610ed867e5dbdd86eecb0ec260c01b610a6a565b610eec67d8a9766fe2c12e4160c01b610a6a565b818373ffffffffffffffffffffffffffffffffffffffff168573ffffffffffffffffffffffffffffffffffffffff167fddf252ad1be2c89b69c2b068fc378daa952ba7f163c4a11628f55a4df523b3ef60405160405180910390a450505050565b6000610f63679534d6d75162532b60c01b610a6a565b610f776767e8cd995f30165f60c01b610a6a565b610f8b675bb95dd4e792c37b60c01b610a6a565b610faa8473ffffffffffffffffffffffffffffffffffffffff16611263565b610ff357610fc2670c5128678ff8c80660c01b610a6a565b610fd6677fdf185089c5096d60c01b610a6a565b610fea67afa245e228ce823a60c01b610a6a565b6001905061125b565b611007670dafc9033fc0100760c01b610a6a565b61101b67a466120cb7c0c3a660c01b610a6a565b61102f67d95db82e0251171d60c01b610a6a565b600061119263150b7a0260e01b33888787604051602401808573ffffffffffffffffffffffffffffffffffffffff1681526020018473ffffffffffffffffffffffffffffffffffffffff16815260200183815260200180602001828103825283818151815260200191508051906020019080838360005b838110156110c15780820151818401526020810190506110a6565b50505050905090810190601f1680156110ee5780820380516001836020036101000a031916815260200191505b5095505050505050604051602081830303815290604052907bffffffffffffffffffffffffffffffffffffffffffffffffffffffff19166020820180517bffffffffffffffffffffffffffffffffffffffffffffffffffffffff8381831617835250505050604051806060016040528060328152602001611503603291398773ffffffffffffffffffffffffffffffffffffffff166112769092919063ffffffff16565b90506111a86720c0df1fca06539960c01b610a6a565b6111bc675d9bde75aa38d6c660c01b610a6a565b60008180602001905160208110156111d357600080fd5b810190808051906020019092919050505090506111fa672abf1e3d16b8dd9260c01b610a6a565b61120e675eeced4725e2445460c01b610a6a565b63150b7a0260e01b7bffffffffffffffffffffffffffffffffffffffffffffffffffffffff1916817bffffffffffffffffffffffffffffffffffffffffffffffffffffffff191614925050505b949350505050565b600080823b905060008111915050919050565b6060611285848460008561128e565b90509392505050565b6060824710156112e9576040517f08c379a00000000000000000000000000000000000000000000000000000000081526004018080602001828103825260268152602001806115596026913960400191505060405180910390fd5b6112f285611263565b611364576040517f08c379a000000000000000000000000000000000000000000000000000000000815260040180806020018281038252601d8152602001807f416464726573733a2063616c6c20746f206e6f6e2d636f6e747261637400000081525060200191505060405180910390fd5b6000808673ffffffffffffffffffffffffffffffffffffffff1685876040518082805190602001908083835b602083106113b35780518252602082019150602081019050602083039250611390565b6001836020036101000a03801982511681845116808217855250505050505090500191505060006040518083038185875af1925050503d8060008114611415576040519150601f19603f3d011682016040523d82523d6000602084013e61141a565b606091505b509150915061142a828286611436565b92505050949350505050565b60608315611446578290506114fb565b6000835111156114595782518084602001fd5b816040517f08c379a00000000000000000000000000000000000000000000000000000000081526004018080602001828103825283818151815260200191508051906020019080838360005b838110156114c05780820151818401526020810190506114a5565b50505050905090810190601f1680156114ed5780820380516001836020036101000a031916815260200191505b509250505060405180910390fd5b939250505056fe4552433732313a207472616e7366657220746f206e6f6e20455243373231526563656976657220696d706c656d656e7465724552433732313a207472616e7366657220746f20746865207a65726f2061646472657373416464726573733a20696e73756666696369656e742062616c616e636520666f722063616c6ca26469706673582212205c308aa76b8e0161adac15bf854dbf1ce1250c15ba63e850d63b0ec2ee44615f64736f6c63430007060033",
  "linkReferences": {},
  "deployedLinkReferences": {}
}