{
  "_format": "hh-sol-artifact-1",
  "contractName": "SupeRare",
  "sourceName": "contracts/SupeRare.sol",
  "abi": [
    {
      "anonymous": false,
      "inputs": [
        {
          "indexed": true,
          "internalType": "address",
          "name": "_bidder",
          "type": "address"
        },
        {
          "indexed": true,
          "internalType": "address",
          "name": "_seller",
          "type": "address"
        },
        {
          "indexed": false,
          "internalType": "uint256",
          "name": "_amount",
          "type": "uint256"
        },
        {
          "indexed": true,
          "internalType": "uint256",
          "name": "_tokenId",
          "type": "uint256"
        }
      ],
      "name": "AcceptBid",
      "type": "event"
    },
    {
      "anonymous": false,
      "inputs": [
        {
          "indexed": true,
          "internalType": "address",
          "name": "_owner",
          "type": "address"
        },
        {
          "indexed": true,
          "internalType": "address",
          "name": "_approved",
          "type": "address"
        },
        {
          "indexed": false,
          "internalType": "uint256",
          "name": "_tokenId",
          "type": "uint256"
        }
      ],
      "name": "Approval",
      "type": "event"
    },
    {
      "anonymous": false,
      "inputs": [
        {
          "indexed": true,
          "internalType": "address",
          "name": "_bidder",
          "type": "address"
        },
        {
          "indexed": true,
          "internalType": "uint256",
          "name": "_amount",
          "type": "uint256"
        },
        {
          "indexed": true,
          "internalType": "uint256",
          "name": "_tokenId",
          "type": "uint256"
        }
      ],
      "name": "Bid",
      "type": "event"
    },
    {
      "anonymous": false,
      "inputs": [
        {
          "indexed": true,
          "internalType": "address",
          "name": "_bidder",
          "type": "address"
        },
        {
          "indexed": true,
          "internalType": "uint256",
          "name": "_amount",
          "type": "uint256"
        },
        {
          "indexed": true,
          "internalType": "uint256",
          "name": "_tokenId",
          "type": "uint256"
        }
      ],
      "name": "CancelBid",
      "type": "event"
    },
    {
      "anonymous": false,
      "inputs": [
        {
          "indexed": true,
          "internalType": "address",
          "name": "previousOwner",
          "type": "address"
        },
        {
          "indexed": true,
          "internalType": "address",
          "name": "newOwner",
          "type": "address"
        }
      ],
      "name": "OwnershipTransferred",
      "type": "event"
    },
    {
      "anonymous": false,
      "inputs": [
        {
          "indexed": true,
          "internalType": "uint256",
          "name": "_tokenId",
          "type": "uint256"
        },
        {
          "indexed": true,
          "internalType": "uint256",
          "name": "_price",
          "type": "uint256"
        }
      ],
      "name": "SalePriceSet",
      "type": "event"
    },
    {
      "anonymous": false,
      "inputs": [
        {
          "indexed": true,
          "internalType": "address",
          "name": "_buyer",
          "type": "address"
        },
        {
          "indexed": true,
          "internalType": "address",
          "name": "_seller",
          "type": "address"
        },
        {
          "indexed": false,
          "internalType": "uint256",
          "name": "_amount",
          "type": "uint256"
        },
        {
          "indexed": true,
          "internalType": "uint256",
          "name": "_tokenId",
          "type": "uint256"
        }
      ],
      "name": "Sold",
      "type": "event"
    },
    {
      "anonymous": false,
      "inputs": [
        {
          "indexed": true,
          "internalType": "address",
          "name": "_from",
          "type": "address"
        },
        {
          "indexed": true,
          "internalType": "address",
          "name": "_to",
          "type": "address"
        },
        {
          "indexed": false,
          "internalType": "uint256",
          "name": "_tokenId",
          "type": "uint256"
        }
      ],
      "name": "Transfer",
      "type": "event"
    },
    {
      "anonymous": false,
      "inputs": [
        {
          "indexed": true,
          "internalType": "address",
          "name": "_creator",
          "type": "address"
        }
      ],
      "name": "WhitelistCreator",
      "type": "event"
    },
    {
      "inputs": [
        {
          "internalType": "uint256",
          "name": "_tokenId",
          "type": "uint256"
        }
      ],
      "name": "acceptBid",
      "outputs": [],
      "stateMutability": "nonpayable",
      "type": "function"
    },
    {
      "inputs": [
        {
          "internalType": "string",
          "name": "_uri",
          "type": "string"
        }
      ],
      "name": "addNewToken",
      "outputs": [],
      "stateMutability": "nonpayable",
      "type": "function"
    },
    {
      "inputs": [
        {
          "internalType": "string",
          "name": "_uri",
          "type": "string"
        },
        {
          "internalType": "uint256",
          "name": "_editions",
          "type": "uint256"
        },
        {
          "internalType": "uint256",
          "name": "_salePrice",
          "type": "uint256"
        }
      ],
      "name": "addNewTokenWithEditions",
      "outputs": [],
      "stateMutability": "nonpayable",
      "type": "function"
    },
    {
      "inputs": [
        {
          "internalType": "address",
          "name": "_to",
          "type": "address"
        },
        {
          "internalType": "uint256",
          "name": "_tokenId",
          "type": "uint256"
        }
      ],
      "name": "approve",
      "outputs": [],
      "stateMutability": "nonpayable",
      "type": "function"
    },
    {
      "inputs": [
        {
          "internalType": "uint256",
          "name": "_tokenId",
          "type": "uint256"
        }
      ],
      "name": "approvedFor",
      "outputs": [
        {
          "internalType": "address",
          "name": "",
          "type": "address"
        }
      ],
      "stateMutability": "view",
      "type": "function"
    },
    {
      "inputs": [
        {
          "internalType": "address",
          "name": "_owner",
          "type": "address"
        }
      ],
      "name": "balanceOf",
      "outputs": [
        {
          "internalType": "uint256",
          "name": "",
          "type": "uint256"
        }
      ],
      "stateMutability": "view",
      "type": "function"
    },
    {
      "inputs": [
        {
          "internalType": "uint256",
          "name": "_tokenId",
          "type": "uint256"
        }
      ],
      "name": "bid",
      "outputs": [],
      "stateMutability": "payable",
      "type": "function"
    },
    {
      "inputs": [
        {
          "internalType": "uint256",
          "name": "_tokenId",
          "type": "uint256"
        }
      ],
      "name": "buy",
      "outputs": [],
      "stateMutability": "payable",
      "type": "function"
    },
    {
      "inputs": [
        {
          "internalType": "uint256",
          "name": "_tokenId",
          "type": "uint256"
        }
      ],
      "name": "cancelBid",
      "outputs": [],
      "stateMutability": "nonpayable",
      "type": "function"
    },
    {
      "inputs": [
        {
          "internalType": "uint256",
          "name": "_tokenId",
          "type": "uint256"
        }
      ],
      "name": "creatorOfToken",
      "outputs": [
        {
          "internalType": "address",
          "name": "",
          "type": "address"
        }
      ],
      "stateMutability": "view",
      "type": "function"
    },
    {
      "inputs": [],
      "name": "creatorPercentage",
      "outputs": [
        {
          "internalType": "uint256",
          "name": "",
          "type": "uint256"
        }
      ],
      "stateMutability": "view",
      "type": "function"
    },
    {
      "inputs": [
        {
          "internalType": "uint256",
          "name": "_tokenId",
          "type": "uint256"
        }
      ],
      "name": "currentBidDetailsOfToken",
      "outputs": [
        {
          "internalType": "uint256",
          "name": "",
          "type": "uint256"
        },
        {
          "internalType": "address",
          "name": "",
          "type": "address"
        }
      ],
      "stateMutability": "view",
      "type": "function"
    },
    {
      "inputs": [
        {
          "internalType": "address",
          "name": "_creator",
          "type": "address"
        }
      ],
      "name": "isWhitelisted",
      "outputs": [
        {
          "internalType": "bool",
          "name": "",
          "type": "bool"
        }
      ],
      "stateMutability": "view",
      "type": "function"
    },
    {
      "inputs": [],
      "name": "maintainerPercentage",
      "outputs": [
        {
          "internalType": "uint256",
          "name": "",
          "type": "uint256"
        }
      ],
      "stateMutability": "view",
      "type": "function"
    },
    {
      "inputs": [],
      "name": "name",
      "outputs": [
        {
          "internalType": "string",
          "name": "_name",
          "type": "string"
        }
      ],
      "stateMutability": "pure",
      "type": "function"
    },
    {
      "inputs": [
        {
          "internalType": "string",
          "name": "_uri",
          "type": "string"
        }
      ],
      "name": "originalTokenOfUri",
      "outputs": [
        {
          "internalType": "uint256",
          "name": "",
          "type": "uint256"
        }
      ],
      "stateMutability": "view",
      "type": "function"
    },
    {
      "inputs": [],
      "name": "owner",
      "outputs": [
        {
          "internalType": "address",
          "name": "",
          "type": "address"
        }
      ],
      "stateMutability": "view",
      "type": "function"
    },
    {
      "inputs": [
        {
          "internalType": "uint256",
          "name": "_tokenId",
          "type": "uint256"
        }
      ],
      "name": "ownerOf",
      "outputs": [
        {
          "internalType": "address",
          "name": "",
          "type": "address"
        }
      ],
      "stateMutability": "view",
      "type": "function"
    },
    {
      "inputs": [
        {
          "internalType": "uint256",
          "name": "_tokenId",
          "type": "uint256"
        }
      ],
      "name": "salePriceOfToken",
      "outputs": [
        {
          "internalType": "uint256",
          "name": "",
          "type": "uint256"
        }
      ],
      "stateMutability": "view",
      "type": "function"
    },
    {
      "inputs": [
        {
          "internalType": "uint256",
          "name": "_percentage",
          "type": "uint256"
        }
      ],
      "name": "setCreatorPercentage",
      "outputs": [],
      "stateMutability": "nonpayable",
      "type": "function"
    },
    {
      "inputs": [
        {
          "internalType": "uint256",
          "name": "_percentage",
          "type": "uint256"
        }
      ],
      "name": "setMaintainerPercentage",
      "outputs": [],
      "stateMutability": "nonpayable",
      "type": "function"
    },
    {
      "inputs": [
        {
          "internalType": "uint256",
          "name": "_tokenId",
          "type": "uint256"
        },
        {
          "internalType": "uint256",
          "name": "_salePrice",
          "type": "uint256"
        }
      ],
      "name": "setSalePrice",
      "outputs": [],
      "stateMutability": "nonpayable",
      "type": "function"
    },
    {
      "inputs": [],
      "name": "symbol",
      "outputs": [
        {
          "internalType": "string",
          "name": "_symbol",
          "type": "string"
        }
      ],
      "stateMutability": "pure",
      "type": "function"
    },
    {
      "inputs": [
        {
          "internalType": "uint256",
          "name": "_tokenId",
          "type": "uint256"
        }
      ],
      "name": "takeOwnership",
      "outputs": [],
      "stateMutability": "nonpayable",
      "type": "function"
    },
    {
      "inputs": [
        {
          "internalType": "uint256",
          "name": "_tokenId",
          "type": "uint256"
        }
      ],
      "name": "tokenURI",
      "outputs": [
        {
          "internalType": "string",
          "name": "",
          "type": "string"
        }
      ],
      "stateMutability": "view",
      "type": "function"
    },
    {
      "inputs": [
        {
          "internalType": "address",
          "name": "_owner",
          "type": "address"
        }
      ],
      "name": "tokensOf",
      "outputs": [
        {
          "internalType": "uint256[]",
          "name": "",
          "type": "uint256[]"
        }
      ],
      "stateMutability": "view",
      "type": "function"
    },
    {
      "inputs": [],
      "name": "totalSupply",
      "outputs": [
        {
          "internalType": "uint256",
          "name": "",
          "type": "uint256"
        }
      ],
      "stateMutability": "view",
      "type": "function"
    },
    {
      "inputs": [
        {
          "internalType": "address",
          "name": "_to",
          "type": "address"
        },
        {
          "internalType": "uint256",
          "name": "_tokenId",
          "type": "uint256"
        }
      ],
      "name": "transfer",
      "outputs": [],
      "stateMutability": "nonpayable",
      "type": "function"
    },
    {
      "inputs": [
        {
          "internalType": "address",
          "name": "newOwner",
          "type": "address"
        }
      ],
      "name": "transferOwnership",
      "outputs": [],
      "stateMutability": "nonpayable",
      "type": "function"
    },
    {
      "inputs": [
        {
          "internalType": "address",
          "name": "_creator",
          "type": "address"
        }
      ],
      "name": "whitelistCreator",
      "outputs": [],
      "stateMutability": "nonpayable",
      "type": "function"
    }
  ],
  "bytecode": "0x6080604052601e60065560646007553480156200001b57600080fd5b506200003867573564f2dd57811160c01b6200009b60201b60201c565b6200005467530174984785772460c01b6200009b60201b60201c565b33600560006101000a81548173ffffffffffffffffffffffffffffffffffffffff021916908373ffffffffffffffffffffffffffffffffffffffff1602179055506200009e565b50565b614d0280620000ae6000396000f3fe6080604052600436106101cd5760003560e01c806370a08231116100f7578063c0ec93e711610095578063d9856c2111610064578063d9856c2114610bf5578063f071bf4f14610cbd578063f2bf6b8c14610ce8578063f2fde38b14610d13576101cd565b8063c0ec93e714610a73578063c87b56dd14610aae578063d5da8d4414610b62578063d96a094a14610bc7576101cd565b80639703ef35116100d15780639703ef35146109535780639f2a3c321461098e578063a9059cbb146109dd578063b2e6ceeb14610a38576101cd565b806370a082311461081d5780638da5cb5b1461088257806395d89b41146108c3576101cd565b80632b1fd58a1161016f5780635c68a5571161013e5780635c68a5571461065057806362f11dd21461068b5780636352211e146106dc578063653436fd14610741576101cd565b80632b1fd58a146104da5780633af32abf14610515578063454a2ab31461057c5780635a3f2672146105aa576101cd565b8063095ea7b3116101ab578063095ea7b31461038357806318160ddd146103de5780631a289aea146104095780632a6dd48f14610475576101cd565b8063019871e9146101d2578063053992c5146102ae57806306fdde03146102f3575b600080fd5b3480156101de57600080fd5b506102ac600480360360608110156101f557600080fd5b810190808035906020019064010000000081111561021257600080fd5b82018360208201111561022457600080fd5b8035906020019184600183028401116401000000008311171561024657600080fd5b91908080601f016020809104026020016040519081016040528093929190818152602001838380828437600081840152601f19601f8201169050808301925050505050505091929192908035906020019092919080359060200190929190505050610d64565b005b3480156102ba57600080fd5b506102f1600480360360408110156102d157600080fd5b810190808035906020019092919080359060200190929190505050611145565b005b3480156102ff57600080fd5b5061030861135e565b6040518080602001828103825283818151815260200191508051906020019080838360005b8381101561034857808201518184015260208101905061032d565b50505050905090810190601f1680156103755780820380516001836020036101000a031916815260200191505b509250505060405180910390f35b34801561038f57600080fd5b506103dc600480360360408110156103a657600080fd5b81019080803573ffffffffffffffffffffffffffffffffffffffff169060200190929190803590602001909291905050506113d7565b005b3480156103ea57600080fd5b506103f3611418565b6040518082815260200191505060405180910390f35b34801561041557600080fd5b506104426004803603602081101561042c57600080fd5b810190808035906020019092919050505061145e565b604051808381526020018273ffffffffffffffffffffffffffffffffffffffff1681526020019250505060405180910390f35b34801561048157600080fd5b506104ae6004803603602081101561049857600080fd5b81019080803590602001909291905050506114ee565b604051808273ffffffffffffffffffffffffffffffffffffffff16815260200191505060405180910390f35b3480156104e657600080fd5b50610513600480360360208110156104fd57600080fd5b8101908080359060200190929190505050611567565b005b34801561052157600080fd5b506105646004803603602081101561053857600080fd5b81019080803573ffffffffffffffffffffffffffffffffffffffff16906020019092919050505061190f565b60405180821515815260200191505060405180910390f35b6105a86004803603602081101561059257600080fd5b81019080803590602001909291905050506119a1565b005b3480156105b657600080fd5b506105f9600480360360208110156105cd57600080fd5b81019080803573ffffffffffffffffffffffffffffffffffffffff169060200190929190505050611c2d565b6040518080602001828103825283818151815260200191508051906020019060200280838360005b8381101561063c578082015181840152602081019050610621565b505050509050019250505060405180910390f35b34801561065c57600080fd5b506106896004803603602081101561067357600080fd5b8101908080359060200190929190505050611d00565b005b34801561069757600080fd5b506106da600480360360208110156106ae57600080fd5b81019080803573ffffffffffffffffffffffffffffffffffffffff169060200190929190505050611e2c565b005b3480156106e857600080fd5b50610715600480360360208110156106ff57600080fd5b8101908080359060200190929190505050612014565b604051808273ffffffffffffffffffffffffffffffffffffffff16815260200191505060405180910390f35b34801561074d57600080fd5b506108076004803603602081101561076457600080fd5b810190808035906020019064010000000081111561078157600080fd5b82018360208201111561079357600080fd5b803590602001918460018302840111640100000000831117156107b557600080fd5b91908080601f016020809104026020016040519081016040528093929190818152602001838380828437600081840152601f19601f820116905080830192505050505050509192919290505050612145565b6040518082815260200191505060405180910390f35b34801561082957600080fd5b5061086c6004803603602081101561084057600080fd5b81019080803573ffffffffffffffffffffffffffffffffffffffff169060200190929190505050612254565b6040518082815260200191505060405180910390f35b34801561088e57600080fd5b506108976122dc565b604051808273ffffffffffffffffffffffffffffffffffffffff16815260200191505060405180910390f35b3480156108cf57600080fd5b506108d8612302565b6040518080602001828103825283818151815260200191508051906020019080838360005b838110156109185780820151818401526020810190506108fd565b50505050905090810190601f1680156109455780820380516001836020036101000a031916815260200191505b509250505060405180910390f35b34801561095f57600080fd5b5061098c6004803603602081101561097657600080fd5b810190808035906020019092919050505061237b565b005b34801561099a57600080fd5b506109c7600480360360208110156109b157600080fd5b81019080803590602001909291905050506125c9565b6040518082815260200191505060405180910390f35b3480156109e957600080fd5b50610a3660048036036040811015610a0057600080fd5b81019080803573ffffffffffffffffffffffffffffffffffffffff16906020019092919080359060200190929190505050612622565b005b348015610a4457600080fd5b50610a7160048036036020811015610a5b57600080fd5b81019080803590602001909291905050506127bc565b005b348015610a7f57600080fd5b50610aac60048036036020811015610a9657600080fd5b8101908080359060200190929190505050612871565b005b348015610aba57600080fd5b50610ae760048036036020811015610ad157600080fd5b810190808035906020019092919050505061299d565b6040518080602001828103825283818151815260200191508051906020019080838360005b83811015610b27578082015181840152602081019050610b0c565b50505050905090810190601f168015610b545780820380516001836020036101000a031916815260200191505b509250505060405180910390f35b348015610b6e57600080fd5b50610b9b60048036036020811015610b8557600080fd5b8101908080359060200190929190505050612abf565b604051808273ffffffffffffffffffffffffffffffffffffffff16815260200191505060405180910390f35b610bf360048036036020811015610bdd57600080fd5b8101908080359060200190929190505050612b38565b005b348015610c0157600080fd5b50610cbb60048036036020811015610c1857600080fd5b8101908080359060200190640100000000811115610c3557600080fd5b820183602082011115610c4757600080fd5b80359060200191846001830284011164010000000083111715610c6957600080fd5b91908080601f016020809104026020016040519081016040528093929190818152602001838380828437600081840152601f19601f820116905080830192505050505050509192919290505050612fc7565b005b348015610cc957600080fd5b50610cd26132ac565b6040518082815260200191505060405180910390f35b348015610cf457600080fd5b50610cfd6132b2565b6040518082815260200191505060405180910390f35b348015610d1f57600080fd5b50610d6260048036036020811015610d3657600080fd5b81019080803573ffffffffffffffffffffffffffffffffffffffff1690602001909291905050506132b8565b005b610d78679b42d00d0ae580e260c01b61354c565b82610d8d67ac7bec09e3f7765f60c01b61354c565b610da167ce5d45a5f125bad360c01b61354c565b610db5676500a21a9e17332b60c01b61354c565b610dc9674678f8e0bccec0e760c01b61354c565b6000600d826040518082805190602001908083835b60208310610e015780518252602082019150602081019050602083039250610dde565b6001836020036101000a03801982511681845116808217855250505050505090500191505090815260200160405180910390205414610e3f57600080fd5b610e53676aaf034654a9b21460c01b61354c565b610e67673442d4862b980ffa60c01b61354c565b610e7b67b48a305739d326a760c01b61354c565b610e8f67cd8ab3da14c2c72660c01b61354c565b610ea36790341a4515026f6f60c01b61354c565b610eb7678eb4b24abf9cc3c760c01b61354c565b610ecb678af06f1b8e2213a560c01b61354c565b610edf677b0ba68bcdba400360c01b61354c565b60011515600f60003373ffffffffffffffffffffffffffffffffffffffff1673ffffffffffffffffffffffffffffffffffffffff16815260200190815260200160002060009054906101000a900460ff16151514610f3c57600080fd5b610f506764df1b59bc84370160c01b61354c565b610f64679df15489ad6cb3f060c01b61354c565b610f786728a0b69815a77cfc60c01b61354c565b610f8c67bd3e448a0f9f607e60c01b61354c565b610fa0678afb9e622ac4071360c01b61354c565b610fb4679e63e6ef98e82d7360c01b61354c565b6000610fc0853361354f565b9050610fd667e8018000132dd01b60c01b61354c565b80600d866040518082805190602001908083835b6020831061100d5780518252602082019150602081019050602083039250610fea565b6001836020036101000a0380198251168184511680821785525050505050509050019150509081526020016040518091039020819055506110586719890efae8be618c60c01b61354c565b61106c677a7bc9dbf507d85860c01b61354c565b60005b8481101561113d5761108b67636298e512a70a9a60c01b61354c565b61109f6719ad43a692e57bca60c01b61354c565b60006110ab873361354f565b90506110c1671d88a25744113efe60c01b61354c565b84600a6000838152602001908152602001600020819055506110ed678a6b3f21347cc23a60c01b61354c565b6111016741996b73e13f17e060c01b61354c565b84817fe23ea816dce6d7f5c0b85cbd597e7c3b97b2453791152c0b94e5e5c5f314d2f060405160405180910390a350808060010191505061106f565b505050505050565b61115967e12f7e0b883e131860c01b61354c565b8161116e676c884815578d2d7560c01b6136a2565b6111826767262f146b02bb6d60c01b6136a2565b611196671ad731cee4cd0b3860c01b6136a2565b6111aa672958298fa5bcfd2f60c01b6136a2565b3373ffffffffffffffffffffffffffffffffffffffff166111ca82612014565b73ffffffffffffffffffffffffffffffffffffffff16146111ea57600080fd5b6111fe6765593b5e4d84e5fd60c01b6136a2565b61121267e79247bca88e960960c01b6136a2565b61122667ed81bfe8a39d65fa60c01b61354c565b61123a67ff24d97e336fd0b460c01b61354c565b61124e67438074eb7c3f724460c01b61354c565b6112626770dd55389a53b54760c01b61354c565b60006009600085815260200190815260200160002054905061128e674cd425d422e775a560c01b61354c565b6112a2677e8663f2c233884d60c01b61354c565b6112b6670cb6f46b5bf50e3d60c01b61354c565b8083116112c257600080fd5b6112d66774afacd2bc6e4a1b60c01b61354c565b6112ea6702b0f90f23ec938460c01b61354c565b82600a6000868152602001908152602001600020819055506113166777a8093efaf2b0a860c01b61354c565b61132a6719cd61dabb9f022260c01b61354c565b82847fe23ea816dce6d7f5c0b85cbd597e7c3b97b2453791152c0b94e5e5c5f314d2f060405160405180910390a350505050565b606061137467ae0235cc265a156660c01b61354c565b61138867e701a9c3f57a84b560c01b61354c565b61139c67e29b5c4d8b44a1b660c01b61354c565b6040518060400160405280600881526020017f5375706552617265000000000000000000000000000000000000000000000000815250905090565b6113eb67d7e6ac095c29cdfe60c01b61354c565b6113ff67fbba02eb85d031be60c01b61354c565b61141367510affae6949069060c01b61354c565b600080fd5b600061142e67ca16a487ff7552fe60c01b6136a2565b611442670a9708679295827260c01b6136a2565b611456670302f2422b9ef8ca60c01b6136a2565b600054905090565b6000806114756717d1c2e2977662cc60c01b61354c565b6114896725803097a5291ff660c01b61354c565b61149d67e2f05778a8f4e6ad60c01b61354c565b60096000848152602001908152602001600020546008600085815260200190815260200160002060009054906101000a900473ffffffffffffffffffffffffffffffffffffffff1691509150915091565b6000611504676a5df69b0d90572560c01b6136a2565b611518671cf6eb4de5e8e94d60c01b6136a2565b61152c6765ac68fef9acd37760c01b6136a2565b6002600083815260200190815260200160002060009054906101000a900473ffffffffffffffffffffffffffffffffffffffff169050919050565b61157b677cd277af0393e2d960c01b61354c565b80611590676c884815578d2d7560c01b6136a2565b6115a46767262f146b02bb6d60c01b6136a2565b6115b8671ad731cee4cd0b3860c01b6136a2565b6115cc672958298fa5bcfd2f60c01b6136a2565b3373ffffffffffffffffffffffffffffffffffffffff166115ec82612014565b73ffffffffffffffffffffffffffffffffffffffff161461160c57600080fd5b6116206765593b5e4d84e5fd60c01b6136a2565b61163467e79247bca88e960960c01b6136a2565b61164867d49d346244a29c0460c01b61354c565b61165c67c428823a5ef6dd7860c01b61354c565b61167067d6e1b0b2b409650860c01b61354c565b61168467882ba32b269d015360c01b61354c565b6000600960008481526020019081526020016000205490506116b067080adeea74a2745060c01b61354c565b6116c467c7ee8862915c94e560c01b61354c565b60006008600085815260200190815260200160002060009054906101000a900473ffffffffffffffffffffffffffffffffffffffff169050611710670e74f6b4babb5cbb60c01b61354c565b61172467f8394d566097fdd060c01b61354c565b600061172f85612014565b905061174567df8c1d80cf053ced60c01b61354c565b611759678c7b781b17e0ee4160c01b61354c565b6000600b600087815260200190815260200160002060009054906101000a900473ffffffffffffffffffffffffffffffffffffffff1690506117a567ea49e993c1adceae60c01b61354c565b6117b9676ab31217566c259860c01b61354c565b6117c43384886136a5565b6117d867c853b268b661b60160c01b61354c565b6117ec6764622e7a7847937060c01b61354c565b61181b84600560009054906101000a900473ffffffffffffffffffffffffffffffffffffffff1683858a61398c565b61182f678c87e2db1349d23e60c01b61354c565b6118436788c7962a3467404060c01b61354c565b61184c86613d31565b61186067200fbc734789407b60c01b61354c565b61187467742561fdf6f3725160c01b61354c565b858273ffffffffffffffffffffffffffffffffffffffff168473ffffffffffffffffffffffffffffffffffffffff167fd6deddb2e105b46d4644d24aac8c58493a0f107e7973b2fe8d8fa7931a2912be876040518082815260200191505060405180910390a46118ee679ca50bd7e1e7a45360c01b61354c565b6000600a600088815260200190815260200160002081905550505050505050565b60006119256746da01030a2d877960c01b61354c565b61193967c942659ae7b56ab760c01b61354c565b61194d67d6ddecf12358ee8160c01b61354c565b600f60008373ffffffffffffffffffffffffffffffffffffffff1673ffffffffffffffffffffffffffffffffffffffff16815260200190815260200160002060009054906101000a900460ff169050919050565b6119b567ed4bd922328d249a60c01b61354c565b806119ca674ed5678a9b773c4d60c01b61354c565b6119de676c483246d1179b2560c01b61354c565b6119f267871b1c71cfc7057160c01b61354c565b611a0667fcc864498e0e3f6b60c01b61354c565b3373ffffffffffffffffffffffffffffffffffffffff16611a2682612014565b73ffffffffffffffffffffffffffffffffffffffff161415611a4757600080fd5b611a5b67cecaaee574e2a45c60c01b61354c565b611a6f678d2d8ac0753f4c2160c01b61354c565b611a8367a010a7b3a49d715b60c01b61354c565b611a9767b2f704ea6977c3dc60c01b61354c565b611aab67697e764b4dd2f4e360c01b61354c565b611abf673a4e5a53a0d6858060c01b61354c565b611ad367e8e39ca07f5a2b1360c01b61354c565b611adc82613ddc565b611ae557600080fd5b611af9670bcc2a9613a206bb60c01b61354c565b611b0d676c99c5fe18131f1f60c01b61354c565b611b2167270bbc4116ac988c60c01b61354c565b611b2a82613e37565b611b3e67bd2e58955e15370560c01b61354c565b336008600084815260200190815260200160002060006101000a81548173ffffffffffffffffffffffffffffffffffffffff021916908373ffffffffffffffffffffffffffffffffffffffff160217905550611ba467ca0477d0e4ab564c60c01b61354c565b346009600084815260200190815260200160002081905550611bd0678836a2278191496260c01b61354c565b611be467908839f575af8e9160c01b61354c565b81343373ffffffffffffffffffffffffffffffffffffffff167f19421268847f42dd61705778018ddfc43bcdce8517e7a630acb12f122c70948160405160405180910390a45050565b6060611c436740505e57adb0430560c01b6136a2565b611c576783feeeec5df768ab60c01b6136a2565b611c6b674900ffc8a7ac0b8760c01b6136a2565b600360008373ffffffffffffffffffffffffffffffffffffffff1673ffffffffffffffffffffffffffffffffffffffff168152602001908152602001600020805480602002602001604051908101604052809291908181526020018280548015611cf457602002820191906000526020600020905b815481526020019060010190808311611ce0575b50505050509050919050565b611d14673870cb46bbd53eb260c01b61354c565b611d286781858479fb9e847b60c01b613fe9565b611d3c67de0916d05884019060c01b613fe9565b611d506736055de3f7b7200c60c01b613fe9565b611d64672b1a2d677d47164460c01b613fe9565b600560009054906101000a900473ffffffffffffffffffffffffffffffffffffffff1673ffffffffffffffffffffffffffffffffffffffff163373ffffffffffffffffffffffffffffffffffffffff1614611dbe57600080fd5b611dd2676c74ee3d862a01a560c01b613fe9565b611de6672163f90381eea1b560c01b613fe9565b611dfa677ec32d4199c454c360c01b61354c565b611e0e672b92e4e08aa37fdf60c01b61354c565b611e226758c2ef13fe5481a760c01b61354c565b8060068190555050565b611e40673c4fb990e2e6237160c01b61354c565b611e546781858479fb9e847b60c01b613fe9565b611e6867de0916d05884019060c01b613fe9565b611e7c6736055de3f7b7200c60c01b613fe9565b611e90672b1a2d677d47164460c01b613fe9565b600560009054906101000a900473ffffffffffffffffffffffffffffffffffffffff1673ffffffffffffffffffffffffffffffffffffffff163373ffffffffffffffffffffffffffffffffffffffff1614611eea57600080fd5b611efe676c74ee3d862a01a560c01b613fe9565b611f12672163f90381eea1b560c01b613fe9565b611f2667f0e3ea2479385fe460c01b61354c565b611f3a678cc3b6d2d466fa7960c01b61354c565b611f4e67157442e48b39381860c01b61354c565b6001600f60008373ffffffffffffffffffffffffffffffffffffffff1673ffffffffffffffffffffffffffffffffffffffff16815260200190815260200160002060006101000a81548160ff021916908315150217905550611fba67f985884dbce4d17f60c01b61354c565b611fce675371440794ec789d60c01b61354c565b8073ffffffffffffffffffffffffffffffffffffffff167f55eed0aed3ec6e015b9ad5e984675fe36c0ce3aebdcb70f467670773f19f7f8d60405160405180910390a250565b600061202a670a26e3bcd7251dd860c01b6136a2565b61203e677e93a9ea2d1a635060c01b6136a2565b612052676dec9514286051fc60c01b6136a2565b60006001600084815260200190815260200160002060009054906101000a900473ffffffffffffffffffffffffffffffffffffffff16905061209e678bb907b99d886cba60c01b6136a2565b6120b267471356fc1c5f3dda60c01b6136a2565b6120c6673baeff1ad06a43d260c01b6136a2565b600073ffffffffffffffffffffffffffffffffffffffff168173ffffffffffffffffffffffffffffffffffffffff16141561210057600080fd5b61211467300d8c537eeb477660c01b6136a2565b6121286795d32e2b1ea1861960c01b6136a2565b61213c6773e45876734d54c660c01b6136a2565b80915050919050565b600061215b67f46108445d27022f60c01b61354c565b61216f674ee9c8bf44ccc52c60c01b61354c565b612183679b429ada603ff66660c01b61354c565b6000600d836040518082805190602001908083835b602083106121bb5780518252602082019150602081019050602083039250612198565b6001836020036101000a038019825116818451168082178552505050505050905001915050908152602001604051809103902054905061220567c8701d9d5d39f54f60c01b61354c565b6122196716248239675bb03460c01b61354c565b61222281612014565b50612237677985bcff598e26fd60c01b61354c565b61224b67e60a18a9cd89699d60c01b61354c565b80915050919050565b600061226a6739a06635f92a196860c01b6136a2565b61227e678407d21d3b46f14160c01b6136a2565b61229267328dc057ec0ec48360c01b6136a2565b600360008373ffffffffffffffffffffffffffffffffffffffff1673ffffffffffffffffffffffffffffffffffffffff168152602001908152602001600020805490509050919050565b600560009054906101000a900473ffffffffffffffffffffffffffffffffffffffff1681565b6060612318677d53eb19f9950f3f60c01b61354c565b61232c67062446a657618c9460c01b61354c565b6123406702d06f945d83b1c660c01b61354c565b6040518060400160405280600481526020017f5355505200000000000000000000000000000000000000000000000000000000815250905090565b61238f672ef7fcdd7530b57a60c01b61354c565b6123a367044ec013cc2e579f60c01b61354c565b6123b7673a39b1d6e36bdcbb60c01b61354c565b60006008600083815260200190815260200160002060009054906101000a900473ffffffffffffffffffffffffffffffffffffffff16905061240367b37d8e925fd8b89360c01b61354c565b61241767918f92647e8c444960c01b61354c565b61242b67159db703162fc0a560c01b61354c565b8073ffffffffffffffffffffffffffffffffffffffff163373ffffffffffffffffffffffffffffffffffffffff161461246357600080fd5b612477670c772377b0b7fb1060c01b61354c565b61248b670f201e0e1e8e2df060c01b61354c565b61249f670fa931efb8362f6f60c01b61354c565b6000600960008481526020019081526020016000205490506124cb67ae769608a429249160c01b61354c565b6124df67f5a9756054e5599c60c01b61354c565b3373ffffffffffffffffffffffffffffffffffffffff166108fc829081150290604051600060405180830381858888f19350505050158015612525573d6000803e3d6000fd5b5061253a674367b12f42fb09f060c01b61354c565b61254e67cbc8645bf0f18a7060c01b61354c565b61255783613d31565b61256b67bc85f5afebe610a360c01b61354c565b61257f67515b07f705bdb23c60c01b61354c565b82818373ffffffffffffffffffffffffffffffffffffffff167f09dcebe16a733e22cc47e4959c50d4f21624d9f1815db32c2e439fbbd7b3eda060405160405180910390a4505050565b60006125df67ffdb0188c585784b60c01b61354c565b6125f3670693eb289c1f53f860c01b61354c565b6126076762163426246f2eb160c01b61354c565b600a6000838152602001908152602001600020549050919050565b612636670fce4ccd34ead9b660c01b61354c565b8061264b676c884815578d2d7560c01b6136a2565b61265f6767262f146b02bb6d60c01b6136a2565b612673671ad731cee4cd0b3860c01b6136a2565b612687672958298fa5bcfd2f60c01b6136a2565b3373ffffffffffffffffffffffffffffffffffffffff166126a782612014565b73ffffffffffffffffffffffffffffffffffffffff16146126c757600080fd5b6126db6765593b5e4d84e5fd60c01b6136a2565b6126ef67e79247bca88e960960c01b6136a2565b612703674317ec2d8f387a2a60c01b61354c565b61271767dceed99a21d7bd8860c01b61354c565b61272b678bb60ece0ac9fddc60c01b61354c565b6001600e600084815260200190815260200160002060006101000a81548160ff02191690831515021790555061276b676be01a2f7218712f60c01b61354c565b6000600a600084815260200190815260200160002081905550612798677633909679b5f3e460c01b61354c565b6127ac67a3860566e9e1a17660c01b61354c565b6127b73384846136a5565b505050565b6127d067673e4eb0dd88b30060c01b6136a2565b6127e4671cf35f794fa86a3860c01b6136a2565b6127f867659f801426c72e1e60c01b6136a2565b61280c673d1bd0fe92d9de5a60c01b6136a2565b6128163382613fec565b61281f57600080fd5b612833674c3132690dfe9e2660c01b6136a2565b6128476763dc9f4f6ccfe10560c01b6136a2565b61285b67b6deabad23dad80960c01b6136a2565b61286e61286782612014565b33836136a5565b50565b61288567602214a9ed6d5f8260c01b61354c565b6128996781858479fb9e847b60c01b613fe9565b6128ad67de0916d05884019060c01b613fe9565b6128c16736055de3f7b7200c60c01b613fe9565b6128d5672b1a2d677d47164460c01b613fe9565b600560009054906101000a900473ffffffffffffffffffffffffffffffffffffffff1673ffffffffffffffffffffffffffffffffffffffff163373ffffffffffffffffffffffffffffffffffffffff161461292f57600080fd5b612943676c74ee3d862a01a560c01b613fe9565b612957672163f90381eea1b560c01b613fe9565b61296b67808de0326d2b64cc60c01b61354c565b61297f6754949ade959f9e1960c01b61354c565b6129936732ed5f54c31e500060c01b61354c565b8060078190555050565b60606129b367dda03a02fe89800c60c01b61354c565b6129c666374d0b1e1aa6e960c01b61354c565b6129da67c956cf95d3b3038f60c01b61354c565b6129e382612014565b506129f867118a66770ba6514860c01b61354c565b612a0c6747f4b8e78ac1c11660c01b61354c565b600c60008381526020019081526020016000208054600181600116156101000203166002900480601f016020809104026020016040519081016040528092919081815260200182805460018160011615610100020316600290048015612ab35780601f10612a8857610100808354040283529160200191612ab3565b820191906000526020600020905b815481529060010190602001808311612a9657829003601f168201915b50505050509050919050565b6000612ad567e9c31f12f27b82f760c01b61354c565b612ae9673fdc82d7e3d6276960c01b61354c565b612afd67908d5f8a33d5427060c01b61354c565b600b600083815260200190815260200160002060009054906101000a900473ffffffffffffffffffffffffffffffffffffffff169050919050565b612b4c6741858ff130f7b46560c01b61354c565b80612b61674ed5678a9b773c4d60c01b61354c565b612b75676c483246d1179b2560c01b61354c565b612b8967871b1c71cfc7057160c01b61354c565b612b9d67fcc864498e0e3f6b60c01b61354c565b3373ffffffffffffffffffffffffffffffffffffffff16612bbd82612014565b73ffffffffffffffffffffffffffffffffffffffff161415612bde57600080fd5b612bf267cecaaee574e2a45c60c01b61354c565b612c06678d2d8ac0753f4c2160c01b61354c565b612c1a67f46f9ece72b2e45c60c01b61354c565b612c2e670882a52234e3117060c01b61354c565b612c426711c4f01840f837c460c01b61354c565b612c566749f753113c91c65060c01b61354c565b6000600a6000848152602001908152602001600020549050612c8267994ddf7f7e19171460c01b61354c565b612c9667f196dce4018311f060c01b61354c565b6000349050612caf67ebf1999dbb3a1fe760c01b61354c565b612cc3679c13c615953249e760c01b61354c565b6000339050612cdc672273486036caef0460c01b61354c565b612cf067ff0b6ff1c278884760c01b61354c565b6000612cfb86612014565b9050612d1167efc18be496697e9260c01b61354c565b612d2567698fc92c4ac13ba060c01b61354c565b6000600b600088815260200190815260200160002060009054906101000a900473ffffffffffffffffffffffffffffffffffffffff169050612d7167caacfbda7b2e2c8160c01b61354c565b612d8567ab397125cfad04bb60c01b61354c565b612d9967e3ad307693122a0560c01b61354c565b60008511612da657600080fd5b612dba6757c4f682f282cc3960c01b61354c565b612dce673ec8ce5fe41d28b860c01b61354c565b612de2676f0e29adcad4f3d160c01b61354c565b612df6673b7d5ae90f3dea1f60c01b61354c565b84841015612e0357600080fd5b612e17673e5388c1a3f18fa860c01b61354c565b612e2b678664ae9e895f9adc60c01b61354c565b612e3f673e5f7abda3f78f6360c01b61354c565b612e4887613e37565b612e5c67b536ac3f75bc81fb60c01b61354c565b612e7067c3c285d3fbc3247260c01b61354c565b612e7987613d31565b612e8d676ed2cd3279a9f11860c01b61354c565b612ea1671fd4f543d62249a360c01b61354c565b612eac8284896136a5565b612ec0676f35050340beb87d60c01b61354c565b612ed467953cf8ece7749c2160c01b61354c565b612f0384600560009054906101000a900473ffffffffffffffffffffffffffffffffffffffff1683858b61398c565b612f176761788c4dc3b2b07760c01b61354c565b6000600a600089815260200190815260200160002081905550612f4467dfdbc94369e745bb60c01b61354c565b612f5867f694800f78cfc46260c01b61354c565b868273ffffffffffffffffffffffffffffffffffffffff168473ffffffffffffffffffffffffffffffffffffffff167f16dd16959a056953a63cf14bf427881e762e54f03d86b864efea8238dd3b822f876040518082815260200191505060405180910390a450505050505050565b612fdb67cb76e1df560f1db060c01b61354c565b80612ff067ac7bec09e3f7765f60c01b61354c565b61300467ce5d45a5f125bad360c01b61354c565b613018676500a21a9e17332b60c01b61354c565b61302c674678f8e0bccec0e760c01b61354c565b6000600d826040518082805190602001908083835b602083106130645780518252602082019150602081019050602083039250613041565b6001836020036101000a038019825116818451168082178552505050505050905001915050908152602001604051809103902054146130a257600080fd5b6130b6676aaf034654a9b21460c01b61354c565b6130ca673442d4862b980ffa60c01b61354c565b6130de67a1ac6cde4fed63cd60c01b61354c565b6130f2671ff7dd85b279fded60c01b61354c565b6131066790341a4515026f6f60c01b61354c565b61311a678eb4b24abf9cc3c760c01b61354c565b61312e678af06f1b8e2213a560c01b61354c565b613142677b0ba68bcdba400360c01b61354c565b60011515600f60003373ffffffffffffffffffffffffffffffffffffffff1673ffffffffffffffffffffffffffffffffffffffff16815260200190815260200160002060009054906101000a900460ff1615151461319f57600080fd5b6131b36764df1b59bc84370160c01b61354c565b6131c7679df15489ad6cb3f060c01b61354c565b6131db675e46fcc66d4083c960c01b61354c565b6131ef67837e9c5097e3a60a60c01b61354c565b61320367bb495f7a7a0a9b3860c01b61354c565b6132176775a13a4848408e6360c01b61354c565b6000613223833361354f565b9050613239670103b4efe5294a7160c01b61354c565b80600d846040518082805190602001908083835b60208310613270578051825260208201915060208101905060208303925061324d565b6001836020036101000a038019825116818451168082178552505050505050905001915050908152602001604051809103902081905550505050565b60075481565b60065481565b6132cc67941afc0e80fe1b5c60c01b613fe9565b6132e06781858479fb9e847b60c01b613fe9565b6132f467de0916d05884019060c01b613fe9565b6133086736055de3f7b7200c60c01b613fe9565b61331c672b1a2d677d47164460c01b613fe9565b600560009054906101000a900473ffffffffffffffffffffffffffffffffffffffff1673ffffffffffffffffffffffffffffffffffffffff163373ffffffffffffffffffffffffffffffffffffffff161461337657600080fd5b61338a676c74ee3d862a01a560c01b613fe9565b61339e672163f90381eea1b560c01b613fe9565b6133b267a7e720436f4c1f2160c01b613fe9565b6133c66707c0b4dc0dfd619260c01b613fe9565b6133da675582dc2bcfd34eb260c01b613fe9565b6133ee67c4d756e64f18585260c01b613fe9565b61340267fb3cf0b0fdee640860c01b613fe9565b600073ffffffffffffffffffffffffffffffffffffffff168173ffffffffffffffffffffffffffffffffffffffff16141561343c57600080fd5b61345067ca7ec9c87e35652e60c01b613fe9565b61346467b077f159b90a04b760c01b613fe9565b61347867962b92dfbc47e80160c01b613fe9565b8073ffffffffffffffffffffffffffffffffffffffff16600560009054906101000a900473ffffffffffffffffffffffffffffffffffffffff1673ffffffffffffffffffffffffffffffffffffffff167f8be0079c531659141344cd1fd0a4f28419497f9722a3daafe3b4186f6b6457e060405160405180910390a361350867ddbef81b05ebd5cf60c01b613fe9565b80600560006101000a81548173ffffffffffffffffffffffffffffffffffffffff021916908373ffffffffffffffffffffffffffffffffffffffff16021790555050565b50565b60006135656729f6c1281ab8353f60c01b61354c565b613579672f03e9a7c2018b1560c01b61354c565b61358d67bae80a7cb00bf49760c01b61354c565b60006001613599611418565b0190506135b067f6a8f27e3b35aeb360c01b61354c565b6135c4673fe3e37a5798f46060c01b61354c565b6135ce8382614069565b6135e267619eb9df55046ca560c01b61354c565b82600b600083815260200190815260200160002060006101000a81548173ffffffffffffffffffffffffffffffffffffffff021916908373ffffffffffffffffffffffffffffffffffffffff16021790555061364867908cbfa27f2d797560c01b61354c565b83600c6000838152602001908152602001600020908051906020019061366f929190614c21565b5061368467d8da9d92a4294ca660c01b61354c565b6136986765fb6cdcafc8412b60c01b61354c565b8091505092915050565b50565b6136b9673095824660e9c24460c01b6136a2565b6136cd675ad24a1ca7cd093260c01b6136a2565b6136e167c88c2e26f5d9ca7d60c01b6136a2565b6136f567b7ea7cd5185bb1f560c01b6136a2565b600073ffffffffffffffffffffffffffffffffffffffff168273ffffffffffffffffffffffffffffffffffffffff16141561372f57600080fd5b6137436748249c0cf9f7689060c01b6136a2565b61375767379b8f1ef577e01760c01b6136a2565b61376b67baddf2709847e53760c01b6136a2565b61377f6744d78d7a1aba149e60c01b6136a2565b61378881612014565b73ffffffffffffffffffffffffffffffffffffffff168273ffffffffffffffffffffffffffffffffffffffff1614156137c057600080fd5b6137d467aa63ac6c78f7591160c01b6136a2565b6137e867254e0cd98957dfcb60c01b6136a2565b6137fc673075038367b024be60c01b6136a2565b61381067c910fcb05265b6df60c01b6136a2565b8273ffffffffffffffffffffffffffffffffffffffff1661383082612014565b73ffffffffffffffffffffffffffffffffffffffff161461385057600080fd5b613864672c872d32672edeba60c01b6136a2565b6138786717e0e4f57f0d33db60c01b6136a2565b61388c67cd8892f78c188e4760c01b6136a2565b61389683826141cb565b6138aa67304a556d44f8fc9760c01b6136a2565b6138be67131c6f7be7d30f9860c01b6136a2565b6138c88382614368565b6138dc672d9e8c8949992a1160c01b6136a2565b6138f0679e6b0d19b24ceb1d60c01b6136a2565b6138fa82826146e6565b61390e6721d96e6abd8b794e60c01b6136a2565b61392267fdf67986c0a5cf5360c01b6136a2565b8173ffffffffffffffffffffffffffffffffffffffff168373ffffffffffffffffffffffffffffffffffffffff167fddf252ad1be2c89b69c2b068fc378daa952ba7f163c4a11628f55a4df523b3ef836040518082815260200191505060405180910390a3505050565b6139a0674cad7012555a56c960c01b61354c565b6139b46715f1f3872c31c9ed60c01b61354c565b6139c867c95960e59eb7cd4160c01b61354c565b60006139de675e2fc0979ce624bf60c01b61354c565b6139f267938941b4feabe81a60c01b61354c565b6000613a08677842c95baffc2e4b60c01b61354c565b613a1c67b8e17e7f14759ed660c01b61354c565b6000613a3267b46c652551913b1c60c01b61354c565b613a4667674e281ddc28939a60c01b61354c565b600e600085815260200190815260200160002060009054906101000a900460ff1615613b3e57613a80671969c88e65e685db60c01b61354c565b613a9467b63c1bbda5a892f760c01b61354c565b613abd6103e8613aaf6006548b61494090919063ffffffff16565b614a7c90919063ffffffff16565b9250613ad36739b2ca19e3005daa60c01b61354c565b613afc6103e8613aee6007548b61494090919063ffffffff16565b614a7c90919063ffffffff16565b9150613b1267b770a1994b7b65f860c01b61354c565b613b3783613b29848b614afa90919063ffffffff16565b614afa90919063ffffffff16565b9050613bda565b613b5267cf91bcb15ae63dcc60c01b61354c565b613b6667bed3ab45697591a460c01b61354c565b60009250613b7e67fa21524b656923cd60c01b61354c565b879150613b956733ea9a53f43d279960c01b61354c565b60009050613bad67062d8e0645620df460c01b61354c565b6001600e600086815260200190815260200160002060006101000a81548160ff0219169083151502179055505b613bee67728ef2925fb4d9e260c01b61354c565b613c0267af14c5d163c97a1c60c01b61354c565b8673ffffffffffffffffffffffffffffffffffffffff166108fc849081150290604051600060405180830381858888f19350505050158015613c48573d6000803e3d6000fd5b50613c5d671d1fb53a1d28dc3660c01b61354c565b613c716775cecda1b633df9c60c01b61354c565b8573ffffffffffffffffffffffffffffffffffffffff166108fc839081150290604051600060405180830381858888f19350505050158015613cb7573d6000803e3d6000fd5b50613ccc67c1fe9db29418827260c01b61354c565b613ce0676d8a0262e27e8a2b60c01b61354c565b8473ffffffffffffffffffffffffffffffffffffffff166108fc829081150290604051600060405180830381858888f19350505050158015613d26573d6000803e3d6000fd5b505050505050505050565b613d4567447f71ae4395d51760c01b61354c565b613d596775d8da1673627e7e60c01b61354c565b60006008600083815260200190815260200160002060006101000a81548173ffffffffffffffffffffffffffffffffffffffff021916908373ffffffffffffffffffffffffffffffffffffffff160217905550613dc0679c077cb67108bc6f60c01b61354c565b6000600960008381526020019081526020016000208190555050565b6000613df267085142f6c8a6ef3360c01b61354c565b613e0667e8b12aa6ac0de9fc60c01b61354c565b613e1a67792ea70ba9a323e860c01b61354c565b600960008381526020019081526020016000205434119050919050565b613e4b673273871bedf860ba60c01b61354c565b613e5f670feb18de0135945f60c01b61354c565b613e736732495c1badb4e65e60c01b61354c565b600060096000838152602001908152602001600020549050613e9f672f9cad454ad080f760c01b61354c565b613eb3675f092fec7aa5d51060c01b61354c565b60006008600084815260200190815260200160002060009054906101000a900473ffffffffffffffffffffffffffffffffffffffff169050613eff67f4428a29efc3b3ed60c01b61354c565b613f1367a648a38e75f2c94360c01b61354c565b600073ffffffffffffffffffffffffffffffffffffffff168173ffffffffffffffffffffffffffffffffffffffff1614613fcf57613f5b67afed8706cd403c5460c01b61354c565b613f6f67dd345e0113e2afb360c01b61354c565b613f83675cb96abcd7f0f25460c01b61354c565b8073ffffffffffffffffffffffffffffffffffffffff166108fc839081150290604051600060405180830381858888f19350505050158015613fc9573d6000803e3d6000fd5b50613fe4565b613fe3675758108e738d4bff60c01b61354c565b5b505050565b50565b600061400267a1c6a9235d43c12a60c01b6136a2565b61401667c9673f36c74c113c60c01b6136a2565b61402a67f9784286cab3db1e60c01b6136a2565b8273ffffffffffffffffffffffffffffffffffffffff1661404a836114ee565b73ffffffffffffffffffffffffffffffffffffffff1614905092915050565b61407d67272b9b8519da997360c01b6136a2565b61409167f34152f18b38c40e60c01b6136a2565b6140a5674b1fda3d370f985f60c01b6136a2565b6140b9671821d5955da62ee260c01b6136a2565b600073ffffffffffffffffffffffffffffffffffffffff168273ffffffffffffffffffffffffffffffffffffffff1614156140f357600080fd5b614107676d2121fb8ab0fc9a60c01b6136a2565b61411b678fbdcdb969fa005660c01b6136a2565b61412f67ebaceaae0c743aa560c01b6136a2565b61413982826146e6565b61414d6767fc43dd1156ec6f60c01b6136a2565b6141616774ea768a0577ab9f60c01b6136a2565b8173ffffffffffffffffffffffffffffffffffffffff16600073ffffffffffffffffffffffffffffffffffffffff167fddf252ad1be2c89b69c2b068fc378daa952ba7f163c4a11628f55a4df523b3ef836040518082815260200191505060405180910390a35050565b6141df678619e0451b2bdf5c60c01b6136a2565b6141f3672ab480f3768af6b460c01b6136a2565b61420767dc9c73925aab5d0d60c01b6136a2565b61421b6706857252506e5ef860c01b6136a2565b8173ffffffffffffffffffffffffffffffffffffffff1661423b82612014565b73ffffffffffffffffffffffffffffffffffffffff161461425b57600080fd5b61426f67b275d533181fd53860c01b6136a2565b61428367a0d2308921e6fbde60c01b6136a2565b60006002600083815260200190815260200160002060006101000a81548173ffffffffffffffffffffffffffffffffffffffff021916908373ffffffffffffffffffffffffffffffffffffffff1602179055506142ea673b188e01afc3126a60c01b6136a2565b6142fe67dea23bf567a4aa3b60c01b6136a2565b600073ffffffffffffffffffffffffffffffffffffffff168273ffffffffffffffffffffffffffffffffffffffff167f8c5be1e5ebec7d5bd14f71427d1e84f3dd0314c0f7b2291e5b200ac8c7c3b925836040518082815260200191505060405180910390a35050565b61437c67612edbadd0745b6660c01b6136a2565b614390677948adb06d136c5260c01b6136a2565b6143a467ac64a8af84f2cb1660c01b6136a2565b6143b867367c33817c772d3260c01b6136a2565b8173ffffffffffffffffffffffffffffffffffffffff166143d882612014565b73ffffffffffffffffffffffffffffffffffffffff16146143f857600080fd5b61440c67fdf9457bde2825cb60c01b6136a2565b61442067892dece102a0791d60c01b6136a2565b61443467d32ca34a1fde602860c01b6136a2565b600060046000838152602001908152602001600020549050614460673001b6b1da15835160c01b6136a2565b61447467d9b130ed6d1ff14260c01b6136a2565b6000614492600161448486612254565b614afa90919063ffffffff16565b90506144a766cb88ad738b41dd60c01b6136a2565b6144bb6751e8add8f3de4e9b60c01b6136a2565b6000600360008673ffffffffffffffffffffffffffffffffffffffff1673ffffffffffffffffffffffffffffffffffffffff168152602001908152602001600020828154811061450757fe5b90600052602060002001549050614528672085c9a28a3932ab60c01b6136a2565b60006001600086815260200190815260200160002060006101000a81548173ffffffffffffffffffffffffffffffffffffffff021916908373ffffffffffffffffffffffffffffffffffffffff16021790555061458f679d7ada884a302e8f60c01b6136a2565b80600360008773ffffffffffffffffffffffffffffffffffffffff1673ffffffffffffffffffffffffffffffffffffffff16815260200190815260200160002084815481106145da57fe5b90600052602060002001819055506145fc677c2fa9c27b6c476b60c01b6136a2565b6000600360008773ffffffffffffffffffffffffffffffffffffffff1673ffffffffffffffffffffffffffffffffffffffff168152602001908152602001600020838154811061464857fe5b906000526020600020018190555061466a67ed1cd43322829c8b60c01b6136a2565b600060046000868152602001908152602001600020819055506146976788396cd3f60079ff60c01b6136a2565b8260046000838152602001908152602001600020819055506146c367980dfa6ada94260660c01b6136a2565b6146d96001600054614afa90919063ffffffff16565b6000819055505050505050565b6146fa67c652d0888a30ae0b60c01b6136a2565b61470e672546d0066b1350b660c01b6136a2565b61472267859eb002d0f98e0a60c01b6136a2565b61473667a879a4a489aa221660c01b6136a2565b600073ffffffffffffffffffffffffffffffffffffffff166001600083815260200190815260200160002060009054906101000a900473ffffffffffffffffffffffffffffffffffffffff1673ffffffffffffffffffffffffffffffffffffffff16146147a257600080fd5b6147b667eea52eb7a1e8af8460c01b6136a2565b6147ca677f8eb06fbbef281a60c01b6136a2565b816001600083815260200190815260200160002060006101000a81548173ffffffffffffffffffffffffffffffffffffffff021916908373ffffffffffffffffffffffffffffffffffffffff160217905550614830677a569ffd1e506db260c01b6136a2565b61484467249f4028dca3d06860c01b6136a2565b600061484f83612254565b90506148656777da2fcaba40c33a60c01b6136a2565b61487967daa6beed913386e960c01b6136a2565b600360008473ffffffffffffffffffffffffffffffffffffffff1673ffffffffffffffffffffffffffffffffffffffff1681526020019081526020016000208290806001815401808255809150506001900390600052602060002001600090919091909150556148f36744637881013c5a2f60c01b6136a2565b80600460008481526020019081526020016000208190555061491f672a0c15233a423bb460c01b6136a2565b6149356001600054614b7590919063ffffffff16565b600081905550505050565b6000614956677582961eee8980c160c01b614c1e565b61496a67481ef69bf7deb42960c01b614c1e565b61497e67ba46e7e5634d960a60c01b614c1e565b60008314156149cc5761499b67041374f35618847160c01b614c1e565b6149af674ca41a311c90a86160c01b614c1e565b6149c367c1c770670696bedb60c01b614c1e565b60009050614a76565b6149e06766b5d5615c4b661460c01b614c1e565b6149f467c698a4dd07b167a660c01b614c1e565b614a0867c7fd50707991a34f60c01b614c1e565b60008284029050614a23676ff086c0e38e48fe60c01b614c1e565b614a37675cdea772a870bbe560c01b614c1e565b82848281614a4157fe5b0414614a4957fe5b614a5d67623ba50d60d959fe60c01b614c1e565b614a7167558e54e11f92d70960c01b614c1e565b809150505b92915050565b6000614a92677b1689d7c4c39d7f60c01b614c1e565b614aa66758f7db4dcd5f5c5360c01b614c1e565b614aba67fac8001ecd35f79260c01b614c1e565b6000828481614ac557fe5b049050614adc67ffcdb660c9fe5a0f60c01b614c1e565b614af0677655af5ea1f379ee60c01b614c1e565b8091505092915050565b6000614b1067ad439b8a78e14d4760c01b614c1e565b614b2467da02640415893d3360c01b614c1e565b614b3867632cd40e4cb4bee160c01b614c1e565b82821115614b4257fe5b614b5667a0c4075f9e733d7260c01b614c1e565b614b6a676c12ad1c5cd42efc60c01b614c1e565b818303905092915050565b6000614b8b67bce7194644d0ca3060c01b614c1e565b614b9f672a2bbdd6152bc7e460c01b614c1e565b614bb3670416fffb0a9174ac60c01b614c1e565b60008284019050614bce671dfd41c0d3247fbb60c01b614c1e565b614be267855235157c6aa44560c01b614c1e565b83811015614bec57fe5b614c0067032bdd39224acc6d60c01b614c1e565b614c14672aaa448dd8c7971e60c01b614c1e565b8091505092915050565b50565b828054600181600116156101000203166002900490600052602060002090601f016020900481019282614c575760008555614c9e565b82601f10614c7057805160ff1916838001178555614c9e565b82800160010185558215614c9e579182015b82811115614c9d578251825591602001919060010190614c82565b5b509050614cab9190614caf565b5090565b5b80821115614cc8576000816000905550600101614cb0565b509056fea2646970667358221220fa69e9e458456170c001e8451295a63e6742628b5c5f7314ec9cb093d3f147df64736f6c63430007060033",
  "linkReferences": {},
  "deployedLinkReferences": {}
}