{
  "_format": "hh-sol-artifact-1",
  "contractName": "Eschrow",
  "sourceName": "contracts/Eschrow.sol",
  "abi": [
    {
      "inputs": [],
      "name": "name",
      "outputs": [
        {
          "internalType": "string",
          "name": "",
          "type": "string"
        }
      ],
      "stateMutability": "pure",
      "type": "function"
    },
    {
      "inputs": [],
      "name": "symbol",
      "outputs": [
        {
          "internalType": "string",
          "name": "",
          "type": "string"
        }
      ],
      "stateMutability": "pure",
      "type": "function"
    }
  ],
  "bytecode": "0x608060405234801561001057600080fd5b506101f1806100206000396000f3fe608060405234801561001057600080fd5b50600436106100365760003560e01c806306fdde031461003b57806395d89b41146100be575b600080fd5b610043610141565b6040518080602001828103825283818151815260200191508051906020019080838360005b83811015610083578082015181840152602081019050610068565b50505050905090810190601f1680156100b05780820380516001836020036101000a031916815260200191505b509250505060405180910390f35b6100c661017e565b6040518080602001828103825283818151815260200191508051906020019080838360005b838110156101065780820151818401526020810190506100eb565b50505050905090810190601f1680156101335780820380516001836020036101000a031916815260200191505b509250505060405180910390f35b60606040518060400160405280600781526020017f45736368726f7700000000000000000000000000000000000000000000000000815250905090565b60606040518060400160405280600381526020017f455348000000000000000000000000000000000000000000000000000000000081525090509056fea264697066735822122078db5c49347261d91f3c0559096c56b7dfa16629a2e0bd1c0ad7be9790258fcc64736f6c63430007060033",
  "linkReferences": {},
  "deployedLinkReferences": {}
}