{
  "_format": "hh-sol-artifact-1",
  "contractName": "ERC721Token",
  "sourceName": "contracts/MockV1.sol",
  "abi": [
    {
      "anonymous": false,
      "inputs": [
        {
          "indexed": true,
          "internalType": "address",
          "name": "_owner",
          "type": "address"
        },
        {
          "indexed": true,
          "internalType": "address",
          "name": "_approved",
          "type": "address"
        },
        {
          "indexed": false,
          "internalType": "uint256",
          "name": "_tokenId",
          "type": "uint256"
        }
      ],
      "name": "Approval",
      "type": "event"
    },
    {
      "anonymous": false,
      "inputs": [
        {
          "indexed": true,
          "internalType": "address",
          "name": "OrigV1Owner",
          "type": "address"
        },
        {
          "indexed": true,
          "internalType": "address",
          "name": "NewV1Owner",
          "type": "address"
        },
        {
          "indexed": true,
          "internalType": "uint256",
          "name": "v1TokenId",
          "type": "uint256"
        }
      ],
      "name": "OwnershipUpdated",
      "type": "event"
    },
    {
      "anonymous": false,
      "inputs": [
        {
          "indexed": true,
          "internalType": "address",
          "name": "_from",
          "type": "address"
        },
        {
          "indexed": true,
          "internalType": "address",
          "name": "_to",
          "type": "address"
        },
        {
          "indexed": false,
          "internalType": "uint256",
          "name": "_tokenId",
          "type": "uint256"
        }
      ],
      "name": "Transfer",
      "type": "event"
    },
    {
      "inputs": [
        {
          "internalType": "address",
          "name": "_to",
          "type": "address"
        },
        {
          "internalType": "uint256",
          "name": "_tokenId",
          "type": "uint256"
        }
      ],
      "name": "approve",
      "outputs": [],
      "stateMutability": "nonpayable",
      "type": "function"
    },
    {
      "inputs": [
        {
          "internalType": "uint256",
          "name": "_tokenId",
          "type": "uint256"
        }
      ],
      "name": "approvedFor",
      "outputs": [
        {
          "internalType": "address",
          "name": "",
          "type": "address"
        }
      ],
      "stateMutability": "view",
      "type": "function"
    },
    {
      "inputs": [
        {
          "internalType": "address",
          "name": "_owner",
          "type": "address"
        }
      ],
      "name": "balanceOf",
      "outputs": [
        {
          "internalType": "uint256",
          "name": "",
          "type": "uint256"
        }
      ],
      "stateMutability": "view",
      "type": "function"
    },
    {
      "inputs": [
        {
          "internalType": "uint256",
          "name": "_tokenId",
          "type": "uint256"
        }
      ],
      "name": "ownerOf",
      "outputs": [
        {
          "internalType": "address",
          "name": "",
          "type": "address"
        }
      ],
      "stateMutability": "view",
      "type": "function"
    },
    {
      "inputs": [
        {
          "internalType": "uint256",
          "name": "_tokenId",
          "type": "uint256"
        }
      ],
      "name": "takeOwnership",
      "outputs": [],
      "stateMutability": "nonpayable",
      "type": "function"
    },
    {
      "inputs": [
        {
          "internalType": "address",
          "name": "_owner",
          "type": "address"
        }
      ],
      "name": "tokensOf",
      "outputs": [
        {
          "internalType": "uint256[]",
          "name": "",
          "type": "uint256[]"
        }
      ],
      "stateMutability": "view",
      "type": "function"
    },
    {
      "inputs": [],
      "name": "totalSupply",
      "outputs": [
        {
          "internalType": "uint256",
          "name": "",
          "type": "uint256"
        }
      ],
      "stateMutability": "view",
      "type": "function"
    },
    {
      "inputs": [
        {
          "internalType": "address",
          "name": "_to",
          "type": "address"
        },
        {
          "internalType": "uint256",
          "name": "_tokenId",
          "type": "uint256"
        }
      ],
      "name": "transfer",
      "outputs": [],
      "stateMutability": "nonpayable",
      "type": "function"
    }
  ],
  "bytecode": "0x608060405234801561001057600080fd5b506118be806100206000396000f3fe608060405234801561001057600080fd5b50600436106100885760003560e01c80636352211e1161005b5780636352211e146101ea57806370a0823114610242578063a9059cbb1461029a578063b2e6ceeb146102e857610088565b8063095ea7b31461008d57806318160ddd146100db5780632a6dd48f146100f95780635a3f267214610151575b600080fd5b6100d9600480360360408110156100a357600080fd5b81019080803573ffffffffffffffffffffffffffffffffffffffff16906020019092919080359060200190929190505050610316565b005b6100e36106c6565b6040518082815260200191505060405180910390f35b6101256004803603602081101561010f57600080fd5b810190808035906020019092919050505061070c565b604051808273ffffffffffffffffffffffffffffffffffffffff16815260200191505060405180910390f35b6101936004803603602081101561016757600080fd5b81019080803573ffffffffffffffffffffffffffffffffffffffff169060200190929190505050610785565b6040518080602001828103825283818151815260200191508051906020019060200280838360005b838110156101d65780820151818401526020810190506101bb565b505050509050019250505060405180910390f35b6102166004803603602081101561020057600080fd5b8101908080359060200190929190505050610858565b604051808273ffffffffffffffffffffffffffffffffffffffff16815260200191505060405180910390f35b6102846004803603602081101561025857600080fd5b81019080803573ffffffffffffffffffffffffffffffffffffffff169060200190929190505050610989565b6040518082815260200191505060405180910390f35b6102e6600480360360408110156102b057600080fd5b81019080803573ffffffffffffffffffffffffffffffffffffffff16906020019092919080359060200190929190505050610a11565b005b610314600480360360208110156102fe57600080fd5b8101908080359060200190929190505050610b3e565b005b61032a677d6e6af76cebcd8860c01b610bf3565b8061033f67e13f3992551bf10060c01b610bf3565b610353674aa06273e635fe0b60c01b610bf3565b61036767836509a60525cfb560c01b610bf3565b61037b679162e9f48aaa21d060c01b610bf3565b3373ffffffffffffffffffffffffffffffffffffffff1661039b82610858565b73ffffffffffffffffffffffffffffffffffffffff16146103bb57600080fd5b6103cf678470fdb5bf23900860c01b610bf3565b6103e36723b321e8aeef076960c01b610bf3565b6103f767558b967310ccf47860c01b610bf3565b61040b674e265dbab69d8aaf60c01b610bf3565b61041f67c04eb43d7a63a81060c01b610bf3565b610433678b3172bcda764b3760c01b610bf3565b600061043e83610858565b905061045467b7376de3cc069ae560c01b610bf3565b61046867a141f098e62248b960c01b610bf3565b61047c67bde788296ccc40fc60c01b610bf3565b8073ffffffffffffffffffffffffffffffffffffffff168473ffffffffffffffffffffffffffffffffffffffff1614156104b557600080fd5b6104c9670f6ae8774d63dcf560c01b610bf3565b6104dd674716b03a68901e2d60c01b610bf3565b6104f1671e8673a5dfd4528f60c01b610bf3565b600073ffffffffffffffffffffffffffffffffffffffff166105128461070c565b73ffffffffffffffffffffffffffffffffffffffff16141580156105465750610545673c48751045b4b25160c01b610bf6565b5b8061059a5750600073ffffffffffffffffffffffffffffffffffffffff168473ffffffffffffffffffffffffffffffffffffffff1614158015610599575061059867c5db253c7515160360c01b610bf6565b5b5b156106ab576105b3672b587fb5b43ea31b60c01b610bf3565b6105c767f6925aeee24c42ad60c01b610bf3565b836002600085815260200190815260200160002060006101000a81548173ffffffffffffffffffffffffffffffffffffffff021916908373ffffffffffffffffffffffffffffffffffffffff16021790555061062d67cbc9910894e04c3e60c01b610bf3565b610641679b3d9f1a5fd6e97e60c01b610bf3565b8373ffffffffffffffffffffffffffffffffffffffff168173ffffffffffffffffffffffffffffffffffffffff167f8c5be1e5ebec7d5bd14f71427d1e84f3dd0314c0f7b2291e5b200ac8c7c3b925856040518082815260200191505060405180910390a36106c0565b6106bf678e78e458319c685d60c01b610bf3565b5b50505050565b60006106dc6712cd15547371107660c01b610bf3565b6106f0679348ce7ab1fe4d0560c01b610bf3565b6107046725918d5b0e2bd4d860c01b610bf3565b600054905090565b600061072267468c88dd4f90536b60c01b610bf3565b61073667b7c13f5558f15b7360c01b610bf3565b61074a67b3372e29aa36fbde60c01b610bf3565b6002600083815260200190815260200160002060009054906101000a900473ffffffffffffffffffffffffffffffffffffffff169050919050565b606061079b673dd54b7f93ff919060c01b610bf3565b6107af67035a8849206a60e460c01b610bf3565b6107c367dd6238407403b9c360c01b610bf3565b600360008373ffffffffffffffffffffffffffffffffffffffff1673ffffffffffffffffffffffffffffffffffffffff16815260200190815260200160002080548060200260200160405190810160405280929190818152602001828054801561084c57602002820191906000526020600020905b815481526020019060010190808311610838575b50505050509050919050565b600061086e6762ec2f21ecc4222d60c01b610bf3565b6108826705a0f6de55c92c9560c01b610bf3565b6108966707adeaf14300c27f60c01b610bf3565b60006001600084815260200190815260200160002060009054906101000a900473ffffffffffffffffffffffffffffffffffffffff1690506108e267b8495da41f9e356060c01b610bf3565b6108f66786cf29117c8e34d760c01b610bf3565b61090a673989178aad59037360c01b610bf3565b600073ffffffffffffffffffffffffffffffffffffffff168173ffffffffffffffffffffffffffffffffffffffff16141561094457600080fd5b610958673082a9df6d446dbb60c01b610bf3565b61096c6798df6ebc9153c63160c01b610bf3565b61098067ec79216da760951f60c01b610bf3565b80915050919050565b600061099f6793052a8ceba3b2a560c01b610bf3565b6109b36727a3165d26a6bcb060c01b610bf3565b6109c7672c56d34e8febce3860c01b610bf3565b600360008373ffffffffffffffffffffffffffffffffffffffff1673ffffffffffffffffffffffffffffffffffffffff168152602001908152602001600020805490509050919050565b610a2567a98d6ef26985f52460c01b610bf3565b80610a3a67e13f3992551bf10060c01b610bf3565b610a4e674aa06273e635fe0b60c01b610bf3565b610a6267836509a60525cfb560c01b610bf3565b610a76679162e9f48aaa21d060c01b610bf3565b3373ffffffffffffffffffffffffffffffffffffffff16610a9682610858565b73ffffffffffffffffffffffffffffffffffffffff1614610ab657600080fd5b610aca678470fdb5bf23900860c01b610bf3565b610ade6723b321e8aeef076960c01b610bf3565b610af2679c2b6b656780ccac60c01b610bf3565b610b0667a77a84991a3121eb60c01b610bf3565b610b1a67f16bc74dc0efe71460c01b610bf3565b610b2e670cfcd7d77617c15f60c01b610bf3565b610b39338484610c01565b505050565b610b526771b3b789b8dafff260c01b610bf3565b610b66671143c523024dd76160c01b610bf3565b610b7a67189e6b666b87786260c01b610bf3565b610b8e6712be01257f4a38c260c01b610bf3565b610b983382610ee8565b610ba157600080fd5b610bb5672a9dcb7b548f9a2a60c01b610bf3565b610bc967f7e9550515df0b6060c01b610bf3565b610bdd677c6d272f4913d20160c01b610bf3565b610bf0610be982610858565b3383610c01565b50565b50565b600060019050919050565b610c1567cd90fcff0309ed5d60c01b610bf3565b610c296708037e8e73c4714f60c01b610bf3565b610c3d67733711bc3b500b7560c01b610bf3565b610c5167b1cda85c06198d9860c01b610bf3565b600073ffffffffffffffffffffffffffffffffffffffff168273ffffffffffffffffffffffffffffffffffffffff161415610c8b57600080fd5b610c9f672b44add0a37d3f8260c01b610bf3565b610cb367c037028a8d045dc260c01b610bf3565b610cc7677fc25650e500744e60c01b610bf3565b610cdb6728c85f1a80ab843f60c01b610bf3565b610ce481610858565b73ffffffffffffffffffffffffffffffffffffffff168273ffffffffffffffffffffffffffffffffffffffff161415610d1c57600080fd5b610d30679cffbedd887d3f8e60c01b610bf3565b610d44670ec286b3ee4ece9a60c01b610bf3565b610d5867dab0f77f58dac07860c01b610bf3565b610d6c67466a131044afef0060c01b610bf3565b8273ffffffffffffffffffffffffffffffffffffffff16610d8c82610858565b73ffffffffffffffffffffffffffffffffffffffff1614610dac57600080fd5b610dc067e642a40aaeed664560c01b610bf3565b610dd467542730a2f09fa7f360c01b610bf3565b610de86789f99262072a059a60c01b610bf3565b610df28382610f65565b610e06678bfcc770efcef37360c01b610bf3565b610e1a67c7627bd5205e425160c01b610bf3565b610e248382611102565b610e3867b3b3331c16400cf260c01b610bf3565b610e4c67bb319c68f370f63f60c01b610bf3565b610e568282611507565b610e6a6770ca6cab7c7639d560c01b610bf3565b610e7e67ab04b15f229785f260c01b610bf3565b8173ffffffffffffffffffffffffffffffffffffffff168373ffffffffffffffffffffffffffffffffffffffff167fddf252ad1be2c89b69c2b068fc378daa952ba7f163c4a11628f55a4df523b3ef836040518082815260200191505060405180910390a3505050565b6000610efe6771ea8e27c879bc6a60c01b610bf3565b610f126740305d5d0e6f119f60c01b610bf3565b610f2667537fceba1f7d717760c01b610bf3565b8273ffffffffffffffffffffffffffffffffffffffff16610f468361070c565b73ffffffffffffffffffffffffffffffffffffffff1614905092915050565b610f796755e8c8f3f309a7a760c01b610bf3565b610f8d6791966ecea594e44060c01b610bf3565b610fa1678696d10413644d9460c01b610bf3565b610fb5676b4a281a6b3d94f760c01b610bf3565b8173ffffffffffffffffffffffffffffffffffffffff16610fd582610858565b73ffffffffffffffffffffffffffffffffffffffff1614610ff557600080fd5b61100967a89f17dfbd2b1d8560c01b610bf3565b61101d6760c4c64af2351e9960c01b610bf3565b60006002600083815260200190815260200160002060006101000a81548173ffffffffffffffffffffffffffffffffffffffff021916908373ffffffffffffffffffffffffffffffffffffffff16021790555061108467a64f98b06a58937960c01b610bf3565b61109867eb8c33b98e5e695d60c01b610bf3565b600073ffffffffffffffffffffffffffffffffffffffff168273ffffffffffffffffffffffffffffffffffffffff167f8c5be1e5ebec7d5bd14f71427d1e84f3dd0314c0f7b2291e5b200ac8c7c3b925836040518082815260200191505060405180910390a35050565b611116679e519bfbec285cfd60c01b610bf3565b61112a67272c970dfe0d529660c01b610bf3565b61113e67dd49e61549b3f7e360c01b610bf3565b611152677919bdd6f4700c0760c01b610bf3565b8173ffffffffffffffffffffffffffffffffffffffff1661117282610858565b73ffffffffffffffffffffffffffffffffffffffff161461119257600080fd5b6111a6676d115c87327c8d5e60c01b610bf3565b6111ba67f91f964d5709ad7e60c01b610bf3565b6111ce67367894bba55e70e260c01b610bf3565b6000600460008381526020019081526020016000205490506111fa67f20da451ab631c7860c01b610bf3565b61120e67ce2fe2c916be3ba360c01b610bf3565b600061122c600161121e86610989565b61176190919063ffffffff16565b9050611242675c4997b8e5adadd860c01b610bf3565b61125667b908e0e1b6c75d6560c01b610bf3565b6000600360008673ffffffffffffffffffffffffffffffffffffffff1673ffffffffffffffffffffffffffffffffffffffff16815260200190815260200160002082815481106112a257fe5b906000526020600020015490506112c36750b39814209598ee60c01b610bf3565b60006001600086815260200190815260200160002060006101000a81548173ffffffffffffffffffffffffffffffffffffffff021916908373ffffffffffffffffffffffffffffffffffffffff16021790555061132a6707ab33c4062df97e60c01b610bf3565b80600360008773ffffffffffffffffffffffffffffffffffffffff1673ffffffffffffffffffffffffffffffffffffffff168152602001908152602001600020848154811061137557fe5b906000526020600020018190555061139767719ab1b8c48ebe9b60c01b610bf3565b6000600360008773ffffffffffffffffffffffffffffffffffffffff1673ffffffffffffffffffffffffffffffffffffffff16815260200190815260200160002083815481106113e357fe5b906000526020600020018190555061140567ba5e8ebec59bc8f160c01b610bf3565b611419675d892685763ad8ef60c01b610bf3565b600360008673ffffffffffffffffffffffffffffffffffffffff1673ffffffffffffffffffffffffffffffffffffffff16815260200190815260200160002080548061146157fe5b6001900381819060005260206000200160009055905561148b67aa5e25c209a802d060c01b610bf3565b600060046000868152602001908152602001600020819055506114b867e7b9380eec8cad4c60c01b610bf3565b8260046000838152602001908152602001600020819055506114e467ef7e5d36daad1c0b60c01b610bf3565b6114fa600160005461176190919063ffffffff16565b6000819055505050505050565b61151b67c5af231009c69f4c60c01b610bf3565b61152f67da38ddf98ac1e2b860c01b610bf3565b61154367c7f84862cc8cd9b660c01b610bf3565b61155767a41ae2fe974a371460c01b610bf3565b600073ffffffffffffffffffffffffffffffffffffffff166001600083815260200190815260200160002060009054906101000a900473ffffffffffffffffffffffffffffffffffffffff1673ffffffffffffffffffffffffffffffffffffffff16146115c357600080fd5b6115d767059dd28fae1d632760c01b610bf3565b6115eb6711bcf3ab69d7112460c01b610bf3565b816001600083815260200190815260200160002060006101000a81548173ffffffffffffffffffffffffffffffffffffffff021916908373ffffffffffffffffffffffffffffffffffffffff16021790555061165167cd151653707c4f8d60c01b610bf3565b611665677099e2a7089a5db860c01b610bf3565b600061167083610989565b90506116866755e81478cd5dd5ae60c01b610bf3565b61169a673bb6391fcd045eca60c01b610bf3565b600360008473ffffffffffffffffffffffffffffffffffffffff1673ffffffffffffffffffffffffffffffffffffffff16815260200190815260200160002082908060018154018082558091505060019003906000526020600020016000909190919091505561171467f90ead2c23a0dbf460c01b610bf3565b80600460008481526020019081526020016000208190555061174067ab7bb669602d593c60c01b610bf3565b61175660016000546117dc90919063ffffffff16565b600081905550505050565b6000611777677e47d8c2fcd113b260c01b611885565b61178b67593aa142aa23a9e960c01b611885565b61179f67e4b4fee2bef02c9960c01b611885565b828211156117a957fe5b6117bd67cf38281dc410d45460c01b611885565b6117d1679b3053d87b76e41260c01b611885565b818303905092915050565b60006117f26723e26801667c064360c01b611885565b611806672c3bba2faa95bf7960c01b611885565b61181a6747a497410a8ca8ef60c01b611885565b6000828401905061183567e2e8ce2d5d0e6a8a60c01b611885565b611849672394a58238533d7160c01b611885565b8381101561185357fe5b61186767a3320b5a7ba16fb360c01b611885565b61187b67f5e45449534f54a160c01b611885565b8091505092915050565b5056fea2646970667358221220ca1a68068776661f64a8d20a012dadb0f2a4c185ce163961d8f10cd46a84199964736f6c63430007060033",
  "linkReferences": {},
  "deployedLinkReferences": {}
}