{
  "_format": "hh-sol-artifact-1",
  "contractName": "EschrowERC721",
  "sourceName": "contracts/EschrowERC721.sol",
  "abi": [
    {
      "inputs": [],
      "stateMutability": "nonpayable",
      "type": "constructor"
    },
    {
      "anonymous": false,
      "inputs": [
        {
          "indexed": true,
          "internalType": "address",
          "name": "owner",
          "type": "address"
        },
        {
          "indexed": true,
          "internalType": "address",
          "name": "approved",
          "type": "address"
        },
        {
          "indexed": true,
          "internalType": "uint256",
          "name": "tokenId",
          "type": "uint256"
        }
      ],
      "name": "Approval",
      "type": "event"
    },
    {
      "anonymous": false,
      "inputs": [
        {
          "indexed": true,
          "internalType": "address",
          "name": "owner",
          "type": "address"
        },
        {
          "indexed": true,
          "internalType": "address",
          "name": "operator",
          "type": "address"
        },
        {
          "indexed": false,
          "internalType": "bool",
          "name": "approved",
          "type": "bool"
        }
      ],
      "name": "ApprovalForAll",
      "type": "event"
    },
    {
      "anonymous": false,
      "inputs": [
        {
          "indexed": true,
          "internalType": "address",
          "name": "previousOwner",
          "type": "address"
        },
        {
          "indexed": true,
          "internalType": "address",
          "name": "newOwner",
          "type": "address"
        }
      ],
      "name": "OwnershipTransferred",
      "type": "event"
    },
    {
      "anonymous": false,
      "inputs": [
        {
          "indexed": true,
          "internalType": "address",
          "name": "from",
          "type": "address"
        },
        {
          "indexed": true,
          "internalType": "address",
          "name": "to",
          "type": "address"
        },
        {
          "indexed": true,
          "internalType": "uint256",
          "name": "tokenId",
          "type": "uint256"
        }
      ],
      "name": "Transfer",
      "type": "event"
    },
    {
      "inputs": [
        {
          "internalType": "address",
          "name": "to",
          "type": "address"
        },
        {
          "internalType": "uint256",
          "name": "tokenId",
          "type": "uint256"
        }
      ],
      "name": "approve",
      "outputs": [],
      "stateMutability": "nonpayable",
      "type": "function"
    },
    {
      "inputs": [
        {
          "internalType": "address",
          "name": "owner",
          "type": "address"
        }
      ],
      "name": "balanceOf",
      "outputs": [
        {
          "internalType": "uint256",
          "name": "",
          "type": "uint256"
        }
      ],
      "stateMutability": "view",
      "type": "function"
    },
    {
      "inputs": [],
      "name": "baseURI",
      "outputs": [
        {
          "internalType": "string",
          "name": "",
          "type": "string"
        }
      ],
      "stateMutability": "view",
      "type": "function"
    },
    {
      "inputs": [
        {
          "internalType": "uint256",
          "name": "tokenId",
          "type": "uint256"
        }
      ],
      "name": "getApproved",
      "outputs": [
        {
          "internalType": "address",
          "name": "",
          "type": "address"
        }
      ],
      "stateMutability": "view",
      "type": "function"
    },
    {
      "inputs": [
        {
          "internalType": "address",
          "name": "owner",
          "type": "address"
        },
        {
          "internalType": "address",
          "name": "operator",
          "type": "address"
        }
      ],
      "name": "isApprovedForAll",
      "outputs": [
        {
          "internalType": "bool",
          "name": "",
          "type": "bool"
        }
      ],
      "stateMutability": "view",
      "type": "function"
    },
    {
      "inputs": [],
      "name": "name",
      "outputs": [
        {
          "internalType": "string",
          "name": "",
          "type": "string"
        }
      ],
      "stateMutability": "view",
      "type": "function"
    },
    {
      "inputs": [
        {
          "internalType": "address",
          "name": "",
          "type": "address"
        },
        {
          "internalType": "address",
          "name": "",
          "type": "address"
        },
        {
          "internalType": "uint256",
          "name": "",
          "type": "uint256"
        },
        {
          "internalType": "bytes",
          "name": "",
          "type": "bytes"
        }
      ],
      "name": "onERC721Received",
      "outputs": [
        {
          "internalType": "bytes4",
          "name": "",
          "type": "bytes4"
        }
      ],
      "stateMutability": "pure",
      "type": "function"
    },
    {
      "inputs": [],
      "name": "owner",
      "outputs": [
        {
          "internalType": "address",
          "name": "",
          "type": "address"
        }
      ],
      "stateMutability": "view",
      "type": "function"
    },
    {
      "inputs": [
        {
          "internalType": "uint256",
          "name": "tokenId",
          "type": "uint256"
        }
      ],
      "name": "ownerOf",
      "outputs": [
        {
          "internalType": "address",
          "name": "",
          "type": "address"
        }
      ],
      "stateMutability": "view",
      "type": "function"
    },
    {
      "inputs": [],
      "name": "renounceOwnership",
      "outputs": [],
      "stateMutability": "nonpayable",
      "type": "function"
    },
    {
      "inputs": [
        {
          "internalType": "address",
          "name": "from",
          "type": "address"
        },
        {
          "internalType": "address",
          "name": "to",
          "type": "address"
        },
        {
          "internalType": "uint256",
          "name": "tokenId",
          "type": "uint256"
        }
      ],
      "name": "safeTransfer",
      "outputs": [],
      "stateMutability": "nonpayable",
      "type": "function"
    },
    {
      "inputs": [
        {
          "internalType": "address",
          "name": "from",
          "type": "address"
        },
        {
          "internalType": "address",
          "name": "to",
          "type": "address"
        },
        {
          "internalType": "uint256",
          "name": "tokenId",
          "type": "uint256"
        }
      ],
      "name": "safeTransferFrom",
      "outputs": [],
      "stateMutability": "nonpayable",
      "type": "function"
    },
    {
      "inputs": [
        {
          "internalType": "address",
          "name": "from",
          "type": "address"
        },
        {
          "internalType": "address",
          "name": "to",
          "type": "address"
        },
        {
          "internalType": "uint256",
          "name": "tokenId",
          "type": "uint256"
        },
        {
          "internalType": "bytes",
          "name": "_data",
          "type": "bytes"
        }
      ],
      "name": "safeTransferFrom",
      "outputs": [],
      "stateMutability": "nonpayable",
      "type": "function"
    },
    {
      "inputs": [
        {
          "internalType": "address",
          "name": "operator",
          "type": "address"
        },
        {
          "internalType": "bool",
          "name": "approved",
          "type": "bool"
        }
      ],
      "name": "setApprovalForAll",
      "outputs": [],
      "stateMutability": "nonpayable",
      "type": "function"
    },
    {
      "inputs": [
        {
          "internalType": "bytes4",
          "name": "interfaceId",
          "type": "bytes4"
        }
      ],
      "name": "supportsInterface",
      "outputs": [
        {
          "internalType": "bool",
          "name": "",
          "type": "bool"
        }
      ],
      "stateMutability": "view",
      "type": "function"
    },
    {
      "inputs": [],
      "name": "symbol",
      "outputs": [
        {
          "internalType": "string",
          "name": "",
          "type": "string"
        }
      ],
      "stateMutability": "view",
      "type": "function"
    },
    {
      "inputs": [
        {
          "internalType": "uint256",
          "name": "index",
          "type": "uint256"
        }
      ],
      "name": "tokenByIndex",
      "outputs": [
        {
          "internalType": "uint256",
          "name": "",
          "type": "uint256"
        }
      ],
      "stateMutability": "view",
      "type": "function"
    },
    {
      "inputs": [
        {
          "internalType": "address",
          "name": "owner",
          "type": "address"
        },
        {
          "internalType": "uint256",
          "name": "index",
          "type": "uint256"
        }
      ],
      "name": "tokenOfOwnerByIndex",
      "outputs": [
        {
          "internalType": "uint256",
          "name": "",
          "type": "uint256"
        }
      ],
      "stateMutability": "view",
      "type": "function"
    },
    {
      "inputs": [
        {
          "internalType": "uint256",
          "name": "tokenId",
          "type": "uint256"
        }
      ],
      "name": "tokenURI",
      "outputs": [
        {
          "internalType": "string",
          "name": "",
          "type": "string"
        }
      ],
      "stateMutability": "view",
      "type": "function"
    },
    {
      "inputs": [],
      "name": "totalSupply",
      "outputs": [
        {
          "internalType": "uint256",
          "name": "",
          "type": "uint256"
        }
      ],
      "stateMutability": "view",
      "type": "function"
    },
    {
      "inputs": [
        {
          "internalType": "address",
          "name": "from",
          "type": "address"
        },
        {
          "internalType": "address",
          "name": "to",
          "type": "address"
        },
        {
          "internalType": "uint256",
          "name": "tokenId",
          "type": "uint256"
        }
      ],
      "name": "transferFrom",
      "outputs": [],
      "stateMutability": "nonpayable",
      "type": "function"
    },
    {
      "inputs": [
        {
          "internalType": "address",
          "name": "newOwner",
          "type": "address"
        }
      ],
      "name": "transferOwnership",
      "outputs": [],
      "stateMutability": "nonpayable",
      "type": "function"
    }
  ],
  "bytecode": "0x60806040526040518060400160405280600e81526020017f45736368726f775f455243373231000000000000000000000000000000000000815250600b90805190602001906200005192919062000556565b506040518060400160405280600781526020017f4553485f37323100000000000000000000000000000000000000000000000000815250600c90805190602001906200009f92919062000556565b50348015620000ad57600080fd5b50600b8054600181600116156101000203166002900480601f016020809104026020016040519081016040528092919081815260200182805460018160011615610100020316600290048015620001485780601f106200011c5761010080835404028352916020019162000148565b820191906000526020600020905b8154815290600101906020018083116200012a57829003601f168201915b5050505050600c8054600181600116156101000203166002900480601f016020809104026020016040519081016040528092919081815260200182805460018160011615610100020316600290048015620001e75780601f10620001bb57610100808354040283529160200191620001e7565b820191906000526020600020905b815481529060010190602001808311620001c957829003601f168201915b50505050506000620001fe6200044260201b60201c565b9050806000806101000a81548173ffffffffffffffffffffffffffffffffffffffff021916908373ffffffffffffffffffffffffffffffffffffffff1602179055508073ffffffffffffffffffffffffffffffffffffffff16600073ffffffffffffffffffffffffffffffffffffffff167f8be0079c531659141344cd1fd0a4f28419497f9722a3daafe3b4186f6b6457e060405160405180910390a350620002b46301ffc9a760e01b6200044a60201b60201c565b8160079080519060200190620002cc92919062000556565b508060089080519060200190620002e592919062000556565b50620002fe6380ac58cd60e01b6200044a60201b60201c565b62000316635b5e139f60e01b6200044a60201b60201c565b6200032e63780e9d6360e01b6200044a60201b60201c565b50506200034c67ff143a109488fc6460c01b6200055360201b60201c565b6200036867d7624a1ce3b41ccc60c01b6200055360201b60201c565b62000384673fdfff43ae1ebb5760c01b6200055360201b60201c565b6200039c6380ac58cd60e01b6200044a60201b60201c565b620003b8675760c9952db86c1760c01b6200055360201b60201c565b620003d4671c15885cbeb227fc60c01b6200055360201b60201c565b620003ec635b5e139f60e01b6200044a60201b60201c565b6200040867cf8c344cbfc8c65b60c01b6200055360201b60201c565b6200042467ba1dc48390244cdd60c01b6200055360201b60201c565b6200043c63780e9d6360e01b6200044a60201b60201c565b6200060c565b600033905090565b63ffffffff60e01b817bffffffffffffffffffffffffffffffffffffffffffffffffffffffff19161415620004e7576040517f08c379a000000000000000000000000000000000000000000000000000000000815260040180806020018281038252601c8152602001807f4552433136353a20696e76616c696420696e746572666163652069640000000081525060200191505060405180910390fd5b6001806000837bffffffffffffffffffffffffffffffffffffffffffffffffffffffff19167bffffffffffffffffffffffffffffffffffffffffffffffffffffffff1916815260200190815260200160002060006101000a81548160ff02191690831515021790555050565b50565b828054600181600116156101000203166002900490600052602060002090601f0160209004810192826200058e5760008555620005da565b82601f10620005a957805160ff1916838001178555620005da565b82800160010185558215620005da579182015b82811115620005d9578251825591602001919060010190620005bc565b5b509050620005e99190620005ed565b5090565b5b8082111562000608576000816000905550600101620005ee565b5090565b612ddc806200061c6000396000f3fe608060405234801561001057600080fd5b50600436106101425760003560e01c80636c0360eb116100b8578063a22cb4651161007c578063a22cb4651461075b578063b88d4fde146107ab578063c87b56dd146108b0578063d1660f9914610957578063e985e9c5146109c5578063f2fde38b14610a3f57610142565b80636c0360eb146105bf57806370a0823114610642578063715018a61461069a5780638da5cb5b146106a457806395d89b41146106d857610142565b806318160ddd1161010a57806318160ddd146103c957806323b872dd146103e75780632f745c591461045557806342842e0e146104b75780634f6ccce7146105255780636352211e1461056757610142565b806301ffc9a71461014757806306fdde03146101aa578063081812fc1461022d578063095ea7b314610285578063150b7a02146102d3575b600080fd5b6101926004803603602081101561015d57600080fd5b8101908080357bffffffffffffffffffffffffffffffffffffffffffffffffffffffff19169060200190929190505050610a83565b60405180821515815260200191505060405180910390f35b6101b2610aeb565b6040518080602001828103825283818151815260200191508051906020019080838360005b838110156101f25780820151818401526020810190506101d7565b50505050905090810190601f16801561021f5780820380516001836020036101000a031916815260200191505b509250505060405180910390f35b6102596004803603602081101561024357600080fd5b8101908080359060200190929190505050610bc9565b604051808273ffffffffffffffffffffffffffffffffffffffff16815260200191505060405180910390f35b6102d16004803603604081101561029b57600080fd5b81019080803573ffffffffffffffffffffffffffffffffffffffff16906020019092919080359060200190929190505050610c64565b005b610394600480360360808110156102e957600080fd5b81019080803573ffffffffffffffffffffffffffffffffffffffff169060200190929190803573ffffffffffffffffffffffffffffffffffffffff169060200190929190803590602001909291908035906020019064010000000081111561035057600080fd5b82018360208201111561036257600080fd5b8035906020019184600183028401116401000000008311171561038457600080fd5b9091929391929390505050610da8565b60405180827bffffffffffffffffffffffffffffffffffffffffffffffffffffffff1916815260200191505060405180910390f35b6103d1610df9565b6040518082815260200191505060405180910390f35b610453600480360360608110156103fd57600080fd5b81019080803573ffffffffffffffffffffffffffffffffffffffff169060200190929190803573ffffffffffffffffffffffffffffffffffffffff16906020019092919080359060200190929190505050610e0a565b005b6104a16004803603604081101561046b57600080fd5b81019080803573ffffffffffffffffffffffffffffffffffffffff16906020019092919080359060200190929190505050610e80565b6040518082815260200191505060405180910390f35b610523600480360360608110156104cd57600080fd5b81019080803573ffffffffffffffffffffffffffffffffffffffff169060200190929190803573ffffffffffffffffffffffffffffffffffffffff16906020019092919080359060200190929190505050610edb565b005b6105516004803603602081101561053b57600080fd5b8101908080359060200190929190505050610efb565b6040518082815260200191505060405180910390f35b6105936004803603602081101561057d57600080fd5b8101908080359060200190929190505050610f1e565b604051808273ffffffffffffffffffffffffffffffffffffffff16815260200191505060405180910390f35b6105c7610f55565b6040518080602001828103825283818151815260200191508051906020019080838360005b838110156106075780820151818401526020810190506105ec565b50505050905090810190601f1680156106345780820380516001836020036101000a031916815260200191505b509250505060405180910390f35b6106846004803603602081101561065857600080fd5b81019080803573ffffffffffffffffffffffffffffffffffffffff169060200190929190505050610ff7565b6040518082815260200191505060405180910390f35b6106a26110cc565b005b6106ac611239565b604051808273ffffffffffffffffffffffffffffffffffffffff16815260200191505060405180910390f35b6106e0611262565b6040518080602001828103825283818151815260200191508051906020019080838360005b83811015610720578082015181840152602081019050610705565b50505050905090810190601f16801561074d5780820380516001836020036101000a031916815260200191505b509250505060405180910390f35b6107a96004803603604081101561077157600080fd5b81019080803573ffffffffffffffffffffffffffffffffffffffff169060200190929190803515159060200190929190505050611340565b005b6108ae600480360360808110156107c157600080fd5b81019080803573ffffffffffffffffffffffffffffffffffffffff169060200190929190803573ffffffffffffffffffffffffffffffffffffffff169060200190929190803590602001909291908035906020019064010000000081111561082857600080fd5b82018360208201111561083a57600080fd5b8035906020019184600183028401116401000000008311171561085c57600080fd5b91908080601f016020809104026020016040519081016040528093929190818152602001838380828437600081840152601f19601f8201169050808301925050505050505091929192905050506114f6565b005b6108dc600480360360208110156108c657600080fd5b810190808035906020019092919050505061156e565b6040518080602001828103825283818151815260200191508051906020019080838360005b8381101561091c578082015181840152602081019050610901565b50505050905090810190601f1680156109495780820380516001836020036101000a031916815260200191505b509250505060405180910390f35b6109c36004803603606081101561096d57600080fd5b81019080803573ffffffffffffffffffffffffffffffffffffffff169060200190929190803573ffffffffffffffffffffffffffffffffffffffff1690602001909291908035906020019092919050505061183f565b005b610a27600480360360408110156109db57600080fd5b81019080803573ffffffffffffffffffffffffffffffffffffffff169060200190929190803573ffffffffffffffffffffffffffffffffffffffff16906020019092919050505061185f565b60405180821515815260200191505060405180910390f35b610a8160048036036020811015610a5557600080fd5b81019080803573ffffffffffffffffffffffffffffffffffffffff1690602001909291905050506118f3565b005b600060016000837bffffffffffffffffffffffffffffffffffffffffffffffffffffffff19167bffffffffffffffffffffffffffffffffffffffffffffffffffffffff1916815260200190815260200160002060009054906101000a900460ff169050919050565b6060610b0167e0a2bda9068cabfe60c01b611ae5565b610b1567bb9405883914c18060c01b611ae5565b610b29672a10c33bf6d334de60c01b611ae5565b600b8054600181600116156101000203166002900480601f016020809104026020016040519081016040528092919081815260200182805460018160011615610100020316600290048015610bbf5780601f10610b9457610100808354040283529160200191610bbf565b820191906000526020600020905b815481529060010190602001808311610ba257829003601f168201915b5050505050905090565b6000610bd482611ae8565b610c29576040517f08c379a000000000000000000000000000000000000000000000000000000000815260040180806020018281038252602c815260200180612cd1602c913960400191505060405180910390fd5b6005600083815260200190815260200160002060009054906101000a900473ffffffffffffffffffffffffffffffffffffffff169050919050565b6000610c6f82610f1e565b90508073ffffffffffffffffffffffffffffffffffffffff168373ffffffffffffffffffffffffffffffffffffffff161415610cf6576040517f08c379a0000000000000000000000000000000000000000000000000000000008152600401808060200182810382526021815260200180612d556021913960400191505060405180910390fd5b8073ffffffffffffffffffffffffffffffffffffffff16610d15611b05565b73ffffffffffffffffffffffffffffffffffffffff161480610d445750610d4381610d3e611b05565b61185f565b5b610d99576040517f08c379a0000000000000000000000000000000000000000000000000000000008152600401808060200182810382526038815260200180612c246038913960400191505060405180910390fd5b610da38383611b0d565b505050565b6000610dbe671f3a6c4f6995f18a60c01b611ae5565b610dd267905382fd901410da60c01b611ae5565b610de6672f3b71c6f436b62160c01b611ae5565b63150b7a0260e01b905095945050505050565b6000610e056003611bc6565b905090565b610e1b610e15611b05565b82611bdb565b610e70576040517f08c379a0000000000000000000000000000000000000000000000000000000008152600401808060200182810382526031815260200180612d766031913960400191505060405180910390fd5b610e7b838383611ccf565b505050565b6000610ed382600260008673ffffffffffffffffffffffffffffffffffffffff1673ffffffffffffffffffffffffffffffffffffffff168152602001908152602001600020611f1290919063ffffffff16565b905092915050565b610ef6838383604051806020016040528060008152506114f6565b505050565b600080610f12836003611f2c90919063ffffffff16565b50905080915050919050565b6000610f4e82604051806060016040528060298152602001612c86602991396003611f589092919063ffffffff16565b9050919050565b6060600a8054600181600116156101000203166002900480601f016020809104026020016040519081016040528092919081815260200182805460018160011615610100020316600290048015610fed5780601f10610fc257610100808354040283529160200191610fed565b820191906000526020600020905b815481529060010190602001808311610fd057829003601f168201915b5050505050905090565b60008073ffffffffffffffffffffffffffffffffffffffff168273ffffffffffffffffffffffffffffffffffffffff16141561107e576040517f08c379a000000000000000000000000000000000000000000000000000000000815260040180806020018281038252602a815260200180612c5c602a913960400191505060405180910390fd5b6110c5600260008473ffffffffffffffffffffffffffffffffffffffff1673ffffffffffffffffffffffffffffffffffffffff168152602001908152602001600020611f77565b9050919050565b6110d4611b05565b73ffffffffffffffffffffffffffffffffffffffff166110f2611239565b73ffffffffffffffffffffffffffffffffffffffff161461117b576040517f08c379a00000000000000000000000000000000000000000000000000000000081526004018080602001828103825260208152602001807f4f776e61626c653a2063616c6c6572206973206e6f7420746865206f776e657281525060200191505060405180910390fd5b600073ffffffffffffffffffffffffffffffffffffffff1660008054906101000a900473ffffffffffffffffffffffffffffffffffffffff1673ffffffffffffffffffffffffffffffffffffffff167f8be0079c531659141344cd1fd0a4f28419497f9722a3daafe3b4186f6b6457e060405160405180910390a360008060006101000a81548173ffffffffffffffffffffffffffffffffffffffff021916908373ffffffffffffffffffffffffffffffffffffffff160217905550565b60008060009054906101000a900473ffffffffffffffffffffffffffffffffffffffff16905090565b606061127867f2a1117a5b1f2bc660c01b611ae5565b61128c6788995413b3abd94f60c01b611ae5565b6112a0670aea185eb7c740a360c01b611ae5565b600c8054600181600116156101000203166002900480601f0160208091040260200160405190810160405280929190818152602001828054600181600116156101000203166002900480156113365780601f1061130b57610100808354040283529160200191611336565b820191906000526020600020905b81548152906001019060200180831161131957829003601f168201915b5050505050905090565b611348611b05565b73ffffffffffffffffffffffffffffffffffffffff168273ffffffffffffffffffffffffffffffffffffffff1614156113e9576040517f08c379a00000000000000000000000000000000000000000000000000000000081526004018080602001828103825260198152602001807f4552433732313a20617070726f766520746f2063616c6c65720000000000000081525060200191505060405180910390fd5b80600660006113f6611b05565b73ffffffffffffffffffffffffffffffffffffffff1673ffffffffffffffffffffffffffffffffffffffff16815260200190815260200160002060008473ffffffffffffffffffffffffffffffffffffffff1673ffffffffffffffffffffffffffffffffffffffff16815260200190815260200160002060006101000a81548160ff0219169083151502179055508173ffffffffffffffffffffffffffffffffffffffff166114a3611b05565b73ffffffffffffffffffffffffffffffffffffffff167f17307eab39ab6107e8899845ad3d59bd9653f200f220920489ca2b5937696c318360405180821515815260200191505060405180910390a35050565b611507611501611b05565b83611bdb565b61155c576040517f08c379a0000000000000000000000000000000000000000000000000000000008152600401808060200182810382526031815260200180612d766031913960400191505060405180910390fd5b61156884848484611f8c565b50505050565b606061157982611ae8565b6115ce576040517f08c379a000000000000000000000000000000000000000000000000000000000815260040180806020018281038252602f815260200180612d26602f913960400191505060405180910390fd5b6000600960008481526020019081526020016000208054600181600116156101000203166002900480601f0160208091040260200160405190810160405280929190818152602001828054600181600116156101000203166002900480156116775780601f1061164c57610100808354040283529160200191611677565b820191906000526020600020905b81548152906001019060200180831161165a57829003601f168201915b505050505090506000611688610f55565b905060008151141561169e57819250505061183a565b60008251111561176f5780826040516020018083805190602001908083835b602083106116e057805182526020820191506020810190506020830392506116bd565b6001836020036101000a03801982511681845116808217855250505050505090500182805190602001908083835b60208310611731578051825260208201915060208101905060208303925061170e565b6001836020036101000a038019825116818451168082178552505050505050905001925050506040516020818303038152906040529250505061183a565b8061177985611ffe565b6040516020018083805190602001908083835b602083106117af578051825260208201915060208101905060208303925061178c565b6001836020036101000a03801982511681845116808217855250505050505090500182805190602001908083835b6020831061180057805182526020820191506020810190506020830392506117dd565b6001836020036101000a03801982511681845116808217855250505050505090500192505050604051602081830303815290604052925050505b919050565b61185a838383604051806020016040528060008152506114f6565b505050565b6000600660008473ffffffffffffffffffffffffffffffffffffffff1673ffffffffffffffffffffffffffffffffffffffff16815260200190815260200160002060008373ffffffffffffffffffffffffffffffffffffffff1673ffffffffffffffffffffffffffffffffffffffff16815260200190815260200160002060009054906101000a900460ff16905092915050565b6118fb611b05565b73ffffffffffffffffffffffffffffffffffffffff16611919611239565b73ffffffffffffffffffffffffffffffffffffffff16146119a2576040517f08c379a00000000000000000000000000000000000000000000000000000000081526004018080602001828103825260208152602001807f4f776e61626c653a2063616c6c6572206973206e6f7420746865206f776e657281525060200191505060405180910390fd5b600073ffffffffffffffffffffffffffffffffffffffff168173ffffffffffffffffffffffffffffffffffffffff161415611a28576040517f08c379a0000000000000000000000000000000000000000000000000000000008152600401808060200182810382526026815260200180612b886026913960400191505060405180910390fd5b8073ffffffffffffffffffffffffffffffffffffffff1660008054906101000a900473ffffffffffffffffffffffffffffffffffffffff1673ffffffffffffffffffffffffffffffffffffffff167f8be0079c531659141344cd1fd0a4f28419497f9722a3daafe3b4186f6b6457e060405160405180910390a3806000806101000a81548173ffffffffffffffffffffffffffffffffffffffff021916908373ffffffffffffffffffffffffffffffffffffffff16021790555050565b50565b6000611afe82600361214590919063ffffffff16565b9050919050565b600033905090565b816005600083815260200190815260200160002060006101000a81548173ffffffffffffffffffffffffffffffffffffffff021916908373ffffffffffffffffffffffffffffffffffffffff160217905550808273ffffffffffffffffffffffffffffffffffffffff16611b8083610f1e565b73ffffffffffffffffffffffffffffffffffffffff167f8c5be1e5ebec7d5bd14f71427d1e84f3dd0314c0f7b2291e5b200ac8c7c3b92560405160405180910390a45050565b6000611bd48260000161215f565b9050919050565b6000611be682611ae8565b611c3b576040517f08c379a000000000000000000000000000000000000000000000000000000000815260040180806020018281038252602c815260200180612bf8602c913960400191505060405180910390fd5b6000611c4683610f1e565b90508073ffffffffffffffffffffffffffffffffffffffff168473ffffffffffffffffffffffffffffffffffffffff161480611cb557508373ffffffffffffffffffffffffffffffffffffffff16611c9d84610bc9565b73ffffffffffffffffffffffffffffffffffffffff16145b80611cc65750611cc5818561185f565b5b91505092915050565b8273ffffffffffffffffffffffffffffffffffffffff16611cef82610f1e565b73ffffffffffffffffffffffffffffffffffffffff1614611d5b576040517f08c379a0000000000000000000000000000000000000000000000000000000008152600401808060200182810382526029815260200180612cfd6029913960400191505060405180910390fd5b600073ffffffffffffffffffffffffffffffffffffffff168273ffffffffffffffffffffffffffffffffffffffff161415611de1576040517f08c379a0000000000000000000000000000000000000000000000000000000008152600401808060200182810382526024815260200180612bae6024913960400191505060405180910390fd5b611dec838383612170565b611df7600082611b0d565b611e4881600260008673ffffffffffffffffffffffffffffffffffffffff1673ffffffffffffffffffffffffffffffffffffffff16815260200190815260200160002061217590919063ffffffff16565b50611e9a81600260008573ffffffffffffffffffffffffffffffffffffffff1673ffffffffffffffffffffffffffffffffffffffff16815260200190815260200160002061218f90919063ffffffff16565b50611eb1818360036121a99092919063ffffffff16565b50808273ffffffffffffffffffffffffffffffffffffffff168473ffffffffffffffffffffffffffffffffffffffff167fddf252ad1be2c89b69c2b068fc378daa952ba7f163c4a11628f55a4df523b3ef60405160405180910390a4505050565b6000611f2183600001836121de565b60001c905092915050565b600080600080611f3f8660000186612261565b915091508160001c8160001c9350935050509250929050565b6000611f6b846000018460001b846122fa565b60001c90509392505050565b6000611f85826000016123f0565b9050919050565b611f97848484611ccf565b611fa384848484612401565b611ff8576040517f08c379a0000000000000000000000000000000000000000000000000000000008152600401808060200182810382526032815260200180612b566032913960400191505060405180910390fd5b50505050565b60606000821415612046576040518060400160405280600181526020017f30000000000000000000000000000000000000000000000000000000000000008152509050612140565b600082905060005b60008214612070578080600101915050600a828161206857fe5b04915061204e565b60008167ffffffffffffffff8111801561208957600080fd5b506040519080825280601f01601f1916602001820160405280156120bc5781602001600182028036833780820191505090505b50905060006001830390508593505b6000841461213857600a84816120dd57fe5b0660300160f81b828280600190039350815181106120f757fe5b60200101907effffffffffffffffffffffffffffffffffffffffffffffffffffffffffffff1916908160001a905350600a848161213057fe5b0493506120cb565b819450505050505b919050565b6000612157836000018360001b61261a565b905092915050565b600081600001805490509050919050565b505050565b6000612187836000018360001b61263d565b905092915050565b60006121a1836000018360001b612725565b905092915050565b60006121d5846000018460001b8473ffffffffffffffffffffffffffffffffffffffff1660001b612795565b90509392505050565b60008183600001805490501161223f576040517f08c379a0000000000000000000000000000000000000000000000000000000008152600401808060200182810382526022815260200180612b346022913960400191505060405180910390fd5b82600001828154811061224e57fe5b9060005260206000200154905092915050565b600080828460000180549050116122c3576040517f08c379a0000000000000000000000000000000000000000000000000000000008152600401808060200182810382526022815260200180612caf6022913960400191505060405180910390fd5b60008460000184815481106122d457fe5b906000526020600020906002020190508060000154816001015492509250509250929050565b600080846001016000858152602001908152602001600020549050600081141583906123c1576040517f08c379a00000000000000000000000000000000000000000000000000000000081526004018080602001828103825283818151815260200191508051906020019080838360005b8381101561238657808201518184015260208101905061236b565b50505050905090810190601f1680156123b35780820380516001836020036101000a031916815260200191505b509250505060405180910390fd5b508460000160018203815481106123d457fe5b9060005260206000209060020201600101549150509392505050565b600081600001805490509050919050565b60006124228473ffffffffffffffffffffffffffffffffffffffff16612871565b61242f5760019050612612565b600061259963150b7a0260e01b612444611b05565b888787604051602401808573ffffffffffffffffffffffffffffffffffffffff1681526020018473ffffffffffffffffffffffffffffffffffffffff16815260200183815260200180602001828103825283818151815260200191508051906020019080838360005b838110156124c85780820151818401526020810190506124ad565b50505050905090810190601f1680156124f55780820380516001836020036101000a031916815260200191505b5095505050505050604051602081830303815290604052907bffffffffffffffffffffffffffffffffffffffffffffffffffffffff19166020820180517bffffffffffffffffffffffffffffffffffffffffffffffffffffffff8381831617835250505050604051806060016040528060328152602001612b56603291398773ffffffffffffffffffffffffffffffffffffffff166128849092919063ffffffff16565b905060008180602001905160208110156125b257600080fd5b8101908080519060200190929190505050905063150b7a0260e01b7bffffffffffffffffffffffffffffffffffffffffffffffffffffffff1916817bffffffffffffffffffffffffffffffffffffffffffffffffffffffff191614925050505b949350505050565b600080836001016000848152602001908152602001600020541415905092915050565b60008083600101600084815260200190815260200160002054905060008114612719576000600182039050600060018660000180549050039050600086600001828154811061268857fe5b90600052602060002001549050808760000184815481106126a557fe5b90600052602060002001819055506001830187600101600083815260200190815260200160002081905550866000018054806126dd57fe5b6001900381819060005260206000200160009055905586600101600087815260200190815260200160002060009055600194505050505061271f565b60009150505b92915050565b6000612731838361289c565b61278a57826000018290806001815401808255809150506001900390600052602060002001600090919091909150558260000180549050836001016000848152602001908152602001600020819055506001905061278f565b600090505b92915050565b600080846001016000858152602001908152602001600020549050600081141561283c5784600001604051806040016040528086815260200185815250908060018154018082558091505060019003906000526020600020906002020160009091909190915060008201518160000155602082015181600101555050846000018054905085600101600086815260200190815260200160002081905550600191505061286a565b8285600001600183038154811061284f57fe5b90600052602060002090600202016001018190555060009150505b9392505050565b600080823b905060008111915050919050565b606061289384846000856128bf565b90509392505050565b600080836001016000848152602001908152602001600020541415905092915050565b60608247101561291a576040517f08c379a0000000000000000000000000000000000000000000000000000000008152600401808060200182810382526026815260200180612bd26026913960400191505060405180910390fd5b61292385612871565b612995576040517f08c379a000000000000000000000000000000000000000000000000000000000815260040180806020018281038252601d8152602001807f416464726573733a2063616c6c20746f206e6f6e2d636f6e747261637400000081525060200191505060405180910390fd5b6000808673ffffffffffffffffffffffffffffffffffffffff1685876040518082805190602001908083835b602083106129e457805182526020820191506020810190506020830392506129c1565b6001836020036101000a03801982511681845116808217855250505050505090500191505060006040518083038185875af1925050503d8060008114612a46576040519150601f19603f3d011682016040523d82523d6000602084013e612a4b565b606091505b5091509150612a5b828286612a67565b92505050949350505050565b60608315612a7757829050612b2c565b600083511115612a8a5782518084602001fd5b816040517f08c379a00000000000000000000000000000000000000000000000000000000081526004018080602001828103825283818151815260200191508051906020019080838360005b83811015612af1578082015181840152602081019050612ad6565b50505050905090810190601f168015612b1e5780820380516001836020036101000a031916815260200191505b509250505060405180910390fd5b939250505056fe456e756d657261626c655365743a20696e646578206f7574206f6620626f756e64734552433732313a207472616e7366657220746f206e6f6e20455243373231526563656976657220696d706c656d656e7465724f776e61626c653a206e6577206f776e657220697320746865207a65726f20616464726573734552433732313a207472616e7366657220746f20746865207a65726f2061646472657373416464726573733a20696e73756666696369656e742062616c616e636520666f722063616c6c4552433732313a206f70657261746f7220717565727920666f72206e6f6e6578697374656e7420746f6b656e4552433732313a20617070726f76652063616c6c6572206973206e6f74206f776e6572206e6f7220617070726f76656420666f7220616c6c4552433732313a2062616c616e636520717565727920666f7220746865207a65726f20616464726573734552433732313a206f776e657220717565727920666f72206e6f6e6578697374656e7420746f6b656e456e756d657261626c654d61703a20696e646578206f7574206f6620626f756e64734552433732313a20617070726f76656420717565727920666f72206e6f6e6578697374656e7420746f6b656e4552433732313a207472616e73666572206f6620746f6b656e2074686174206973206e6f74206f776e4552433732314d657461646174613a2055524920717565727920666f72206e6f6e6578697374656e7420746f6b656e4552433732313a20617070726f76616c20746f2063757272656e74206f776e65724552433732313a207472616e736665722063616c6c6572206973206e6f74206f776e6572206e6f7220617070726f766564a264697066735822122069dc066986a1e696c861fe80f9ea09275990139665a3399ed26b8da3ec10bbe664736f6c63430007060033",
  "linkReferences": {},
  "deployedLinkReferences": {}
}